{
  "_format": "hh-sol-artifact-1",
  "contractName": "DAOToken",
  "sourceName": "contracts/DAOToken.sol",
  "abi": [
    {
      "inputs": [
        {
          "internalType": "address",
          "name": "initialOwner",
          "type": "address"
        }
      ],
      "stateMutability": "nonpayable",
      "type": "constructor"
    },
    {
      "inputs": [],
      "name": "CheckpointUnorderedInsertion",
      "type": "error"
    },
    {
      "inputs": [],
      "name": "ECDSAInvalidSignature",
      "type": "error"
    },
    {
      "inputs": [
        {
          "internalType": "uint256",
          "name": "length",
          "type": "uint256"
        }
      ],
      "name": "ECDSAInvalidSignatureLength",
      "type": "error"
    },
    {
      "inputs": [
        {
          "internalType": "bytes32",
          "name": "s",
          "type": "bytes32"
        }
      ],
      "name": "ECDSAInvalidSignatureS",
      "type": "error"
    },
    {
      "inputs": [
        {
          "internalType": "uint256",
          "name": "increasedSupply",
          "type": "uint256"
        },
        {
          "internalType": "uint256",
          "name": "cap",
          "type": "uint256"
        }
      ],
      "name": "ERC20ExceededSafeSupply",
      "type": "error"
    },
    {
      "inputs": [
        {
          "internalType": "address",
          "name": "spender",
          "type": "address"
        },
        {
          "internalType": "uint256",
          "name": "allowance",
          "type": "uint256"
        },
        {
          "internalType": "uint256",
          "name": "needed",
          "type": "uint256"
        }
      ],
      "name": "ERC20InsufficientAllowance",
      "type": "error"
    },
    {
      "inputs": [
        {
          "internalType": "address",
          "name": "sender",
          "type": "address"
        },
        {
          "internalType": "uint256",
          "name": "balance",
          "type": "uint256"
        },
        {
          "internalType": "uint256",
          "name": "needed",
          "type": "uint256"
        }
      ],
      "name": "ERC20InsufficientBalance",
      "type": "error"
    },
    {
      "inputs": [
        {
          "internalType": "address",
          "name": "approver",
          "type": "address"
        }
      ],
      "name": "ERC20InvalidApprover",
      "type": "error"
    },
    {
      "inputs": [
        {
          "internalType": "address",
          "name": "receiver",
          "type": "address"
        }
      ],
      "name": "ERC20InvalidReceiver",
      "type": "error"
    },
    {
      "inputs": [
        {
          "internalType": "address",
          "name": "sender",
          "type": "address"
        }
      ],
      "name": "ERC20InvalidSender",
      "type": "error"
    },
    {
      "inputs": [
        {
          "internalType": "address",
          "name": "spender",
          "type": "address"
        }
      ],
      "name": "ERC20InvalidSpender",
      "type": "error"
    },
    {
      "inputs": [
        {
          "internalType": "uint256",
          "name": "timepoint",
          "type": "uint256"
        },
        {
          "internalType": "uint48",
          "name": "clock",
          "type": "uint48"
        }
      ],
      "name": "ERC5805FutureLookup",
      "type": "error"
    },
    {
      "inputs": [],
      "name": "ERC6372InconsistentClock",
      "type": "error"
    },
    {
      "inputs": [
        {
          "internalType": "address",
          "name": "account",
          "type": "address"
        },
        {
          "internalType": "uint256",
          "name": "currentNonce",
          "type": "uint256"
        }
      ],
      "name": "InvalidAccountNonce",
      "type": "error"
    },
    {
      "inputs": [],
      "name": "InvalidShortString",
      "type": "error"
    },
    {
      "inputs": [
        {
          "internalType": "address",
          "name": "owner",
          "type": "address"
        }
      ],
      "name": "OwnableInvalidOwner",
      "type": "error"
    },
    {
      "inputs": [
        {
          "internalType": "address",
          "name": "account",
          "type": "address"
        }
      ],
      "name": "OwnableUnauthorizedAccount",
      "type": "error"
    },
    {
      "inputs": [
        {
          "internalType": "uint8",
          "name": "bits",
          "type": "uint8"
        },
        {
          "internalType": "uint256",
          "name": "value",
          "type": "uint256"
        }
      ],
      "name": "SafeCastOverflowedUintDowncast",
      "type": "error"
    },
    {
      "inputs": [
        {
          "internalType": "string",
          "name": "str",
          "type": "string"
        }
      ],
      "name": "StringTooLong",
      "type": "error"
    },
    {
      "inputs": [
        {
          "internalType": "uint256",
          "name": "expiry",
          "type": "uint256"
        }
      ],
      "name": "VotesExpiredSignature",
      "type": "error"
    },
    {
      "anonymous": false,
      "inputs": [
        {
          "indexed": true,
          "internalType": "address",
          "name": "owner",
          "type": "address"
        },
        {
          "indexed": true,
          "internalType": "address",
          "name": "spender",
          "type": "address"
        },
        {
          "indexed": false,
          "internalType": "uint256",
          "name": "value",
          "type": "uint256"
        }
      ],
      "name": "Approval",
      "type": "event"
    },
    {
      "anonymous": false,
      "inputs": [
        {
          "indexed": true,
          "internalType": "address",
          "name": "delegator",
          "type": "address"
        },
        {
          "indexed": true,
          "internalType": "address",
          "name": "fromDelegate",
          "type": "address"
        },
        {
          "indexed": true,
          "internalType": "address",
          "name": "toDelegate",
          "type": "address"
        }
      ],
      "name": "DelegateChanged",
      "type": "event"
    },
    {
      "anonymous": false,
      "inputs": [
        {
          "indexed": true,
          "internalType": "address",
          "name": "delegate",
          "type": "address"
        },
        {
          "indexed": false,
          "internalType": "uint256",
          "name": "previousVotes",
          "type": "uint256"
        },
        {
          "indexed": false,
          "internalType": "uint256",
          "name": "newVotes",
          "type": "uint256"
        }
      ],
      "name": "DelegateVotesChanged",
      "type": "event"
    },
    {
      "anonymous": false,
      "inputs": [],
      "name": "EIP712DomainChanged",
      "type": "event"
    },
    {
      "anonymous": false,
      "inputs": [
        {
          "indexed": true,
          "internalType": "address",
          "name": "minter",
          "type": "address"
        }
      ],
      "name": "MinterAdded",
      "type": "event"
    },
    {
      "anonymous": false,
      "inputs": [
        {
          "indexed": true,
          "internalType": "address",
          "name": "minter",
          "type": "address"
        }
      ],
      "name": "MinterRemoved",
      "type": "event"
    },
    {
      "anonymous": false,
      "inputs": [
        {
          "indexed": true,
          "internalType": "address",
          "name": "previousOwner",
          "type": "address"
        },
        {
          "indexed": true,
          "internalType": "address",
          "name": "newOwner",
          "type": "address"
        }
      ],
      "name": "OwnershipTransferred",
      "type": "event"
    },
    {
      "anonymous": false,
      "inputs": [
        {
          "indexed": true,
          "internalType": "address",
          "name": "from",
          "type": "address"
        },
        {
          "indexed": true,
          "internalType": "address",
          "name": "to",
          "type": "address"
        },
        {
          "indexed": false,
          "internalType": "uint256",
          "name": "value",
          "type": "uint256"
        }
      ],
      "name": "Transfer",
      "type": "event"
    },
    {
      "inputs": [],
      "name": "CLOCK_MODE",
      "outputs": [
        {
          "internalType": "string",
          "name": "",
          "type": "string"
        }
      ],
      "stateMutability": "view",
      "type": "function"
    },
    {
      "inputs": [],
      "name": "INITIAL_SUPPLY",
      "outputs": [
        {
          "internalType": "uint256",
          "name": "",
          "type": "uint256"
        }
      ],
      "stateMutability": "view",
      "type": "function"
    },
    {
      "inputs": [],
      "name": "MAX_SUPPLY",
      "outputs": [
        {
          "internalType": "uint256",
          "name": "",
          "type": "uint256"
        }
      ],
      "stateMutability": "view",
      "type": "function"
    },
    {
      "inputs": [
        {
          "internalType": "address",
          "name": "minter",
          "type": "address"
        }
      ],
      "name": "addMinter",
      "outputs": [],
      "stateMutability": "nonpayable",
      "type": "function"
    },
    {
      "inputs": [
        {
          "internalType": "address",
          "name": "owner",
          "type": "address"
        },
        {
          "internalType": "address",
          "name": "spender",
          "type": "address"
        }
      ],
      "name": "allowance",
      "outputs": [
        {
          "internalType": "uint256",
          "name": "",
          "type": "uint256"
        }
      ],
      "stateMutability": "view",
      "type": "function"
    },
    {
      "inputs": [
        {
          "internalType": "address",
          "name": "spender",
          "type": "address"
        },
        {
          "internalType": "uint256",
          "name": "value",
          "type": "uint256"
        }
      ],
      "name": "approve",
      "outputs": [
        {
          "internalType": "bool",
          "name": "",
          "type": "bool"
        }
      ],
      "stateMutability": "nonpayable",
      "type": "function"
    },
    {
      "inputs": [
        {
          "internalType": "address",
          "name": "account",
          "type": "address"
        }
      ],
      "name": "balanceOf",
      "outputs": [
        {
          "internalType": "uint256",
          "name": "",
          "type": "uint256"
        }
      ],
      "stateMutability": "view",
      "type": "function"
    },
    {
      "inputs": [
        {
          "internalType": "address[]",
          "name": "recipients",
          "type": "address[]"
        },
        {
          "internalType": "uint256[]",
          "name": "amounts",
          "type": "uint256[]"
        }
      ],
      "name": "batchMint",
      "outputs": [],
      "stateMutability": "nonpayable",
      "type": "function"
    },
    {
      "inputs": [
        {
          "internalType": "address",
          "name": "account",
          "type": "address"
        },
        {
          "internalType": "uint32",
          "name": "pos",
          "type": "uint32"
        }
      ],
      "name": "checkpoints",
      "outputs": [
        {
          "components": [
            {
              "internalType": "uint48",
              "name": "_key",
              "type": "uint48"
            },
            {
              "internalType": "uint208",
              "name": "_value",
              "type": "uint208"
            }
          ],
          "internalType": "struct Checkpoints.Checkpoint208",
          "name": "",
          "type": "tuple"
        }
      ],
      "stateMutability": "view",
      "type": "function"
    },
    {
      "inputs": [],
      "name": "clock",
      "outputs": [
        {
          "internalType": "uint48",
          "name": "",
          "type": "uint48"
        }
      ],
      "stateMutability": "view",
      "type": "function"
    },
    {
      "inputs": [],
      "name": "decimals",
      "outputs": [
        {
          "internalType": "uint8",
          "name": "",
          "type": "uint8"
        }
      ],
      "stateMutability": "view",
      "type": "function"
    },
    {
      "inputs": [
        {
          "internalType": "address",
          "name": "delegatee",
          "type": "address"
        }
      ],
      "name": "delegate",
      "outputs": [],
      "stateMutability": "nonpayable",
      "type": "function"
    },
    {
      "inputs": [
        {
          "internalType": "address",
          "name": "delegatee",
          "type": "address"
        },
        {
          "internalType": "uint256",
          "name": "nonce",
          "type": "uint256"
        },
        {
          "internalType": "uint256",
          "name": "expiry",
          "type": "uint256"
        },
        {
          "internalType": "uint8",
          "name": "v",
          "type": "uint8"
        },
        {
          "internalType": "bytes32",
          "name": "r",
          "type": "bytes32"
        },
        {
          "internalType": "bytes32",
          "name": "s",
          "type": "bytes32"
        }
      ],
      "name": "delegateBySig",
      "outputs": [],
      "stateMutability": "nonpayable",
      "type": "function"
    },
    {
      "inputs": [
        {
          "internalType": "address",
          "name": "account",
          "type": "address"
        }
      ],
      "name": "delegates",
      "outputs": [
        {
          "internalType": "address",
          "name": "",
          "type": "address"
        }
      ],
      "stateMutability": "view",
      "type": "function"
    },
    {
      "inputs": [],
      "name": "eip712Domain",
      "outputs": [
        {
          "internalType": "bytes1",
          "name": "fields",
          "type": "bytes1"
        },
        {
          "internalType": "string",
          "name": "name",
          "type": "string"
        },
        {
          "internalType": "string",
          "name": "version",
          "type": "string"
        },
        {
          "internalType": "uint256",
          "name": "chainId",
          "type": "uint256"
        },
        {
          "internalType": "address",
          "name": "verifyingContract",
          "type": "address"
        },
        {
          "internalType": "bytes32",
          "name": "salt",
          "type": "bytes32"
        },
        {
          "internalType": "uint256[]",
          "name": "extensions",
          "type": "uint256[]"
        }
      ],
      "stateMutability": "view",
      "type": "function"
    },
    {
      "inputs": [
        {
          "internalType": "uint256",
          "name": "timepoint",
          "type": "uint256"
        }
      ],
      "name": "getPastTotalSupply",
      "outputs": [
        {
          "internalType": "uint256",
          "name": "",
          "type": "uint256"
        }
      ],
      "stateMutability": "view",
      "type": "function"
    },
    {
      "inputs": [
        {
          "internalType": "address",
          "name": "account",
          "type": "address"
        },
        {
          "internalType": "uint256",
          "name": "timepoint",
          "type": "uint256"
        }
      ],
      "name": "getPastVotes",
      "outputs": [
        {
          "internalType": "uint256",
          "name": "",
          "type": "uint256"
        }
      ],
      "stateMutability": "view",
      "type": "function"
    },
    {
      "inputs": [
        {
          "internalType": "address",
          "name": "account",
          "type": "address"
        }
      ],
      "name": "getVotes",
      "outputs": [
        {
          "internalType": "uint256",
          "name": "",
          "type": "uint256"
        }
      ],
      "stateMutability": "view",
      "type": "function"
    },
    {
      "inputs": [
        {
          "internalType": "address",
          "name": "to",
          "type": "address"
        },
        {
          "internalType": "uint256",
          "name": "amount",
          "type": "uint256"
        }
      ],
      "name": "mint",
      "outputs": [],
      "stateMutability": "nonpayable",
      "type": "function"
    },
    {
      "inputs": [
        {
          "internalType": "address",
          "name": "",
          "type": "address"
        }
      ],
      "name": "minters",
      "outputs": [
        {
          "internalType": "bool",
          "name": "",
          "type": "bool"
        }
      ],
      "stateMutability": "view",
      "type": "function"
    },
    {
      "inputs": [],
      "name": "name",
      "outputs": [
        {
          "internalType": "string",
          "name": "",
          "type": "string"
        }
      ],
      "stateMutability": "view",
      "type": "function"
    },
    {
      "inputs": [
        {
          "internalType": "address",
          "name": "owner",
          "type": "address"
        }
      ],
      "name": "nonces",
      "outputs": [
        {
          "internalType": "uint256",
          "name": "",
          "type": "uint256"
        }
      ],
      "stateMutability": "view",
      "type": "function"
    },
    {
      "inputs": [
        {
          "internalType": "address",
          "name": "account",
          "type": "address"
        }
      ],
      "name": "numCheckpoints",
      "outputs": [
        {
          "internalType": "uint32",
          "name": "",
          "type": "uint32"
        }
      ],
      "stateMutability": "view",
      "type": "function"
    },
    {
      "inputs": [],
      "name": "owner",
      "outputs": [
        {
          "internalType": "address",
          "name": "",
          "type": "address"
        }
      ],
      "stateMutability": "view",
      "type": "function"
    },
    {
      "inputs": [
        {
          "internalType": "address",
          "name": "minter",
          "type": "address"
        }
      ],
      "name": "removeMinter",
      "outputs": [],
      "stateMutability": "nonpayable",
      "type": "function"
    },
    {
      "inputs": [],
      "name": "renounceOwnership",
      "outputs": [],
      "stateMutability": "nonpayable",
      "type": "function"
    },
    {
      "inputs": [],
      "name": "symbol",
      "outputs": [
        {
          "internalType": "string",
          "name": "",
          "type": "string"
        }
      ],
      "stateMutability": "view",
      "type": "function"
    },
    {
      "inputs": [],
      "name": "totalSupply",
      "outputs": [
        {
          "internalType": "uint256",
          "name": "",
          "type": "uint256"
        }
      ],
      "stateMutability": "view",
      "type": "function"
    },
    {
      "inputs": [
        {
          "internalType": "address",
          "name": "to",
          "type": "address"
        },
        {
          "internalType": "uint256",
          "name": "value",
          "type": "uint256"
        }
      ],
      "name": "transfer",
      "outputs": [
        {
          "internalType": "bool",
          "name": "",
          "type": "bool"
        }
      ],
      "stateMutability": "nonpayable",
      "type": "function"
    },
    {
      "inputs": [
        {
          "internalType": "address",
          "name": "from",
          "type": "address"
        },
        {
          "internalType": "address",
          "name": "to",
          "type": "address"
        },
        {
          "internalType": "uint256",
          "name": "value",
          "type": "uint256"
        }
      ],
      "name": "transferFrom",
      "outputs": [
        {
          "internalType": "bool",
          "name": "",
          "type": "bool"
        }
      ],
      "stateMutability": "nonpayable",
      "type": "function"
    },
    {
      "inputs": [
        {
          "internalType": "address",
          "name": "newOwner",
          "type": "address"
        }
      ],
      "name": "transferOwnership",
      "outputs": [],
      "stateMutability": "nonpayable",
      "type": "function"
    }
  ],
  "bytecode": "0x6101606040523480156200001257600080fd5b5060405162002ec338038062002ec383398101604081905262000035916200098d565b806040518060400160405280601381526020017229b2b1bab932a3b4b3902220a7902a37b5b2b760691b815250604051806040016040528060018152602001603160f81b8152506040518060400160405280601381526020017229b2b1bab932a3b4b3902220a7902a37b5b2b760691b8152506040518060400160405280600481526020016314d1d11560e21b8152508160039081620000d6919062000a5c565b506004620000e5828262000a5c565b50620000f79150839050600562000219565b610120526200010881600662000219565b61014052815160208084019190912060e052815190820120610100524660a0526200019660e05161010051604080517f8b73c3c69bb8fe3d512ecc4cf759cc79239f7b179b0ffacaa9a75d522b39400f60208201529081019290925260608201524660808201523060a082015260009060c00160405160208183030381529060405280519060200120905090565b60805250503060c0526001600160a01b038116620001cf57604051631e4fbdf760e01b8152600060048201526024015b60405180910390fd5b620001da8162000252565b50620001f18169d3c21bcecceda1000000620002a4565b6001600160a01b03166000908152600c60205260409020805460ff1916600117905562000c2c565b600060208351101562000239576200023183620002e2565b90506200024c565b8162000246848262000a5c565b5060ff90505b92915050565b600b80546001600160a01b038381166001600160a01b0319831681179093556040519116919082907f8be0079c531659141344cd1fd0a4f28419497f9722a3daafe3b4186f6b6457e090600090a35050565b6001600160a01b038216620002d05760405163ec442f0560e01b815260006004820152602401620001c6565b620002de6000838362000325565b5050565b600080829050601f8151111562000310578260405163305a27a960e01b8152600401620001c6919062000b28565b80516200031d8262000b78565b179392505050565b6200033283838362000337565b505050565b62000344838383620003a6565b6001600160a01b038316620003995760006200035f60025490565b90506001600160d01b03808211156200039657604051630e58ae9360e11b81526004810183905260248101829052604401620001c6565b50505b62000332838383620004d9565b6001600160a01b038316620003d5578060026000828254620003c9919062000bb3565b90915550620004499050565b6001600160a01b038316600090815260208190526040902054818110156200042a5760405163391434e360e21b81526001600160a01b03851660048201526024810182905260448101839052606401620001c6565b6001600160a01b03841660009081526020819052604090209082900390555b6001600160a01b038216620004675760028054829003905562000486565b6001600160a01b03821660009081526020819052604090208054820190555b816001600160a01b0316836001600160a01b03167fddf252ad1be2c89b69c2b068fc378daa952ba7f163c4a11628f55a4df523b3ef83604051620004cc91815260200190565b60405180910390a3505050565b6001600160a01b0383166200050e576200050b600a62000bf16200057160201b17620005058462000586565b620005c0565b50505b6001600160a01b0382166200053d576200053a600a62000bfd620005fd60201b17620005058462000586565b50505b6001600160a01b0383811660009081526008602052604080822054858416835291205462000332929182169116836200060b565b60006200057f828462000bc9565b9392505050565b60006001600160d01b03821115620005bc576040516306dfcc6560e41b815260d0600482015260248101839052604401620001c6565b5090565b600080620005f0620005d162000772565b620005e7620005e08862000783565b868860201c565b879190620007d2565b915091505b935093915050565b60006200057f828462000bf3565b816001600160a01b0316836001600160a01b0316141580156200062e5750600081115b1562000332576001600160a01b03831615620006d1576001600160a01b0383166000908152600960209081526040822082916200067c9190620005fd901b62000bfd17620005058662000586565b6001600160d01b031691506001600160d01b03169150846001600160a01b031660008051602062002ea38339815191528383604051620006c6929190918252602082015260400190565b60405180910390a250505b6001600160a01b0382161562000332576001600160a01b03821660009081526009602090815260408220829162000719919062000571901b62000bf117620005058662000586565b6001600160d01b031691506001600160d01b03169150836001600160a01b031660008051602062002ea3833981519152838360405162000763929190918252602082015260400190565b60405180910390a25050505050565b60006200077e620007e2565b905090565b80546000908015620007c957620007af83620007a160018462000c16565b600091825260209091200190565b54660100000000000090046001600160d01b03166200057f565b60009392505050565b600080620005f0858585620007ef565b60006200077e4362000958565b825460009081908015620008f95760006200081187620007a160018562000c16565b805490915065ffffffffffff80821691660100000000000090046001600160d01b03169088168211156200085857604051632520601d60e01b815260040160405180910390fd5b8765ffffffffffff168265ffffffffffff16036200089657825465ffffffffffff1666010000000000006001600160d01b03891602178355620008ea565b6040805180820190915265ffffffffffff808a1682526001600160d01b03808a1660208085019182528d54600181018f5560008f815291909120945191519092166601000000000000029216919091179101555b9450859350620005f592505050565b50506040805180820190915265ffffffffffff80851682526001600160d01b0380851660208085019182528854600181018a5560008a8152918220955192519093166601000000000000029190931617920191909155905081620005f5565b600065ffffffffffff821115620005bc576040516306dfcc6560e41b81526030600482015260248101839052604401620001c6565b600060208284031215620009a057600080fd5b81516001600160a01b03811681146200057f57600080fd5b634e487b7160e01b600052604160045260246000fd5b600181811c90821680620009e357607f821691505b60208210810362000a0457634e487b7160e01b600052602260045260246000fd5b50919050565b601f8211156200033257600081815260208120601f850160051c8101602086101562000a335750805b601f850160051c820191505b8181101562000a545782815560010162000a3f565b505050505050565b81516001600160401b0381111562000a785762000a78620009b8565b62000a908162000a898454620009ce565b8462000a0a565b602080601f83116001811462000ac8576000841562000aaf5750858301515b600019600386901b1c1916600185901b17855562000a54565b600085815260208120601f198616915b8281101562000af95788860151825594840194600190910190840162000ad8565b508582101562000b185787850151600019600388901b60f8161c191681555b5050505050600190811b01905550565b600060208083528351808285015260005b8181101562000b575785810183015185820160400152820162000b39565b506000604082860101526040601f19601f8301168501019250505092915050565b8051602080830151919081101562000a045760001960209190910360031b1b16919050565b634e487b7160e01b600052601160045260246000fd5b808201808211156200024c576200024c62000b9d565b6001600160d01b0381811683821601908082111562000bec5762000bec62000b9d565b5092915050565b6001600160d01b0382811682821603908082111562000bec5762000bec62000b9d565b818103818111156200024c576200024c62000b9d565b60805160a05160c05160e05161010051610120516101405161221c62000c876000396000610f8601526000610f59015260006116db015260006116b30152600061160e0152600061163801526000611662015261221c6000f3fe608060405234801561001057600080fd5b50600436106101e55760003560e01c806370a082311161010f578063983b2d56116100a2578063dd62ed3e11610071578063dd62ed3e1461044d578063f1127ed814610486578063f2fde38b146104c5578063f46eccc4146104d857600080fd5b8063983b2d56146104015780639ab24eb014610414578063a9059cbb14610427578063c3cda5201461043a57600080fd5b80638da5cb5b116100de5780638da5cb5b146103b65780638e539e8c146103c757806391ddadf4146103da57806395d89b41146103f957600080fd5b806370a0823114610357578063715018a6146103805780637ecebe001461038857806384b0196e1461039b57600080fd5b806332cb6b0c11610187578063587cde1e11610156578063587cde1e146102c55780635c19a95c14610309578063685731071461031c5780636fcfff451461032f57600080fd5b806332cb6b0c146102855780633a46b1a81461029757806340c10f19146102aa5780634bf5d7e9146102bd57600080fd5b806323b872dd116101c357806323b872dd1461023d5780632ff2e9dc146102505780633092afd514610261578063313ce5671461027657600080fd5b806306fdde03146101ea578063095ea7b31461020857806318160ddd1461022b575b600080fd5b6101f26104fb565b6040516101ff9190611dc2565b60405180910390f35b61021b610216366004611df1565b61058d565b60405190151581526020016101ff565b6002545b6040519081526020016101ff565b61021b61024b366004611e1b565b6105a7565b61022f69d3c21bcecceda100000081565b61027461026f366004611e57565b6105cb565b005b604051601281526020016101ff565b61022f6a084595161401484a00000081565b61022f6102a5366004611df1565b61061c565b6102746102b8366004611df1565b610658565b6101f261073b565b6102f16102d3366004611e57565b6001600160a01b039081166000908152600860205260409020541690565b6040516001600160a01b0390911681526020016101ff565b610274610317366004611e57565b6107b3565b61027461032a366004611ebe565b6107be565b61034261033d366004611e57565b610988565b60405163ffffffff90911681526020016101ff565b61022f610365366004611e57565b6001600160a01b031660009081526020819052604090205490565b610274610993565b61022f610396366004611e57565b6109a7565b6103a36109c5565b6040516101ff9796959493929190611f2a565b600b546001600160a01b03166102f1565b61022f6103d5366004611fc0565b610a0b565b6103e2610a30565b60405165ffffffffffff90911681526020016101ff565b6101f2610a3f565b61027461040f366004611e57565b610a4e565b61022f610422366004611e57565b610aa2565b61021b610435366004611df1565b610ac3565b610274610448366004611fd9565b610ad1565b61022f61045b366004612039565b6001600160a01b03918216600090815260016020908152604080832093909416825291909152205490565b61049961049436600461206c565b610b8e565b60408051825165ffffffffffff1681526020928301516001600160d01b031692810192909252016101ff565b6102746104d3366004611e57565b610bb3565b61021b6104e6366004611e57565b600c6020526000908152604090205460ff1681565b60606003805461050a906120ac565b80601f0160208091040260200160405190810160405280929190818152602001828054610536906120ac565b80156105835780601f1061055857610100808354040283529160200191610583565b820191906000526020600020905b81548152906001019060200180831161056657829003601f168201915b5050505050905090565b60003361059b818585610c09565b60019150505b92915050565b6000336105b5858285610c1b565b6105c0858585610c9a565b506001949350505050565b6105d3610cf9565b6001600160a01b0381166000818152600c6020526040808220805460ff19169055517fe94479a9f7e1952cc78f2d6baab678adc1b772d936c6583def489e524cb666929190a250565b600061064861062a83610d26565b6001600160a01b038516600090815260096020526040902090610d75565b6001600160d01b03169392505050565b336000908152600c602052604090205460ff16806106805750600b546001600160a01b031633145b6106ca5760405162461bcd60e51b8152602060048201526016602482015275139bdd08185d5d1a1bdc9a5e9959081d1bc81b5a5b9d60521b60448201526064015b60405180910390fd5b6a084595161401484a000000816106e060025490565b6106ea91906120fc565b111561072d5760405162461bcd60e51b815260206004820152601260248201527145786365656473206d617820737570706c7960701b60448201526064016106c1565b6107378282610e2b565b5050565b6060610745610e61565b65ffffffffffff16610755610a30565b65ffffffffffff161461077b576040516301bfc1c560e61b815260040160405180910390fd5b5060408051808201909152601d81527f6d6f64653d626c6f636b6e756d6265722666726f6d3d64656661756c74000000602082015290565b336107378183610e6c565b336000908152600c602052604090205460ff16806107e65750600b546001600160a01b031633145b61082b5760405162461bcd60e51b8152602060048201526016602482015275139bdd08185d5d1a1bdc9a5e9959081d1bc81b5a5b9d60521b60448201526064016106c1565b8281146108735760405162461bcd60e51b8152602060048201526016602482015275082e4e4c2f2e640d8cadccee8d040dad2e6dac2e8c6d60531b60448201526064016106c1565b6000805b828110156108b7578383828181106108915761089161210f565b90506020020135826108a391906120fc565b9150806108af81612125565b915050610877565b506a084595161401484a000000816108ce60025490565b6108d891906120fc565b111561091b5760405162461bcd60e51b815260206004820152601260248201527145786365656473206d617820737570706c7960701b60448201526064016106c1565b60005b848110156109805761096e86868381811061093b5761093b61210f565b90506020020160208101906109509190611e57565b8585848181106109625761096261210f565b90506020020135610e2b565b8061097881612125565b91505061091e565b505050505050565b60006105a182610ede565b61099b610cf9565b6109a56000610f00565b565b6001600160a01b0381166000908152600760205260408120546105a1565b6000606080600080600060606109d9610f52565b6109e1610f7f565b60408051600080825260208201909252600f60f81b9b939a50919850469750309650945092509050565b6000610a21610a1983610d26565b600a90610d75565b6001600160d01b031692915050565b6000610a3a610e61565b905090565b60606004805461050a906120ac565b610a56610cf9565b6001600160a01b0381166000818152600c6020526040808220805460ff19166001179055517f6ae172837ea30b801fbfcdd4108aa1d5bf8ff775444fd70256b44e6bf3dfc3f69190a250565b6001600160a01b0381166000908152600960205260408120610a2190610fac565b60003361059b818585610c9a565b83421115610af557604051632341d78760e11b8152600481018590526024016106c1565b604080517fe48329057bfd03d55e49b547132e39cffd9c1820ad7b9d4c5307691425d15adf60208201526001600160a01b038816918101919091526060810186905260808101859052600090610b6f90610b679060a00160405160208183030381529060405280519060200120610fe5565b858585611012565b9050610b7b8187611040565b610b858188610e6c565b50505050505050565b6040805180820190915260008082526020820152610bac8383611093565b9392505050565b610bbb610cf9565b6001600160a01b038116610be557604051631e4fbdf760e01b8152600060048201526024016106c1565b610bee81610f00565b50565b6000610bac828461213e565b6000610bac8284612165565b610c1683838360016110c9565b505050565b6001600160a01b03838116600090815260016020908152604080832093861683529290522054600019811015610c945781811015610c8557604051637dc7a0d960e11b81526001600160a01b038416600482015260248101829052604481018390526064016106c1565b610c94848484840360006110c9565b50505050565b6001600160a01b038316610cc457604051634b637e8f60e11b8152600060048201526024016106c1565b6001600160a01b038216610cee5760405163ec442f0560e01b8152600060048201526024016106c1565b610c1683838361119e565b600b546001600160a01b031633146109a55760405163118cdaa760e01b81523360048201526024016106c1565b600080610d31610a30565b90508065ffffffffffff168310610d6c57604051637669fc0f60e11b81526004810184905265ffffffffffff821660248201526044016106c1565b610bac836111a9565b815460009081816005811115610dd4576000610d90846111e0565b610d9a9085612185565b60008881526020902090915081015465ffffffffffff9081169087161015610dc457809150610dd2565b610dcf8160016120fc565b92505b505b6000610de287878585611339565b90508015610e1d57610e0787610df9600184612185565b600091825260209091200190565b54600160301b90046001600160d01b0316610e20565b60005b979650505050505050565b6001600160a01b038216610e555760405163ec442f0560e01b8152600060048201526024016106c1565b6107376000838361119e565b6000610a3a436111a9565b6001600160a01b0382811660008181526008602052604080822080548686166001600160a01b0319821681179092559151919094169392849290917f3134e8a2e6d97e929a7e54011ea5485d7d196dd5f0ba4d4ef95803e8e3fc257f9190a4610c168183610ed98661139b565b6113b9565b6001600160a01b0381166000908152600960205260408120546105a190611525565b600b80546001600160a01b038381166001600160a01b0319831681179093556040519116919082907f8be0079c531659141344cd1fd0a4f28419497f9722a3daafe3b4186f6b6457e090600090a35050565b6060610a3a7f00000000000000000000000000000000000000000000000000000000000000006005611556565b6060610a3a7f00000000000000000000000000000000000000000000000000000000000000006006611556565b80546000908015610fdc57610fc683610df9600184612185565b54600160301b90046001600160d01b0316610bac565b60009392505050565b60006105a1610ff2611601565b8360405161190160f01b8152600281019290925260228201526042902090565b6000806000806110248888888861172c565b92509250925061103482826117fb565b50909695505050505050565b6001600160a01b0382166000908152600760205260409020805460018101909155818114610c16576040516301d4b62360e61b81526001600160a01b0384166004820152602481018290526044016106c1565b60408051808201909152600080825260208201526001600160a01b0383166000908152600960205260409020610bac90836118b4565b6001600160a01b0384166110f35760405163e602df0560e01b8152600060048201526024016106c1565b6001600160a01b03831661111d57604051634a1406b160e11b8152600060048201526024016106c1565b6001600160a01b0380851660009081526001602090815260408083209387168352929052208290558015610c9457826001600160a01b0316846001600160a01b03167f8c5be1e5ebec7d5bd14f71427d1e84f3dd0314c0f7b2291e5b200ac8c7c3b9258460405161119091815260200190565b60405180910390a350505050565b610c16838383611924565b600065ffffffffffff8211156111dc576040516306dfcc6560e41b815260306004820152602481018390526044016106c1565b5090565b6000600182116111ee575090565b816001600160801b82106112075760809190911c9060401b5b6801000000000000000082106112225760409190911c9060201b5b64010000000082106112395760209190911c9060101b5b62010000821061124e5760109190911c9060081b5b61010082106112625760089190911c9060041b5b601082106112755760049190911c9060021b5b600482106112815760011b5b600302600190811c9081858161129957611299612198565b048201901c905060018185816112b1576112b1612198565b048201901c905060018185816112c9576112c9612198565b048201901c905060018185816112e1576112e1612198565b048201901c905060018185816112f9576112f9612198565b048201901c9050600181858161131157611311612198565b048201901c905061133081858161132a5761132a612198565b04821190565b90039392505050565b60005b81831015611393576000611350848461198b565b60008781526020902090915065ffffffffffff86169082015465ffffffffffff16111561137f5780925061138d565b61138a8160016120fc565b93505b5061133c565b509392505050565b6001600160a01b0381166000908152602081905260408120546105a1565b816001600160a01b0316836001600160a01b0316141580156113db5750600081115b15610c16576001600160a01b03831615611483576001600160a01b0383166000908152600960205260408120819061141e90610bfd611419866119a6565b6119da565b6001600160d01b031691506001600160d01b03169150846001600160a01b03167fdec2bacdd2f05b59de34da9b523dff8be42e5e38e818c82fdb0bae774387a7248383604051611478929190918252602082015260400190565b60405180910390a250505b6001600160a01b03821615610c16576001600160a01b038216600090815260096020526040812081906114bc90610bf1611419866119a6565b6001600160d01b031691506001600160d01b03169150836001600160a01b03167fdec2bacdd2f05b59de34da9b523dff8be42e5e38e818c82fdb0bae774387a7248383604051611516929190918252602082015260400190565b60405180910390a25050505050565b600063ffffffff8211156111dc576040516306dfcc6560e41b815260206004820152602481018390526044016106c1565b606060ff83146115705761156983611a13565b90506105a1565b81805461157c906120ac565b80601f01602080910402602001604051908101604052809291908181526020018280546115a8906120ac565b80156115f55780601f106115ca576101008083540402835291602001916115f5565b820191906000526020600020905b8154815290600101906020018083116115d857829003601f168201915b505050505090506105a1565b6000306001600160a01b037f00000000000000000000000000000000000000000000000000000000000000001614801561165a57507f000000000000000000000000000000000000000000000000000000000000000046145b1561168457507f000000000000000000000000000000000000000000000000000000000000000090565b610a3a604080517f8b73c3c69bb8fe3d512ecc4cf759cc79239f7b179b0ffacaa9a75d522b39400f60208201527f0000000000000000000000000000000000000000000000000000000000000000918101919091527f000000000000000000000000000000000000000000000000000000000000000060608201524660808201523060a082015260009060c00160405160208183030381529060405280519060200120905090565b600080807f7fffffffffffffffffffffffffffffff5d576e7357a4501ddfe92f46681b20a084111561176757506000915060039050826117f1565b604080516000808252602082018084528a905260ff891692820192909252606081018790526080810186905260019060a0016020604051602081039080840390855afa1580156117bb573d6000803e3d6000fd5b5050604051601f1901519150506001600160a01b0381166117e7575060009250600191508290506117f1565b9250600091508190505b9450945094915050565b600082600381111561180f5761180f6121ae565b03611818575050565b600182600381111561182c5761182c6121ae565b0361184a5760405163f645eedf60e01b815260040160405180910390fd5b600282600381111561185e5761185e6121ae565b0361187f5760405163fce698f760e01b8152600481018290526024016106c1565b6003826003811115611893576118936121ae565b03610737576040516335e2f38360e21b8152600481018290526024016106c1565b6040805180820190915260008082526020820152826000018263ffffffff16815481106118e3576118e361210f565b60009182526020918290206040805180820190915291015465ffffffffffff81168252600160301b90046001600160d01b0316918101919091529392505050565b61192f838383611a52565b6001600160a01b03831661198057600061194860025490565b90506001600160d01b038082111561197d57604051630e58ae9360e11b815260048101839052602481018290526044016106c1565b50505b610c16838383611b7c565b600061199a60028484186121c4565b610bac908484166120fc565b60006001600160d01b038211156111dc576040516306dfcc6560e41b815260d06004820152602481018390526044016106c1565b600080611a066119e8610a30565b6119fe6119f488610fac565b868863ffffffff16565b879190611bf2565b915091505b935093915050565b60606000611a2083611c00565b604080516020808252818301909252919250600091906020820181803683375050509182525060208101929092525090565b6001600160a01b038316611a7d578060026000828254611a7291906120fc565b90915550611aef9050565b6001600160a01b03831660009081526020819052604090205481811015611ad05760405163391434e360e21b81526001600160a01b038516600482015260248101829052604481018390526064016106c1565b6001600160a01b03841660009081526020819052604090209082900390555b6001600160a01b038216611b0b57600280548290039055611b2a565b6001600160a01b03821660009081526020819052604090208054820190555b816001600160a01b0316836001600160a01b03167fddf252ad1be2c89b69c2b068fc378daa952ba7f163c4a11628f55a4df523b3ef83604051611b6f91815260200190565b60405180910390a3505050565b6001600160a01b038316611b9e57611b9b600a610bf1611419846119a6565b50505b6001600160a01b038216611bc057611bbd600a610bfd611419846119a6565b50505b6001600160a01b03838116600090815260086020526040808220548584168352912054610c16929182169116836113b9565b600080611a06858585611c28565b600060ff8216601f8111156105a157604051632cd44ac360e21b815260040160405180910390fd5b825460009081908015611d21576000611c4687610df9600185612185565b805490915065ffffffffffff80821691600160301b90046001600160d01b0316908816821115611c8957604051632520601d60e01b815260040160405180910390fd5b8765ffffffffffff168265ffffffffffff1603611cc257825465ffffffffffff16600160301b6001600160d01b03891602178355611d13565b6040805180820190915265ffffffffffff808a1682526001600160d01b03808a1660208085019182528d54600181018f5560008f81529190912094519151909216600160301b029216919091179101555b9450859350611a0b92505050565b50506040805180820190915265ffffffffffff80851682526001600160d01b0380851660208085019182528854600181018a5560008a815291822095519251909316600160301b029190931617920191909155905081611a0b565b6000815180845260005b81811015611da257602081850181015186830182015201611d86565b506000602082860101526020601f19601f83011685010191505092915050565b602081526000610bac6020830184611d7c565b80356001600160a01b0381168114611dec57600080fd5b919050565b60008060408385031215611e0457600080fd5b611e0d83611dd5565b946020939093013593505050565b600080600060608486031215611e3057600080fd5b611e3984611dd5565b9250611e4760208501611dd5565b9150604084013590509250925092565b600060208284031215611e6957600080fd5b610bac82611dd5565b60008083601f840112611e8457600080fd5b50813567ffffffffffffffff811115611e9c57600080fd5b6020830191508360208260051b8501011115611eb757600080fd5b9250929050565b60008060008060408587031215611ed457600080fd5b843567ffffffffffffffff80821115611eec57600080fd5b611ef888838901611e72565b90965094506020870135915080821115611f1157600080fd5b50611f1e87828801611e72565b95989497509550505050565b60ff60f81b881681526000602060e081840152611f4a60e084018a611d7c565b8381036040850152611f5c818a611d7c565b606085018990526001600160a01b038816608086015260a0850187905284810360c0860152855180825283870192509083019060005b81811015611fae57835183529284019291840191600101611f92565b50909c9b505050505050505050505050565b600060208284031215611fd257600080fd5b5035919050565b60008060008060008060c08789031215611ff257600080fd5b611ffb87611dd5565b95506020870135945060408701359350606087013560ff8116811461201f57600080fd5b9598949750929560808101359460a0909101359350915050565b6000806040838503121561204c57600080fd5b61205583611dd5565b915061206360208401611dd5565b90509250929050565b6000806040838503121561207f57600080fd5b61208883611dd5565b9150602083013563ffffffff811681146120a157600080fd5b809150509250929050565b600181811c908216806120c057607f821691505b6020821081036120e057634e487b7160e01b600052602260045260246000fd5b50919050565b634e487b7160e01b600052601160045260246000fd5b808201808211156105a1576105a16120e6565b634e487b7160e01b600052603260045260246000fd5b600060018201612137576121376120e6565b5060010190565b6001600160d01b0381811683821601908082111561215e5761215e6120e6565b5092915050565b6001600160d01b0382811682821603908082111561215e5761215e6120e6565b818103818111156105a1576105a16120e6565b634e487b7160e01b600052601260045260246000fd5b634e487b7160e01b600052602160045260246000fd5b6000826121e157634e487b7160e01b600052601260045260246000fd5b50049056fea26469706673582212200db2652222bc2d0990d00f389fcce9341e176db8c9f6e08f2b543ebb561788a164736f6c63430008140033dec2bacdd2f05b59de34da9b523dff8be42e5e38e818c82fdb0bae774387a724",
  "linkReferences": {},
  "deployedLinkReferences": {}
}