{
	"compilerInput": "{\"language\":\"Solidity\",\"sources\":{\"SecureGigContracts.sol\":{\"content\":\"// SPDX-License-Identifier: MIT\\r\\npragma solidity ^0.8.20;\\r\\n\\r\\n/**\\r\\n * @title SecureGig Smart Contracts\\r\\n * @dev Complete smart contract suite for SecureGig freelance platform\\r\\n * @notice Contains DAOToken, GigEscrow, and EscrowDAO contracts for secure freelance payments\\r\\n * @custom:dev-run-script scripts/deploy.js\\r\\n */\\r\\n\\r\\nimport \\\"@openzeppelin/contracts/utils/ReentrancyGuard.sol\\\";\\r\\nimport \\\"@openzeppelin/contracts/access/Ownable.sol\\\";\\r\\nimport \\\"@openzeppelin/contracts/utils/Pausable.sol\\\";\\r\\nimport \\\"@openzeppelin/contracts/token/ERC20/ERC20.sol\\\";\\r\\nimport \\\"@openzeppelin/contracts/token/ERC20/extensions/ERC20Votes.sol\\\";\\r\\nimport \\\"@openzeppelin/contracts/token/ERC20/extensions/ERC20Permit.sol\\\";\\r\\nimport \\\"@openzeppelin/contracts/utils/cryptography/EIP712.sol\\\";\\r\\nimport \\\"@openzeppelin/contracts/utils/Nonces.sol\\\";\\r\\nimport \\\"@openzeppelin/contracts/token/ERC20/IERC20.sol\\\";\\r\\n\\r\\n/**\\r\\n * @title DAOToken\\r\\n * @dev ERC20 governance token for SecureGig DAO voting\\r\\n * @notice This token is used for voting on escrow disputes\\r\\n */\\r\\ncontract DAOToken is ERC20, ERC20Votes, Ownable {\\r\\n    uint256 public constant INITIAL_SUPPLY = 1000000 * 10**18; // 1M tokens\\r\\n    uint256 public constant MAX_SUPPLY = 10000000 * 10**18; // 10M max supply\\r\\n    \\r\\n    mapping(address => bool) public minters;\\r\\n    \\r\\n    event MinterAdded(address indexed minter);\\r\\n    event MinterRemoved(address indexed minter);\\r\\n    \\r\\n    modifier onlyMinter() {\\r\\n        require(minters[msg.sender] || msg.sender == owner(), \\\"Not authorized to mint\\\");\\r\\n        _;\\r\\n    }\\r\\n    \\r\\n    constructor(\\r\\n        address initialOwner\\r\\n    ) ERC20(\\\"SecureGig DAO Token\\\", \\\"SGDT\\\") Ownable(initialOwner) EIP712(\\\"SecureGig DAO Token\\\", \\\"1\\\") {\\r\\n        _mint(initialOwner, INITIAL_SUPPLY);\\r\\n        minters[initialOwner] = true;\\r\\n    }\\r\\n    \\r\\n    /**\\r\\n     * @dev Mint new tokens (only by authorized minters)\\r\\n     * @param to Address to mint tokens to\\r\\n     * @param amount Amount of tokens to mint\\r\\n     */\\r\\n    function mint(address to, uint256 amount) external onlyMinter {\\r\\n        require(totalSupply() + amount <= MAX_SUPPLY, \\\"Exceeds max supply\\\");\\r\\n        _mint(to, amount);\\r\\n    }\\r\\n    \\r\\n    /**\\r\\n     * @dev Add a new minter\\r\\n     * @param minter Address to add as minter\\r\\n     */\\r\\n    function addMinter(address minter) external onlyOwner {\\r\\n        minters[minter] = true;\\r\\n        emit MinterAdded(minter);\\r\\n    }\\r\\n    \\r\\n    /**\\r\\n     * @dev Remove a minter\\r\\n     * @param minter Address to remove as minter\\r\\n     */\\r\\n    function removeMinter(address minter) external onlyOwner {\\r\\n        minters[minter] = false;\\r\\n        emit MinterRemoved(minter);\\r\\n    }\\r\\n    \\r\\n    /**\\r\\n     * @dev Distribute tokens to multiple addresses (for testing/airdrops)\\r\\n     * @param recipients Array of recipient addresses\\r\\n     * @param amounts Array of amounts to distribute\\r\\n     */\\r\\n    function batchMint(address[] calldata recipients, uint256[] calldata amounts) external onlyMinter {\\r\\n        require(recipients.length == amounts.length, \\\"Arrays length mismatch\\\");\\r\\n        \\r\\n        uint256 totalAmount = 0;\\r\\n        for (uint256 i = 0; i < amounts.length; i++) {\\r\\n            totalAmount += amounts[i];\\r\\n        }\\r\\n        \\r\\n        require(totalSupply() + totalAmount <= MAX_SUPPLY, \\\"Exceeds max supply\\\");\\r\\n        \\r\\n        for (uint256 i = 0; i < recipients.length; i++) {\\r\\n            _mint(recipients[i], amounts[i]);\\r\\n        }\\r\\n    }\\r\\n    \\r\\n    // Override required by Solidity for multiple inheritance\\r\\n    function _update(address from, address to, uint256 value) internal override(ERC20, ERC20Votes) {\\r\\n        super._update(from, to, value);\\r\\n    }\\r\\n    \\r\\n    function nonces(address owner) public view override(Nonces) returns (uint256) {\\r\\n        return super.nonces(owner);\\r\\n    }\\r\\n}\\r\\n\\r\\n/**\\r\\n * @title GigEscrow\\r\\n * @dev Secure escrow contract for freelance gig payments with gig-based mapping\\r\\n * @notice Handles escrow creation, work approval, and refunds for specific gigs\\r\\n */\\r\\ncontract GigEscrow is ReentrancyGuard, Ownable, Pausable {\\r\\n    \\r\\n    enum EscrowStatus {\\r\\n        Pending,     // Escrow created, funds locked\\r\\n        Active,      // Freelancer working, funds secured\\r\\n        Completed,   // Work approved, funds released\\r\\n        Cancelled,   // Gig cancelled, funds refunded\\r\\n        Disputed     // Dispute raised, requires DAO voting\\r\\n    }\\r\\n    \\r\\n    struct EscrowData {\\r\\n        uint256 gigId;\\r\\n        address client;\\r\\n        address freelancer;\\r\\n        uint256 amount;\\r\\n        EscrowStatus status;\\r\\n        uint256 createdAt;\\r\\n        string gigTitle;\\r\\n        bool exists;\\r\\n    }\\r\\n    \\r\\n    // State variables\\r\\n    mapping(uint256 => EscrowData) public escrows;\\r\\n    mapping(address => uint256[]) public clientEscrows;\\r\\n    mapping(address => uint256[]) public freelancerEscrows;\\r\\n    \\r\\n    // Platform fee configuration (in basis points, 100 = 1%)\\r\\n    uint256 public platformFee = 250; // 2.5%\\r\\n    address public feeRecipient;\\r\\n    \\r\\n    // Events\\r\\n    event EscrowCreated(\\r\\n        uint256 indexed gigId,\\r\\n        address indexed client,\\r\\n        address indexed freelancer,\\r\\n        uint256 amount,\\r\\n        string gigTitle\\r\\n    );\\r\\n    \\r\\n    event EscrowFunded(\\r\\n        uint256 indexed gigId,\\r\\n        address indexed client,\\r\\n        uint256 amount\\r\\n    );\\r\\n    \\r\\n    event EscrowReleased(\\r\\n        uint256 indexed gigId,\\r\\n        address indexed freelancer,\\r\\n        uint256 amount\\r\\n    );\\r\\n    \\r\\n    event EscrowRefunded(\\r\\n        uint256 indexed gigId,\\r\\n        address indexed client,\\r\\n        uint256 amount\\r\\n    );\\r\\n    \\r\\n    // Modifiers\\r\\n    modifier validGig(uint256 gigId) {\\r\\n        require(escrows[gigId].exists, \\\"Gig escrow does not exist\\\");\\r\\n        _;\\r\\n    }\\r\\n    \\r\\n    modifier onlyClient(uint256 gigId) {\\r\\n        require(msg.sender == escrows[gigId].client, \\\"Only client can call this\\\");\\r\\n        _;\\r\\n    }\\r\\n    \\r\\n    modifier onlyFreelancer(uint256 gigId) {\\r\\n        require(msg.sender == escrows[gigId].freelancer, \\\"Only freelancer can call this\\\");\\r\\n        _;\\r\\n    }\\r\\n    \\r\\n    constructor(address initialOwner, address _feeRecipient) Ownable(initialOwner) {\\r\\n        feeRecipient = _feeRecipient;\\r\\n    }\\r\\n    \\r\\n    /**\\r\\n     * @dev Create escrow for a gig and lock funds\\r\\n     * @param gigId Unique identifier for the gig\\r\\n     * @param freelancer Address of the freelancer\\r\\n     * @param gigTitle Title of the gig\\r\\n     */\\r\\n    function createEscrow(\\r\\n        uint256 gigId,\\r\\n        address freelancer,\\r\\n        string calldata gigTitle\\r\\n    ) external payable nonReentrant whenNotPaused {\\r\\n        require(freelancer != address(0), \\\"Invalid freelancer address\\\");\\r\\n        require(freelancer != msg.sender, \\\"Client and freelancer cannot be the same\\\");\\r\\n        require(msg.value > 0, \\\"Amount must be greater than 0\\\");\\r\\n        require(!escrows[gigId].exists, \\\"Escrow already exists for this gig\\\");\\r\\n        require(bytes(gigTitle).length > 0, \\\"Gig title cannot be empty\\\");\\r\\n        \\r\\n        escrows[gigId] = EscrowData({\\r\\n            gigId: gigId,\\r\\n            client: msg.sender,\\r\\n            freelancer: freelancer,\\r\\n            amount: msg.value,\\r\\n            status: EscrowStatus.Pending,\\r\\n            createdAt: block.timestamp,\\r\\n            gigTitle: gigTitle,\\r\\n            exists: true\\r\\n        });\\r\\n        \\r\\n        clientEscrows[msg.sender].push(gigId);\\r\\n        freelancerEscrows[freelancer].push(gigId);\\r\\n        \\r\\n        emit EscrowCreated(gigId, msg.sender, freelancer, msg.value, gigTitle);\\r\\n        emit EscrowFunded(gigId, msg.sender, msg.value);\\r\\n    }\\r\\n    \\r\\n    /**\\r\\n     * @dev Release escrow funds to freelancer (only callable by client)\\r\\n     * @param gigId ID of the gig\\r\\n     */\\r\\n    function releaseEscrow(uint256 gigId) external validGig(gigId) onlyClient(gigId) nonReentrant {\\r\\n        EscrowData storage escrow = escrows[gigId];\\r\\n        \\r\\n        require(\\r\\n            escrow.status == EscrowStatus.Pending || escrow.status == EscrowStatus.Active,\\r\\n            \\\"Escrow cannot be released\\\"\\r\\n        );\\r\\n        \\r\\n        escrow.status = EscrowStatus.Completed;\\r\\n        \\r\\n        uint256 amount = escrow.amount;\\r\\n        escrow.amount = 0;\\r\\n        \\r\\n        // Calculate platform fee\\r\\n        uint256 fee = (amount * platformFee) / 10000;\\r\\n        uint256 payout = amount - fee;\\r\\n        \\r\\n        // Transfer fee to platform\\r\\n        if (fee > 0 && feeRecipient != address(0)) {\\r\\n            (bool feeSuccess, ) = feeRecipient.call{value: fee}(\\\"\\\");\\r\\n            require(feeSuccess, \\\"Fee transfer failed\\\");\\r\\n        }\\r\\n        \\r\\n        // Transfer remaining amount to freelancer\\r\\n        (bool success, ) = escrow.freelancer.call{value: payout}(\\\"\\\");\\r\\n        require(success, \\\"Transfer to freelancer failed\\\");\\r\\n        \\r\\n        emit EscrowReleased(gigId, escrow.freelancer, payout);\\r\\n    }\\r\\n    \\r\\n    /**\\r\\n     * @dev Refund escrow to client (only callable by client)\\r\\n     * @param gigId ID of the gig\\r\\n     */\\r\\n    function refundEscrow(uint256 gigId) external validGig(gigId) onlyClient(gigId) nonReentrant {\\r\\n        EscrowData storage escrow = escrows[gigId];\\r\\n        \\r\\n        require(\\r\\n            escrow.status == EscrowStatus.Pending || escrow.status == EscrowStatus.Active,\\r\\n            \\\"Escrow cannot be refunded\\\"\\r\\n        );\\r\\n        \\r\\n        escrow.status = EscrowStatus.Cancelled;\\r\\n        \\r\\n        uint256 amount = escrow.amount;\\r\\n        escrow.amount = 0;\\r\\n        \\r\\n        // Refund full amount to client (no fee deduction for cancellations)\\r\\n        (bool success, ) = escrow.client.call{value: amount}(\\\"\\\");\\r\\n        require(success, \\\"Refund to client failed\\\");\\r\\n        \\r\\n        emit EscrowRefunded(gigId, escrow.client, amount);\\r\\n    }\\r\\n    \\r\\n    /**\\r\\n     * @dev Mark escrow as active (freelancer starts working)\\r\\n     * @param gigId ID of the gig\\r\\n     */\\r\\n    function startWork(uint256 gigId) external validGig(gigId) onlyFreelancer(gigId) {\\r\\n        EscrowData storage escrow = escrows[gigId];\\r\\n        require(escrow.status == EscrowStatus.Pending, \\\"Work already started or completed\\\");\\r\\n        \\r\\n        escrow.status = EscrowStatus.Active;\\r\\n    }\\r\\n    \\r\\n    /**\\r\\n     * @dev Get escrow details for a gig\\r\\n     * @param gigId ID of the gig\\r\\n     */\\r\\n    function getEscrow(uint256 gigId) external view validGig(gigId) returns (EscrowData memory) {\\r\\n        return escrows[gigId];\\r\\n    }\\r\\n    \\r\\n    /**\\r\\n     * @dev Get client's escrow gig IDs\\r\\n     * @param client Address of the client\\r\\n     */\\r\\n    function getClientEscrows(address client) external view returns (uint256[] memory) {\\r\\n        return clientEscrows[client];\\r\\n    }\\r\\n    \\r\\n    /**\\r\\n     * @dev Get freelancer's escrow gig IDs\\r\\n     * @param freelancer Address of the freelancer\\r\\n     */\\r\\n    function getFreelancerEscrows(address freelancer) external view returns (uint256[] memory) {\\r\\n        return freelancerEscrows[freelancer];\\r\\n    }\\r\\n    \\r\\n    /**\\r\\n     * @dev Check if escrow exists for a gig\\r\\n     * @param gigId ID of the gig\\r\\n     */\\r\\n    function escrowExists(uint256 gigId) external view returns (bool) {\\r\\n        return escrows[gigId].exists;\\r\\n    }\\r\\n    \\r\\n    /**\\r\\n     * @dev Update platform fee (only owner)\\r\\n     * @param newFee New fee in basis points\\r\\n     */\\r\\n    function updatePlatformFee(uint256 newFee) external onlyOwner {\\r\\n        require(newFee <= 1000, \\\"Fee cannot exceed 10%\\\");\\r\\n        platformFee = newFee;\\r\\n    }\\r\\n    \\r\\n    /**\\r\\n     * @dev Update fee recipient (only owner)\\r\\n     * @param newRecipient New fee recipient address\\r\\n     */\\r\\n    function updateFeeRecipient(address newRecipient) external onlyOwner {\\r\\n        require(newRecipient != address(0), \\\"Invalid recipient address\\\");\\r\\n        feeRecipient = newRecipient;\\r\\n    }\\r\\n    \\r\\n    /**\\r\\n     * @dev Pause contract (only owner)\\r\\n     */\\r\\n    function pause() external onlyOwner {\\r\\n        _pause();\\r\\n    }\\r\\n    \\r\\n    /**\\r\\n     * @dev Unpause contract (only owner)\\r\\n     */\\r\\n    function unpause() external onlyOwner {\\r\\n        _unpause();\\r\\n    }\\r\\n    \\r\\n    /**\\r\\n     * @dev Emergency withdrawal (only owner, for emergencies)\\r\\n     * @param gigId ID of the gig\\r\\n     */\\r\\n    function emergencyWithdraw(uint256 gigId) external validGig(gigId) onlyOwner nonReentrant {\\r\\n        EscrowData storage escrow = escrows[gigId];\\r\\n        require(escrow.amount > 0, \\\"No funds to withdraw\\\");\\r\\n        \\r\\n        uint256 amount = escrow.amount;\\r\\n        escrow.amount = 0;\\r\\n        escrow.status = EscrowStatus.Cancelled;\\r\\n        \\r\\n        (bool success, ) = escrow.client.call{value: amount}(\\\"\\\");\\r\\n        require(success, \\\"Emergency withdrawal failed\\\");\\r\\n        \\r\\n        emit EscrowRefunded(gigId, escrow.client, amount);\\r\\n    }\\r\\n    \\r\\n    /**\\r\\n     * @dev Release escrow to specified address (only callable by DAO for dispute resolution)\\r\\n     * @param gigId ID of the gig\\r\\n     * @param recipient Address to receive the funds (client or freelancer)\\r\\n     */\\r\\n    function releaseTo(uint256 gigId, address recipient) external validGig(gigId) onlyOwner nonReentrant {\\r\\n        EscrowData storage escrow = escrows[gigId];\\r\\n        require(escrow.status == EscrowStatus.Disputed, \\\"Escrow not in disputed state\\\");\\r\\n        require(escrow.amount > 0, \\\"No funds to release\\\");\\r\\n        require(recipient == escrow.client || recipient == escrow.freelancer, \\\"Invalid recipient\\\");\\r\\n        \\r\\n        uint256 totalAmount = escrow.amount;\\r\\n        uint256 feeAmount = (totalAmount * platformFee) / 10000;\\r\\n        uint256 releaseAmount = totalAmount - feeAmount;\\r\\n        \\r\\n        escrow.amount = 0;\\r\\n        escrow.status = EscrowStatus.Completed;\\r\\n        \\r\\n        // Transfer fee to platform\\r\\n        if (feeAmount > 0 && feeRecipient != address(0)) {\\r\\n            (bool feeSuccess, ) = feeRecipient.call{value: feeAmount}(\\\"\\\");\\r\\n            require(feeSuccess, \\\"Fee transfer failed\\\");\\r\\n        }\\r\\n        \\r\\n        // Transfer remaining amount to recipient\\r\\n        (bool success, ) = recipient.call{value: releaseAmount}(\\\"\\\");\\r\\n        require(success, \\\"Release transfer failed\\\");\\r\\n        \\r\\n        if (recipient == escrow.freelancer) {\\r\\n            emit EscrowReleased(gigId, escrow.freelancer, releaseAmount);\\r\\n        } else {\\r\\n            emit EscrowRefunded(gigId, escrow.client, releaseAmount);\\r\\n        }\\r\\n    }\\r\\n\\r\\n    /**\\r\\n     * @dev Get total number of escrows created\\r\\n     */\\r\\n    function getTotalEscrows() external pure returns (uint256) {\\r\\n        // Since we don't track total count, we'll return a reasonable estimate\\r\\n        // In production, you might want to add a counter state variable\\r\\n        return 1000; // Placeholder - adjust based on your needs\\r\\n    }\\r\\n\\r\\n    /**\\r\\n     * @dev Get contract balance\\r\\n     */\\r\\n    function getContractBalance() external view returns (uint256) {\\r\\n        return address(this).balance;\\r\\n    }\\r\\n}\\r\\n\\r\\n/**\\r\\n * @title EscrowDAO\\r\\n * @dev DAO contract for resolving escrow disputes through token-based voting\\r\\n * @notice Handles dispute voting with quorum requirements and time limits\\r\\n */\\r\\ncontract EscrowDAO is Ownable, ReentrancyGuard {\\r\\n    \\r\\n    struct Vote {\\r\\n        uint256 escrowId;\\r\\n        uint256 startTime;\\r\\n        uint256 endTime;\\r\\n        uint256 votesForFreelancer;\\r\\n        uint256 votesForClient;\\r\\n        uint256 totalVotes;\\r\\n        bool finalized;\\r\\n        address winner;\\r\\n        mapping(address => bool) hasVoted;\\r\\n        mapping(address => bool) voteChoice; // true = freelancer, false = client\\r\\n    }\\r\\n    \\r\\n    // State variables\\r\\n    DAOToken public daoToken;\\r\\n    GigEscrow public escrowContract;\\r\\n    \\r\\n    mapping(uint256 => Vote) public votes;\\r\\n    mapping(uint256 => bool) public disputeExists;\\r\\n    \\r\\n    // Voting parameters\\r\\n    uint256 public constant VOTING_PERIOD = 3 days;\\r\\n    uint256 public constant QUORUM_PERCENTAGE = 10; // 10% of total supply\\r\\n    uint256 public constant MIN_TOKEN_BALANCE = 100 * 10**18; // 100 tokens minimum to vote\\r\\n    \\r\\n    // Events\\r\\n    event VoteOpened(uint256 indexed escrowId, uint256 startTime, uint256 endTime);\\r\\n    event VoteCast(uint256 indexed escrowId, address indexed voter, bool supportFreelancer, uint256 tokenAmount);\\r\\n    event VoteFinalized(uint256 indexed escrowId, address indexed winner, uint256 totalVotes);\\r\\n    event QuorumNotMet(uint256 indexed escrowId, uint256 totalVotes, uint256 requiredQuorum);\\r\\n    \\r\\n    // Modifiers\\r\\n    modifier onlyTokenHolder() {\\r\\n        require(daoToken.balanceOf(msg.sender) >= MIN_TOKEN_BALANCE, \\\"Insufficient token balance\\\");\\r\\n        _;\\r\\n    }\\r\\n    \\r\\n    modifier validEscrow(uint256 escrowId) {\\r\\n        require(disputeExists[escrowId], \\\"No dispute for this escrow\\\");\\r\\n        _;\\r\\n    }\\r\\n    \\r\\n    modifier votingActive(uint256 escrowId) {\\r\\n        Vote storage voteData = votes[escrowId];\\r\\n        require(block.timestamp >= voteData.startTime, \\\"Voting not started\\\");\\r\\n        require(block.timestamp <= voteData.endTime, \\\"Voting period ended\\\");\\r\\n        require(!voteData.finalized, \\\"Vote already finalized\\\");\\r\\n        _;\\r\\n    }\\r\\n    \\r\\n    constructor(\\r\\n        address initialOwner,\\r\\n        address _daoToken,\\r\\n        address _escrowContract\\r\\n    ) Ownable(initialOwner) {\\r\\n        require(_daoToken != address(0), \\\"Invalid DAO token address\\\");\\r\\n        require(_escrowContract != address(0), \\\"Invalid escrow contract address\\\");\\r\\n        \\r\\n        daoToken = DAOToken(_daoToken);\\r\\n        escrowContract = GigEscrow(_escrowContract);\\r\\n    }\\r\\n    \\r\\n    /**\\r\\n     * @dev Open a vote for an escrow dispute\\r\\n     * @param escrowId ID of the disputed escrow\\r\\n     */\\r\\n    function openVote(uint256 escrowId) external onlyOwner {\\r\\n        require(!disputeExists[escrowId], \\\"Vote already exists for this escrow\\\");\\r\\n        \\r\\n        // Verify escrow exists and is disputed\\r\\n        GigEscrow.EscrowData memory escrowData = escrowContract.getEscrow(escrowId);\\r\\n        require(escrowData.status == GigEscrow.EscrowStatus.Disputed, \\\"Escrow not disputed\\\");\\r\\n        \\r\\n        disputeExists[escrowId] = true;\\r\\n        \\r\\n        Vote storage voteData = votes[escrowId];\\r\\n        voteData.escrowId = escrowId;\\r\\n        voteData.startTime = block.timestamp;\\r\\n        voteData.endTime = block.timestamp + VOTING_PERIOD;\\r\\n        voteData.finalized = false;\\r\\n        \\r\\n        emit VoteOpened(escrowId, voteData.startTime, voteData.endTime);\\r\\n    }\\r\\n    \\r\\n    /**\\r\\n     * @dev Cast a vote on an escrow dispute\\r\\n     * @param escrowId ID of the disputed escrow\\r\\n     * @param supportFreelancer true to support freelancer, false to support client\\r\\n     */\\r\\n    function vote(\\r\\n        uint256 escrowId,\\r\\n        bool supportFreelancer\\r\\n    ) external validEscrow(escrowId) votingActive(escrowId) onlyTokenHolder nonReentrant {\\r\\n        Vote storage voteData = votes[escrowId];\\r\\n        \\r\\n        require(!voteData.hasVoted[msg.sender], \\\"Already voted\\\");\\r\\n        \\r\\n        uint256 voterBalance = daoToken.balanceOf(msg.sender);\\r\\n        require(voterBalance >= MIN_TOKEN_BALANCE, \\\"Insufficient tokens to vote\\\");\\r\\n        \\r\\n        voteData.hasVoted[msg.sender] = true;\\r\\n        voteData.voteChoice[msg.sender] = supportFreelancer;\\r\\n        \\r\\n        if (supportFreelancer) {\\r\\n            voteData.votesForFreelancer += voterBalance;\\r\\n        } else {\\r\\n            voteData.votesForClient += voterBalance;\\r\\n        }\\r\\n        \\r\\n        voteData.totalVotes += voterBalance;\\r\\n        \\r\\n        emit VoteCast(escrowId, msg.sender, supportFreelancer, voterBalance);\\r\\n    }\\r\\n    \\r\\n    /**\\r\\n     * @dev Finalize a vote and execute the result\\r\\n     * @param escrowId ID of the disputed escrow\\r\\n     */\\r\\n    function finalizeVote(uint256 escrowId) external validEscrow(escrowId) nonReentrant {\\r\\n        Vote storage voteData = votes[escrowId];\\r\\n        \\r\\n        require(block.timestamp > voteData.endTime, \\\"Voting period not ended\\\");\\r\\n        require(!voteData.finalized, \\\"Vote already finalized\\\");\\r\\n        \\r\\n        voteData.finalized = true;\\r\\n        \\r\\n        // Check if quorum is met\\r\\n        uint256 totalSupply = daoToken.totalSupply();\\r\\n        uint256 requiredQuorum = (totalSupply * QUORUM_PERCENTAGE) / 100;\\r\\n        \\r\\n        if (voteData.totalVotes < requiredQuorum) {\\r\\n            emit QuorumNotMet(escrowId, voteData.totalVotes, requiredQuorum);\\r\\n            // In case of no quorum, refund to client (conservative approach)\\r\\n            voteData.winner = escrowContract.getEscrow(escrowId).client;\\r\\n        } else {\\r\\n            // Determine winner based on votes\\r\\n            if (voteData.votesForFreelancer > voteData.votesForClient) {\\r\\n                voteData.winner = escrowContract.getEscrow(escrowId).freelancer;\\r\\n            } else {\\r\\n                voteData.winner = escrowContract.getEscrow(escrowId).client;\\r\\n            }\\r\\n        }\\r\\n        \\r\\n        // Execute the decision by calling escrow contract\\r\\n        escrowContract.releaseTo(escrowId, voteData.winner);\\r\\n        \\r\\n        emit VoteFinalized(escrowId, voteData.winner, voteData.totalVotes);\\r\\n    }\\r\\n    \\r\\n    /**\\r\\n     * @dev Get vote details\\r\\n     * @param escrowId ID of the disputed escrow\\r\\n     */\\r\\n    function getVote(uint256 escrowId) external view validEscrow(escrowId) returns (\\r\\n        uint256 startTime,\\r\\n        uint256 endTime,\\r\\n        uint256 votesForFreelancer,\\r\\n        uint256 votesForClient,\\r\\n        uint256 totalVotes,\\r\\n        bool finalized,\\r\\n        address winner\\r\\n    ) {\\r\\n        Vote storage voteData = votes[escrowId];\\r\\n        return (\\r\\n            voteData.startTime,\\r\\n            voteData.endTime,\\r\\n            voteData.votesForFreelancer,\\r\\n            voteData.votesForClient,\\r\\n            voteData.totalVotes,\\r\\n            voteData.finalized,\\r\\n            voteData.winner\\r\\n        );\\r\\n    }\\r\\n    \\r\\n    /**\\r\\n     * @dev Check if an address has voted on a specific escrow\\r\\n     * @param escrowId ID of the disputed escrow\\r\\n     * @param voter Address to check\\r\\n     */\\r\\n    function hasVoted(uint256 escrowId, address voter) external view validEscrow(escrowId) returns (bool) {\\r\\n        return votes[escrowId].hasVoted[voter];\\r\\n    }\\r\\n    \\r\\n    /**\\r\\n     * @dev Get voter's choice on a specific escrow\\r\\n     * @param escrowId ID of the disputed escrow\\r\\n     * @param voter Address to check\\r\\n     */\\r\\n    function getVoterChoice(uint256 escrowId, address voter) external view validEscrow(escrowId) returns (bool) {\\r\\n        require(votes[escrowId].hasVoted[voter], \\\"Voter has not voted\\\");\\r\\n        return votes[escrowId].voteChoice[voter];\\r\\n    }\\r\\n    \\r\\n    /**\\r\\n     * @dev Check if voting is currently active for an escrow\\r\\n     * @param escrowId ID of the disputed escrow\\r\\n     */\\r\\n    function isVotingActive(uint256 escrowId) external view returns (bool) {\\r\\n        if (!disputeExists[escrowId]) return false;\\r\\n        \\r\\n        Vote storage voteData = votes[escrowId];\\r\\n        return (\\r\\n            block.timestamp >= voteData.startTime &&\\r\\n            block.timestamp <= voteData.endTime &&\\r\\n            !voteData.finalized\\r\\n        );\\r\\n    }\\r\\n    \\r\\n    /**\\r\\n     * @dev Get required quorum for voting\\r\\n     */\\r\\n    function getRequiredQuorum() external view returns (uint256) {\\r\\n        uint256 totalSupply = daoToken.totalSupply();\\r\\n        return (totalSupply * QUORUM_PERCENTAGE) / 100;\\r\\n    }\\r\\n    \\r\\n    /**\\r\\n     * @dev Check if an address can vote (has minimum token balance)\\r\\n     * @param voter Address to check\\r\\n     */\\r\\n    function canVote(address voter) external view returns (bool) {\\r\\n        return daoToken.balanceOf(voter) >= MIN_TOKEN_BALANCE;\\r\\n    }\\r\\n    \\r\\n    /**\\r\\n     * @dev Get voting power of an address\\r\\n     * @param voter Address to check\\r\\n     */\\r\\n    function getVotingPower(address voter) external view returns (uint256) {\\r\\n        return daoToken.balanceOf(voter);\\r\\n    }\\r\\n    \\r\\n    /**\\r\\n     * @dev Update minimum token balance required to vote (only owner)\\r\\n     * @param newMinBalance New minimum balance\\r\\n     */\\r\\n    function updateMinTokenBalance(uint256 newMinBalance) external view onlyOwner {\\r\\n        require(newMinBalance > 0, \\\"Minimum balance must be greater than 0\\\");\\r\\n        // Note: This would require a state variable to be added if we want to make it configurable\\r\\n        // For now, it's a constant for security\\r\\n    }\\r\\n    \\r\\n    /**\\r\\n     * @dev Emergency function to update escrow contract address (only owner)\\r\\n     * @param newEscrowContract New escrow contract address\\r\\n     */\\r\\n    function updateEscrowContract(address newEscrowContract) external onlyOwner {\\r\\n        require(newEscrowContract != address(0), \\\"Invalid address\\\");\\r\\n        escrowContract = GigEscrow(newEscrowContract);\\r\\n    }\\r\\n    \\r\\n    /**\\r\\n     * @dev Get all active votes count\\r\\n     */\\r\\n    function getActiveVotesCount() external view returns (uint256 count) {\\r\\n        // This is a simple implementation - in production, you might want to track this more efficiently\\r\\n        for (uint256 i = 1; i <= escrowContract.getTotalEscrows(); i++) {\\r\\n            if (disputeExists[i] && !votes[i].finalized) {\\r\\n                if (block.timestamp >= votes[i].startTime && block.timestamp <= votes[i].endTime) {\\r\\n                    count++;\\r\\n                }\\r\\n            }\\r\\n        }\\r\\n        return count;\\r\\n    }\\r\\n}\\r\\n\"},\"@openzeppelin/contracts/token/ERC20/IERC20.sol\":{\"content\":\"// SPDX-License-Identifier: MIT\\n// OpenZeppelin Contracts (last updated v5.4.0) (token/ERC20/IERC20.sol)\\n\\npragma solidity >=0.4.16;\\n\\n/**\\n * @dev Interface of the ERC-20 standard as defined in the ERC.\\n */\\ninterface IERC20 {\\n    /**\\n     * @dev Emitted when `value` tokens are moved from one account (`from`) to\\n     * another (`to`).\\n     *\\n     * Note that `value` may be zero.\\n     */\\n    event Transfer(address indexed from, address indexed to, uint256 value);\\n\\n    /**\\n     * @dev Emitted when the allowance of a `spender` for an `owner` is set by\\n     * a call to {approve}. `value` is the new allowance.\\n     */\\n    event Approval(address indexed owner, address indexed spender, uint256 value);\\n\\n    /**\\n     * @dev Returns the value of tokens in existence.\\n     */\\n    function totalSupply() external view returns (uint256);\\n\\n    /**\\n     * @dev Returns the value of tokens owned by `account`.\\n     */\\n    function balanceOf(address account) external view returns (uint256);\\n\\n    /**\\n     * @dev Moves a `value` amount of tokens from the caller's account to `to`.\\n     *\\n     * Returns a boolean value indicating whether the operation succeeded.\\n     *\\n     * Emits a {Transfer} event.\\n     */\\n    function transfer(address to, uint256 value) external returns (bool);\\n\\n    /**\\n     * @dev Returns the remaining number of tokens that `spender` will be\\n     * allowed to spend on behalf of `owner` through {transferFrom}. This is\\n     * zero by default.\\n     *\\n     * This value changes when {approve} or {transferFrom} are called.\\n     */\\n    function allowance(address owner, address spender) external view returns (uint256);\\n\\n    /**\\n     * @dev Sets a `value` amount of tokens as the allowance of `spender` over the\\n     * caller's tokens.\\n     *\\n     * Returns a boolean value indicating whether the operation succeeded.\\n     *\\n     * IMPORTANT: Beware that changing an allowance with this method brings the risk\\n     * that someone may use both the old and the new allowance by unfortunate\\n     * transaction ordering. One possible solution to mitigate this race\\n     * condition is to first reduce the spender's allowance to 0 and set the\\n     * desired value afterwards:\\n     * https://github.com/ethereum/EIPs/issues/20#issuecomment-263524729\\n     *\\n     * Emits an {Approval} event.\\n     */\\n    function approve(address spender, uint256 value) external returns (bool);\\n\\n    /**\\n     * @dev Moves a `value` amount of tokens from `from` to `to` using the\\n     * allowance mechanism. `value` is then deducted from the caller's\\n     * allowance.\\n     *\\n     * Returns a boolean value indicating whether the operation succeeded.\\n     *\\n     * Emits a {Transfer} event.\\n     */\\n    function transferFrom(address from, address to, uint256 value) external returns (bool);\\n}\\n\"},\"@openzeppelin/contracts/utils/Nonces.sol\":{\"content\":\"// SPDX-License-Identifier: MIT\\n// OpenZeppelin Contracts (last updated v5.0.0) (utils/Nonces.sol)\\npragma solidity ^0.8.20;\\n\\n/**\\n * @dev Provides tracking nonces for addresses. Nonces will only increment.\\n */\\nabstract contract Nonces {\\n    /**\\n     * @dev The nonce used for an `account` is not the expected current nonce.\\n     */\\n    error InvalidAccountNonce(address account, uint256 currentNonce);\\n\\n    mapping(address account => uint256) private _nonces;\\n\\n    /**\\n     * @dev Returns the next unused nonce for an address.\\n     */\\n    function nonces(address owner) public view virtual returns (uint256) {\\n        return _nonces[owner];\\n    }\\n\\n    /**\\n     * @dev Consumes a nonce.\\n     *\\n     * Returns the current value and increments nonce.\\n     */\\n    function _useNonce(address owner) internal virtual returns (uint256) {\\n        // For each account, the nonce has an initial value of 0, can only be incremented by one, and cannot be\\n        // decremented or reset. This guarantees that the nonce never overflows.\\n        unchecked {\\n            // It is important to do x++ and not ++x here.\\n            return _nonces[owner]++;\\n        }\\n    }\\n\\n    /**\\n     * @dev Same as {_useNonce} but checking that `nonce` is the next valid for `owner`.\\n     */\\n    function _useCheckedNonce(address owner, uint256 nonce) internal virtual {\\n        uint256 current = _useNonce(owner);\\n        if (nonce != current) {\\n            revert InvalidAccountNonce(owner, current);\\n        }\\n    }\\n}\\n\"},\"@openzeppelin/contracts/utils/cryptography/EIP712.sol\":{\"content\":\"// SPDX-License-Identifier: MIT\\n// OpenZeppelin Contracts (last updated v5.4.0) (utils/cryptography/EIP712.sol)\\n\\npragma solidity ^0.8.20;\\n\\nimport {MessageHashUtils} from \\\"./MessageHashUtils.sol\\\";\\nimport {ShortStrings, ShortString} from \\\"../ShortStrings.sol\\\";\\nimport {IERC5267} from \\\"../../interfaces/IERC5267.sol\\\";\\n\\n/**\\n * @dev https://eips.ethereum.org/EIPS/eip-712[EIP-712] is a standard for hashing and signing of typed structured data.\\n *\\n * The encoding scheme specified in the EIP requires a domain separator and a hash of the typed structured data, whose\\n * encoding is very generic and therefore its implementation in Solidity is not feasible, thus this contract\\n * does not implement the encoding itself. Protocols need to implement the type-specific encoding they need in order to\\n * produce the hash of their typed data using a combination of `abi.encode` and `keccak256`.\\n *\\n * This contract implements the EIP-712 domain separator ({_domainSeparatorV4}) that is used as part of the encoding\\n * scheme, and the final step of the encoding to obtain the message digest that is then signed via ECDSA\\n * ({_hashTypedDataV4}).\\n *\\n * The implementation of the domain separator was designed to be as efficient as possible while still properly updating\\n * the chain id to protect against replay attacks on an eventual fork of the chain.\\n *\\n * NOTE: This contract implements the version of the encoding known as \\\"v4\\\", as implemented by the JSON RPC method\\n * https://docs.metamask.io/guide/signing-data.html[`eth_signTypedDataV4` in MetaMask].\\n *\\n * NOTE: In the upgradeable version of this contract, the cached values will correspond to the address, and the domain\\n * separator of the implementation contract. This will cause the {_domainSeparatorV4} function to always rebuild the\\n * separator from the immutable values, which is cheaper than accessing a cached version in cold storage.\\n *\\n * @custom:oz-upgrades-unsafe-allow state-variable-immutable\\n */\\nabstract contract EIP712 is IERC5267 {\\n    using ShortStrings for *;\\n\\n    bytes32 private constant TYPE_HASH =\\n        keccak256(\\\"EIP712Domain(string name,string version,uint256 chainId,address verifyingContract)\\\");\\n\\n    // Cache the domain separator as an immutable value, but also store the chain id that it corresponds to, in order to\\n    // invalidate the cached domain separator if the chain id changes.\\n    bytes32 private immutable _cachedDomainSeparator;\\n    uint256 private immutable _cachedChainId;\\n    address private immutable _cachedThis;\\n\\n    bytes32 private immutable _hashedName;\\n    bytes32 private immutable _hashedVersion;\\n\\n    ShortString private immutable _name;\\n    ShortString private immutable _version;\\n    // slither-disable-next-line constable-states\\n    string private _nameFallback;\\n    // slither-disable-next-line constable-states\\n    string private _versionFallback;\\n\\n    /**\\n     * @dev Initializes the domain separator and parameter caches.\\n     *\\n     * The meaning of `name` and `version` is specified in\\n     * https://eips.ethereum.org/EIPS/eip-712#definition-of-domainseparator[EIP-712]:\\n     *\\n     * - `name`: the user readable name of the signing domain, i.e. the name of the DApp or the protocol.\\n     * - `version`: the current major version of the signing domain.\\n     *\\n     * NOTE: These parameters cannot be changed except through a xref:learn::upgrading-smart-contracts.adoc[smart\\n     * contract upgrade].\\n     */\\n    constructor(string memory name, string memory version) {\\n        _name = name.toShortStringWithFallback(_nameFallback);\\n        _version = version.toShortStringWithFallback(_versionFallback);\\n        _hashedName = keccak256(bytes(name));\\n        _hashedVersion = keccak256(bytes(version));\\n\\n        _cachedChainId = block.chainid;\\n        _cachedDomainSeparator = _buildDomainSeparator();\\n        _cachedThis = address(this);\\n    }\\n\\n    /**\\n     * @dev Returns the domain separator for the current chain.\\n     */\\n    function _domainSeparatorV4() internal view returns (bytes32) {\\n        if (address(this) == _cachedThis && block.chainid == _cachedChainId) {\\n            return _cachedDomainSeparator;\\n        } else {\\n            return _buildDomainSeparator();\\n        }\\n    }\\n\\n    function _buildDomainSeparator() private view returns (bytes32) {\\n        return keccak256(abi.encode(TYPE_HASH, _hashedName, _hashedVersion, block.chainid, address(this)));\\n    }\\n\\n    /**\\n     * @dev Given an already https://eips.ethereum.org/EIPS/eip-712#definition-of-hashstruct[hashed struct], this\\n     * function returns the hash of the fully encoded EIP712 message for this domain.\\n     *\\n     * This hash can be used together with {ECDSA-recover} to obtain the signer of a message. For example:\\n     *\\n     * ```solidity\\n     * bytes32 digest = _hashTypedDataV4(keccak256(abi.encode(\\n     *     keccak256(\\\"Mail(address to,string contents)\\\"),\\n     *     mailTo,\\n     *     keccak256(bytes(mailContents))\\n     * )));\\n     * address signer = ECDSA.recover(digest, signature);\\n     * ```\\n     */\\n    function _hashTypedDataV4(bytes32 structHash) internal view virtual returns (bytes32) {\\n        return MessageHashUtils.toTypedDataHash(_domainSeparatorV4(), structHash);\\n    }\\n\\n    /// @inheritdoc IERC5267\\n    function eip712Domain()\\n        public\\n        view\\n        virtual\\n        returns (\\n            bytes1 fields,\\n            string memory name,\\n            string memory version,\\n            uint256 chainId,\\n            address verifyingContract,\\n            bytes32 salt,\\n            uint256[] memory extensions\\n        )\\n    {\\n        return (\\n            hex\\\"0f\\\", // 01111\\n            _EIP712Name(),\\n            _EIP712Version(),\\n            block.chainid,\\n            address(this),\\n            bytes32(0),\\n            new uint256[](0)\\n        );\\n    }\\n\\n    /**\\n     * @dev The name parameter for the EIP712 domain.\\n     *\\n     * NOTE: By default this function reads _name which is an immutable value.\\n     * It only reads from storage if necessary (in case the value is too large to fit in a ShortString).\\n     */\\n    // solhint-disable-next-line func-name-mixedcase\\n    function _EIP712Name() internal view returns (string memory) {\\n        return _name.toStringWithFallback(_nameFallback);\\n    }\\n\\n    /**\\n     * @dev The version parameter for the EIP712 domain.\\n     *\\n     * NOTE: By default this function reads _version which is an immutable value.\\n     * It only reads from storage if necessary (in case the value is too large to fit in a ShortString).\\n     */\\n    // solhint-disable-next-line func-name-mixedcase\\n    function _EIP712Version() internal view returns (string memory) {\\n        return _version.toStringWithFallback(_versionFallback);\\n    }\\n}\\n\"},\"@openzeppelin/contracts/token/ERC20/extensions/ERC20Permit.sol\":{\"content\":\"// SPDX-License-Identifier: MIT\\n// OpenZeppelin Contracts (last updated v5.4.0) (token/ERC20/extensions/ERC20Permit.sol)\\n\\npragma solidity ^0.8.20;\\n\\nimport {IERC20Permit} from \\\"./IERC20Permit.sol\\\";\\nimport {ERC20} from \\\"../ERC20.sol\\\";\\nimport {ECDSA} from \\\"../../../utils/cryptography/ECDSA.sol\\\";\\nimport {EIP712} from \\\"../../../utils/cryptography/EIP712.sol\\\";\\nimport {Nonces} from \\\"../../../utils/Nonces.sol\\\";\\n\\n/**\\n * @dev Implementation of the ERC-20 Permit extension allowing approvals to be made via signatures, as defined in\\n * https://eips.ethereum.org/EIPS/eip-2612[ERC-2612].\\n *\\n * Adds the {permit} method, which can be used to change an account's ERC-20 allowance (see {IERC20-allowance}) by\\n * presenting a message signed by the account. By not relying on `{IERC20-approve}`, the token holder account doesn't\\n * need to send a transaction, and thus is not required to hold Ether at all.\\n */\\nabstract contract ERC20Permit is ERC20, IERC20Permit, EIP712, Nonces {\\n    bytes32 private constant PERMIT_TYPEHASH =\\n        keccak256(\\\"Permit(address owner,address spender,uint256 value,uint256 nonce,uint256 deadline)\\\");\\n\\n    /**\\n     * @dev Permit deadline has expired.\\n     */\\n    error ERC2612ExpiredSignature(uint256 deadline);\\n\\n    /**\\n     * @dev Mismatched signature.\\n     */\\n    error ERC2612InvalidSigner(address signer, address owner);\\n\\n    /**\\n     * @dev Initializes the {EIP712} domain separator using the `name` parameter, and setting `version` to `\\\"1\\\"`.\\n     *\\n     * It's a good idea to use the same `name` that is defined as the ERC-20 token name.\\n     */\\n    constructor(string memory name) EIP712(name, \\\"1\\\") {}\\n\\n    /// @inheritdoc IERC20Permit\\n    function permit(\\n        address owner,\\n        address spender,\\n        uint256 value,\\n        uint256 deadline,\\n        uint8 v,\\n        bytes32 r,\\n        bytes32 s\\n    ) public virtual {\\n        if (block.timestamp > deadline) {\\n            revert ERC2612ExpiredSignature(deadline);\\n        }\\n\\n        bytes32 structHash = keccak256(abi.encode(PERMIT_TYPEHASH, owner, spender, value, _useNonce(owner), deadline));\\n\\n        bytes32 hash = _hashTypedDataV4(structHash);\\n\\n        address signer = ECDSA.recover(hash, v, r, s);\\n        if (signer != owner) {\\n            revert ERC2612InvalidSigner(signer, owner);\\n        }\\n\\n        _approve(owner, spender, value);\\n    }\\n\\n    /// @inheritdoc IERC20Permit\\n    function nonces(address owner) public view virtual override(IERC20Permit, Nonces) returns (uint256) {\\n        return super.nonces(owner);\\n    }\\n\\n    /// @inheritdoc IERC20Permit\\n    // solhint-disable-next-line func-name-mixedcase\\n    function DOMAIN_SEPARATOR() external view virtual returns (bytes32) {\\n        return _domainSeparatorV4();\\n    }\\n}\\n\"},\"@openzeppelin/contracts/token/ERC20/extensions/ERC20Votes.sol\":{\"content\":\"// SPDX-License-Identifier: MIT\\n// OpenZeppelin Contracts (last updated v5.1.0) (token/ERC20/extensions/ERC20Votes.sol)\\n\\npragma solidity ^0.8.20;\\n\\nimport {ERC20} from \\\"../ERC20.sol\\\";\\nimport {Votes} from \\\"../../../governance/utils/Votes.sol\\\";\\nimport {Checkpoints} from \\\"../../../utils/structs/Checkpoints.sol\\\";\\n\\n/**\\n * @dev Extension of ERC-20 to support Compound-like voting and delegation. This version is more generic than Compound's,\\n * and supports token supply up to 2^208^ - 1, while COMP is limited to 2^96^ - 1.\\n *\\n * NOTE: This contract does not provide interface compatibility with Compound's COMP token.\\n *\\n * This extension keeps a history (checkpoints) of each account's vote power. Vote power can be delegated either\\n * by calling the {Votes-delegate} function directly, or by providing a signature to be used with {Votes-delegateBySig}. Voting\\n * power can be queried through the public accessors {Votes-getVotes} and {Votes-getPastVotes}.\\n *\\n * By default, token balance does not account for voting power. This makes transfers cheaper. The downside is that it\\n * requires users to delegate to themselves in order to activate checkpoints and have their voting power tracked.\\n */\\nabstract contract ERC20Votes is ERC20, Votes {\\n    /**\\n     * @dev Total supply cap has been exceeded, introducing a risk of votes overflowing.\\n     */\\n    error ERC20ExceededSafeSupply(uint256 increasedSupply, uint256 cap);\\n\\n    /**\\n     * @dev Maximum token supply. Defaults to `type(uint208).max` (2^208^ - 1).\\n     *\\n     * This maximum is enforced in {_update}. It limits the total supply of the token, which is otherwise a uint256,\\n     * so that checkpoints can be stored in the Trace208 structure used by {Votes}. Increasing this value will not\\n     * remove the underlying limitation, and will cause {_update} to fail because of a math overflow in\\n     * {Votes-_transferVotingUnits}. An override could be used to further restrict the total supply (to a lower value) if\\n     * additional logic requires it. When resolving override conflicts on this function, the minimum should be\\n     * returned.\\n     */\\n    function _maxSupply() internal view virtual returns (uint256) {\\n        return type(uint208).max;\\n    }\\n\\n    /**\\n     * @dev Move voting power when tokens are transferred.\\n     *\\n     * Emits a {IVotes-DelegateVotesChanged} event.\\n     */\\n    function _update(address from, address to, uint256 value) internal virtual override {\\n        super._update(from, to, value);\\n        if (from == address(0)) {\\n            uint256 supply = totalSupply();\\n            uint256 cap = _maxSupply();\\n            if (supply > cap) {\\n                revert ERC20ExceededSafeSupply(supply, cap);\\n            }\\n        }\\n        _transferVotingUnits(from, to, value);\\n    }\\n\\n    /**\\n     * @dev Returns the voting units of an `account`.\\n     *\\n     * WARNING: Overriding this function may compromise the internal vote accounting.\\n     * `ERC20Votes` assumes tokens map to voting units 1:1 and this is not easy to change.\\n     */\\n    function _getVotingUnits(address account) internal view virtual override returns (uint256) {\\n        return balanceOf(account);\\n    }\\n\\n    /**\\n     * @dev Get number of checkpoints for `account`.\\n     */\\n    function numCheckpoints(address account) public view virtual returns (uint32) {\\n        return _numCheckpoints(account);\\n    }\\n\\n    /**\\n     * @dev Get the `pos`-th checkpoint for `account`.\\n     */\\n    function checkpoints(address account, uint32 pos) public view virtual returns (Checkpoints.Checkpoint208 memory) {\\n        return _checkpoints(account, pos);\\n    }\\n}\\n\"},\"@openzeppelin/contracts/token/ERC20/ERC20.sol\":{\"content\":\"// SPDX-License-Identifier: MIT\\n// OpenZeppelin Contracts (last updated v5.4.0) (token/ERC20/ERC20.sol)\\n\\npragma solidity ^0.8.20;\\n\\nimport {IERC20} from \\\"./IERC20.sol\\\";\\nimport {IERC20Metadata} from \\\"./extensions/IERC20Metadata.sol\\\";\\nimport {Context} from \\\"../../utils/Context.sol\\\";\\nimport {IERC20Errors} from \\\"../../interfaces/draft-IERC6093.sol\\\";\\n\\n/**\\n * @dev Implementation of the {IERC20} interface.\\n *\\n * This implementation is agnostic to the way tokens are created. This means\\n * that a supply mechanism has to be added in a derived contract using {_mint}.\\n *\\n * TIP: For a detailed writeup see our guide\\n * https://forum.openzeppelin.com/t/how-to-implement-erc20-supply-mechanisms/226[How\\n * to implement supply mechanisms].\\n *\\n * The default value of {decimals} is 18. To change this, you should override\\n * this function so it returns a different value.\\n *\\n * We have followed general OpenZeppelin Contracts guidelines: functions revert\\n * instead returning `false` on failure. This behavior is nonetheless\\n * conventional and does not conflict with the expectations of ERC-20\\n * applications.\\n */\\nabstract contract ERC20 is Context, IERC20, IERC20Metadata, IERC20Errors {\\n    mapping(address account => uint256) private _balances;\\n\\n    mapping(address account => mapping(address spender => uint256)) private _allowances;\\n\\n    uint256 private _totalSupply;\\n\\n    string private _name;\\n    string private _symbol;\\n\\n    /**\\n     * @dev Sets the values for {name} and {symbol}.\\n     *\\n     * Both values are immutable: they can only be set once during construction.\\n     */\\n    constructor(string memory name_, string memory symbol_) {\\n        _name = name_;\\n        _symbol = symbol_;\\n    }\\n\\n    /**\\n     * @dev Returns the name of the token.\\n     */\\n    function name() public view virtual returns (string memory) {\\n        return _name;\\n    }\\n\\n    /**\\n     * @dev Returns the symbol of the token, usually a shorter version of the\\n     * name.\\n     */\\n    function symbol() public view virtual returns (string memory) {\\n        return _symbol;\\n    }\\n\\n    /**\\n     * @dev Returns the number of decimals used to get its user representation.\\n     * For example, if `decimals` equals `2`, a balance of `505` tokens should\\n     * be displayed to a user as `5.05` (`505 / 10 ** 2`).\\n     *\\n     * Tokens usually opt for a value of 18, imitating the relationship between\\n     * Ether and Wei. This is the default value returned by this function, unless\\n     * it's overridden.\\n     *\\n     * NOTE: This information is only used for _display_ purposes: it in\\n     * no way affects any of the arithmetic of the contract, including\\n     * {IERC20-balanceOf} and {IERC20-transfer}.\\n     */\\n    function decimals() public view virtual returns (uint8) {\\n        return 18;\\n    }\\n\\n    /// @inheritdoc IERC20\\n    function totalSupply() public view virtual returns (uint256) {\\n        return _totalSupply;\\n    }\\n\\n    /// @inheritdoc IERC20\\n    function balanceOf(address account) public view virtual returns (uint256) {\\n        return _balances[account];\\n    }\\n\\n    /**\\n     * @dev See {IERC20-transfer}.\\n     *\\n     * Requirements:\\n     *\\n     * - `to` cannot be the zero address.\\n     * - the caller must have a balance of at least `value`.\\n     */\\n    function transfer(address to, uint256 value) public virtual returns (bool) {\\n        address owner = _msgSender();\\n        _transfer(owner, to, value);\\n        return true;\\n    }\\n\\n    /// @inheritdoc IERC20\\n    function allowance(address owner, address spender) public view virtual returns (uint256) {\\n        return _allowances[owner][spender];\\n    }\\n\\n    /**\\n     * @dev See {IERC20-approve}.\\n     *\\n     * NOTE: If `value` is the maximum `uint256`, the allowance is not updated on\\n     * `transferFrom`. This is semantically equivalent to an infinite approval.\\n     *\\n     * Requirements:\\n     *\\n     * - `spender` cannot be the zero address.\\n     */\\n    function approve(address spender, uint256 value) public virtual returns (bool) {\\n        address owner = _msgSender();\\n        _approve(owner, spender, value);\\n        return true;\\n    }\\n\\n    /**\\n     * @dev See {IERC20-transferFrom}.\\n     *\\n     * Skips emitting an {Approval} event indicating an allowance update. This is not\\n     * required by the ERC. See {xref-ERC20-_approve-address-address-uint256-bool-}[_approve].\\n     *\\n     * NOTE: Does not update the allowance if the current allowance\\n     * is the maximum `uint256`.\\n     *\\n     * Requirements:\\n     *\\n     * - `from` and `to` cannot be the zero address.\\n     * - `from` must have a balance of at least `value`.\\n     * - the caller must have allowance for ``from``'s tokens of at least\\n     * `value`.\\n     */\\n    function transferFrom(address from, address to, uint256 value) public virtual returns (bool) {\\n        address spender = _msgSender();\\n        _spendAllowance(from, spender, value);\\n        _transfer(from, to, value);\\n        return true;\\n    }\\n\\n    /**\\n     * @dev Moves a `value` amount of tokens from `from` to `to`.\\n     *\\n     * This internal function is equivalent to {transfer}, and can be used to\\n     * e.g. implement automatic token fees, slashing mechanisms, etc.\\n     *\\n     * Emits a {Transfer} event.\\n     *\\n     * NOTE: This function is not virtual, {_update} should be overridden instead.\\n     */\\n    function _transfer(address from, address to, uint256 value) internal {\\n        if (from == address(0)) {\\n            revert ERC20InvalidSender(address(0));\\n        }\\n        if (to == address(0)) {\\n            revert ERC20InvalidReceiver(address(0));\\n        }\\n        _update(from, to, value);\\n    }\\n\\n    /**\\n     * @dev Transfers a `value` amount of tokens from `from` to `to`, or alternatively mints (or burns) if `from`\\n     * (or `to`) is the zero address. All customizations to transfers, mints, and burns should be done by overriding\\n     * this function.\\n     *\\n     * Emits a {Transfer} event.\\n     */\\n    function _update(address from, address to, uint256 value) internal virtual {\\n        if (from == address(0)) {\\n            // Overflow check required: The rest of the code assumes that totalSupply never overflows\\n            _totalSupply += value;\\n        } else {\\n            uint256 fromBalance = _balances[from];\\n            if (fromBalance < value) {\\n                revert ERC20InsufficientBalance(from, fromBalance, value);\\n            }\\n            unchecked {\\n                // Overflow not possible: value <= fromBalance <= totalSupply.\\n                _balances[from] = fromBalance - value;\\n            }\\n        }\\n\\n        if (to == address(0)) {\\n            unchecked {\\n                // Overflow not possible: value <= totalSupply or value <= fromBalance <= totalSupply.\\n                _totalSupply -= value;\\n            }\\n        } else {\\n            unchecked {\\n                // Overflow not possible: balance + value is at most totalSupply, which we know fits into a uint256.\\n                _balances[to] += value;\\n            }\\n        }\\n\\n        emit Transfer(from, to, value);\\n    }\\n\\n    /**\\n     * @dev Creates a `value` amount of tokens and assigns them to `account`, by transferring it from address(0).\\n     * Relies on the `_update` mechanism\\n     *\\n     * Emits a {Transfer} event with `from` set to the zero address.\\n     *\\n     * NOTE: This function is not virtual, {_update} should be overridden instead.\\n     */\\n    function _mint(address account, uint256 value) internal {\\n        if (account == address(0)) {\\n            revert ERC20InvalidReceiver(address(0));\\n        }\\n        _update(address(0), account, value);\\n    }\\n\\n    /**\\n     * @dev Destroys a `value` amount of tokens from `account`, lowering the total supply.\\n     * Relies on the `_update` mechanism.\\n     *\\n     * Emits a {Transfer} event with `to` set to the zero address.\\n     *\\n     * NOTE: This function is not virtual, {_update} should be overridden instead\\n     */\\n    function _burn(address account, uint256 value) internal {\\n        if (account == address(0)) {\\n            revert ERC20InvalidSender(address(0));\\n        }\\n        _update(account, address(0), value);\\n    }\\n\\n    /**\\n     * @dev Sets `value` as the allowance of `spender` over the `owner`'s tokens.\\n     *\\n     * This internal function is equivalent to `approve`, and can be used to\\n     * e.g. set automatic allowances for certain subsystems, etc.\\n     *\\n     * Emits an {Approval} event.\\n     *\\n     * Requirements:\\n     *\\n     * - `owner` cannot be the zero address.\\n     * - `spender` cannot be the zero address.\\n     *\\n     * Overrides to this logic should be done to the variant with an additional `bool emitEvent` argument.\\n     */\\n    function _approve(address owner, address spender, uint256 value) internal {\\n        _approve(owner, spender, value, true);\\n    }\\n\\n    /**\\n     * @dev Variant of {_approve} with an optional flag to enable or disable the {Approval} event.\\n     *\\n     * By default (when calling {_approve}) the flag is set to true. On the other hand, approval changes made by\\n     * `_spendAllowance` during the `transferFrom` operation set the flag to false. This saves gas by not emitting any\\n     * `Approval` event during `transferFrom` operations.\\n     *\\n     * Anyone who wishes to continue emitting `Approval` events on the`transferFrom` operation can force the flag to\\n     * true using the following override:\\n     *\\n     * ```solidity\\n     * function _approve(address owner, address spender, uint256 value, bool) internal virtual override {\\n     *     super._approve(owner, spender, value, true);\\n     * }\\n     * ```\\n     *\\n     * Requirements are the same as {_approve}.\\n     */\\n    function _approve(address owner, address spender, uint256 value, bool emitEvent) internal virtual {\\n        if (owner == address(0)) {\\n            revert ERC20InvalidApprover(address(0));\\n        }\\n        if (spender == address(0)) {\\n            revert ERC20InvalidSpender(address(0));\\n        }\\n        _allowances[owner][spender] = value;\\n        if (emitEvent) {\\n            emit Approval(owner, spender, value);\\n        }\\n    }\\n\\n    /**\\n     * @dev Updates `owner`'s allowance for `spender` based on spent `value`.\\n     *\\n     * Does not update the allowance value in case of infinite allowance.\\n     * Revert if not enough allowance is available.\\n     *\\n     * Does not emit an {Approval} event.\\n     */\\n    function _spendAllowance(address owner, address spender, uint256 value) internal virtual {\\n        uint256 currentAllowance = allowance(owner, spender);\\n        if (currentAllowance < type(uint256).max) {\\n            if (currentAllowance < value) {\\n                revert ERC20InsufficientAllowance(spender, currentAllowance, value);\\n            }\\n            unchecked {\\n                _approve(owner, spender, currentAllowance - value, false);\\n            }\\n        }\\n    }\\n}\\n\"},\"@openzeppelin/contracts/utils/Pausable.sol\":{\"content\":\"// SPDX-License-Identifier: MIT\\n// OpenZeppelin Contracts (last updated v5.3.0) (utils/Pausable.sol)\\n\\npragma solidity ^0.8.20;\\n\\nimport {Context} from \\\"../utils/Context.sol\\\";\\n\\n/**\\n * @dev Contract module which allows children to implement an emergency stop\\n * mechanism that can be triggered by an authorized account.\\n *\\n * This module is used through inheritance. It will make available the\\n * modifiers `whenNotPaused` and `whenPaused`, which can be applied to\\n * the functions of your contract. Note that they will not be pausable by\\n * simply including this module, only once the modifiers are put in place.\\n */\\nabstract contract Pausable is Context {\\n    bool private _paused;\\n\\n    /**\\n     * @dev Emitted when the pause is triggered by `account`.\\n     */\\n    event Paused(address account);\\n\\n    /**\\n     * @dev Emitted when the pause is lifted by `account`.\\n     */\\n    event Unpaused(address account);\\n\\n    /**\\n     * @dev The operation failed because the contract is paused.\\n     */\\n    error EnforcedPause();\\n\\n    /**\\n     * @dev The operation failed because the contract is not paused.\\n     */\\n    error ExpectedPause();\\n\\n    /**\\n     * @dev Modifier to make a function callable only when the contract is not paused.\\n     *\\n     * Requirements:\\n     *\\n     * - The contract must not be paused.\\n     */\\n    modifier whenNotPaused() {\\n        _requireNotPaused();\\n        _;\\n    }\\n\\n    /**\\n     * @dev Modifier to make a function callable only when the contract is paused.\\n     *\\n     * Requirements:\\n     *\\n     * - The contract must be paused.\\n     */\\n    modifier whenPaused() {\\n        _requirePaused();\\n        _;\\n    }\\n\\n    /**\\n     * @dev Returns true if the contract is paused, and false otherwise.\\n     */\\n    function paused() public view virtual returns (bool) {\\n        return _paused;\\n    }\\n\\n    /**\\n     * @dev Throws if the contract is paused.\\n     */\\n    function _requireNotPaused() internal view virtual {\\n        if (paused()) {\\n            revert EnforcedPause();\\n        }\\n    }\\n\\n    /**\\n     * @dev Throws if the contract is not paused.\\n     */\\n    function _requirePaused() internal view virtual {\\n        if (!paused()) {\\n            revert ExpectedPause();\\n        }\\n    }\\n\\n    /**\\n     * @dev Triggers stopped state.\\n     *\\n     * Requirements:\\n     *\\n     * - The contract must not be paused.\\n     */\\n    function _pause() internal virtual whenNotPaused {\\n        _paused = true;\\n        emit Paused(_msgSender());\\n    }\\n\\n    /**\\n     * @dev Returns to normal state.\\n     *\\n     * Requirements:\\n     *\\n     * - The contract must be paused.\\n     */\\n    function _unpause() internal virtual whenPaused {\\n        _paused = false;\\n        emit Unpaused(_msgSender());\\n    }\\n}\\n\"},\"@openzeppelin/contracts/access/Ownable.sol\":{\"content\":\"// SPDX-License-Identifier: MIT\\n// OpenZeppelin Contracts (last updated v5.0.0) (access/Ownable.sol)\\n\\npragma solidity ^0.8.20;\\n\\nimport {Context} from \\\"../utils/Context.sol\\\";\\n\\n/**\\n * @dev Contract module which provides a basic access control mechanism, where\\n * there is an account (an owner) that can be granted exclusive access to\\n * specific functions.\\n *\\n * The initial owner is set to the address provided by the deployer. This can\\n * later be changed with {transferOwnership}.\\n *\\n * This module is used through inheritance. It will make available the modifier\\n * `onlyOwner`, which can be applied to your functions to restrict their use to\\n * the owner.\\n */\\nabstract contract Ownable is Context {\\n    address private _owner;\\n\\n    /**\\n     * @dev The caller account is not authorized to perform an operation.\\n     */\\n    error OwnableUnauthorizedAccount(address account);\\n\\n    /**\\n     * @dev The owner is not a valid owner account. (eg. `address(0)`)\\n     */\\n    error OwnableInvalidOwner(address owner);\\n\\n    event OwnershipTransferred(address indexed previousOwner, address indexed newOwner);\\n\\n    /**\\n     * @dev Initializes the contract setting the address provided by the deployer as the initial owner.\\n     */\\n    constructor(address initialOwner) {\\n        if (initialOwner == address(0)) {\\n            revert OwnableInvalidOwner(address(0));\\n        }\\n        _transferOwnership(initialOwner);\\n    }\\n\\n    /**\\n     * @dev Throws if called by any account other than the owner.\\n     */\\n    modifier onlyOwner() {\\n        _checkOwner();\\n        _;\\n    }\\n\\n    /**\\n     * @dev Returns the address of the current owner.\\n     */\\n    function owner() public view virtual returns (address) {\\n        return _owner;\\n    }\\n\\n    /**\\n     * @dev Throws if the sender is not the owner.\\n     */\\n    function _checkOwner() internal view virtual {\\n        if (owner() != _msgSender()) {\\n            revert OwnableUnauthorizedAccount(_msgSender());\\n        }\\n    }\\n\\n    /**\\n     * @dev Leaves the contract without owner. It will not be possible to call\\n     * `onlyOwner` functions. Can only be called by the current owner.\\n     *\\n     * NOTE: Renouncing ownership will leave the contract without an owner,\\n     * thereby disabling any functionality that is only available to the owner.\\n     */\\n    function renounceOwnership() public virtual onlyOwner {\\n        _transferOwnership(address(0));\\n    }\\n\\n    /**\\n     * @dev Transfers ownership of the contract to a new account (`newOwner`).\\n     * Can only be called by the current owner.\\n     */\\n    function transferOwnership(address newOwner) public virtual onlyOwner {\\n        if (newOwner == address(0)) {\\n            revert OwnableInvalidOwner(address(0));\\n        }\\n        _transferOwnership(newOwner);\\n    }\\n\\n    /**\\n     * @dev Transfers ownership of the contract to a new account (`newOwner`).\\n     * Internal function without access restriction.\\n     */\\n    function _transferOwnership(address newOwner) internal virtual {\\n        address oldOwner = _owner;\\n        _owner = newOwner;\\n        emit OwnershipTransferred(oldOwner, newOwner);\\n    }\\n}\\n\"},\"@openzeppelin/contracts/utils/ReentrancyGuard.sol\":{\"content\":\"// SPDX-License-Identifier: MIT\\n// OpenZeppelin Contracts (last updated v5.1.0) (utils/ReentrancyGuard.sol)\\n\\npragma solidity ^0.8.20;\\n\\n/**\\n * @dev Contract module that helps prevent reentrant calls to a function.\\n *\\n * Inheriting from `ReentrancyGuard` will make the {nonReentrant} modifier\\n * available, which can be applied to functions to make sure there are no nested\\n * (reentrant) calls to them.\\n *\\n * Note that because there is a single `nonReentrant` guard, functions marked as\\n * `nonReentrant` may not call one another. This can be worked around by making\\n * those functions `private`, and then adding `external` `nonReentrant` entry\\n * points to them.\\n *\\n * TIP: If EIP-1153 (transient storage) is available on the chain you're deploying at,\\n * consider using {ReentrancyGuardTransient} instead.\\n *\\n * TIP: If you would like to learn more about reentrancy and alternative ways\\n * to protect against it, check out our blog post\\n * https://blog.openzeppelin.com/reentrancy-after-istanbul/[Reentrancy After Istanbul].\\n */\\nabstract contract ReentrancyGuard {\\n    // Booleans are more expensive than uint256 or any type that takes up a full\\n    // word because each write operation emits an extra SLOAD to first read the\\n    // slot's contents, replace the bits taken up by the boolean, and then write\\n    // back. This is the compiler's defense against contract upgrades and\\n    // pointer aliasing, and it cannot be disabled.\\n\\n    // The values being non-zero value makes deployment a bit more expensive,\\n    // but in exchange the refund on every call to nonReentrant will be lower in\\n    // amount. Since refunds are capped to a percentage of the total\\n    // transaction's gas, it is best to keep them low in cases like this one, to\\n    // increase the likelihood of the full refund coming into effect.\\n    uint256 private constant NOT_ENTERED = 1;\\n    uint256 private constant ENTERED = 2;\\n\\n    uint256 private _status;\\n\\n    /**\\n     * @dev Unauthorized reentrant call.\\n     */\\n    error ReentrancyGuardReentrantCall();\\n\\n    constructor() {\\n        _status = NOT_ENTERED;\\n    }\\n\\n    /**\\n     * @dev Prevents a contract from calling itself, directly or indirectly.\\n     * Calling a `nonReentrant` function from another `nonReentrant`\\n     * function is not supported. It is possible to prevent this from happening\\n     * by making the `nonReentrant` function external, and making it call a\\n     * `private` function that does the actual work.\\n     */\\n    modifier nonReentrant() {\\n        _nonReentrantBefore();\\n        _;\\n        _nonReentrantAfter();\\n    }\\n\\n    function _nonReentrantBefore() private {\\n        // On the first call to nonReentrant, _status will be NOT_ENTERED\\n        if (_status == ENTERED) {\\n            revert ReentrancyGuardReentrantCall();\\n        }\\n\\n        // Any calls to nonReentrant after this point will fail\\n        _status = ENTERED;\\n    }\\n\\n    function _nonReentrantAfter() private {\\n        // By storing the original value once again, a refund is triggered (see\\n        // https://eips.ethereum.org/EIPS/eip-2200)\\n        _status = NOT_ENTERED;\\n    }\\n\\n    /**\\n     * @dev Returns true if the reentrancy guard is currently set to \\\"entered\\\", which indicates there is a\\n     * `nonReentrant` function in the call stack.\\n     */\\n    function _reentrancyGuardEntered() internal view returns (bool) {\\n        return _status == ENTERED;\\n    }\\n}\\n\"},\"@openzeppelin/contracts/interfaces/IERC5267.sol\":{\"content\":\"// SPDX-License-Identifier: MIT\\n// OpenZeppelin Contracts (last updated v5.4.0) (interfaces/IERC5267.sol)\\n\\npragma solidity >=0.4.16;\\n\\ninterface IERC5267 {\\n    /**\\n     * @dev MAY be emitted to signal that the domain could have changed.\\n     */\\n    event EIP712DomainChanged();\\n\\n    /**\\n     * @dev returns the fields and values that describe the domain separator used by this contract for EIP-712\\n     * signature.\\n     */\\n    function eip712Domain()\\n        external\\n        view\\n        returns (\\n            bytes1 fields,\\n            string memory name,\\n            string memory version,\\n            uint256 chainId,\\n            address verifyingContract,\\n            bytes32 salt,\\n            uint256[] memory extensions\\n        );\\n}\\n\"},\"@openzeppelin/contracts/utils/ShortStrings.sol\":{\"content\":\"// SPDX-License-Identifier: MIT\\n// OpenZeppelin Contracts (last updated v5.3.0) (utils/ShortStrings.sol)\\n\\npragma solidity ^0.8.20;\\n\\nimport {StorageSlot} from \\\"./StorageSlot.sol\\\";\\n\\n// | string  | 0xAAAAAAAAAAAAAAAAAAAAAAAAAAAAAAAAAAAAAAAAAAAAAAAAAAAAAAAAAAAAAA   |\\n// | length  | 0x                                                              BB |\\ntype ShortString is bytes32;\\n\\n/**\\n * @dev This library provides functions to convert short memory strings\\n * into a `ShortString` type that can be used as an immutable variable.\\n *\\n * Strings of arbitrary length can be optimized using this library if\\n * they are short enough (up to 31 bytes) by packing them with their\\n * length (1 byte) in a single EVM word (32 bytes). Additionally, a\\n * fallback mechanism can be used for every other case.\\n *\\n * Usage example:\\n *\\n * ```solidity\\n * contract Named {\\n *     using ShortStrings for *;\\n *\\n *     ShortString private immutable _name;\\n *     string private _nameFallback;\\n *\\n *     constructor(string memory contractName) {\\n *         _name = contractName.toShortStringWithFallback(_nameFallback);\\n *     }\\n *\\n *     function name() external view returns (string memory) {\\n *         return _name.toStringWithFallback(_nameFallback);\\n *     }\\n * }\\n * ```\\n */\\nlibrary ShortStrings {\\n    // Used as an identifier for strings longer than 31 bytes.\\n    bytes32 private constant FALLBACK_SENTINEL = 0x00000000000000000000000000000000000000000000000000000000000000FF;\\n\\n    error StringTooLong(string str);\\n    error InvalidShortString();\\n\\n    /**\\n     * @dev Encode a string of at most 31 chars into a `ShortString`.\\n     *\\n     * This will trigger a `StringTooLong` error is the input string is too long.\\n     */\\n    function toShortString(string memory str) internal pure returns (ShortString) {\\n        bytes memory bstr = bytes(str);\\n        if (bstr.length > 31) {\\n            revert StringTooLong(str);\\n        }\\n        return ShortString.wrap(bytes32(uint256(bytes32(bstr)) | bstr.length));\\n    }\\n\\n    /**\\n     * @dev Decode a `ShortString` back to a \\\"normal\\\" string.\\n     */\\n    function toString(ShortString sstr) internal pure returns (string memory) {\\n        uint256 len = byteLength(sstr);\\n        // using `new string(len)` would work locally but is not memory safe.\\n        string memory str = new string(32);\\n        assembly (\\\"memory-safe\\\") {\\n            mstore(str, len)\\n            mstore(add(str, 0x20), sstr)\\n        }\\n        return str;\\n    }\\n\\n    /**\\n     * @dev Return the length of a `ShortString`.\\n     */\\n    function byteLength(ShortString sstr) internal pure returns (uint256) {\\n        uint256 result = uint256(ShortString.unwrap(sstr)) & 0xFF;\\n        if (result > 31) {\\n            revert InvalidShortString();\\n        }\\n        return result;\\n    }\\n\\n    /**\\n     * @dev Encode a string into a `ShortString`, or write it to storage if it is too long.\\n     */\\n    function toShortStringWithFallback(string memory value, string storage store) internal returns (ShortString) {\\n        if (bytes(value).length < 32) {\\n            return toShortString(value);\\n        } else {\\n            StorageSlot.getStringSlot(store).value = value;\\n            return ShortString.wrap(FALLBACK_SENTINEL);\\n        }\\n    }\\n\\n    /**\\n     * @dev Decode a string that was encoded to `ShortString` or written to storage using {toShortStringWithFallback}.\\n     */\\n    function toStringWithFallback(ShortString value, string storage store) internal pure returns (string memory) {\\n        if (ShortString.unwrap(value) != FALLBACK_SENTINEL) {\\n            return toString(value);\\n        } else {\\n            return store;\\n        }\\n    }\\n\\n    /**\\n     * @dev Return the length of a string that was encoded to `ShortString` or written to storage using\\n     * {toShortStringWithFallback}.\\n     *\\n     * WARNING: This will return the \\\"byte length\\\" of the string. This may not reflect the actual length in terms of\\n     * actual characters as the UTF-8 encoding of a single character can span over multiple bytes.\\n     */\\n    function byteLengthWithFallback(ShortString value, string storage store) internal view returns (uint256) {\\n        if (ShortString.unwrap(value) != FALLBACK_SENTINEL) {\\n            return byteLength(value);\\n        } else {\\n            return bytes(store).length;\\n        }\\n    }\\n}\\n\"},\"@openzeppelin/contracts/utils/cryptography/MessageHashUtils.sol\":{\"content\":\"// SPDX-License-Identifier: MIT\\n// OpenZeppelin Contracts (last updated v5.3.0) (utils/cryptography/MessageHashUtils.sol)\\n\\npragma solidity ^0.8.20;\\n\\nimport {Strings} from \\\"../Strings.sol\\\";\\n\\n/**\\n * @dev Signature message hash utilities for producing digests to be consumed by {ECDSA} recovery or signing.\\n *\\n * The library provides methods for generating a hash of a message that conforms to the\\n * https://eips.ethereum.org/EIPS/eip-191[ERC-191] and https://eips.ethereum.org/EIPS/eip-712[EIP 712]\\n * specifications.\\n */\\nlibrary MessageHashUtils {\\n    /**\\n     * @dev Returns the keccak256 digest of an ERC-191 signed data with version\\n     * `0x45` (`personal_sign` messages).\\n     *\\n     * The digest is calculated by prefixing a bytes32 `messageHash` with\\n     * `\\\"\\\\x19Ethereum Signed Message:\\\\n32\\\"` and hashing the result. It corresponds with the\\n     * hash signed when using the https://ethereum.org/en/developers/docs/apis/json-rpc/#eth_sign[`eth_sign`] JSON-RPC method.\\n     *\\n     * NOTE: The `messageHash` parameter is intended to be the result of hashing a raw message with\\n     * keccak256, although any bytes32 value can be safely used because the final digest will\\n     * be re-hashed.\\n     *\\n     * See {ECDSA-recover}.\\n     */\\n    function toEthSignedMessageHash(bytes32 messageHash) internal pure returns (bytes32 digest) {\\n        assembly (\\\"memory-safe\\\") {\\n            mstore(0x00, \\\"\\\\x19Ethereum Signed Message:\\\\n32\\\") // 32 is the bytes-length of messageHash\\n            mstore(0x1c, messageHash) // 0x1c (28) is the length of the prefix\\n            digest := keccak256(0x00, 0x3c) // 0x3c is the length of the prefix (0x1c) + messageHash (0x20)\\n        }\\n    }\\n\\n    /**\\n     * @dev Returns the keccak256 digest of an ERC-191 signed data with version\\n     * `0x45` (`personal_sign` messages).\\n     *\\n     * The digest is calculated by prefixing an arbitrary `message` with\\n     * `\\\"\\\\x19Ethereum Signed Message:\\\\n\\\" + len(message)` and hashing the result. It corresponds with the\\n     * hash signed when using the https://ethereum.org/en/developers/docs/apis/json-rpc/#eth_sign[`eth_sign`] JSON-RPC method.\\n     *\\n     * See {ECDSA-recover}.\\n     */\\n    function toEthSignedMessageHash(bytes memory message) internal pure returns (bytes32) {\\n        return\\n            keccak256(bytes.concat(\\\"\\\\x19Ethereum Signed Message:\\\\n\\\", bytes(Strings.toString(message.length)), message));\\n    }\\n\\n    /**\\n     * @dev Returns the keccak256 digest of an ERC-191 signed data with version\\n     * `0x00` (data with intended validator).\\n     *\\n     * The digest is calculated by prefixing an arbitrary `data` with `\\\"\\\\x19\\\\x00\\\"` and the intended\\n     * `validator` address. Then hashing the result.\\n     *\\n     * See {ECDSA-recover}.\\n     */\\n    function toDataWithIntendedValidatorHash(address validator, bytes memory data) internal pure returns (bytes32) {\\n        return keccak256(abi.encodePacked(hex\\\"19_00\\\", validator, data));\\n    }\\n\\n    /**\\n     * @dev Variant of {toDataWithIntendedValidatorHash-address-bytes} optimized for cases where `data` is a bytes32.\\n     */\\n    function toDataWithIntendedValidatorHash(\\n        address validator,\\n        bytes32 messageHash\\n    ) internal pure returns (bytes32 digest) {\\n        assembly (\\\"memory-safe\\\") {\\n            mstore(0x00, hex\\\"19_00\\\")\\n            mstore(0x02, shl(96, validator))\\n            mstore(0x16, messageHash)\\n            digest := keccak256(0x00, 0x36)\\n        }\\n    }\\n\\n    /**\\n     * @dev Returns the keccak256 digest of an EIP-712 typed data (ERC-191 version `0x01`).\\n     *\\n     * The digest is calculated from a `domainSeparator` and a `structHash`, by prefixing them with\\n     * `\\\\x19\\\\x01` and hashing the result. It corresponds to the hash signed by the\\n     * https://eips.ethereum.org/EIPS/eip-712[`eth_signTypedData`] JSON-RPC method as part of EIP-712.\\n     *\\n     * See {ECDSA-recover}.\\n     */\\n    function toTypedDataHash(bytes32 domainSeparator, bytes32 structHash) internal pure returns (bytes32 digest) {\\n        assembly (\\\"memory-safe\\\") {\\n            let ptr := mload(0x40)\\n            mstore(ptr, hex\\\"19_01\\\")\\n            mstore(add(ptr, 0x02), domainSeparator)\\n            mstore(add(ptr, 0x22), structHash)\\n            digest := keccak256(ptr, 0x42)\\n        }\\n    }\\n}\\n\"},\"@openzeppelin/contracts/utils/Context.sol\":{\"content\":\"// SPDX-License-Identifier: MIT\\n// OpenZeppelin Contracts (last updated v5.0.1) (utils/Context.sol)\\n\\npragma solidity ^0.8.20;\\n\\n/**\\n * @dev Provides information about the current execution context, including the\\n * sender of the transaction and its data. While these are generally available\\n * via msg.sender and msg.data, they should not be accessed in such a direct\\n * manner, since when dealing with meta-transactions the account sending and\\n * paying for execution may not be the actual sender (as far as an application\\n * is concerned).\\n *\\n * This contract is only required for intermediate, library-like contracts.\\n */\\nabstract contract Context {\\n    function _msgSender() internal view virtual returns (address) {\\n        return msg.sender;\\n    }\\n\\n    function _msgData() internal view virtual returns (bytes calldata) {\\n        return msg.data;\\n    }\\n\\n    function _contextSuffixLength() internal view virtual returns (uint256) {\\n        return 0;\\n    }\\n}\\n\"},\"@openzeppelin/contracts/utils/structs/Checkpoints.sol\":{\"content\":\"// SPDX-License-Identifier: MIT\\n// OpenZeppelin Contracts (last updated v5.4.0) (utils/structs/Checkpoints.sol)\\n// This file was procedurally generated from scripts/generate/templates/Checkpoints.js.\\n\\npragma solidity ^0.8.20;\\n\\nimport {Math} from \\\"../math/Math.sol\\\";\\n\\n/**\\n * @dev This library defines the `Trace*` struct, for checkpointing values as they change at different points in\\n * time, and later looking up past values by block number. See {Votes} as an example.\\n *\\n * To create a history of checkpoints define a variable type `Checkpoints.Trace*` in your contract, and store a new\\n * checkpoint for the current transaction block using the {push} function.\\n */\\nlibrary Checkpoints {\\n    /**\\n     * @dev A value was attempted to be inserted on a past checkpoint.\\n     */\\n    error CheckpointUnorderedInsertion();\\n\\n    struct Trace224 {\\n        Checkpoint224[] _checkpoints;\\n    }\\n\\n    struct Checkpoint224 {\\n        uint32 _key;\\n        uint224 _value;\\n    }\\n\\n    /**\\n     * @dev Pushes a (`key`, `value`) pair into a Trace224 so that it is stored as the checkpoint.\\n     *\\n     * Returns previous value and new value.\\n     *\\n     * IMPORTANT: Never accept `key` as a user input, since an arbitrary `type(uint32).max` key set will disable the\\n     * library.\\n     */\\n    function push(\\n        Trace224 storage self,\\n        uint32 key,\\n        uint224 value\\n    ) internal returns (uint224 oldValue, uint224 newValue) {\\n        return _insert(self._checkpoints, key, value);\\n    }\\n\\n    /**\\n     * @dev Returns the value in the first (oldest) checkpoint with key greater or equal than the search key, or zero if\\n     * there is none.\\n     */\\n    function lowerLookup(Trace224 storage self, uint32 key) internal view returns (uint224) {\\n        uint256 len = self._checkpoints.length;\\n        uint256 pos = _lowerBinaryLookup(self._checkpoints, key, 0, len);\\n        return pos == len ? 0 : _unsafeAccess(self._checkpoints, pos)._value;\\n    }\\n\\n    /**\\n     * @dev Returns the value in the last (most recent) checkpoint with key lower or equal than the search key, or zero\\n     * if there is none.\\n     */\\n    function upperLookup(Trace224 storage self, uint32 key) internal view returns (uint224) {\\n        uint256 len = self._checkpoints.length;\\n        uint256 pos = _upperBinaryLookup(self._checkpoints, key, 0, len);\\n        return pos == 0 ? 0 : _unsafeAccess(self._checkpoints, pos - 1)._value;\\n    }\\n\\n    /**\\n     * @dev Returns the value in the last (most recent) checkpoint with key lower or equal than the search key, or zero\\n     * if there is none.\\n     *\\n     * NOTE: This is a variant of {upperLookup} that is optimized to find \\\"recent\\\" checkpoint (checkpoints with high\\n     * keys).\\n     */\\n    function upperLookupRecent(Trace224 storage self, uint32 key) internal view returns (uint224) {\\n        uint256 len = self._checkpoints.length;\\n\\n        uint256 low = 0;\\n        uint256 high = len;\\n\\n        if (len > 5) {\\n            uint256 mid = len - Math.sqrt(len);\\n            if (key < _unsafeAccess(self._checkpoints, mid)._key) {\\n                high = mid;\\n            } else {\\n                low = mid + 1;\\n            }\\n        }\\n\\n        uint256 pos = _upperBinaryLookup(self._checkpoints, key, low, high);\\n\\n        return pos == 0 ? 0 : _unsafeAccess(self._checkpoints, pos - 1)._value;\\n    }\\n\\n    /**\\n     * @dev Returns the value in the most recent checkpoint, or zero if there are no checkpoints.\\n     */\\n    function latest(Trace224 storage self) internal view returns (uint224) {\\n        uint256 pos = self._checkpoints.length;\\n        return pos == 0 ? 0 : _unsafeAccess(self._checkpoints, pos - 1)._value;\\n    }\\n\\n    /**\\n     * @dev Returns whether there is a checkpoint in the structure (i.e. it is not empty), and if so the key and value\\n     * in the most recent checkpoint.\\n     */\\n    function latestCheckpoint(Trace224 storage self) internal view returns (bool exists, uint32 _key, uint224 _value) {\\n        uint256 pos = self._checkpoints.length;\\n        if (pos == 0) {\\n            return (false, 0, 0);\\n        } else {\\n            Checkpoint224 storage ckpt = _unsafeAccess(self._checkpoints, pos - 1);\\n            return (true, ckpt._key, ckpt._value);\\n        }\\n    }\\n\\n    /**\\n     * @dev Returns the number of checkpoints.\\n     */\\n    function length(Trace224 storage self) internal view returns (uint256) {\\n        return self._checkpoints.length;\\n    }\\n\\n    /**\\n     * @dev Returns checkpoint at given position.\\n     */\\n    function at(Trace224 storage self, uint32 pos) internal view returns (Checkpoint224 memory) {\\n        return self._checkpoints[pos];\\n    }\\n\\n    /**\\n     * @dev Pushes a (`key`, `value`) pair into an ordered list of checkpoints, either by inserting a new checkpoint,\\n     * or by updating the last one.\\n     */\\n    function _insert(\\n        Checkpoint224[] storage self,\\n        uint32 key,\\n        uint224 value\\n    ) private returns (uint224 oldValue, uint224 newValue) {\\n        uint256 pos = self.length;\\n\\n        if (pos > 0) {\\n            Checkpoint224 storage last = _unsafeAccess(self, pos - 1);\\n            uint32 lastKey = last._key;\\n            uint224 lastValue = last._value;\\n\\n            // Checkpoint keys must be non-decreasing.\\n            if (lastKey > key) {\\n                revert CheckpointUnorderedInsertion();\\n            }\\n\\n            // Update or push new checkpoint\\n            if (lastKey == key) {\\n                last._value = value;\\n            } else {\\n                self.push(Checkpoint224({_key: key, _value: value}));\\n            }\\n            return (lastValue, value);\\n        } else {\\n            self.push(Checkpoint224({_key: key, _value: value}));\\n            return (0, value);\\n        }\\n    }\\n\\n    /**\\n     * @dev Return the index of the first (oldest) checkpoint with key strictly bigger than the search key, or `high`\\n     * if there is none. `low` and `high` define a section where to do the search, with inclusive `low` and exclusive\\n     * `high`.\\n     *\\n     * WARNING: `high` should not be greater than the array's length.\\n     */\\n    function _upperBinaryLookup(\\n        Checkpoint224[] storage self,\\n        uint32 key,\\n        uint256 low,\\n        uint256 high\\n    ) private view returns (uint256) {\\n        while (low < high) {\\n            uint256 mid = Math.average(low, high);\\n            if (_unsafeAccess(self, mid)._key > key) {\\n                high = mid;\\n            } else {\\n                low = mid + 1;\\n            }\\n        }\\n        return high;\\n    }\\n\\n    /**\\n     * @dev Return the index of the first (oldest) checkpoint with key greater or equal than the search key, or `high`\\n     * if there is none. `low` and `high` define a section where to do the search, with inclusive `low` and exclusive\\n     * `high`.\\n     *\\n     * WARNING: `high` should not be greater than the array's length.\\n     */\\n    function _lowerBinaryLookup(\\n        Checkpoint224[] storage self,\\n        uint32 key,\\n        uint256 low,\\n        uint256 high\\n    ) private view returns (uint256) {\\n        while (low < high) {\\n            uint256 mid = Math.average(low, high);\\n            if (_unsafeAccess(self, mid)._key < key) {\\n                low = mid + 1;\\n            } else {\\n                high = mid;\\n            }\\n        }\\n        return high;\\n    }\\n\\n    /**\\n     * @dev Access an element of the array without performing bounds check. The position is assumed to be within bounds.\\n     */\\n    function _unsafeAccess(\\n        Checkpoint224[] storage self,\\n        uint256 pos\\n    ) private pure returns (Checkpoint224 storage result) {\\n        assembly {\\n            mstore(0, self.slot)\\n            result.slot := add(keccak256(0, 0x20), pos)\\n        }\\n    }\\n\\n    struct Trace208 {\\n        Checkpoint208[] _checkpoints;\\n    }\\n\\n    struct Checkpoint208 {\\n        uint48 _key;\\n        uint208 _value;\\n    }\\n\\n    /**\\n     * @dev Pushes a (`key`, `value`) pair into a Trace208 so that it is stored as the checkpoint.\\n     *\\n     * Returns previous value and new value.\\n     *\\n     * IMPORTANT: Never accept `key` as a user input, since an arbitrary `type(uint48).max` key set will disable the\\n     * library.\\n     */\\n    function push(\\n        Trace208 storage self,\\n        uint48 key,\\n        uint208 value\\n    ) internal returns (uint208 oldValue, uint208 newValue) {\\n        return _insert(self._checkpoints, key, value);\\n    }\\n\\n    /**\\n     * @dev Returns the value in the first (oldest) checkpoint with key greater or equal than the search key, or zero if\\n     * there is none.\\n     */\\n    function lowerLookup(Trace208 storage self, uint48 key) internal view returns (uint208) {\\n        uint256 len = self._checkpoints.length;\\n        uint256 pos = _lowerBinaryLookup(self._checkpoints, key, 0, len);\\n        return pos == len ? 0 : _unsafeAccess(self._checkpoints, pos)._value;\\n    }\\n\\n    /**\\n     * @dev Returns the value in the last (most recent) checkpoint with key lower or equal than the search key, or zero\\n     * if there is none.\\n     */\\n    function upperLookup(Trace208 storage self, uint48 key) internal view returns (uint208) {\\n        uint256 len = self._checkpoints.length;\\n        uint256 pos = _upperBinaryLookup(self._checkpoints, key, 0, len);\\n        return pos == 0 ? 0 : _unsafeAccess(self._checkpoints, pos - 1)._value;\\n    }\\n\\n    /**\\n     * @dev Returns the value in the last (most recent) checkpoint with key lower or equal than the search key, or zero\\n     * if there is none.\\n     *\\n     * NOTE: This is a variant of {upperLookup} that is optimized to find \\\"recent\\\" checkpoint (checkpoints with high\\n     * keys).\\n     */\\n    function upperLookupRecent(Trace208 storage self, uint48 key) internal view returns (uint208) {\\n        uint256 len = self._checkpoints.length;\\n\\n        uint256 low = 0;\\n        uint256 high = len;\\n\\n        if (len > 5) {\\n            uint256 mid = len - Math.sqrt(len);\\n            if (key < _unsafeAccess(self._checkpoints, mid)._key) {\\n                high = mid;\\n            } else {\\n                low = mid + 1;\\n            }\\n        }\\n\\n        uint256 pos = _upperBinaryLookup(self._checkpoints, key, low, high);\\n\\n        return pos == 0 ? 0 : _unsafeAccess(self._checkpoints, pos - 1)._value;\\n    }\\n\\n    /**\\n     * @dev Returns the value in the most recent checkpoint, or zero if there are no checkpoints.\\n     */\\n    function latest(Trace208 storage self) internal view returns (uint208) {\\n        uint256 pos = self._checkpoints.length;\\n        return pos == 0 ? 0 : _unsafeAccess(self._checkpoints, pos - 1)._value;\\n    }\\n\\n    /**\\n     * @dev Returns whether there is a checkpoint in the structure (i.e. it is not empty), and if so the key and value\\n     * in the most recent checkpoint.\\n     */\\n    function latestCheckpoint(Trace208 storage self) internal view returns (bool exists, uint48 _key, uint208 _value) {\\n        uint256 pos = self._checkpoints.length;\\n        if (pos == 0) {\\n            return (false, 0, 0);\\n        } else {\\n            Checkpoint208 storage ckpt = _unsafeAccess(self._checkpoints, pos - 1);\\n            return (true, ckpt._key, ckpt._value);\\n        }\\n    }\\n\\n    /**\\n     * @dev Returns the number of checkpoints.\\n     */\\n    function length(Trace208 storage self) internal view returns (uint256) {\\n        return self._checkpoints.length;\\n    }\\n\\n    /**\\n     * @dev Returns checkpoint at given position.\\n     */\\n    function at(Trace208 storage self, uint32 pos) internal view returns (Checkpoint208 memory) {\\n        return self._checkpoints[pos];\\n    }\\n\\n    /**\\n     * @dev Pushes a (`key`, `value`) pair into an ordered list of checkpoints, either by inserting a new checkpoint,\\n     * or by updating the last one.\\n     */\\n    function _insert(\\n        Checkpoint208[] storage self,\\n        uint48 key,\\n        uint208 value\\n    ) private returns (uint208 oldValue, uint208 newValue) {\\n        uint256 pos = self.length;\\n\\n        if (pos > 0) {\\n            Checkpoint208 storage last = _unsafeAccess(self, pos - 1);\\n            uint48 lastKey = last._key;\\n            uint208 lastValue = last._value;\\n\\n            // Checkpoint keys must be non-decreasing.\\n            if (lastKey > key) {\\n                revert CheckpointUnorderedInsertion();\\n            }\\n\\n            // Update or push new checkpoint\\n            if (lastKey == key) {\\n                last._value = value;\\n            } else {\\n                self.push(Checkpoint208({_key: key, _value: value}));\\n            }\\n            return (lastValue, value);\\n        } else {\\n            self.push(Checkpoint208({_key: key, _value: value}));\\n            return (0, value);\\n        }\\n    }\\n\\n    /**\\n     * @dev Return the index of the first (oldest) checkpoint with key strictly bigger than the search key, or `high`\\n     * if there is none. `low` and `high` define a section where to do the search, with inclusive `low` and exclusive\\n     * `high`.\\n     *\\n     * WARNING: `high` should not be greater than the array's length.\\n     */\\n    function _upperBinaryLookup(\\n        Checkpoint208[] storage self,\\n        uint48 key,\\n        uint256 low,\\n        uint256 high\\n    ) private view returns (uint256) {\\n        while (low < high) {\\n            uint256 mid = Math.average(low, high);\\n            if (_unsafeAccess(self, mid)._key > key) {\\n                high = mid;\\n            } else {\\n                low = mid + 1;\\n            }\\n        }\\n        return high;\\n    }\\n\\n    /**\\n     * @dev Return the index of the first (oldest) checkpoint with key greater or equal than the search key, or `high`\\n     * if there is none. `low` and `high` define a section where to do the search, with inclusive `low` and exclusive\\n     * `high`.\\n     *\\n     * WARNING: `high` should not be greater than the array's length.\\n     */\\n    function _lowerBinaryLookup(\\n        Checkpoint208[] storage self,\\n        uint48 key,\\n        uint256 low,\\n        uint256 high\\n    ) private view returns (uint256) {\\n        while (low < high) {\\n            uint256 mid = Math.average(low, high);\\n            if (_unsafeAccess(self, mid)._key < key) {\\n                low = mid + 1;\\n            } else {\\n                high = mid;\\n            }\\n        }\\n        return high;\\n    }\\n\\n    /**\\n     * @dev Access an element of the array without performing bounds check. The position is assumed to be within bounds.\\n     */\\n    function _unsafeAccess(\\n        Checkpoint208[] storage self,\\n        uint256 pos\\n    ) private pure returns (Checkpoint208 storage result) {\\n        assembly {\\n            mstore(0, self.slot)\\n            result.slot := add(keccak256(0, 0x20), pos)\\n        }\\n    }\\n\\n    struct Trace160 {\\n        Checkpoint160[] _checkpoints;\\n    }\\n\\n    struct Checkpoint160 {\\n        uint96 _key;\\n        uint160 _value;\\n    }\\n\\n    /**\\n     * @dev Pushes a (`key`, `value`) pair into a Trace160 so that it is stored as the checkpoint.\\n     *\\n     * Returns previous value and new value.\\n     *\\n     * IMPORTANT: Never accept `key` as a user input, since an arbitrary `type(uint96).max` key set will disable the\\n     * library.\\n     */\\n    function push(\\n        Trace160 storage self,\\n        uint96 key,\\n        uint160 value\\n    ) internal returns (uint160 oldValue, uint160 newValue) {\\n        return _insert(self._checkpoints, key, value);\\n    }\\n\\n    /**\\n     * @dev Returns the value in the first (oldest) checkpoint with key greater or equal than the search key, or zero if\\n     * there is none.\\n     */\\n    function lowerLookup(Trace160 storage self, uint96 key) internal view returns (uint160) {\\n        uint256 len = self._checkpoints.length;\\n        uint256 pos = _lowerBinaryLookup(self._checkpoints, key, 0, len);\\n        return pos == len ? 0 : _unsafeAccess(self._checkpoints, pos)._value;\\n    }\\n\\n    /**\\n     * @dev Returns the value in the last (most recent) checkpoint with key lower or equal than the search key, or zero\\n     * if there is none.\\n     */\\n    function upperLookup(Trace160 storage self, uint96 key) internal view returns (uint160) {\\n        uint256 len = self._checkpoints.length;\\n        uint256 pos = _upperBinaryLookup(self._checkpoints, key, 0, len);\\n        return pos == 0 ? 0 : _unsafeAccess(self._checkpoints, pos - 1)._value;\\n    }\\n\\n    /**\\n     * @dev Returns the value in the last (most recent) checkpoint with key lower or equal than the search key, or zero\\n     * if there is none.\\n     *\\n     * NOTE: This is a variant of {upperLookup} that is optimized to find \\\"recent\\\" checkpoint (checkpoints with high\\n     * keys).\\n     */\\n    function upperLookupRecent(Trace160 storage self, uint96 key) internal view returns (uint160) {\\n        uint256 len = self._checkpoints.length;\\n\\n        uint256 low = 0;\\n        uint256 high = len;\\n\\n        if (len > 5) {\\n            uint256 mid = len - Math.sqrt(len);\\n            if (key < _unsafeAccess(self._checkpoints, mid)._key) {\\n                high = mid;\\n            } else {\\n                low = mid + 1;\\n            }\\n        }\\n\\n        uint256 pos = _upperBinaryLookup(self._checkpoints, key, low, high);\\n\\n        return pos == 0 ? 0 : _unsafeAccess(self._checkpoints, pos - 1)._value;\\n    }\\n\\n    /**\\n     * @dev Returns the value in the most recent checkpoint, or zero if there are no checkpoints.\\n     */\\n    function latest(Trace160 storage self) internal view returns (uint160) {\\n        uint256 pos = self._checkpoints.length;\\n        return pos == 0 ? 0 : _unsafeAccess(self._checkpoints, pos - 1)._value;\\n    }\\n\\n    /**\\n     * @dev Returns whether there is a checkpoint in the structure (i.e. it is not empty), and if so the key and value\\n     * in the most recent checkpoint.\\n     */\\n    function latestCheckpoint(Trace160 storage self) internal view returns (bool exists, uint96 _key, uint160 _value) {\\n        uint256 pos = self._checkpoints.length;\\n        if (pos == 0) {\\n            return (false, 0, 0);\\n        } else {\\n            Checkpoint160 storage ckpt = _unsafeAccess(self._checkpoints, pos - 1);\\n            return (true, ckpt._key, ckpt._value);\\n        }\\n    }\\n\\n    /**\\n     * @dev Returns the number of checkpoints.\\n     */\\n    function length(Trace160 storage self) internal view returns (uint256) {\\n        return self._checkpoints.length;\\n    }\\n\\n    /**\\n     * @dev Returns checkpoint at given position.\\n     */\\n    function at(Trace160 storage self, uint32 pos) internal view returns (Checkpoint160 memory) {\\n        return self._checkpoints[pos];\\n    }\\n\\n    /**\\n     * @dev Pushes a (`key`, `value`) pair into an ordered list of checkpoints, either by inserting a new checkpoint,\\n     * or by updating the last one.\\n     */\\n    function _insert(\\n        Checkpoint160[] storage self,\\n        uint96 key,\\n        uint160 value\\n    ) private returns (uint160 oldValue, uint160 newValue) {\\n        uint256 pos = self.length;\\n\\n        if (pos > 0) {\\n            Checkpoint160 storage last = _unsafeAccess(self, pos - 1);\\n            uint96 lastKey = last._key;\\n            uint160 lastValue = last._value;\\n\\n            // Checkpoint keys must be non-decreasing.\\n            if (lastKey > key) {\\n                revert CheckpointUnorderedInsertion();\\n            }\\n\\n            // Update or push new checkpoint\\n            if (lastKey == key) {\\n                last._value = value;\\n            } else {\\n                self.push(Checkpoint160({_key: key, _value: value}));\\n            }\\n            return (lastValue, value);\\n        } else {\\n            self.push(Checkpoint160({_key: key, _value: value}));\\n            return (0, value);\\n        }\\n    }\\n\\n    /**\\n     * @dev Return the index of the first (oldest) checkpoint with key strictly bigger than the search key, or `high`\\n     * if there is none. `low` and `high` define a section where to do the search, with inclusive `low` and exclusive\\n     * `high`.\\n     *\\n     * WARNING: `high` should not be greater than the array's length.\\n     */\\n    function _upperBinaryLookup(\\n        Checkpoint160[] storage self,\\n        uint96 key,\\n        uint256 low,\\n        uint256 high\\n    ) private view returns (uint256) {\\n        while (low < high) {\\n            uint256 mid = Math.average(low, high);\\n            if (_unsafeAccess(self, mid)._key > key) {\\n                high = mid;\\n            } else {\\n                low = mid + 1;\\n            }\\n        }\\n        return high;\\n    }\\n\\n    /**\\n     * @dev Return the index of the first (oldest) checkpoint with key greater or equal than the search key, or `high`\\n     * if there is none. `low` and `high` define a section where to do the search, with inclusive `low` and exclusive\\n     * `high`.\\n     *\\n     * WARNING: `high` should not be greater than the array's length.\\n     */\\n    function _lowerBinaryLookup(\\n        Checkpoint160[] storage self,\\n        uint96 key,\\n        uint256 low,\\n        uint256 high\\n    ) private view returns (uint256) {\\n        while (low < high) {\\n            uint256 mid = Math.average(low, high);\\n            if (_unsafeAccess(self, mid)._key < key) {\\n                low = mid + 1;\\n            } else {\\n                high = mid;\\n            }\\n        }\\n        return high;\\n    }\\n\\n    /**\\n     * @dev Access an element of the array without performing bounds check. The position is assumed to be within bounds.\\n     */\\n    function _unsafeAccess(\\n        Checkpoint160[] storage self,\\n        uint256 pos\\n    ) private pure returns (Checkpoint160 storage result) {\\n        assembly {\\n            mstore(0, self.slot)\\n            result.slot := add(keccak256(0, 0x20), pos)\\n        }\\n    }\\n}\\n\"},\"@openzeppelin/contracts/governance/utils/Votes.sol\":{\"content\":\"// SPDX-License-Identifier: MIT\\n// OpenZeppelin Contracts (last updated v5.2.0) (governance/utils/Votes.sol)\\npragma solidity ^0.8.20;\\n\\nimport {IERC5805} from \\\"../../interfaces/IERC5805.sol\\\";\\nimport {Context} from \\\"../../utils/Context.sol\\\";\\nimport {Nonces} from \\\"../../utils/Nonces.sol\\\";\\nimport {EIP712} from \\\"../../utils/cryptography/EIP712.sol\\\";\\nimport {Checkpoints} from \\\"../../utils/structs/Checkpoints.sol\\\";\\nimport {SafeCast} from \\\"../../utils/math/SafeCast.sol\\\";\\nimport {ECDSA} from \\\"../../utils/cryptography/ECDSA.sol\\\";\\nimport {Time} from \\\"../../utils/types/Time.sol\\\";\\n\\n/**\\n * @dev This is a base abstract contract that tracks voting units, which are a measure of voting power that can be\\n * transferred, and provides a system of vote delegation, where an account can delegate its voting units to a sort of\\n * \\\"representative\\\" that will pool delegated voting units from different accounts and can then use it to vote in\\n * decisions. In fact, voting units _must_ be delegated in order to count as actual votes, and an account has to\\n * delegate those votes to itself if it wishes to participate in decisions and does not have a trusted representative.\\n *\\n * This contract is often combined with a token contract such that voting units correspond to token units. For an\\n * example, see {ERC721Votes}.\\n *\\n * The full history of delegate votes is tracked on-chain so that governance protocols can consider votes as distributed\\n * at a particular block number to protect against flash loans and double voting. The opt-in delegate system makes the\\n * cost of this history tracking optional.\\n *\\n * When using this module the derived contract must implement {_getVotingUnits} (for example, make it return\\n * {ERC721-balanceOf}), and can use {_transferVotingUnits} to track a change in the distribution of those units (in the\\n * previous example, it would be included in {ERC721-_update}).\\n */\\nabstract contract Votes is Context, EIP712, Nonces, IERC5805 {\\n    using Checkpoints for Checkpoints.Trace208;\\n\\n    bytes32 private constant DELEGATION_TYPEHASH =\\n        keccak256(\\\"Delegation(address delegatee,uint256 nonce,uint256 expiry)\\\");\\n\\n    mapping(address account => address) private _delegatee;\\n\\n    mapping(address delegatee => Checkpoints.Trace208) private _delegateCheckpoints;\\n\\n    Checkpoints.Trace208 private _totalCheckpoints;\\n\\n    /**\\n     * @dev The clock was incorrectly modified.\\n     */\\n    error ERC6372InconsistentClock();\\n\\n    /**\\n     * @dev Lookup to future votes is not available.\\n     */\\n    error ERC5805FutureLookup(uint256 timepoint, uint48 clock);\\n\\n    /**\\n     * @dev Clock used for flagging checkpoints. Can be overridden to implement timestamp based\\n     * checkpoints (and voting), in which case {CLOCK_MODE} should be overridden as well to match.\\n     */\\n    function clock() public view virtual returns (uint48) {\\n        return Time.blockNumber();\\n    }\\n\\n    /**\\n     * @dev Machine-readable description of the clock as specified in ERC-6372.\\n     */\\n    // solhint-disable-next-line func-name-mixedcase\\n    function CLOCK_MODE() public view virtual returns (string memory) {\\n        // Check that the clock was not modified\\n        if (clock() != Time.blockNumber()) {\\n            revert ERC6372InconsistentClock();\\n        }\\n        return \\\"mode=blocknumber&from=default\\\";\\n    }\\n\\n    /**\\n     * @dev Validate that a timepoint is in the past, and return it as a uint48.\\n     */\\n    function _validateTimepoint(uint256 timepoint) internal view returns (uint48) {\\n        uint48 currentTimepoint = clock();\\n        if (timepoint >= currentTimepoint) revert ERC5805FutureLookup(timepoint, currentTimepoint);\\n        return SafeCast.toUint48(timepoint);\\n    }\\n\\n    /**\\n     * @dev Returns the current amount of votes that `account` has.\\n     */\\n    function getVotes(address account) public view virtual returns (uint256) {\\n        return _delegateCheckpoints[account].latest();\\n    }\\n\\n    /**\\n     * @dev Returns the amount of votes that `account` had at a specific moment in the past. If the `clock()` is\\n     * configured to use block numbers, this will return the value at the end of the corresponding block.\\n     *\\n     * Requirements:\\n     *\\n     * - `timepoint` must be in the past. If operating using block numbers, the block must be already mined.\\n     */\\n    function getPastVotes(address account, uint256 timepoint) public view virtual returns (uint256) {\\n        return _delegateCheckpoints[account].upperLookupRecent(_validateTimepoint(timepoint));\\n    }\\n\\n    /**\\n     * @dev Returns the total supply of votes available at a specific moment in the past. If the `clock()` is\\n     * configured to use block numbers, this will return the value at the end of the corresponding block.\\n     *\\n     * NOTE: This value is the sum of all available votes, which is not necessarily the sum of all delegated votes.\\n     * Votes that have not been delegated are still part of total supply, even though they would not participate in a\\n     * vote.\\n     *\\n     * Requirements:\\n     *\\n     * - `timepoint` must be in the past. If operating using block numbers, the block must be already mined.\\n     */\\n    function getPastTotalSupply(uint256 timepoint) public view virtual returns (uint256) {\\n        return _totalCheckpoints.upperLookupRecent(_validateTimepoint(timepoint));\\n    }\\n\\n    /**\\n     * @dev Returns the current total supply of votes.\\n     */\\n    function _getTotalSupply() internal view virtual returns (uint256) {\\n        return _totalCheckpoints.latest();\\n    }\\n\\n    /**\\n     * @dev Returns the delegate that `account` has chosen.\\n     */\\n    function delegates(address account) public view virtual returns (address) {\\n        return _delegatee[account];\\n    }\\n\\n    /**\\n     * @dev Delegates votes from the sender to `delegatee`.\\n     */\\n    function delegate(address delegatee) public virtual {\\n        address account = _msgSender();\\n        _delegate(account, delegatee);\\n    }\\n\\n    /**\\n     * @dev Delegates votes from signer to `delegatee`.\\n     */\\n    function delegateBySig(\\n        address delegatee,\\n        uint256 nonce,\\n        uint256 expiry,\\n        uint8 v,\\n        bytes32 r,\\n        bytes32 s\\n    ) public virtual {\\n        if (block.timestamp > expiry) {\\n            revert VotesExpiredSignature(expiry);\\n        }\\n        address signer = ECDSA.recover(\\n            _hashTypedDataV4(keccak256(abi.encode(DELEGATION_TYPEHASH, delegatee, nonce, expiry))),\\n            v,\\n            r,\\n            s\\n        );\\n        _useCheckedNonce(signer, nonce);\\n        _delegate(signer, delegatee);\\n    }\\n\\n    /**\\n     * @dev Delegate all of `account`'s voting units to `delegatee`.\\n     *\\n     * Emits events {IVotes-DelegateChanged} and {IVotes-DelegateVotesChanged}.\\n     */\\n    function _delegate(address account, address delegatee) internal virtual {\\n        address oldDelegate = delegates(account);\\n        _delegatee[account] = delegatee;\\n\\n        emit DelegateChanged(account, oldDelegate, delegatee);\\n        _moveDelegateVotes(oldDelegate, delegatee, _getVotingUnits(account));\\n    }\\n\\n    /**\\n     * @dev Transfers, mints, or burns voting units. To register a mint, `from` should be zero. To register a burn, `to`\\n     * should be zero. Total supply of voting units will be adjusted with mints and burns.\\n     */\\n    function _transferVotingUnits(address from, address to, uint256 amount) internal virtual {\\n        if (from == address(0)) {\\n            _push(_totalCheckpoints, _add, SafeCast.toUint208(amount));\\n        }\\n        if (to == address(0)) {\\n            _push(_totalCheckpoints, _subtract, SafeCast.toUint208(amount));\\n        }\\n        _moveDelegateVotes(delegates(from), delegates(to), amount);\\n    }\\n\\n    /**\\n     * @dev Moves delegated votes from one delegate to another.\\n     */\\n    function _moveDelegateVotes(address from, address to, uint256 amount) internal virtual {\\n        if (from != to && amount > 0) {\\n            if (from != address(0)) {\\n                (uint256 oldValue, uint256 newValue) = _push(\\n                    _delegateCheckpoints[from],\\n                    _subtract,\\n                    SafeCast.toUint208(amount)\\n                );\\n                emit DelegateVotesChanged(from, oldValue, newValue);\\n            }\\n            if (to != address(0)) {\\n                (uint256 oldValue, uint256 newValue) = _push(\\n                    _delegateCheckpoints[to],\\n                    _add,\\n                    SafeCast.toUint208(amount)\\n                );\\n                emit DelegateVotesChanged(to, oldValue, newValue);\\n            }\\n        }\\n    }\\n\\n    /**\\n     * @dev Get number of checkpoints for `account`.\\n     */\\n    function _numCheckpoints(address account) internal view virtual returns (uint32) {\\n        return SafeCast.toUint32(_delegateCheckpoints[account].length());\\n    }\\n\\n    /**\\n     * @dev Get the `pos`-th checkpoint for `account`.\\n     */\\n    function _checkpoints(\\n        address account,\\n        uint32 pos\\n    ) internal view virtual returns (Checkpoints.Checkpoint208 memory) {\\n        return _delegateCheckpoints[account].at(pos);\\n    }\\n\\n    function _push(\\n        Checkpoints.Trace208 storage store,\\n        function(uint208, uint208) view returns (uint208) op,\\n        uint208 delta\\n    ) private returns (uint208 oldValue, uint208 newValue) {\\n        return store.push(clock(), op(store.latest(), delta));\\n    }\\n\\n    function _add(uint208 a, uint208 b) private pure returns (uint208) {\\n        return a + b;\\n    }\\n\\n    function _subtract(uint208 a, uint208 b) private pure returns (uint208) {\\n        return a - b;\\n    }\\n\\n    /**\\n     * @dev Must return the voting units held by an account.\\n     */\\n    function _getVotingUnits(address) internal view virtual returns (uint256);\\n}\\n\"},\"@openzeppelin/contracts/utils/cryptography/ECDSA.sol\":{\"content\":\"// SPDX-License-Identifier: MIT\\n// OpenZeppelin Contracts (last updated v5.1.0) (utils/cryptography/ECDSA.sol)\\n\\npragma solidity ^0.8.20;\\n\\n/**\\n * @dev Elliptic Curve Digital Signature Algorithm (ECDSA) operations.\\n *\\n * These functions can be used to verify that a message was signed by the holder\\n * of the private keys of a given address.\\n */\\nlibrary ECDSA {\\n    enum RecoverError {\\n        NoError,\\n        InvalidSignature,\\n        InvalidSignatureLength,\\n        InvalidSignatureS\\n    }\\n\\n    /**\\n     * @dev The signature derives the `address(0)`.\\n     */\\n    error ECDSAInvalidSignature();\\n\\n    /**\\n     * @dev The signature has an invalid length.\\n     */\\n    error ECDSAInvalidSignatureLength(uint256 length);\\n\\n    /**\\n     * @dev The signature has an S value that is in the upper half order.\\n     */\\n    error ECDSAInvalidSignatureS(bytes32 s);\\n\\n    /**\\n     * @dev Returns the address that signed a hashed message (`hash`) with `signature` or an error. This will not\\n     * return address(0) without also returning an error description. Errors are documented using an enum (error type)\\n     * and a bytes32 providing additional information about the error.\\n     *\\n     * If no error is returned, then the address can be used for verification purposes.\\n     *\\n     * The `ecrecover` EVM precompile allows for malleable (non-unique) signatures:\\n     * this function rejects them by requiring the `s` value to be in the lower\\n     * half order, and the `v` value to be either 27 or 28.\\n     *\\n     * IMPORTANT: `hash` _must_ be the result of a hash operation for the\\n     * verification to be secure: it is possible to craft signatures that\\n     * recover to arbitrary addresses for non-hashed data. A safe way to ensure\\n     * this is by receiving a hash of the original message (which may otherwise\\n     * be too long), and then calling {MessageHashUtils-toEthSignedMessageHash} on it.\\n     *\\n     * Documentation for signature generation:\\n     * - with https://web3js.readthedocs.io/en/v1.3.4/web3-eth-accounts.html#sign[Web3.js]\\n     * - with https://docs.ethers.io/v5/api/signer/#Signer-signMessage[ethers]\\n     */\\n    function tryRecover(\\n        bytes32 hash,\\n        bytes memory signature\\n    ) internal pure returns (address recovered, RecoverError err, bytes32 errArg) {\\n        if (signature.length == 65) {\\n            bytes32 r;\\n            bytes32 s;\\n            uint8 v;\\n            // ecrecover takes the signature parameters, and the only way to get them\\n            // currently is to use assembly.\\n            assembly (\\\"memory-safe\\\") {\\n                r := mload(add(signature, 0x20))\\n                s := mload(add(signature, 0x40))\\n                v := byte(0, mload(add(signature, 0x60)))\\n            }\\n            return tryRecover(hash, v, r, s);\\n        } else {\\n            return (address(0), RecoverError.InvalidSignatureLength, bytes32(signature.length));\\n        }\\n    }\\n\\n    /**\\n     * @dev Returns the address that signed a hashed message (`hash`) with\\n     * `signature`. This address can then be used for verification purposes.\\n     *\\n     * The `ecrecover` EVM precompile allows for malleable (non-unique) signatures:\\n     * this function rejects them by requiring the `s` value to be in the lower\\n     * half order, and the `v` value to be either 27 or 28.\\n     *\\n     * IMPORTANT: `hash` _must_ be the result of a hash operation for the\\n     * verification to be secure: it is possible to craft signatures that\\n     * recover to arbitrary addresses for non-hashed data. A safe way to ensure\\n     * this is by receiving a hash of the original message (which may otherwise\\n     * be too long), and then calling {MessageHashUtils-toEthSignedMessageHash} on it.\\n     */\\n    function recover(bytes32 hash, bytes memory signature) internal pure returns (address) {\\n        (address recovered, RecoverError error, bytes32 errorArg) = tryRecover(hash, signature);\\n        _throwError(error, errorArg);\\n        return recovered;\\n    }\\n\\n    /**\\n     * @dev Overload of {ECDSA-tryRecover} that receives the `r` and `vs` short-signature fields separately.\\n     *\\n     * See https://eips.ethereum.org/EIPS/eip-2098[ERC-2098 short signatures]\\n     */\\n    function tryRecover(\\n        bytes32 hash,\\n        bytes32 r,\\n        bytes32 vs\\n    ) internal pure returns (address recovered, RecoverError err, bytes32 errArg) {\\n        unchecked {\\n            bytes32 s = vs & bytes32(0x7fffffffffffffffffffffffffffffffffffffffffffffffffffffffffffffff);\\n            // We do not check for an overflow here since the shift operation results in 0 or 1.\\n            uint8 v = uint8((uint256(vs) >> 255) + 27);\\n            return tryRecover(hash, v, r, s);\\n        }\\n    }\\n\\n    /**\\n     * @dev Overload of {ECDSA-recover} that receives the `r and `vs` short-signature fields separately.\\n     */\\n    function recover(bytes32 hash, bytes32 r, bytes32 vs) internal pure returns (address) {\\n        (address recovered, RecoverError error, bytes32 errorArg) = tryRecover(hash, r, vs);\\n        _throwError(error, errorArg);\\n        return recovered;\\n    }\\n\\n    /**\\n     * @dev Overload of {ECDSA-tryRecover} that receives the `v`,\\n     * `r` and `s` signature fields separately.\\n     */\\n    function tryRecover(\\n        bytes32 hash,\\n        uint8 v,\\n        bytes32 r,\\n        bytes32 s\\n    ) internal pure returns (address recovered, RecoverError err, bytes32 errArg) {\\n        // EIP-2 still allows signature malleability for ecrecover(). Remove this possibility and make the signature\\n        // unique. Appendix F in the Ethereum Yellow paper (https://ethereum.github.io/yellowpaper/paper.pdf), defines\\n        // the valid range for s in (301): 0 < s < secp256k1n  2 + 1, and for v in (302): v  {27, 28}. Most\\n        // signatures from current libraries generate a unique signature with an s-value in the lower half order.\\n        //\\n        // If your library generates malleable signatures, such as s-values in the upper range, calculate a new s-value\\n        // with 0xFFFFFFFFFFFFFFFFFFFFFFFFFFFFFFFEBAAEDCE6AF48A03BBFD25E8CD0364141 - s1 and flip v from 27 to 28 or\\n        // vice versa. If your library also generates signatures with 0/1 for v instead 27/28, add 27 to v to accept\\n        // these malleable signatures as well.\\n        if (uint256(s) > 0x7FFFFFFFFFFFFFFFFFFFFFFFFFFFFFFF5D576E7357A4501DDFE92F46681B20A0) {\\n            return (address(0), RecoverError.InvalidSignatureS, s);\\n        }\\n\\n        // If the signature is valid (and not malleable), return the signer address\\n        address signer = ecrecover(hash, v, r, s);\\n        if (signer == address(0)) {\\n            return (address(0), RecoverError.InvalidSignature, bytes32(0));\\n        }\\n\\n        return (signer, RecoverError.NoError, bytes32(0));\\n    }\\n\\n    /**\\n     * @dev Overload of {ECDSA-recover} that receives the `v`,\\n     * `r` and `s` signature fields separately.\\n     */\\n    function recover(bytes32 hash, uint8 v, bytes32 r, bytes32 s) internal pure returns (address) {\\n        (address recovered, RecoverError error, bytes32 errorArg) = tryRecover(hash, v, r, s);\\n        _throwError(error, errorArg);\\n        return recovered;\\n    }\\n\\n    /**\\n     * @dev Optionally reverts with the corresponding custom error according to the `error` argument provided.\\n     */\\n    function _throwError(RecoverError error, bytes32 errorArg) private pure {\\n        if (error == RecoverError.NoError) {\\n            return; // no error: do nothing\\n        } else if (error == RecoverError.InvalidSignature) {\\n            revert ECDSAInvalidSignature();\\n        } else if (error == RecoverError.InvalidSignatureLength) {\\n            revert ECDSAInvalidSignatureLength(uint256(errorArg));\\n        } else if (error == RecoverError.InvalidSignatureS) {\\n            revert ECDSAInvalidSignatureS(errorArg);\\n        }\\n    }\\n}\\n\"},\"@openzeppelin/contracts/token/ERC20/extensions/IERC20Permit.sol\":{\"content\":\"// SPDX-License-Identifier: MIT\\n// OpenZeppelin Contracts (last updated v5.4.0) (token/ERC20/extensions/IERC20Permit.sol)\\n\\npragma solidity >=0.4.16;\\n\\n/**\\n * @dev Interface of the ERC-20 Permit extension allowing approvals to be made via signatures, as defined in\\n * https://eips.ethereum.org/EIPS/eip-2612[ERC-2612].\\n *\\n * Adds the {permit} method, which can be used to change an account's ERC-20 allowance (see {IERC20-allowance}) by\\n * presenting a message signed by the account. By not relying on {IERC20-approve}, the token holder account doesn't\\n * need to send a transaction, and thus is not required to hold Ether at all.\\n *\\n * ==== Security Considerations\\n *\\n * There are two important considerations concerning the use of `permit`. The first is that a valid permit signature\\n * expresses an allowance, and it should not be assumed to convey additional meaning. In particular, it should not be\\n * considered as an intention to spend the allowance in any specific way. The second is that because permits have\\n * built-in replay protection and can be submitted by anyone, they can be frontrun. A protocol that uses permits should\\n * take this into consideration and allow a `permit` call to fail. Combining these two aspects, a pattern that may be\\n * generally recommended is:\\n *\\n * ```solidity\\n * function doThingWithPermit(..., uint256 value, uint256 deadline, uint8 v, bytes32 r, bytes32 s) public {\\n *     try token.permit(msg.sender, address(this), value, deadline, v, r, s) {} catch {}\\n *     doThing(..., value);\\n * }\\n *\\n * function doThing(..., uint256 value) public {\\n *     token.safeTransferFrom(msg.sender, address(this), value);\\n *     ...\\n * }\\n * ```\\n *\\n * Observe that: 1) `msg.sender` is used as the owner, leaving no ambiguity as to the signer intent, and 2) the use of\\n * `try/catch` allows the permit to fail and makes the code tolerant to frontrunning. (See also\\n * {SafeERC20-safeTransferFrom}).\\n *\\n * Additionally, note that smart contract wallets (such as Argent or Safe) are not able to produce permit signatures, so\\n * contracts should have entry points that don't rely on permit.\\n */\\ninterface IERC20Permit {\\n    /**\\n     * @dev Sets `value` as the allowance of `spender` over ``owner``'s tokens,\\n     * given ``owner``'s signed approval.\\n     *\\n     * IMPORTANT: The same issues {IERC20-approve} has related to transaction\\n     * ordering also apply here.\\n     *\\n     * Emits an {Approval} event.\\n     *\\n     * Requirements:\\n     *\\n     * - `spender` cannot be the zero address.\\n     * - `deadline` must be a timestamp in the future.\\n     * - `v`, `r` and `s` must be a valid `secp256k1` signature from `owner`\\n     * over the EIP712-formatted function arguments.\\n     * - the signature must use ``owner``'s current nonce (see {nonces}).\\n     *\\n     * For more information on the signature format, see the\\n     * https://eips.ethereum.org/EIPS/eip-2612#specification[relevant EIP\\n     * section].\\n     *\\n     * CAUTION: See Security Considerations above.\\n     */\\n    function permit(\\n        address owner,\\n        address spender,\\n        uint256 value,\\n        uint256 deadline,\\n        uint8 v,\\n        bytes32 r,\\n        bytes32 s\\n    ) external;\\n\\n    /**\\n     * @dev Returns the current nonce for `owner`. This value must be\\n     * included whenever a signature is generated for {permit}.\\n     *\\n     * Every successful call to {permit} increases ``owner``'s nonce by one. This\\n     * prevents a signature from being used multiple times.\\n     */\\n    function nonces(address owner) external view returns (uint256);\\n\\n    /**\\n     * @dev Returns the domain separator used in the encoding of the signature for {permit}, as defined by {EIP712}.\\n     */\\n    // solhint-disable-next-line func-name-mixedcase\\n    function DOMAIN_SEPARATOR() external view returns (bytes32);\\n}\\n\"},\"@openzeppelin/contracts/interfaces/draft-IERC6093.sol\":{\"content\":\"// SPDX-License-Identifier: MIT\\n// OpenZeppelin Contracts (last updated v5.4.0) (interfaces/draft-IERC6093.sol)\\npragma solidity >=0.8.4;\\n\\n/**\\n * @dev Standard ERC-20 Errors\\n * Interface of the https://eips.ethereum.org/EIPS/eip-6093[ERC-6093] custom errors for ERC-20 tokens.\\n */\\ninterface IERC20Errors {\\n    /**\\n     * @dev Indicates an error related to the current `balance` of a `sender`. Used in transfers.\\n     * @param sender Address whose tokens are being transferred.\\n     * @param balance Current balance for the interacting account.\\n     * @param needed Minimum amount required to perform a transfer.\\n     */\\n    error ERC20InsufficientBalance(address sender, uint256 balance, uint256 needed);\\n\\n    /**\\n     * @dev Indicates a failure with the token `sender`. Used in transfers.\\n     * @param sender Address whose tokens are being transferred.\\n     */\\n    error ERC20InvalidSender(address sender);\\n\\n    /**\\n     * @dev Indicates a failure with the token `receiver`. Used in transfers.\\n     * @param receiver Address to which tokens are being transferred.\\n     */\\n    error ERC20InvalidReceiver(address receiver);\\n\\n    /**\\n     * @dev Indicates a failure with the `spender`s `allowance`. Used in transfers.\\n     * @param spender Address that may be allowed to operate on tokens without being their owner.\\n     * @param allowance Amount of tokens a `spender` is allowed to operate with.\\n     * @param needed Minimum amount required to perform a transfer.\\n     */\\n    error ERC20InsufficientAllowance(address spender, uint256 allowance, uint256 needed);\\n\\n    /**\\n     * @dev Indicates a failure with the `approver` of a token to be approved. Used in approvals.\\n     * @param approver Address initiating an approval operation.\\n     */\\n    error ERC20InvalidApprover(address approver);\\n\\n    /**\\n     * @dev Indicates a failure with the `spender` to be approved. Used in approvals.\\n     * @param spender Address that may be allowed to operate on tokens without being their owner.\\n     */\\n    error ERC20InvalidSpender(address spender);\\n}\\n\\n/**\\n * @dev Standard ERC-721 Errors\\n * Interface of the https://eips.ethereum.org/EIPS/eip-6093[ERC-6093] custom errors for ERC-721 tokens.\\n */\\ninterface IERC721Errors {\\n    /**\\n     * @dev Indicates that an address can't be an owner. For example, `address(0)` is a forbidden owner in ERC-20.\\n     * Used in balance queries.\\n     * @param owner Address of the current owner of a token.\\n     */\\n    error ERC721InvalidOwner(address owner);\\n\\n    /**\\n     * @dev Indicates a `tokenId` whose `owner` is the zero address.\\n     * @param tokenId Identifier number of a token.\\n     */\\n    error ERC721NonexistentToken(uint256 tokenId);\\n\\n    /**\\n     * @dev Indicates an error related to the ownership over a particular token. Used in transfers.\\n     * @param sender Address whose tokens are being transferred.\\n     * @param tokenId Identifier number of a token.\\n     * @param owner Address of the current owner of a token.\\n     */\\n    error ERC721IncorrectOwner(address sender, uint256 tokenId, address owner);\\n\\n    /**\\n     * @dev Indicates a failure with the token `sender`. Used in transfers.\\n     * @param sender Address whose tokens are being transferred.\\n     */\\n    error ERC721InvalidSender(address sender);\\n\\n    /**\\n     * @dev Indicates a failure with the token `receiver`. Used in transfers.\\n     * @param receiver Address to which tokens are being transferred.\\n     */\\n    error ERC721InvalidReceiver(address receiver);\\n\\n    /**\\n     * @dev Indicates a failure with the `operator`s approval. Used in transfers.\\n     * @param operator Address that may be allowed to operate on tokens without being their owner.\\n     * @param tokenId Identifier number of a token.\\n     */\\n    error ERC721InsufficientApproval(address operator, uint256 tokenId);\\n\\n    /**\\n     * @dev Indicates a failure with the `approver` of a token to be approved. Used in approvals.\\n     * @param approver Address initiating an approval operation.\\n     */\\n    error ERC721InvalidApprover(address approver);\\n\\n    /**\\n     * @dev Indicates a failure with the `operator` to be approved. Used in approvals.\\n     * @param operator Address that may be allowed to operate on tokens without being their owner.\\n     */\\n    error ERC721InvalidOperator(address operator);\\n}\\n\\n/**\\n * @dev Standard ERC-1155 Errors\\n * Interface of the https://eips.ethereum.org/EIPS/eip-6093[ERC-6093] custom errors for ERC-1155 tokens.\\n */\\ninterface IERC1155Errors {\\n    /**\\n     * @dev Indicates an error related to the current `balance` of a `sender`. Used in transfers.\\n     * @param sender Address whose tokens are being transferred.\\n     * @param balance Current balance for the interacting account.\\n     * @param needed Minimum amount required to perform a transfer.\\n     * @param tokenId Identifier number of a token.\\n     */\\n    error ERC1155InsufficientBalance(address sender, uint256 balance, uint256 needed, uint256 tokenId);\\n\\n    /**\\n     * @dev Indicates a failure with the token `sender`. Used in transfers.\\n     * @param sender Address whose tokens are being transferred.\\n     */\\n    error ERC1155InvalidSender(address sender);\\n\\n    /**\\n     * @dev Indicates a failure with the token `receiver`. Used in transfers.\\n     * @param receiver Address to which tokens are being transferred.\\n     */\\n    error ERC1155InvalidReceiver(address receiver);\\n\\n    /**\\n     * @dev Indicates a failure with the `operator`s approval. Used in transfers.\\n     * @param operator Address that may be allowed to operate on tokens without being their owner.\\n     * @param owner Address of the current owner of a token.\\n     */\\n    error ERC1155MissingApprovalForAll(address operator, address owner);\\n\\n    /**\\n     * @dev Indicates a failure with the `approver` of a token to be approved. Used in approvals.\\n     * @param approver Address initiating an approval operation.\\n     */\\n    error ERC1155InvalidApprover(address approver);\\n\\n    /**\\n     * @dev Indicates a failure with the `operator` to be approved. Used in approvals.\\n     * @param operator Address that may be allowed to operate on tokens without being their owner.\\n     */\\n    error ERC1155InvalidOperator(address operator);\\n\\n    /**\\n     * @dev Indicates an array length mismatch between ids and values in a safeBatchTransferFrom operation.\\n     * Used in batch transfers.\\n     * @param idsLength Length of the array of token identifiers\\n     * @param valuesLength Length of the array of token amounts\\n     */\\n    error ERC1155InvalidArrayLength(uint256 idsLength, uint256 valuesLength);\\n}\\n\"},\"@openzeppelin/contracts/token/ERC20/extensions/IERC20Metadata.sol\":{\"content\":\"// SPDX-License-Identifier: MIT\\n// OpenZeppelin Contracts (last updated v5.4.0) (token/ERC20/extensions/IERC20Metadata.sol)\\n\\npragma solidity >=0.6.2;\\n\\nimport {IERC20} from \\\"../IERC20.sol\\\";\\n\\n/**\\n * @dev Interface for the optional metadata functions from the ERC-20 standard.\\n */\\ninterface IERC20Metadata is IERC20 {\\n    /**\\n     * @dev Returns the name of the token.\\n     */\\n    function name() external view returns (string memory);\\n\\n    /**\\n     * @dev Returns the symbol of the token.\\n     */\\n    function symbol() external view returns (string memory);\\n\\n    /**\\n     * @dev Returns the decimals places of the token.\\n     */\\n    function decimals() external view returns (uint8);\\n}\\n\"},\"@openzeppelin/contracts/utils/math/Math.sol\":{\"content\":\"// SPDX-License-Identifier: MIT\\n// OpenZeppelin Contracts (last updated v5.3.0) (utils/math/Math.sol)\\n\\npragma solidity ^0.8.20;\\n\\nimport {Panic} from \\\"../Panic.sol\\\";\\nimport {SafeCast} from \\\"./SafeCast.sol\\\";\\n\\n/**\\n * @dev Standard math utilities missing in the Solidity language.\\n */\\nlibrary Math {\\n    enum Rounding {\\n        Floor, // Toward negative infinity\\n        Ceil, // Toward positive infinity\\n        Trunc, // Toward zero\\n        Expand // Away from zero\\n    }\\n\\n    /**\\n     * @dev Return the 512-bit addition of two uint256.\\n     *\\n     * The result is stored in two 256 variables such that sum = high * 2 + low.\\n     */\\n    function add512(uint256 a, uint256 b) internal pure returns (uint256 high, uint256 low) {\\n        assembly (\\\"memory-safe\\\") {\\n            low := add(a, b)\\n            high := lt(low, a)\\n        }\\n    }\\n\\n    /**\\n     * @dev Return the 512-bit multiplication of two uint256.\\n     *\\n     * The result is stored in two 256 variables such that product = high * 2 + low.\\n     */\\n    function mul512(uint256 a, uint256 b) internal pure returns (uint256 high, uint256 low) {\\n        // 512-bit multiply [high low] = x * y. Compute the product mod 2 and mod 2 - 1, then use\\n        // the Chinese Remainder Theorem to reconstruct the 512 bit result. The result is stored in two 256\\n        // variables such that product = high * 2 + low.\\n        assembly (\\\"memory-safe\\\") {\\n            let mm := mulmod(a, b, not(0))\\n            low := mul(a, b)\\n            high := sub(sub(mm, low), lt(mm, low))\\n        }\\n    }\\n\\n    /**\\n     * @dev Returns the addition of two unsigned integers, with a success flag (no overflow).\\n     */\\n    function tryAdd(uint256 a, uint256 b) internal pure returns (bool success, uint256 result) {\\n        unchecked {\\n            uint256 c = a + b;\\n            success = c >= a;\\n            result = c * SafeCast.toUint(success);\\n        }\\n    }\\n\\n    /**\\n     * @dev Returns the subtraction of two unsigned integers, with a success flag (no overflow).\\n     */\\n    function trySub(uint256 a, uint256 b) internal pure returns (bool success, uint256 result) {\\n        unchecked {\\n            uint256 c = a - b;\\n            success = c <= a;\\n            result = c * SafeCast.toUint(success);\\n        }\\n    }\\n\\n    /**\\n     * @dev Returns the multiplication of two unsigned integers, with a success flag (no overflow).\\n     */\\n    function tryMul(uint256 a, uint256 b) internal pure returns (bool success, uint256 result) {\\n        unchecked {\\n            uint256 c = a * b;\\n            assembly (\\\"memory-safe\\\") {\\n                // Only true when the multiplication doesn't overflow\\n                // (c / a == b) || (a == 0)\\n                success := or(eq(div(c, a), b), iszero(a))\\n            }\\n            // equivalent to: success ? c : 0\\n            result = c * SafeCast.toUint(success);\\n        }\\n    }\\n\\n    /**\\n     * @dev Returns the division of two unsigned integers, with a success flag (no division by zero).\\n     */\\n    function tryDiv(uint256 a, uint256 b) internal pure returns (bool success, uint256 result) {\\n        unchecked {\\n            success = b > 0;\\n            assembly (\\\"memory-safe\\\") {\\n                // The `DIV` opcode returns zero when the denominator is 0.\\n                result := div(a, b)\\n            }\\n        }\\n    }\\n\\n    /**\\n     * @dev Returns the remainder of dividing two unsigned integers, with a success flag (no division by zero).\\n     */\\n    function tryMod(uint256 a, uint256 b) internal pure returns (bool success, uint256 result) {\\n        unchecked {\\n            success = b > 0;\\n            assembly (\\\"memory-safe\\\") {\\n                // The `MOD` opcode returns zero when the denominator is 0.\\n                result := mod(a, b)\\n            }\\n        }\\n    }\\n\\n    /**\\n     * @dev Unsigned saturating addition, bounds to `2 - 1` instead of overflowing.\\n     */\\n    function saturatingAdd(uint256 a, uint256 b) internal pure returns (uint256) {\\n        (bool success, uint256 result) = tryAdd(a, b);\\n        return ternary(success, result, type(uint256).max);\\n    }\\n\\n    /**\\n     * @dev Unsigned saturating subtraction, bounds to zero instead of overflowing.\\n     */\\n    function saturatingSub(uint256 a, uint256 b) internal pure returns (uint256) {\\n        (, uint256 result) = trySub(a, b);\\n        return result;\\n    }\\n\\n    /**\\n     * @dev Unsigned saturating multiplication, bounds to `2 - 1` instead of overflowing.\\n     */\\n    function saturatingMul(uint256 a, uint256 b) internal pure returns (uint256) {\\n        (bool success, uint256 result) = tryMul(a, b);\\n        return ternary(success, result, type(uint256).max);\\n    }\\n\\n    /**\\n     * @dev Branchless ternary evaluation for `a ? b : c`. Gas costs are constant.\\n     *\\n     * IMPORTANT: This function may reduce bytecode size and consume less gas when used standalone.\\n     * However, the compiler may optimize Solidity ternary operations (i.e. `a ? b : c`) to only compute\\n     * one branch when needed, making this function more expensive.\\n     */\\n    function ternary(bool condition, uint256 a, uint256 b) internal pure returns (uint256) {\\n        unchecked {\\n            // branchless ternary works because:\\n            // b ^ (a ^ b) == a\\n            // b ^ 0 == b\\n            return b ^ ((a ^ b) * SafeCast.toUint(condition));\\n        }\\n    }\\n\\n    /**\\n     * @dev Returns the largest of two numbers.\\n     */\\n    function max(uint256 a, uint256 b) internal pure returns (uint256) {\\n        return ternary(a > b, a, b);\\n    }\\n\\n    /**\\n     * @dev Returns the smallest of two numbers.\\n     */\\n    function min(uint256 a, uint256 b) internal pure returns (uint256) {\\n        return ternary(a < b, a, b);\\n    }\\n\\n    /**\\n     * @dev Returns the average of two numbers. The result is rounded towards\\n     * zero.\\n     */\\n    function average(uint256 a, uint256 b) internal pure returns (uint256) {\\n        // (a + b) / 2 can overflow.\\n        return (a & b) + (a ^ b) / 2;\\n    }\\n\\n    /**\\n     * @dev Returns the ceiling of the division of two numbers.\\n     *\\n     * This differs from standard division with `/` in that it rounds towards infinity instead\\n     * of rounding towards zero.\\n     */\\n    function ceilDiv(uint256 a, uint256 b) internal pure returns (uint256) {\\n        if (b == 0) {\\n            // Guarantee the same behavior as in a regular Solidity division.\\n            Panic.panic(Panic.DIVISION_BY_ZERO);\\n        }\\n\\n        // The following calculation ensures accurate ceiling division without overflow.\\n        // Since a is non-zero, (a - 1) / b will not overflow.\\n        // The largest possible result occurs when (a - 1) / b is type(uint256).max,\\n        // but the largest value we can obtain is type(uint256).max - 1, which happens\\n        // when a = type(uint256).max and b = 1.\\n        unchecked {\\n            return SafeCast.toUint(a > 0) * ((a - 1) / b + 1);\\n        }\\n    }\\n\\n    /**\\n     * @dev Calculates floor(x * y / denominator) with full precision. Throws if result overflows a uint256 or\\n     * denominator == 0.\\n     *\\n     * Original credit to Remco Bloemen under MIT license (https://xn--2-umb.com/21/muldiv) with further edits by\\n     * Uniswap Labs also under MIT license.\\n     */\\n    function mulDiv(uint256 x, uint256 y, uint256 denominator) internal pure returns (uint256 result) {\\n        unchecked {\\n            (uint256 high, uint256 low) = mul512(x, y);\\n\\n            // Handle non-overflow cases, 256 by 256 division.\\n            if (high == 0) {\\n                // Solidity will revert if denominator == 0, unlike the div opcode on its own.\\n                // The surrounding unchecked block does not change this fact.\\n                // See https://docs.soliditylang.org/en/latest/control-structures.html#checked-or-unchecked-arithmetic.\\n                return low / denominator;\\n            }\\n\\n            // Make sure the result is less than 2. Also prevents denominator == 0.\\n            if (denominator <= high) {\\n                Panic.panic(ternary(denominator == 0, Panic.DIVISION_BY_ZERO, Panic.UNDER_OVERFLOW));\\n            }\\n\\n            ///////////////////////////////////////////////\\n            // 512 by 256 division.\\n            ///////////////////////////////////////////////\\n\\n            // Make division exact by subtracting the remainder from [high low].\\n            uint256 remainder;\\n            assembly (\\\"memory-safe\\\") {\\n                // Compute remainder using mulmod.\\n                remainder := mulmod(x, y, denominator)\\n\\n                // Subtract 256 bit number from 512 bit number.\\n                high := sub(high, gt(remainder, low))\\n                low := sub(low, remainder)\\n            }\\n\\n            // Factor powers of two out of denominator and compute largest power of two divisor of denominator.\\n            // Always >= 1. See https://cs.stackexchange.com/q/138556/92363.\\n\\n            uint256 twos = denominator & (0 - denominator);\\n            assembly (\\\"memory-safe\\\") {\\n                // Divide denominator by twos.\\n                denominator := div(denominator, twos)\\n\\n                // Divide [high low] by twos.\\n                low := div(low, twos)\\n\\n                // Flip twos such that it is 2 / twos. If twos is zero, then it becomes one.\\n                twos := add(div(sub(0, twos), twos), 1)\\n            }\\n\\n            // Shift in bits from high into low.\\n            low |= high * twos;\\n\\n            // Invert denominator mod 2. Now that denominator is an odd number, it has an inverse modulo 2 such\\n            // that denominator * inv  1 mod 2. Compute the inverse by starting with a seed that is correct for\\n            // four bits. That is, denominator * inv  1 mod 2.\\n            uint256 inverse = (3 * denominator) ^ 2;\\n\\n            // Use the Newton-Raphson iteration to improve the precision. Thanks to Hensel's lifting lemma, this also\\n            // works in modular arithmetic, doubling the correct bits in each step.\\n            inverse *= 2 - denominator * inverse; // inverse mod 2\\n            inverse *= 2 - denominator * inverse; // inverse mod 2\\n            inverse *= 2 - denominator * inverse; // inverse mod 2\\n            inverse *= 2 - denominator * inverse; // inverse mod 2\\n            inverse *= 2 - denominator * inverse; // inverse mod 2\\n            inverse *= 2 - denominator * inverse; // inverse mod 2\\n\\n            // Because the division is now exact we can divide by multiplying with the modular inverse of denominator.\\n            // This will give us the correct result modulo 2. Since the preconditions guarantee that the outcome is\\n            // less than 2, this is the final result. We don't need to compute the high bits of the result and high\\n            // is no longer required.\\n            result = low * inverse;\\n            return result;\\n        }\\n    }\\n\\n    /**\\n     * @dev Calculates x * y / denominator with full precision, following the selected rounding direction.\\n     */\\n    function mulDiv(uint256 x, uint256 y, uint256 denominator, Rounding rounding) internal pure returns (uint256) {\\n        return mulDiv(x, y, denominator) + SafeCast.toUint(unsignedRoundsUp(rounding) && mulmod(x, y, denominator) > 0);\\n    }\\n\\n    /**\\n     * @dev Calculates floor(x * y >> n) with full precision. Throws if result overflows a uint256.\\n     */\\n    function mulShr(uint256 x, uint256 y, uint8 n) internal pure returns (uint256 result) {\\n        unchecked {\\n            (uint256 high, uint256 low) = mul512(x, y);\\n            if (high >= 1 << n) {\\n                Panic.panic(Panic.UNDER_OVERFLOW);\\n            }\\n            return (high << (256 - n)) | (low >> n);\\n        }\\n    }\\n\\n    /**\\n     * @dev Calculates x * y >> n with full precision, following the selected rounding direction.\\n     */\\n    function mulShr(uint256 x, uint256 y, uint8 n, Rounding rounding) internal pure returns (uint256) {\\n        return mulShr(x, y, n) + SafeCast.toUint(unsignedRoundsUp(rounding) && mulmod(x, y, 1 << n) > 0);\\n    }\\n\\n    /**\\n     * @dev Calculate the modular multiplicative inverse of a number in Z/nZ.\\n     *\\n     * If n is a prime, then Z/nZ is a field. In that case all elements are inversible, except 0.\\n     * If n is not a prime, then Z/nZ is not a field, and some elements might not be inversible.\\n     *\\n     * If the input value is not inversible, 0 is returned.\\n     *\\n     * NOTE: If you know for sure that n is (big) a prime, it may be cheaper to use Fermat's little theorem and get the\\n     * inverse using `Math.modExp(a, n - 2, n)`. See {invModPrime}.\\n     */\\n    function invMod(uint256 a, uint256 n) internal pure returns (uint256) {\\n        unchecked {\\n            if (n == 0) return 0;\\n\\n            // The inverse modulo is calculated using the Extended Euclidean Algorithm (iterative version)\\n            // Used to compute integers x and y such that: ax + ny = gcd(a, n).\\n            // When the gcd is 1, then the inverse of a modulo n exists and it's x.\\n            // ax + ny = 1\\n            // ax = 1 + (-y)n\\n            // ax  1 (mod n) # x is the inverse of a modulo n\\n\\n            // If the remainder is 0 the gcd is n right away.\\n            uint256 remainder = a % n;\\n            uint256 gcd = n;\\n\\n            // Therefore the initial coefficients are:\\n            // ax + ny = gcd(a, n) = n\\n            // 0a + 1n = n\\n            int256 x = 0;\\n            int256 y = 1;\\n\\n            while (remainder != 0) {\\n                uint256 quotient = gcd / remainder;\\n\\n                (gcd, remainder) = (\\n                    // The old remainder is the next gcd to try.\\n                    remainder,\\n                    // Compute the next remainder.\\n                    // Can't overflow given that (a % gcd) * (gcd // (a % gcd)) <= gcd\\n                    // where gcd is at most n (capped to type(uint256).max)\\n                    gcd - remainder * quotient\\n                );\\n\\n                (x, y) = (\\n                    // Increment the coefficient of a.\\n                    y,\\n                    // Decrement the coefficient of n.\\n                    // Can overflow, but the result is casted to uint256 so that the\\n                    // next value of y is \\\"wrapped around\\\" to a value between 0 and n - 1.\\n                    x - y * int256(quotient)\\n                );\\n            }\\n\\n            if (gcd != 1) return 0; // No inverse exists.\\n            return ternary(x < 0, n - uint256(-x), uint256(x)); // Wrap the result if it's negative.\\n        }\\n    }\\n\\n    /**\\n     * @dev Variant of {invMod}. More efficient, but only works if `p` is known to be a prime greater than `2`.\\n     *\\n     * From https://en.wikipedia.org/wiki/Fermat%27s_little_theorem[Fermat's little theorem], we know that if p is\\n     * prime, then `a**(p-1)  1 mod p`. As a consequence, we have `a * a**(p-2)  1 mod p`, which means that\\n     * `a**(p-2)` is the modular multiplicative inverse of a in Fp.\\n     *\\n     * NOTE: this function does NOT check that `p` is a prime greater than `2`.\\n     */\\n    function invModPrime(uint256 a, uint256 p) internal view returns (uint256) {\\n        unchecked {\\n            return Math.modExp(a, p - 2, p);\\n        }\\n    }\\n\\n    /**\\n     * @dev Returns the modular exponentiation of the specified base, exponent and modulus (b ** e % m)\\n     *\\n     * Requirements:\\n     * - modulus can't be zero\\n     * - underlying staticcall to precompile must succeed\\n     *\\n     * IMPORTANT: The result is only valid if the underlying call succeeds. When using this function, make\\n     * sure the chain you're using it on supports the precompiled contract for modular exponentiation\\n     * at address 0x05 as specified in https://eips.ethereum.org/EIPS/eip-198[EIP-198]. Otherwise,\\n     * the underlying function will succeed given the lack of a revert, but the result may be incorrectly\\n     * interpreted as 0.\\n     */\\n    function modExp(uint256 b, uint256 e, uint256 m) internal view returns (uint256) {\\n        (bool success, uint256 result) = tryModExp(b, e, m);\\n        if (!success) {\\n            Panic.panic(Panic.DIVISION_BY_ZERO);\\n        }\\n        return result;\\n    }\\n\\n    /**\\n     * @dev Returns the modular exponentiation of the specified base, exponent and modulus (b ** e % m).\\n     * It includes a success flag indicating if the operation succeeded. Operation will be marked as failed if trying\\n     * to operate modulo 0 or if the underlying precompile reverted.\\n     *\\n     * IMPORTANT: The result is only valid if the success flag is true. When using this function, make sure the chain\\n     * you're using it on supports the precompiled contract for modular exponentiation at address 0x05 as specified in\\n     * https://eips.ethereum.org/EIPS/eip-198[EIP-198]. Otherwise, the underlying function will succeed given the lack\\n     * of a revert, but the result may be incorrectly interpreted as 0.\\n     */\\n    function tryModExp(uint256 b, uint256 e, uint256 m) internal view returns (bool success, uint256 result) {\\n        if (m == 0) return (false, 0);\\n        assembly (\\\"memory-safe\\\") {\\n            let ptr := mload(0x40)\\n            // | Offset    | Content    | Content (Hex)                                                      |\\n            // |-----------|------------|--------------------------------------------------------------------|\\n            // | 0x00:0x1f | size of b  | 0x0000000000000000000000000000000000000000000000000000000000000020 |\\n            // | 0x20:0x3f | size of e  | 0x0000000000000000000000000000000000000000000000000000000000000020 |\\n            // | 0x40:0x5f | size of m  | 0x0000000000000000000000000000000000000000000000000000000000000020 |\\n            // | 0x60:0x7f | value of b | 0x<.............................................................b> |\\n            // | 0x80:0x9f | value of e | 0x<.............................................................e> |\\n            // | 0xa0:0xbf | value of m | 0x<.............................................................m> |\\n            mstore(ptr, 0x20)\\n            mstore(add(ptr, 0x20), 0x20)\\n            mstore(add(ptr, 0x40), 0x20)\\n            mstore(add(ptr, 0x60), b)\\n            mstore(add(ptr, 0x80), e)\\n            mstore(add(ptr, 0xa0), m)\\n\\n            // Given the result < m, it's guaranteed to fit in 32 bytes,\\n            // so we can use the memory scratch space located at offset 0.\\n            success := staticcall(gas(), 0x05, ptr, 0xc0, 0x00, 0x20)\\n            result := mload(0x00)\\n        }\\n    }\\n\\n    /**\\n     * @dev Variant of {modExp} that supports inputs of arbitrary length.\\n     */\\n    function modExp(bytes memory b, bytes memory e, bytes memory m) internal view returns (bytes memory) {\\n        (bool success, bytes memory result) = tryModExp(b, e, m);\\n        if (!success) {\\n            Panic.panic(Panic.DIVISION_BY_ZERO);\\n        }\\n        return result;\\n    }\\n\\n    /**\\n     * @dev Variant of {tryModExp} that supports inputs of arbitrary length.\\n     */\\n    function tryModExp(\\n        bytes memory b,\\n        bytes memory e,\\n        bytes memory m\\n    ) internal view returns (bool success, bytes memory result) {\\n        if (_zeroBytes(m)) return (false, new bytes(0));\\n\\n        uint256 mLen = m.length;\\n\\n        // Encode call args in result and move the free memory pointer\\n        result = abi.encodePacked(b.length, e.length, mLen, b, e, m);\\n\\n        assembly (\\\"memory-safe\\\") {\\n            let dataPtr := add(result, 0x20)\\n            // Write result on top of args to avoid allocating extra memory.\\n            success := staticcall(gas(), 0x05, dataPtr, mload(result), dataPtr, mLen)\\n            // Overwrite the length.\\n            // result.length > returndatasize() is guaranteed because returndatasize() == m.length\\n            mstore(result, mLen)\\n            // Set the memory pointer after the returned data.\\n            mstore(0x40, add(dataPtr, mLen))\\n        }\\n    }\\n\\n    /**\\n     * @dev Returns whether the provided byte array is zero.\\n     */\\n    function _zeroBytes(bytes memory byteArray) private pure returns (bool) {\\n        for (uint256 i = 0; i < byteArray.length; ++i) {\\n            if (byteArray[i] != 0) {\\n                return false;\\n            }\\n        }\\n        return true;\\n    }\\n\\n    /**\\n     * @dev Returns the square root of a number. If the number is not a perfect square, the value is rounded\\n     * towards zero.\\n     *\\n     * This method is based on Newton's method for computing square roots; the algorithm is restricted to only\\n     * using integer operations.\\n     */\\n    function sqrt(uint256 a) internal pure returns (uint256) {\\n        unchecked {\\n            // Take care of easy edge cases when a == 0 or a == 1\\n            if (a <= 1) {\\n                return a;\\n            }\\n\\n            // In this function, we use Newton's method to get a root of `f(x) := x - a`. It involves building a\\n            // sequence x_n that converges toward sqrt(a). For each iteration x_n, we also define the error between\\n            // the current value as `_n = | x_n - sqrt(a) |`.\\n            //\\n            // For our first estimation, we consider `e` the smallest power of 2 which is bigger than the square root\\n            // of the target. (i.e. `2**(e-1)  sqrt(a) < 2**e`). We know that `e  128` because `(2) = 2` is\\n            // bigger than any uint256.\\n            //\\n            // By noticing that\\n            // `2**(e-1)  sqrt(a) < 2**e  (2**(e-1))  a < (2**e)  2**(2*e-2)  a < 2**(2*e)`\\n            // we can deduce that `e - 1` is `log2(a) / 2`. We can thus compute `x_n = 2**(e-1)` using a method similar\\n            // to the msb function.\\n            uint256 aa = a;\\n            uint256 xn = 1;\\n\\n            if (aa >= (1 << 128)) {\\n                aa >>= 128;\\n                xn <<= 64;\\n            }\\n            if (aa >= (1 << 64)) {\\n                aa >>= 64;\\n                xn <<= 32;\\n            }\\n            if (aa >= (1 << 32)) {\\n                aa >>= 32;\\n                xn <<= 16;\\n            }\\n            if (aa >= (1 << 16)) {\\n                aa >>= 16;\\n                xn <<= 8;\\n            }\\n            if (aa >= (1 << 8)) {\\n                aa >>= 8;\\n                xn <<= 4;\\n            }\\n            if (aa >= (1 << 4)) {\\n                aa >>= 4;\\n                xn <<= 2;\\n            }\\n            if (aa >= (1 << 2)) {\\n                xn <<= 1;\\n            }\\n\\n            // We now have x_n such that `x_n = 2**(e-1)  sqrt(a) < 2**e = 2 * x_n`. This implies _n  2**(e-1).\\n            //\\n            // We can refine our estimation by noticing that the middle of that interval minimizes the error.\\n            // If we move x_n to equal 2**(e-1) + 2**(e-2), then we reduce the error to _n  2**(e-2).\\n            // This is going to be our x_0 (and _0)\\n            xn = (3 * xn) >> 1; // _0 := | x_0 - sqrt(a) |  2**(e-2)\\n\\n            // From here, Newton's method give us:\\n            // x_{n+1} = (x_n + a / x_n) / 2\\n            //\\n            // One should note that:\\n            // x_{n+1} - a = ((x_n + a / x_n) / 2) - a\\n            //              = ((x_n + a) / (2 * x_n)) - a\\n            //              = (x_n + 2 * a * x_n + a) / (4 * x_n) - a\\n            //              = (x_n + 2 * a * x_n + a - 4 * a * x_n) / (4 * x_n)\\n            //              = (x_n - 2 * a * x_n + a) / (4 * x_n)\\n            //              = (x_n - a) / (2 * x_n)\\n            //              = ((x_n - a) / (2 * x_n))\\n            //               0\\n            // Which proves that for all n  1, sqrt(a)  x_n\\n            //\\n            // This gives us the proof of quadratic convergence of the sequence:\\n            // _{n+1} = | x_{n+1} - sqrt(a) |\\n            //         = | (x_n + a / x_n) / 2 - sqrt(a) |\\n            //         = | (x_n + a - 2*x_n*sqrt(a)) / (2 * x_n) |\\n            //         = | (x_n - sqrt(a)) / (2 * x_n) |\\n            //         = | _n / (2 * x_n) |\\n            //         = _n / | (2 * x_n) |\\n            //\\n            // For the first iteration, we have a special case where x_0 is known:\\n            // _1 = _0 / | (2 * x_0) |\\n            //      (2**(e-2)) / (2 * (2**(e-1) + 2**(e-2)))\\n            //      2**(2*e-4) / (3 * 2**(e-1))\\n            //      2**(e-3) / 3\\n            //      2**(e-3-log2(3))\\n            //      2**(e-4.5)\\n            //\\n            // For the following iterations, we use the fact that, 2**(e-1)  sqrt(a)  x_n:\\n            // _{n+1} = _n / | (2 * x_n) |\\n            //          (2**(e-k)) / (2 * 2**(e-1))\\n            //          2**(2*e-2*k) / 2**e\\n            //          2**(e-2*k)\\n            xn = (xn + a / xn) >> 1; // _1 := | x_1 - sqrt(a) |  2**(e-4.5)  -- special case, see above\\n            xn = (xn + a / xn) >> 1; // _2 := | x_2 - sqrt(a) |  2**(e-9)    -- general case with k = 4.5\\n            xn = (xn + a / xn) >> 1; // _3 := | x_3 - sqrt(a) |  2**(e-18)   -- general case with k = 9\\n            xn = (xn + a / xn) >> 1; // _4 := | x_4 - sqrt(a) |  2**(e-36)   -- general case with k = 18\\n            xn = (xn + a / xn) >> 1; // _5 := | x_5 - sqrt(a) |  2**(e-72)   -- general case with k = 36\\n            xn = (xn + a / xn) >> 1; // _6 := | x_6 - sqrt(a) |  2**(e-144)  -- general case with k = 72\\n\\n            // Because e  128 (as discussed during the first estimation phase), we know have reached a precision\\n            // _6  2**(e-144) < 1. Given we're operating on integers, then we can ensure that xn is now either\\n            // sqrt(a) or sqrt(a) + 1.\\n            return xn - SafeCast.toUint(xn > a / xn);\\n        }\\n    }\\n\\n    /**\\n     * @dev Calculates sqrt(a), following the selected rounding direction.\\n     */\\n    function sqrt(uint256 a, Rounding rounding) internal pure returns (uint256) {\\n        unchecked {\\n            uint256 result = sqrt(a);\\n            return result + SafeCast.toUint(unsignedRoundsUp(rounding) && result * result < a);\\n        }\\n    }\\n\\n    /**\\n     * @dev Return the log in base 2 of a positive value rounded towards zero.\\n     * Returns 0 if given 0.\\n     */\\n    function log2(uint256 x) internal pure returns (uint256 r) {\\n        // If value has upper 128 bits set, log2 result is at least 128\\n        r = SafeCast.toUint(x > 0xffffffffffffffffffffffffffffffff) << 7;\\n        // If upper 64 bits of 128-bit half set, add 64 to result\\n        r |= SafeCast.toUint((x >> r) > 0xffffffffffffffff) << 6;\\n        // If upper 32 bits of 64-bit half set, add 32 to result\\n        r |= SafeCast.toUint((x >> r) > 0xffffffff) << 5;\\n        // If upper 16 bits of 32-bit half set, add 16 to result\\n        r |= SafeCast.toUint((x >> r) > 0xffff) << 4;\\n        // If upper 8 bits of 16-bit half set, add 8 to result\\n        r |= SafeCast.toUint((x >> r) > 0xff) << 3;\\n        // If upper 4 bits of 8-bit half set, add 4 to result\\n        r |= SafeCast.toUint((x >> r) > 0xf) << 2;\\n\\n        // Shifts value right by the current result and use it as an index into this lookup table:\\n        //\\n        // | x (4 bits) |  index  | table[index] = MSB position |\\n        // |------------|---------|-----------------------------|\\n        // |    0000    |    0    |        table[0] = 0         |\\n        // |    0001    |    1    |        table[1] = 0         |\\n        // |    0010    |    2    |        table[2] = 1         |\\n        // |    0011    |    3    |        table[3] = 1         |\\n        // |    0100    |    4    |        table[4] = 2         |\\n        // |    0101    |    5    |        table[5] = 2         |\\n        // |    0110    |    6    |        table[6] = 2         |\\n        // |    0111    |    7    |        table[7] = 2         |\\n        // |    1000    |    8    |        table[8] = 3         |\\n        // |    1001    |    9    |        table[9] = 3         |\\n        // |    1010    |   10    |        table[10] = 3        |\\n        // |    1011    |   11    |        table[11] = 3        |\\n        // |    1100    |   12    |        table[12] = 3        |\\n        // |    1101    |   13    |        table[13] = 3        |\\n        // |    1110    |   14    |        table[14] = 3        |\\n        // |    1111    |   15    |        table[15] = 3        |\\n        //\\n        // The lookup table is represented as a 32-byte value with the MSB positions for 0-15 in the last 16 bytes.\\n        assembly (\\\"memory-safe\\\") {\\n            r := or(r, byte(shr(r, x), 0x0000010102020202030303030303030300000000000000000000000000000000))\\n        }\\n    }\\n\\n    /**\\n     * @dev Return the log in base 2, following the selected rounding direction, of a positive value.\\n     * Returns 0 if given 0.\\n     */\\n    function log2(uint256 value, Rounding rounding) internal pure returns (uint256) {\\n        unchecked {\\n            uint256 result = log2(value);\\n            return result + SafeCast.toUint(unsignedRoundsUp(rounding) && 1 << result < value);\\n        }\\n    }\\n\\n    /**\\n     * @dev Return the log in base 10 of a positive value rounded towards zero.\\n     * Returns 0 if given 0.\\n     */\\n    function log10(uint256 value) internal pure returns (uint256) {\\n        uint256 result = 0;\\n        unchecked {\\n            if (value >= 10 ** 64) {\\n                value /= 10 ** 64;\\n                result += 64;\\n            }\\n            if (value >= 10 ** 32) {\\n                value /= 10 ** 32;\\n                result += 32;\\n            }\\n            if (value >= 10 ** 16) {\\n                value /= 10 ** 16;\\n                result += 16;\\n            }\\n            if (value >= 10 ** 8) {\\n                value /= 10 ** 8;\\n                result += 8;\\n            }\\n            if (value >= 10 ** 4) {\\n                value /= 10 ** 4;\\n                result += 4;\\n            }\\n            if (value >= 10 ** 2) {\\n                value /= 10 ** 2;\\n                result += 2;\\n            }\\n            if (value >= 10 ** 1) {\\n                result += 1;\\n            }\\n        }\\n        return result;\\n    }\\n\\n    /**\\n     * @dev Return the log in base 10, following the selected rounding direction, of a positive value.\\n     * Returns 0 if given 0.\\n     */\\n    function log10(uint256 value, Rounding rounding) internal pure returns (uint256) {\\n        unchecked {\\n            uint256 result = log10(value);\\n            return result + SafeCast.toUint(unsignedRoundsUp(rounding) && 10 ** result < value);\\n        }\\n    }\\n\\n    /**\\n     * @dev Return the log in base 256 of a positive value rounded towards zero.\\n     * Returns 0 if given 0.\\n     *\\n     * Adding one to the result gives the number of pairs of hex symbols needed to represent `value` as a hex string.\\n     */\\n    function log256(uint256 x) internal pure returns (uint256 r) {\\n        // If value has upper 128 bits set, log2 result is at least 128\\n        r = SafeCast.toUint(x > 0xffffffffffffffffffffffffffffffff) << 7;\\n        // If upper 64 bits of 128-bit half set, add 64 to result\\n        r |= SafeCast.toUint((x >> r) > 0xffffffffffffffff) << 6;\\n        // If upper 32 bits of 64-bit half set, add 32 to result\\n        r |= SafeCast.toUint((x >> r) > 0xffffffff) << 5;\\n        // If upper 16 bits of 32-bit half set, add 16 to result\\n        r |= SafeCast.toUint((x >> r) > 0xffff) << 4;\\n        // Add 1 if upper 8 bits of 16-bit half set, and divide accumulated result by 8\\n        return (r >> 3) | SafeCast.toUint((x >> r) > 0xff);\\n    }\\n\\n    /**\\n     * @dev Return the log in base 256, following the selected rounding direction, of a positive value.\\n     * Returns 0 if given 0.\\n     */\\n    function log256(uint256 value, Rounding rounding) internal pure returns (uint256) {\\n        unchecked {\\n            uint256 result = log256(value);\\n            return result + SafeCast.toUint(unsignedRoundsUp(rounding) && 1 << (result << 3) < value);\\n        }\\n    }\\n\\n    /**\\n     * @dev Returns whether a provided rounding mode is considered rounding up for unsigned integers.\\n     */\\n    function unsignedRoundsUp(Rounding rounding) internal pure returns (bool) {\\n        return uint8(rounding) % 2 == 1;\\n    }\\n}\\n\"},\"@openzeppelin/contracts/utils/Strings.sol\":{\"content\":\"// SPDX-License-Identifier: MIT\\n// OpenZeppelin Contracts (last updated v5.4.0) (utils/Strings.sol)\\n\\npragma solidity ^0.8.20;\\n\\nimport {Math} from \\\"./math/Math.sol\\\";\\nimport {SafeCast} from \\\"./math/SafeCast.sol\\\";\\nimport {SignedMath} from \\\"./math/SignedMath.sol\\\";\\n\\n/**\\n * @dev String operations.\\n */\\nlibrary Strings {\\n    using SafeCast for *;\\n\\n    bytes16 private constant HEX_DIGITS = \\\"0123456789abcdef\\\";\\n    uint8 private constant ADDRESS_LENGTH = 20;\\n    uint256 private constant SPECIAL_CHARS_LOOKUP =\\n        (1 << 0x08) | // backspace\\n            (1 << 0x09) | // tab\\n            (1 << 0x0a) | // newline\\n            (1 << 0x0c) | // form feed\\n            (1 << 0x0d) | // carriage return\\n            (1 << 0x22) | // double quote\\n            (1 << 0x5c); // backslash\\n\\n    /**\\n     * @dev The `value` string doesn't fit in the specified `length`.\\n     */\\n    error StringsInsufficientHexLength(uint256 value, uint256 length);\\n\\n    /**\\n     * @dev The string being parsed contains characters that are not in scope of the given base.\\n     */\\n    error StringsInvalidChar();\\n\\n    /**\\n     * @dev The string being parsed is not a properly formatted address.\\n     */\\n    error StringsInvalidAddressFormat();\\n\\n    /**\\n     * @dev Converts a `uint256` to its ASCII `string` decimal representation.\\n     */\\n    function toString(uint256 value) internal pure returns (string memory) {\\n        unchecked {\\n            uint256 length = Math.log10(value) + 1;\\n            string memory buffer = new string(length);\\n            uint256 ptr;\\n            assembly (\\\"memory-safe\\\") {\\n                ptr := add(add(buffer, 0x20), length)\\n            }\\n            while (true) {\\n                ptr--;\\n                assembly (\\\"memory-safe\\\") {\\n                    mstore8(ptr, byte(mod(value, 10), HEX_DIGITS))\\n                }\\n                value /= 10;\\n                if (value == 0) break;\\n            }\\n            return buffer;\\n        }\\n    }\\n\\n    /**\\n     * @dev Converts a `int256` to its ASCII `string` decimal representation.\\n     */\\n    function toStringSigned(int256 value) internal pure returns (string memory) {\\n        return string.concat(value < 0 ? \\\"-\\\" : \\\"\\\", toString(SignedMath.abs(value)));\\n    }\\n\\n    /**\\n     * @dev Converts a `uint256` to its ASCII `string` hexadecimal representation.\\n     */\\n    function toHexString(uint256 value) internal pure returns (string memory) {\\n        unchecked {\\n            return toHexString(value, Math.log256(value) + 1);\\n        }\\n    }\\n\\n    /**\\n     * @dev Converts a `uint256` to its ASCII `string` hexadecimal representation with fixed length.\\n     */\\n    function toHexString(uint256 value, uint256 length) internal pure returns (string memory) {\\n        uint256 localValue = value;\\n        bytes memory buffer = new bytes(2 * length + 2);\\n        buffer[0] = \\\"0\\\";\\n        buffer[1] = \\\"x\\\";\\n        for (uint256 i = 2 * length + 1; i > 1; --i) {\\n            buffer[i] = HEX_DIGITS[localValue & 0xf];\\n            localValue >>= 4;\\n        }\\n        if (localValue != 0) {\\n            revert StringsInsufficientHexLength(value, length);\\n        }\\n        return string(buffer);\\n    }\\n\\n    /**\\n     * @dev Converts an `address` with fixed length of 20 bytes to its not checksummed ASCII `string` hexadecimal\\n     * representation.\\n     */\\n    function toHexString(address addr) internal pure returns (string memory) {\\n        return toHexString(uint256(uint160(addr)), ADDRESS_LENGTH);\\n    }\\n\\n    /**\\n     * @dev Converts an `address` with fixed length of 20 bytes to its checksummed ASCII `string` hexadecimal\\n     * representation, according to EIP-55.\\n     */\\n    function toChecksumHexString(address addr) internal pure returns (string memory) {\\n        bytes memory buffer = bytes(toHexString(addr));\\n\\n        // hash the hex part of buffer (skip length + 2 bytes, length 40)\\n        uint256 hashValue;\\n        assembly (\\\"memory-safe\\\") {\\n            hashValue := shr(96, keccak256(add(buffer, 0x22), 40))\\n        }\\n\\n        for (uint256 i = 41; i > 1; --i) {\\n            // possible values for buffer[i] are 48 (0) to 57 (9) and 97 (a) to 102 (f)\\n            if (hashValue & 0xf > 7 && uint8(buffer[i]) > 96) {\\n                // case shift by xoring with 0x20\\n                buffer[i] ^= 0x20;\\n            }\\n            hashValue >>= 4;\\n        }\\n        return string(buffer);\\n    }\\n\\n    /**\\n     * @dev Returns true if the two strings are equal.\\n     */\\n    function equal(string memory a, string memory b) internal pure returns (bool) {\\n        return bytes(a).length == bytes(b).length && keccak256(bytes(a)) == keccak256(bytes(b));\\n    }\\n\\n    /**\\n     * @dev Parse a decimal string and returns the value as a `uint256`.\\n     *\\n     * Requirements:\\n     * - The string must be formatted as `[0-9]*`\\n     * - The result must fit into an `uint256` type\\n     */\\n    function parseUint(string memory input) internal pure returns (uint256) {\\n        return parseUint(input, 0, bytes(input).length);\\n    }\\n\\n    /**\\n     * @dev Variant of {parseUint-string} that parses a substring of `input` located between position `begin` (included) and\\n     * `end` (excluded).\\n     *\\n     * Requirements:\\n     * - The substring must be formatted as `[0-9]*`\\n     * - The result must fit into an `uint256` type\\n     */\\n    function parseUint(string memory input, uint256 begin, uint256 end) internal pure returns (uint256) {\\n        (bool success, uint256 value) = tryParseUint(input, begin, end);\\n        if (!success) revert StringsInvalidChar();\\n        return value;\\n    }\\n\\n    /**\\n     * @dev Variant of {parseUint-string} that returns false if the parsing fails because of an invalid character.\\n     *\\n     * NOTE: This function will revert if the result does not fit in a `uint256`.\\n     */\\n    function tryParseUint(string memory input) internal pure returns (bool success, uint256 value) {\\n        return _tryParseUintUncheckedBounds(input, 0, bytes(input).length);\\n    }\\n\\n    /**\\n     * @dev Variant of {parseUint-string-uint256-uint256} that returns false if the parsing fails because of an invalid\\n     * character.\\n     *\\n     * NOTE: This function will revert if the result does not fit in a `uint256`.\\n     */\\n    function tryParseUint(\\n        string memory input,\\n        uint256 begin,\\n        uint256 end\\n    ) internal pure returns (bool success, uint256 value) {\\n        if (end > bytes(input).length || begin > end) return (false, 0);\\n        return _tryParseUintUncheckedBounds(input, begin, end);\\n    }\\n\\n    /**\\n     * @dev Implementation of {tryParseUint-string-uint256-uint256} that does not check bounds. Caller should make sure that\\n     * `begin <= end <= input.length`. Other inputs would result in undefined behavior.\\n     */\\n    function _tryParseUintUncheckedBounds(\\n        string memory input,\\n        uint256 begin,\\n        uint256 end\\n    ) private pure returns (bool success, uint256 value) {\\n        bytes memory buffer = bytes(input);\\n\\n        uint256 result = 0;\\n        for (uint256 i = begin; i < end; ++i) {\\n            uint8 chr = _tryParseChr(bytes1(_unsafeReadBytesOffset(buffer, i)));\\n            if (chr > 9) return (false, 0);\\n            result *= 10;\\n            result += chr;\\n        }\\n        return (true, result);\\n    }\\n\\n    /**\\n     * @dev Parse a decimal string and returns the value as a `int256`.\\n     *\\n     * Requirements:\\n     * - The string must be formatted as `[-+]?[0-9]*`\\n     * - The result must fit in an `int256` type.\\n     */\\n    function parseInt(string memory input) internal pure returns (int256) {\\n        return parseInt(input, 0, bytes(input).length);\\n    }\\n\\n    /**\\n     * @dev Variant of {parseInt-string} that parses a substring of `input` located between position `begin` (included) and\\n     * `end` (excluded).\\n     *\\n     * Requirements:\\n     * - The substring must be formatted as `[-+]?[0-9]*`\\n     * - The result must fit in an `int256` type.\\n     */\\n    function parseInt(string memory input, uint256 begin, uint256 end) internal pure returns (int256) {\\n        (bool success, int256 value) = tryParseInt(input, begin, end);\\n        if (!success) revert StringsInvalidChar();\\n        return value;\\n    }\\n\\n    /**\\n     * @dev Variant of {parseInt-string} that returns false if the parsing fails because of an invalid character or if\\n     * the result does not fit in a `int256`.\\n     *\\n     * NOTE: This function will revert if the absolute value of the result does not fit in a `uint256`.\\n     */\\n    function tryParseInt(string memory input) internal pure returns (bool success, int256 value) {\\n        return _tryParseIntUncheckedBounds(input, 0, bytes(input).length);\\n    }\\n\\n    uint256 private constant ABS_MIN_INT256 = 2 ** 255;\\n\\n    /**\\n     * @dev Variant of {parseInt-string-uint256-uint256} that returns false if the parsing fails because of an invalid\\n     * character or if the result does not fit in a `int256`.\\n     *\\n     * NOTE: This function will revert if the absolute value of the result does not fit in a `uint256`.\\n     */\\n    function tryParseInt(\\n        string memory input,\\n        uint256 begin,\\n        uint256 end\\n    ) internal pure returns (bool success, int256 value) {\\n        if (end > bytes(input).length || begin > end) return (false, 0);\\n        return _tryParseIntUncheckedBounds(input, begin, end);\\n    }\\n\\n    /**\\n     * @dev Implementation of {tryParseInt-string-uint256-uint256} that does not check bounds. Caller should make sure that\\n     * `begin <= end <= input.length`. Other inputs would result in undefined behavior.\\n     */\\n    function _tryParseIntUncheckedBounds(\\n        string memory input,\\n        uint256 begin,\\n        uint256 end\\n    ) private pure returns (bool success, int256 value) {\\n        bytes memory buffer = bytes(input);\\n\\n        // Check presence of a negative sign.\\n        bytes1 sign = begin == end ? bytes1(0) : bytes1(_unsafeReadBytesOffset(buffer, begin)); // don't do out-of-bound (possibly unsafe) read if sub-string is empty\\n        bool positiveSign = sign == bytes1(\\\"+\\\");\\n        bool negativeSign = sign == bytes1(\\\"-\\\");\\n        uint256 offset = (positiveSign || negativeSign).toUint();\\n\\n        (bool absSuccess, uint256 absValue) = tryParseUint(input, begin + offset, end);\\n\\n        if (absSuccess && absValue < ABS_MIN_INT256) {\\n            return (true, negativeSign ? -int256(absValue) : int256(absValue));\\n        } else if (absSuccess && negativeSign && absValue == ABS_MIN_INT256) {\\n            return (true, type(int256).min);\\n        } else return (false, 0);\\n    }\\n\\n    /**\\n     * @dev Parse a hexadecimal string (with or without \\\"0x\\\" prefix), and returns the value as a `uint256`.\\n     *\\n     * Requirements:\\n     * - The string must be formatted as `(0x)?[0-9a-fA-F]*`\\n     * - The result must fit in an `uint256` type.\\n     */\\n    function parseHexUint(string memory input) internal pure returns (uint256) {\\n        return parseHexUint(input, 0, bytes(input).length);\\n    }\\n\\n    /**\\n     * @dev Variant of {parseHexUint-string} that parses a substring of `input` located between position `begin` (included) and\\n     * `end` (excluded).\\n     *\\n     * Requirements:\\n     * - The substring must be formatted as `(0x)?[0-9a-fA-F]*`\\n     * - The result must fit in an `uint256` type.\\n     */\\n    function parseHexUint(string memory input, uint256 begin, uint256 end) internal pure returns (uint256) {\\n        (bool success, uint256 value) = tryParseHexUint(input, begin, end);\\n        if (!success) revert StringsInvalidChar();\\n        return value;\\n    }\\n\\n    /**\\n     * @dev Variant of {parseHexUint-string} that returns false if the parsing fails because of an invalid character.\\n     *\\n     * NOTE: This function will revert if the result does not fit in a `uint256`.\\n     */\\n    function tryParseHexUint(string memory input) internal pure returns (bool success, uint256 value) {\\n        return _tryParseHexUintUncheckedBounds(input, 0, bytes(input).length);\\n    }\\n\\n    /**\\n     * @dev Variant of {parseHexUint-string-uint256-uint256} that returns false if the parsing fails because of an\\n     * invalid character.\\n     *\\n     * NOTE: This function will revert if the result does not fit in a `uint256`.\\n     */\\n    function tryParseHexUint(\\n        string memory input,\\n        uint256 begin,\\n        uint256 end\\n    ) internal pure returns (bool success, uint256 value) {\\n        if (end > bytes(input).length || begin > end) return (false, 0);\\n        return _tryParseHexUintUncheckedBounds(input, begin, end);\\n    }\\n\\n    /**\\n     * @dev Implementation of {tryParseHexUint-string-uint256-uint256} that does not check bounds. Caller should make sure that\\n     * `begin <= end <= input.length`. Other inputs would result in undefined behavior.\\n     */\\n    function _tryParseHexUintUncheckedBounds(\\n        string memory input,\\n        uint256 begin,\\n        uint256 end\\n    ) private pure returns (bool success, uint256 value) {\\n        bytes memory buffer = bytes(input);\\n\\n        // skip 0x prefix if present\\n        bool hasPrefix = (end > begin + 1) && bytes2(_unsafeReadBytesOffset(buffer, begin)) == bytes2(\\\"0x\\\"); // don't do out-of-bound (possibly unsafe) read if sub-string is empty\\n        uint256 offset = hasPrefix.toUint() * 2;\\n\\n        uint256 result = 0;\\n        for (uint256 i = begin + offset; i < end; ++i) {\\n            uint8 chr = _tryParseChr(bytes1(_unsafeReadBytesOffset(buffer, i)));\\n            if (chr > 15) return (false, 0);\\n            result *= 16;\\n            unchecked {\\n                // Multiplying by 16 is equivalent to a shift of 4 bits (with additional overflow check).\\n                // This guarantees that adding a value < 16 will not cause an overflow, hence the unchecked.\\n                result += chr;\\n            }\\n        }\\n        return (true, result);\\n    }\\n\\n    /**\\n     * @dev Parse a hexadecimal string (with or without \\\"0x\\\" prefix), and returns the value as an `address`.\\n     *\\n     * Requirements:\\n     * - The string must be formatted as `(0x)?[0-9a-fA-F]{40}`\\n     */\\n    function parseAddress(string memory input) internal pure returns (address) {\\n        return parseAddress(input, 0, bytes(input).length);\\n    }\\n\\n    /**\\n     * @dev Variant of {parseAddress-string} that parses a substring of `input` located between position `begin` (included) and\\n     * `end` (excluded).\\n     *\\n     * Requirements:\\n     * - The substring must be formatted as `(0x)?[0-9a-fA-F]{40}`\\n     */\\n    function parseAddress(string memory input, uint256 begin, uint256 end) internal pure returns (address) {\\n        (bool success, address value) = tryParseAddress(input, begin, end);\\n        if (!success) revert StringsInvalidAddressFormat();\\n        return value;\\n    }\\n\\n    /**\\n     * @dev Variant of {parseAddress-string} that returns false if the parsing fails because the input is not a properly\\n     * formatted address. See {parseAddress-string} requirements.\\n     */\\n    function tryParseAddress(string memory input) internal pure returns (bool success, address value) {\\n        return tryParseAddress(input, 0, bytes(input).length);\\n    }\\n\\n    /**\\n     * @dev Variant of {parseAddress-string-uint256-uint256} that returns false if the parsing fails because input is not a properly\\n     * formatted address. See {parseAddress-string-uint256-uint256} requirements.\\n     */\\n    function tryParseAddress(\\n        string memory input,\\n        uint256 begin,\\n        uint256 end\\n    ) internal pure returns (bool success, address value) {\\n        if (end > bytes(input).length || begin > end) return (false, address(0));\\n\\n        bool hasPrefix = (end > begin + 1) && bytes2(_unsafeReadBytesOffset(bytes(input), begin)) == bytes2(\\\"0x\\\"); // don't do out-of-bound (possibly unsafe) read if sub-string is empty\\n        uint256 expectedLength = 40 + hasPrefix.toUint() * 2;\\n\\n        // check that input is the correct length\\n        if (end - begin == expectedLength) {\\n            // length guarantees that this does not overflow, and value is at most type(uint160).max\\n            (bool s, uint256 v) = _tryParseHexUintUncheckedBounds(input, begin, end);\\n            return (s, address(uint160(v)));\\n        } else {\\n            return (false, address(0));\\n        }\\n    }\\n\\n    function _tryParseChr(bytes1 chr) private pure returns (uint8) {\\n        uint8 value = uint8(chr);\\n\\n        // Try to parse `chr`:\\n        // - Case 1: [0-9]\\n        // - Case 2: [a-f]\\n        // - Case 3: [A-F]\\n        // - otherwise not supported\\n        unchecked {\\n            if (value > 47 && value < 58) value -= 48;\\n            else if (value > 96 && value < 103) value -= 87;\\n            else if (value > 64 && value < 71) value -= 55;\\n            else return type(uint8).max;\\n        }\\n\\n        return value;\\n    }\\n\\n    /**\\n     * @dev Escape special characters in JSON strings. This can be useful to prevent JSON injection in NFT metadata.\\n     *\\n     * WARNING: This function should only be used in double quoted JSON strings. Single quotes are not escaped.\\n     *\\n     * NOTE: This function escapes all unicode characters, and not just the ones in ranges defined in section 2.5 of\\n     * RFC-4627 (U+0000 to U+001F, U+0022 and U+005C). ECMAScript's `JSON.parse` does recover escaped unicode\\n     * characters that are not in this range, but other tooling may provide different results.\\n     */\\n    function escapeJSON(string memory input) internal pure returns (string memory) {\\n        bytes memory buffer = bytes(input);\\n        bytes memory output = new bytes(2 * buffer.length); // worst case scenario\\n        uint256 outputLength = 0;\\n\\n        for (uint256 i; i < buffer.length; ++i) {\\n            bytes1 char = bytes1(_unsafeReadBytesOffset(buffer, i));\\n            if (((SPECIAL_CHARS_LOOKUP & (1 << uint8(char))) != 0)) {\\n                output[outputLength++] = \\\"\\\\\\\\\\\";\\n                if (char == 0x08) output[outputLength++] = \\\"b\\\";\\n                else if (char == 0x09) output[outputLength++] = \\\"t\\\";\\n                else if (char == 0x0a) output[outputLength++] = \\\"n\\\";\\n                else if (char == 0x0c) output[outputLength++] = \\\"f\\\";\\n                else if (char == 0x0d) output[outputLength++] = \\\"r\\\";\\n                else if (char == 0x5c) output[outputLength++] = \\\"\\\\\\\\\\\";\\n                else if (char == 0x22) {\\n                    // solhint-disable-next-line quotes\\n                    output[outputLength++] = '\\\"';\\n                }\\n            } else {\\n                output[outputLength++] = char;\\n            }\\n        }\\n        // write the actual length and deallocate unused memory\\n        assembly (\\\"memory-safe\\\") {\\n            mstore(output, outputLength)\\n            mstore(0x40, add(output, shl(5, shr(5, add(outputLength, 63)))))\\n        }\\n\\n        return string(output);\\n    }\\n\\n    /**\\n     * @dev Reads a bytes32 from a bytes array without bounds checking.\\n     *\\n     * NOTE: making this function internal would mean it could be used with memory unsafe offset, and marking the\\n     * assembly block as such would prevent some optimizations.\\n     */\\n    function _unsafeReadBytesOffset(bytes memory buffer, uint256 offset) private pure returns (bytes32 value) {\\n        // This is not memory safe in the general case, but all calls to this private function are within bounds.\\n        assembly (\\\"memory-safe\\\") {\\n            value := mload(add(add(buffer, 0x20), offset))\\n        }\\n    }\\n}\\n\"},\"@openzeppelin/contracts/utils/StorageSlot.sol\":{\"content\":\"// SPDX-License-Identifier: MIT\\n// OpenZeppelin Contracts (last updated v5.1.0) (utils/StorageSlot.sol)\\n// This file was procedurally generated from scripts/generate/templates/StorageSlot.js.\\n\\npragma solidity ^0.8.20;\\n\\n/**\\n * @dev Library for reading and writing primitive types to specific storage slots.\\n *\\n * Storage slots are often used to avoid storage conflict when dealing with upgradeable contracts.\\n * This library helps with reading and writing to such slots without the need for inline assembly.\\n *\\n * The functions in this library return Slot structs that contain a `value` member that can be used to read or write.\\n *\\n * Example usage to set ERC-1967 implementation slot:\\n * ```solidity\\n * contract ERC1967 {\\n *     // Define the slot. Alternatively, use the SlotDerivation library to derive the slot.\\n *     bytes32 internal constant _IMPLEMENTATION_SLOT = 0x360894a13ba1a3210667c828492db98dca3e2076cc3735a920a3ca505d382bbc;\\n *\\n *     function _getImplementation() internal view returns (address) {\\n *         return StorageSlot.getAddressSlot(_IMPLEMENTATION_SLOT).value;\\n *     }\\n *\\n *     function _setImplementation(address newImplementation) internal {\\n *         require(newImplementation.code.length > 0);\\n *         StorageSlot.getAddressSlot(_IMPLEMENTATION_SLOT).value = newImplementation;\\n *     }\\n * }\\n * ```\\n *\\n * TIP: Consider using this library along with {SlotDerivation}.\\n */\\nlibrary StorageSlot {\\n    struct AddressSlot {\\n        address value;\\n    }\\n\\n    struct BooleanSlot {\\n        bool value;\\n    }\\n\\n    struct Bytes32Slot {\\n        bytes32 value;\\n    }\\n\\n    struct Uint256Slot {\\n        uint256 value;\\n    }\\n\\n    struct Int256Slot {\\n        int256 value;\\n    }\\n\\n    struct StringSlot {\\n        string value;\\n    }\\n\\n    struct BytesSlot {\\n        bytes value;\\n    }\\n\\n    /**\\n     * @dev Returns an `AddressSlot` with member `value` located at `slot`.\\n     */\\n    function getAddressSlot(bytes32 slot) internal pure returns (AddressSlot storage r) {\\n        assembly (\\\"memory-safe\\\") {\\n            r.slot := slot\\n        }\\n    }\\n\\n    /**\\n     * @dev Returns a `BooleanSlot` with member `value` located at `slot`.\\n     */\\n    function getBooleanSlot(bytes32 slot) internal pure returns (BooleanSlot storage r) {\\n        assembly (\\\"memory-safe\\\") {\\n            r.slot := slot\\n        }\\n    }\\n\\n    /**\\n     * @dev Returns a `Bytes32Slot` with member `value` located at `slot`.\\n     */\\n    function getBytes32Slot(bytes32 slot) internal pure returns (Bytes32Slot storage r) {\\n        assembly (\\\"memory-safe\\\") {\\n            r.slot := slot\\n        }\\n    }\\n\\n    /**\\n     * @dev Returns a `Uint256Slot` with member `value` located at `slot`.\\n     */\\n    function getUint256Slot(bytes32 slot) internal pure returns (Uint256Slot storage r) {\\n        assembly (\\\"memory-safe\\\") {\\n            r.slot := slot\\n        }\\n    }\\n\\n    /**\\n     * @dev Returns a `Int256Slot` with member `value` located at `slot`.\\n     */\\n    function getInt256Slot(bytes32 slot) internal pure returns (Int256Slot storage r) {\\n        assembly (\\\"memory-safe\\\") {\\n            r.slot := slot\\n        }\\n    }\\n\\n    /**\\n     * @dev Returns a `StringSlot` with member `value` located at `slot`.\\n     */\\n    function getStringSlot(bytes32 slot) internal pure returns (StringSlot storage r) {\\n        assembly (\\\"memory-safe\\\") {\\n            r.slot := slot\\n        }\\n    }\\n\\n    /**\\n     * @dev Returns an `StringSlot` representation of the string storage pointer `store`.\\n     */\\n    function getStringSlot(string storage store) internal pure returns (StringSlot storage r) {\\n        assembly (\\\"memory-safe\\\") {\\n            r.slot := store.slot\\n        }\\n    }\\n\\n    /**\\n     * @dev Returns a `BytesSlot` with member `value` located at `slot`.\\n     */\\n    function getBytesSlot(bytes32 slot) internal pure returns (BytesSlot storage r) {\\n        assembly (\\\"memory-safe\\\") {\\n            r.slot := slot\\n        }\\n    }\\n\\n    /**\\n     * @dev Returns an `BytesSlot` representation of the bytes storage pointer `store`.\\n     */\\n    function getBytesSlot(bytes storage store) internal pure returns (BytesSlot storage r) {\\n        assembly (\\\"memory-safe\\\") {\\n            r.slot := store.slot\\n        }\\n    }\\n}\\n\"},\"@openzeppelin/contracts/utils/types/Time.sol\":{\"content\":\"// SPDX-License-Identifier: MIT\\n// OpenZeppelin Contracts (last updated v5.1.0) (utils/types/Time.sol)\\n\\npragma solidity ^0.8.20;\\n\\nimport {Math} from \\\"../math/Math.sol\\\";\\nimport {SafeCast} from \\\"../math/SafeCast.sol\\\";\\n\\n/**\\n * @dev This library provides helpers for manipulating time-related objects.\\n *\\n * It uses the following types:\\n * - `uint48` for timepoints\\n * - `uint32` for durations\\n *\\n * While the library doesn't provide specific types for timepoints and duration, it does provide:\\n * - a `Delay` type to represent duration that can be programmed to change value automatically at a given point\\n * - additional helper functions\\n */\\nlibrary Time {\\n    using Time for *;\\n\\n    /**\\n     * @dev Get the block timestamp as a Timepoint.\\n     */\\n    function timestamp() internal view returns (uint48) {\\n        return SafeCast.toUint48(block.timestamp);\\n    }\\n\\n    /**\\n     * @dev Get the block number as a Timepoint.\\n     */\\n    function blockNumber() internal view returns (uint48) {\\n        return SafeCast.toUint48(block.number);\\n    }\\n\\n    // ==================================================== Delay =====================================================\\n    /**\\n     * @dev A `Delay` is a uint32 duration that can be programmed to change value automatically at a given point in the\\n     * future. The \\\"effect\\\" timepoint describes when the transitions happens from the \\\"old\\\" value to the \\\"new\\\" value.\\n     * This allows updating the delay applied to some operation while keeping some guarantees.\\n     *\\n     * In particular, the {update} function guarantees that if the delay is reduced, the old delay still applies for\\n     * some time. For example if the delay is currently 7 days to do an upgrade, the admin should not be able to set\\n     * the delay to 0 and upgrade immediately. If the admin wants to reduce the delay, the old delay (7 days) should\\n     * still apply for some time.\\n     *\\n     *\\n     * The `Delay` type is 112 bits long, and packs the following:\\n     *\\n     * ```\\n     *   | [uint48]: effect date (timepoint)\\n     *   |           | [uint32]: value before (duration)\\n     *                      [uint32]: value after (duration)\\n     * 0xAAAAAAAAAAAABBBBBBBBCCCCCCCC\\n     * ```\\n     *\\n     * NOTE: The {get} and {withUpdate} functions operate using timestamps. Block number based delays are not currently\\n     * supported.\\n     */\\n    type Delay is uint112;\\n\\n    /**\\n     * @dev Wrap a duration into a Delay to add the one-step \\\"update in the future\\\" feature\\n     */\\n    function toDelay(uint32 duration) internal pure returns (Delay) {\\n        return Delay.wrap(duration);\\n    }\\n\\n    /**\\n     * @dev Get the value at a given timepoint plus the pending value and effect timepoint if there is a scheduled\\n     * change after this timepoint. If the effect timepoint is 0, then the pending value should not be considered.\\n     */\\n    function _getFullAt(\\n        Delay self,\\n        uint48 timepoint\\n    ) private pure returns (uint32 valueBefore, uint32 valueAfter, uint48 effect) {\\n        (valueBefore, valueAfter, effect) = self.unpack();\\n        return effect <= timepoint ? (valueAfter, 0, 0) : (valueBefore, valueAfter, effect);\\n    }\\n\\n    /**\\n     * @dev Get the current value plus the pending value and effect timepoint if there is a scheduled change. If the\\n     * effect timepoint is 0, then the pending value should not be considered.\\n     */\\n    function getFull(Delay self) internal view returns (uint32 valueBefore, uint32 valueAfter, uint48 effect) {\\n        return _getFullAt(self, timestamp());\\n    }\\n\\n    /**\\n     * @dev Get the current value.\\n     */\\n    function get(Delay self) internal view returns (uint32) {\\n        (uint32 delay, , ) = self.getFull();\\n        return delay;\\n    }\\n\\n    /**\\n     * @dev Update a Delay object so that it takes a new duration after a timepoint that is automatically computed to\\n     * enforce the old delay at the moment of the update. Returns the updated Delay object and the timestamp when the\\n     * new delay becomes effective.\\n     */\\n    function withUpdate(\\n        Delay self,\\n        uint32 newValue,\\n        uint32 minSetback\\n    ) internal view returns (Delay updatedDelay, uint48 effect) {\\n        uint32 value = self.get();\\n        uint32 setback = uint32(Math.max(minSetback, value > newValue ? value - newValue : 0));\\n        effect = timestamp() + setback;\\n        return (pack(value, newValue, effect), effect);\\n    }\\n\\n    /**\\n     * @dev Split a delay into its components: valueBefore, valueAfter and effect (transition timepoint).\\n     */\\n    function unpack(Delay self) internal pure returns (uint32 valueBefore, uint32 valueAfter, uint48 effect) {\\n        uint112 raw = Delay.unwrap(self);\\n\\n        valueAfter = uint32(raw);\\n        valueBefore = uint32(raw >> 32);\\n        effect = uint48(raw >> 64);\\n\\n        return (valueBefore, valueAfter, effect);\\n    }\\n\\n    /**\\n     * @dev pack the components into a Delay object.\\n     */\\n    function pack(uint32 valueBefore, uint32 valueAfter, uint48 effect) internal pure returns (Delay) {\\n        return Delay.wrap((uint112(effect) << 64) | (uint112(valueBefore) << 32) | uint112(valueAfter));\\n    }\\n}\\n\"},\"@openzeppelin/contracts/utils/math/SafeCast.sol\":{\"content\":\"// SPDX-License-Identifier: MIT\\n// OpenZeppelin Contracts (last updated v5.1.0) (utils/math/SafeCast.sol)\\n// This file was procedurally generated from scripts/generate/templates/SafeCast.js.\\n\\npragma solidity ^0.8.20;\\n\\n/**\\n * @dev Wrappers over Solidity's uintXX/intXX/bool casting operators with added overflow\\n * checks.\\n *\\n * Downcasting from uint256/int256 in Solidity does not revert on overflow. This can\\n * easily result in undesired exploitation or bugs, since developers usually\\n * assume that overflows raise errors. `SafeCast` restores this intuition by\\n * reverting the transaction when such an operation overflows.\\n *\\n * Using this library instead of the unchecked operations eliminates an entire\\n * class of bugs, so it's recommended to use it always.\\n */\\nlibrary SafeCast {\\n    /**\\n     * @dev Value doesn't fit in an uint of `bits` size.\\n     */\\n    error SafeCastOverflowedUintDowncast(uint8 bits, uint256 value);\\n\\n    /**\\n     * @dev An int value doesn't fit in an uint of `bits` size.\\n     */\\n    error SafeCastOverflowedIntToUint(int256 value);\\n\\n    /**\\n     * @dev Value doesn't fit in an int of `bits` size.\\n     */\\n    error SafeCastOverflowedIntDowncast(uint8 bits, int256 value);\\n\\n    /**\\n     * @dev An uint value doesn't fit in an int of `bits` size.\\n     */\\n    error SafeCastOverflowedUintToInt(uint256 value);\\n\\n    /**\\n     * @dev Returns the downcasted uint248 from uint256, reverting on\\n     * overflow (when the input is greater than largest uint248).\\n     *\\n     * Counterpart to Solidity's `uint248` operator.\\n     *\\n     * Requirements:\\n     *\\n     * - input must fit into 248 bits\\n     */\\n    function toUint248(uint256 value) internal pure returns (uint248) {\\n        if (value > type(uint248).max) {\\n            revert SafeCastOverflowedUintDowncast(248, value);\\n        }\\n        return uint248(value);\\n    }\\n\\n    /**\\n     * @dev Returns the downcasted uint240 from uint256, reverting on\\n     * overflow (when the input is greater than largest uint240).\\n     *\\n     * Counterpart to Solidity's `uint240` operator.\\n     *\\n     * Requirements:\\n     *\\n     * - input must fit into 240 bits\\n     */\\n    function toUint240(uint256 value) internal pure returns (uint240) {\\n        if (value > type(uint240).max) {\\n            revert SafeCastOverflowedUintDowncast(240, value);\\n        }\\n        return uint240(value);\\n    }\\n\\n    /**\\n     * @dev Returns the downcasted uint232 from uint256, reverting on\\n     * overflow (when the input is greater than largest uint232).\\n     *\\n     * Counterpart to Solidity's `uint232` operator.\\n     *\\n     * Requirements:\\n     *\\n     * - input must fit into 232 bits\\n     */\\n    function toUint232(uint256 value) internal pure returns (uint232) {\\n        if (value > type(uint232).max) {\\n            revert SafeCastOverflowedUintDowncast(232, value);\\n        }\\n        return uint232(value);\\n    }\\n\\n    /**\\n     * @dev Returns the downcasted uint224 from uint256, reverting on\\n     * overflow (when the input is greater than largest uint224).\\n     *\\n     * Counterpart to Solidity's `uint224` operator.\\n     *\\n     * Requirements:\\n     *\\n     * - input must fit into 224 bits\\n     */\\n    function toUint224(uint256 value) internal pure returns (uint224) {\\n        if (value > type(uint224).max) {\\n            revert SafeCastOverflowedUintDowncast(224, value);\\n        }\\n        return uint224(value);\\n    }\\n\\n    /**\\n     * @dev Returns the downcasted uint216 from uint256, reverting on\\n     * overflow (when the input is greater than largest uint216).\\n     *\\n     * Counterpart to Solidity's `uint216` operator.\\n     *\\n     * Requirements:\\n     *\\n     * - input must fit into 216 bits\\n     */\\n    function toUint216(uint256 value) internal pure returns (uint216) {\\n        if (value > type(uint216).max) {\\n            revert SafeCastOverflowedUintDowncast(216, value);\\n        }\\n        return uint216(value);\\n    }\\n\\n    /**\\n     * @dev Returns the downcasted uint208 from uint256, reverting on\\n     * overflow (when the input is greater than largest uint208).\\n     *\\n     * Counterpart to Solidity's `uint208` operator.\\n     *\\n     * Requirements:\\n     *\\n     * - input must fit into 208 bits\\n     */\\n    function toUint208(uint256 value) internal pure returns (uint208) {\\n        if (value > type(uint208).max) {\\n            revert SafeCastOverflowedUintDowncast(208, value);\\n        }\\n        return uint208(value);\\n    }\\n\\n    /**\\n     * @dev Returns the downcasted uint200 from uint256, reverting on\\n     * overflow (when the input is greater than largest uint200).\\n     *\\n     * Counterpart to Solidity's `uint200` operator.\\n     *\\n     * Requirements:\\n     *\\n     * - input must fit into 200 bits\\n     */\\n    function toUint200(uint256 value) internal pure returns (uint200) {\\n        if (value > type(uint200).max) {\\n            revert SafeCastOverflowedUintDowncast(200, value);\\n        }\\n        return uint200(value);\\n    }\\n\\n    /**\\n     * @dev Returns the downcasted uint192 from uint256, reverting on\\n     * overflow (when the input is greater than largest uint192).\\n     *\\n     * Counterpart to Solidity's `uint192` operator.\\n     *\\n     * Requirements:\\n     *\\n     * - input must fit into 192 bits\\n     */\\n    function toUint192(uint256 value) internal pure returns (uint192) {\\n        if (value > type(uint192).max) {\\n            revert SafeCastOverflowedUintDowncast(192, value);\\n        }\\n        return uint192(value);\\n    }\\n\\n    /**\\n     * @dev Returns the downcasted uint184 from uint256, reverting on\\n     * overflow (when the input is greater than largest uint184).\\n     *\\n     * Counterpart to Solidity's `uint184` operator.\\n     *\\n     * Requirements:\\n     *\\n     * - input must fit into 184 bits\\n     */\\n    function toUint184(uint256 value) internal pure returns (uint184) {\\n        if (value > type(uint184).max) {\\n            revert SafeCastOverflowedUintDowncast(184, value);\\n        }\\n        return uint184(value);\\n    }\\n\\n    /**\\n     * @dev Returns the downcasted uint176 from uint256, reverting on\\n     * overflow (when the input is greater than largest uint176).\\n     *\\n     * Counterpart to Solidity's `uint176` operator.\\n     *\\n     * Requirements:\\n     *\\n     * - input must fit into 176 bits\\n     */\\n    function toUint176(uint256 value) internal pure returns (uint176) {\\n        if (value > type(uint176).max) {\\n            revert SafeCastOverflowedUintDowncast(176, value);\\n        }\\n        return uint176(value);\\n    }\\n\\n    /**\\n     * @dev Returns the downcasted uint168 from uint256, reverting on\\n     * overflow (when the input is greater than largest uint168).\\n     *\\n     * Counterpart to Solidity's `uint168` operator.\\n     *\\n     * Requirements:\\n     *\\n     * - input must fit into 168 bits\\n     */\\n    function toUint168(uint256 value) internal pure returns (uint168) {\\n        if (value > type(uint168).max) {\\n            revert SafeCastOverflowedUintDowncast(168, value);\\n        }\\n        return uint168(value);\\n    }\\n\\n    /**\\n     * @dev Returns the downcasted uint160 from uint256, reverting on\\n     * overflow (when the input is greater than largest uint160).\\n     *\\n     * Counterpart to Solidity's `uint160` operator.\\n     *\\n     * Requirements:\\n     *\\n     * - input must fit into 160 bits\\n     */\\n    function toUint160(uint256 value) internal pure returns (uint160) {\\n        if (value > type(uint160).max) {\\n            revert SafeCastOverflowedUintDowncast(160, value);\\n        }\\n        return uint160(value);\\n    }\\n\\n    /**\\n     * @dev Returns the downcasted uint152 from uint256, reverting on\\n     * overflow (when the input is greater than largest uint152).\\n     *\\n     * Counterpart to Solidity's `uint152` operator.\\n     *\\n     * Requirements:\\n     *\\n     * - input must fit into 152 bits\\n     */\\n    function toUint152(uint256 value) internal pure returns (uint152) {\\n        if (value > type(uint152).max) {\\n            revert SafeCastOverflowedUintDowncast(152, value);\\n        }\\n        return uint152(value);\\n    }\\n\\n    /**\\n     * @dev Returns the downcasted uint144 from uint256, reverting on\\n     * overflow (when the input is greater than largest uint144).\\n     *\\n     * Counterpart to Solidity's `uint144` operator.\\n     *\\n     * Requirements:\\n     *\\n     * - input must fit into 144 bits\\n     */\\n    function toUint144(uint256 value) internal pure returns (uint144) {\\n        if (value > type(uint144).max) {\\n            revert SafeCastOverflowedUintDowncast(144, value);\\n        }\\n        return uint144(value);\\n    }\\n\\n    /**\\n     * @dev Returns the downcasted uint136 from uint256, reverting on\\n     * overflow (when the input is greater than largest uint136).\\n     *\\n     * Counterpart to Solidity's `uint136` operator.\\n     *\\n     * Requirements:\\n     *\\n     * - input must fit into 136 bits\\n     */\\n    function toUint136(uint256 value) internal pure returns (uint136) {\\n        if (value > type(uint136).max) {\\n            revert SafeCastOverflowedUintDowncast(136, value);\\n        }\\n        return uint136(value);\\n    }\\n\\n    /**\\n     * @dev Returns the downcasted uint128 from uint256, reverting on\\n     * overflow (when the input is greater than largest uint128).\\n     *\\n     * Counterpart to Solidity's `uint128` operator.\\n     *\\n     * Requirements:\\n     *\\n     * - input must fit into 128 bits\\n     */\\n    function toUint128(uint256 value) internal pure returns (uint128) {\\n        if (value > type(uint128).max) {\\n            revert SafeCastOverflowedUintDowncast(128, value);\\n        }\\n        return uint128(value);\\n    }\\n\\n    /**\\n     * @dev Returns the downcasted uint120 from uint256, reverting on\\n     * overflow (when the input is greater than largest uint120).\\n     *\\n     * Counterpart to Solidity's `uint120` operator.\\n     *\\n     * Requirements:\\n     *\\n     * - input must fit into 120 bits\\n     */\\n    function toUint120(uint256 value) internal pure returns (uint120) {\\n        if (value > type(uint120).max) {\\n            revert SafeCastOverflowedUintDowncast(120, value);\\n        }\\n        return uint120(value);\\n    }\\n\\n    /**\\n     * @dev Returns the downcasted uint112 from uint256, reverting on\\n     * overflow (when the input is greater than largest uint112).\\n     *\\n     * Counterpart to Solidity's `uint112` operator.\\n     *\\n     * Requirements:\\n     *\\n     * - input must fit into 112 bits\\n     */\\n    function toUint112(uint256 value) internal pure returns (uint112) {\\n        if (value > type(uint112).max) {\\n            revert SafeCastOverflowedUintDowncast(112, value);\\n        }\\n        return uint112(value);\\n    }\\n\\n    /**\\n     * @dev Returns the downcasted uint104 from uint256, reverting on\\n     * overflow (when the input is greater than largest uint104).\\n     *\\n     * Counterpart to Solidity's `uint104` operator.\\n     *\\n     * Requirements:\\n     *\\n     * - input must fit into 104 bits\\n     */\\n    function toUint104(uint256 value) internal pure returns (uint104) {\\n        if (value > type(uint104).max) {\\n            revert SafeCastOverflowedUintDowncast(104, value);\\n        }\\n        return uint104(value);\\n    }\\n\\n    /**\\n     * @dev Returns the downcasted uint96 from uint256, reverting on\\n     * overflow (when the input is greater than largest uint96).\\n     *\\n     * Counterpart to Solidity's `uint96` operator.\\n     *\\n     * Requirements:\\n     *\\n     * - input must fit into 96 bits\\n     */\\n    function toUint96(uint256 value) internal pure returns (uint96) {\\n        if (value > type(uint96).max) {\\n            revert SafeCastOverflowedUintDowncast(96, value);\\n        }\\n        return uint96(value);\\n    }\\n\\n    /**\\n     * @dev Returns the downcasted uint88 from uint256, reverting on\\n     * overflow (when the input is greater than largest uint88).\\n     *\\n     * Counterpart to Solidity's `uint88` operator.\\n     *\\n     * Requirements:\\n     *\\n     * - input must fit into 88 bits\\n     */\\n    function toUint88(uint256 value) internal pure returns (uint88) {\\n        if (value > type(uint88).max) {\\n            revert SafeCastOverflowedUintDowncast(88, value);\\n        }\\n        return uint88(value);\\n    }\\n\\n    /**\\n     * @dev Returns the downcasted uint80 from uint256, reverting on\\n     * overflow (when the input is greater than largest uint80).\\n     *\\n     * Counterpart to Solidity's `uint80` operator.\\n     *\\n     * Requirements:\\n     *\\n     * - input must fit into 80 bits\\n     */\\n    function toUint80(uint256 value) internal pure returns (uint80) {\\n        if (value > type(uint80).max) {\\n            revert SafeCastOverflowedUintDowncast(80, value);\\n        }\\n        return uint80(value);\\n    }\\n\\n    /**\\n     * @dev Returns the downcasted uint72 from uint256, reverting on\\n     * overflow (when the input is greater than largest uint72).\\n     *\\n     * Counterpart to Solidity's `uint72` operator.\\n     *\\n     * Requirements:\\n     *\\n     * - input must fit into 72 bits\\n     */\\n    function toUint72(uint256 value) internal pure returns (uint72) {\\n        if (value > type(uint72).max) {\\n            revert SafeCastOverflowedUintDowncast(72, value);\\n        }\\n        return uint72(value);\\n    }\\n\\n    /**\\n     * @dev Returns the downcasted uint64 from uint256, reverting on\\n     * overflow (when the input is greater than largest uint64).\\n     *\\n     * Counterpart to Solidity's `uint64` operator.\\n     *\\n     * Requirements:\\n     *\\n     * - input must fit into 64 bits\\n     */\\n    function toUint64(uint256 value) internal pure returns (uint64) {\\n        if (value > type(uint64).max) {\\n            revert SafeCastOverflowedUintDowncast(64, value);\\n        }\\n        return uint64(value);\\n    }\\n\\n    /**\\n     * @dev Returns the downcasted uint56 from uint256, reverting on\\n     * overflow (when the input is greater than largest uint56).\\n     *\\n     * Counterpart to Solidity's `uint56` operator.\\n     *\\n     * Requirements:\\n     *\\n     * - input must fit into 56 bits\\n     */\\n    function toUint56(uint256 value) internal pure returns (uint56) {\\n        if (value > type(uint56).max) {\\n            revert SafeCastOverflowedUintDowncast(56, value);\\n        }\\n        return uint56(value);\\n    }\\n\\n    /**\\n     * @dev Returns the downcasted uint48 from uint256, reverting on\\n     * overflow (when the input is greater than largest uint48).\\n     *\\n     * Counterpart to Solidity's `uint48` operator.\\n     *\\n     * Requirements:\\n     *\\n     * - input must fit into 48 bits\\n     */\\n    function toUint48(uint256 value) internal pure returns (uint48) {\\n        if (value > type(uint48).max) {\\n            revert SafeCastOverflowedUintDowncast(48, value);\\n        }\\n        return uint48(value);\\n    }\\n\\n    /**\\n     * @dev Returns the downcasted uint40 from uint256, reverting on\\n     * overflow (when the input is greater than largest uint40).\\n     *\\n     * Counterpart to Solidity's `uint40` operator.\\n     *\\n     * Requirements:\\n     *\\n     * - input must fit into 40 bits\\n     */\\n    function toUint40(uint256 value) internal pure returns (uint40) {\\n        if (value > type(uint40).max) {\\n            revert SafeCastOverflowedUintDowncast(40, value);\\n        }\\n        return uint40(value);\\n    }\\n\\n    /**\\n     * @dev Returns the downcasted uint32 from uint256, reverting on\\n     * overflow (when the input is greater than largest uint32).\\n     *\\n     * Counterpart to Solidity's `uint32` operator.\\n     *\\n     * Requirements:\\n     *\\n     * - input must fit into 32 bits\\n     */\\n    function toUint32(uint256 value) internal pure returns (uint32) {\\n        if (value > type(uint32).max) {\\n            revert SafeCastOverflowedUintDowncast(32, value);\\n        }\\n        return uint32(value);\\n    }\\n\\n    /**\\n     * @dev Returns the downcasted uint24 from uint256, reverting on\\n     * overflow (when the input is greater than largest uint24).\\n     *\\n     * Counterpart to Solidity's `uint24` operator.\\n     *\\n     * Requirements:\\n     *\\n     * - input must fit into 24 bits\\n     */\\n    function toUint24(uint256 value) internal pure returns (uint24) {\\n        if (value > type(uint24).max) {\\n            revert SafeCastOverflowedUintDowncast(24, value);\\n        }\\n        return uint24(value);\\n    }\\n\\n    /**\\n     * @dev Returns the downcasted uint16 from uint256, reverting on\\n     * overflow (when the input is greater than largest uint16).\\n     *\\n     * Counterpart to Solidity's `uint16` operator.\\n     *\\n     * Requirements:\\n     *\\n     * - input must fit into 16 bits\\n     */\\n    function toUint16(uint256 value) internal pure returns (uint16) {\\n        if (value > type(uint16).max) {\\n            revert SafeCastOverflowedUintDowncast(16, value);\\n        }\\n        return uint16(value);\\n    }\\n\\n    /**\\n     * @dev Returns the downcasted uint8 from uint256, reverting on\\n     * overflow (when the input is greater than largest uint8).\\n     *\\n     * Counterpart to Solidity's `uint8` operator.\\n     *\\n     * Requirements:\\n     *\\n     * - input must fit into 8 bits\\n     */\\n    function toUint8(uint256 value) internal pure returns (uint8) {\\n        if (value > type(uint8).max) {\\n            revert SafeCastOverflowedUintDowncast(8, value);\\n        }\\n        return uint8(value);\\n    }\\n\\n    /**\\n     * @dev Converts a signed int256 into an unsigned uint256.\\n     *\\n     * Requirements:\\n     *\\n     * - input must be greater than or equal to 0.\\n     */\\n    function toUint256(int256 value) internal pure returns (uint256) {\\n        if (value < 0) {\\n            revert SafeCastOverflowedIntToUint(value);\\n        }\\n        return uint256(value);\\n    }\\n\\n    /**\\n     * @dev Returns the downcasted int248 from int256, reverting on\\n     * overflow (when the input is less than smallest int248 or\\n     * greater than largest int248).\\n     *\\n     * Counterpart to Solidity's `int248` operator.\\n     *\\n     * Requirements:\\n     *\\n     * - input must fit into 248 bits\\n     */\\n    function toInt248(int256 value) internal pure returns (int248 downcasted) {\\n        downcasted = int248(value);\\n        if (downcasted != value) {\\n            revert SafeCastOverflowedIntDowncast(248, value);\\n        }\\n    }\\n\\n    /**\\n     * @dev Returns the downcasted int240 from int256, reverting on\\n     * overflow (when the input is less than smallest int240 or\\n     * greater than largest int240).\\n     *\\n     * Counterpart to Solidity's `int240` operator.\\n     *\\n     * Requirements:\\n     *\\n     * - input must fit into 240 bits\\n     */\\n    function toInt240(int256 value) internal pure returns (int240 downcasted) {\\n        downcasted = int240(value);\\n        if (downcasted != value) {\\n            revert SafeCastOverflowedIntDowncast(240, value);\\n        }\\n    }\\n\\n    /**\\n     * @dev Returns the downcasted int232 from int256, reverting on\\n     * overflow (when the input is less than smallest int232 or\\n     * greater than largest int232).\\n     *\\n     * Counterpart to Solidity's `int232` operator.\\n     *\\n     * Requirements:\\n     *\\n     * - input must fit into 232 bits\\n     */\\n    function toInt232(int256 value) internal pure returns (int232 downcasted) {\\n        downcasted = int232(value);\\n        if (downcasted != value) {\\n            revert SafeCastOverflowedIntDowncast(232, value);\\n        }\\n    }\\n\\n    /**\\n     * @dev Returns the downcasted int224 from int256, reverting on\\n     * overflow (when the input is less than smallest int224 or\\n     * greater than largest int224).\\n     *\\n     * Counterpart to Solidity's `int224` operator.\\n     *\\n     * Requirements:\\n     *\\n     * - input must fit into 224 bits\\n     */\\n    function toInt224(int256 value) internal pure returns (int224 downcasted) {\\n        downcasted = int224(value);\\n        if (downcasted != value) {\\n            revert SafeCastOverflowedIntDowncast(224, value);\\n        }\\n    }\\n\\n    /**\\n     * @dev Returns the downcasted int216 from int256, reverting on\\n     * overflow (when the input is less than smallest int216 or\\n     * greater than largest int216).\\n     *\\n     * Counterpart to Solidity's `int216` operator.\\n     *\\n     * Requirements:\\n     *\\n     * - input must fit into 216 bits\\n     */\\n    function toInt216(int256 value) internal pure returns (int216 downcasted) {\\n        downcasted = int216(value);\\n        if (downcasted != value) {\\n            revert SafeCastOverflowedIntDowncast(216, value);\\n        }\\n    }\\n\\n    /**\\n     * @dev Returns the downcasted int208 from int256, reverting on\\n     * overflow (when the input is less than smallest int208 or\\n     * greater than largest int208).\\n     *\\n     * Counterpart to Solidity's `int208` operator.\\n     *\\n     * Requirements:\\n     *\\n     * - input must fit into 208 bits\\n     */\\n    function toInt208(int256 value) internal pure returns (int208 downcasted) {\\n        downcasted = int208(value);\\n        if (downcasted != value) {\\n            revert SafeCastOverflowedIntDowncast(208, value);\\n        }\\n    }\\n\\n    /**\\n     * @dev Returns the downcasted int200 from int256, reverting on\\n     * overflow (when the input is less than smallest int200 or\\n     * greater than largest int200).\\n     *\\n     * Counterpart to Solidity's `int200` operator.\\n     *\\n     * Requirements:\\n     *\\n     * - input must fit into 200 bits\\n     */\\n    function toInt200(int256 value) internal pure returns (int200 downcasted) {\\n        downcasted = int200(value);\\n        if (downcasted != value) {\\n            revert SafeCastOverflowedIntDowncast(200, value);\\n        }\\n    }\\n\\n    /**\\n     * @dev Returns the downcasted int192 from int256, reverting on\\n     * overflow (when the input is less than smallest int192 or\\n     * greater than largest int192).\\n     *\\n     * Counterpart to Solidity's `int192` operator.\\n     *\\n     * Requirements:\\n     *\\n     * - input must fit into 192 bits\\n     */\\n    function toInt192(int256 value) internal pure returns (int192 downcasted) {\\n        downcasted = int192(value);\\n        if (downcasted != value) {\\n            revert SafeCastOverflowedIntDowncast(192, value);\\n        }\\n    }\\n\\n    /**\\n     * @dev Returns the downcasted int184 from int256, reverting on\\n     * overflow (when the input is less than smallest int184 or\\n     * greater than largest int184).\\n     *\\n     * Counterpart to Solidity's `int184` operator.\\n     *\\n     * Requirements:\\n     *\\n     * - input must fit into 184 bits\\n     */\\n    function toInt184(int256 value) internal pure returns (int184 downcasted) {\\n        downcasted = int184(value);\\n        if (downcasted != value) {\\n            revert SafeCastOverflowedIntDowncast(184, value);\\n        }\\n    }\\n\\n    /**\\n     * @dev Returns the downcasted int176 from int256, reverting on\\n     * overflow (when the input is less than smallest int176 or\\n     * greater than largest int176).\\n     *\\n     * Counterpart to Solidity's `int176` operator.\\n     *\\n     * Requirements:\\n     *\\n     * - input must fit into 176 bits\\n     */\\n    function toInt176(int256 value) internal pure returns (int176 downcasted) {\\n        downcasted = int176(value);\\n        if (downcasted != value) {\\n            revert SafeCastOverflowedIntDowncast(176, value);\\n        }\\n    }\\n\\n    /**\\n     * @dev Returns the downcasted int168 from int256, reverting on\\n     * overflow (when the input is less than smallest int168 or\\n     * greater than largest int168).\\n     *\\n     * Counterpart to Solidity's `int168` operator.\\n     *\\n     * Requirements:\\n     *\\n     * - input must fit into 168 bits\\n     */\\n    function toInt168(int256 value) internal pure returns (int168 downcasted) {\\n        downcasted = int168(value);\\n        if (downcasted != value) {\\n            revert SafeCastOverflowedIntDowncast(168, value);\\n        }\\n    }\\n\\n    /**\\n     * @dev Returns the downcasted int160 from int256, reverting on\\n     * overflow (when the input is less than smallest int160 or\\n     * greater than largest int160).\\n     *\\n     * Counterpart to Solidity's `int160` operator.\\n     *\\n     * Requirements:\\n     *\\n     * - input must fit into 160 bits\\n     */\\n    function toInt160(int256 value) internal pure returns (int160 downcasted) {\\n        downcasted = int160(value);\\n        if (downcasted != value) {\\n            revert SafeCastOverflowedIntDowncast(160, value);\\n        }\\n    }\\n\\n    /**\\n     * @dev Returns the downcasted int152 from int256, reverting on\\n     * overflow (when the input is less than smallest int152 or\\n     * greater than largest int152).\\n     *\\n     * Counterpart to Solidity's `int152` operator.\\n     *\\n     * Requirements:\\n     *\\n     * - input must fit into 152 bits\\n     */\\n    function toInt152(int256 value) internal pure returns (int152 downcasted) {\\n        downcasted = int152(value);\\n        if (downcasted != value) {\\n            revert SafeCastOverflowedIntDowncast(152, value);\\n        }\\n    }\\n\\n    /**\\n     * @dev Returns the downcasted int144 from int256, reverting on\\n     * overflow (when the input is less than smallest int144 or\\n     * greater than largest int144).\\n     *\\n     * Counterpart to Solidity's `int144` operator.\\n     *\\n     * Requirements:\\n     *\\n     * - input must fit into 144 bits\\n     */\\n    function toInt144(int256 value) internal pure returns (int144 downcasted) {\\n        downcasted = int144(value);\\n        if (downcasted != value) {\\n            revert SafeCastOverflowedIntDowncast(144, value);\\n        }\\n    }\\n\\n    /**\\n     * @dev Returns the downcasted int136 from int256, reverting on\\n     * overflow (when the input is less than smallest int136 or\\n     * greater than largest int136).\\n     *\\n     * Counterpart to Solidity's `int136` operator.\\n     *\\n     * Requirements:\\n     *\\n     * - input must fit into 136 bits\\n     */\\n    function toInt136(int256 value) internal pure returns (int136 downcasted) {\\n        downcasted = int136(value);\\n        if (downcasted != value) {\\n            revert SafeCastOverflowedIntDowncast(136, value);\\n        }\\n    }\\n\\n    /**\\n     * @dev Returns the downcasted int128 from int256, reverting on\\n     * overflow (when the input is less than smallest int128 or\\n     * greater than largest int128).\\n     *\\n     * Counterpart to Solidity's `int128` operator.\\n     *\\n     * Requirements:\\n     *\\n     * - input must fit into 128 bits\\n     */\\n    function toInt128(int256 value) internal pure returns (int128 downcasted) {\\n        downcasted = int128(value);\\n        if (downcasted != value) {\\n            revert SafeCastOverflowedIntDowncast(128, value);\\n        }\\n    }\\n\\n    /**\\n     * @dev Returns the downcasted int120 from int256, reverting on\\n     * overflow (when the input is less than smallest int120 or\\n     * greater than largest int120).\\n     *\\n     * Counterpart to Solidity's `int120` operator.\\n     *\\n     * Requirements:\\n     *\\n     * - input must fit into 120 bits\\n     */\\n    function toInt120(int256 value) internal pure returns (int120 downcasted) {\\n        downcasted = int120(value);\\n        if (downcasted != value) {\\n            revert SafeCastOverflowedIntDowncast(120, value);\\n        }\\n    }\\n\\n    /**\\n     * @dev Returns the downcasted int112 from int256, reverting on\\n     * overflow (when the input is less than smallest int112 or\\n     * greater than largest int112).\\n     *\\n     * Counterpart to Solidity's `int112` operator.\\n     *\\n     * Requirements:\\n     *\\n     * - input must fit into 112 bits\\n     */\\n    function toInt112(int256 value) internal pure returns (int112 downcasted) {\\n        downcasted = int112(value);\\n        if (downcasted != value) {\\n            revert SafeCastOverflowedIntDowncast(112, value);\\n        }\\n    }\\n\\n    /**\\n     * @dev Returns the downcasted int104 from int256, reverting on\\n     * overflow (when the input is less than smallest int104 or\\n     * greater than largest int104).\\n     *\\n     * Counterpart to Solidity's `int104` operator.\\n     *\\n     * Requirements:\\n     *\\n     * - input must fit into 104 bits\\n     */\\n    function toInt104(int256 value) internal pure returns (int104 downcasted) {\\n        downcasted = int104(value);\\n        if (downcasted != value) {\\n            revert SafeCastOverflowedIntDowncast(104, value);\\n        }\\n    }\\n\\n    /**\\n     * @dev Returns the downcasted int96 from int256, reverting on\\n     * overflow (when the input is less than smallest int96 or\\n     * greater than largest int96).\\n     *\\n     * Counterpart to Solidity's `int96` operator.\\n     *\\n     * Requirements:\\n     *\\n     * - input must fit into 96 bits\\n     */\\n    function toInt96(int256 value) internal pure returns (int96 downcasted) {\\n        downcasted = int96(value);\\n        if (downcasted != value) {\\n            revert SafeCastOverflowedIntDowncast(96, value);\\n        }\\n    }\\n\\n    /**\\n     * @dev Returns the downcasted int88 from int256, reverting on\\n     * overflow (when the input is less than smallest int88 or\\n     * greater than largest int88).\\n     *\\n     * Counterpart to Solidity's `int88` operator.\\n     *\\n     * Requirements:\\n     *\\n     * - input must fit into 88 bits\\n     */\\n    function toInt88(int256 value) internal pure returns (int88 downcasted) {\\n        downcasted = int88(value);\\n        if (downcasted != value) {\\n            revert SafeCastOverflowedIntDowncast(88, value);\\n        }\\n    }\\n\\n    /**\\n     * @dev Returns the downcasted int80 from int256, reverting on\\n     * overflow (when the input is less than smallest int80 or\\n     * greater than largest int80).\\n     *\\n     * Counterpart to Solidity's `int80` operator.\\n     *\\n     * Requirements:\\n     *\\n     * - input must fit into 80 bits\\n     */\\n    function toInt80(int256 value) internal pure returns (int80 downcasted) {\\n        downcasted = int80(value);\\n        if (downcasted != value) {\\n            revert SafeCastOverflowedIntDowncast(80, value);\\n        }\\n    }\\n\\n    /**\\n     * @dev Returns the downcasted int72 from int256, reverting on\\n     * overflow (when the input is less than smallest int72 or\\n     * greater than largest int72).\\n     *\\n     * Counterpart to Solidity's `int72` operator.\\n     *\\n     * Requirements:\\n     *\\n     * - input must fit into 72 bits\\n     */\\n    function toInt72(int256 value) internal pure returns (int72 downcasted) {\\n        downcasted = int72(value);\\n        if (downcasted != value) {\\n            revert SafeCastOverflowedIntDowncast(72, value);\\n        }\\n    }\\n\\n    /**\\n     * @dev Returns the downcasted int64 from int256, reverting on\\n     * overflow (when the input is less than smallest int64 or\\n     * greater than largest int64).\\n     *\\n     * Counterpart to Solidity's `int64` operator.\\n     *\\n     * Requirements:\\n     *\\n     * - input must fit into 64 bits\\n     */\\n    function toInt64(int256 value) internal pure returns (int64 downcasted) {\\n        downcasted = int64(value);\\n        if (downcasted != value) {\\n            revert SafeCastOverflowedIntDowncast(64, value);\\n        }\\n    }\\n\\n    /**\\n     * @dev Returns the downcasted int56 from int256, reverting on\\n     * overflow (when the input is less than smallest int56 or\\n     * greater than largest int56).\\n     *\\n     * Counterpart to Solidity's `int56` operator.\\n     *\\n     * Requirements:\\n     *\\n     * - input must fit into 56 bits\\n     */\\n    function toInt56(int256 value) internal pure returns (int56 downcasted) {\\n        downcasted = int56(value);\\n        if (downcasted != value) {\\n            revert SafeCastOverflowedIntDowncast(56, value);\\n        }\\n    }\\n\\n    /**\\n     * @dev Returns the downcasted int48 from int256, reverting on\\n     * overflow (when the input is less than smallest int48 or\\n     * greater than largest int48).\\n     *\\n     * Counterpart to Solidity's `int48` operator.\\n     *\\n     * Requirements:\\n     *\\n     * - input must fit into 48 bits\\n     */\\n    function toInt48(int256 value) internal pure returns (int48 downcasted) {\\n        downcasted = int48(value);\\n        if (downcasted != value) {\\n            revert SafeCastOverflowedIntDowncast(48, value);\\n        }\\n    }\\n\\n    /**\\n     * @dev Returns the downcasted int40 from int256, reverting on\\n     * overflow (when the input is less than smallest int40 or\\n     * greater than largest int40).\\n     *\\n     * Counterpart to Solidity's `int40` operator.\\n     *\\n     * Requirements:\\n     *\\n     * - input must fit into 40 bits\\n     */\\n    function toInt40(int256 value) internal pure returns (int40 downcasted) {\\n        downcasted = int40(value);\\n        if (downcasted != value) {\\n            revert SafeCastOverflowedIntDowncast(40, value);\\n        }\\n    }\\n\\n    /**\\n     * @dev Returns the downcasted int32 from int256, reverting on\\n     * overflow (when the input is less than smallest int32 or\\n     * greater than largest int32).\\n     *\\n     * Counterpart to Solidity's `int32` operator.\\n     *\\n     * Requirements:\\n     *\\n     * - input must fit into 32 bits\\n     */\\n    function toInt32(int256 value) internal pure returns (int32 downcasted) {\\n        downcasted = int32(value);\\n        if (downcasted != value) {\\n            revert SafeCastOverflowedIntDowncast(32, value);\\n        }\\n    }\\n\\n    /**\\n     * @dev Returns the downcasted int24 from int256, reverting on\\n     * overflow (when the input is less than smallest int24 or\\n     * greater than largest int24).\\n     *\\n     * Counterpart to Solidity's `int24` operator.\\n     *\\n     * Requirements:\\n     *\\n     * - input must fit into 24 bits\\n     */\\n    function toInt24(int256 value) internal pure returns (int24 downcasted) {\\n        downcasted = int24(value);\\n        if (downcasted != value) {\\n            revert SafeCastOverflowedIntDowncast(24, value);\\n        }\\n    }\\n\\n    /**\\n     * @dev Returns the downcasted int16 from int256, reverting on\\n     * overflow (when the input is less than smallest int16 or\\n     * greater than largest int16).\\n     *\\n     * Counterpart to Solidity's `int16` operator.\\n     *\\n     * Requirements:\\n     *\\n     * - input must fit into 16 bits\\n     */\\n    function toInt16(int256 value) internal pure returns (int16 downcasted) {\\n        downcasted = int16(value);\\n        if (downcasted != value) {\\n            revert SafeCastOverflowedIntDowncast(16, value);\\n        }\\n    }\\n\\n    /**\\n     * @dev Returns the downcasted int8 from int256, reverting on\\n     * overflow (when the input is less than smallest int8 or\\n     * greater than largest int8).\\n     *\\n     * Counterpart to Solidity's `int8` operator.\\n     *\\n     * Requirements:\\n     *\\n     * - input must fit into 8 bits\\n     */\\n    function toInt8(int256 value) internal pure returns (int8 downcasted) {\\n        downcasted = int8(value);\\n        if (downcasted != value) {\\n            revert SafeCastOverflowedIntDowncast(8, value);\\n        }\\n    }\\n\\n    /**\\n     * @dev Converts an unsigned uint256 into a signed int256.\\n     *\\n     * Requirements:\\n     *\\n     * - input must be less than or equal to maxInt256.\\n     */\\n    function toInt256(uint256 value) internal pure returns (int256) {\\n        // Note: Unsafe cast below is okay because `type(int256).max` is guaranteed to be positive\\n        if (value > uint256(type(int256).max)) {\\n            revert SafeCastOverflowedUintToInt(value);\\n        }\\n        return int256(value);\\n    }\\n\\n    /**\\n     * @dev Cast a boolean (false or true) to a uint256 (0 or 1) with no jump.\\n     */\\n    function toUint(bool b) internal pure returns (uint256 u) {\\n        assembly (\\\"memory-safe\\\") {\\n            u := iszero(iszero(b))\\n        }\\n    }\\n}\\n\"},\"@openzeppelin/contracts/interfaces/IERC5805.sol\":{\"content\":\"// SPDX-License-Identifier: MIT\\n// OpenZeppelin Contracts (last updated v5.4.0) (interfaces/IERC5805.sol)\\n\\npragma solidity >=0.8.4;\\n\\nimport {IVotes} from \\\"../governance/utils/IVotes.sol\\\";\\nimport {IERC6372} from \\\"./IERC6372.sol\\\";\\n\\ninterface IERC5805 is IERC6372, IVotes {}\\n\"},\"@openzeppelin/contracts/utils/Panic.sol\":{\"content\":\"// SPDX-License-Identifier: MIT\\n// OpenZeppelin Contracts (last updated v5.1.0) (utils/Panic.sol)\\n\\npragma solidity ^0.8.20;\\n\\n/**\\n * @dev Helper library for emitting standardized panic codes.\\n *\\n * ```solidity\\n * contract Example {\\n *      using Panic for uint256;\\n *\\n *      // Use any of the declared internal constants\\n *      function foo() { Panic.GENERIC.panic(); }\\n *\\n *      // Alternatively\\n *      function foo() { Panic.panic(Panic.GENERIC); }\\n * }\\n * ```\\n *\\n * Follows the list from https://github.com/ethereum/solidity/blob/v0.8.24/libsolutil/ErrorCodes.h[libsolutil].\\n *\\n * _Available since v5.1._\\n */\\n// slither-disable-next-line unused-state\\nlibrary Panic {\\n    /// @dev generic / unspecified error\\n    uint256 internal constant GENERIC = 0x00;\\n    /// @dev used by the assert() builtin\\n    uint256 internal constant ASSERT = 0x01;\\n    /// @dev arithmetic underflow or overflow\\n    uint256 internal constant UNDER_OVERFLOW = 0x11;\\n    /// @dev division or modulo by zero\\n    uint256 internal constant DIVISION_BY_ZERO = 0x12;\\n    /// @dev enum conversion error\\n    uint256 internal constant ENUM_CONVERSION_ERROR = 0x21;\\n    /// @dev invalid encoding in storage\\n    uint256 internal constant STORAGE_ENCODING_ERROR = 0x22;\\n    /// @dev empty array pop\\n    uint256 internal constant EMPTY_ARRAY_POP = 0x31;\\n    /// @dev array out of bounds access\\n    uint256 internal constant ARRAY_OUT_OF_BOUNDS = 0x32;\\n    /// @dev resource error (too large allocation or too large array)\\n    uint256 internal constant RESOURCE_ERROR = 0x41;\\n    /// @dev calling invalid internal function\\n    uint256 internal constant INVALID_INTERNAL_FUNCTION = 0x51;\\n\\n    /// @dev Reverts with a panic code. Recommended to use with\\n    /// the internal constants with predefined codes.\\n    function panic(uint256 code) internal pure {\\n        assembly (\\\"memory-safe\\\") {\\n            mstore(0x00, 0x4e487b71)\\n            mstore(0x20, code)\\n            revert(0x1c, 0x24)\\n        }\\n    }\\n}\\n\"},\"@openzeppelin/contracts/utils/math/SignedMath.sol\":{\"content\":\"// SPDX-License-Identifier: MIT\\n// OpenZeppelin Contracts (last updated v5.1.0) (utils/math/SignedMath.sol)\\n\\npragma solidity ^0.8.20;\\n\\nimport {SafeCast} from \\\"./SafeCast.sol\\\";\\n\\n/**\\n * @dev Standard signed math utilities missing in the Solidity language.\\n */\\nlibrary SignedMath {\\n    /**\\n     * @dev Branchless ternary evaluation for `a ? b : c`. Gas costs are constant.\\n     *\\n     * IMPORTANT: This function may reduce bytecode size and consume less gas when used standalone.\\n     * However, the compiler may optimize Solidity ternary operations (i.e. `a ? b : c`) to only compute\\n     * one branch when needed, making this function more expensive.\\n     */\\n    function ternary(bool condition, int256 a, int256 b) internal pure returns (int256) {\\n        unchecked {\\n            // branchless ternary works because:\\n            // b ^ (a ^ b) == a\\n            // b ^ 0 == b\\n            return b ^ ((a ^ b) * int256(SafeCast.toUint(condition)));\\n        }\\n    }\\n\\n    /**\\n     * @dev Returns the largest of two signed numbers.\\n     */\\n    function max(int256 a, int256 b) internal pure returns (int256) {\\n        return ternary(a > b, a, b);\\n    }\\n\\n    /**\\n     * @dev Returns the smallest of two signed numbers.\\n     */\\n    function min(int256 a, int256 b) internal pure returns (int256) {\\n        return ternary(a < b, a, b);\\n    }\\n\\n    /**\\n     * @dev Returns the average of two signed numbers without overflow.\\n     * The result is rounded towards zero.\\n     */\\n    function average(int256 a, int256 b) internal pure returns (int256) {\\n        // Formula from the book \\\"Hacker's Delight\\\"\\n        int256 x = (a & b) + ((a ^ b) >> 1);\\n        return x + (int256(uint256(x) >> 255) & (a ^ b));\\n    }\\n\\n    /**\\n     * @dev Returns the absolute unsigned value of a signed value.\\n     */\\n    function abs(int256 n) internal pure returns (uint256) {\\n        unchecked {\\n            // Formula from the \\\"Bit Twiddling Hacks\\\" by Sean Eron Anderson.\\n            // Since `n` is a signed integer, the generated bytecode will use the SAR opcode to perform the right shift,\\n            // taking advantage of the most significant (or \\\"sign\\\" bit) in two's complement representation.\\n            // This opcode adds new most significant bits set to the value of the previous most significant bit. As a result,\\n            // the mask will either be `bytes32(0)` (if n is positive) or `~bytes32(0)` (if n is negative).\\n            int256 mask = n >> 255;\\n\\n            // A `bytes32(0)` mask leaves the input unchanged, while a `~bytes32(0)` mask complements it.\\n            return uint256((n + mask) ^ mask);\\n        }\\n    }\\n}\\n\"},\"@openzeppelin/contracts/interfaces/IERC6372.sol\":{\"content\":\"// SPDX-License-Identifier: MIT\\n// OpenZeppelin Contracts (last updated v5.4.0) (interfaces/IERC6372.sol)\\n\\npragma solidity >=0.4.16;\\n\\ninterface IERC6372 {\\n    /**\\n     * @dev Clock used for flagging checkpoints. Can be overridden to implement timestamp based checkpoints (and voting).\\n     */\\n    function clock() external view returns (uint48);\\n\\n    /**\\n     * @dev Description of the clock\\n     */\\n    // solhint-disable-next-line func-name-mixedcase\\n    function CLOCK_MODE() external view returns (string memory);\\n}\\n\"},\"@openzeppelin/contracts/governance/utils/IVotes.sol\":{\"content\":\"// SPDX-License-Identifier: MIT\\n// OpenZeppelin Contracts (last updated v5.4.0) (governance/utils/IVotes.sol)\\npragma solidity >=0.8.4;\\n\\n/**\\n * @dev Common interface for {ERC20Votes}, {ERC721Votes}, and other {Votes}-enabled contracts.\\n */\\ninterface IVotes {\\n    /**\\n     * @dev The signature used has expired.\\n     */\\n    error VotesExpiredSignature(uint256 expiry);\\n\\n    /**\\n     * @dev Emitted when an account changes their delegate.\\n     */\\n    event DelegateChanged(address indexed delegator, address indexed fromDelegate, address indexed toDelegate);\\n\\n    /**\\n     * @dev Emitted when a token transfer or delegate change results in changes to a delegate's number of voting units.\\n     */\\n    event DelegateVotesChanged(address indexed delegate, uint256 previousVotes, uint256 newVotes);\\n\\n    /**\\n     * @dev Returns the current amount of votes that `account` has.\\n     */\\n    function getVotes(address account) external view returns (uint256);\\n\\n    /**\\n     * @dev Returns the amount of votes that `account` had at a specific moment in the past. If the `clock()` is\\n     * configured to use block numbers, this will return the value at the end of the corresponding block.\\n     */\\n    function getPastVotes(address account, uint256 timepoint) external view returns (uint256);\\n\\n    /**\\n     * @dev Returns the total supply of votes available at a specific moment in the past. If the `clock()` is\\n     * configured to use block numbers, this will return the value at the end of the corresponding block.\\n     *\\n     * NOTE: This value is the sum of all available votes, which is not necessarily the sum of all delegated votes.\\n     * Votes that have not been delegated are still part of total supply, even though they would not participate in a\\n     * vote.\\n     */\\n    function getPastTotalSupply(uint256 timepoint) external view returns (uint256);\\n\\n    /**\\n     * @dev Returns the delegate that `account` has chosen.\\n     */\\n    function delegates(address account) external view returns (address);\\n\\n    /**\\n     * @dev Delegates votes from the sender to `delegatee`.\\n     */\\n    function delegate(address delegatee) external;\\n\\n    /**\\n     * @dev Delegates votes from signer to `delegatee`.\\n     */\\n    function delegateBySig(address delegatee, uint256 nonce, uint256 expiry, uint8 v, bytes32 r, bytes32 s) external;\\n}\\n\"}},\"settings\":{\"optimizer\":{\"enabled\":false,\"runs\":200},\"outputSelection\":{\"*\":{\"\":[\"ast\"],\"*\":[\"abi\",\"metadata\",\"devdoc\",\"userdoc\",\"storageLayout\",\"evm.legacyAssembly\",\"evm.bytecode\",\"evm.deployedBytecode\",\"evm.methodIdentifiers\",\"evm.gasEstimates\",\"evm.assembly\"]}},\"remappings\":[]}}",
	"name": "DAOToken",
	"bytecode": {
		"linkReferences": {},
		"object": "610160604052348015610010575f5ffd5b5060405161582038038061582083398181016040528101906100329190611189565b806040518060400160405280601381526020017f5365637572654769672044414f20546f6b656e000000000000000000000000008152506040518060400160405280600181526020017f31000000000000000000000000000000000000000000000000000000000000008152506040518060400160405280601381526020017f5365637572654769672044414f20546f6b656e000000000000000000000000008152506040518060400160405280600481526020017f5347445400000000000000000000000000000000000000000000000000000000815250816003908161011a91906113f1565b50806004908161012a91906113f1565b5050506101416005836102cc60201b90919060201c565b610120818152505061015d6006826102cc60201b90919060201c565b6101408181525050818051906020012060e08181525050808051906020012061010081815250504660a0818152505061019a61031960201b60201c565b608081815250503073ffffffffffffffffffffffffffffffffffffffff1660c08173ffffffffffffffffffffffffffffffffffffffff168152505050505f73ffffffffffffffffffffffffffffffffffffffff168173ffffffffffffffffffffffffffffffffffffffff1603610247575f6040517f1e4fbdf700000000000000000000000000000000000000000000000000000000815260040161023e91906114cf565b60405180910390fd5b6102568161037360201b60201c565b506102718169d3c21bcecceda100000061043660201b60201c565b6001600c5f8373ffffffffffffffffffffffffffffffffffffffff1673ffffffffffffffffffffffffffffffffffffffff1681526020019081526020015f205f6101000a81548160ff0219169083151502179055505061190c565b5f6020835110156102ed576102e6836104bb60201b60201c565b9050610313565b826102fd8361052060201b60201c565b5f01908161030b91906113f1565b5060ff5f1b90505b92915050565b5f7f8b73c3c69bb8fe3d512ecc4cf759cc79239f7b179b0ffacaa9a75d522b39400f60e05161010051463060405160200161035895949392919061150f565b60405160208183030381529060405280519060200120905090565b5f600b5f9054906101000a900473ffffffffffffffffffffffffffffffffffffffff16905081600b5f6101000a81548173ffffffffffffffffffffffffffffffffffffffff021916908373ffffffffffffffffffffffffffffffffffffffff1602179055508173ffffffffffffffffffffffffffffffffffffffff168173ffffffffffffffffffffffffffffffffffffffff167f8be0079c531659141344cd1fd0a4f28419497f9722a3daafe3b4186f6b6457e060405160405180910390a35050565b5f73ffffffffffffffffffffffffffffffffffffffff168273ffffffffffffffffffffffffffffffffffffffff16036104a6575f6040517fec442f0500000000000000000000000000000000000000000000000000000000815260040161049d91906114cf565b60405180910390fd5b6104b75f838361052960201b60201c565b5050565b5f5f829050601f8151111561050757826040517f305a27a90000000000000000000000000000000000000000000000000000000081526004016104fe91906115c6565b60405180910390fd5b80518161051390611613565b5f1c175f1b915050919050565b5f819050919050565b61053a83838361053f60201b60201c565b505050565b61055083838361060560201b60201c565b5f73ffffffffffffffffffffffffffffffffffffffff168373ffffffffffffffffffffffffffffffffffffffff16036105ef575f61059261081e60201b60201c565b90505f6105a361082760201b60201c565b9050808211156105ec5781816040517f1cb15d260000000000000000000000000000000000000000000000000000000081526004016105e3929190611679565b60405180910390fd5b50505b61060083838361084a60201b60201c565b505050565b5f73ffffffffffffffffffffffffffffffffffffffff168373ffffffffffffffffffffffffffffffffffffffff1603610655578060025f82825461064991906116cd565b92505081905550610723565b5f5f5f8573ffffffffffffffffffffffffffffffffffffffff1673ffffffffffffffffffffffffffffffffffffffff1681526020019081526020015f20549050818110156106de578381836040517fe450d38c0000000000000000000000000000000000000000000000000000000081526004016106d593929190611700565b60405180910390fd5b8181035f5f8673ffffffffffffffffffffffffffffffffffffffff1673ffffffffffffffffffffffffffffffffffffffff1681526020019081526020015f2081905550505b5f73ffffffffffffffffffffffffffffffffffffffff168273ffffffffffffffffffffffffffffffffffffffff160361076a578060025f82825403925050819055506107b4565b805f5f8473ffffffffffffffffffffffffffffffffffffffff1673ffffffffffffffffffffffffffffffffffffffff1681526020019081526020015f205f82825401925050819055505b8173ffffffffffffffffffffffffffffffffffffffff168373ffffffffffffffffffffffffffffffffffffffff167fddf252ad1be2c89b69c2b068fc378daa952ba7f163c4a11628f55a4df523b3ef836040516108119190611735565b60405180910390a3505050565b5f600254905090565b5f79ffffffffffffffffffffffffffffffffffffffffffffffffffff8016905090565b5f73ffffffffffffffffffffffffffffffffffffffff168373ffffffffffffffffffffffffffffffffffffffff16036108a9576108a6600a61093a60201b6112441761089b8461094f60201b60201c565b6109bc60201b60201c565b50505b5f73ffffffffffffffffffffffffffffffffffffffff168273ffffffffffffffffffffffffffffffffffffffff160361090857610905600a610a0460201b611259176108fa8461094f60201b60201c565b6109bc60201b60201c565b50505b61093561091a84610a1960201b60201c565b61092984610a1960201b60201c565b83610a7e60201b60201c565b505050565b5f81836109479190611773565b905092915050565b5f79ffffffffffffffffffffffffffffffffffffffffffffffffffff80168211156109b45760d0826040517f6dfcc6500000000000000000000000000000000000000000000000000000000081526004016109ab929190611805565b60405180910390fd5b819050919050565b5f5f6109f86109cf610d1460201b60201c565b6109e86109e188610d2860201b60201c565b868860201c565b87610d9060201b9092919060201c565b91509150935093915050565b5f8183610a11919061182c565b905092915050565b5f60085f8373ffffffffffffffffffffffffffffffffffffffff1673ffffffffffffffffffffffffffffffffffffffff1681526020019081526020015f205f9054906101000a900473ffffffffffffffffffffffffffffffffffffffff169050919050565b8173ffffffffffffffffffffffffffffffffffffffff168373ffffffffffffffffffffffffffffffffffffffff1614158015610ab957505f81115b15610d0f575f73ffffffffffffffffffffffffffffffffffffffff168373ffffffffffffffffffffffffffffffffffffffff1614610be6575f5f610b5760095f8773ffffffffffffffffffffffffffffffffffffffff1673ffffffffffffffffffffffffffffffffffffffff1681526020019081526020015f20610a0460201b61125917610b4c8661094f60201b60201c565b6109bc60201b60201c565b79ffffffffffffffffffffffffffffffffffffffffffffffffffff16915079ffffffffffffffffffffffffffffffffffffffffffffffffffff1691508473ffffffffffffffffffffffffffffffffffffffff167fdec2bacdd2f05b59de34da9b523dff8be42e5e38e818c82fdb0bae774387a7248383604051610bdb929190611679565b60405180910390a250505b5f73ffffffffffffffffffffffffffffffffffffffff168273ffffffffffffffffffffffffffffffffffffffff1614610d0e575f5f610c7f60095f8673ffffffffffffffffffffffffffffffffffffffff1673ffffffffffffffffffffffffffffffffffffffff1681526020019081526020015f2061093a60201b61124417610c748661094f60201b60201c565b6109bc60201b60201c565b79ffffffffffffffffffffffffffffffffffffffffffffffffffff16915079ffffffffffffffffffffffffffffffffffffffffffffffffffff1691508373ffffffffffffffffffffffffffffffffffffffff167fdec2bacdd2f05b59de34da9b523dff8be42e5e38e818c82fdb0bae774387a7248383604051610d03929190611679565b60405180910390a250505b5b505050565b5f610d23610db160201b60201c565b905090565b5f5f825f018054905090505f8114610d8657610d58835f01600183610d4d9190611879565b610dc660201b60201c565b5f0160069054906101000a900479ffffffffffffffffffffffffffffffffffffffffffffffffffff16610d88565b5f5b915050919050565b5f5f610da5855f018585610dd860201b60201c565b91509150935093915050565b5f610dc1436110d260201b60201c565b905090565b5f825f528160205f2001905092915050565b5f5f5f858054905090505f811115610fea575f610e0787600184610dfc9190611879565b610dc660201b60201c565b90505f815f015f9054906101000a900465ffffffffffff1690505f825f0160069054906101000a900479ffffffffffffffffffffffffffffffffffffffffffffffffffff1690508765ffffffffffff168265ffffffffffff161115610e98576040517f2520601d00000000000000000000000000000000000000000000000000000000815260040160405180910390fd5b8765ffffffffffff168265ffffffffffff1603610f025786835f0160066101000a81548179ffffffffffffffffffffffffffffffffffffffffffffffffffff021916908379ffffffffffffffffffffffffffffffffffffffffffffffffffff160217905550610fdb565b8860405180604001604052808a65ffffffffffff1681526020018979ffffffffffffffffffffffffffffffffffffffffffffffffffff16815250908060018154018082558091505060019003905f5260205f20015f909190919091505f820151815f015f6101000a81548165ffffffffffff021916908365ffffffffffff1602179055506020820151815f0160066101000a81548179ffffffffffffffffffffffffffffffffffffffffffffffffffff021916908379ffffffffffffffffffffffffffffffffffffffffffffffffffff16021790555050505b808795509550505050506110ca565b8560405180604001604052808765ffffffffffff1681526020018679ffffffffffffffffffffffffffffffffffffffffffffffffffff16815250908060018154018082558091505060019003905f5260205f20015f909190919091505f820151815f015f6101000a81548165ffffffffffff021916908365ffffffffffff1602179055506020820151815f0160066101000a81548179ffffffffffffffffffffffffffffffffffffffffffffffffffff021916908379ffffffffffffffffffffffffffffffffffffffffffffffffffff16021790555050505f8492509250505b935093915050565b5f65ffffffffffff8016821115611123576030826040517f6dfcc65000000000000000000000000000000000000000000000000000000000815260040161111a9291906118e5565b60405180910390fd5b819050919050565b5f5ffd5b5f73ffffffffffffffffffffffffffffffffffffffff82169050919050565b5f6111588261112f565b9050919050565b6111688161114e565b8114611172575f5ffd5b50565b5f815190506111838161115f565b92915050565b5f6020828403121561119e5761119d61112b565b5b5f6111ab84828501611175565b91505092915050565b5f81519050919050565b7f4e487b71000000000000000000000000000000000000000000000000000000005f52604160045260245ffd5b7f4e487b71000000000000000000000000000000000000000000000000000000005f52602260045260245ffd5b5f600282049050600182168061122f57607f821691505b602082108103611242576112416111eb565b5b50919050565b5f819050815f5260205f209050919050565b5f6020601f8301049050919050565b5f82821b905092915050565b5f600883026112a47fffffffffffffffffffffffffffffffffffffffffffffffffffffffffffffffff82611269565b6112ae8683611269565b95508019841693508086168417925050509392505050565b5f819050919050565b5f819050919050565b5f6112f26112ed6112e8846112c6565b6112cf565b6112c6565b9050919050565b5f819050919050565b61130b836112d8565b61131f611317826112f9565b848454611275565b825550505050565b5f5f905090565b611336611327565b611341818484611302565b505050565b5b81811015611364576113595f8261132e565b600181019050611347565b5050565b601f8211156113a95761137a81611248565b6113838461125a565b81016020851015611392578190505b6113a661139e8561125a565b830182611346565b50505b505050565b5f82821c905092915050565b5f6113c95f19846008026113ae565b1980831691505092915050565b5f6113e183836113ba565b9150826002028217905092915050565b6113fa826111b4565b67ffffffffffffffff811115611413576114126111be565b5b61141d8254611218565b611428828285611368565b5f60209050601f831160018114611459575f8415611447578287015190505b61145185826113d6565b8655506114b8565b601f19841661146786611248565b5f5b8281101561148e57848901518255600182019150602085019450602081019050611469565b868310156114ab57848901516114a7601f8916826113ba565b8355505b6001600288020188555050505b505050505050565b6114c98161114e565b82525050565b5f6020820190506114e25f8301846114c0565b92915050565b5f819050919050565b6114fa816114e8565b82525050565b611509816112c6565b82525050565b5f60a0820190506115225f8301886114f1565b61152f60208301876114f1565b61153c60408301866114f1565b6115496060830185611500565b61155660808301846114c0565b9695505050505050565b5f82825260208201905092915050565b8281835e5f83830152505050565b5f601f19601f8301169050919050565b5f611598826111b4565b6115a28185611560565b93506115b2818560208601611570565b6115bb8161157e565b840191505092915050565b5f6020820190508181035f8301526115de818461158e565b905092915050565b5f81519050919050565b5f819050602082019050919050565b5f61160a82516114e8565b80915050919050565b5f61161d826115e6565b82611627846115f0565b9050611632816115ff565b925060208210156116725761166d7fffffffffffffffffffffffffffffffffffffffffffffffffffffffffffffffff83602003600802611269565b831692505b5050919050565b5f60408201905061168c5f830185611500565b6116996020830184611500565b9392505050565b7f4e487b71000000000000000000000000000000000000000000000000000000005f52601160045260245ffd5b5f6116d7826112c6565b91506116e2836112c6565b92508282019050808211156116fa576116f96116a0565b5b92915050565b5f6060820190506117135f8301866114c0565b6117206020830185611500565b61172d6040830184611500565b949350505050565b5f6020820190506117485f830184611500565b92915050565b5f79ffffffffffffffffffffffffffffffffffffffffffffffffffff82169050919050565b5f61177d8261174e565b91506117888361174e565b9250828201905079ffffffffffffffffffffffffffffffffffffffffffffffffffff8111156117ba576117b96116a0565b5b92915050565b5f819050919050565b5f60ff82169050919050565b5f6117ef6117ea6117e5846117c0565b6112cf565b6117c9565b9050919050565b6117ff816117d5565b82525050565b5f6040820190506118185f8301856117f6565b6118256020830184611500565b9392505050565b5f6118368261174e565b91506118418361174e565b9250828203905079ffffffffffffffffffffffffffffffffffffffffffffffffffff811115611873576118726116a0565b5b92915050565b5f611883826112c6565b915061188e836112c6565b92508282039050818111156118a6576118a56116a0565b5b92915050565b5f819050919050565b5f6118cf6118ca6118c5846118ac565b6112cf565b6117c9565b9050919050565b6118df816118b5565b82525050565b5f6040820190506118f85f8301856118d6565b6119056020830184611500565b9392505050565b60805160a05160c05160e051610100516101205161014051613ec361195d5f395f61192c01525f6118f101525f61294c01525f61292b01525f6122ad01525f61230301525f61232c0152613ec35ff3fe608060405234801561000f575f5ffd5b50600436106101e3575f3560e01c806370a082311161010d578063983b2d56116100a0578063dd62ed3e1161006f578063dd62ed3e146105ab578063f1127ed8146105db578063f2fde38b1461060b578063f46eccc414610627576101e3565b8063983b2d56146105135780639ab24eb01461052f578063a9059cbb1461055f578063c3cda5201461058f576101e3565b80638da5cb5b116100dc5780638da5cb5b146104895780638e539e8c146104a757806391ddadf4146104d757806395d89b41146104f5576101e3565b806370a08231146103fb578063715018a61461042b5780637ecebe001461043557806384b0196e14610465576101e3565b806332cb6b0c11610185578063587cde1e11610154578063587cde1e146103635780635c19a95c1461039357806368573107146103af5780636fcfff45146103cb576101e3565b806332cb6b0c146102db5780633a46b1a8146102f957806340c10f19146103295780634bf5d7e914610345576101e3565b806323b872dd116101c157806323b872dd146102535780632ff2e9dc146102835780633092afd5146102a1578063313ce567146102bd576101e3565b806306fdde03146101e7578063095ea7b31461020557806318160ddd14610235575b5f5ffd5b6101ef610657565b6040516101fc9190613099565b60405180910390f35b61021f600480360381019061021a919061314e565b6106e7565b60405161022c91906131a6565b60405180910390f35b61023d610709565b60405161024a91906131ce565b60405180910390f35b61026d600480360381019061026891906131e7565b610712565b60405161027a91906131a6565b60405180910390f35b61028b610740565b60405161029891906131ce565b60405180910390f35b6102bb60048036038101906102b69190613237565b61074e565b005b6102c56107f0565b6040516102d2919061327d565b60405180910390f35b6102e36107f8565b6040516102f091906131ce565b60405180910390f35b610313600480360381019061030e919061314e565b610807565b60405161032091906131ce565b60405180910390f35b610343600480360381019061033e919061314e565b610883565b005b61034d6109b7565b60405161035a9190613099565b60405180910390f35b61037d60048036038101906103789190613237565b610a4b565b60405161038a91906132a5565b60405180910390f35b6103ad60048036038101906103a89190613237565b610ab0565b005b6103c960048036038101906103c49190613374565b610ac9565b005b6103e560048036038101906103e09190613237565b610cef565b6040516103f29190613410565b60405180910390f35b61041560048036038101906104109190613237565b610d00565b60405161042291906131ce565b60405180910390f35b610433610d45565b005b61044f600480360381019061044a9190613237565b610d58565b60405161045c91906131ce565b60405180910390f35b61046d610d69565b6040516104809796959493929190613532565b60405180910390f35b610491610e0e565b60405161049e91906132a5565b60405180910390f35b6104c160048036038101906104bc91906135b4565b610e36565b6040516104ce91906131ce565b60405180910390f35b6104df610e76565b6040516104ec91906135ff565b60405180910390f35b6104fd610e84565b60405161050a9190613099565b60405180910390f35b61052d60048036038101906105289190613237565b610f14565b005b61054960048036038101906105449190613237565b610fb7565b60405161055691906131ce565b60405180910390f35b6105796004803603810190610574919061314e565b611020565b60405161058691906131a6565b60405180910390f35b6105a960048036038101906105a4919061366c565b611042565b005b6105c560048036038101906105c091906136f5565b611107565b6040516105d291906131ce565b60405180910390f35b6105f560048036038101906105f0919061375d565b611189565b604051610602919061380b565b60405180910390f35b61062560048036038101906106209190613237565b6111a3565b005b610641600480360381019061063c9190613237565b611227565b60405161064e91906131a6565b60405180910390f35b60606003805461066690613851565b80601f016020809104026020016040519081016040528092919081815260200182805461069290613851565b80156106dd5780601f106106b4576101008083540402835291602001916106dd565b820191905f5260205f20905b8154815290600101906020018083116106c057829003601f168201915b5050505050905090565b5f5f6106f161126e565b90506106fe818585611275565b600191505092915050565b5f600254905090565b5f5f61071c61126e565b9050610729858285611287565b61073485858561131a565b60019150509392505050565b69d3c21bcecceda100000081565b61075661140a565b5f600c5f8373ffffffffffffffffffffffffffffffffffffffff1673ffffffffffffffffffffffffffffffffffffffff1681526020019081526020015f205f6101000a81548160ff0219169083151502179055508073ffffffffffffffffffffffffffffffffffffffff167fe94479a9f7e1952cc78f2d6baab678adc1b772d936c6583def489e524cb6669260405160405180910390a250565b5f6012905090565b6a084595161401484a00000081565b5f61085f61081483611491565b60095f8673ffffffffffffffffffffffffffffffffffffffff1673ffffffffffffffffffffffffffffffffffffffff1681526020019081526020015f206114fc90919063ffffffff16565b79ffffffffffffffffffffffffffffffffffffffffffffffffffff16905092915050565b600c5f3373ffffffffffffffffffffffffffffffffffffffff1673ffffffffffffffffffffffffffffffffffffffff1681526020019081526020015f205f9054906101000a900460ff168061090a57506108db610e0e565b73ffffffffffffffffffffffffffffffffffffffff163373ffffffffffffffffffffffffffffffffffffffff16145b610949576040517f08c379a0000000000000000000000000000000000000000000000000000000008152600401610940906138cb565b60405180910390fd5b6a084595161401484a0000008161095e610709565b6109689190613916565b11156109a9576040517f08c379a00000000000000000000000000000000000000000000000000000000081526004016109a090613993565b60405180910390fd5b6109b382826115ec565b5050565b60606109c161166b565b65ffffffffffff166109d1610e76565b65ffffffffffff1614610a10576040517f6ff0714000000000000000000000000000000000000000000000000000000000815260040160405180910390fd5b6040518060400160405280601d81526020017f6d6f64653d626c6f636b6e756d6265722666726f6d3d64656661756c74000000815250905090565b5f60085f8373ffffffffffffffffffffffffffffffffffffffff1673ffffffffffffffffffffffffffffffffffffffff1681526020019081526020015f205f9054906101000a900473ffffffffffffffffffffffffffffffffffffffff169050919050565b5f610ab961126e565b9050610ac5818361167a565b5050565b600c5f3373ffffffffffffffffffffffffffffffffffffffff1673ffffffffffffffffffffffffffffffffffffffff1681526020019081526020015f205f9054906101000a900460ff1680610b505750610b21610e0e565b73ffffffffffffffffffffffffffffffffffffffff163373ffffffffffffffffffffffffffffffffffffffff16145b610b8f576040517f08c379a0000000000000000000000000000000000000000000000000000000008152600401610b86906138cb565b60405180910390fd5b818190508484905014610bd7576040517f08c379a0000000000000000000000000000000000000000000000000000000008152600401610bce906139fb565b60405180910390fd5b5f5f90505f5f90505b83839050811015610c1f57838382818110610bfe57610bfd613a19565b5b9050602002013582610c109190613916565b91508080600101915050610be0565b506a084595161401484a00000081610c35610709565b610c3f9190613916565b1115610c80576040517f08c379a0000000000000000000000000000000000000000000000000000000008152600401610c7790613993565b60405180910390fd5b5f5f90505b85859050811015610ce757610cda868683818110610ca657610ca5613a19565b5b9050602002016020810190610cbb9190613237565b858584818110610cce57610ccd613a19565b5b905060200201356115ec565b8080600101915050610c85565b505050505050565b5f610cf98261178a565b9050919050565b5f5f5f8373ffffffffffffffffffffffffffffffffffffffff1673ffffffffffffffffffffffffffffffffffffffff1681526020019081526020015f20549050919050565b610d4d61140a565b610d565f6117df565b565b5f610d62826118a2565b9050919050565b5f6060805f5f5f6060610d7a6118e8565b610d82611923565b46305f5f1b5f67ffffffffffffffff811115610da157610da0613a46565b5b604051908082528060200260200182016040528015610dcf5781602001602082028036833780820191505090505b507f0f00000000000000000000000000000000000000000000000000000000000000959493929190965096509650965096509650965090919293949596565b5f600b5f9054906101000a900473ffffffffffffffffffffffffffffffffffffffff16905090565b5f610e53610e4383611491565b600a6114fc90919063ffffffff16565b79ffffffffffffffffffffffffffffffffffffffffffffffffffff169050919050565b5f610e7f61166b565b905090565b606060048054610e9390613851565b80601f0160208091040260200160405190810160405280929190818152602001828054610ebf90613851565b8015610f0a5780601f10610ee157610100808354040283529160200191610f0a565b820191905f5260205f20905b815481529060010190602001808311610eed57829003601f168201915b5050505050905090565b610f1c61140a565b6001600c5f8373ffffffffffffffffffffffffffffffffffffffff1673ffffffffffffffffffffffffffffffffffffffff1681526020019081526020015f205f6101000a81548160ff0219169083151502179055508073ffffffffffffffffffffffffffffffffffffffff167f6ae172837ea30b801fbfcdd4108aa1d5bf8ff775444fd70256b44e6bf3dfc3f660405160405180910390a250565b5f610ffd60095f8473ffffffffffffffffffffffffffffffffffffffff1673ffffffffffffffffffffffffffffffffffffffff1681526020019081526020015f2061195e565b79ffffffffffffffffffffffffffffffffffffffffffffffffffff169050919050565b5f5f61102a61126e565b905061103781858561131a565b600191505092915050565b8342111561108757836040517f4683af0e00000000000000000000000000000000000000000000000000000000815260040161107e91906131ce565b60405180910390fd5b5f6110e86110e07fe48329057bfd03d55e49b547132e39cffd9c1820ad7b9d4c5307691425d15adf8989896040516020016110c59493929190613a73565b604051602081830303815290604052805190602001206119c0565b8585856119d9565b90506110f48187611a07565b6110fe818861167a565b50505050505050565b5f60015f8473ffffffffffffffffffffffffffffffffffffffff1673ffffffffffffffffffffffffffffffffffffffff1681526020019081526020015f205f8373ffffffffffffffffffffffffffffffffffffffff1673ffffffffffffffffffffffffffffffffffffffff1681526020019081526020015f2054905092915050565b611191612fed565b61119b8383611a5e565b905092915050565b6111ab61140a565b5f73ffffffffffffffffffffffffffffffffffffffff168173ffffffffffffffffffffffffffffffffffffffff160361121b575f6040517f1e4fbdf700000000000000000000000000000000000000000000000000000000815260040161121291906132a5565b60405180910390fd5b611224816117df565b50565b600c602052805f5260405f205f915054906101000a900460ff1681565b5f81836112519190613ab6565b905092915050565b5f81836112669190613b03565b905092915050565b5f33905090565b6112828383836001611abd565b505050565b5f6112928484611107565b90507fffffffffffffffffffffffffffffffffffffffffffffffffffffffffffffffff8110156113145781811015611305578281836040517ffb8f41b20000000000000000000000000000000000000000000000000000000081526004016112fc93929190613b50565b60405180910390fd5b61131384848484035f611abd565b5b50505050565b5f73ffffffffffffffffffffffffffffffffffffffff168373ffffffffffffffffffffffffffffffffffffffff160361138a575f6040517f96c6fd1e00000000000000000000000000000000000000000000000000000000815260040161138191906132a5565b60405180910390fd5b5f73ffffffffffffffffffffffffffffffffffffffff168273ffffffffffffffffffffffffffffffffffffffff16036113fa575f6040517fec442f050000000000000000000000000000000000000000000000000000000081526004016113f191906132a5565b60405180910390fd5b611405838383611c8c565b505050565b61141261126e565b73ffffffffffffffffffffffffffffffffffffffff16611430610e0e565b73ffffffffffffffffffffffffffffffffffffffff161461148f5761145361126e565b6040517f118cdaa700000000000000000000000000000000000000000000000000000000815260040161148691906132a5565b60405180910390fd5b565b5f5f61149b610e76565b90508065ffffffffffff1683106114eb5782816040517fecd3f81e0000000000000000000000000000000000000000000000000000000081526004016114e2929190613b85565b60405180910390fd5b6114f483611c9c565b915050919050565b5f5f835f018054905090505f5f90505f8290506005831115611580575f61152284611cf5565b8461152d9190613bac565b905061153b875f0182611e8f565b5f015f9054906101000a900465ffffffffffff1665ffffffffffff168665ffffffffffff16101561156e5780915061157e565b60018161157b9190613916565b92505b505b5f61158f875f01878585611ea1565b90505f81146115de576115b0875f016001836115ab9190613bac565b611e8f565b5f0160069054906101000a900479ffffffffffffffffffffffffffffffffffffffffffffffffffff166115e0565b5f5b94505050505092915050565b5f73ffffffffffffffffffffffffffffffffffffffff168273ffffffffffffffffffffffffffffffffffffffff160361165c575f6040517fec442f0500000000000000000000000000000000000000000000000000000000815260040161165391906132a5565b60405180910390fd5b6116675f8383611c8c565b5050565b5f61167543611c9c565b905090565b5f61168483610a4b565b90508160085f8573ffffffffffffffffffffffffffffffffffffffff1673ffffffffffffffffffffffffffffffffffffffff1681526020019081526020015f205f6101000a81548173ffffffffffffffffffffffffffffffffffffffff021916908373ffffffffffffffffffffffffffffffffffffffff1602179055508173ffffffffffffffffffffffffffffffffffffffff168173ffffffffffffffffffffffffffffffffffffffff168473ffffffffffffffffffffffffffffffffffffffff167f3134e8a2e6d97e929a7e54011ea5485d7d196dd5f0ba4d4ef95803e8e3fc257f60405160405180910390a4611785818361178086611f16565b611f27565b505050565b5f6117d86117d360095f8573ffffffffffffffffffffffffffffffffffffffff1673ffffffffffffffffffffffffffffffffffffffff1681526020019081526020015f20612197565b6121a6565b9050919050565b5f600b5f9054906101000a900473ffffffffffffffffffffffffffffffffffffffff16905081600b5f6101000a81548173ffffffffffffffffffffffffffffffffffffffff021916908373ffffffffffffffffffffffffffffffffffffffff1602179055508173ffffffffffffffffffffffffffffffffffffffff168173ffffffffffffffffffffffffffffffffffffffff167f8be0079c531659141344cd1fd0a4f28419497f9722a3daafe3b4186f6b6457e060405160405180910390a35050565b5f60075f8373ffffffffffffffffffffffffffffffffffffffff1673ffffffffffffffffffffffffffffffffffffffff1681526020019081526020015f20549050919050565b606061191e60057f00000000000000000000000000000000000000000000000000000000000000006121fd90919063ffffffff16565b905090565b606061195960067f00000000000000000000000000000000000000000000000000000000000000006121fd90919063ffffffff16565b905090565b5f5f825f018054905090505f81146119b657611988835f016001836119839190613bac565b611e8f565b5f0160069054906101000a900479ffffffffffffffffffffffffffffffffffffffffffffffffffff166119b8565b5f5b915050919050565b5f6119d26119cc6122aa565b83612360565b9050919050565b5f5f5f5f6119e9888888886123a0565b9250925092506119f98282612487565b829350505050949350505050565b5f611a11836125e9565b9050808214611a595782816040517f752d88c0000000000000000000000000000000000000000000000000000000008152600401611a50929190613bdf565b60405180910390fd5b505050565b611a66612fed565b611ab58260095f8673ffffffffffffffffffffffffffffffffffffffff1673ffffffffffffffffffffffffffffffffffffffff1681526020019081526020015f2061263c90919063ffffffff16565b905092915050565b5f73ffffffffffffffffffffffffffffffffffffffff168473ffffffffffffffffffffffffffffffffffffffff1603611b2d575f6040517fe602df05000000000000000000000000000000000000000000000000000000008152600401611b2491906132a5565b60405180910390fd5b5f73ffffffffffffffffffffffffffffffffffffffff168373ffffffffffffffffffffffffffffffffffffffff1603611b9d575f6040517f94280d62000000000000000000000000000000000000000000000000000000008152600401611b9491906132a5565b60405180910390fd5b8160015f8673ffffffffffffffffffffffffffffffffffffffff1673ffffffffffffffffffffffffffffffffffffffff1681526020019081526020015f205f8573ffffffffffffffffffffffffffffffffffffffff1673ffffffffffffffffffffffffffffffffffffffff1681526020019081526020015f20819055508015611c86578273ffffffffffffffffffffffffffffffffffffffff168473ffffffffffffffffffffffffffffffffffffffff167f8c5be1e5ebec7d5bd14f71427d1e84f3dd0314c0f7b2291e5b200ac8c7c3b92584604051611c7d91906131ce565b60405180910390a35b50505050565b611c9783838361270b565b505050565b5f65ffffffffffff8016821115611ced576030826040517f6dfcc650000000000000000000000000000000000000000000000000000000008152600401611ce4929190613c48565b60405180910390fd5b819050919050565b5f60018211611d0657819050611e8a565b5f8290505f600190507001000000000000000000000000000000008210611d3657608082901c9150604081901b90505b680100000000000000008210611d5557604082901c9150602081901b90505b6401000000008210611d7057602082901c9150601081901b90505b620100008210611d8957601082901c9150600881901b90505b6101008210611da157600882901c9150600481901b90505b60108210611db857600482901c9150600281901b90505b60048210611dc857600181901b90505b600181600302901c90506001818581611de457611de3613c6f565b5b048201901c90506001818581611dfd57611dfc613c6f565b5b048201901c90506001818581611e1657611e15613c6f565b5b048201901c90506001818581611e2f57611e2e613c6f565b5b048201901c90506001818581611e4857611e47613c6f565b5b048201901c90506001818581611e6157611e60613c6f565b5b048201901c9050611e83818581611e7b57611e7a613c6f565b5b0482116127b9565b8103925050505b919050565b5f825f528160205f2001905092915050565b5f5b81831015611f0b575f611eb684846127c4565b90508465ffffffffffff16611ecb8783611e8f565b5f015f9054906101000a900465ffffffffffff1665ffffffffffff161115611ef557809250611f05565b600181611f029190613916565b93505b50611ea3565b819050949350505050565b5f611f2082610d00565b9050919050565b8173ffffffffffffffffffffffffffffffffffffffff168373ffffffffffffffffffffffffffffffffffffffff1614158015611f6257505f81115b15612192575f73ffffffffffffffffffffffffffffffffffffffff168373ffffffffffffffffffffffffffffffffffffffff161461207c575f5f611fed60095f8773ffffffffffffffffffffffffffffffffffffffff1673ffffffffffffffffffffffffffffffffffffffff1681526020019081526020015f20611259611fe8866127e9565b612856565b79ffffffffffffffffffffffffffffffffffffffffffffffffffff16915079ffffffffffffffffffffffffffffffffffffffffffffffffffff1691508473ffffffffffffffffffffffffffffffffffffffff167fdec2bacdd2f05b59de34da9b523dff8be42e5e38e818c82fdb0bae774387a7248383604051612071929190613c9c565b60405180910390a250505b5f73ffffffffffffffffffffffffffffffffffffffff168273ffffffffffffffffffffffffffffffffffffffff1614612191575f5f61210260095f8673ffffffffffffffffffffffffffffffffffffffff1673ffffffffffffffffffffffffffffffffffffffff1681526020019081526020015f206112446120fd866127e9565b612856565b79ffffffffffffffffffffffffffffffffffffffffffffffffffff16915079ffffffffffffffffffffffffffffffffffffffffffffffffffff1691508373ffffffffffffffffffffffffffffffffffffffff167fdec2bacdd2f05b59de34da9b523dff8be42e5e38e818c82fdb0bae774387a7248383604051612186929190613c9c565b60405180910390a250505b5b505050565b5f815f01805490509050919050565b5f63ffffffff80168211156121f5576020826040517f6dfcc6500000000000000000000000000000000000000000000000000000000081526004016121ec929190613cfc565b60405180910390fd5b819050919050565b606060ff5f1b83146122195761221283612895565b90506122a4565b81805461222590613851565b80601f016020809104026020016040519081016040528092919081815260200182805461225190613851565b801561229c5780601f106122735761010080835404028352916020019161229c565b820191905f5260205f20905b81548152906001019060200180831161227f57829003601f168201915b505050505090505b92915050565b5f7f000000000000000000000000000000000000000000000000000000000000000073ffffffffffffffffffffffffffffffffffffffff163073ffffffffffffffffffffffffffffffffffffffff1614801561232557507f000000000000000000000000000000000000000000000000000000000000000046145b15612352577f0000000000000000000000000000000000000000000000000000000000000000905061235d565b61235a612907565b90505b90565b5f6040517f190100000000000000000000000000000000000000000000000000000000000081528360028201528260228201526042812091505092915050565b5f5f5f7f7fffffffffffffffffffffffffffffff5d576e7357a4501ddfe92f46681b20a0845f1c11156123dc575f60038592509250925061247d565b5f6001888888886040515f81526020016040526040516123ff9493929190613d23565b6020604051602081039080840390855afa15801561241f573d5f5f3e3d5ffd5b5050506020604051035190505f73ffffffffffffffffffffffffffffffffffffffff168173ffffffffffffffffffffffffffffffffffffffff1603612470575f60015f5f1b9350935093505061247d565b805f5f5f1b935093509350505b9450945094915050565b5f600381111561249a57612499613d66565b5b8260038111156124ad576124ac613d66565b5b03156125e557600160038111156124c7576124c6613d66565b5b8260038111156124da576124d9613d66565b5b03612511576040517ff645eedf00000000000000000000000000000000000000000000000000000000815260040160405180910390fd5b6002600381111561252557612524613d66565b5b82600381111561253857612537613d66565b5b0361257c57805f1c6040517ffce698f700000000000000000000000000000000000000000000000000000000815260040161257391906131ce565b60405180910390fd5b60038081111561258f5761258e613d66565b5b8260038111156125a2576125a1613d66565b5b036125e457806040517fd78bce0c0000000000000000000000000000000000000000000000000000000081526004016125db9190613d93565b60405180910390fd5b5b5050565b5f60075f8373ffffffffffffffffffffffffffffffffffffffff1673ffffffffffffffffffffffffffffffffffffffff1681526020019081526020015f205f815480929190600101919050559050919050565b612644612fed565b825f018263ffffffff168154811061265f5761265e613a19565b5b905f5260205f20016040518060400160405290815f82015f9054906101000a900465ffffffffffff1665ffffffffffff1665ffffffffffff1681526020015f820160069054906101000a900479ffffffffffffffffffffffffffffffffffffffffffffffffffff1679ffffffffffffffffffffffffffffffffffffffffffffffffffff1679ffffffffffffffffffffffffffffffffffffffffffffffffffff1681525050905092915050565b61271683838361299c565b5f73ffffffffffffffffffffffffffffffffffffffff168373ffffffffffffffffffffffffffffffffffffffff16036127a9575f612752610709565b90505f61275d612bb5565b9050808211156127a65781816040517f1cb15d2600000000000000000000000000000000000000000000000000000000815260040161279d929190613c9c565b60405180910390fd5b50505b6127b4838383612bd8565b505050565b5f8115159050919050565b5f60028284186127d49190613dac565b8284166127e19190613916565b905092915050565b5f79ffffffffffffffffffffffffffffffffffffffffffffffffffff801682111561284e5760d0826040517f6dfcc650000000000000000000000000000000000000000000000000000000008152600401612845929190613e15565b60405180910390fd5b819050919050565b5f5f612889612863610e76565b61287961286f8861195e565b868863ffffffff16565b87612c909092919063ffffffff16565b91509150935093915050565b60605f6128a183612cab565b90505f602067ffffffffffffffff8111156128bf576128be613a46565b5b6040519080825280601f01601f1916602001820160405280156128f15781602001600182028036833780820191505090505b5090508181528360208201528092505050919050565b5f7f8b73c3c69bb8fe3d512ecc4cf759cc79239f7b179b0ffacaa9a75d522b39400f7f00000000000000000000000000000000000000000000000000000000000000007f00000000000000000000000000000000000000000000000000000000000000004630604051602001612981959493929190613e3c565b60405160208183030381529060405280519060200120905090565b5f73ffffffffffffffffffffffffffffffffffffffff168373ffffffffffffffffffffffffffffffffffffffff16036129ec578060025f8282546129e09190613916565b92505081905550612aba565b5f5f5f8573ffffffffffffffffffffffffffffffffffffffff1673ffffffffffffffffffffffffffffffffffffffff1681526020019081526020015f2054905081811015612a75578381836040517fe450d38c000000000000000000000000000000000000000000000000000000008152600401612a6c93929190613b50565b60405180910390fd5b8181035f5f8673ffffffffffffffffffffffffffffffffffffffff1673ffffffffffffffffffffffffffffffffffffffff1681526020019081526020015f2081905550505b5f73ffffffffffffffffffffffffffffffffffffffff168273ffffffffffffffffffffffffffffffffffffffff1603612b01578060025f8282540392505081905550612b4b565b805f5f8473ffffffffffffffffffffffffffffffffffffffff1673ffffffffffffffffffffffffffffffffffffffff1681526020019081526020015f205f82825401925050819055505b8173ffffffffffffffffffffffffffffffffffffffff168373ffffffffffffffffffffffffffffffffffffffff167fddf252ad1be2c89b69c2b068fc378daa952ba7f163c4a11628f55a4df523b3ef83604051612ba891906131ce565b60405180910390a3505050565b5f79ffffffffffffffffffffffffffffffffffffffffffffffffffff8016905090565b5f73ffffffffffffffffffffffffffffffffffffffff168373ffffffffffffffffffffffffffffffffffffffff1603612c2457612c21600a611244612c1c846127e9565b612856565b50505b5f73ffffffffffffffffffffffffffffffffffffffff168273ffffffffffffffffffffffffffffffffffffffff1603612c7057612c6d600a611259612c68846127e9565b612856565b50505b612c8b612c7c84610a4b565b612c8584610a4b565b83611f27565b505050565b5f5f612c9f855f018585612cf9565b91509150935093915050565b5f5f60ff835f1c169050601f811115612cf0576040517fb3512b0c00000000000000000000000000000000000000000000000000000000815260040160405180910390fd5b80915050919050565b5f5f5f858054905090505f811115612f05575f612d2287600184612d1d9190613bac565b611e8f565b90505f815f015f9054906101000a900465ffffffffffff1690505f825f0160069054906101000a900479ffffffffffffffffffffffffffffffffffffffffffffffffffff1690508765ffffffffffff168265ffffffffffff161115612db3576040517f2520601d00000000000000000000000000000000000000000000000000000000815260040160405180910390fd5b8765ffffffffffff168265ffffffffffff1603612e1d5786835f0160066101000a81548179ffffffffffffffffffffffffffffffffffffffffffffffffffff021916908379ffffffffffffffffffffffffffffffffffffffffffffffffffff160217905550612ef6565b8860405180604001604052808a65ffffffffffff1681526020018979ffffffffffffffffffffffffffffffffffffffffffffffffffff16815250908060018154018082558091505060019003905f5260205f20015f909190919091505f820151815f015f6101000a81548165ffffffffffff021916908365ffffffffffff1602179055506020820151815f0160066101000a81548179ffffffffffffffffffffffffffffffffffffffffffffffffffff021916908379ffffffffffffffffffffffffffffffffffffffffffffffffffff16021790555050505b80879550955050505050612fe5565b8560405180604001604052808765ffffffffffff1681526020018679ffffffffffffffffffffffffffffffffffffffffffffffffffff16815250908060018154018082558091505060019003905f5260205f20015f909190919091505f820151815f015f6101000a81548165ffffffffffff021916908365ffffffffffff1602179055506020820151815f0160066101000a81548179ffffffffffffffffffffffffffffffffffffffffffffffffffff021916908379ffffffffffffffffffffffffffffffffffffffffffffffffffff16021790555050505f8492509250505b935093915050565b60405180604001604052805f65ffffffffffff1681526020015f79ffffffffffffffffffffffffffffffffffffffffffffffffffff1681525090565b5f81519050919050565b5f82825260208201905092915050565b8281835e5f83830152505050565b5f601f19601f8301169050919050565b5f61306b82613029565b6130758185613033565b9350613085818560208601613043565b61308e81613051565b840191505092915050565b5f6020820190508181035f8301526130b18184613061565b905092915050565b5f5ffd5b5f5ffd5b5f73ffffffffffffffffffffffffffffffffffffffff82169050919050565b5f6130ea826130c1565b9050919050565b6130fa816130e0565b8114613104575f5ffd5b50565b5f81359050613115816130f1565b92915050565b5f819050919050565b61312d8161311b565b8114613137575f5ffd5b50565b5f8135905061314881613124565b92915050565b5f5f60408385031215613164576131636130b9565b5b5f61317185828601613107565b92505060206131828582860161313a565b9150509250929050565b5f8115159050919050565b6131a08161318c565b82525050565b5f6020820190506131b95f830184613197565b92915050565b6131c88161311b565b82525050565b5f6020820190506131e15f8301846131bf565b92915050565b5f5f5f606084860312156131fe576131fd6130b9565b5b5f61320b86828701613107565b935050602061321c86828701613107565b925050604061322d8682870161313a565b9150509250925092565b5f6020828403121561324c5761324b6130b9565b5b5f61325984828501613107565b91505092915050565b5f60ff82169050919050565b61327781613262565b82525050565b5f6020820190506132905f83018461326e565b92915050565b61329f816130e0565b82525050565b5f6020820190506132b85f830184613296565b92915050565b5f5ffd5b5f5ffd5b5f5ffd5b5f5f83601f8401126132df576132de6132be565b5b8235905067ffffffffffffffff8111156132fc576132fb6132c2565b5b602083019150836020820283011115613318576133176132c6565b5b9250929050565b5f5f83601f840112613334576133336132be565b5b8235905067ffffffffffffffff811115613351576133506132c2565b5b60208301915083602082028301111561336d5761336c6132c6565b5b9250929050565b5f5f5f5f6040858703121561338c5761338b6130b9565b5b5f85013567ffffffffffffffff8111156133a9576133a86130bd565b5b6133b5878288016132ca565b9450945050602085013567ffffffffffffffff8111156133d8576133d76130bd565b5b6133e48782880161331f565b925092505092959194509250565b5f63ffffffff82169050919050565b61340a816133f2565b82525050565b5f6020820190506134235f830184613401565b92915050565b5f7fff0000000000000000000000000000000000000000000000000000000000000082169050919050565b61345d81613429565b82525050565b5f819050919050565b61347581613463565b82525050565b5f81519050919050565b5f82825260208201905092915050565b5f819050602082019050919050565b6134ad8161311b565b82525050565b5f6134be83836134a4565b60208301905092915050565b5f602082019050919050565b5f6134e08261347b565b6134ea8185613485565b93506134f583613495565b805f5b8381101561352557815161350c88826134b3565b9750613517836134ca565b9250506001810190506134f8565b5085935050505092915050565b5f60e0820190506135455f83018a613454565b81810360208301526135578189613061565b9050818103604083015261356b8188613061565b905061357a60608301876131bf565b6135876080830186613296565b61359460a083018561346c565b81810360c08301526135a681846134d6565b905098975050505050505050565b5f602082840312156135c9576135c86130b9565b5b5f6135d68482850161313a565b91505092915050565b5f65ffffffffffff82169050919050565b6135f9816135df565b82525050565b5f6020820190506136125f8301846135f0565b92915050565b61362181613262565b811461362b575f5ffd5b50565b5f8135905061363c81613618565b92915050565b61364b81613463565b8114613655575f5ffd5b50565b5f8135905061366681613642565b92915050565b5f5f5f5f5f5f60c08789031215613686576136856130b9565b5b5f61369389828a01613107565b96505060206136a489828a0161313a565b95505060406136b589828a0161313a565b94505060606136c689828a0161362e565b93505060806136d789828a01613658565b92505060a06136e889828a01613658565b9150509295509295509295565b5f5f6040838503121561370b5761370a6130b9565b5b5f61371885828601613107565b925050602061372985828601613107565b9150509250929050565b61373c816133f2565b8114613746575f5ffd5b50565b5f8135905061375781613733565b92915050565b5f5f60408385031215613773576137726130b9565b5b5f61378085828601613107565b925050602061379185828601613749565b9150509250929050565b6137a4816135df565b82525050565b5f79ffffffffffffffffffffffffffffffffffffffffffffffffffff82169050919050565b6137d8816137aa565b82525050565b604082015f8201516137f25f85018261379b565b50602082015161380560208501826137cf565b50505050565b5f60408201905061381e5f8301846137de565b92915050565b7f4e487b71000000000000000000000000000000000000000000000000000000005f52602260045260245ffd5b5f600282049050600182168061386857607f821691505b60208210810361387b5761387a613824565b5b50919050565b7f4e6f7420617574686f72697a656420746f206d696e74000000000000000000005f82015250565b5f6138b5601683613033565b91506138c082613881565b602082019050919050565b5f6020820190508181035f8301526138e2816138a9565b9050919050565b7f4e487b71000000000000000000000000000000000000000000000000000000005f52601160045260245ffd5b5f6139208261311b565b915061392b8361311b565b9250828201905080821115613943576139426138e9565b5b92915050565b7f45786365656473206d617820737570706c7900000000000000000000000000005f82015250565b5f61397d601283613033565b915061398882613949565b602082019050919050565b5f6020820190508181035f8301526139aa81613971565b9050919050565b7f417272617973206c656e677468206d69736d61746368000000000000000000005f82015250565b5f6139e5601683613033565b91506139f0826139b1565b602082019050919050565b5f6020820190508181035f830152613a12816139d9565b9050919050565b7f4e487b71000000000000000000000000000000000000000000000000000000005f52603260045260245ffd5b7f4e487b71000000000000000000000000000000000000000000000000000000005f52604160045260245ffd5b5f608082019050613a865f83018761346c565b613a936020830186613296565b613aa060408301856131bf565b613aad60608301846131bf565b95945050505050565b5f613ac0826137aa565b9150613acb836137aa565b9250828201905079ffffffffffffffffffffffffffffffffffffffffffffffffffff811115613afd57613afc6138e9565b5b92915050565b5f613b0d826137aa565b9150613b18836137aa565b9250828203905079ffffffffffffffffffffffffffffffffffffffffffffffffffff811115613b4a57613b496138e9565b5b92915050565b5f606082019050613b635f830186613296565b613b7060208301856131bf565b613b7d60408301846131bf565b949350505050565b5f604082019050613b985f8301856131bf565b613ba560208301846135f0565b9392505050565b5f613bb68261311b565b9150613bc18361311b565b9250828203905081811115613bd957613bd86138e9565b5b92915050565b5f604082019050613bf25f830185613296565b613bff60208301846131bf565b9392505050565b5f819050919050565b5f819050919050565b5f613c32613c2d613c2884613c06565b613c0f565b613262565b9050919050565b613c4281613c18565b82525050565b5f604082019050613c5b5f830185613c39565b613c6860208301846131bf565b9392505050565b7f4e487b71000000000000000000000000000000000000000000000000000000005f52601260045260245ffd5b5f604082019050613caf5f8301856131bf565b613cbc60208301846131bf565b9392505050565b5f819050919050565b5f613ce6613ce1613cdc84613cc3565b613c0f565b613262565b9050919050565b613cf681613ccc565b82525050565b5f604082019050613d0f5f830185613ced565b613d1c60208301846131bf565b9392505050565b5f608082019050613d365f83018761346c565b613d43602083018661326e565b613d50604083018561346c565b613d5d606083018461346c565b95945050505050565b7f4e487b71000000000000000000000000000000000000000000000000000000005f52602160045260245ffd5b5f602082019050613da65f83018461346c565b92915050565b5f613db68261311b565b9150613dc18361311b565b925082613dd157613dd0613c6f565b5b828204905092915050565b5f819050919050565b5f613dff613dfa613df584613ddc565b613c0f565b613262565b9050919050565b613e0f81613de5565b82525050565b5f604082019050613e285f830185613e06565b613e3560208301846131bf565b9392505050565b5f60a082019050613e4f5f83018861346c565b613e5c602083018761346c565b613e69604083018661346c565b613e7660608301856131bf565b613e836080830184613296565b969550505050505056fea26469706673582212209153b02599085a1f3bc7a6d9a374b257196537ee93d0e4e32fa96a6013bd225a64736f6c634300081e0033",
		"opcodes": "PUSH2 0x160 PUSH1 0x40 MSTORE CALLVALUE DUP1 ISZERO PUSH2 0x10 JUMPI PUSH0 PUSH0 REVERT JUMPDEST POP PUSH1 0x40 MLOAD PUSH2 0x5820 CODESIZE SUB DUP1 PUSH2 0x5820 DUP4 CODECOPY DUP2 DUP2 ADD PUSH1 0x40 MSTORE DUP2 ADD SWAP1 PUSH2 0x32 SWAP2 SWAP1 PUSH2 0x1189 JUMP JUMPDEST DUP1 PUSH1 0x40 MLOAD DUP1 PUSH1 0x40 ADD PUSH1 0x40 MSTORE DUP1 PUSH1 0x13 DUP2 MSTORE PUSH1 0x20 ADD PUSH32 0x5365637572654769672044414F20546F6B656E00000000000000000000000000 DUP2 MSTORE POP PUSH1 0x40 MLOAD DUP1 PUSH1 0x40 ADD PUSH1 0x40 MSTORE DUP1 PUSH1 0x1 DUP2 MSTORE PUSH1 0x20 ADD PUSH32 0x3100000000000000000000000000000000000000000000000000000000000000 DUP2 MSTORE POP PUSH1 0x40 MLOAD DUP1 PUSH1 0x40 ADD PUSH1 0x40 MSTORE DUP1 PUSH1 0x13 DUP2 MSTORE PUSH1 0x20 ADD PUSH32 0x5365637572654769672044414F20546F6B656E00000000000000000000000000 DUP2 MSTORE POP PUSH1 0x40 MLOAD DUP1 PUSH1 0x40 ADD PUSH1 0x40 MSTORE DUP1 PUSH1 0x4 DUP2 MSTORE PUSH1 0x20 ADD PUSH32 0x5347445400000000000000000000000000000000000000000000000000000000 DUP2 MSTORE POP DUP2 PUSH1 0x3 SWAP1 DUP2 PUSH2 0x11A SWAP2 SWAP1 PUSH2 0x13F1 JUMP JUMPDEST POP DUP1 PUSH1 0x4 SWAP1 DUP2 PUSH2 0x12A SWAP2 SWAP1 PUSH2 0x13F1 JUMP JUMPDEST POP POP POP PUSH2 0x141 PUSH1 0x5 DUP4 PUSH2 0x2CC PUSH1 0x20 SHL SWAP1 SWAP2 SWAP1 PUSH1 0x20 SHR JUMP JUMPDEST PUSH2 0x120 DUP2 DUP2 MSTORE POP POP PUSH2 0x15D PUSH1 0x6 DUP3 PUSH2 0x2CC PUSH1 0x20 SHL SWAP1 SWAP2 SWAP1 PUSH1 0x20 SHR JUMP JUMPDEST PUSH2 0x140 DUP2 DUP2 MSTORE POP POP DUP2 DUP1 MLOAD SWAP1 PUSH1 0x20 ADD KECCAK256 PUSH1 0xE0 DUP2 DUP2 MSTORE POP POP DUP1 DUP1 MLOAD SWAP1 PUSH1 0x20 ADD KECCAK256 PUSH2 0x100 DUP2 DUP2 MSTORE POP POP CHAINID PUSH1 0xA0 DUP2 DUP2 MSTORE POP POP PUSH2 0x19A PUSH2 0x319 PUSH1 0x20 SHL PUSH1 0x20 SHR JUMP JUMPDEST PUSH1 0x80 DUP2 DUP2 MSTORE POP POP ADDRESS PUSH20 0xFFFFFFFFFFFFFFFFFFFFFFFFFFFFFFFFFFFFFFFF AND PUSH1 0xC0 DUP2 PUSH20 0xFFFFFFFFFFFFFFFFFFFFFFFFFFFFFFFFFFFFFFFF AND DUP2 MSTORE POP POP POP POP PUSH0 PUSH20 0xFFFFFFFFFFFFFFFFFFFFFFFFFFFFFFFFFFFFFFFF AND DUP2 PUSH20 0xFFFFFFFFFFFFFFFFFFFFFFFFFFFFFFFFFFFFFFFF AND SUB PUSH2 0x247 JUMPI PUSH0 PUSH1 0x40 MLOAD PUSH32 0x1E4FBDF700000000000000000000000000000000000000000000000000000000 DUP2 MSTORE PUSH1 0x4 ADD PUSH2 0x23E SWAP2 SWAP1 PUSH2 0x14CF JUMP JUMPDEST PUSH1 0x40 MLOAD DUP1 SWAP2 SUB SWAP1 REVERT JUMPDEST PUSH2 0x256 DUP2 PUSH2 0x373 PUSH1 0x20 SHL PUSH1 0x20 SHR JUMP JUMPDEST POP PUSH2 0x271 DUP2 PUSH10 0xD3C21BCECCEDA1000000 PUSH2 0x436 PUSH1 0x20 SHL PUSH1 0x20 SHR JUMP JUMPDEST PUSH1 0x1 PUSH1 0xC PUSH0 DUP4 PUSH20 0xFFFFFFFFFFFFFFFFFFFFFFFFFFFFFFFFFFFFFFFF AND PUSH20 0xFFFFFFFFFFFFFFFFFFFFFFFFFFFFFFFFFFFFFFFF AND DUP2 MSTORE PUSH1 0x20 ADD SWAP1 DUP2 MSTORE PUSH1 0x20 ADD PUSH0 KECCAK256 PUSH0 PUSH2 0x100 EXP DUP2 SLOAD DUP2 PUSH1 0xFF MUL NOT AND SWAP1 DUP4 ISZERO ISZERO MUL OR SWAP1 SSTORE POP POP PUSH2 0x190C JUMP JUMPDEST PUSH0 PUSH1 0x20 DUP4 MLOAD LT ISZERO PUSH2 0x2ED JUMPI PUSH2 0x2E6 DUP4 PUSH2 0x4BB PUSH1 0x20 SHL PUSH1 0x20 SHR JUMP JUMPDEST SWAP1 POP PUSH2 0x313 JUMP JUMPDEST DUP3 PUSH2 0x2FD DUP4 PUSH2 0x520 PUSH1 0x20 SHL PUSH1 0x20 SHR JUMP JUMPDEST PUSH0 ADD SWAP1 DUP2 PUSH2 0x30B SWAP2 SWAP1 PUSH2 0x13F1 JUMP JUMPDEST POP PUSH1 0xFF PUSH0 SHL SWAP1 POP JUMPDEST SWAP3 SWAP2 POP POP JUMP JUMPDEST PUSH0 PUSH32 0x8B73C3C69BB8FE3D512ECC4CF759CC79239F7B179B0FFACAA9A75D522B39400F PUSH1 0xE0 MLOAD PUSH2 0x100 MLOAD CHAINID ADDRESS PUSH1 0x40 MLOAD PUSH1 0x20 ADD PUSH2 0x358 SWAP6 SWAP5 SWAP4 SWAP3 SWAP2 SWAP1 PUSH2 0x150F JUMP JUMPDEST PUSH1 0x40 MLOAD PUSH1 0x20 DUP2 DUP4 SUB SUB DUP2 MSTORE SWAP1 PUSH1 0x40 MSTORE DUP1 MLOAD SWAP1 PUSH1 0x20 ADD KECCAK256 SWAP1 POP SWAP1 JUMP JUMPDEST PUSH0 PUSH1 0xB PUSH0 SWAP1 SLOAD SWAP1 PUSH2 0x100 EXP SWAP1 DIV PUSH20 0xFFFFFFFFFFFFFFFFFFFFFFFFFFFFFFFFFFFFFFFF AND SWAP1 POP DUP2 PUSH1 0xB PUSH0 PUSH2 0x100 EXP DUP2 SLOAD DUP2 PUSH20 0xFFFFFFFFFFFFFFFFFFFFFFFFFFFFFFFFFFFFFFFF MUL NOT AND SWAP1 DUP4 PUSH20 0xFFFFFFFFFFFFFFFFFFFFFFFFFFFFFFFFFFFFFFFF AND MUL OR SWAP1 SSTORE POP DUP2 PUSH20 0xFFFFFFFFFFFFFFFFFFFFFFFFFFFFFFFFFFFFFFFF AND DUP2 PUSH20 0xFFFFFFFFFFFFFFFFFFFFFFFFFFFFFFFFFFFFFFFF AND PUSH32 0x8BE0079C531659141344CD1FD0A4F28419497F9722A3DAAFE3B4186F6B6457E0 PUSH1 0x40 MLOAD PUSH1 0x40 MLOAD DUP1 SWAP2 SUB SWAP1 LOG3 POP POP JUMP JUMPDEST PUSH0 PUSH20 0xFFFFFFFFFFFFFFFFFFFFFFFFFFFFFFFFFFFFFFFF AND DUP3 PUSH20 0xFFFFFFFFFFFFFFFFFFFFFFFFFFFFFFFFFFFFFFFF AND SUB PUSH2 0x4A6 JUMPI PUSH0 PUSH1 0x40 MLOAD PUSH32 0xEC442F0500000000000000000000000000000000000000000000000000000000 DUP2 MSTORE PUSH1 0x4 ADD PUSH2 0x49D SWAP2 SWAP1 PUSH2 0x14CF JUMP JUMPDEST PUSH1 0x40 MLOAD DUP1 SWAP2 SUB SWAP1 REVERT JUMPDEST PUSH2 0x4B7 PUSH0 DUP4 DUP4 PUSH2 0x529 PUSH1 0x20 SHL PUSH1 0x20 SHR JUMP JUMPDEST POP POP JUMP JUMPDEST PUSH0 PUSH0 DUP3 SWAP1 POP PUSH1 0x1F DUP2 MLOAD GT ISZERO PUSH2 0x507 JUMPI DUP3 PUSH1 0x40 MLOAD PUSH32 0x305A27A900000000000000000000000000000000000000000000000000000000 DUP2 MSTORE PUSH1 0x4 ADD PUSH2 0x4FE SWAP2 SWAP1 PUSH2 0x15C6 JUMP JUMPDEST PUSH1 0x40 MLOAD DUP1 SWAP2 SUB SWAP1 REVERT JUMPDEST DUP1 MLOAD DUP2 PUSH2 0x513 SWAP1 PUSH2 0x1613 JUMP JUMPDEST PUSH0 SHR OR PUSH0 SHL SWAP2 POP POP SWAP2 SWAP1 POP JUMP JUMPDEST PUSH0 DUP2 SWAP1 POP SWAP2 SWAP1 POP JUMP JUMPDEST PUSH2 0x53A DUP4 DUP4 DUP4 PUSH2 0x53F PUSH1 0x20 SHL PUSH1 0x20 SHR JUMP JUMPDEST POP POP POP JUMP JUMPDEST PUSH2 0x550 DUP4 DUP4 DUP4 PUSH2 0x605 PUSH1 0x20 SHL PUSH1 0x20 SHR JUMP JUMPDEST PUSH0 PUSH20 0xFFFFFFFFFFFFFFFFFFFFFFFFFFFFFFFFFFFFFFFF AND DUP4 PUSH20 0xFFFFFFFFFFFFFFFFFFFFFFFFFFFFFFFFFFFFFFFF AND SUB PUSH2 0x5EF JUMPI PUSH0 PUSH2 0x592 PUSH2 0x81E PUSH1 0x20 SHL PUSH1 0x20 SHR JUMP JUMPDEST SWAP1 POP PUSH0 PUSH2 0x5A3 PUSH2 0x827 PUSH1 0x20 SHL PUSH1 0x20 SHR JUMP JUMPDEST SWAP1 POP DUP1 DUP3 GT ISZERO PUSH2 0x5EC JUMPI DUP2 DUP2 PUSH1 0x40 MLOAD PUSH32 0x1CB15D2600000000000000000000000000000000000000000000000000000000 DUP2 MSTORE PUSH1 0x4 ADD PUSH2 0x5E3 SWAP3 SWAP2 SWAP1 PUSH2 0x1679 JUMP JUMPDEST PUSH1 0x40 MLOAD DUP1 SWAP2 SUB SWAP1 REVERT JUMPDEST POP POP JUMPDEST PUSH2 0x600 DUP4 DUP4 DUP4 PUSH2 0x84A PUSH1 0x20 SHL PUSH1 0x20 SHR JUMP JUMPDEST POP POP POP JUMP JUMPDEST PUSH0 PUSH20 0xFFFFFFFFFFFFFFFFFFFFFFFFFFFFFFFFFFFFFFFF AND DUP4 PUSH20 0xFFFFFFFFFFFFFFFFFFFFFFFFFFFFFFFFFFFFFFFF AND SUB PUSH2 0x655 JUMPI DUP1 PUSH1 0x2 PUSH0 DUP3 DUP3 SLOAD PUSH2 0x649 SWAP2 SWAP1 PUSH2 0x16CD JUMP JUMPDEST SWAP3 POP POP DUP2 SWAP1 SSTORE POP PUSH2 0x723 JUMP JUMPDEST PUSH0 PUSH0 PUSH0 DUP6 PUSH20 0xFFFFFFFFFFFFFFFFFFFFFFFFFFFFFFFFFFFFFFFF AND PUSH20 0xFFFFFFFFFFFFFFFFFFFFFFFFFFFFFFFFFFFFFFFF AND DUP2 MSTORE PUSH1 0x20 ADD SWAP1 DUP2 MSTORE PUSH1 0x20 ADD PUSH0 KECCAK256 SLOAD SWAP1 POP DUP2 DUP2 LT ISZERO PUSH2 0x6DE JUMPI DUP4 DUP2 DUP4 PUSH1 0x40 MLOAD PUSH32 0xE450D38C00000000000000000000000000000000000000000000000000000000 DUP2 MSTORE PUSH1 0x4 ADD PUSH2 0x6D5 SWAP4 SWAP3 SWAP2 SWAP1 PUSH2 0x1700 JUMP JUMPDEST PUSH1 0x40 MLOAD DUP1 SWAP2 SUB SWAP1 REVERT JUMPDEST DUP2 DUP2 SUB PUSH0 PUSH0 DUP7 PUSH20 0xFFFFFFFFFFFFFFFFFFFFFFFFFFFFFFFFFFFFFFFF AND PUSH20 0xFFFFFFFFFFFFFFFFFFFFFFFFFFFFFFFFFFFFFFFF AND DUP2 MSTORE PUSH1 0x20 ADD SWAP1 DUP2 MSTORE PUSH1 0x20 ADD PUSH0 KECCAK256 DUP2 SWAP1 SSTORE POP POP JUMPDEST PUSH0 PUSH20 0xFFFFFFFFFFFFFFFFFFFFFFFFFFFFFFFFFFFFFFFF AND DUP3 PUSH20 0xFFFFFFFFFFFFFFFFFFFFFFFFFFFFFFFFFFFFFFFF AND SUB PUSH2 0x76A JUMPI DUP1 PUSH1 0x2 PUSH0 DUP3 DUP3 SLOAD SUB SWAP3 POP POP DUP2 SWAP1 SSTORE POP PUSH2 0x7B4 JUMP JUMPDEST DUP1 PUSH0 PUSH0 DUP5 PUSH20 0xFFFFFFFFFFFFFFFFFFFFFFFFFFFFFFFFFFFFFFFF AND PUSH20 0xFFFFFFFFFFFFFFFFFFFFFFFFFFFFFFFFFFFFFFFF AND DUP2 MSTORE PUSH1 0x20 ADD SWAP1 DUP2 MSTORE PUSH1 0x20 ADD PUSH0 KECCAK256 PUSH0 DUP3 DUP3 SLOAD ADD SWAP3 POP POP DUP2 SWAP1 SSTORE POP JUMPDEST DUP2 PUSH20 0xFFFFFFFFFFFFFFFFFFFFFFFFFFFFFFFFFFFFFFFF AND DUP4 PUSH20 0xFFFFFFFFFFFFFFFFFFFFFFFFFFFFFFFFFFFFFFFF AND PUSH32 0xDDF252AD1BE2C89B69C2B068FC378DAA952BA7F163C4A11628F55A4DF523B3EF DUP4 PUSH1 0x40 MLOAD PUSH2 0x811 SWAP2 SWAP1 PUSH2 0x1735 JUMP JUMPDEST PUSH1 0x40 MLOAD DUP1 SWAP2 SUB SWAP1 LOG3 POP POP POP JUMP JUMPDEST PUSH0 PUSH1 0x2 SLOAD SWAP1 POP SWAP1 JUMP JUMPDEST PUSH0 PUSH26 0xFFFFFFFFFFFFFFFFFFFFFFFFFFFFFFFFFFFFFFFFFFFFFFFFFFFF DUP1 AND SWAP1 POP SWAP1 JUMP JUMPDEST PUSH0 PUSH20 0xFFFFFFFFFFFFFFFFFFFFFFFFFFFFFFFFFFFFFFFF AND DUP4 PUSH20 0xFFFFFFFFFFFFFFFFFFFFFFFFFFFFFFFFFFFFFFFF AND SUB PUSH2 0x8A9 JUMPI PUSH2 0x8A6 PUSH1 0xA PUSH2 0x93A PUSH1 0x20 SHL PUSH2 0x1244 OR PUSH2 0x89B DUP5 PUSH2 0x94F PUSH1 0x20 SHL PUSH1 0x20 SHR JUMP JUMPDEST PUSH2 0x9BC PUSH1 0x20 SHL PUSH1 0x20 SHR JUMP JUMPDEST POP POP JUMPDEST PUSH0 PUSH20 0xFFFFFFFFFFFFFFFFFFFFFFFFFFFFFFFFFFFFFFFF AND DUP3 PUSH20 0xFFFFFFFFFFFFFFFFFFFFFFFFFFFFFFFFFFFFFFFF AND SUB PUSH2 0x908 JUMPI PUSH2 0x905 PUSH1 0xA PUSH2 0xA04 PUSH1 0x20 SHL PUSH2 0x1259 OR PUSH2 0x8FA DUP5 PUSH2 0x94F PUSH1 0x20 SHL PUSH1 0x20 SHR JUMP JUMPDEST PUSH2 0x9BC PUSH1 0x20 SHL PUSH1 0x20 SHR JUMP JUMPDEST POP POP JUMPDEST PUSH2 0x935 PUSH2 0x91A DUP5 PUSH2 0xA19 PUSH1 0x20 SHL PUSH1 0x20 SHR JUMP JUMPDEST PUSH2 0x929 DUP5 PUSH2 0xA19 PUSH1 0x20 SHL PUSH1 0x20 SHR JUMP JUMPDEST DUP4 PUSH2 0xA7E PUSH1 0x20 SHL PUSH1 0x20 SHR JUMP JUMPDEST POP POP POP JUMP JUMPDEST PUSH0 DUP2 DUP4 PUSH2 0x947 SWAP2 SWAP1 PUSH2 0x1773 JUMP JUMPDEST SWAP1 POP SWAP3 SWAP2 POP POP JUMP JUMPDEST PUSH0 PUSH26 0xFFFFFFFFFFFFFFFFFFFFFFFFFFFFFFFFFFFFFFFFFFFFFFFFFFFF DUP1 AND DUP3 GT ISZERO PUSH2 0x9B4 JUMPI PUSH1 0xD0 DUP3 PUSH1 0x40 MLOAD PUSH32 0x6DFCC65000000000000000000000000000000000000000000000000000000000 DUP2 MSTORE PUSH1 0x4 ADD PUSH2 0x9AB SWAP3 SWAP2 SWAP1 PUSH2 0x1805 JUMP JUMPDEST PUSH1 0x40 MLOAD DUP1 SWAP2 SUB SWAP1 REVERT JUMPDEST DUP2 SWAP1 POP SWAP2 SWAP1 POP JUMP JUMPDEST PUSH0 PUSH0 PUSH2 0x9F8 PUSH2 0x9CF PUSH2 0xD14 PUSH1 0x20 SHL PUSH1 0x20 SHR JUMP JUMPDEST PUSH2 0x9E8 PUSH2 0x9E1 DUP9 PUSH2 0xD28 PUSH1 0x20 SHL PUSH1 0x20 SHR JUMP JUMPDEST DUP7 DUP9 PUSH1 0x20 SHR JUMP JUMPDEST DUP8 PUSH2 0xD90 PUSH1 0x20 SHL SWAP1 SWAP3 SWAP2 SWAP1 PUSH1 0x20 SHR JUMP JUMPDEST SWAP2 POP SWAP2 POP SWAP4 POP SWAP4 SWAP2 POP POP JUMP JUMPDEST PUSH0 DUP2 DUP4 PUSH2 0xA11 SWAP2 SWAP1 PUSH2 0x182C JUMP JUMPDEST SWAP1 POP SWAP3 SWAP2 POP POP JUMP JUMPDEST PUSH0 PUSH1 0x8 PUSH0 DUP4 PUSH20 0xFFFFFFFFFFFFFFFFFFFFFFFFFFFFFFFFFFFFFFFF AND PUSH20 0xFFFFFFFFFFFFFFFFFFFFFFFFFFFFFFFFFFFFFFFF AND DUP2 MSTORE PUSH1 0x20 ADD SWAP1 DUP2 MSTORE PUSH1 0x20 ADD PUSH0 KECCAK256 PUSH0 SWAP1 SLOAD SWAP1 PUSH2 0x100 EXP SWAP1 DIV PUSH20 0xFFFFFFFFFFFFFFFFFFFFFFFFFFFFFFFFFFFFFFFF AND SWAP1 POP SWAP2 SWAP1 POP JUMP JUMPDEST DUP2 PUSH20 0xFFFFFFFFFFFFFFFFFFFFFFFFFFFFFFFFFFFFFFFF AND DUP4 PUSH20 0xFFFFFFFFFFFFFFFFFFFFFFFFFFFFFFFFFFFFFFFF AND EQ ISZERO DUP1 ISZERO PUSH2 0xAB9 JUMPI POP PUSH0 DUP2 GT JUMPDEST ISZERO PUSH2 0xD0F JUMPI PUSH0 PUSH20 0xFFFFFFFFFFFFFFFFFFFFFFFFFFFFFFFFFFFFFFFF AND DUP4 PUSH20 0xFFFFFFFFFFFFFFFFFFFFFFFFFFFFFFFFFFFFFFFF AND EQ PUSH2 0xBE6 JUMPI PUSH0 PUSH0 PUSH2 0xB57 PUSH1 0x9 PUSH0 DUP8 PUSH20 0xFFFFFFFFFFFFFFFFFFFFFFFFFFFFFFFFFFFFFFFF AND PUSH20 0xFFFFFFFFFFFFFFFFFFFFFFFFFFFFFFFFFFFFFFFF AND DUP2 MSTORE PUSH1 0x20 ADD SWAP1 DUP2 MSTORE PUSH1 0x20 ADD PUSH0 KECCAK256 PUSH2 0xA04 PUSH1 0x20 SHL PUSH2 0x1259 OR PUSH2 0xB4C DUP7 PUSH2 0x94F PUSH1 0x20 SHL PUSH1 0x20 SHR JUMP JUMPDEST PUSH2 0x9BC PUSH1 0x20 SHL PUSH1 0x20 SHR JUMP JUMPDEST PUSH26 0xFFFFFFFFFFFFFFFFFFFFFFFFFFFFFFFFFFFFFFFFFFFFFFFFFFFF AND SWAP2 POP PUSH26 0xFFFFFFFFFFFFFFFFFFFFFFFFFFFFFFFFFFFFFFFFFFFFFFFFFFFF AND SWAP2 POP DUP5 PUSH20 0xFFFFFFFFFFFFFFFFFFFFFFFFFFFFFFFFFFFFFFFF AND PUSH32 0xDEC2BACDD2F05B59DE34DA9B523DFF8BE42E5E38E818C82FDB0BAE774387A724 DUP4 DUP4 PUSH1 0x40 MLOAD PUSH2 0xBDB SWAP3 SWAP2 SWAP1 PUSH2 0x1679 JUMP JUMPDEST PUSH1 0x40 MLOAD DUP1 SWAP2 SUB SWAP1 LOG2 POP POP JUMPDEST PUSH0 PUSH20 0xFFFFFFFFFFFFFFFFFFFFFFFFFFFFFFFFFFFFFFFF AND DUP3 PUSH20 0xFFFFFFFFFFFFFFFFFFFFFFFFFFFFFFFFFFFFFFFF AND EQ PUSH2 0xD0E JUMPI PUSH0 PUSH0 PUSH2 0xC7F PUSH1 0x9 PUSH0 DUP7 PUSH20 0xFFFFFFFFFFFFFFFFFFFFFFFFFFFFFFFFFFFFFFFF AND PUSH20 0xFFFFFFFFFFFFFFFFFFFFFFFFFFFFFFFFFFFFFFFF AND DUP2 MSTORE PUSH1 0x20 ADD SWAP1 DUP2 MSTORE PUSH1 0x20 ADD PUSH0 KECCAK256 PUSH2 0x93A PUSH1 0x20 SHL PUSH2 0x1244 OR PUSH2 0xC74 DUP7 PUSH2 0x94F PUSH1 0x20 SHL PUSH1 0x20 SHR JUMP JUMPDEST PUSH2 0x9BC PUSH1 0x20 SHL PUSH1 0x20 SHR JUMP JUMPDEST PUSH26 0xFFFFFFFFFFFFFFFFFFFFFFFFFFFFFFFFFFFFFFFFFFFFFFFFFFFF AND SWAP2 POP PUSH26 0xFFFFFFFFFFFFFFFFFFFFFFFFFFFFFFFFFFFFFFFFFFFFFFFFFFFF AND SWAP2 POP DUP4 PUSH20 0xFFFFFFFFFFFFFFFFFFFFFFFFFFFFFFFFFFFFFFFF AND PUSH32 0xDEC2BACDD2F05B59DE34DA9B523DFF8BE42E5E38E818C82FDB0BAE774387A724 DUP4 DUP4 PUSH1 0x40 MLOAD PUSH2 0xD03 SWAP3 SWAP2 SWAP1 PUSH2 0x1679 JUMP JUMPDEST PUSH1 0x40 MLOAD DUP1 SWAP2 SUB SWAP1 LOG2 POP POP JUMPDEST JUMPDEST POP POP POP JUMP JUMPDEST PUSH0 PUSH2 0xD23 PUSH2 0xDB1 PUSH1 0x20 SHL PUSH1 0x20 SHR JUMP JUMPDEST SWAP1 POP SWAP1 JUMP JUMPDEST PUSH0 PUSH0 DUP3 PUSH0 ADD DUP1 SLOAD SWAP1 POP SWAP1 POP PUSH0 DUP2 EQ PUSH2 0xD86 JUMPI PUSH2 0xD58 DUP4 PUSH0 ADD PUSH1 0x1 DUP4 PUSH2 0xD4D SWAP2 SWAP1 PUSH2 0x1879 JUMP JUMPDEST PUSH2 0xDC6 PUSH1 0x20 SHL PUSH1 0x20 SHR JUMP JUMPDEST PUSH0 ADD PUSH1 0x6 SWAP1 SLOAD SWAP1 PUSH2 0x100 EXP SWAP1 DIV PUSH26 0xFFFFFFFFFFFFFFFFFFFFFFFFFFFFFFFFFFFFFFFFFFFFFFFFFFFF AND PUSH2 0xD88 JUMP JUMPDEST PUSH0 JUMPDEST SWAP2 POP POP SWAP2 SWAP1 POP JUMP JUMPDEST PUSH0 PUSH0 PUSH2 0xDA5 DUP6 PUSH0 ADD DUP6 DUP6 PUSH2 0xDD8 PUSH1 0x20 SHL PUSH1 0x20 SHR JUMP JUMPDEST SWAP2 POP SWAP2 POP SWAP4 POP SWAP4 SWAP2 POP POP JUMP JUMPDEST PUSH0 PUSH2 0xDC1 NUMBER PUSH2 0x10D2 PUSH1 0x20 SHL PUSH1 0x20 SHR JUMP JUMPDEST SWAP1 POP SWAP1 JUMP JUMPDEST PUSH0 DUP3 PUSH0 MSTORE DUP2 PUSH1 0x20 PUSH0 KECCAK256 ADD SWAP1 POP SWAP3 SWAP2 POP POP JUMP JUMPDEST PUSH0 PUSH0 PUSH0 DUP6 DUP1 SLOAD SWAP1 POP SWAP1 POP PUSH0 DUP2 GT ISZERO PUSH2 0xFEA JUMPI PUSH0 PUSH2 0xE07 DUP8 PUSH1 0x1 DUP5 PUSH2 0xDFC SWAP2 SWAP1 PUSH2 0x1879 JUMP JUMPDEST PUSH2 0xDC6 PUSH1 0x20 SHL PUSH1 0x20 SHR JUMP JUMPDEST SWAP1 POP PUSH0 DUP2 PUSH0 ADD PUSH0 SWAP1 SLOAD SWAP1 PUSH2 0x100 EXP SWAP1 DIV PUSH6 0xFFFFFFFFFFFF AND SWAP1 POP PUSH0 DUP3 PUSH0 ADD PUSH1 0x6 SWAP1 SLOAD SWAP1 PUSH2 0x100 EXP SWAP1 DIV PUSH26 0xFFFFFFFFFFFFFFFFFFFFFFFFFFFFFFFFFFFFFFFFFFFFFFFFFFFF AND SWAP1 POP DUP8 PUSH6 0xFFFFFFFFFFFF AND DUP3 PUSH6 0xFFFFFFFFFFFF AND GT ISZERO PUSH2 0xE98 JUMPI PUSH1 0x40 MLOAD PUSH32 0x2520601D00000000000000000000000000000000000000000000000000000000 DUP2 MSTORE PUSH1 0x4 ADD PUSH1 0x40 MLOAD DUP1 SWAP2 SUB SWAP1 REVERT JUMPDEST DUP8 PUSH6 0xFFFFFFFFFFFF AND DUP3 PUSH6 0xFFFFFFFFFFFF AND SUB PUSH2 0xF02 JUMPI DUP7 DUP4 PUSH0 ADD PUSH1 0x6 PUSH2 0x100 EXP DUP2 SLOAD DUP2 PUSH26 0xFFFFFFFFFFFFFFFFFFFFFFFFFFFFFFFFFFFFFFFFFFFFFFFFFFFF MUL NOT AND SWAP1 DUP4 PUSH26 0xFFFFFFFFFFFFFFFFFFFFFFFFFFFFFFFFFFFFFFFFFFFFFFFFFFFF AND MUL OR SWAP1 SSTORE POP PUSH2 0xFDB JUMP JUMPDEST DUP9 PUSH1 0x40 MLOAD DUP1 PUSH1 0x40 ADD PUSH1 0x40 MSTORE DUP1 DUP11 PUSH6 0xFFFFFFFFFFFF AND DUP2 MSTORE PUSH1 0x20 ADD DUP10 PUSH26 0xFFFFFFFFFFFFFFFFFFFFFFFFFFFFFFFFFFFFFFFFFFFFFFFFFFFF AND DUP2 MSTORE POP SWAP1 DUP1 PUSH1 0x1 DUP2 SLOAD ADD DUP1 DUP3 SSTORE DUP1 SWAP2 POP POP PUSH1 0x1 SWAP1 SUB SWAP1 PUSH0 MSTORE PUSH1 0x20 PUSH0 KECCAK256 ADD PUSH0 SWAP1 SWAP2 SWAP1 SWAP2 SWAP1 SWAP2 POP PUSH0 DUP3 ADD MLOAD DUP2 PUSH0 ADD PUSH0 PUSH2 0x100 EXP DUP2 SLOAD DUP2 PUSH6 0xFFFFFFFFFFFF MUL NOT AND SWAP1 DUP4 PUSH6 0xFFFFFFFFFFFF AND MUL OR SWAP1 SSTORE POP PUSH1 0x20 DUP3 ADD MLOAD DUP2 PUSH0 ADD PUSH1 0x6 PUSH2 0x100 EXP DUP2 SLOAD DUP2 PUSH26 0xFFFFFFFFFFFFFFFFFFFFFFFFFFFFFFFFFFFFFFFFFFFFFFFFFFFF MUL NOT AND SWAP1 DUP4 PUSH26 0xFFFFFFFFFFFFFFFFFFFFFFFFFFFFFFFFFFFFFFFFFFFFFFFFFFFF AND MUL OR SWAP1 SSTORE POP POP POP JUMPDEST DUP1 DUP8 SWAP6 POP SWAP6 POP POP POP POP POP PUSH2 0x10CA JUMP JUMPDEST DUP6 PUSH1 0x40 MLOAD DUP1 PUSH1 0x40 ADD PUSH1 0x40 MSTORE DUP1 DUP8 PUSH6 0xFFFFFFFFFFFF AND DUP2 MSTORE PUSH1 0x20 ADD DUP7 PUSH26 0xFFFFFFFFFFFFFFFFFFFFFFFFFFFFFFFFFFFFFFFFFFFFFFFFFFFF AND DUP2 MSTORE POP SWAP1 DUP1 PUSH1 0x1 DUP2 SLOAD ADD DUP1 DUP3 SSTORE DUP1 SWAP2 POP POP PUSH1 0x1 SWAP1 SUB SWAP1 PUSH0 MSTORE PUSH1 0x20 PUSH0 KECCAK256 ADD PUSH0 SWAP1 SWAP2 SWAP1 SWAP2 SWAP1 SWAP2 POP PUSH0 DUP3 ADD MLOAD DUP2 PUSH0 ADD PUSH0 PUSH2 0x100 EXP DUP2 SLOAD DUP2 PUSH6 0xFFFFFFFFFFFF MUL NOT AND SWAP1 DUP4 PUSH6 0xFFFFFFFFFFFF AND MUL OR SWAP1 SSTORE POP PUSH1 0x20 DUP3 ADD MLOAD DUP2 PUSH0 ADD PUSH1 0x6 PUSH2 0x100 EXP DUP2 SLOAD DUP2 PUSH26 0xFFFFFFFFFFFFFFFFFFFFFFFFFFFFFFFFFFFFFFFFFFFFFFFFFFFF MUL NOT AND SWAP1 DUP4 PUSH26 0xFFFFFFFFFFFFFFFFFFFFFFFFFFFFFFFFFFFFFFFFFFFFFFFFFFFF AND MUL OR SWAP1 SSTORE POP POP POP PUSH0 DUP5 SWAP3 POP SWAP3 POP POP JUMPDEST SWAP4 POP SWAP4 SWAP2 POP POP JUMP JUMPDEST PUSH0 PUSH6 0xFFFFFFFFFFFF DUP1 AND DUP3 GT ISZERO PUSH2 0x1123 JUMPI PUSH1 0x30 DUP3 PUSH1 0x40 MLOAD PUSH32 0x6DFCC65000000000000000000000000000000000000000000000000000000000 DUP2 MSTORE PUSH1 0x4 ADD PUSH2 0x111A SWAP3 SWAP2 SWAP1 PUSH2 0x18E5 JUMP JUMPDEST PUSH1 0x40 MLOAD DUP1 SWAP2 SUB SWAP1 REVERT JUMPDEST DUP2 SWAP1 POP SWAP2 SWAP1 POP JUMP JUMPDEST PUSH0 PUSH0 REVERT JUMPDEST PUSH0 PUSH20 0xFFFFFFFFFFFFFFFFFFFFFFFFFFFFFFFFFFFFFFFF DUP3 AND SWAP1 POP SWAP2 SWAP1 POP JUMP JUMPDEST PUSH0 PUSH2 0x1158 DUP3 PUSH2 0x112F JUMP JUMPDEST SWAP1 POP SWAP2 SWAP1 POP JUMP JUMPDEST PUSH2 0x1168 DUP2 PUSH2 0x114E JUMP JUMPDEST DUP2 EQ PUSH2 0x1172 JUMPI PUSH0 PUSH0 REVERT JUMPDEST POP JUMP JUMPDEST PUSH0 DUP2 MLOAD SWAP1 POP PUSH2 0x1183 DUP2 PUSH2 0x115F JUMP JUMPDEST SWAP3 SWAP2 POP POP JUMP JUMPDEST PUSH0 PUSH1 0x20 DUP3 DUP5 SUB SLT ISZERO PUSH2 0x119E JUMPI PUSH2 0x119D PUSH2 0x112B JUMP JUMPDEST JUMPDEST PUSH0 PUSH2 0x11AB DUP5 DUP3 DUP6 ADD PUSH2 0x1175 JUMP JUMPDEST SWAP2 POP POP SWAP3 SWAP2 POP POP JUMP JUMPDEST PUSH0 DUP2 MLOAD SWAP1 POP SWAP2 SWAP1 POP JUMP JUMPDEST PUSH32 0x4E487B7100000000000000000000000000000000000000000000000000000000 PUSH0 MSTORE PUSH1 0x41 PUSH1 0x4 MSTORE PUSH1 0x24 PUSH0 REVERT JUMPDEST PUSH32 0x4E487B7100000000000000000000000000000000000000000000000000000000 PUSH0 MSTORE PUSH1 0x22 PUSH1 0x4 MSTORE PUSH1 0x24 PUSH0 REVERT JUMPDEST PUSH0 PUSH1 0x2 DUP3 DIV SWAP1 POP PUSH1 0x1 DUP3 AND DUP1 PUSH2 0x122F JUMPI PUSH1 0x7F DUP3 AND SWAP2 POP JUMPDEST PUSH1 0x20 DUP3 LT DUP2 SUB PUSH2 0x1242 JUMPI PUSH2 0x1241 PUSH2 0x11EB JUMP JUMPDEST JUMPDEST POP SWAP2 SWAP1 POP JUMP JUMPDEST PUSH0 DUP2 SWAP1 POP DUP2 PUSH0 MSTORE PUSH1 0x20 PUSH0 KECCAK256 SWAP1 POP SWAP2 SWAP1 POP JUMP JUMPDEST PUSH0 PUSH1 0x20 PUSH1 0x1F DUP4 ADD DIV SWAP1 POP SWAP2 SWAP1 POP JUMP JUMPDEST PUSH0 DUP3 DUP3 SHL SWAP1 POP SWAP3 SWAP2 POP POP JUMP JUMPDEST PUSH0 PUSH1 0x8 DUP4 MUL PUSH2 0x12A4 PUSH32 0xFFFFFFFFFFFFFFFFFFFFFFFFFFFFFFFFFFFFFFFFFFFFFFFFFFFFFFFFFFFFFFFF DUP3 PUSH2 0x1269 JUMP JUMPDEST PUSH2 0x12AE DUP7 DUP4 PUSH2 0x1269 JUMP JUMPDEST SWAP6 POP DUP1 NOT DUP5 AND SWAP4 POP DUP1 DUP7 AND DUP5 OR SWAP3 POP POP POP SWAP4 SWAP3 POP POP POP JUMP JUMPDEST PUSH0 DUP2 SWAP1 POP SWAP2 SWAP1 POP JUMP JUMPDEST PUSH0 DUP2 SWAP1 POP SWAP2 SWAP1 POP JUMP JUMPDEST PUSH0 PUSH2 0x12F2 PUSH2 0x12ED PUSH2 0x12E8 DUP5 PUSH2 0x12C6 JUMP JUMPDEST PUSH2 0x12CF JUMP JUMPDEST PUSH2 0x12C6 JUMP JUMPDEST SWAP1 POP SWAP2 SWAP1 POP JUMP JUMPDEST PUSH0 DUP2 SWAP1 POP SWAP2 SWAP1 POP JUMP JUMPDEST PUSH2 0x130B DUP4 PUSH2 0x12D8 JUMP JUMPDEST PUSH2 0x131F PUSH2 0x1317 DUP3 PUSH2 0x12F9 JUMP JUMPDEST DUP5 DUP5 SLOAD PUSH2 0x1275 JUMP JUMPDEST DUP3 SSTORE POP POP POP POP JUMP JUMPDEST PUSH0 PUSH0 SWAP1 POP SWAP1 JUMP JUMPDEST PUSH2 0x1336 PUSH2 0x1327 JUMP JUMPDEST PUSH2 0x1341 DUP2 DUP5 DUP5 PUSH2 0x1302 JUMP JUMPDEST POP POP POP JUMP JUMPDEST JUMPDEST DUP2 DUP2 LT ISZERO PUSH2 0x1364 JUMPI PUSH2 0x1359 PUSH0 DUP3 PUSH2 0x132E JUMP JUMPDEST PUSH1 0x1 DUP2 ADD SWAP1 POP PUSH2 0x1347 JUMP JUMPDEST POP POP JUMP JUMPDEST PUSH1 0x1F DUP3 GT ISZERO PUSH2 0x13A9 JUMPI PUSH2 0x137A DUP2 PUSH2 0x1248 JUMP JUMPDEST PUSH2 0x1383 DUP5 PUSH2 0x125A JUMP JUMPDEST DUP2 ADD PUSH1 0x20 DUP6 LT ISZERO PUSH2 0x1392 JUMPI DUP2 SWAP1 POP JUMPDEST PUSH2 0x13A6 PUSH2 0x139E DUP6 PUSH2 0x125A JUMP JUMPDEST DUP4 ADD DUP3 PUSH2 0x1346 JUMP JUMPDEST POP POP JUMPDEST POP POP POP JUMP JUMPDEST PUSH0 DUP3 DUP3 SHR SWAP1 POP SWAP3 SWAP2 POP POP JUMP JUMPDEST PUSH0 PUSH2 0x13C9 PUSH0 NOT DUP5 PUSH1 0x8 MUL PUSH2 0x13AE JUMP JUMPDEST NOT DUP1 DUP4 AND SWAP2 POP POP SWAP3 SWAP2 POP POP JUMP JUMPDEST PUSH0 PUSH2 0x13E1 DUP4 DUP4 PUSH2 0x13BA JUMP JUMPDEST SWAP2 POP DUP3 PUSH1 0x2 MUL DUP3 OR SWAP1 POP SWAP3 SWAP2 POP POP JUMP JUMPDEST PUSH2 0x13FA DUP3 PUSH2 0x11B4 JUMP JUMPDEST PUSH8 0xFFFFFFFFFFFFFFFF DUP2 GT ISZERO PUSH2 0x1413 JUMPI PUSH2 0x1412 PUSH2 0x11BE JUMP JUMPDEST JUMPDEST PUSH2 0x141D DUP3 SLOAD PUSH2 0x1218 JUMP JUMPDEST PUSH2 0x1428 DUP3 DUP3 DUP6 PUSH2 0x1368 JUMP JUMPDEST PUSH0 PUSH1 0x20 SWAP1 POP PUSH1 0x1F DUP4 GT PUSH1 0x1 DUP2 EQ PUSH2 0x1459 JUMPI PUSH0 DUP5 ISZERO PUSH2 0x1447 JUMPI DUP3 DUP8 ADD MLOAD SWAP1 POP JUMPDEST PUSH2 0x1451 DUP6 DUP3 PUSH2 0x13D6 JUMP JUMPDEST DUP7 SSTORE POP PUSH2 0x14B8 JUMP JUMPDEST PUSH1 0x1F NOT DUP5 AND PUSH2 0x1467 DUP7 PUSH2 0x1248 JUMP JUMPDEST PUSH0 JUMPDEST DUP3 DUP2 LT ISZERO PUSH2 0x148E JUMPI DUP5 DUP10 ADD MLOAD DUP3 SSTORE PUSH1 0x1 DUP3 ADD SWAP2 POP PUSH1 0x20 DUP6 ADD SWAP5 POP PUSH1 0x20 DUP2 ADD SWAP1 POP PUSH2 0x1469 JUMP JUMPDEST DUP7 DUP4 LT ISZERO PUSH2 0x14AB JUMPI DUP5 DUP10 ADD MLOAD PUSH2 0x14A7 PUSH1 0x1F DUP10 AND DUP3 PUSH2 0x13BA JUMP JUMPDEST DUP4 SSTORE POP JUMPDEST PUSH1 0x1 PUSH1 0x2 DUP9 MUL ADD DUP9 SSTORE POP POP POP JUMPDEST POP POP POP POP POP POP JUMP JUMPDEST PUSH2 0x14C9 DUP2 PUSH2 0x114E JUMP JUMPDEST DUP3 MSTORE POP POP JUMP JUMPDEST PUSH0 PUSH1 0x20 DUP3 ADD SWAP1 POP PUSH2 0x14E2 PUSH0 DUP4 ADD DUP5 PUSH2 0x14C0 JUMP JUMPDEST SWAP3 SWAP2 POP POP JUMP JUMPDEST PUSH0 DUP2 SWAP1 POP SWAP2 SWAP1 POP JUMP JUMPDEST PUSH2 0x14FA DUP2 PUSH2 0x14E8 JUMP JUMPDEST DUP3 MSTORE POP POP JUMP JUMPDEST PUSH2 0x1509 DUP2 PUSH2 0x12C6 JUMP JUMPDEST DUP3 MSTORE POP POP JUMP JUMPDEST PUSH0 PUSH1 0xA0 DUP3 ADD SWAP1 POP PUSH2 0x1522 PUSH0 DUP4 ADD DUP9 PUSH2 0x14F1 JUMP JUMPDEST PUSH2 0x152F PUSH1 0x20 DUP4 ADD DUP8 PUSH2 0x14F1 JUMP JUMPDEST PUSH2 0x153C PUSH1 0x40 DUP4 ADD DUP7 PUSH2 0x14F1 JUMP JUMPDEST PUSH2 0x1549 PUSH1 0x60 DUP4 ADD DUP6 PUSH2 0x1500 JUMP JUMPDEST PUSH2 0x1556 PUSH1 0x80 DUP4 ADD DUP5 PUSH2 0x14C0 JUMP JUMPDEST SWAP7 SWAP6 POP POP POP POP POP POP JUMP JUMPDEST PUSH0 DUP3 DUP3 MSTORE PUSH1 0x20 DUP3 ADD SWAP1 POP SWAP3 SWAP2 POP POP JUMP JUMPDEST DUP3 DUP2 DUP4 MCOPY PUSH0 DUP4 DUP4 ADD MSTORE POP POP POP JUMP JUMPDEST PUSH0 PUSH1 0x1F NOT PUSH1 0x1F DUP4 ADD AND SWAP1 POP SWAP2 SWAP1 POP JUMP JUMPDEST PUSH0 PUSH2 0x1598 DUP3 PUSH2 0x11B4 JUMP JUMPDEST PUSH2 0x15A2 DUP2 DUP6 PUSH2 0x1560 JUMP JUMPDEST SWAP4 POP PUSH2 0x15B2 DUP2 DUP6 PUSH1 0x20 DUP7 ADD PUSH2 0x1570 JUMP JUMPDEST PUSH2 0x15BB DUP2 PUSH2 0x157E JUMP JUMPDEST DUP5 ADD SWAP2 POP POP SWAP3 SWAP2 POP POP JUMP JUMPDEST PUSH0 PUSH1 0x20 DUP3 ADD SWAP1 POP DUP2 DUP2 SUB PUSH0 DUP4 ADD MSTORE PUSH2 0x15DE DUP2 DUP5 PUSH2 0x158E JUMP JUMPDEST SWAP1 POP SWAP3 SWAP2 POP POP JUMP JUMPDEST PUSH0 DUP2 MLOAD SWAP1 POP SWAP2 SWAP1 POP JUMP JUMPDEST PUSH0 DUP2 SWAP1 POP PUSH1 0x20 DUP3 ADD SWAP1 POP SWAP2 SWAP1 POP JUMP JUMPDEST PUSH0 PUSH2 0x160A DUP3 MLOAD PUSH2 0x14E8 JUMP JUMPDEST DUP1 SWAP2 POP POP SWAP2 SWAP1 POP JUMP JUMPDEST PUSH0 PUSH2 0x161D DUP3 PUSH2 0x15E6 JUMP JUMPDEST DUP3 PUSH2 0x1627 DUP5 PUSH2 0x15F0 JUMP JUMPDEST SWAP1 POP PUSH2 0x1632 DUP2 PUSH2 0x15FF JUMP JUMPDEST SWAP3 POP PUSH1 0x20 DUP3 LT ISZERO PUSH2 0x1672 JUMPI PUSH2 0x166D PUSH32 0xFFFFFFFFFFFFFFFFFFFFFFFFFFFFFFFFFFFFFFFFFFFFFFFFFFFFFFFFFFFFFFFF DUP4 PUSH1 0x20 SUB PUSH1 0x8 MUL PUSH2 0x1269 JUMP JUMPDEST DUP4 AND SWAP3 POP JUMPDEST POP POP SWAP2 SWAP1 POP JUMP JUMPDEST PUSH0 PUSH1 0x40 DUP3 ADD SWAP1 POP PUSH2 0x168C PUSH0 DUP4 ADD DUP6 PUSH2 0x1500 JUMP JUMPDEST PUSH2 0x1699 PUSH1 0x20 DUP4 ADD DUP5 PUSH2 0x1500 JUMP JUMPDEST SWAP4 SWAP3 POP POP POP JUMP JUMPDEST PUSH32 0x4E487B7100000000000000000000000000000000000000000000000000000000 PUSH0 MSTORE PUSH1 0x11 PUSH1 0x4 MSTORE PUSH1 0x24 PUSH0 REVERT JUMPDEST PUSH0 PUSH2 0x16D7 DUP3 PUSH2 0x12C6 JUMP JUMPDEST SWAP2 POP PUSH2 0x16E2 DUP4 PUSH2 0x12C6 JUMP JUMPDEST SWAP3 POP DUP3 DUP3 ADD SWAP1 POP DUP1 DUP3 GT ISZERO PUSH2 0x16FA JUMPI PUSH2 0x16F9 PUSH2 0x16A0 JUMP JUMPDEST JUMPDEST SWAP3 SWAP2 POP POP JUMP JUMPDEST PUSH0 PUSH1 0x60 DUP3 ADD SWAP1 POP PUSH2 0x1713 PUSH0 DUP4 ADD DUP7 PUSH2 0x14C0 JUMP JUMPDEST PUSH2 0x1720 PUSH1 0x20 DUP4 ADD DUP6 PUSH2 0x1500 JUMP JUMPDEST PUSH2 0x172D PUSH1 0x40 DUP4 ADD DUP5 PUSH2 0x1500 JUMP JUMPDEST SWAP5 SWAP4 POP POP POP POP JUMP JUMPDEST PUSH0 PUSH1 0x20 DUP3 ADD SWAP1 POP PUSH2 0x1748 PUSH0 DUP4 ADD DUP5 PUSH2 0x1500 JUMP JUMPDEST SWAP3 SWAP2 POP POP JUMP JUMPDEST PUSH0 PUSH26 0xFFFFFFFFFFFFFFFFFFFFFFFFFFFFFFFFFFFFFFFFFFFFFFFFFFFF DUP3 AND SWAP1 POP SWAP2 SWAP1 POP JUMP JUMPDEST PUSH0 PUSH2 0x177D DUP3 PUSH2 0x174E JUMP JUMPDEST SWAP2 POP PUSH2 0x1788 DUP4 PUSH2 0x174E JUMP JUMPDEST SWAP3 POP DUP3 DUP3 ADD SWAP1 POP PUSH26 0xFFFFFFFFFFFFFFFFFFFFFFFFFFFFFFFFFFFFFFFFFFFFFFFFFFFF DUP2 GT ISZERO PUSH2 0x17BA JUMPI PUSH2 0x17B9 PUSH2 0x16A0 JUMP JUMPDEST JUMPDEST SWAP3 SWAP2 POP POP JUMP JUMPDEST PUSH0 DUP2 SWAP1 POP SWAP2 SWAP1 POP JUMP JUMPDEST PUSH0 PUSH1 0xFF DUP3 AND SWAP1 POP SWAP2 SWAP1 POP JUMP JUMPDEST PUSH0 PUSH2 0x17EF PUSH2 0x17EA PUSH2 0x17E5 DUP5 PUSH2 0x17C0 JUMP JUMPDEST PUSH2 0x12CF JUMP JUMPDEST PUSH2 0x17C9 JUMP JUMPDEST SWAP1 POP SWAP2 SWAP1 POP JUMP JUMPDEST PUSH2 0x17FF DUP2 PUSH2 0x17D5 JUMP JUMPDEST DUP3 MSTORE POP POP JUMP JUMPDEST PUSH0 PUSH1 0x40 DUP3 ADD SWAP1 POP PUSH2 0x1818 PUSH0 DUP4 ADD DUP6 PUSH2 0x17F6 JUMP JUMPDEST PUSH2 0x1825 PUSH1 0x20 DUP4 ADD DUP5 PUSH2 0x1500 JUMP JUMPDEST SWAP4 SWAP3 POP POP POP JUMP JUMPDEST PUSH0 PUSH2 0x1836 DUP3 PUSH2 0x174E JUMP JUMPDEST SWAP2 POP PUSH2 0x1841 DUP4 PUSH2 0x174E JUMP JUMPDEST SWAP3 POP DUP3 DUP3 SUB SWAP1 POP PUSH26 0xFFFFFFFFFFFFFFFFFFFFFFFFFFFFFFFFFFFFFFFFFFFFFFFFFFFF DUP2 GT ISZERO PUSH2 0x1873 JUMPI PUSH2 0x1872 PUSH2 0x16A0 JUMP JUMPDEST JUMPDEST SWAP3 SWAP2 POP POP JUMP JUMPDEST PUSH0 PUSH2 0x1883 DUP3 PUSH2 0x12C6 JUMP JUMPDEST SWAP2 POP PUSH2 0x188E DUP4 PUSH2 0x12C6 JUMP JUMPDEST SWAP3 POP DUP3 DUP3 SUB SWAP1 POP DUP2 DUP2 GT ISZERO PUSH2 0x18A6 JUMPI PUSH2 0x18A5 PUSH2 0x16A0 JUMP JUMPDEST JUMPDEST SWAP3 SWAP2 POP POP JUMP JUMPDEST PUSH0 DUP2 SWAP1 POP SWAP2 SWAP1 POP JUMP JUMPDEST PUSH0 PUSH2 0x18CF PUSH2 0x18CA PUSH2 0x18C5 DUP5 PUSH2 0x18AC JUMP JUMPDEST PUSH2 0x12CF JUMP JUMPDEST PUSH2 0x17C9 JUMP JUMPDEST SWAP1 POP SWAP2 SWAP1 POP JUMP JUMPDEST PUSH2 0x18DF DUP2 PUSH2 0x18B5 JUMP JUMPDEST DUP3 MSTORE POP POP JUMP JUMPDEST PUSH0 PUSH1 0x40 DUP3 ADD SWAP1 POP PUSH2 0x18F8 PUSH0 DUP4 ADD DUP6 PUSH2 0x18D6 JUMP JUMPDEST PUSH2 0x1905 PUSH1 0x20 DUP4 ADD DUP5 PUSH2 0x1500 JUMP JUMPDEST SWAP4 SWAP3 POP POP POP JUMP JUMPDEST PUSH1 0x80 MLOAD PUSH1 0xA0 MLOAD PUSH1 0xC0 MLOAD PUSH1 0xE0 MLOAD PUSH2 0x100 MLOAD PUSH2 0x120 MLOAD PUSH2 0x140 MLOAD PUSH2 0x3EC3 PUSH2 0x195D PUSH0 CODECOPY PUSH0 PUSH2 0x192C ADD MSTORE PUSH0 PUSH2 0x18F1 ADD MSTORE PUSH0 PUSH2 0x294C ADD MSTORE PUSH0 PUSH2 0x292B ADD MSTORE PUSH0 PUSH2 0x22AD ADD MSTORE PUSH0 PUSH2 0x2303 ADD MSTORE PUSH0 PUSH2 0x232C ADD MSTORE PUSH2 0x3EC3 PUSH0 RETURN INVALID PUSH1 0x80 PUSH1 0x40 MSTORE CALLVALUE DUP1 ISZERO PUSH2 0xF JUMPI PUSH0 PUSH0 REVERT JUMPDEST POP PUSH1 0x4 CALLDATASIZE LT PUSH2 0x1E3 JUMPI PUSH0 CALLDATALOAD PUSH1 0xE0 SHR DUP1 PUSH4 0x70A08231 GT PUSH2 0x10D JUMPI DUP1 PUSH4 0x983B2D56 GT PUSH2 0xA0 JUMPI DUP1 PUSH4 0xDD62ED3E GT PUSH2 0x6F JUMPI DUP1 PUSH4 0xDD62ED3E EQ PUSH2 0x5AB JUMPI DUP1 PUSH4 0xF1127ED8 EQ PUSH2 0x5DB JUMPI DUP1 PUSH4 0xF2FDE38B EQ PUSH2 0x60B JUMPI DUP1 PUSH4 0xF46ECCC4 EQ PUSH2 0x627 JUMPI PUSH2 0x1E3 JUMP JUMPDEST DUP1 PUSH4 0x983B2D56 EQ PUSH2 0x513 JUMPI DUP1 PUSH4 0x9AB24EB0 EQ PUSH2 0x52F JUMPI DUP1 PUSH4 0xA9059CBB EQ PUSH2 0x55F JUMPI DUP1 PUSH4 0xC3CDA520 EQ PUSH2 0x58F JUMPI PUSH2 0x1E3 JUMP JUMPDEST DUP1 PUSH4 0x8DA5CB5B GT PUSH2 0xDC JUMPI DUP1 PUSH4 0x8DA5CB5B EQ PUSH2 0x489 JUMPI DUP1 PUSH4 0x8E539E8C EQ PUSH2 0x4A7 JUMPI DUP1 PUSH4 0x91DDADF4 EQ PUSH2 0x4D7 JUMPI DUP1 PUSH4 0x95D89B41 EQ PUSH2 0x4F5 JUMPI PUSH2 0x1E3 JUMP JUMPDEST DUP1 PUSH4 0x70A08231 EQ PUSH2 0x3FB JUMPI DUP1 PUSH4 0x715018A6 EQ PUSH2 0x42B JUMPI DUP1 PUSH4 0x7ECEBE00 EQ PUSH2 0x435 JUMPI DUP1 PUSH4 0x84B0196E EQ PUSH2 0x465 JUMPI PUSH2 0x1E3 JUMP JUMPDEST DUP1 PUSH4 0x32CB6B0C GT PUSH2 0x185 JUMPI DUP1 PUSH4 0x587CDE1E GT PUSH2 0x154 JUMPI DUP1 PUSH4 0x587CDE1E EQ PUSH2 0x363 JUMPI DUP1 PUSH4 0x5C19A95C EQ PUSH2 0x393 JUMPI DUP1 PUSH4 0x68573107 EQ PUSH2 0x3AF JUMPI DUP1 PUSH4 0x6FCFFF45 EQ PUSH2 0x3CB JUMPI PUSH2 0x1E3 JUMP JUMPDEST DUP1 PUSH4 0x32CB6B0C EQ PUSH2 0x2DB JUMPI DUP1 PUSH4 0x3A46B1A8 EQ PUSH2 0x2F9 JUMPI DUP1 PUSH4 0x40C10F19 EQ PUSH2 0x329 JUMPI DUP1 PUSH4 0x4BF5D7E9 EQ PUSH2 0x345 JUMPI PUSH2 0x1E3 JUMP JUMPDEST DUP1 PUSH4 0x23B872DD GT PUSH2 0x1C1 JUMPI DUP1 PUSH4 0x23B872DD EQ PUSH2 0x253 JUMPI DUP1 PUSH4 0x2FF2E9DC EQ PUSH2 0x283 JUMPI DUP1 PUSH4 0x3092AFD5 EQ PUSH2 0x2A1 JUMPI DUP1 PUSH4 0x313CE567 EQ PUSH2 0x2BD JUMPI PUSH2 0x1E3 JUMP JUMPDEST DUP1 PUSH4 0x6FDDE03 EQ PUSH2 0x1E7 JUMPI DUP1 PUSH4 0x95EA7B3 EQ PUSH2 0x205 JUMPI DUP1 PUSH4 0x18160DDD EQ PUSH2 0x235 JUMPI JUMPDEST PUSH0 PUSH0 REVERT JUMPDEST PUSH2 0x1EF PUSH2 0x657 JUMP JUMPDEST PUSH1 0x40 MLOAD PUSH2 0x1FC SWAP2 SWAP1 PUSH2 0x3099 JUMP JUMPDEST PUSH1 0x40 MLOAD DUP1 SWAP2 SUB SWAP1 RETURN JUMPDEST PUSH2 0x21F PUSH1 0x4 DUP1 CALLDATASIZE SUB DUP2 ADD SWAP1 PUSH2 0x21A SWAP2 SWAP1 PUSH2 0x314E JUMP JUMPDEST PUSH2 0x6E7 JUMP JUMPDEST PUSH1 0x40 MLOAD PUSH2 0x22C SWAP2 SWAP1 PUSH2 0x31A6 JUMP JUMPDEST PUSH1 0x40 MLOAD DUP1 SWAP2 SUB SWAP1 RETURN JUMPDEST PUSH2 0x23D PUSH2 0x709 JUMP JUMPDEST PUSH1 0x40 MLOAD PUSH2 0x24A SWAP2 SWAP1 PUSH2 0x31CE JUMP JUMPDEST PUSH1 0x40 MLOAD DUP1 SWAP2 SUB SWAP1 RETURN JUMPDEST PUSH2 0x26D PUSH1 0x4 DUP1 CALLDATASIZE SUB DUP2 ADD SWAP1 PUSH2 0x268 SWAP2 SWAP1 PUSH2 0x31E7 JUMP JUMPDEST PUSH2 0x712 JUMP JUMPDEST PUSH1 0x40 MLOAD PUSH2 0x27A SWAP2 SWAP1 PUSH2 0x31A6 JUMP JUMPDEST PUSH1 0x40 MLOAD DUP1 SWAP2 SUB SWAP1 RETURN JUMPDEST PUSH2 0x28B PUSH2 0x740 JUMP JUMPDEST PUSH1 0x40 MLOAD PUSH2 0x298 SWAP2 SWAP1 PUSH2 0x31CE JUMP JUMPDEST PUSH1 0x40 MLOAD DUP1 SWAP2 SUB SWAP1 RETURN JUMPDEST PUSH2 0x2BB PUSH1 0x4 DUP1 CALLDATASIZE SUB DUP2 ADD SWAP1 PUSH2 0x2B6 SWAP2 SWAP1 PUSH2 0x3237 JUMP JUMPDEST PUSH2 0x74E JUMP JUMPDEST STOP JUMPDEST PUSH2 0x2C5 PUSH2 0x7F0 JUMP JUMPDEST PUSH1 0x40 MLOAD PUSH2 0x2D2 SWAP2 SWAP1 PUSH2 0x327D JUMP JUMPDEST PUSH1 0x40 MLOAD DUP1 SWAP2 SUB SWAP1 RETURN JUMPDEST PUSH2 0x2E3 PUSH2 0x7F8 JUMP JUMPDEST PUSH1 0x40 MLOAD PUSH2 0x2F0 SWAP2 SWAP1 PUSH2 0x31CE JUMP JUMPDEST PUSH1 0x40 MLOAD DUP1 SWAP2 SUB SWAP1 RETURN JUMPDEST PUSH2 0x313 PUSH1 0x4 DUP1 CALLDATASIZE SUB DUP2 ADD SWAP1 PUSH2 0x30E SWAP2 SWAP1 PUSH2 0x314E JUMP JUMPDEST PUSH2 0x807 JUMP JUMPDEST PUSH1 0x40 MLOAD PUSH2 0x320 SWAP2 SWAP1 PUSH2 0x31CE JUMP JUMPDEST PUSH1 0x40 MLOAD DUP1 SWAP2 SUB SWAP1 RETURN JUMPDEST PUSH2 0x343 PUSH1 0x4 DUP1 CALLDATASIZE SUB DUP2 ADD SWAP1 PUSH2 0x33E SWAP2 SWAP1 PUSH2 0x314E JUMP JUMPDEST PUSH2 0x883 JUMP JUMPDEST STOP JUMPDEST PUSH2 0x34D PUSH2 0x9B7 JUMP JUMPDEST PUSH1 0x40 MLOAD PUSH2 0x35A SWAP2 SWAP1 PUSH2 0x3099 JUMP JUMPDEST PUSH1 0x40 MLOAD DUP1 SWAP2 SUB SWAP1 RETURN JUMPDEST PUSH2 0x37D PUSH1 0x4 DUP1 CALLDATASIZE SUB DUP2 ADD SWAP1 PUSH2 0x378 SWAP2 SWAP1 PUSH2 0x3237 JUMP JUMPDEST PUSH2 0xA4B JUMP JUMPDEST PUSH1 0x40 MLOAD PUSH2 0x38A SWAP2 SWAP1 PUSH2 0x32A5 JUMP JUMPDEST PUSH1 0x40 MLOAD DUP1 SWAP2 SUB SWAP1 RETURN JUMPDEST PUSH2 0x3AD PUSH1 0x4 DUP1 CALLDATASIZE SUB DUP2 ADD SWAP1 PUSH2 0x3A8 SWAP2 SWAP1 PUSH2 0x3237 JUMP JUMPDEST PUSH2 0xAB0 JUMP JUMPDEST STOP JUMPDEST PUSH2 0x3C9 PUSH1 0x4 DUP1 CALLDATASIZE SUB DUP2 ADD SWAP1 PUSH2 0x3C4 SWAP2 SWAP1 PUSH2 0x3374 JUMP JUMPDEST PUSH2 0xAC9 JUMP JUMPDEST STOP JUMPDEST PUSH2 0x3E5 PUSH1 0x4 DUP1 CALLDATASIZE SUB DUP2 ADD SWAP1 PUSH2 0x3E0 SWAP2 SWAP1 PUSH2 0x3237 JUMP JUMPDEST PUSH2 0xCEF JUMP JUMPDEST PUSH1 0x40 MLOAD PUSH2 0x3F2 SWAP2 SWAP1 PUSH2 0x3410 JUMP JUMPDEST PUSH1 0x40 MLOAD DUP1 SWAP2 SUB SWAP1 RETURN JUMPDEST PUSH2 0x415 PUSH1 0x4 DUP1 CALLDATASIZE SUB DUP2 ADD SWAP1 PUSH2 0x410 SWAP2 SWAP1 PUSH2 0x3237 JUMP JUMPDEST PUSH2 0xD00 JUMP JUMPDEST PUSH1 0x40 MLOAD PUSH2 0x422 SWAP2 SWAP1 PUSH2 0x31CE JUMP JUMPDEST PUSH1 0x40 MLOAD DUP1 SWAP2 SUB SWAP1 RETURN JUMPDEST PUSH2 0x433 PUSH2 0xD45 JUMP JUMPDEST STOP JUMPDEST PUSH2 0x44F PUSH1 0x4 DUP1 CALLDATASIZE SUB DUP2 ADD SWAP1 PUSH2 0x44A SWAP2 SWAP1 PUSH2 0x3237 JUMP JUMPDEST PUSH2 0xD58 JUMP JUMPDEST PUSH1 0x40 MLOAD PUSH2 0x45C SWAP2 SWAP1 PUSH2 0x31CE JUMP JUMPDEST PUSH1 0x40 MLOAD DUP1 SWAP2 SUB SWAP1 RETURN JUMPDEST PUSH2 0x46D PUSH2 0xD69 JUMP JUMPDEST PUSH1 0x40 MLOAD PUSH2 0x480 SWAP8 SWAP7 SWAP6 SWAP5 SWAP4 SWAP3 SWAP2 SWAP1 PUSH2 0x3532 JUMP JUMPDEST PUSH1 0x40 MLOAD DUP1 SWAP2 SUB SWAP1 RETURN JUMPDEST PUSH2 0x491 PUSH2 0xE0E JUMP JUMPDEST PUSH1 0x40 MLOAD PUSH2 0x49E SWAP2 SWAP1 PUSH2 0x32A5 JUMP JUMPDEST PUSH1 0x40 MLOAD DUP1 SWAP2 SUB SWAP1 RETURN JUMPDEST PUSH2 0x4C1 PUSH1 0x4 DUP1 CALLDATASIZE SUB DUP2 ADD SWAP1 PUSH2 0x4BC SWAP2 SWAP1 PUSH2 0x35B4 JUMP JUMPDEST PUSH2 0xE36 JUMP JUMPDEST PUSH1 0x40 MLOAD PUSH2 0x4CE SWAP2 SWAP1 PUSH2 0x31CE JUMP JUMPDEST PUSH1 0x40 MLOAD DUP1 SWAP2 SUB SWAP1 RETURN JUMPDEST PUSH2 0x4DF PUSH2 0xE76 JUMP JUMPDEST PUSH1 0x40 MLOAD PUSH2 0x4EC SWAP2 SWAP1 PUSH2 0x35FF JUMP JUMPDEST PUSH1 0x40 MLOAD DUP1 SWAP2 SUB SWAP1 RETURN JUMPDEST PUSH2 0x4FD PUSH2 0xE84 JUMP JUMPDEST PUSH1 0x40 MLOAD PUSH2 0x50A SWAP2 SWAP1 PUSH2 0x3099 JUMP JUMPDEST PUSH1 0x40 MLOAD DUP1 SWAP2 SUB SWAP1 RETURN JUMPDEST PUSH2 0x52D PUSH1 0x4 DUP1 CALLDATASIZE SUB DUP2 ADD SWAP1 PUSH2 0x528 SWAP2 SWAP1 PUSH2 0x3237 JUMP JUMPDEST PUSH2 0xF14 JUMP JUMPDEST STOP JUMPDEST PUSH2 0x549 PUSH1 0x4 DUP1 CALLDATASIZE SUB DUP2 ADD SWAP1 PUSH2 0x544 SWAP2 SWAP1 PUSH2 0x3237 JUMP JUMPDEST PUSH2 0xFB7 JUMP JUMPDEST PUSH1 0x40 MLOAD PUSH2 0x556 SWAP2 SWAP1 PUSH2 0x31CE JUMP JUMPDEST PUSH1 0x40 MLOAD DUP1 SWAP2 SUB SWAP1 RETURN JUMPDEST PUSH2 0x579 PUSH1 0x4 DUP1 CALLDATASIZE SUB DUP2 ADD SWAP1 PUSH2 0x574 SWAP2 SWAP1 PUSH2 0x314E JUMP JUMPDEST PUSH2 0x1020 JUMP JUMPDEST PUSH1 0x40 MLOAD PUSH2 0x586 SWAP2 SWAP1 PUSH2 0x31A6 JUMP JUMPDEST PUSH1 0x40 MLOAD DUP1 SWAP2 SUB SWAP1 RETURN JUMPDEST PUSH2 0x5A9 PUSH1 0x4 DUP1 CALLDATASIZE SUB DUP2 ADD SWAP1 PUSH2 0x5A4 SWAP2 SWAP1 PUSH2 0x366C JUMP JUMPDEST PUSH2 0x1042 JUMP JUMPDEST STOP JUMPDEST PUSH2 0x5C5 PUSH1 0x4 DUP1 CALLDATASIZE SUB DUP2 ADD SWAP1 PUSH2 0x5C0 SWAP2 SWAP1 PUSH2 0x36F5 JUMP JUMPDEST PUSH2 0x1107 JUMP JUMPDEST PUSH1 0x40 MLOAD PUSH2 0x5D2 SWAP2 SWAP1 PUSH2 0x31CE JUMP JUMPDEST PUSH1 0x40 MLOAD DUP1 SWAP2 SUB SWAP1 RETURN JUMPDEST PUSH2 0x5F5 PUSH1 0x4 DUP1 CALLDATASIZE SUB DUP2 ADD SWAP1 PUSH2 0x5F0 SWAP2 SWAP1 PUSH2 0x375D JUMP JUMPDEST PUSH2 0x1189 JUMP JUMPDEST PUSH1 0x40 MLOAD PUSH2 0x602 SWAP2 SWAP1 PUSH2 0x380B JUMP JUMPDEST PUSH1 0x40 MLOAD DUP1 SWAP2 SUB SWAP1 RETURN JUMPDEST PUSH2 0x625 PUSH1 0x4 DUP1 CALLDATASIZE SUB DUP2 ADD SWAP1 PUSH2 0x620 SWAP2 SWAP1 PUSH2 0x3237 JUMP JUMPDEST PUSH2 0x11A3 JUMP JUMPDEST STOP JUMPDEST PUSH2 0x641 PUSH1 0x4 DUP1 CALLDATASIZE SUB DUP2 ADD SWAP1 PUSH2 0x63C SWAP2 SWAP1 PUSH2 0x3237 JUMP JUMPDEST PUSH2 0x1227 JUMP JUMPDEST PUSH1 0x40 MLOAD PUSH2 0x64E SWAP2 SWAP1 PUSH2 0x31A6 JUMP JUMPDEST PUSH1 0x40 MLOAD DUP1 SWAP2 SUB SWAP1 RETURN JUMPDEST PUSH1 0x60 PUSH1 0x3 DUP1 SLOAD PUSH2 0x666 SWAP1 PUSH2 0x3851 JUMP JUMPDEST DUP1 PUSH1 0x1F ADD PUSH1 0x20 DUP1 SWAP2 DIV MUL PUSH1 0x20 ADD PUSH1 0x40 MLOAD SWAP1 DUP2 ADD PUSH1 0x40 MSTORE DUP1 SWAP3 SWAP2 SWAP1 DUP2 DUP2 MSTORE PUSH1 0x20 ADD DUP3 DUP1 SLOAD PUSH2 0x692 SWAP1 PUSH2 0x3851 JUMP JUMPDEST DUP1 ISZERO PUSH2 0x6DD JUMPI DUP1 PUSH1 0x1F LT PUSH2 0x6B4 JUMPI PUSH2 0x100 DUP1 DUP4 SLOAD DIV MUL DUP4 MSTORE SWAP2 PUSH1 0x20 ADD SWAP2 PUSH2 0x6DD JUMP JUMPDEST DUP3 ADD SWAP2 SWAP1 PUSH0 MSTORE PUSH1 0x20 PUSH0 KECCAK256 SWAP1 JUMPDEST DUP2 SLOAD DUP2 MSTORE SWAP1 PUSH1 0x1 ADD SWAP1 PUSH1 0x20 ADD DUP1 DUP4 GT PUSH2 0x6C0 JUMPI DUP3 SWAP1 SUB PUSH1 0x1F AND DUP3 ADD SWAP2 JUMPDEST POP POP POP POP POP SWAP1 POP SWAP1 JUMP JUMPDEST PUSH0 PUSH0 PUSH2 0x6F1 PUSH2 0x126E JUMP JUMPDEST SWAP1 POP PUSH2 0x6FE DUP2 DUP6 DUP6 PUSH2 0x1275 JUMP JUMPDEST PUSH1 0x1 SWAP2 POP POP SWAP3 SWAP2 POP POP JUMP JUMPDEST PUSH0 PUSH1 0x2 SLOAD SWAP1 POP SWAP1 JUMP JUMPDEST PUSH0 PUSH0 PUSH2 0x71C PUSH2 0x126E JUMP JUMPDEST SWAP1 POP PUSH2 0x729 DUP6 DUP3 DUP6 PUSH2 0x1287 JUMP JUMPDEST PUSH2 0x734 DUP6 DUP6 DUP6 PUSH2 0x131A JUMP JUMPDEST PUSH1 0x1 SWAP2 POP POP SWAP4 SWAP3 POP POP POP JUMP JUMPDEST PUSH10 0xD3C21BCECCEDA1000000 DUP2 JUMP JUMPDEST PUSH2 0x756 PUSH2 0x140A JUMP JUMPDEST PUSH0 PUSH1 0xC PUSH0 DUP4 PUSH20 0xFFFFFFFFFFFFFFFFFFFFFFFFFFFFFFFFFFFFFFFF AND PUSH20 0xFFFFFFFFFFFFFFFFFFFFFFFFFFFFFFFFFFFFFFFF AND DUP2 MSTORE PUSH1 0x20 ADD SWAP1 DUP2 MSTORE PUSH1 0x20 ADD PUSH0 KECCAK256 PUSH0 PUSH2 0x100 EXP DUP2 SLOAD DUP2 PUSH1 0xFF MUL NOT AND SWAP1 DUP4 ISZERO ISZERO MUL OR SWAP1 SSTORE POP DUP1 PUSH20 0xFFFFFFFFFFFFFFFFFFFFFFFFFFFFFFFFFFFFFFFF AND PUSH32 0xE94479A9F7E1952CC78F2D6BAAB678ADC1B772D936C6583DEF489E524CB66692 PUSH1 0x40 MLOAD PUSH1 0x40 MLOAD DUP1 SWAP2 SUB SWAP1 LOG2 POP JUMP JUMPDEST PUSH0 PUSH1 0x12 SWAP1 POP SWAP1 JUMP JUMPDEST PUSH11 0x84595161401484A000000 DUP2 JUMP JUMPDEST PUSH0 PUSH2 0x85F PUSH2 0x814 DUP4 PUSH2 0x1491 JUMP JUMPDEST PUSH1 0x9 PUSH0 DUP7 PUSH20 0xFFFFFFFFFFFFFFFFFFFFFFFFFFFFFFFFFFFFFFFF AND PUSH20 0xFFFFFFFFFFFFFFFFFFFFFFFFFFFFFFFFFFFFFFFF AND DUP2 MSTORE PUSH1 0x20 ADD SWAP1 DUP2 MSTORE PUSH1 0x20 ADD PUSH0 KECCAK256 PUSH2 0x14FC SWAP1 SWAP2 SWAP1 PUSH4 0xFFFFFFFF AND JUMP JUMPDEST PUSH26 0xFFFFFFFFFFFFFFFFFFFFFFFFFFFFFFFFFFFFFFFFFFFFFFFFFFFF AND SWAP1 POP SWAP3 SWAP2 POP POP JUMP JUMPDEST PUSH1 0xC PUSH0 CALLER PUSH20 0xFFFFFFFFFFFFFFFFFFFFFFFFFFFFFFFFFFFFFFFF AND PUSH20 0xFFFFFFFFFFFFFFFFFFFFFFFFFFFFFFFFFFFFFFFF AND DUP2 MSTORE PUSH1 0x20 ADD SWAP1 DUP2 MSTORE PUSH1 0x20 ADD PUSH0 KECCAK256 PUSH0 SWAP1 SLOAD SWAP1 PUSH2 0x100 EXP SWAP1 DIV PUSH1 0xFF AND DUP1 PUSH2 0x90A JUMPI POP PUSH2 0x8DB PUSH2 0xE0E JUMP JUMPDEST PUSH20 0xFFFFFFFFFFFFFFFFFFFFFFFFFFFFFFFFFFFFFFFF AND CALLER PUSH20 0xFFFFFFFFFFFFFFFFFFFFFFFFFFFFFFFFFFFFFFFF AND EQ JUMPDEST PUSH2 0x949 JUMPI PUSH1 0x40 MLOAD PUSH32 0x8C379A000000000000000000000000000000000000000000000000000000000 DUP2 MSTORE PUSH1 0x4 ADD PUSH2 0x940 SWAP1 PUSH2 0x38CB JUMP JUMPDEST PUSH1 0x40 MLOAD DUP1 SWAP2 SUB SWAP1 REVERT JUMPDEST PUSH11 0x84595161401484A000000 DUP2 PUSH2 0x95E PUSH2 0x709 JUMP JUMPDEST PUSH2 0x968 SWAP2 SWAP1 PUSH2 0x3916 JUMP JUMPDEST GT ISZERO PUSH2 0x9A9 JUMPI PUSH1 0x40 MLOAD PUSH32 0x8C379A000000000000000000000000000000000000000000000000000000000 DUP2 MSTORE PUSH1 0x4 ADD PUSH2 0x9A0 SWAP1 PUSH2 0x3993 JUMP JUMPDEST PUSH1 0x40 MLOAD DUP1 SWAP2 SUB SWAP1 REVERT JUMPDEST PUSH2 0x9B3 DUP3 DUP3 PUSH2 0x15EC JUMP JUMPDEST POP POP JUMP JUMPDEST PUSH1 0x60 PUSH2 0x9C1 PUSH2 0x166B JUMP JUMPDEST PUSH6 0xFFFFFFFFFFFF AND PUSH2 0x9D1 PUSH2 0xE76 JUMP JUMPDEST PUSH6 0xFFFFFFFFFFFF AND EQ PUSH2 0xA10 JUMPI PUSH1 0x40 MLOAD PUSH32 0x6FF0714000000000000000000000000000000000000000000000000000000000 DUP2 MSTORE PUSH1 0x4 ADD PUSH1 0x40 MLOAD DUP1 SWAP2 SUB SWAP1 REVERT JUMPDEST PUSH1 0x40 MLOAD DUP1 PUSH1 0x40 ADD PUSH1 0x40 MSTORE DUP1 PUSH1 0x1D DUP2 MSTORE PUSH1 0x20 ADD PUSH32 0x6D6F64653D626C6F636B6E756D6265722666726F6D3D64656661756C74000000 DUP2 MSTORE POP SWAP1 POP SWAP1 JUMP JUMPDEST PUSH0 PUSH1 0x8 PUSH0 DUP4 PUSH20 0xFFFFFFFFFFFFFFFFFFFFFFFFFFFFFFFFFFFFFFFF AND PUSH20 0xFFFFFFFFFFFFFFFFFFFFFFFFFFFFFFFFFFFFFFFF AND DUP2 MSTORE PUSH1 0x20 ADD SWAP1 DUP2 MSTORE PUSH1 0x20 ADD PUSH0 KECCAK256 PUSH0 SWAP1 SLOAD SWAP1 PUSH2 0x100 EXP SWAP1 DIV PUSH20 0xFFFFFFFFFFFFFFFFFFFFFFFFFFFFFFFFFFFFFFFF AND SWAP1 POP SWAP2 SWAP1 POP JUMP JUMPDEST PUSH0 PUSH2 0xAB9 PUSH2 0x126E JUMP JUMPDEST SWAP1 POP PUSH2 0xAC5 DUP2 DUP4 PUSH2 0x167A JUMP JUMPDEST POP POP JUMP JUMPDEST PUSH1 0xC PUSH0 CALLER PUSH20 0xFFFFFFFFFFFFFFFFFFFFFFFFFFFFFFFFFFFFFFFF AND PUSH20 0xFFFFFFFFFFFFFFFFFFFFFFFFFFFFFFFFFFFFFFFF AND DUP2 MSTORE PUSH1 0x20 ADD SWAP1 DUP2 MSTORE PUSH1 0x20 ADD PUSH0 KECCAK256 PUSH0 SWAP1 SLOAD SWAP1 PUSH2 0x100 EXP SWAP1 DIV PUSH1 0xFF AND DUP1 PUSH2 0xB50 JUMPI POP PUSH2 0xB21 PUSH2 0xE0E JUMP JUMPDEST PUSH20 0xFFFFFFFFFFFFFFFFFFFFFFFFFFFFFFFFFFFFFFFF AND CALLER PUSH20 0xFFFFFFFFFFFFFFFFFFFFFFFFFFFFFFFFFFFFFFFF AND EQ JUMPDEST PUSH2 0xB8F JUMPI PUSH1 0x40 MLOAD PUSH32 0x8C379A000000000000000000000000000000000000000000000000000000000 DUP2 MSTORE PUSH1 0x4 ADD PUSH2 0xB86 SWAP1 PUSH2 0x38CB JUMP JUMPDEST PUSH1 0x40 MLOAD DUP1 SWAP2 SUB SWAP1 REVERT JUMPDEST DUP2 DUP2 SWAP1 POP DUP5 DUP5 SWAP1 POP EQ PUSH2 0xBD7 JUMPI PUSH1 0x40 MLOAD PUSH32 0x8C379A000000000000000000000000000000000000000000000000000000000 DUP2 MSTORE PUSH1 0x4 ADD PUSH2 0xBCE SWAP1 PUSH2 0x39FB JUMP JUMPDEST PUSH1 0x40 MLOAD DUP1 SWAP2 SUB SWAP1 REVERT JUMPDEST PUSH0 PUSH0 SWAP1 POP PUSH0 PUSH0 SWAP1 POP JUMPDEST DUP4 DUP4 SWAP1 POP DUP2 LT ISZERO PUSH2 0xC1F JUMPI DUP4 DUP4 DUP3 DUP2 DUP2 LT PUSH2 0xBFE JUMPI PUSH2 0xBFD PUSH2 0x3A19 JUMP JUMPDEST JUMPDEST SWAP1 POP PUSH1 0x20 MUL ADD CALLDATALOAD DUP3 PUSH2 0xC10 SWAP2 SWAP1 PUSH2 0x3916 JUMP JUMPDEST SWAP2 POP DUP1 DUP1 PUSH1 0x1 ADD SWAP2 POP POP PUSH2 0xBE0 JUMP JUMPDEST POP PUSH11 0x84595161401484A000000 DUP2 PUSH2 0xC35 PUSH2 0x709 JUMP JUMPDEST PUSH2 0xC3F SWAP2 SWAP1 PUSH2 0x3916 JUMP JUMPDEST GT ISZERO PUSH2 0xC80 JUMPI PUSH1 0x40 MLOAD PUSH32 0x8C379A000000000000000000000000000000000000000000000000000000000 DUP2 MSTORE PUSH1 0x4 ADD PUSH2 0xC77 SWAP1 PUSH2 0x3993 JUMP JUMPDEST PUSH1 0x40 MLOAD DUP1 SWAP2 SUB SWAP1 REVERT JUMPDEST PUSH0 PUSH0 SWAP1 POP JUMPDEST DUP6 DUP6 SWAP1 POP DUP2 LT ISZERO PUSH2 0xCE7 JUMPI PUSH2 0xCDA DUP7 DUP7 DUP4 DUP2 DUP2 LT PUSH2 0xCA6 JUMPI PUSH2 0xCA5 PUSH2 0x3A19 JUMP JUMPDEST JUMPDEST SWAP1 POP PUSH1 0x20 MUL ADD PUSH1 0x20 DUP2 ADD SWAP1 PUSH2 0xCBB SWAP2 SWAP1 PUSH2 0x3237 JUMP JUMPDEST DUP6 DUP6 DUP5 DUP2 DUP2 LT PUSH2 0xCCE JUMPI PUSH2 0xCCD PUSH2 0x3A19 JUMP JUMPDEST JUMPDEST SWAP1 POP PUSH1 0x20 MUL ADD CALLDATALOAD PUSH2 0x15EC JUMP JUMPDEST DUP1 DUP1 PUSH1 0x1 ADD SWAP2 POP POP PUSH2 0xC85 JUMP JUMPDEST POP POP POP POP POP POP JUMP JUMPDEST PUSH0 PUSH2 0xCF9 DUP3 PUSH2 0x178A JUMP JUMPDEST SWAP1 POP SWAP2 SWAP1 POP JUMP JUMPDEST PUSH0 PUSH0 PUSH0 DUP4 PUSH20 0xFFFFFFFFFFFFFFFFFFFFFFFFFFFFFFFFFFFFFFFF AND PUSH20 0xFFFFFFFFFFFFFFFFFFFFFFFFFFFFFFFFFFFFFFFF AND DUP2 MSTORE PUSH1 0x20 ADD SWAP1 DUP2 MSTORE PUSH1 0x20 ADD PUSH0 KECCAK256 SLOAD SWAP1 POP SWAP2 SWAP1 POP JUMP JUMPDEST PUSH2 0xD4D PUSH2 0x140A JUMP JUMPDEST PUSH2 0xD56 PUSH0 PUSH2 0x17DF JUMP JUMPDEST JUMP JUMPDEST PUSH0 PUSH2 0xD62 DUP3 PUSH2 0x18A2 JUMP JUMPDEST SWAP1 POP SWAP2 SWAP1 POP JUMP JUMPDEST PUSH0 PUSH1 0x60 DUP1 PUSH0 PUSH0 PUSH0 PUSH1 0x60 PUSH2 0xD7A PUSH2 0x18E8 JUMP JUMPDEST PUSH2 0xD82 PUSH2 0x1923 JUMP JUMPDEST CHAINID ADDRESS PUSH0 PUSH0 SHL PUSH0 PUSH8 0xFFFFFFFFFFFFFFFF DUP2 GT ISZERO PUSH2 0xDA1 JUMPI PUSH2 0xDA0 PUSH2 0x3A46 JUMP JUMPDEST JUMPDEST PUSH1 0x40 MLOAD SWAP1 DUP1 DUP3 MSTORE DUP1 PUSH1 0x20 MUL PUSH1 0x20 ADD DUP3 ADD PUSH1 0x40 MSTORE DUP1 ISZERO PUSH2 0xDCF JUMPI DUP2 PUSH1 0x20 ADD PUSH1 0x20 DUP3 MUL DUP1 CALLDATASIZE DUP4 CALLDATACOPY DUP1 DUP3 ADD SWAP2 POP POP SWAP1 POP JUMPDEST POP PUSH32 0xF00000000000000000000000000000000000000000000000000000000000000 SWAP6 SWAP5 SWAP4 SWAP3 SWAP2 SWAP1 SWAP7 POP SWAP7 POP SWAP7 POP SWAP7 POP SWAP7 POP SWAP7 POP SWAP7 POP SWAP1 SWAP2 SWAP3 SWAP4 SWAP5 SWAP6 SWAP7 JUMP JUMPDEST PUSH0 PUSH1 0xB PUSH0 SWAP1 SLOAD SWAP1 PUSH2 0x100 EXP SWAP1 DIV PUSH20 0xFFFFFFFFFFFFFFFFFFFFFFFFFFFFFFFFFFFFFFFF AND SWAP1 POP SWAP1 JUMP JUMPDEST PUSH0 PUSH2 0xE53 PUSH2 0xE43 DUP4 PUSH2 0x1491 JUMP JUMPDEST PUSH1 0xA PUSH2 0x14FC SWAP1 SWAP2 SWAP1 PUSH4 0xFFFFFFFF AND JUMP JUMPDEST PUSH26 0xFFFFFFFFFFFFFFFFFFFFFFFFFFFFFFFFFFFFFFFFFFFFFFFFFFFF AND SWAP1 POP SWAP2 SWAP1 POP JUMP JUMPDEST PUSH0 PUSH2 0xE7F PUSH2 0x166B JUMP JUMPDEST SWAP1 POP SWAP1 JUMP JUMPDEST PUSH1 0x60 PUSH1 0x4 DUP1 SLOAD PUSH2 0xE93 SWAP1 PUSH2 0x3851 JUMP JUMPDEST DUP1 PUSH1 0x1F ADD PUSH1 0x20 DUP1 SWAP2 DIV MUL PUSH1 0x20 ADD PUSH1 0x40 MLOAD SWAP1 DUP2 ADD PUSH1 0x40 MSTORE DUP1 SWAP3 SWAP2 SWAP1 DUP2 DUP2 MSTORE PUSH1 0x20 ADD DUP3 DUP1 SLOAD PUSH2 0xEBF SWAP1 PUSH2 0x3851 JUMP JUMPDEST DUP1 ISZERO PUSH2 0xF0A JUMPI DUP1 PUSH1 0x1F LT PUSH2 0xEE1 JUMPI PUSH2 0x100 DUP1 DUP4 SLOAD DIV MUL DUP4 MSTORE SWAP2 PUSH1 0x20 ADD SWAP2 PUSH2 0xF0A JUMP JUMPDEST DUP3 ADD SWAP2 SWAP1 PUSH0 MSTORE PUSH1 0x20 PUSH0 KECCAK256 SWAP1 JUMPDEST DUP2 SLOAD DUP2 MSTORE SWAP1 PUSH1 0x1 ADD SWAP1 PUSH1 0x20 ADD DUP1 DUP4 GT PUSH2 0xEED JUMPI DUP3 SWAP1 SUB PUSH1 0x1F AND DUP3 ADD SWAP2 JUMPDEST POP POP POP POP POP SWAP1 POP SWAP1 JUMP JUMPDEST PUSH2 0xF1C PUSH2 0x140A JUMP JUMPDEST PUSH1 0x1 PUSH1 0xC PUSH0 DUP4 PUSH20 0xFFFFFFFFFFFFFFFFFFFFFFFFFFFFFFFFFFFFFFFF AND PUSH20 0xFFFFFFFFFFFFFFFFFFFFFFFFFFFFFFFFFFFFFFFF AND DUP2 MSTORE PUSH1 0x20 ADD SWAP1 DUP2 MSTORE PUSH1 0x20 ADD PUSH0 KECCAK256 PUSH0 PUSH2 0x100 EXP DUP2 SLOAD DUP2 PUSH1 0xFF MUL NOT AND SWAP1 DUP4 ISZERO ISZERO MUL OR SWAP1 SSTORE POP DUP1 PUSH20 0xFFFFFFFFFFFFFFFFFFFFFFFFFFFFFFFFFFFFFFFF AND PUSH32 0x6AE172837EA30B801FBFCDD4108AA1D5BF8FF775444FD70256B44E6BF3DFC3F6 PUSH1 0x40 MLOAD PUSH1 0x40 MLOAD DUP1 SWAP2 SUB SWAP1 LOG2 POP JUMP JUMPDEST PUSH0 PUSH2 0xFFD PUSH1 0x9 PUSH0 DUP5 PUSH20 0xFFFFFFFFFFFFFFFFFFFFFFFFFFFFFFFFFFFFFFFF AND PUSH20 0xFFFFFFFFFFFFFFFFFFFFFFFFFFFFFFFFFFFFFFFF AND DUP2 MSTORE PUSH1 0x20 ADD SWAP1 DUP2 MSTORE PUSH1 0x20 ADD PUSH0 KECCAK256 PUSH2 0x195E JUMP JUMPDEST PUSH26 0xFFFFFFFFFFFFFFFFFFFFFFFFFFFFFFFFFFFFFFFFFFFFFFFFFFFF AND SWAP1 POP SWAP2 SWAP1 POP JUMP JUMPDEST PUSH0 PUSH0 PUSH2 0x102A PUSH2 0x126E JUMP JUMPDEST SWAP1 POP PUSH2 0x1037 DUP2 DUP6 DUP6 PUSH2 0x131A JUMP JUMPDEST PUSH1 0x1 SWAP2 POP POP SWAP3 SWAP2 POP POP JUMP JUMPDEST DUP4 TIMESTAMP GT ISZERO PUSH2 0x1087 JUMPI DUP4 PUSH1 0x40 MLOAD PUSH32 0x4683AF0E00000000000000000000000000000000000000000000000000000000 DUP2 MSTORE PUSH1 0x4 ADD PUSH2 0x107E SWAP2 SWAP1 PUSH2 0x31CE JUMP JUMPDEST PUSH1 0x40 MLOAD DUP1 SWAP2 SUB SWAP1 REVERT JUMPDEST PUSH0 PUSH2 0x10E8 PUSH2 0x10E0 PUSH32 0xE48329057BFD03D55E49B547132E39CFFD9C1820AD7B9D4C5307691425D15ADF DUP10 DUP10 DUP10 PUSH1 0x40 MLOAD PUSH1 0x20 ADD PUSH2 0x10C5 SWAP5 SWAP4 SWAP3 SWAP2 SWAP1 PUSH2 0x3A73 JUMP JUMPDEST PUSH1 0x40 MLOAD PUSH1 0x20 DUP2 DUP4 SUB SUB DUP2 MSTORE SWAP1 PUSH1 0x40 MSTORE DUP1 MLOAD SWAP1 PUSH1 0x20 ADD KECCAK256 PUSH2 0x19C0 JUMP JUMPDEST DUP6 DUP6 DUP6 PUSH2 0x19D9 JUMP JUMPDEST SWAP1 POP PUSH2 0x10F4 DUP2 DUP8 PUSH2 0x1A07 JUMP JUMPDEST PUSH2 0x10FE DUP2 DUP9 PUSH2 0x167A JUMP JUMPDEST POP POP POP POP POP POP POP JUMP JUMPDEST PUSH0 PUSH1 0x1 PUSH0 DUP5 PUSH20 0xFFFFFFFFFFFFFFFFFFFFFFFFFFFFFFFFFFFFFFFF AND PUSH20 0xFFFFFFFFFFFFFFFFFFFFFFFFFFFFFFFFFFFFFFFF AND DUP2 MSTORE PUSH1 0x20 ADD SWAP1 DUP2 MSTORE PUSH1 0x20 ADD PUSH0 KECCAK256 PUSH0 DUP4 PUSH20 0xFFFFFFFFFFFFFFFFFFFFFFFFFFFFFFFFFFFFFFFF AND PUSH20 0xFFFFFFFFFFFFFFFFFFFFFFFFFFFFFFFFFFFFFFFF AND DUP2 MSTORE PUSH1 0x20 ADD SWAP1 DUP2 MSTORE PUSH1 0x20 ADD PUSH0 KECCAK256 SLOAD SWAP1 POP SWAP3 SWAP2 POP POP JUMP JUMPDEST PUSH2 0x1191 PUSH2 0x2FED JUMP JUMPDEST PUSH2 0x119B DUP4 DUP4 PUSH2 0x1A5E JUMP JUMPDEST SWAP1 POP SWAP3 SWAP2 POP POP JUMP JUMPDEST PUSH2 0x11AB PUSH2 0x140A JUMP JUMPDEST PUSH0 PUSH20 0xFFFFFFFFFFFFFFFFFFFFFFFFFFFFFFFFFFFFFFFF AND DUP2 PUSH20 0xFFFFFFFFFFFFFFFFFFFFFFFFFFFFFFFFFFFFFFFF AND SUB PUSH2 0x121B JUMPI PUSH0 PUSH1 0x40 MLOAD PUSH32 0x1E4FBDF700000000000000000000000000000000000000000000000000000000 DUP2 MSTORE PUSH1 0x4 ADD PUSH2 0x1212 SWAP2 SWAP1 PUSH2 0x32A5 JUMP JUMPDEST PUSH1 0x40 MLOAD DUP1 SWAP2 SUB SWAP1 REVERT JUMPDEST PUSH2 0x1224 DUP2 PUSH2 0x17DF JUMP JUMPDEST POP JUMP JUMPDEST PUSH1 0xC PUSH1 0x20 MSTORE DUP1 PUSH0 MSTORE PUSH1 0x40 PUSH0 KECCAK256 PUSH0 SWAP2 POP SLOAD SWAP1 PUSH2 0x100 EXP SWAP1 DIV PUSH1 0xFF AND DUP2 JUMP JUMPDEST PUSH0 DUP2 DUP4 PUSH2 0x1251 SWAP2 SWAP1 PUSH2 0x3AB6 JUMP JUMPDEST SWAP1 POP SWAP3 SWAP2 POP POP JUMP JUMPDEST PUSH0 DUP2 DUP4 PUSH2 0x1266 SWAP2 SWAP1 PUSH2 0x3B03 JUMP JUMPDEST SWAP1 POP SWAP3 SWAP2 POP POP JUMP JUMPDEST PUSH0 CALLER SWAP1 POP SWAP1 JUMP JUMPDEST PUSH2 0x1282 DUP4 DUP4 DUP4 PUSH1 0x1 PUSH2 0x1ABD JUMP JUMPDEST POP POP POP JUMP JUMPDEST PUSH0 PUSH2 0x1292 DUP5 DUP5 PUSH2 0x1107 JUMP JUMPDEST SWAP1 POP PUSH32 0xFFFFFFFFFFFFFFFFFFFFFFFFFFFFFFFFFFFFFFFFFFFFFFFFFFFFFFFFFFFFFFFF DUP2 LT ISZERO PUSH2 0x1314 JUMPI DUP2 DUP2 LT ISZERO PUSH2 0x1305 JUMPI DUP3 DUP2 DUP4 PUSH1 0x40 MLOAD PUSH32 0xFB8F41B200000000000000000000000000000000000000000000000000000000 DUP2 MSTORE PUSH1 0x4 ADD PUSH2 0x12FC SWAP4 SWAP3 SWAP2 SWAP1 PUSH2 0x3B50 JUMP JUMPDEST PUSH1 0x40 MLOAD DUP1 SWAP2 SUB SWAP1 REVERT JUMPDEST PUSH2 0x1313 DUP5 DUP5 DUP5 DUP5 SUB PUSH0 PUSH2 0x1ABD JUMP JUMPDEST JUMPDEST POP POP POP POP JUMP JUMPDEST PUSH0 PUSH20 0xFFFFFFFFFFFFFFFFFFFFFFFFFFFFFFFFFFFFFFFF AND DUP4 PUSH20 0xFFFFFFFFFFFFFFFFFFFFFFFFFFFFFFFFFFFFFFFF AND SUB PUSH2 0x138A JUMPI PUSH0 PUSH1 0x40 MLOAD PUSH32 0x96C6FD1E00000000000000000000000000000000000000000000000000000000 DUP2 MSTORE PUSH1 0x4 ADD PUSH2 0x1381 SWAP2 SWAP1 PUSH2 0x32A5 JUMP JUMPDEST PUSH1 0x40 MLOAD DUP1 SWAP2 SUB SWAP1 REVERT JUMPDEST PUSH0 PUSH20 0xFFFFFFFFFFFFFFFFFFFFFFFFFFFFFFFFFFFFFFFF AND DUP3 PUSH20 0xFFFFFFFFFFFFFFFFFFFFFFFFFFFFFFFFFFFFFFFF AND SUB PUSH2 0x13FA JUMPI PUSH0 PUSH1 0x40 MLOAD PUSH32 0xEC442F0500000000000000000000000000000000000000000000000000000000 DUP2 MSTORE PUSH1 0x4 ADD PUSH2 0x13F1 SWAP2 SWAP1 PUSH2 0x32A5 JUMP JUMPDEST PUSH1 0x40 MLOAD DUP1 SWAP2 SUB SWAP1 REVERT JUMPDEST PUSH2 0x1405 DUP4 DUP4 DUP4 PUSH2 0x1C8C JUMP JUMPDEST POP POP POP JUMP JUMPDEST PUSH2 0x1412 PUSH2 0x126E JUMP JUMPDEST PUSH20 0xFFFFFFFFFFFFFFFFFFFFFFFFFFFFFFFFFFFFFFFF AND PUSH2 0x1430 PUSH2 0xE0E JUMP JUMPDEST PUSH20 0xFFFFFFFFFFFFFFFFFFFFFFFFFFFFFFFFFFFFFFFF AND EQ PUSH2 0x148F JUMPI PUSH2 0x1453 PUSH2 0x126E JUMP JUMPDEST PUSH1 0x40 MLOAD PUSH32 0x118CDAA700000000000000000000000000000000000000000000000000000000 DUP2 MSTORE PUSH1 0x4 ADD PUSH2 0x1486 SWAP2 SWAP1 PUSH2 0x32A5 JUMP JUMPDEST PUSH1 0x40 MLOAD DUP1 SWAP2 SUB SWAP1 REVERT JUMPDEST JUMP JUMPDEST PUSH0 PUSH0 PUSH2 0x149B PUSH2 0xE76 JUMP JUMPDEST SWAP1 POP DUP1 PUSH6 0xFFFFFFFFFFFF AND DUP4 LT PUSH2 0x14EB JUMPI DUP3 DUP2 PUSH1 0x40 MLOAD PUSH32 0xECD3F81E00000000000000000000000000000000000000000000000000000000 DUP2 MSTORE PUSH1 0x4 ADD PUSH2 0x14E2 SWAP3 SWAP2 SWAP1 PUSH2 0x3B85 JUMP JUMPDEST PUSH1 0x40 MLOAD DUP1 SWAP2 SUB SWAP1 REVERT JUMPDEST PUSH2 0x14F4 DUP4 PUSH2 0x1C9C JUMP JUMPDEST SWAP2 POP POP SWAP2 SWAP1 POP JUMP JUMPDEST PUSH0 PUSH0 DUP4 PUSH0 ADD DUP1 SLOAD SWAP1 POP SWAP1 POP PUSH0 PUSH0 SWAP1 POP PUSH0 DUP3 SWAP1 POP PUSH1 0x5 DUP4 GT ISZERO PUSH2 0x1580 JUMPI PUSH0 PUSH2 0x1522 DUP5 PUSH2 0x1CF5 JUMP JUMPDEST DUP5 PUSH2 0x152D SWAP2 SWAP1 PUSH2 0x3BAC JUMP JUMPDEST SWAP1 POP PUSH2 0x153B DUP8 PUSH0 ADD DUP3 PUSH2 0x1E8F JUMP JUMPDEST PUSH0 ADD PUSH0 SWAP1 SLOAD SWAP1 PUSH2 0x100 EXP SWAP1 DIV PUSH6 0xFFFFFFFFFFFF AND PUSH6 0xFFFFFFFFFFFF AND DUP7 PUSH6 0xFFFFFFFFFFFF AND LT ISZERO PUSH2 0x156E JUMPI DUP1 SWAP2 POP PUSH2 0x157E JUMP JUMPDEST PUSH1 0x1 DUP2 PUSH2 0x157B SWAP2 SWAP1 PUSH2 0x3916 JUMP JUMPDEST SWAP3 POP JUMPDEST POP JUMPDEST PUSH0 PUSH2 0x158F DUP8 PUSH0 ADD DUP8 DUP6 DUP6 PUSH2 0x1EA1 JUMP JUMPDEST SWAP1 POP PUSH0 DUP2 EQ PUSH2 0x15DE JUMPI PUSH2 0x15B0 DUP8 PUSH0 ADD PUSH1 0x1 DUP4 PUSH2 0x15AB SWAP2 SWAP1 PUSH2 0x3BAC JUMP JUMPDEST PUSH2 0x1E8F JUMP JUMPDEST PUSH0 ADD PUSH1 0x6 SWAP1 SLOAD SWAP1 PUSH2 0x100 EXP SWAP1 DIV PUSH26 0xFFFFFFFFFFFFFFFFFFFFFFFFFFFFFFFFFFFFFFFFFFFFFFFFFFFF AND PUSH2 0x15E0 JUMP JUMPDEST PUSH0 JUMPDEST SWAP5 POP POP POP POP POP SWAP3 SWAP2 POP POP JUMP JUMPDEST PUSH0 PUSH20 0xFFFFFFFFFFFFFFFFFFFFFFFFFFFFFFFFFFFFFFFF AND DUP3 PUSH20 0xFFFFFFFFFFFFFFFFFFFFFFFFFFFFFFFFFFFFFFFF AND SUB PUSH2 0x165C JUMPI PUSH0 PUSH1 0x40 MLOAD PUSH32 0xEC442F0500000000000000000000000000000000000000000000000000000000 DUP2 MSTORE PUSH1 0x4 ADD PUSH2 0x1653 SWAP2 SWAP1 PUSH2 0x32A5 JUMP JUMPDEST PUSH1 0x40 MLOAD DUP1 SWAP2 SUB SWAP1 REVERT JUMPDEST PUSH2 0x1667 PUSH0 DUP4 DUP4 PUSH2 0x1C8C JUMP JUMPDEST POP POP JUMP JUMPDEST PUSH0 PUSH2 0x1675 NUMBER PUSH2 0x1C9C JUMP JUMPDEST SWAP1 POP SWAP1 JUMP JUMPDEST PUSH0 PUSH2 0x1684 DUP4 PUSH2 0xA4B JUMP JUMPDEST SWAP1 POP DUP2 PUSH1 0x8 PUSH0 DUP6 PUSH20 0xFFFFFFFFFFFFFFFFFFFFFFFFFFFFFFFFFFFFFFFF AND PUSH20 0xFFFFFFFFFFFFFFFFFFFFFFFFFFFFFFFFFFFFFFFF AND DUP2 MSTORE PUSH1 0x20 ADD SWAP1 DUP2 MSTORE PUSH1 0x20 ADD PUSH0 KECCAK256 PUSH0 PUSH2 0x100 EXP DUP2 SLOAD DUP2 PUSH20 0xFFFFFFFFFFFFFFFFFFFFFFFFFFFFFFFFFFFFFFFF MUL NOT AND SWAP1 DUP4 PUSH20 0xFFFFFFFFFFFFFFFFFFFFFFFFFFFFFFFFFFFFFFFF AND MUL OR SWAP1 SSTORE POP DUP2 PUSH20 0xFFFFFFFFFFFFFFFFFFFFFFFFFFFFFFFFFFFFFFFF AND DUP2 PUSH20 0xFFFFFFFFFFFFFFFFFFFFFFFFFFFFFFFFFFFFFFFF AND DUP5 PUSH20 0xFFFFFFFFFFFFFFFFFFFFFFFFFFFFFFFFFFFFFFFF AND PUSH32 0x3134E8A2E6D97E929A7E54011EA5485D7D196DD5F0BA4D4EF95803E8E3FC257F PUSH1 0x40 MLOAD PUSH1 0x40 MLOAD DUP1 SWAP2 SUB SWAP1 LOG4 PUSH2 0x1785 DUP2 DUP4 PUSH2 0x1780 DUP7 PUSH2 0x1F16 JUMP JUMPDEST PUSH2 0x1F27 JUMP JUMPDEST POP POP POP JUMP JUMPDEST PUSH0 PUSH2 0x17D8 PUSH2 0x17D3 PUSH1 0x9 PUSH0 DUP6 PUSH20 0xFFFFFFFFFFFFFFFFFFFFFFFFFFFFFFFFFFFFFFFF AND PUSH20 0xFFFFFFFFFFFFFFFFFFFFFFFFFFFFFFFFFFFFFFFF AND DUP2 MSTORE PUSH1 0x20 ADD SWAP1 DUP2 MSTORE PUSH1 0x20 ADD PUSH0 KECCAK256 PUSH2 0x2197 JUMP JUMPDEST PUSH2 0x21A6 JUMP JUMPDEST SWAP1 POP SWAP2 SWAP1 POP JUMP JUMPDEST PUSH0 PUSH1 0xB PUSH0 SWAP1 SLOAD SWAP1 PUSH2 0x100 EXP SWAP1 DIV PUSH20 0xFFFFFFFFFFFFFFFFFFFFFFFFFFFFFFFFFFFFFFFF AND SWAP1 POP DUP2 PUSH1 0xB PUSH0 PUSH2 0x100 EXP DUP2 SLOAD DUP2 PUSH20 0xFFFFFFFFFFFFFFFFFFFFFFFFFFFFFFFFFFFFFFFF MUL NOT AND SWAP1 DUP4 PUSH20 0xFFFFFFFFFFFFFFFFFFFFFFFFFFFFFFFFFFFFFFFF AND MUL OR SWAP1 SSTORE POP DUP2 PUSH20 0xFFFFFFFFFFFFFFFFFFFFFFFFFFFFFFFFFFFFFFFF AND DUP2 PUSH20 0xFFFFFFFFFFFFFFFFFFFFFFFFFFFFFFFFFFFFFFFF AND PUSH32 0x8BE0079C531659141344CD1FD0A4F28419497F9722A3DAAFE3B4186F6B6457E0 PUSH1 0x40 MLOAD PUSH1 0x40 MLOAD DUP1 SWAP2 SUB SWAP1 LOG3 POP POP JUMP JUMPDEST PUSH0 PUSH1 0x7 PUSH0 DUP4 PUSH20 0xFFFFFFFFFFFFFFFFFFFFFFFFFFFFFFFFFFFFFFFF AND PUSH20 0xFFFFFFFFFFFFFFFFFFFFFFFFFFFFFFFFFFFFFFFF AND DUP2 MSTORE PUSH1 0x20 ADD SWAP1 DUP2 MSTORE PUSH1 0x20 ADD PUSH0 KECCAK256 SLOAD SWAP1 POP SWAP2 SWAP1 POP JUMP JUMPDEST PUSH1 0x60 PUSH2 0x191E PUSH1 0x5 PUSH32 0x0 PUSH2 0x21FD SWAP1 SWAP2 SWAP1 PUSH4 0xFFFFFFFF AND JUMP JUMPDEST SWAP1 POP SWAP1 JUMP JUMPDEST PUSH1 0x60 PUSH2 0x1959 PUSH1 0x6 PUSH32 0x0 PUSH2 0x21FD SWAP1 SWAP2 SWAP1 PUSH4 0xFFFFFFFF AND JUMP JUMPDEST SWAP1 POP SWAP1 JUMP JUMPDEST PUSH0 PUSH0 DUP3 PUSH0 ADD DUP1 SLOAD SWAP1 POP SWAP1 POP PUSH0 DUP2 EQ PUSH2 0x19B6 JUMPI PUSH2 0x1988 DUP4 PUSH0 ADD PUSH1 0x1 DUP4 PUSH2 0x1983 SWAP2 SWAP1 PUSH2 0x3BAC JUMP JUMPDEST PUSH2 0x1E8F JUMP JUMPDEST PUSH0 ADD PUSH1 0x6 SWAP1 SLOAD SWAP1 PUSH2 0x100 EXP SWAP1 DIV PUSH26 0xFFFFFFFFFFFFFFFFFFFFFFFFFFFFFFFFFFFFFFFFFFFFFFFFFFFF AND PUSH2 0x19B8 JUMP JUMPDEST PUSH0 JUMPDEST SWAP2 POP POP SWAP2 SWAP1 POP JUMP JUMPDEST PUSH0 PUSH2 0x19D2 PUSH2 0x19CC PUSH2 0x22AA JUMP JUMPDEST DUP4 PUSH2 0x2360 JUMP JUMPDEST SWAP1 POP SWAP2 SWAP1 POP JUMP JUMPDEST PUSH0 PUSH0 PUSH0 PUSH0 PUSH2 0x19E9 DUP9 DUP9 DUP9 DUP9 PUSH2 0x23A0 JUMP JUMPDEST SWAP3 POP SWAP3 POP SWAP3 POP PUSH2 0x19F9 DUP3 DUP3 PUSH2 0x2487 JUMP JUMPDEST DUP3 SWAP4 POP POP POP POP SWAP5 SWAP4 POP POP POP POP JUMP JUMPDEST PUSH0 PUSH2 0x1A11 DUP4 PUSH2 0x25E9 JUMP JUMPDEST SWAP1 POP DUP1 DUP3 EQ PUSH2 0x1A59 JUMPI DUP3 DUP2 PUSH1 0x40 MLOAD PUSH32 0x752D88C000000000000000000000000000000000000000000000000000000000 DUP2 MSTORE PUSH1 0x4 ADD PUSH2 0x1A50 SWAP3 SWAP2 SWAP1 PUSH2 0x3BDF JUMP JUMPDEST PUSH1 0x40 MLOAD DUP1 SWAP2 SUB SWAP1 REVERT JUMPDEST POP POP POP JUMP JUMPDEST PUSH2 0x1A66 PUSH2 0x2FED JUMP JUMPDEST PUSH2 0x1AB5 DUP3 PUSH1 0x9 PUSH0 DUP7 PUSH20 0xFFFFFFFFFFFFFFFFFFFFFFFFFFFFFFFFFFFFFFFF AND PUSH20 0xFFFFFFFFFFFFFFFFFFFFFFFFFFFFFFFFFFFFFFFF AND DUP2 MSTORE PUSH1 0x20 ADD SWAP1 DUP2 MSTORE PUSH1 0x20 ADD PUSH0 KECCAK256 PUSH2 0x263C SWAP1 SWAP2 SWAP1 PUSH4 0xFFFFFFFF AND JUMP JUMPDEST SWAP1 POP SWAP3 SWAP2 POP POP JUMP JUMPDEST PUSH0 PUSH20 0xFFFFFFFFFFFFFFFFFFFFFFFFFFFFFFFFFFFFFFFF AND DUP5 PUSH20 0xFFFFFFFFFFFFFFFFFFFFFFFFFFFFFFFFFFFFFFFF AND SUB PUSH2 0x1B2D JUMPI PUSH0 PUSH1 0x40 MLOAD PUSH32 0xE602DF0500000000000000000000000000000000000000000000000000000000 DUP2 MSTORE PUSH1 0x4 ADD PUSH2 0x1B24 SWAP2 SWAP1 PUSH2 0x32A5 JUMP JUMPDEST PUSH1 0x40 MLOAD DUP1 SWAP2 SUB SWAP1 REVERT JUMPDEST PUSH0 PUSH20 0xFFFFFFFFFFFFFFFFFFFFFFFFFFFFFFFFFFFFFFFF AND DUP4 PUSH20 0xFFFFFFFFFFFFFFFFFFFFFFFFFFFFFFFFFFFFFFFF AND SUB PUSH2 0x1B9D JUMPI PUSH0 PUSH1 0x40 MLOAD PUSH32 0x94280D6200000000000000000000000000000000000000000000000000000000 DUP2 MSTORE PUSH1 0x4 ADD PUSH2 0x1B94 SWAP2 SWAP1 PUSH2 0x32A5 JUMP JUMPDEST PUSH1 0x40 MLOAD DUP1 SWAP2 SUB SWAP1 REVERT JUMPDEST DUP2 PUSH1 0x1 PUSH0 DUP7 PUSH20 0xFFFFFFFFFFFFFFFFFFFFFFFFFFFFFFFFFFFFFFFF AND PUSH20 0xFFFFFFFFFFFFFFFFFFFFFFFFFFFFFFFFFFFFFFFF AND DUP2 MSTORE PUSH1 0x20 ADD SWAP1 DUP2 MSTORE PUSH1 0x20 ADD PUSH0 KECCAK256 PUSH0 DUP6 PUSH20 0xFFFFFFFFFFFFFFFFFFFFFFFFFFFFFFFFFFFFFFFF AND PUSH20 0xFFFFFFFFFFFFFFFFFFFFFFFFFFFFFFFFFFFFFFFF AND DUP2 MSTORE PUSH1 0x20 ADD SWAP1 DUP2 MSTORE PUSH1 0x20 ADD PUSH0 KECCAK256 DUP2 SWAP1 SSTORE POP DUP1 ISZERO PUSH2 0x1C86 JUMPI DUP3 PUSH20 0xFFFFFFFFFFFFFFFFFFFFFFFFFFFFFFFFFFFFFFFF AND DUP5 PUSH20 0xFFFFFFFFFFFFFFFFFFFFFFFFFFFFFFFFFFFFFFFF AND PUSH32 0x8C5BE1E5EBEC7D5BD14F71427D1E84F3DD0314C0F7B2291E5B200AC8C7C3B925 DUP5 PUSH1 0x40 MLOAD PUSH2 0x1C7D SWAP2 SWAP1 PUSH2 0x31CE JUMP JUMPDEST PUSH1 0x40 MLOAD DUP1 SWAP2 SUB SWAP1 LOG3 JUMPDEST POP POP POP POP JUMP JUMPDEST PUSH2 0x1C97 DUP4 DUP4 DUP4 PUSH2 0x270B JUMP JUMPDEST POP POP POP JUMP JUMPDEST PUSH0 PUSH6 0xFFFFFFFFFFFF DUP1 AND DUP3 GT ISZERO PUSH2 0x1CED JUMPI PUSH1 0x30 DUP3 PUSH1 0x40 MLOAD PUSH32 0x6DFCC65000000000000000000000000000000000000000000000000000000000 DUP2 MSTORE PUSH1 0x4 ADD PUSH2 0x1CE4 SWAP3 SWAP2 SWAP1 PUSH2 0x3C48 JUMP JUMPDEST PUSH1 0x40 MLOAD DUP1 SWAP2 SUB SWAP1 REVERT JUMPDEST DUP2 SWAP1 POP SWAP2 SWAP1 POP JUMP JUMPDEST PUSH0 PUSH1 0x1 DUP3 GT PUSH2 0x1D06 JUMPI DUP2 SWAP1 POP PUSH2 0x1E8A JUMP JUMPDEST PUSH0 DUP3 SWAP1 POP PUSH0 PUSH1 0x1 SWAP1 POP PUSH17 0x100000000000000000000000000000000 DUP3 LT PUSH2 0x1D36 JUMPI PUSH1 0x80 DUP3 SWAP1 SHR SWAP2 POP PUSH1 0x40 DUP2 SWAP1 SHL SWAP1 POP JUMPDEST PUSH9 0x10000000000000000 DUP3 LT PUSH2 0x1D55 JUMPI PUSH1 0x40 DUP3 SWAP1 SHR SWAP2 POP PUSH1 0x20 DUP2 SWAP1 SHL SWAP1 POP JUMPDEST PUSH5 0x100000000 DUP3 LT PUSH2 0x1D70 JUMPI PUSH1 0x20 DUP3 SWAP1 SHR SWAP2 POP PUSH1 0x10 DUP2 SWAP1 SHL SWAP1 POP JUMPDEST PUSH3 0x10000 DUP3 LT PUSH2 0x1D89 JUMPI PUSH1 0x10 DUP3 SWAP1 SHR SWAP2 POP PUSH1 0x8 DUP2 SWAP1 SHL SWAP1 POP JUMPDEST PUSH2 0x100 DUP3 LT PUSH2 0x1DA1 JUMPI PUSH1 0x8 DUP3 SWAP1 SHR SWAP2 POP PUSH1 0x4 DUP2 SWAP1 SHL SWAP1 POP JUMPDEST PUSH1 0x10 DUP3 LT PUSH2 0x1DB8 JUMPI PUSH1 0x4 DUP3 SWAP1 SHR SWAP2 POP PUSH1 0x2 DUP2 SWAP1 SHL SWAP1 POP JUMPDEST PUSH1 0x4 DUP3 LT PUSH2 0x1DC8 JUMPI PUSH1 0x1 DUP2 SWAP1 SHL SWAP1 POP JUMPDEST PUSH1 0x1 DUP2 PUSH1 0x3 MUL SWAP1 SHR SWAP1 POP PUSH1 0x1 DUP2 DUP6 DUP2 PUSH2 0x1DE4 JUMPI PUSH2 0x1DE3 PUSH2 0x3C6F JUMP JUMPDEST JUMPDEST DIV DUP3 ADD SWAP1 SHR SWAP1 POP PUSH1 0x1 DUP2 DUP6 DUP2 PUSH2 0x1DFD JUMPI PUSH2 0x1DFC PUSH2 0x3C6F JUMP JUMPDEST JUMPDEST DIV DUP3 ADD SWAP1 SHR SWAP1 POP PUSH1 0x1 DUP2 DUP6 DUP2 PUSH2 0x1E16 JUMPI PUSH2 0x1E15 PUSH2 0x3C6F JUMP JUMPDEST JUMPDEST DIV DUP3 ADD SWAP1 SHR SWAP1 POP PUSH1 0x1 DUP2 DUP6 DUP2 PUSH2 0x1E2F JUMPI PUSH2 0x1E2E PUSH2 0x3C6F JUMP JUMPDEST JUMPDEST DIV DUP3 ADD SWAP1 SHR SWAP1 POP PUSH1 0x1 DUP2 DUP6 DUP2 PUSH2 0x1E48 JUMPI PUSH2 0x1E47 PUSH2 0x3C6F JUMP JUMPDEST JUMPDEST DIV DUP3 ADD SWAP1 SHR SWAP1 POP PUSH1 0x1 DUP2 DUP6 DUP2 PUSH2 0x1E61 JUMPI PUSH2 0x1E60 PUSH2 0x3C6F JUMP JUMPDEST JUMPDEST DIV DUP3 ADD SWAP1 SHR SWAP1 POP PUSH2 0x1E83 DUP2 DUP6 DUP2 PUSH2 0x1E7B JUMPI PUSH2 0x1E7A PUSH2 0x3C6F JUMP JUMPDEST JUMPDEST DIV DUP3 GT PUSH2 0x27B9 JUMP JUMPDEST DUP2 SUB SWAP3 POP POP POP JUMPDEST SWAP2 SWAP1 POP JUMP JUMPDEST PUSH0 DUP3 PUSH0 MSTORE DUP2 PUSH1 0x20 PUSH0 KECCAK256 ADD SWAP1 POP SWAP3 SWAP2 POP POP JUMP JUMPDEST PUSH0 JUMPDEST DUP2 DUP4 LT ISZERO PUSH2 0x1F0B JUMPI PUSH0 PUSH2 0x1EB6 DUP5 DUP5 PUSH2 0x27C4 JUMP JUMPDEST SWAP1 POP DUP5 PUSH6 0xFFFFFFFFFFFF AND PUSH2 0x1ECB DUP8 DUP4 PUSH2 0x1E8F JUMP JUMPDEST PUSH0 ADD PUSH0 SWAP1 SLOAD SWAP1 PUSH2 0x100 EXP SWAP1 DIV PUSH6 0xFFFFFFFFFFFF AND PUSH6 0xFFFFFFFFFFFF AND GT ISZERO PUSH2 0x1EF5 JUMPI DUP1 SWAP3 POP PUSH2 0x1F05 JUMP JUMPDEST PUSH1 0x1 DUP2 PUSH2 0x1F02 SWAP2 SWAP1 PUSH2 0x3916 JUMP JUMPDEST SWAP4 POP JUMPDEST POP PUSH2 0x1EA3 JUMP JUMPDEST DUP2 SWAP1 POP SWAP5 SWAP4 POP POP POP POP JUMP JUMPDEST PUSH0 PUSH2 0x1F20 DUP3 PUSH2 0xD00 JUMP JUMPDEST SWAP1 POP SWAP2 SWAP1 POP JUMP JUMPDEST DUP2 PUSH20 0xFFFFFFFFFFFFFFFFFFFFFFFFFFFFFFFFFFFFFFFF AND DUP4 PUSH20 0xFFFFFFFFFFFFFFFFFFFFFFFFFFFFFFFFFFFFFFFF AND EQ ISZERO DUP1 ISZERO PUSH2 0x1F62 JUMPI POP PUSH0 DUP2 GT JUMPDEST ISZERO PUSH2 0x2192 JUMPI PUSH0 PUSH20 0xFFFFFFFFFFFFFFFFFFFFFFFFFFFFFFFFFFFFFFFF AND DUP4 PUSH20 0xFFFFFFFFFFFFFFFFFFFFFFFFFFFFFFFFFFFFFFFF AND EQ PUSH2 0x207C JUMPI PUSH0 PUSH0 PUSH2 0x1FED PUSH1 0x9 PUSH0 DUP8 PUSH20 0xFFFFFFFFFFFFFFFFFFFFFFFFFFFFFFFFFFFFFFFF AND PUSH20 0xFFFFFFFFFFFFFFFFFFFFFFFFFFFFFFFFFFFFFFFF AND DUP2 MSTORE PUSH1 0x20 ADD SWAP1 DUP2 MSTORE PUSH1 0x20 ADD PUSH0 KECCAK256 PUSH2 0x1259 PUSH2 0x1FE8 DUP7 PUSH2 0x27E9 JUMP JUMPDEST PUSH2 0x2856 JUMP JUMPDEST PUSH26 0xFFFFFFFFFFFFFFFFFFFFFFFFFFFFFFFFFFFFFFFFFFFFFFFFFFFF AND SWAP2 POP PUSH26 0xFFFFFFFFFFFFFFFFFFFFFFFFFFFFFFFFFFFFFFFFFFFFFFFFFFFF AND SWAP2 POP DUP5 PUSH20 0xFFFFFFFFFFFFFFFFFFFFFFFFFFFFFFFFFFFFFFFF AND PUSH32 0xDEC2BACDD2F05B59DE34DA9B523DFF8BE42E5E38E818C82FDB0BAE774387A724 DUP4 DUP4 PUSH1 0x40 MLOAD PUSH2 0x2071 SWAP3 SWAP2 SWAP1 PUSH2 0x3C9C JUMP JUMPDEST PUSH1 0x40 MLOAD DUP1 SWAP2 SUB SWAP1 LOG2 POP POP JUMPDEST PUSH0 PUSH20 0xFFFFFFFFFFFFFFFFFFFFFFFFFFFFFFFFFFFFFFFF AND DUP3 PUSH20 0xFFFFFFFFFFFFFFFFFFFFFFFFFFFFFFFFFFFFFFFF AND EQ PUSH2 0x2191 JUMPI PUSH0 PUSH0 PUSH2 0x2102 PUSH1 0x9 PUSH0 DUP7 PUSH20 0xFFFFFFFFFFFFFFFFFFFFFFFFFFFFFFFFFFFFFFFF AND PUSH20 0xFFFFFFFFFFFFFFFFFFFFFFFFFFFFFFFFFFFFFFFF AND DUP2 MSTORE PUSH1 0x20 ADD SWAP1 DUP2 MSTORE PUSH1 0x20 ADD PUSH0 KECCAK256 PUSH2 0x1244 PUSH2 0x20FD DUP7 PUSH2 0x27E9 JUMP JUMPDEST PUSH2 0x2856 JUMP JUMPDEST PUSH26 0xFFFFFFFFFFFFFFFFFFFFFFFFFFFFFFFFFFFFFFFFFFFFFFFFFFFF AND SWAP2 POP PUSH26 0xFFFFFFFFFFFFFFFFFFFFFFFFFFFFFFFFFFFFFFFFFFFFFFFFFFFF AND SWAP2 POP DUP4 PUSH20 0xFFFFFFFFFFFFFFFFFFFFFFFFFFFFFFFFFFFFFFFF AND PUSH32 0xDEC2BACDD2F05B59DE34DA9B523DFF8BE42E5E38E818C82FDB0BAE774387A724 DUP4 DUP4 PUSH1 0x40 MLOAD PUSH2 0x2186 SWAP3 SWAP2 SWAP1 PUSH2 0x3C9C JUMP JUMPDEST PUSH1 0x40 MLOAD DUP1 SWAP2 SUB SWAP1 LOG2 POP POP JUMPDEST JUMPDEST POP POP POP JUMP JUMPDEST PUSH0 DUP2 PUSH0 ADD DUP1 SLOAD SWAP1 POP SWAP1 POP SWAP2 SWAP1 POP JUMP JUMPDEST PUSH0 PUSH4 0xFFFFFFFF DUP1 AND DUP3 GT ISZERO PUSH2 0x21F5 JUMPI PUSH1 0x20 DUP3 PUSH1 0x40 MLOAD PUSH32 0x6DFCC65000000000000000000000000000000000000000000000000000000000 DUP2 MSTORE PUSH1 0x4 ADD PUSH2 0x21EC SWAP3 SWAP2 SWAP1 PUSH2 0x3CFC JUMP JUMPDEST PUSH1 0x40 MLOAD DUP1 SWAP2 SUB SWAP1 REVERT JUMPDEST DUP2 SWAP1 POP SWAP2 SWAP1 POP JUMP JUMPDEST PUSH1 0x60 PUSH1 0xFF PUSH0 SHL DUP4 EQ PUSH2 0x2219 JUMPI PUSH2 0x2212 DUP4 PUSH2 0x2895 JUMP JUMPDEST SWAP1 POP PUSH2 0x22A4 JUMP JUMPDEST DUP2 DUP1 SLOAD PUSH2 0x2225 SWAP1 PUSH2 0x3851 JUMP JUMPDEST DUP1 PUSH1 0x1F ADD PUSH1 0x20 DUP1 SWAP2 DIV MUL PUSH1 0x20 ADD PUSH1 0x40 MLOAD SWAP1 DUP2 ADD PUSH1 0x40 MSTORE DUP1 SWAP3 SWAP2 SWAP1 DUP2 DUP2 MSTORE PUSH1 0x20 ADD DUP3 DUP1 SLOAD PUSH2 0x2251 SWAP1 PUSH2 0x3851 JUMP JUMPDEST DUP1 ISZERO PUSH2 0x229C JUMPI DUP1 PUSH1 0x1F LT PUSH2 0x2273 JUMPI PUSH2 0x100 DUP1 DUP4 SLOAD DIV MUL DUP4 MSTORE SWAP2 PUSH1 0x20 ADD SWAP2 PUSH2 0x229C JUMP JUMPDEST DUP3 ADD SWAP2 SWAP1 PUSH0 MSTORE PUSH1 0x20 PUSH0 KECCAK256 SWAP1 JUMPDEST DUP2 SLOAD DUP2 MSTORE SWAP1 PUSH1 0x1 ADD SWAP1 PUSH1 0x20 ADD DUP1 DUP4 GT PUSH2 0x227F JUMPI DUP3 SWAP1 SUB PUSH1 0x1F AND DUP3 ADD SWAP2 JUMPDEST POP POP POP POP POP SWAP1 POP JUMPDEST SWAP3 SWAP2 POP POP JUMP JUMPDEST PUSH0 PUSH32 0x0 PUSH20 0xFFFFFFFFFFFFFFFFFFFFFFFFFFFFFFFFFFFFFFFF AND ADDRESS PUSH20 0xFFFFFFFFFFFFFFFFFFFFFFFFFFFFFFFFFFFFFFFF AND EQ DUP1 ISZERO PUSH2 0x2325 JUMPI POP PUSH32 0x0 CHAINID EQ JUMPDEST ISZERO PUSH2 0x2352 JUMPI PUSH32 0x0 SWAP1 POP PUSH2 0x235D JUMP JUMPDEST PUSH2 0x235A PUSH2 0x2907 JUMP JUMPDEST SWAP1 POP JUMPDEST SWAP1 JUMP JUMPDEST PUSH0 PUSH1 0x40 MLOAD PUSH32 0x1901000000000000000000000000000000000000000000000000000000000000 DUP2 MSTORE DUP4 PUSH1 0x2 DUP3 ADD MSTORE DUP3 PUSH1 0x22 DUP3 ADD MSTORE PUSH1 0x42 DUP2 KECCAK256 SWAP2 POP POP SWAP3 SWAP2 POP POP JUMP JUMPDEST PUSH0 PUSH0 PUSH0 PUSH32 0x7FFFFFFFFFFFFFFFFFFFFFFFFFFFFFFF5D576E7357A4501DDFE92F46681B20A0 DUP5 PUSH0 SHR GT ISZERO PUSH2 0x23DC JUMPI PUSH0 PUSH1 0x3 DUP6 SWAP3 POP SWAP3 POP SWAP3 POP PUSH2 0x247D JUMP JUMPDEST PUSH0 PUSH1 0x1 DUP9 DUP9 DUP9 DUP9 PUSH1 0x40 MLOAD PUSH0 DUP2 MSTORE PUSH1 0x20 ADD PUSH1 0x40 MSTORE PUSH1 0x40 MLOAD PUSH2 0x23FF SWAP5 SWAP4 SWAP3 SWAP2 SWAP1 PUSH2 0x3D23 JUMP JUMPDEST PUSH1 0x20 PUSH1 0x40 MLOAD PUSH1 0x20 DUP2 SUB SWAP1 DUP1 DUP5 SUB SWAP1 DUP6 GAS STATICCALL ISZERO DUP1 ISZERO PUSH2 0x241F JUMPI RETURNDATASIZE PUSH0 PUSH0 RETURNDATACOPY RETURNDATASIZE PUSH0 REVERT JUMPDEST POP POP POP PUSH1 0x20 PUSH1 0x40 MLOAD SUB MLOAD SWAP1 POP PUSH0 PUSH20 0xFFFFFFFFFFFFFFFFFFFFFFFFFFFFFFFFFFFFFFFF AND DUP2 PUSH20 0xFFFFFFFFFFFFFFFFFFFFFFFFFFFFFFFFFFFFFFFF AND SUB PUSH2 0x2470 JUMPI PUSH0 PUSH1 0x1 PUSH0 PUSH0 SHL SWAP4 POP SWAP4 POP SWAP4 POP POP PUSH2 0x247D JUMP JUMPDEST DUP1 PUSH0 PUSH0 PUSH0 SHL SWAP4 POP SWAP4 POP SWAP4 POP POP JUMPDEST SWAP5 POP SWAP5 POP SWAP5 SWAP2 POP POP JUMP JUMPDEST PUSH0 PUSH1 0x3 DUP2 GT ISZERO PUSH2 0x249A JUMPI PUSH2 0x2499 PUSH2 0x3D66 JUMP JUMPDEST JUMPDEST DUP3 PUSH1 0x3 DUP2 GT ISZERO PUSH2 0x24AD JUMPI PUSH2 0x24AC PUSH2 0x3D66 JUMP JUMPDEST JUMPDEST SUB ISZERO PUSH2 0x25E5 JUMPI PUSH1 0x1 PUSH1 0x3 DUP2 GT ISZERO PUSH2 0x24C7 JUMPI PUSH2 0x24C6 PUSH2 0x3D66 JUMP JUMPDEST JUMPDEST DUP3 PUSH1 0x3 DUP2 GT ISZERO PUSH2 0x24DA JUMPI PUSH2 0x24D9 PUSH2 0x3D66 JUMP JUMPDEST JUMPDEST SUB PUSH2 0x2511 JUMPI PUSH1 0x40 MLOAD PUSH32 0xF645EEDF00000000000000000000000000000000000000000000000000000000 DUP2 MSTORE PUSH1 0x4 ADD PUSH1 0x40 MLOAD DUP1 SWAP2 SUB SWAP1 REVERT JUMPDEST PUSH1 0x2 PUSH1 0x3 DUP2 GT ISZERO PUSH2 0x2525 JUMPI PUSH2 0x2524 PUSH2 0x3D66 JUMP JUMPDEST JUMPDEST DUP3 PUSH1 0x3 DUP2 GT ISZERO PUSH2 0x2538 JUMPI PUSH2 0x2537 PUSH2 0x3D66 JUMP JUMPDEST JUMPDEST SUB PUSH2 0x257C JUMPI DUP1 PUSH0 SHR PUSH1 0x40 MLOAD PUSH32 0xFCE698F700000000000000000000000000000000000000000000000000000000 DUP2 MSTORE PUSH1 0x4 ADD PUSH2 0x2573 SWAP2 SWAP1 PUSH2 0x31CE JUMP JUMPDEST PUSH1 0x40 MLOAD DUP1 SWAP2 SUB SWAP1 REVERT JUMPDEST PUSH1 0x3 DUP1 DUP2 GT ISZERO PUSH2 0x258F JUMPI PUSH2 0x258E PUSH2 0x3D66 JUMP JUMPDEST JUMPDEST DUP3 PUSH1 0x3 DUP2 GT ISZERO PUSH2 0x25A2 JUMPI PUSH2 0x25A1 PUSH2 0x3D66 JUMP JUMPDEST JUMPDEST SUB PUSH2 0x25E4 JUMPI DUP1 PUSH1 0x40 MLOAD PUSH32 0xD78BCE0C00000000000000000000000000000000000000000000000000000000 DUP2 MSTORE PUSH1 0x4 ADD PUSH2 0x25DB SWAP2 SWAP1 PUSH2 0x3D93 JUMP JUMPDEST PUSH1 0x40 MLOAD DUP1 SWAP2 SUB SWAP1 REVERT JUMPDEST JUMPDEST POP POP JUMP JUMPDEST PUSH0 PUSH1 0x7 PUSH0 DUP4 PUSH20 0xFFFFFFFFFFFFFFFFFFFFFFFFFFFFFFFFFFFFFFFF AND PUSH20 0xFFFFFFFFFFFFFFFFFFFFFFFFFFFFFFFFFFFFFFFF AND DUP2 MSTORE PUSH1 0x20 ADD SWAP1 DUP2 MSTORE PUSH1 0x20 ADD PUSH0 KECCAK256 PUSH0 DUP2 SLOAD DUP1 SWAP3 SWAP2 SWAP1 PUSH1 0x1 ADD SWAP2 SWAP1 POP SSTORE SWAP1 POP SWAP2 SWAP1 POP JUMP JUMPDEST PUSH2 0x2644 PUSH2 0x2FED JUMP JUMPDEST DUP3 PUSH0 ADD DUP3 PUSH4 0xFFFFFFFF AND DUP2 SLOAD DUP2 LT PUSH2 0x265F JUMPI PUSH2 0x265E PUSH2 0x3A19 JUMP JUMPDEST JUMPDEST SWAP1 PUSH0 MSTORE PUSH1 0x20 PUSH0 KECCAK256 ADD PUSH1 0x40 MLOAD DUP1 PUSH1 0x40 ADD PUSH1 0x40 MSTORE SWAP1 DUP2 PUSH0 DUP3 ADD PUSH0 SWAP1 SLOAD SWAP1 PUSH2 0x100 EXP SWAP1 DIV PUSH6 0xFFFFFFFFFFFF AND PUSH6 0xFFFFFFFFFFFF AND PUSH6 0xFFFFFFFFFFFF AND DUP2 MSTORE PUSH1 0x20 ADD PUSH0 DUP3 ADD PUSH1 0x6 SWAP1 SLOAD SWAP1 PUSH2 0x100 EXP SWAP1 DIV PUSH26 0xFFFFFFFFFFFFFFFFFFFFFFFFFFFFFFFFFFFFFFFFFFFFFFFFFFFF AND PUSH26 0xFFFFFFFFFFFFFFFFFFFFFFFFFFFFFFFFFFFFFFFFFFFFFFFFFFFF AND PUSH26 0xFFFFFFFFFFFFFFFFFFFFFFFFFFFFFFFFFFFFFFFFFFFFFFFFFFFF AND DUP2 MSTORE POP POP SWAP1 POP SWAP3 SWAP2 POP POP JUMP JUMPDEST PUSH2 0x2716 DUP4 DUP4 DUP4 PUSH2 0x299C JUMP JUMPDEST PUSH0 PUSH20 0xFFFFFFFFFFFFFFFFFFFFFFFFFFFFFFFFFFFFFFFF AND DUP4 PUSH20 0xFFFFFFFFFFFFFFFFFFFFFFFFFFFFFFFFFFFFFFFF AND SUB PUSH2 0x27A9 JUMPI PUSH0 PUSH2 0x2752 PUSH2 0x709 JUMP JUMPDEST SWAP1 POP PUSH0 PUSH2 0x275D PUSH2 0x2BB5 JUMP JUMPDEST SWAP1 POP DUP1 DUP3 GT ISZERO PUSH2 0x27A6 JUMPI DUP2 DUP2 PUSH1 0x40 MLOAD PUSH32 0x1CB15D2600000000000000000000000000000000000000000000000000000000 DUP2 MSTORE PUSH1 0x4 ADD PUSH2 0x279D SWAP3 SWAP2 SWAP1 PUSH2 0x3C9C JUMP JUMPDEST PUSH1 0x40 MLOAD DUP1 SWAP2 SUB SWAP1 REVERT JUMPDEST POP POP JUMPDEST PUSH2 0x27B4 DUP4 DUP4 DUP4 PUSH2 0x2BD8 JUMP JUMPDEST POP POP POP JUMP JUMPDEST PUSH0 DUP2 ISZERO ISZERO SWAP1 POP SWAP2 SWAP1 POP JUMP JUMPDEST PUSH0 PUSH1 0x2 DUP3 DUP5 XOR PUSH2 0x27D4 SWAP2 SWAP1 PUSH2 0x3DAC JUMP JUMPDEST DUP3 DUP5 AND PUSH2 0x27E1 SWAP2 SWAP1 PUSH2 0x3916 JUMP JUMPDEST SWAP1 POP SWAP3 SWAP2 POP POP JUMP JUMPDEST PUSH0 PUSH26 0xFFFFFFFFFFFFFFFFFFFFFFFFFFFFFFFFFFFFFFFFFFFFFFFFFFFF DUP1 AND DUP3 GT ISZERO PUSH2 0x284E JUMPI PUSH1 0xD0 DUP3 PUSH1 0x40 MLOAD PUSH32 0x6DFCC65000000000000000000000000000000000000000000000000000000000 DUP2 MSTORE PUSH1 0x4 ADD PUSH2 0x2845 SWAP3 SWAP2 SWAP1 PUSH2 0x3E15 JUMP JUMPDEST PUSH1 0x40 MLOAD DUP1 SWAP2 SUB SWAP1 REVERT JUMPDEST DUP2 SWAP1 POP SWAP2 SWAP1 POP JUMP JUMPDEST PUSH0 PUSH0 PUSH2 0x2889 PUSH2 0x2863 PUSH2 0xE76 JUMP JUMPDEST PUSH2 0x2879 PUSH2 0x286F DUP9 PUSH2 0x195E JUMP JUMPDEST DUP7 DUP9 PUSH4 0xFFFFFFFF AND JUMP JUMPDEST DUP8 PUSH2 0x2C90 SWAP1 SWAP3 SWAP2 SWAP1 PUSH4 0xFFFFFFFF AND JUMP JUMPDEST SWAP2 POP SWAP2 POP SWAP4 POP SWAP4 SWAP2 POP POP JUMP JUMPDEST PUSH1 0x60 PUSH0 PUSH2 0x28A1 DUP4 PUSH2 0x2CAB JUMP JUMPDEST SWAP1 POP PUSH0 PUSH1 0x20 PUSH8 0xFFFFFFFFFFFFFFFF DUP2 GT ISZERO PUSH2 0x28BF JUMPI PUSH2 0x28BE PUSH2 0x3A46 JUMP JUMPDEST JUMPDEST PUSH1 0x40 MLOAD SWAP1 DUP1 DUP3 MSTORE DUP1 PUSH1 0x1F ADD PUSH1 0x1F NOT AND PUSH1 0x20 ADD DUP3 ADD PUSH1 0x40 MSTORE DUP1 ISZERO PUSH2 0x28F1 JUMPI DUP2 PUSH1 0x20 ADD PUSH1 0x1 DUP3 MUL DUP1 CALLDATASIZE DUP4 CALLDATACOPY DUP1 DUP3 ADD SWAP2 POP POP SWAP1 POP JUMPDEST POP SWAP1 POP DUP2 DUP2 MSTORE DUP4 PUSH1 0x20 DUP3 ADD MSTORE DUP1 SWAP3 POP POP POP SWAP2 SWAP1 POP JUMP JUMPDEST PUSH0 PUSH32 0x8B73C3C69BB8FE3D512ECC4CF759CC79239F7B179B0FFACAA9A75D522B39400F PUSH32 0x0 PUSH32 0x0 CHAINID ADDRESS PUSH1 0x40 MLOAD PUSH1 0x20 ADD PUSH2 0x2981 SWAP6 SWAP5 SWAP4 SWAP3 SWAP2 SWAP1 PUSH2 0x3E3C JUMP JUMPDEST PUSH1 0x40 MLOAD PUSH1 0x20 DUP2 DUP4 SUB SUB DUP2 MSTORE SWAP1 PUSH1 0x40 MSTORE DUP1 MLOAD SWAP1 PUSH1 0x20 ADD KECCAK256 SWAP1 POP SWAP1 JUMP JUMPDEST PUSH0 PUSH20 0xFFFFFFFFFFFFFFFFFFFFFFFFFFFFFFFFFFFFFFFF AND DUP4 PUSH20 0xFFFFFFFFFFFFFFFFFFFFFFFFFFFFFFFFFFFFFFFF AND SUB PUSH2 0x29EC JUMPI DUP1 PUSH1 0x2 PUSH0 DUP3 DUP3 SLOAD PUSH2 0x29E0 SWAP2 SWAP1 PUSH2 0x3916 JUMP JUMPDEST SWAP3 POP POP DUP2 SWAP1 SSTORE POP PUSH2 0x2ABA JUMP JUMPDEST PUSH0 PUSH0 PUSH0 DUP6 PUSH20 0xFFFFFFFFFFFFFFFFFFFFFFFFFFFFFFFFFFFFFFFF AND PUSH20 0xFFFFFFFFFFFFFFFFFFFFFFFFFFFFFFFFFFFFFFFF AND DUP2 MSTORE PUSH1 0x20 ADD SWAP1 DUP2 MSTORE PUSH1 0x20 ADD PUSH0 KECCAK256 SLOAD SWAP1 POP DUP2 DUP2 LT ISZERO PUSH2 0x2A75 JUMPI DUP4 DUP2 DUP4 PUSH1 0x40 MLOAD PUSH32 0xE450D38C00000000000000000000000000000000000000000000000000000000 DUP2 MSTORE PUSH1 0x4 ADD PUSH2 0x2A6C SWAP4 SWAP3 SWAP2 SWAP1 PUSH2 0x3B50 JUMP JUMPDEST PUSH1 0x40 MLOAD DUP1 SWAP2 SUB SWAP1 REVERT JUMPDEST DUP2 DUP2 SUB PUSH0 PUSH0 DUP7 PUSH20 0xFFFFFFFFFFFFFFFFFFFFFFFFFFFFFFFFFFFFFFFF AND PUSH20 0xFFFFFFFFFFFFFFFFFFFFFFFFFFFFFFFFFFFFFFFF AND DUP2 MSTORE PUSH1 0x20 ADD SWAP1 DUP2 MSTORE PUSH1 0x20 ADD PUSH0 KECCAK256 DUP2 SWAP1 SSTORE POP POP JUMPDEST PUSH0 PUSH20 0xFFFFFFFFFFFFFFFFFFFFFFFFFFFFFFFFFFFFFFFF AND DUP3 PUSH20 0xFFFFFFFFFFFFFFFFFFFFFFFFFFFFFFFFFFFFFFFF AND SUB PUSH2 0x2B01 JUMPI DUP1 PUSH1 0x2 PUSH0 DUP3 DUP3 SLOAD SUB SWAP3 POP POP DUP2 SWAP1 SSTORE POP PUSH2 0x2B4B JUMP JUMPDEST DUP1 PUSH0 PUSH0 DUP5 PUSH20 0xFFFFFFFFFFFFFFFFFFFFFFFFFFFFFFFFFFFFFFFF AND PUSH20 0xFFFFFFFFFFFFFFFFFFFFFFFFFFFFFFFFFFFFFFFF AND DUP2 MSTORE PUSH1 0x20 ADD SWAP1 DUP2 MSTORE PUSH1 0x20 ADD PUSH0 KECCAK256 PUSH0 DUP3 DUP3 SLOAD ADD SWAP3 POP POP DUP2 SWAP1 SSTORE POP JUMPDEST DUP2 PUSH20 0xFFFFFFFFFFFFFFFFFFFFFFFFFFFFFFFFFFFFFFFF AND DUP4 PUSH20 0xFFFFFFFFFFFFFFFFFFFFFFFFFFFFFFFFFFFFFFFF AND PUSH32 0xDDF252AD1BE2C89B69C2B068FC378DAA952BA7F163C4A11628F55A4DF523B3EF DUP4 PUSH1 0x40 MLOAD PUSH2 0x2BA8 SWAP2 SWAP1 PUSH2 0x31CE JUMP JUMPDEST PUSH1 0x40 MLOAD DUP1 SWAP2 SUB SWAP1 LOG3 POP POP POP JUMP JUMPDEST PUSH0 PUSH26 0xFFFFFFFFFFFFFFFFFFFFFFFFFFFFFFFFFFFFFFFFFFFFFFFFFFFF DUP1 AND SWAP1 POP SWAP1 JUMP JUMPDEST PUSH0 PUSH20 0xFFFFFFFFFFFFFFFFFFFFFFFFFFFFFFFFFFFFFFFF AND DUP4 PUSH20 0xFFFFFFFFFFFFFFFFFFFFFFFFFFFFFFFFFFFFFFFF AND SUB PUSH2 0x2C24 JUMPI PUSH2 0x2C21 PUSH1 0xA PUSH2 0x1244 PUSH2 0x2C1C DUP5 PUSH2 0x27E9 JUMP JUMPDEST PUSH2 0x2856 JUMP JUMPDEST POP POP JUMPDEST PUSH0 PUSH20 0xFFFFFFFFFFFFFFFFFFFFFFFFFFFFFFFFFFFFFFFF AND DUP3 PUSH20 0xFFFFFFFFFFFFFFFFFFFFFFFFFFFFFFFFFFFFFFFF AND SUB PUSH2 0x2C70 JUMPI PUSH2 0x2C6D PUSH1 0xA PUSH2 0x1259 PUSH2 0x2C68 DUP5 PUSH2 0x27E9 JUMP JUMPDEST PUSH2 0x2856 JUMP JUMPDEST POP POP JUMPDEST PUSH2 0x2C8B PUSH2 0x2C7C DUP5 PUSH2 0xA4B JUMP JUMPDEST PUSH2 0x2C85 DUP5 PUSH2 0xA4B JUMP JUMPDEST DUP4 PUSH2 0x1F27 JUMP JUMPDEST POP POP POP JUMP JUMPDEST PUSH0 PUSH0 PUSH2 0x2C9F DUP6 PUSH0 ADD DUP6 DUP6 PUSH2 0x2CF9 JUMP JUMPDEST SWAP2 POP SWAP2 POP SWAP4 POP SWAP4 SWAP2 POP POP JUMP JUMPDEST PUSH0 PUSH0 PUSH1 0xFF DUP4 PUSH0 SHR AND SWAP1 POP PUSH1 0x1F DUP2 GT ISZERO PUSH2 0x2CF0 JUMPI PUSH1 0x40 MLOAD PUSH32 0xB3512B0C00000000000000000000000000000000000000000000000000000000 DUP2 MSTORE PUSH1 0x4 ADD PUSH1 0x40 MLOAD DUP1 SWAP2 SUB SWAP1 REVERT JUMPDEST DUP1 SWAP2 POP POP SWAP2 SWAP1 POP JUMP JUMPDEST PUSH0 PUSH0 PUSH0 DUP6 DUP1 SLOAD SWAP1 POP SWAP1 POP PUSH0 DUP2 GT ISZERO PUSH2 0x2F05 JUMPI PUSH0 PUSH2 0x2D22 DUP8 PUSH1 0x1 DUP5 PUSH2 0x2D1D SWAP2 SWAP1 PUSH2 0x3BAC JUMP JUMPDEST PUSH2 0x1E8F JUMP JUMPDEST SWAP1 POP PUSH0 DUP2 PUSH0 ADD PUSH0 SWAP1 SLOAD SWAP1 PUSH2 0x100 EXP SWAP1 DIV PUSH6 0xFFFFFFFFFFFF AND SWAP1 POP PUSH0 DUP3 PUSH0 ADD PUSH1 0x6 SWAP1 SLOAD SWAP1 PUSH2 0x100 EXP SWAP1 DIV PUSH26 0xFFFFFFFFFFFFFFFFFFFFFFFFFFFFFFFFFFFFFFFFFFFFFFFFFFFF AND SWAP1 POP DUP8 PUSH6 0xFFFFFFFFFFFF AND DUP3 PUSH6 0xFFFFFFFFFFFF AND GT ISZERO PUSH2 0x2DB3 JUMPI PUSH1 0x40 MLOAD PUSH32 0x2520601D00000000000000000000000000000000000000000000000000000000 DUP2 MSTORE PUSH1 0x4 ADD PUSH1 0x40 MLOAD DUP1 SWAP2 SUB SWAP1 REVERT JUMPDEST DUP8 PUSH6 0xFFFFFFFFFFFF AND DUP3 PUSH6 0xFFFFFFFFFFFF AND SUB PUSH2 0x2E1D JUMPI DUP7 DUP4 PUSH0 ADD PUSH1 0x6 PUSH2 0x100 EXP DUP2 SLOAD DUP2 PUSH26 0xFFFFFFFFFFFFFFFFFFFFFFFFFFFFFFFFFFFFFFFFFFFFFFFFFFFF MUL NOT AND SWAP1 DUP4 PUSH26 0xFFFFFFFFFFFFFFFFFFFFFFFFFFFFFFFFFFFFFFFFFFFFFFFFFFFF AND MUL OR SWAP1 SSTORE POP PUSH2 0x2EF6 JUMP JUMPDEST DUP9 PUSH1 0x40 MLOAD DUP1 PUSH1 0x40 ADD PUSH1 0x40 MSTORE DUP1 DUP11 PUSH6 0xFFFFFFFFFFFF AND DUP2 MSTORE PUSH1 0x20 ADD DUP10 PUSH26 0xFFFFFFFFFFFFFFFFFFFFFFFFFFFFFFFFFFFFFFFFFFFFFFFFFFFF AND DUP2 MSTORE POP SWAP1 DUP1 PUSH1 0x1 DUP2 SLOAD ADD DUP1 DUP3 SSTORE DUP1 SWAP2 POP POP PUSH1 0x1 SWAP1 SUB SWAP1 PUSH0 MSTORE PUSH1 0x20 PUSH0 KECCAK256 ADD PUSH0 SWAP1 SWAP2 SWAP1 SWAP2 SWAP1 SWAP2 POP PUSH0 DUP3 ADD MLOAD DUP2 PUSH0 ADD PUSH0 PUSH2 0x100 EXP DUP2 SLOAD DUP2 PUSH6 0xFFFFFFFFFFFF MUL NOT AND SWAP1 DUP4 PUSH6 0xFFFFFFFFFFFF AND MUL OR SWAP1 SSTORE POP PUSH1 0x20 DUP3 ADD MLOAD DUP2 PUSH0 ADD PUSH1 0x6 PUSH2 0x100 EXP DUP2 SLOAD DUP2 PUSH26 0xFFFFFFFFFFFFFFFFFFFFFFFFFFFFFFFFFFFFFFFFFFFFFFFFFFFF MUL NOT AND SWAP1 DUP4 PUSH26 0xFFFFFFFFFFFFFFFFFFFFFFFFFFFFFFFFFFFFFFFFFFFFFFFFFFFF AND MUL OR SWAP1 SSTORE POP POP POP JUMPDEST DUP1 DUP8 SWAP6 POP SWAP6 POP POP POP POP POP PUSH2 0x2FE5 JUMP JUMPDEST DUP6 PUSH1 0x40 MLOAD DUP1 PUSH1 0x40 ADD PUSH1 0x40 MSTORE DUP1 DUP8 PUSH6 0xFFFFFFFFFFFF AND DUP2 MSTORE PUSH1 0x20 ADD DUP7 PUSH26 0xFFFFFFFFFFFFFFFFFFFFFFFFFFFFFFFFFFFFFFFFFFFFFFFFFFFF AND DUP2 MSTORE POP SWAP1 DUP1 PUSH1 0x1 DUP2 SLOAD ADD DUP1 DUP3 SSTORE DUP1 SWAP2 POP POP PUSH1 0x1 SWAP1 SUB SWAP1 PUSH0 MSTORE PUSH1 0x20 PUSH0 KECCAK256 ADD PUSH0 SWAP1 SWAP2 SWAP1 SWAP2 SWAP1 SWAP2 POP PUSH0 DUP3 ADD MLOAD DUP2 PUSH0 ADD PUSH0 PUSH2 0x100 EXP DUP2 SLOAD DUP2 PUSH6 0xFFFFFFFFFFFF MUL NOT AND SWAP1 DUP4 PUSH6 0xFFFFFFFFFFFF AND MUL OR SWAP1 SSTORE POP PUSH1 0x20 DUP3 ADD MLOAD DUP2 PUSH0 ADD PUSH1 0x6 PUSH2 0x100 EXP DUP2 SLOAD DUP2 PUSH26 0xFFFFFFFFFFFFFFFFFFFFFFFFFFFFFFFFFFFFFFFFFFFFFFFFFFFF MUL NOT AND SWAP1 DUP4 PUSH26 0xFFFFFFFFFFFFFFFFFFFFFFFFFFFFFFFFFFFFFFFFFFFFFFFFFFFF AND MUL OR SWAP1 SSTORE POP POP POP PUSH0 DUP5 SWAP3 POP SWAP3 POP POP JUMPDEST SWAP4 POP SWAP4 SWAP2 POP POP JUMP JUMPDEST PUSH1 0x40 MLOAD DUP1 PUSH1 0x40 ADD PUSH1 0x40 MSTORE DUP1 PUSH0 PUSH6 0xFFFFFFFFFFFF AND DUP2 MSTORE PUSH1 0x20 ADD PUSH0 PUSH26 0xFFFFFFFFFFFFFFFFFFFFFFFFFFFFFFFFFFFFFFFFFFFFFFFFFFFF AND DUP2 MSTORE POP SWAP1 JUMP JUMPDEST PUSH0 DUP2 MLOAD SWAP1 POP SWAP2 SWAP1 POP JUMP JUMPDEST PUSH0 DUP3 DUP3 MSTORE PUSH1 0x20 DUP3 ADD SWAP1 POP SWAP3 SWAP2 POP POP JUMP JUMPDEST DUP3 DUP2 DUP4 MCOPY PUSH0 DUP4 DUP4 ADD MSTORE POP POP POP JUMP JUMPDEST PUSH0 PUSH1 0x1F NOT PUSH1 0x1F DUP4 ADD AND SWAP1 POP SWAP2 SWAP1 POP JUMP JUMPDEST PUSH0 PUSH2 0x306B DUP3 PUSH2 0x3029 JUMP JUMPDEST PUSH2 0x3075 DUP2 DUP6 PUSH2 0x3033 JUMP JUMPDEST SWAP4 POP PUSH2 0x3085 DUP2 DUP6 PUSH1 0x20 DUP7 ADD PUSH2 0x3043 JUMP JUMPDEST PUSH2 0x308E DUP2 PUSH2 0x3051 JUMP JUMPDEST DUP5 ADD SWAP2 POP POP SWAP3 SWAP2 POP POP JUMP JUMPDEST PUSH0 PUSH1 0x20 DUP3 ADD SWAP1 POP DUP2 DUP2 SUB PUSH0 DUP4 ADD MSTORE PUSH2 0x30B1 DUP2 DUP5 PUSH2 0x3061 JUMP JUMPDEST SWAP1 POP SWAP3 SWAP2 POP POP JUMP JUMPDEST PUSH0 PUSH0 REVERT JUMPDEST PUSH0 PUSH0 REVERT JUMPDEST PUSH0 PUSH20 0xFFFFFFFFFFFFFFFFFFFFFFFFFFFFFFFFFFFFFFFF DUP3 AND SWAP1 POP SWAP2 SWAP1 POP JUMP JUMPDEST PUSH0 PUSH2 0x30EA DUP3 PUSH2 0x30C1 JUMP JUMPDEST SWAP1 POP SWAP2 SWAP1 POP JUMP JUMPDEST PUSH2 0x30FA DUP2 PUSH2 0x30E0 JUMP JUMPDEST DUP2 EQ PUSH2 0x3104 JUMPI PUSH0 PUSH0 REVERT JUMPDEST POP JUMP JUMPDEST PUSH0 DUP2 CALLDATALOAD SWAP1 POP PUSH2 0x3115 DUP2 PUSH2 0x30F1 JUMP JUMPDEST SWAP3 SWAP2 POP POP JUMP JUMPDEST PUSH0 DUP2 SWAP1 POP SWAP2 SWAP1 POP JUMP JUMPDEST PUSH2 0x312D DUP2 PUSH2 0x311B JUMP JUMPDEST DUP2 EQ PUSH2 0x3137 JUMPI PUSH0 PUSH0 REVERT JUMPDEST POP JUMP JUMPDEST PUSH0 DUP2 CALLDATALOAD SWAP1 POP PUSH2 0x3148 DUP2 PUSH2 0x3124 JUMP JUMPDEST SWAP3 SWAP2 POP POP JUMP JUMPDEST PUSH0 PUSH0 PUSH1 0x40 DUP4 DUP6 SUB SLT ISZERO PUSH2 0x3164 JUMPI PUSH2 0x3163 PUSH2 0x30B9 JUMP JUMPDEST JUMPDEST PUSH0 PUSH2 0x3171 DUP6 DUP3 DUP7 ADD PUSH2 0x3107 JUMP JUMPDEST SWAP3 POP POP PUSH1 0x20 PUSH2 0x3182 DUP6 DUP3 DUP7 ADD PUSH2 0x313A JUMP JUMPDEST SWAP2 POP POP SWAP3 POP SWAP3 SWAP1 POP JUMP JUMPDEST PUSH0 DUP2 ISZERO ISZERO SWAP1 POP SWAP2 SWAP1 POP JUMP JUMPDEST PUSH2 0x31A0 DUP2 PUSH2 0x318C JUMP JUMPDEST DUP3 MSTORE POP POP JUMP JUMPDEST PUSH0 PUSH1 0x20 DUP3 ADD SWAP1 POP PUSH2 0x31B9 PUSH0 DUP4 ADD DUP5 PUSH2 0x3197 JUMP JUMPDEST SWAP3 SWAP2 POP POP JUMP JUMPDEST PUSH2 0x31C8 DUP2 PUSH2 0x311B JUMP JUMPDEST DUP3 MSTORE POP POP JUMP JUMPDEST PUSH0 PUSH1 0x20 DUP3 ADD SWAP1 POP PUSH2 0x31E1 PUSH0 DUP4 ADD DUP5 PUSH2 0x31BF JUMP JUMPDEST SWAP3 SWAP2 POP POP JUMP JUMPDEST PUSH0 PUSH0 PUSH0 PUSH1 0x60 DUP5 DUP7 SUB SLT ISZERO PUSH2 0x31FE JUMPI PUSH2 0x31FD PUSH2 0x30B9 JUMP JUMPDEST JUMPDEST PUSH0 PUSH2 0x320B DUP7 DUP3 DUP8 ADD PUSH2 0x3107 JUMP JUMPDEST SWAP4 POP POP PUSH1 0x20 PUSH2 0x321C DUP7 DUP3 DUP8 ADD PUSH2 0x3107 JUMP JUMPDEST SWAP3 POP POP PUSH1 0x40 PUSH2 0x322D DUP7 DUP3 DUP8 ADD PUSH2 0x313A JUMP JUMPDEST SWAP2 POP POP SWAP3 POP SWAP3 POP SWAP3 JUMP JUMPDEST PUSH0 PUSH1 0x20 DUP3 DUP5 SUB SLT ISZERO PUSH2 0x324C JUMPI PUSH2 0x324B PUSH2 0x30B9 JUMP JUMPDEST JUMPDEST PUSH0 PUSH2 0x3259 DUP5 DUP3 DUP6 ADD PUSH2 0x3107 JUMP JUMPDEST SWAP2 POP POP SWAP3 SWAP2 POP POP JUMP JUMPDEST PUSH0 PUSH1 0xFF DUP3 AND SWAP1 POP SWAP2 SWAP1 POP JUMP JUMPDEST PUSH2 0x3277 DUP2 PUSH2 0x3262 JUMP JUMPDEST DUP3 MSTORE POP POP JUMP JUMPDEST PUSH0 PUSH1 0x20 DUP3 ADD SWAP1 POP PUSH2 0x3290 PUSH0 DUP4 ADD DUP5 PUSH2 0x326E JUMP JUMPDEST SWAP3 SWAP2 POP POP JUMP JUMPDEST PUSH2 0x329F DUP2 PUSH2 0x30E0 JUMP JUMPDEST DUP3 MSTORE POP POP JUMP JUMPDEST PUSH0 PUSH1 0x20 DUP3 ADD SWAP1 POP PUSH2 0x32B8 PUSH0 DUP4 ADD DUP5 PUSH2 0x3296 JUMP JUMPDEST SWAP3 SWAP2 POP POP JUMP JUMPDEST PUSH0 PUSH0 REVERT JUMPDEST PUSH0 PUSH0 REVERT JUMPDEST PUSH0 PUSH0 REVERT JUMPDEST PUSH0 PUSH0 DUP4 PUSH1 0x1F DUP5 ADD SLT PUSH2 0x32DF JUMPI PUSH2 0x32DE PUSH2 0x32BE JUMP JUMPDEST JUMPDEST DUP3 CALLDATALOAD SWAP1 POP PUSH8 0xFFFFFFFFFFFFFFFF DUP2 GT ISZERO PUSH2 0x32FC JUMPI PUSH2 0x32FB PUSH2 0x32C2 JUMP JUMPDEST JUMPDEST PUSH1 0x20 DUP4 ADD SWAP2 POP DUP4 PUSH1 0x20 DUP3 MUL DUP4 ADD GT ISZERO PUSH2 0x3318 JUMPI PUSH2 0x3317 PUSH2 0x32C6 JUMP JUMPDEST JUMPDEST SWAP3 POP SWAP3 SWAP1 POP JUMP JUMPDEST PUSH0 PUSH0 DUP4 PUSH1 0x1F DUP5 ADD SLT PUSH2 0x3334 JUMPI PUSH2 0x3333 PUSH2 0x32BE JUMP JUMPDEST JUMPDEST DUP3 CALLDATALOAD SWAP1 POP PUSH8 0xFFFFFFFFFFFFFFFF DUP2 GT ISZERO PUSH2 0x3351 JUMPI PUSH2 0x3350 PUSH2 0x32C2 JUMP JUMPDEST JUMPDEST PUSH1 0x20 DUP4 ADD SWAP2 POP DUP4 PUSH1 0x20 DUP3 MUL DUP4 ADD GT ISZERO PUSH2 0x336D JUMPI PUSH2 0x336C PUSH2 0x32C6 JUMP JUMPDEST JUMPDEST SWAP3 POP SWAP3 SWAP1 POP JUMP JUMPDEST PUSH0 PUSH0 PUSH0 PUSH0 PUSH1 0x40 DUP6 DUP8 SUB SLT ISZERO PUSH2 0x338C JUMPI PUSH2 0x338B PUSH2 0x30B9 JUMP JUMPDEST JUMPDEST PUSH0 DUP6 ADD CALLDATALOAD PUSH8 0xFFFFFFFFFFFFFFFF DUP2 GT ISZERO PUSH2 0x33A9 JUMPI PUSH2 0x33A8 PUSH2 0x30BD JUMP JUMPDEST JUMPDEST PUSH2 0x33B5 DUP8 DUP3 DUP9 ADD PUSH2 0x32CA JUMP JUMPDEST SWAP5 POP SWAP5 POP POP PUSH1 0x20 DUP6 ADD CALLDATALOAD PUSH8 0xFFFFFFFFFFFFFFFF DUP2 GT ISZERO PUSH2 0x33D8 JUMPI PUSH2 0x33D7 PUSH2 0x30BD JUMP JUMPDEST JUMPDEST PUSH2 0x33E4 DUP8 DUP3 DUP9 ADD PUSH2 0x331F JUMP JUMPDEST SWAP3 POP SWAP3 POP POP SWAP3 SWAP6 SWAP2 SWAP5 POP SWAP3 POP JUMP JUMPDEST PUSH0 PUSH4 0xFFFFFFFF DUP3 AND SWAP1 POP SWAP2 SWAP1 POP JUMP JUMPDEST PUSH2 0x340A DUP2 PUSH2 0x33F2 JUMP JUMPDEST DUP3 MSTORE POP POP JUMP JUMPDEST PUSH0 PUSH1 0x20 DUP3 ADD SWAP1 POP PUSH2 0x3423 PUSH0 DUP4 ADD DUP5 PUSH2 0x3401 JUMP JUMPDEST SWAP3 SWAP2 POP POP JUMP JUMPDEST PUSH0 PUSH32 0xFF00000000000000000000000000000000000000000000000000000000000000 DUP3 AND SWAP1 POP SWAP2 SWAP1 POP JUMP JUMPDEST PUSH2 0x345D DUP2 PUSH2 0x3429 JUMP JUMPDEST DUP3 MSTORE POP POP JUMP JUMPDEST PUSH0 DUP2 SWAP1 POP SWAP2 SWAP1 POP JUMP JUMPDEST PUSH2 0x3475 DUP2 PUSH2 0x3463 JUMP JUMPDEST DUP3 MSTORE POP POP JUMP JUMPDEST PUSH0 DUP2 MLOAD SWAP1 POP SWAP2 SWAP1 POP JUMP JUMPDEST PUSH0 DUP3 DUP3 MSTORE PUSH1 0x20 DUP3 ADD SWAP1 POP SWAP3 SWAP2 POP POP JUMP JUMPDEST PUSH0 DUP2 SWAP1 POP PUSH1 0x20 DUP3 ADD SWAP1 POP SWAP2 SWAP1 POP JUMP JUMPDEST PUSH2 0x34AD DUP2 PUSH2 0x311B JUMP JUMPDEST DUP3 MSTORE POP POP JUMP JUMPDEST PUSH0 PUSH2 0x34BE DUP4 DUP4 PUSH2 0x34A4 JUMP JUMPDEST PUSH1 0x20 DUP4 ADD SWAP1 POP SWAP3 SWAP2 POP POP JUMP JUMPDEST PUSH0 PUSH1 0x20 DUP3 ADD SWAP1 POP SWAP2 SWAP1 POP JUMP JUMPDEST PUSH0 PUSH2 0x34E0 DUP3 PUSH2 0x347B JUMP JUMPDEST PUSH2 0x34EA DUP2 DUP6 PUSH2 0x3485 JUMP JUMPDEST SWAP4 POP PUSH2 0x34F5 DUP4 PUSH2 0x3495 JUMP JUMPDEST DUP1 PUSH0 JUMPDEST DUP4 DUP2 LT ISZERO PUSH2 0x3525 JUMPI DUP2 MLOAD PUSH2 0x350C DUP9 DUP3 PUSH2 0x34B3 JUMP JUMPDEST SWAP8 POP PUSH2 0x3517 DUP4 PUSH2 0x34CA JUMP JUMPDEST SWAP3 POP POP PUSH1 0x1 DUP2 ADD SWAP1 POP PUSH2 0x34F8 JUMP JUMPDEST POP DUP6 SWAP4 POP POP POP POP SWAP3 SWAP2 POP POP JUMP JUMPDEST PUSH0 PUSH1 0xE0 DUP3 ADD SWAP1 POP PUSH2 0x3545 PUSH0 DUP4 ADD DUP11 PUSH2 0x3454 JUMP JUMPDEST DUP2 DUP2 SUB PUSH1 0x20 DUP4 ADD MSTORE PUSH2 0x3557 DUP2 DUP10 PUSH2 0x3061 JUMP JUMPDEST SWAP1 POP DUP2 DUP2 SUB PUSH1 0x40 DUP4 ADD MSTORE PUSH2 0x356B DUP2 DUP9 PUSH2 0x3061 JUMP JUMPDEST SWAP1 POP PUSH2 0x357A PUSH1 0x60 DUP4 ADD DUP8 PUSH2 0x31BF JUMP JUMPDEST PUSH2 0x3587 PUSH1 0x80 DUP4 ADD DUP7 PUSH2 0x3296 JUMP JUMPDEST PUSH2 0x3594 PUSH1 0xA0 DUP4 ADD DUP6 PUSH2 0x346C JUMP JUMPDEST DUP2 DUP2 SUB PUSH1 0xC0 DUP4 ADD MSTORE PUSH2 0x35A6 DUP2 DUP5 PUSH2 0x34D6 JUMP JUMPDEST SWAP1 POP SWAP9 SWAP8 POP POP POP POP POP POP POP POP JUMP JUMPDEST PUSH0 PUSH1 0x20 DUP3 DUP5 SUB SLT ISZERO PUSH2 0x35C9 JUMPI PUSH2 0x35C8 PUSH2 0x30B9 JUMP JUMPDEST JUMPDEST PUSH0 PUSH2 0x35D6 DUP5 DUP3 DUP6 ADD PUSH2 0x313A JUMP JUMPDEST SWAP2 POP POP SWAP3 SWAP2 POP POP JUMP JUMPDEST PUSH0 PUSH6 0xFFFFFFFFFFFF DUP3 AND SWAP1 POP SWAP2 SWAP1 POP JUMP JUMPDEST PUSH2 0x35F9 DUP2 PUSH2 0x35DF JUMP JUMPDEST DUP3 MSTORE POP POP JUMP JUMPDEST PUSH0 PUSH1 0x20 DUP3 ADD SWAP1 POP PUSH2 0x3612 PUSH0 DUP4 ADD DUP5 PUSH2 0x35F0 JUMP JUMPDEST SWAP3 SWAP2 POP POP JUMP JUMPDEST PUSH2 0x3621 DUP2 PUSH2 0x3262 JUMP JUMPDEST DUP2 EQ PUSH2 0x362B JUMPI PUSH0 PUSH0 REVERT JUMPDEST POP JUMP JUMPDEST PUSH0 DUP2 CALLDATALOAD SWAP1 POP PUSH2 0x363C DUP2 PUSH2 0x3618 JUMP JUMPDEST SWAP3 SWAP2 POP POP JUMP JUMPDEST PUSH2 0x364B DUP2 PUSH2 0x3463 JUMP JUMPDEST DUP2 EQ PUSH2 0x3655 JUMPI PUSH0 PUSH0 REVERT JUMPDEST POP JUMP JUMPDEST PUSH0 DUP2 CALLDATALOAD SWAP1 POP PUSH2 0x3666 DUP2 PUSH2 0x3642 JUMP JUMPDEST SWAP3 SWAP2 POP POP JUMP JUMPDEST PUSH0 PUSH0 PUSH0 PUSH0 PUSH0 PUSH0 PUSH1 0xC0 DUP8 DUP10 SUB SLT ISZERO PUSH2 0x3686 JUMPI PUSH2 0x3685 PUSH2 0x30B9 JUMP JUMPDEST JUMPDEST PUSH0 PUSH2 0x3693 DUP10 DUP3 DUP11 ADD PUSH2 0x3107 JUMP JUMPDEST SWAP7 POP POP PUSH1 0x20 PUSH2 0x36A4 DUP10 DUP3 DUP11 ADD PUSH2 0x313A JUMP JUMPDEST SWAP6 POP POP PUSH1 0x40 PUSH2 0x36B5 DUP10 DUP3 DUP11 ADD PUSH2 0x313A JUMP JUMPDEST SWAP5 POP POP PUSH1 0x60 PUSH2 0x36C6 DUP10 DUP3 DUP11 ADD PUSH2 0x362E JUMP JUMPDEST SWAP4 POP POP PUSH1 0x80 PUSH2 0x36D7 DUP10 DUP3 DUP11 ADD PUSH2 0x3658 JUMP JUMPDEST SWAP3 POP POP PUSH1 0xA0 PUSH2 0x36E8 DUP10 DUP3 DUP11 ADD PUSH2 0x3658 JUMP JUMPDEST SWAP2 POP POP SWAP3 SWAP6 POP SWAP3 SWAP6 POP SWAP3 SWAP6 JUMP JUMPDEST PUSH0 PUSH0 PUSH1 0x40 DUP4 DUP6 SUB SLT ISZERO PUSH2 0x370B JUMPI PUSH2 0x370A PUSH2 0x30B9 JUMP JUMPDEST JUMPDEST PUSH0 PUSH2 0x3718 DUP6 DUP3 DUP7 ADD PUSH2 0x3107 JUMP JUMPDEST SWAP3 POP POP PUSH1 0x20 PUSH2 0x3729 DUP6 DUP3 DUP7 ADD PUSH2 0x3107 JUMP JUMPDEST SWAP2 POP POP SWAP3 POP SWAP3 SWAP1 POP JUMP JUMPDEST PUSH2 0x373C DUP2 PUSH2 0x33F2 JUMP JUMPDEST DUP2 EQ PUSH2 0x3746 JUMPI PUSH0 PUSH0 REVERT JUMPDEST POP JUMP JUMPDEST PUSH0 DUP2 CALLDATALOAD SWAP1 POP PUSH2 0x3757 DUP2 PUSH2 0x3733 JUMP JUMPDEST SWAP3 SWAP2 POP POP JUMP JUMPDEST PUSH0 PUSH0 PUSH1 0x40 DUP4 DUP6 SUB SLT ISZERO PUSH2 0x3773 JUMPI PUSH2 0x3772 PUSH2 0x30B9 JUMP JUMPDEST JUMPDEST PUSH0 PUSH2 0x3780 DUP6 DUP3 DUP7 ADD PUSH2 0x3107 JUMP JUMPDEST SWAP3 POP POP PUSH1 0x20 PUSH2 0x3791 DUP6 DUP3 DUP7 ADD PUSH2 0x3749 JUMP JUMPDEST SWAP2 POP POP SWAP3 POP SWAP3 SWAP1 POP JUMP JUMPDEST PUSH2 0x37A4 DUP2 PUSH2 0x35DF JUMP JUMPDEST DUP3 MSTORE POP POP JUMP JUMPDEST PUSH0 PUSH26 0xFFFFFFFFFFFFFFFFFFFFFFFFFFFFFFFFFFFFFFFFFFFFFFFFFFFF DUP3 AND SWAP1 POP SWAP2 SWAP1 POP JUMP JUMPDEST PUSH2 0x37D8 DUP2 PUSH2 0x37AA JUMP JUMPDEST DUP3 MSTORE POP POP JUMP JUMPDEST PUSH1 0x40 DUP3 ADD PUSH0 DUP3 ADD MLOAD PUSH2 0x37F2 PUSH0 DUP6 ADD DUP3 PUSH2 0x379B JUMP JUMPDEST POP PUSH1 0x20 DUP3 ADD MLOAD PUSH2 0x3805 PUSH1 0x20 DUP6 ADD DUP3 PUSH2 0x37CF JUMP JUMPDEST POP POP POP POP JUMP JUMPDEST PUSH0 PUSH1 0x40 DUP3 ADD SWAP1 POP PUSH2 0x381E PUSH0 DUP4 ADD DUP5 PUSH2 0x37DE JUMP JUMPDEST SWAP3 SWAP2 POP POP JUMP JUMPDEST PUSH32 0x4E487B7100000000000000000000000000000000000000000000000000000000 PUSH0 MSTORE PUSH1 0x22 PUSH1 0x4 MSTORE PUSH1 0x24 PUSH0 REVERT JUMPDEST PUSH0 PUSH1 0x2 DUP3 DIV SWAP1 POP PUSH1 0x1 DUP3 AND DUP1 PUSH2 0x3868 JUMPI PUSH1 0x7F DUP3 AND SWAP2 POP JUMPDEST PUSH1 0x20 DUP3 LT DUP2 SUB PUSH2 0x387B JUMPI PUSH2 0x387A PUSH2 0x3824 JUMP JUMPDEST JUMPDEST POP SWAP2 SWAP1 POP JUMP JUMPDEST PUSH32 0x4E6F7420617574686F72697A656420746F206D696E7400000000000000000000 PUSH0 DUP3 ADD MSTORE POP JUMP JUMPDEST PUSH0 PUSH2 0x38B5 PUSH1 0x16 DUP4 PUSH2 0x3033 JUMP JUMPDEST SWAP2 POP PUSH2 0x38C0 DUP3 PUSH2 0x3881 JUMP JUMPDEST PUSH1 0x20 DUP3 ADD SWAP1 POP SWAP2 SWAP1 POP JUMP JUMPDEST PUSH0 PUSH1 0x20 DUP3 ADD SWAP1 POP DUP2 DUP2 SUB PUSH0 DUP4 ADD MSTORE PUSH2 0x38E2 DUP2 PUSH2 0x38A9 JUMP JUMPDEST SWAP1 POP SWAP2 SWAP1 POP JUMP JUMPDEST PUSH32 0x4E487B7100000000000000000000000000000000000000000000000000000000 PUSH0 MSTORE PUSH1 0x11 PUSH1 0x4 MSTORE PUSH1 0x24 PUSH0 REVERT JUMPDEST PUSH0 PUSH2 0x3920 DUP3 PUSH2 0x311B JUMP JUMPDEST SWAP2 POP PUSH2 0x392B DUP4 PUSH2 0x311B JUMP JUMPDEST SWAP3 POP DUP3 DUP3 ADD SWAP1 POP DUP1 DUP3 GT ISZERO PUSH2 0x3943 JUMPI PUSH2 0x3942 PUSH2 0x38E9 JUMP JUMPDEST JUMPDEST SWAP3 SWAP2 POP POP JUMP JUMPDEST PUSH32 0x45786365656473206D617820737570706C790000000000000000000000000000 PUSH0 DUP3 ADD MSTORE POP JUMP JUMPDEST PUSH0 PUSH2 0x397D PUSH1 0x12 DUP4 PUSH2 0x3033 JUMP JUMPDEST SWAP2 POP PUSH2 0x3988 DUP3 PUSH2 0x3949 JUMP JUMPDEST PUSH1 0x20 DUP3 ADD SWAP1 POP SWAP2 SWAP1 POP JUMP JUMPDEST PUSH0 PUSH1 0x20 DUP3 ADD SWAP1 POP DUP2 DUP2 SUB PUSH0 DUP4 ADD MSTORE PUSH2 0x39AA DUP2 PUSH2 0x3971 JUMP JUMPDEST SWAP1 POP SWAP2 SWAP1 POP JUMP JUMPDEST PUSH32 0x417272617973206C656E677468206D69736D6174636800000000000000000000 PUSH0 DUP3 ADD MSTORE POP JUMP JUMPDEST PUSH0 PUSH2 0x39E5 PUSH1 0x16 DUP4 PUSH2 0x3033 JUMP JUMPDEST SWAP2 POP PUSH2 0x39F0 DUP3 PUSH2 0x39B1 JUMP JUMPDEST PUSH1 0x20 DUP3 ADD SWAP1 POP SWAP2 SWAP1 POP JUMP JUMPDEST PUSH0 PUSH1 0x20 DUP3 ADD SWAP1 POP DUP2 DUP2 SUB PUSH0 DUP4 ADD MSTORE PUSH2 0x3A12 DUP2 PUSH2 0x39D9 JUMP JUMPDEST SWAP1 POP SWAP2 SWAP1 POP JUMP JUMPDEST PUSH32 0x4E487B7100000000000000000000000000000000000000000000000000000000 PUSH0 MSTORE PUSH1 0x32 PUSH1 0x4 MSTORE PUSH1 0x24 PUSH0 REVERT JUMPDEST PUSH32 0x4E487B7100000000000000000000000000000000000000000000000000000000 PUSH0 MSTORE PUSH1 0x41 PUSH1 0x4 MSTORE PUSH1 0x24 PUSH0 REVERT JUMPDEST PUSH0 PUSH1 0x80 DUP3 ADD SWAP1 POP PUSH2 0x3A86 PUSH0 DUP4 ADD DUP8 PUSH2 0x346C JUMP JUMPDEST PUSH2 0x3A93 PUSH1 0x20 DUP4 ADD DUP7 PUSH2 0x3296 JUMP JUMPDEST PUSH2 0x3AA0 PUSH1 0x40 DUP4 ADD DUP6 PUSH2 0x31BF JUMP JUMPDEST PUSH2 0x3AAD PUSH1 0x60 DUP4 ADD DUP5 PUSH2 0x31BF JUMP JUMPDEST SWAP6 SWAP5 POP POP POP POP POP JUMP JUMPDEST PUSH0 PUSH2 0x3AC0 DUP3 PUSH2 0x37AA JUMP JUMPDEST SWAP2 POP PUSH2 0x3ACB DUP4 PUSH2 0x37AA JUMP JUMPDEST SWAP3 POP DUP3 DUP3 ADD SWAP1 POP PUSH26 0xFFFFFFFFFFFFFFFFFFFFFFFFFFFFFFFFFFFFFFFFFFFFFFFFFFFF DUP2 GT ISZERO PUSH2 0x3AFD JUMPI PUSH2 0x3AFC PUSH2 0x38E9 JUMP JUMPDEST JUMPDEST SWAP3 SWAP2 POP POP JUMP JUMPDEST PUSH0 PUSH2 0x3B0D DUP3 PUSH2 0x37AA JUMP JUMPDEST SWAP2 POP PUSH2 0x3B18 DUP4 PUSH2 0x37AA JUMP JUMPDEST SWAP3 POP DUP3 DUP3 SUB SWAP1 POP PUSH26 0xFFFFFFFFFFFFFFFFFFFFFFFFFFFFFFFFFFFFFFFFFFFFFFFFFFFF DUP2 GT ISZERO PUSH2 0x3B4A JUMPI PUSH2 0x3B49 PUSH2 0x38E9 JUMP JUMPDEST JUMPDEST SWAP3 SWAP2 POP POP JUMP JUMPDEST PUSH0 PUSH1 0x60 DUP3 ADD SWAP1 POP PUSH2 0x3B63 PUSH0 DUP4 ADD DUP7 PUSH2 0x3296 JUMP JUMPDEST PUSH2 0x3B70 PUSH1 0x20 DUP4 ADD DUP6 PUSH2 0x31BF JUMP JUMPDEST PUSH2 0x3B7D PUSH1 0x40 DUP4 ADD DUP5 PUSH2 0x31BF JUMP JUMPDEST SWAP5 SWAP4 POP POP POP POP JUMP JUMPDEST PUSH0 PUSH1 0x40 DUP3 ADD SWAP1 POP PUSH2 0x3B98 PUSH0 DUP4 ADD DUP6 PUSH2 0x31BF JUMP JUMPDEST PUSH2 0x3BA5 PUSH1 0x20 DUP4 ADD DUP5 PUSH2 0x35F0 JUMP JUMPDEST SWAP4 SWAP3 POP POP POP JUMP JUMPDEST PUSH0 PUSH2 0x3BB6 DUP3 PUSH2 0x311B JUMP JUMPDEST SWAP2 POP PUSH2 0x3BC1 DUP4 PUSH2 0x311B JUMP JUMPDEST SWAP3 POP DUP3 DUP3 SUB SWAP1 POP DUP2 DUP2 GT ISZERO PUSH2 0x3BD9 JUMPI PUSH2 0x3BD8 PUSH2 0x38E9 JUMP JUMPDEST JUMPDEST SWAP3 SWAP2 POP POP JUMP JUMPDEST PUSH0 PUSH1 0x40 DUP3 ADD SWAP1 POP PUSH2 0x3BF2 PUSH0 DUP4 ADD DUP6 PUSH2 0x3296 JUMP JUMPDEST PUSH2 0x3BFF PUSH1 0x20 DUP4 ADD DUP5 PUSH2 0x31BF JUMP JUMPDEST SWAP4 SWAP3 POP POP POP JUMP JUMPDEST PUSH0 DUP2 SWAP1 POP SWAP2 SWAP1 POP JUMP JUMPDEST PUSH0 DUP2 SWAP1 POP SWAP2 SWAP1 POP JUMP JUMPDEST PUSH0 PUSH2 0x3C32 PUSH2 0x3C2D PUSH2 0x3C28 DUP5 PUSH2 0x3C06 JUMP JUMPDEST PUSH2 0x3C0F JUMP JUMPDEST PUSH2 0x3262 JUMP JUMPDEST SWAP1 POP SWAP2 SWAP1 POP JUMP JUMPDEST PUSH2 0x3C42 DUP2 PUSH2 0x3C18 JUMP JUMPDEST DUP3 MSTORE POP POP JUMP JUMPDEST PUSH0 PUSH1 0x40 DUP3 ADD SWAP1 POP PUSH2 0x3C5B PUSH0 DUP4 ADD DUP6 PUSH2 0x3C39 JUMP JUMPDEST PUSH2 0x3C68 PUSH1 0x20 DUP4 ADD DUP5 PUSH2 0x31BF JUMP JUMPDEST SWAP4 SWAP3 POP POP POP JUMP JUMPDEST PUSH32 0x4E487B7100000000000000000000000000000000000000000000000000000000 PUSH0 MSTORE PUSH1 0x12 PUSH1 0x4 MSTORE PUSH1 0x24 PUSH0 REVERT JUMPDEST PUSH0 PUSH1 0x40 DUP3 ADD SWAP1 POP PUSH2 0x3CAF PUSH0 DUP4 ADD DUP6 PUSH2 0x31BF JUMP JUMPDEST PUSH2 0x3CBC PUSH1 0x20 DUP4 ADD DUP5 PUSH2 0x31BF JUMP JUMPDEST SWAP4 SWAP3 POP POP POP JUMP JUMPDEST PUSH0 DUP2 SWAP1 POP SWAP2 SWAP1 POP JUMP JUMPDEST PUSH0 PUSH2 0x3CE6 PUSH2 0x3CE1 PUSH2 0x3CDC DUP5 PUSH2 0x3CC3 JUMP JUMPDEST PUSH2 0x3C0F JUMP JUMPDEST PUSH2 0x3262 JUMP JUMPDEST SWAP1 POP SWAP2 SWAP1 POP JUMP JUMPDEST PUSH2 0x3CF6 DUP2 PUSH2 0x3CCC JUMP JUMPDEST DUP3 MSTORE POP POP JUMP JUMPDEST PUSH0 PUSH1 0x40 DUP3 ADD SWAP1 POP PUSH2 0x3D0F PUSH0 DUP4 ADD DUP6 PUSH2 0x3CED JUMP JUMPDEST PUSH2 0x3D1C PUSH1 0x20 DUP4 ADD DUP5 PUSH2 0x31BF JUMP JUMPDEST SWAP4 SWAP3 POP POP POP JUMP JUMPDEST PUSH0 PUSH1 0x80 DUP3 ADD SWAP1 POP PUSH2 0x3D36 PUSH0 DUP4 ADD DUP8 PUSH2 0x346C JUMP JUMPDEST PUSH2 0x3D43 PUSH1 0x20 DUP4 ADD DUP7 PUSH2 0x326E JUMP JUMPDEST PUSH2 0x3D50 PUSH1 0x40 DUP4 ADD DUP6 PUSH2 0x346C JUMP JUMPDEST PUSH2 0x3D5D PUSH1 0x60 DUP4 ADD DUP5 PUSH2 0x346C JUMP JUMPDEST SWAP6 SWAP5 POP POP POP POP POP JUMP JUMPDEST PUSH32 0x4E487B7100000000000000000000000000000000000000000000000000000000 PUSH0 MSTORE PUSH1 0x21 PUSH1 0x4 MSTORE PUSH1 0x24 PUSH0 REVERT JUMPDEST PUSH0 PUSH1 0x20 DUP3 ADD SWAP1 POP PUSH2 0x3DA6 PUSH0 DUP4 ADD DUP5 PUSH2 0x346C JUMP JUMPDEST SWAP3 SWAP2 POP POP JUMP JUMPDEST PUSH0 PUSH2 0x3DB6 DUP3 PUSH2 0x311B JUMP JUMPDEST SWAP2 POP PUSH2 0x3DC1 DUP4 PUSH2 0x311B JUMP JUMPDEST SWAP3 POP DUP3 PUSH2 0x3DD1 JUMPI PUSH2 0x3DD0 PUSH2 0x3C6F JUMP JUMPDEST JUMPDEST DUP3 DUP3 DIV SWAP1 POP SWAP3 SWAP2 POP POP JUMP JUMPDEST PUSH0 DUP2 SWAP1 POP SWAP2 SWAP1 POP JUMP JUMPDEST PUSH0 PUSH2 0x3DFF PUSH2 0x3DFA PUSH2 0x3DF5 DUP5 PUSH2 0x3DDC JUMP JUMPDEST PUSH2 0x3C0F JUMP JUMPDEST PUSH2 0x3262 JUMP JUMPDEST SWAP1 POP SWAP2 SWAP1 POP JUMP JUMPDEST PUSH2 0x3E0F DUP2 PUSH2 0x3DE5 JUMP JUMPDEST DUP3 MSTORE POP POP JUMP JUMPDEST PUSH0 PUSH1 0x40 DUP3 ADD SWAP1 POP PUSH2 0x3E28 PUSH0 DUP4 ADD DUP6 PUSH2 0x3E06 JUMP JUMPDEST PUSH2 0x3E35 PUSH1 0x20 DUP4 ADD DUP5 PUSH2 0x31BF JUMP JUMPDEST SWAP4 SWAP3 POP POP POP JUMP JUMPDEST PUSH0 PUSH1 0xA0 DUP3 ADD SWAP1 POP PUSH2 0x3E4F PUSH0 DUP4 ADD DUP9 PUSH2 0x346C JUMP JUMPDEST PUSH2 0x3E5C PUSH1 0x20 DUP4 ADD DUP8 PUSH2 0x346C JUMP JUMPDEST PUSH2 0x3E69 PUSH1 0x40 DUP4 ADD DUP7 PUSH2 0x346C JUMP JUMPDEST PUSH2 0x3E76 PUSH1 0x60 DUP4 ADD DUP6 PUSH2 0x31BF JUMP JUMPDEST PUSH2 0x3E83 PUSH1 0x80 DUP4 ADD DUP5 PUSH2 0x3296 JUMP JUMPDEST SWAP7 SWAP6 POP POP POP POP POP POP JUMP INVALID LOG2 PUSH5 0x6970667358 0x22 SLT KECCAK256 SWAP2 MSTORE8 0xB0 0x25 SWAP10 ADDMOD GAS 0x1F EXTCODESIZE 0xC7 0xA6 0xD9 LOG3 PUSH21 0xB257196537EE93D0E4E32FA96A6013BD225A64736F PUSH13 0x634300081E0033000000000000 "
	},
	"abi": [
		{
			"inputs": [
				{
					"internalType": "address",
					"name": "initialOwner",
					"type": "address"
				}
			],
			"stateMutability": "nonpayable",
			"type": "constructor"
		},
		{
			"inputs": [],
			"name": "CheckpointUnorderedInsertion",
			"type": "error"
		},
		{
			"inputs": [],
			"name": "ECDSAInvalidSignature",
			"type": "error"
		},
		{
			"inputs": [
				{
					"internalType": "uint256",
					"name": "length",
					"type": "uint256"
				}
			],
			"name": "ECDSAInvalidSignatureLength",
			"type": "error"
		},
		{
			"inputs": [
				{
					"internalType": "bytes32",
					"name": "s",
					"type": "bytes32"
				}
			],
			"name": "ECDSAInvalidSignatureS",
			"type": "error"
		},
		{
			"inputs": [
				{
					"internalType": "uint256",
					"name": "increasedSupply",
					"type": "uint256"
				},
				{
					"internalType": "uint256",
					"name": "cap",
					"type": "uint256"
				}
			],
			"name": "ERC20ExceededSafeSupply",
			"type": "error"
		},
		{
			"inputs": [
				{
					"internalType": "address",
					"name": "spender",
					"type": "address"
				},
				{
					"internalType": "uint256",
					"name": "allowance",
					"type": "uint256"
				},
				{
					"internalType": "uint256",
					"name": "needed",
					"type": "uint256"
				}
			],
			"name": "ERC20InsufficientAllowance",
			"type": "error"
		},
		{
			"inputs": [
				{
					"internalType": "address",
					"name": "sender",
					"type": "address"
				},
				{
					"internalType": "uint256",
					"name": "balance",
					"type": "uint256"
				},
				{
					"internalType": "uint256",
					"name": "needed",
					"type": "uint256"
				}
			],
			"name": "ERC20InsufficientBalance",
			"type": "error"
		},
		{
			"inputs": [
				{
					"internalType": "address",
					"name": "approver",
					"type": "address"
				}
			],
			"name": "ERC20InvalidApprover",
			"type": "error"
		},
		{
			"inputs": [
				{
					"internalType": "address",
					"name": "receiver",
					"type": "address"
				}
			],
			"name": "ERC20InvalidReceiver",
			"type": "error"
		},
		{
			"inputs": [
				{
					"internalType": "address",
					"name": "sender",
					"type": "address"
				}
			],
			"name": "ERC20InvalidSender",
			"type": "error"
		},
		{
			"inputs": [
				{
					"internalType": "address",
					"name": "spender",
					"type": "address"
				}
			],
			"name": "ERC20InvalidSpender",
			"type": "error"
		},
		{
			"inputs": [
				{
					"internalType": "uint256",
					"name": "timepoint",
					"type": "uint256"
				},
				{
					"internalType": "uint48",
					"name": "clock",
					"type": "uint48"
				}
			],
			"name": "ERC5805FutureLookup",
			"type": "error"
		},
		{
			"inputs": [],
			"name": "ERC6372InconsistentClock",
			"type": "error"
		},
		{
			"inputs": [
				{
					"internalType": "address",
					"name": "account",
					"type": "address"
				},
				{
					"internalType": "uint256",
					"name": "currentNonce",
					"type": "uint256"
				}
			],
			"name": "InvalidAccountNonce",
			"type": "error"
		},
		{
			"inputs": [],
			"name": "InvalidShortString",
			"type": "error"
		},
		{
			"inputs": [
				{
					"internalType": "address",
					"name": "owner",
					"type": "address"
				}
			],
			"name": "OwnableInvalidOwner",
			"type": "error"
		},
		{
			"inputs": [
				{
					"internalType": "address",
					"name": "account",
					"type": "address"
				}
			],
			"name": "OwnableUnauthorizedAccount",
			"type": "error"
		},
		{
			"inputs": [
				{
					"internalType": "uint8",
					"name": "bits",
					"type": "uint8"
				},
				{
					"internalType": "uint256",
					"name": "value",
					"type": "uint256"
				}
			],
			"name": "SafeCastOverflowedUintDowncast",
			"type": "error"
		},
		{
			"inputs": [
				{
					"internalType": "string",
					"name": "str",
					"type": "string"
				}
			],
			"name": "StringTooLong",
			"type": "error"
		},
		{
			"inputs": [
				{
					"internalType": "uint256",
					"name": "expiry",
					"type": "uint256"
				}
			],
			"name": "VotesExpiredSignature",
			"type": "error"
		},
		{
			"anonymous": false,
			"inputs": [
				{
					"indexed": true,
					"internalType": "address",
					"name": "owner",
					"type": "address"
				},
				{
					"indexed": true,
					"internalType": "address",
					"name": "spender",
					"type": "address"
				},
				{
					"indexed": false,
					"internalType": "uint256",
					"name": "value",
					"type": "uint256"
				}
			],
			"name": "Approval",
			"type": "event"
		},
		{
			"anonymous": false,
			"inputs": [
				{
					"indexed": true,
					"internalType": "address",
					"name": "delegator",
					"type": "address"
				},
				{
					"indexed": true,
					"internalType": "address",
					"name": "fromDelegate",
					"type": "address"
				},
				{
					"indexed": true,
					"internalType": "address",
					"name": "toDelegate",
					"type": "address"
				}
			],
			"name": "DelegateChanged",
			"type": "event"
		},
		{
			"anonymous": false,
			"inputs": [
				{
					"indexed": true,
					"internalType": "address",
					"name": "delegate",
					"type": "address"
				},
				{
					"indexed": false,
					"internalType": "uint256",
					"name": "previousVotes",
					"type": "uint256"
				},
				{
					"indexed": false,
					"internalType": "uint256",
					"name": "newVotes",
					"type": "uint256"
				}
			],
			"name": "DelegateVotesChanged",
			"type": "event"
		},
		{
			"anonymous": false,
			"inputs": [],
			"name": "EIP712DomainChanged",
			"type": "event"
		},
		{
			"anonymous": false,
			"inputs": [
				{
					"indexed": true,
					"internalType": "address",
					"name": "minter",
					"type": "address"
				}
			],
			"name": "MinterAdded",
			"type": "event"
		},
		{
			"anonymous": false,
			"inputs": [
				{
					"indexed": true,
					"internalType": "address",
					"name": "minter",
					"type": "address"
				}
			],
			"name": "MinterRemoved",
			"type": "event"
		},
		{
			"anonymous": false,
			"inputs": [
				{
					"indexed": true,
					"internalType": "address",
					"name": "previousOwner",
					"type": "address"
				},
				{
					"indexed": true,
					"internalType": "address",
					"name": "newOwner",
					"type": "address"
				}
			],
			"name": "OwnershipTransferred",
			"type": "event"
		},
		{
			"anonymous": false,
			"inputs": [
				{
					"indexed": true,
					"internalType": "address",
					"name": "from",
					"type": "address"
				},
				{
					"indexed": true,
					"internalType": "address",
					"name": "to",
					"type": "address"
				},
				{
					"indexed": false,
					"internalType": "uint256",
					"name": "value",
					"type": "uint256"
				}
			],
			"name": "Transfer",
			"type": "event"
		},
		{
			"inputs": [],
			"name": "CLOCK_MODE",
			"outputs": [
				{
					"internalType": "string",
					"name": "",
					"type": "string"
				}
			],
			"stateMutability": "view",
			"type": "function"
		},
		{
			"inputs": [],
			"name": "INITIAL_SUPPLY",
			"outputs": [
				{
					"internalType": "uint256",
					"name": "",
					"type": "uint256"
				}
			],
			"stateMutability": "view",
			"type": "function"
		},
		{
			"inputs": [],
			"name": "MAX_SUPPLY",
			"outputs": [
				{
					"internalType": "uint256",
					"name": "",
					"type": "uint256"
				}
			],
			"stateMutability": "view",
			"type": "function"
		},
		{
			"inputs": [
				{
					"internalType": "address",
					"name": "minter",
					"type": "address"
				}
			],
			"name": "addMinter",
			"outputs": [],
			"stateMutability": "nonpayable",
			"type": "function"
		},
		{
			"inputs": [
				{
					"internalType": "address",
					"name": "owner",
					"type": "address"
				},
				{
					"internalType": "address",
					"name": "spender",
					"type": "address"
				}
			],
			"name": "allowance",
			"outputs": [
				{
					"internalType": "uint256",
					"name": "",
					"type": "uint256"
				}
			],
			"stateMutability": "view",
			"type": "function"
		},
		{
			"inputs": [
				{
					"internalType": "address",
					"name": "spender",
					"type": "address"
				},
				{
					"internalType": "uint256",
					"name": "value",
					"type": "uint256"
				}
			],
			"name": "approve",
			"outputs": [
				{
					"internalType": "bool",
					"name": "",
					"type": "bool"
				}
			],
			"stateMutability": "nonpayable",
			"type": "function"
		},
		{
			"inputs": [
				{
					"internalType": "address",
					"name": "account",
					"type": "address"
				}
			],
			"name": "balanceOf",
			"outputs": [
				{
					"internalType": "uint256",
					"name": "",
					"type": "uint256"
				}
			],
			"stateMutability": "view",
			"type": "function"
		},
		{
			"inputs": [
				{
					"internalType": "address[]",
					"name": "recipients",
					"type": "address[]"
				},
				{
					"internalType": "uint256[]",
					"name": "amounts",
					"type": "uint256[]"
				}
			],
			"name": "batchMint",
			"outputs": [],
			"stateMutability": "nonpayable",
			"type": "function"
		},
		{
			"inputs": [
				{
					"internalType": "address",
					"name": "account",
					"type": "address"
				},
				{
					"internalType": "uint32",
					"name": "pos",
					"type": "uint32"
				}
			],
			"name": "checkpoints",
			"outputs": [
				{
					"components": [
						{
							"internalType": "uint48",
							"name": "_key",
							"type": "uint48"
						},
						{
							"internalType": "uint208",
							"name": "_value",
							"type": "uint208"
						}
					],
					"internalType": "struct Checkpoints.Checkpoint208",
					"name": "",
					"type": "tuple"
				}
			],
			"stateMutability": "view",
			"type": "function"
		},
		{
			"inputs": [],
			"name": "clock",
			"outputs": [
				{
					"internalType": "uint48",
					"name": "",
					"type": "uint48"
				}
			],
			"stateMutability": "view",
			"type": "function"
		},
		{
			"inputs": [],
			"name": "decimals",
			"outputs": [
				{
					"internalType": "uint8",
					"name": "",
					"type": "uint8"
				}
			],
			"stateMutability": "view",
			"type": "function"
		},
		{
			"inputs": [
				{
					"internalType": "address",
					"name": "delegatee",
					"type": "address"
				}
			],
			"name": "delegate",
			"outputs": [],
			"stateMutability": "nonpayable",
			"type": "function"
		},
		{
			"inputs": [
				{
					"internalType": "address",
					"name": "delegatee",
					"type": "address"
				},
				{
					"internalType": "uint256",
					"name": "nonce",
					"type": "uint256"
				},
				{
					"internalType": "uint256",
					"name": "expiry",
					"type": "uint256"
				},
				{
					"internalType": "uint8",
					"name": "v",
					"type": "uint8"
				},
				{
					"internalType": "bytes32",
					"name": "r",
					"type": "bytes32"
				},
				{
					"internalType": "bytes32",
					"name": "s",
					"type": "bytes32"
				}
			],
			"name": "delegateBySig",
			"outputs": [],
			"stateMutability": "nonpayable",
			"type": "function"
		},
		{
			"inputs": [
				{
					"internalType": "address",
					"name": "account",
					"type": "address"
				}
			],
			"name": "delegates",
			"outputs": [
				{
					"internalType": "address",
					"name": "",
					"type": "address"
				}
			],
			"stateMutability": "view",
			"type": "function"
		},
		{
			"inputs": [],
			"name": "eip712Domain",
			"outputs": [
				{
					"internalType": "bytes1",
					"name": "fields",
					"type": "bytes1"
				},
				{
					"internalType": "string",
					"name": "name",
					"type": "string"
				},
				{
					"internalType": "string",
					"name": "version",
					"type": "string"
				},
				{
					"internalType": "uint256",
					"name": "chainId",
					"type": "uint256"
				},
				{
					"internalType": "address",
					"name": "verifyingContract",
					"type": "address"
				},
				{
					"internalType": "bytes32",
					"name": "salt",
					"type": "bytes32"
				},
				{
					"internalType": "uint256[]",
					"name": "extensions",
					"type": "uint256[]"
				}
			],
			"stateMutability": "view",
			"type": "function"
		},
		{
			"inputs": [
				{
					"internalType": "uint256",
					"name": "timepoint",
					"type": "uint256"
				}
			],
			"name": "getPastTotalSupply",
			"outputs": [
				{
					"internalType": "uint256",
					"name": "",
					"type": "uint256"
				}
			],
			"stateMutability": "view",
			"type": "function"
		},
		{
			"inputs": [
				{
					"internalType": "address",
					"name": "account",
					"type": "address"
				},
				{
					"internalType": "uint256",
					"name": "timepoint",
					"type": "uint256"
				}
			],
			"name": "getPastVotes",
			"outputs": [
				{
					"internalType": "uint256",
					"name": "",
					"type": "uint256"
				}
			],
			"stateMutability": "view",
			"type": "function"
		},
		{
			"inputs": [
				{
					"internalType": "address",
					"name": "account",
					"type": "address"
				}
			],
			"name": "getVotes",
			"outputs": [
				{
					"internalType": "uint256",
					"name": "",
					"type": "uint256"
				}
			],
			"stateMutability": "view",
			"type": "function"
		},
		{
			"inputs": [
				{
					"internalType": "address",
					"name": "to",
					"type": "address"
				},
				{
					"internalType": "uint256",
					"name": "amount",
					"type": "uint256"
				}
			],
			"name": "mint",
			"outputs": [],
			"stateMutability": "nonpayable",
			"type": "function"
		},
		{
			"inputs": [
				{
					"internalType": "address",
					"name": "",
					"type": "address"
				}
			],
			"name": "minters",
			"outputs": [
				{
					"internalType": "bool",
					"name": "",
					"type": "bool"
				}
			],
			"stateMutability": "view",
			"type": "function"
		},
		{
			"inputs": [],
			"name": "name",
			"outputs": [
				{
					"internalType": "string",
					"name": "",
					"type": "string"
				}
			],
			"stateMutability": "view",
			"type": "function"
		},
		{
			"inputs": [
				{
					"internalType": "address",
					"name": "owner",
					"type": "address"
				}
			],
			"name": "nonces",
			"outputs": [
				{
					"internalType": "uint256",
					"name": "",
					"type": "uint256"
				}
			],
			"stateMutability": "view",
			"type": "function"
		},
		{
			"inputs": [
				{
					"internalType": "address",
					"name": "account",
					"type": "address"
				}
			],
			"name": "numCheckpoints",
			"outputs": [
				{
					"internalType": "uint32",
					"name": "",
					"type": "uint32"
				}
			],
			"stateMutability": "view",
			"type": "function"
		},
		{
			"inputs": [],
			"name": "owner",
			"outputs": [
				{
					"internalType": "address",
					"name": "",
					"type": "address"
				}
			],
			"stateMutability": "view",
			"type": "function"
		},
		{
			"inputs": [
				{
					"internalType": "address",
					"name": "minter",
					"type": "address"
				}
			],
			"name": "removeMinter",
			"outputs": [],
			"stateMutability": "nonpayable",
			"type": "function"
		},
		{
			"inputs": [],
			"name": "renounceOwnership",
			"outputs": [],
			"stateMutability": "nonpayable",
			"type": "function"
		},
		{
			"inputs": [],
			"name": "symbol",
			"outputs": [
				{
					"internalType": "string",
					"name": "",
					"type": "string"
				}
			],
			"stateMutability": "view",
			"type": "function"
		},
		{
			"inputs": [],
			"name": "totalSupply",
			"outputs": [
				{
					"internalType": "uint256",
					"name": "",
					"type": "uint256"
				}
			],
			"stateMutability": "view",
			"type": "function"
		},
		{
			"inputs": [
				{
					"internalType": "address",
					"name": "to",
					"type": "address"
				},
				{
					"internalType": "uint256",
					"name": "value",
					"type": "uint256"
				}
			],
			"name": "transfer",
			"outputs": [
				{
					"internalType": "bool",
					"name": "",
					"type": "bool"
				}
			],
			"stateMutability": "nonpayable",
			"type": "function"
		},
		{
			"inputs": [
				{
					"internalType": "address",
					"name": "from",
					"type": "address"
				},
				{
					"internalType": "address",
					"name": "to",
					"type": "address"
				},
				{
					"internalType": "uint256",
					"name": "value",
					"type": "uint256"
				}
			],
			"name": "transferFrom",
			"outputs": [
				{
					"internalType": "bool",
					"name": "",
					"type": "bool"
				}
			],
			"stateMutability": "nonpayable",
			"type": "function"
		},
		{
			"inputs": [
				{
					"internalType": "address",
					"name": "newOwner",
					"type": "address"
				}
			],
			"name": "transferOwnership",
			"outputs": [],
			"stateMutability": "nonpayable",
			"type": "function"
		}
	],
	"storageLayout": {
		"storage": [
			{
				"astId": 984,
				"contract": "SecureGigContracts.sol:DAOToken",
				"label": "_balances",
				"offset": 0,
				"slot": "0",
				"type": "t_mapping(t_address,t_uint256)"
			},
			{
				"astId": 990,
				"contract": "SecureGigContracts.sol:DAOToken",
				"label": "_allowances",
				"offset": 0,
				"slot": "1",
				"type": "t_mapping(t_address,t_mapping(t_address,t_uint256))"
			},
			{
				"astId": 992,
				"contract": "SecureGigContracts.sol:DAOToken",
				"label": "_totalSupply",
				"offset": 0,
				"slot": "2",
				"type": "t_uint256"
			},
			{
				"astId": 994,
				"contract": "SecureGigContracts.sol:DAOToken",
				"label": "_name",
				"offset": 0,
				"slot": "3",
				"type": "t_string_storage"
			},
			{
				"astId": 996,
				"contract": "SecureGigContracts.sol:DAOToken",
				"label": "_symbol",
				"offset": 0,
				"slot": "4",
				"type": "t_string_storage"
			},
			{
				"astId": 4357,
				"contract": "SecureGigContracts.sol:DAOToken",
				"label": "_nameFallback",
				"offset": 0,
				"slot": "5",
				"type": "t_string_storage"
			},
			{
				"astId": 4359,
				"contract": "SecureGigContracts.sol:DAOToken",
				"label": "_versionFallback",
				"offset": 0,
				"slot": "6",
				"type": "t_string_storage"
			},
			{
				"astId": 1946,
				"contract": "SecureGigContracts.sol:DAOToken",
				"label": "_nonces",
				"offset": 0,
				"slot": "7",
				"type": "t_mapping(t_address,t_uint256)"
			},
			{
				"astId": 270,
				"contract": "SecureGigContracts.sol:DAOToken",
				"label": "_delegatee",
				"offset": 0,
				"slot": "8",
				"type": "t_mapping(t_address,t_address)"
			},
			{
				"astId": 275,
				"contract": "SecureGigContracts.sol:DAOToken",
				"label": "_delegateCheckpoints",
				"offset": 0,
				"slot": "9",
				"type": "t_mapping(t_address,t_struct(Trace208)8700_storage)"
			},
			{
				"astId": 278,
				"contract": "SecureGigContracts.sol:DAOToken",
				"label": "_totalCheckpoints",
				"offset": 0,
				"slot": "10",
				"type": "t_struct(Trace208)8700_storage"
			},
			{
				"astId": 8,
				"contract": "SecureGigContracts.sol:DAOToken",
				"label": "_owner",
				"offset": 0,
				"slot": "11",
				"type": "t_address"
			},
			{
				"astId": 10054,
				"contract": "SecureGigContracts.sol:DAOToken",
				"label": "minters",
				"offset": 0,
				"slot": "12",
				"type": "t_mapping(t_address,t_bool)"
			}
		],
		"types": {
			"t_address": {
				"encoding": "inplace",
				"label": "address",
				"numberOfBytes": "20"
			},
			"t_array(t_struct(Checkpoint208)8705_storage)dyn_storage": {
				"base": "t_struct(Checkpoint208)8705_storage",
				"encoding": "dynamic_array",
				"label": "struct Checkpoints.Checkpoint208[]",
				"numberOfBytes": "32"
			},
			"t_bool": {
				"encoding": "inplace",
				"label": "bool",
				"numberOfBytes": "1"
			},
			"t_mapping(t_address,t_address)": {
				"encoding": "mapping",
				"key": "t_address",
				"label": "mapping(address => address)",
				"numberOfBytes": "32",
				"value": "t_address"
			},
			"t_mapping(t_address,t_bool)": {
				"encoding": "mapping",
				"key": "t_address",
				"label": "mapping(address => bool)",
				"numberOfBytes": "32",
				"value": "t_bool"
			},
			"t_mapping(t_address,t_mapping(t_address,t_uint256))": {
				"encoding": "mapping",
				"key": "t_address",
				"label": "mapping(address => mapping(address => uint256))",
				"numberOfBytes": "32",
				"value": "t_mapping(t_address,t_uint256)"
			},
			"t_mapping(t_address,t_struct(Trace208)8700_storage)": {
				"encoding": "mapping",
				"key": "t_address",
				"label": "mapping(address => struct Checkpoints.Trace208)",
				"numberOfBytes": "32",
				"value": "t_struct(Trace208)8700_storage"
			},
			"t_mapping(t_address,t_uint256)": {
				"encoding": "mapping",
				"key": "t_address",
				"label": "mapping(address => uint256)",
				"numberOfBytes": "32",
				"value": "t_uint256"
			},
			"t_string_storage": {
				"encoding": "bytes",
				"label": "string",
				"numberOfBytes": "32"
			},
			"t_struct(Checkpoint208)8705_storage": {
				"encoding": "inplace",
				"label": "struct Checkpoints.Checkpoint208",
				"members": [
					{
						"astId": 8702,
						"contract": "SecureGigContracts.sol:DAOToken",
						"label": "_key",
						"offset": 0,
						"slot": "0",
						"type": "t_uint48"
					},
					{
						"astId": 8704,
						"contract": "SecureGigContracts.sol:DAOToken",
						"label": "_value",
						"offset": 6,
						"slot": "0",
						"type": "t_uint208"
					}
				],
				"numberOfBytes": "32"
			},
			"t_struct(Trace208)8700_storage": {
				"encoding": "inplace",
				"label": "struct Checkpoints.Trace208",
				"members": [
					{
						"astId": 8699,
						"contract": "SecureGigContracts.sol:DAOToken",
						"label": "_checkpoints",
						"offset": 0,
						"slot": "0",
						"type": "t_array(t_struct(Checkpoint208)8705_storage)dyn_storage"
					}
				],
				"numberOfBytes": "32"
			},
			"t_uint208": {
				"encoding": "inplace",
				"label": "uint208",
				"numberOfBytes": "26"
			},
			"t_uint256": {
				"encoding": "inplace",
				"label": "uint256",
				"numberOfBytes": "32"
			},
			"t_uint48": {
				"encoding": "inplace",
				"label": "uint48",
				"numberOfBytes": "6"
			}
		}
	},
	"web3Deploy": "var initialOwner = /* var of type address here */ ;\nvar daotokenContract = new web3.eth.Contract([{\"inputs\":[{\"internalType\":\"address\",\"name\":\"initialOwner\",\"type\":\"address\"}],\"stateMutability\":\"nonpayable\",\"type\":\"constructor\"},{\"inputs\":[],\"name\":\"CheckpointUnorderedInsertion\",\"type\":\"error\"},{\"inputs\":[],\"name\":\"ECDSAInvalidSignature\",\"type\":\"error\"},{\"inputs\":[{\"internalType\":\"uint256\",\"name\":\"length\",\"type\":\"uint256\"}],\"name\":\"ECDSAInvalidSignatureLength\",\"type\":\"error\"},{\"inputs\":[{\"internalType\":\"bytes32\",\"name\":\"s\",\"type\":\"bytes32\"}],\"name\":\"ECDSAInvalidSignatureS\",\"type\":\"error\"},{\"inputs\":[{\"internalType\":\"uint256\",\"name\":\"increasedSupply\",\"type\":\"uint256\"},{\"internalType\":\"uint256\",\"name\":\"cap\",\"type\":\"uint256\"}],\"name\":\"ERC20ExceededSafeSupply\",\"type\":\"error\"},{\"inputs\":[{\"internalType\":\"address\",\"name\":\"spender\",\"type\":\"address\"},{\"internalType\":\"uint256\",\"name\":\"allowance\",\"type\":\"uint256\"},{\"internalType\":\"uint256\",\"name\":\"needed\",\"type\":\"uint256\"}],\"name\":\"ERC20InsufficientAllowance\",\"type\":\"error\"},{\"inputs\":[{\"internalType\":\"address\",\"name\":\"sender\",\"type\":\"address\"},{\"internalType\":\"uint256\",\"name\":\"balance\",\"type\":\"uint256\"},{\"internalType\":\"uint256\",\"name\":\"needed\",\"type\":\"uint256\"}],\"name\":\"ERC20InsufficientBalance\",\"type\":\"error\"},{\"inputs\":[{\"internalType\":\"address\",\"name\":\"approver\",\"type\":\"address\"}],\"name\":\"ERC20InvalidApprover\",\"type\":\"error\"},{\"inputs\":[{\"internalType\":\"address\",\"name\":\"receiver\",\"type\":\"address\"}],\"name\":\"ERC20InvalidReceiver\",\"type\":\"error\"},{\"inputs\":[{\"internalType\":\"address\",\"name\":\"sender\",\"type\":\"address\"}],\"name\":\"ERC20InvalidSender\",\"type\":\"error\"},{\"inputs\":[{\"internalType\":\"address\",\"name\":\"spender\",\"type\":\"address\"}],\"name\":\"ERC20InvalidSpender\",\"type\":\"error\"},{\"inputs\":[{\"internalType\":\"uint256\",\"name\":\"timepoint\",\"type\":\"uint256\"},{\"internalType\":\"uint48\",\"name\":\"clock\",\"type\":\"uint48\"}],\"name\":\"ERC5805FutureLookup\",\"type\":\"error\"},{\"inputs\":[],\"name\":\"ERC6372InconsistentClock\",\"type\":\"error\"},{\"inputs\":[{\"internalType\":\"address\",\"name\":\"account\",\"type\":\"address\"},{\"internalType\":\"uint256\",\"name\":\"currentNonce\",\"type\":\"uint256\"}],\"name\":\"InvalidAccountNonce\",\"type\":\"error\"},{\"inputs\":[],\"name\":\"InvalidShortString\",\"type\":\"error\"},{\"inputs\":[{\"internalType\":\"address\",\"name\":\"owner\",\"type\":\"address\"}],\"name\":\"OwnableInvalidOwner\",\"type\":\"error\"},{\"inputs\":[{\"internalType\":\"address\",\"name\":\"account\",\"type\":\"address\"}],\"name\":\"OwnableUnauthorizedAccount\",\"type\":\"error\"},{\"inputs\":[{\"internalType\":\"uint8\",\"name\":\"bits\",\"type\":\"uint8\"},{\"internalType\":\"uint256\",\"name\":\"value\",\"type\":\"uint256\"}],\"name\":\"SafeCastOverflowedUintDowncast\",\"type\":\"error\"},{\"inputs\":[{\"internalType\":\"string\",\"name\":\"str\",\"type\":\"string\"}],\"name\":\"StringTooLong\",\"type\":\"error\"},{\"inputs\":[{\"internalType\":\"uint256\",\"name\":\"expiry\",\"type\":\"uint256\"}],\"name\":\"VotesExpiredSignature\",\"type\":\"error\"},{\"anonymous\":false,\"inputs\":[{\"indexed\":true,\"internalType\":\"address\",\"name\":\"owner\",\"type\":\"address\"},{\"indexed\":true,\"internalType\":\"address\",\"name\":\"spender\",\"type\":\"address\"},{\"indexed\":false,\"internalType\":\"uint256\",\"name\":\"value\",\"type\":\"uint256\"}],\"name\":\"Approval\",\"type\":\"event\"},{\"anonymous\":false,\"inputs\":[{\"indexed\":true,\"internalType\":\"address\",\"name\":\"delegator\",\"type\":\"address\"},{\"indexed\":true,\"internalType\":\"address\",\"name\":\"fromDelegate\",\"type\":\"address\"},{\"indexed\":true,\"internalType\":\"address\",\"name\":\"toDelegate\",\"type\":\"address\"}],\"name\":\"DelegateChanged\",\"type\":\"event\"},{\"anonymous\":false,\"inputs\":[{\"indexed\":true,\"internalType\":\"address\",\"name\":\"delegate\",\"type\":\"address\"},{\"indexed\":false,\"internalType\":\"uint256\",\"name\":\"previousVotes\",\"type\":\"uint256\"},{\"indexed\":false,\"internalType\":\"uint256\",\"name\":\"newVotes\",\"type\":\"uint256\"}],\"name\":\"DelegateVotesChanged\",\"type\":\"event\"},{\"anonymous\":false,\"inputs\":[],\"name\":\"EIP712DomainChanged\",\"type\":\"event\"},{\"anonymous\":false,\"inputs\":[{\"indexed\":true,\"internalType\":\"address\",\"name\":\"minter\",\"type\":\"address\"}],\"name\":\"MinterAdded\",\"type\":\"event\"},{\"anonymous\":false,\"inputs\":[{\"indexed\":true,\"internalType\":\"address\",\"name\":\"minter\",\"type\":\"address\"}],\"name\":\"MinterRemoved\",\"type\":\"event\"},{\"anonymous\":false,\"inputs\":[{\"indexed\":true,\"internalType\":\"address\",\"name\":\"previousOwner\",\"type\":\"address\"},{\"indexed\":true,\"internalType\":\"address\",\"name\":\"newOwner\",\"type\":\"address\"}],\"name\":\"OwnershipTransferred\",\"type\":\"event\"},{\"anonymous\":false,\"inputs\":[{\"indexed\":true,\"internalType\":\"address\",\"name\":\"from\",\"type\":\"address\"},{\"indexed\":true,\"internalType\":\"address\",\"name\":\"to\",\"type\":\"address\"},{\"indexed\":false,\"internalType\":\"uint256\",\"name\":\"value\",\"type\":\"uint256\"}],\"name\":\"Transfer\",\"type\":\"event\"},{\"inputs\":[],\"name\":\"CLOCK_MODE\",\"outputs\":[{\"internalType\":\"string\",\"name\":\"\",\"type\":\"string\"}],\"stateMutability\":\"view\",\"type\":\"function\"},{\"inputs\":[],\"name\":\"INITIAL_SUPPLY\",\"outputs\":[{\"internalType\":\"uint256\",\"name\":\"\",\"type\":\"uint256\"}],\"stateMutability\":\"view\",\"type\":\"function\"},{\"inputs\":[],\"name\":\"MAX_SUPPLY\",\"outputs\":[{\"internalType\":\"uint256\",\"name\":\"\",\"type\":\"uint256\"}],\"stateMutability\":\"view\",\"type\":\"function\"},{\"inputs\":[{\"internalType\":\"address\",\"name\":\"minter\",\"type\":\"address\"}],\"name\":\"addMinter\",\"outputs\":[],\"stateMutability\":\"nonpayable\",\"type\":\"function\"},{\"inputs\":[{\"internalType\":\"address\",\"name\":\"owner\",\"type\":\"address\"},{\"internalType\":\"address\",\"name\":\"spender\",\"type\":\"address\"}],\"name\":\"allowance\",\"outputs\":[{\"internalType\":\"uint256\",\"name\":\"\",\"type\":\"uint256\"}],\"stateMutability\":\"view\",\"type\":\"function\"},{\"inputs\":[{\"internalType\":\"address\",\"name\":\"spender\",\"type\":\"address\"},{\"internalType\":\"uint256\",\"name\":\"value\",\"type\":\"uint256\"}],\"name\":\"approve\",\"outputs\":[{\"internalType\":\"bool\",\"name\":\"\",\"type\":\"bool\"}],\"stateMutability\":\"nonpayable\",\"type\":\"function\"},{\"inputs\":[{\"internalType\":\"address\",\"name\":\"account\",\"type\":\"address\"}],\"name\":\"balanceOf\",\"outputs\":[{\"internalType\":\"uint256\",\"name\":\"\",\"type\":\"uint256\"}],\"stateMutability\":\"view\",\"type\":\"function\"},{\"inputs\":[{\"internalType\":\"address[]\",\"name\":\"recipients\",\"type\":\"address[]\"},{\"internalType\":\"uint256[]\",\"name\":\"amounts\",\"type\":\"uint256[]\"}],\"name\":\"batchMint\",\"outputs\":[],\"stateMutability\":\"nonpayable\",\"type\":\"function\"},{\"inputs\":[{\"internalType\":\"address\",\"name\":\"account\",\"type\":\"address\"},{\"internalType\":\"uint32\",\"name\":\"pos\",\"type\":\"uint32\"}],\"name\":\"checkpoints\",\"outputs\":[{\"components\":[{\"internalType\":\"uint48\",\"name\":\"_key\",\"type\":\"uint48\"},{\"internalType\":\"uint208\",\"name\":\"_value\",\"type\":\"uint208\"}],\"internalType\":\"struct Checkpoints.Checkpoint208\",\"name\":\"\",\"type\":\"tuple\"}],\"stateMutability\":\"view\",\"type\":\"function\"},{\"inputs\":[],\"name\":\"clock\",\"outputs\":[{\"internalType\":\"uint48\",\"name\":\"\",\"type\":\"uint48\"}],\"stateMutability\":\"view\",\"type\":\"function\"},{\"inputs\":[],\"name\":\"decimals\",\"outputs\":[{\"internalType\":\"uint8\",\"name\":\"\",\"type\":\"uint8\"}],\"stateMutability\":\"view\",\"type\":\"function\"},{\"inputs\":[{\"internalType\":\"address\",\"name\":\"delegatee\",\"type\":\"address\"}],\"name\":\"delegate\",\"outputs\":[],\"stateMutability\":\"nonpayable\",\"type\":\"function\"},{\"inputs\":[{\"internalType\":\"address\",\"name\":\"delegatee\",\"type\":\"address\"},{\"internalType\":\"uint256\",\"name\":\"nonce\",\"type\":\"uint256\"},{\"internalType\":\"uint256\",\"name\":\"expiry\",\"type\":\"uint256\"},{\"internalType\":\"uint8\",\"name\":\"v\",\"type\":\"uint8\"},{\"internalType\":\"bytes32\",\"name\":\"r\",\"type\":\"bytes32\"},{\"internalType\":\"bytes32\",\"name\":\"s\",\"type\":\"bytes32\"}],\"name\":\"delegateBySig\",\"outputs\":[],\"stateMutability\":\"nonpayable\",\"type\":\"function\"},{\"inputs\":[{\"internalType\":\"address\",\"name\":\"account\",\"type\":\"address\"}],\"name\":\"delegates\",\"outputs\":[{\"internalType\":\"address\",\"name\":\"\",\"type\":\"address\"}],\"stateMutability\":\"view\",\"type\":\"function\"},{\"inputs\":[],\"name\":\"eip712Domain\",\"outputs\":[{\"internalType\":\"bytes1\",\"name\":\"fields\",\"type\":\"bytes1\"},{\"internalType\":\"string\",\"name\":\"name\",\"type\":\"string\"},{\"internalType\":\"string\",\"name\":\"version\",\"type\":\"string\"},{\"internalType\":\"uint256\",\"name\":\"chainId\",\"type\":\"uint256\"},{\"internalType\":\"address\",\"name\":\"verifyingContract\",\"type\":\"address\"},{\"internalType\":\"bytes32\",\"name\":\"salt\",\"type\":\"bytes32\"},{\"internalType\":\"uint256[]\",\"name\":\"extensions\",\"type\":\"uint256[]\"}],\"stateMutability\":\"view\",\"type\":\"function\"},{\"inputs\":[{\"internalType\":\"uint256\",\"name\":\"timepoint\",\"type\":\"uint256\"}],\"name\":\"getPastTotalSupply\",\"outputs\":[{\"internalType\":\"uint256\",\"name\":\"\",\"type\":\"uint256\"}],\"stateMutability\":\"view\",\"type\":\"function\"},{\"inputs\":[{\"internalType\":\"address\",\"name\":\"account\",\"type\":\"address\"},{\"internalType\":\"uint256\",\"name\":\"timepoint\",\"type\":\"uint256\"}],\"name\":\"getPastVotes\",\"outputs\":[{\"internalType\":\"uint256\",\"name\":\"\",\"type\":\"uint256\"}],\"stateMutability\":\"view\",\"type\":\"function\"},{\"inputs\":[{\"internalType\":\"address\",\"name\":\"account\",\"type\":\"address\"}],\"name\":\"getVotes\",\"outputs\":[{\"internalType\":\"uint256\",\"name\":\"\",\"type\":\"uint256\"}],\"stateMutability\":\"view\",\"type\":\"function\"},{\"inputs\":[{\"internalType\":\"address\",\"name\":\"to\",\"type\":\"address\"},{\"internalType\":\"uint256\",\"name\":\"amount\",\"type\":\"uint256\"}],\"name\":\"mint\",\"outputs\":[],\"stateMutability\":\"nonpayable\",\"type\":\"function\"},{\"inputs\":[{\"internalType\":\"address\",\"name\":\"\",\"type\":\"address\"}],\"name\":\"minters\",\"outputs\":[{\"internalType\":\"bool\",\"name\":\"\",\"type\":\"bool\"}],\"stateMutability\":\"view\",\"type\":\"function\"},{\"inputs\":[],\"name\":\"name\",\"outputs\":[{\"internalType\":\"string\",\"name\":\"\",\"type\":\"string\"}],\"stateMutability\":\"view\",\"type\":\"function\"},{\"inputs\":[{\"internalType\":\"address\",\"name\":\"owner\",\"type\":\"address\"}],\"name\":\"nonces\",\"outputs\":[{\"internalType\":\"uint256\",\"name\":\"\",\"type\":\"uint256\"}],\"stateMutability\":\"view\",\"type\":\"function\"},{\"inputs\":[{\"internalType\":\"address\",\"name\":\"account\",\"type\":\"address\"}],\"name\":\"numCheckpoints\",\"outputs\":[{\"internalType\":\"uint32\",\"name\":\"\",\"type\":\"uint32\"}],\"stateMutability\":\"view\",\"type\":\"function\"},{\"inputs\":[],\"name\":\"owner\",\"outputs\":[{\"internalType\":\"address\",\"name\":\"\",\"type\":\"address\"}],\"stateMutability\":\"view\",\"type\":\"function\"},{\"inputs\":[{\"internalType\":\"address\",\"name\":\"minter\",\"type\":\"address\"}],\"name\":\"removeMinter\",\"outputs\":[],\"stateMutability\":\"nonpayable\",\"type\":\"function\"},{\"inputs\":[],\"name\":\"renounceOwnership\",\"outputs\":[],\"stateMutability\":\"nonpayable\",\"type\":\"function\"},{\"inputs\":[],\"name\":\"symbol\",\"outputs\":[{\"internalType\":\"string\",\"name\":\"\",\"type\":\"string\"}],\"stateMutability\":\"view\",\"type\":\"function\"},{\"inputs\":[],\"name\":\"totalSupply\",\"outputs\":[{\"internalType\":\"uint256\",\"name\":\"\",\"type\":\"uint256\"}],\"stateMutability\":\"view\",\"type\":\"function\"},{\"inputs\":[{\"internalType\":\"address\",\"name\":\"to\",\"type\":\"address\"},{\"internalType\":\"uint256\",\"name\":\"value\",\"type\":\"uint256\"}],\"name\":\"transfer\",\"outputs\":[{\"internalType\":\"bool\",\"name\":\"\",\"type\":\"bool\"}],\"stateMutability\":\"nonpayable\",\"type\":\"function\"},{\"inputs\":[{\"internalType\":\"address\",\"name\":\"from\",\"type\":\"address\"},{\"internalType\":\"address\",\"name\":\"to\",\"type\":\"address\"},{\"internalType\":\"uint256\",\"name\":\"value\",\"type\":\"uint256\"}],\"name\":\"transferFrom\",\"outputs\":[{\"internalType\":\"bool\",\"name\":\"\",\"type\":\"bool\"}],\"stateMutability\":\"nonpayable\",\"type\":\"function\"},{\"inputs\":[{\"internalType\":\"address\",\"name\":\"newOwner\",\"type\":\"address\"}],\"name\":\"transferOwnership\",\"outputs\":[],\"stateMutability\":\"nonpayable\",\"type\":\"function\"}]);\nvar daotoken = daotokenContract.deploy({\n     data: '0x610160604052348015610010575f5ffd5b5060405161582038038061582083398181016040528101906100329190611189565b806040518060400160405280601381526020017f5365637572654769672044414f20546f6b656e000000000000000000000000008152506040518060400160405280600181526020017f31000000000000000000000000000000000000000000000000000000000000008152506040518060400160405280601381526020017f5365637572654769672044414f20546f6b656e000000000000000000000000008152506040518060400160405280600481526020017f5347445400000000000000000000000000000000000000000000000000000000815250816003908161011a91906113f1565b50806004908161012a91906113f1565b5050506101416005836102cc60201b90919060201c565b610120818152505061015d6006826102cc60201b90919060201c565b6101408181525050818051906020012060e08181525050808051906020012061010081815250504660a0818152505061019a61031960201b60201c565b608081815250503073ffffffffffffffffffffffffffffffffffffffff1660c08173ffffffffffffffffffffffffffffffffffffffff168152505050505f73ffffffffffffffffffffffffffffffffffffffff168173ffffffffffffffffffffffffffffffffffffffff1603610247575f6040517f1e4fbdf700000000000000000000000000000000000000000000000000000000815260040161023e91906114cf565b60405180910390fd5b6102568161037360201b60201c565b506102718169d3c21bcecceda100000061043660201b60201c565b6001600c5f8373ffffffffffffffffffffffffffffffffffffffff1673ffffffffffffffffffffffffffffffffffffffff1681526020019081526020015f205f6101000a81548160ff0219169083151502179055505061190c565b5f6020835110156102ed576102e6836104bb60201b60201c565b9050610313565b826102fd8361052060201b60201c565b5f01908161030b91906113f1565b5060ff5f1b90505b92915050565b5f7f8b73c3c69bb8fe3d512ecc4cf759cc79239f7b179b0ffacaa9a75d522b39400f60e05161010051463060405160200161035895949392919061150f565b60405160208183030381529060405280519060200120905090565b5f600b5f9054906101000a900473ffffffffffffffffffffffffffffffffffffffff16905081600b5f6101000a81548173ffffffffffffffffffffffffffffffffffffffff021916908373ffffffffffffffffffffffffffffffffffffffff1602179055508173ffffffffffffffffffffffffffffffffffffffff168173ffffffffffffffffffffffffffffffffffffffff167f8be0079c531659141344cd1fd0a4f28419497f9722a3daafe3b4186f6b6457e060405160405180910390a35050565b5f73ffffffffffffffffffffffffffffffffffffffff168273ffffffffffffffffffffffffffffffffffffffff16036104a6575f6040517fec442f0500000000000000000000000000000000000000000000000000000000815260040161049d91906114cf565b60405180910390fd5b6104b75f838361052960201b60201c565b5050565b5f5f829050601f8151111561050757826040517f305a27a90000000000000000000000000000000000000000000000000000000081526004016104fe91906115c6565b60405180910390fd5b80518161051390611613565b5f1c175f1b915050919050565b5f819050919050565b61053a83838361053f60201b60201c565b505050565b61055083838361060560201b60201c565b5f73ffffffffffffffffffffffffffffffffffffffff168373ffffffffffffffffffffffffffffffffffffffff16036105ef575f61059261081e60201b60201c565b90505f6105a361082760201b60201c565b9050808211156105ec5781816040517f1cb15d260000000000000000000000000000000000000000000000000000000081526004016105e3929190611679565b60405180910390fd5b50505b61060083838361084a60201b60201c565b505050565b5f73ffffffffffffffffffffffffffffffffffffffff168373ffffffffffffffffffffffffffffffffffffffff1603610655578060025f82825461064991906116cd565b92505081905550610723565b5f5f5f8573ffffffffffffffffffffffffffffffffffffffff1673ffffffffffffffffffffffffffffffffffffffff1681526020019081526020015f20549050818110156106de578381836040517fe450d38c0000000000000000000000000000000000000000000000000000000081526004016106d593929190611700565b60405180910390fd5b8181035f5f8673ffffffffffffffffffffffffffffffffffffffff1673ffffffffffffffffffffffffffffffffffffffff1681526020019081526020015f2081905550505b5f73ffffffffffffffffffffffffffffffffffffffff168273ffffffffffffffffffffffffffffffffffffffff160361076a578060025f82825403925050819055506107b4565b805f5f8473ffffffffffffffffffffffffffffffffffffffff1673ffffffffffffffffffffffffffffffffffffffff1681526020019081526020015f205f82825401925050819055505b8173ffffffffffffffffffffffffffffffffffffffff168373ffffffffffffffffffffffffffffffffffffffff167fddf252ad1be2c89b69c2b068fc378daa952ba7f163c4a11628f55a4df523b3ef836040516108119190611735565b60405180910390a3505050565b5f600254905090565b5f79ffffffffffffffffffffffffffffffffffffffffffffffffffff8016905090565b5f73ffffffffffffffffffffffffffffffffffffffff168373ffffffffffffffffffffffffffffffffffffffff16036108a9576108a6600a61093a60201b6112441761089b8461094f60201b60201c565b6109bc60201b60201c565b50505b5f73ffffffffffffffffffffffffffffffffffffffff168273ffffffffffffffffffffffffffffffffffffffff160361090857610905600a610a0460201b611259176108fa8461094f60201b60201c565b6109bc60201b60201c565b50505b61093561091a84610a1960201b60201c565b61092984610a1960201b60201c565b83610a7e60201b60201c565b505050565b5f81836109479190611773565b905092915050565b5f79ffffffffffffffffffffffffffffffffffffffffffffffffffff80168211156109b45760d0826040517f6dfcc6500000000000000000000000000000000000000000000000000000000081526004016109ab929190611805565b60405180910390fd5b819050919050565b5f5f6109f86109cf610d1460201b60201c565b6109e86109e188610d2860201b60201c565b868860201c565b87610d9060201b9092919060201c565b91509150935093915050565b5f8183610a11919061182c565b905092915050565b5f60085f8373ffffffffffffffffffffffffffffffffffffffff1673ffffffffffffffffffffffffffffffffffffffff1681526020019081526020015f205f9054906101000a900473ffffffffffffffffffffffffffffffffffffffff169050919050565b8173ffffffffffffffffffffffffffffffffffffffff168373ffffffffffffffffffffffffffffffffffffffff1614158015610ab957505f81115b15610d0f575f73ffffffffffffffffffffffffffffffffffffffff168373ffffffffffffffffffffffffffffffffffffffff1614610be6575f5f610b5760095f8773ffffffffffffffffffffffffffffffffffffffff1673ffffffffffffffffffffffffffffffffffffffff1681526020019081526020015f20610a0460201b61125917610b4c8661094f60201b60201c565b6109bc60201b60201c565b79ffffffffffffffffffffffffffffffffffffffffffffffffffff16915079ffffffffffffffffffffffffffffffffffffffffffffffffffff1691508473ffffffffffffffffffffffffffffffffffffffff167fdec2bacdd2f05b59de34da9b523dff8be42e5e38e818c82fdb0bae774387a7248383604051610bdb929190611679565b60405180910390a250505b5f73ffffffffffffffffffffffffffffffffffffffff168273ffffffffffffffffffffffffffffffffffffffff1614610d0e575f5f610c7f60095f8673ffffffffffffffffffffffffffffffffffffffff1673ffffffffffffffffffffffffffffffffffffffff1681526020019081526020015f2061093a60201b61124417610c748661094f60201b60201c565b6109bc60201b60201c565b79ffffffffffffffffffffffffffffffffffffffffffffffffffff16915079ffffffffffffffffffffffffffffffffffffffffffffffffffff1691508373ffffffffffffffffffffffffffffffffffffffff167fdec2bacdd2f05b59de34da9b523dff8be42e5e38e818c82fdb0bae774387a7248383604051610d03929190611679565b60405180910390a250505b5b505050565b5f610d23610db160201b60201c565b905090565b5f5f825f018054905090505f8114610d8657610d58835f01600183610d4d9190611879565b610dc660201b60201c565b5f0160069054906101000a900479ffffffffffffffffffffffffffffffffffffffffffffffffffff16610d88565b5f5b915050919050565b5f5f610da5855f018585610dd860201b60201c565b91509150935093915050565b5f610dc1436110d260201b60201c565b905090565b5f825f528160205f2001905092915050565b5f5f5f858054905090505f811115610fea575f610e0787600184610dfc9190611879565b610dc660201b60201c565b90505f815f015f9054906101000a900465ffffffffffff1690505f825f0160069054906101000a900479ffffffffffffffffffffffffffffffffffffffffffffffffffff1690508765ffffffffffff168265ffffffffffff161115610e98576040517f2520601d00000000000000000000000000000000000000000000000000000000815260040160405180910390fd5b8765ffffffffffff168265ffffffffffff1603610f025786835f0160066101000a81548179ffffffffffffffffffffffffffffffffffffffffffffffffffff021916908379ffffffffffffffffffffffffffffffffffffffffffffffffffff160217905550610fdb565b8860405180604001604052808a65ffffffffffff1681526020018979ffffffffffffffffffffffffffffffffffffffffffffffffffff16815250908060018154018082558091505060019003905f5260205f20015f909190919091505f820151815f015f6101000a81548165ffffffffffff021916908365ffffffffffff1602179055506020820151815f0160066101000a81548179ffffffffffffffffffffffffffffffffffffffffffffffffffff021916908379ffffffffffffffffffffffffffffffffffffffffffffffffffff16021790555050505b808795509550505050506110ca565b8560405180604001604052808765ffffffffffff1681526020018679ffffffffffffffffffffffffffffffffffffffffffffffffffff16815250908060018154018082558091505060019003905f5260205f20015f909190919091505f820151815f015f6101000a81548165ffffffffffff021916908365ffffffffffff1602179055506020820151815f0160066101000a81548179ffffffffffffffffffffffffffffffffffffffffffffffffffff021916908379ffffffffffffffffffffffffffffffffffffffffffffffffffff16021790555050505f8492509250505b935093915050565b5f65ffffffffffff8016821115611123576030826040517f6dfcc65000000000000000000000000000000000000000000000000000000000815260040161111a9291906118e5565b60405180910390fd5b819050919050565b5f5ffd5b5f73ffffffffffffffffffffffffffffffffffffffff82169050919050565b5f6111588261112f565b9050919050565b6111688161114e565b8114611172575f5ffd5b50565b5f815190506111838161115f565b92915050565b5f6020828403121561119e5761119d61112b565b5b5f6111ab84828501611175565b91505092915050565b5f81519050919050565b7f4e487b71000000000000000000000000000000000000000000000000000000005f52604160045260245ffd5b7f4e487b71000000000000000000000000000000000000000000000000000000005f52602260045260245ffd5b5f600282049050600182168061122f57607f821691505b602082108103611242576112416111eb565b5b50919050565b5f819050815f5260205f209050919050565b5f6020601f8301049050919050565b5f82821b905092915050565b5f600883026112a47fffffffffffffffffffffffffffffffffffffffffffffffffffffffffffffffff82611269565b6112ae8683611269565b95508019841693508086168417925050509392505050565b5f819050919050565b5f819050919050565b5f6112f26112ed6112e8846112c6565b6112cf565b6112c6565b9050919050565b5f819050919050565b61130b836112d8565b61131f611317826112f9565b848454611275565b825550505050565b5f5f905090565b611336611327565b611341818484611302565b505050565b5b81811015611364576113595f8261132e565b600181019050611347565b5050565b601f8211156113a95761137a81611248565b6113838461125a565b81016020851015611392578190505b6113a661139e8561125a565b830182611346565b50505b505050565b5f82821c905092915050565b5f6113c95f19846008026113ae565b1980831691505092915050565b5f6113e183836113ba565b9150826002028217905092915050565b6113fa826111b4565b67ffffffffffffffff811115611413576114126111be565b5b61141d8254611218565b611428828285611368565b5f60209050601f831160018114611459575f8415611447578287015190505b61145185826113d6565b8655506114b8565b601f19841661146786611248565b5f5b8281101561148e57848901518255600182019150602085019450602081019050611469565b868310156114ab57848901516114a7601f8916826113ba565b8355505b6001600288020188555050505b505050505050565b6114c98161114e565b82525050565b5f6020820190506114e25f8301846114c0565b92915050565b5f819050919050565b6114fa816114e8565b82525050565b611509816112c6565b82525050565b5f60a0820190506115225f8301886114f1565b61152f60208301876114f1565b61153c60408301866114f1565b6115496060830185611500565b61155660808301846114c0565b9695505050505050565b5f82825260208201905092915050565b8281835e5f83830152505050565b5f601f19601f8301169050919050565b5f611598826111b4565b6115a28185611560565b93506115b2818560208601611570565b6115bb8161157e565b840191505092915050565b5f6020820190508181035f8301526115de818461158e565b905092915050565b5f81519050919050565b5f819050602082019050919050565b5f61160a82516114e8565b80915050919050565b5f61161d826115e6565b82611627846115f0565b9050611632816115ff565b925060208210156116725761166d7fffffffffffffffffffffffffffffffffffffffffffffffffffffffffffffffff83602003600802611269565b831692505b5050919050565b5f60408201905061168c5f830185611500565b6116996020830184611500565b9392505050565b7f4e487b71000000000000000000000000000000000000000000000000000000005f52601160045260245ffd5b5f6116d7826112c6565b91506116e2836112c6565b92508282019050808211156116fa576116f96116a0565b5b92915050565b5f6060820190506117135f8301866114c0565b6117206020830185611500565b61172d6040830184611500565b949350505050565b5f6020820190506117485f830184611500565b92915050565b5f79ffffffffffffffffffffffffffffffffffffffffffffffffffff82169050919050565b5f61177d8261174e565b91506117888361174e565b9250828201905079ffffffffffffffffffffffffffffffffffffffffffffffffffff8111156117ba576117b96116a0565b5b92915050565b5f819050919050565b5f60ff82169050919050565b5f6117ef6117ea6117e5846117c0565b6112cf565b6117c9565b9050919050565b6117ff816117d5565b82525050565b5f6040820190506118185f8301856117f6565b6118256020830184611500565b9392505050565b5f6118368261174e565b91506118418361174e565b9250828203905079ffffffffffffffffffffffffffffffffffffffffffffffffffff811115611873576118726116a0565b5b92915050565b5f611883826112c6565b915061188e836112c6565b92508282039050818111156118a6576118a56116a0565b5b92915050565b5f819050919050565b5f6118cf6118ca6118c5846118ac565b6112cf565b6117c9565b9050919050565b6118df816118b5565b82525050565b5f6040820190506118f85f8301856118d6565b6119056020830184611500565b9392505050565b60805160a05160c05160e051610100516101205161014051613ec361195d5f395f61192c01525f6118f101525f61294c01525f61292b01525f6122ad01525f61230301525f61232c0152613ec35ff3fe608060405234801561000f575f5ffd5b50600436106101e3575f3560e01c806370a082311161010d578063983b2d56116100a0578063dd62ed3e1161006f578063dd62ed3e146105ab578063f1127ed8146105db578063f2fde38b1461060b578063f46eccc414610627576101e3565b8063983b2d56146105135780639ab24eb01461052f578063a9059cbb1461055f578063c3cda5201461058f576101e3565b80638da5cb5b116100dc5780638da5cb5b146104895780638e539e8c146104a757806391ddadf4146104d757806395d89b41146104f5576101e3565b806370a08231146103fb578063715018a61461042b5780637ecebe001461043557806384b0196e14610465576101e3565b806332cb6b0c11610185578063587cde1e11610154578063587cde1e146103635780635c19a95c1461039357806368573107146103af5780636fcfff45146103cb576101e3565b806332cb6b0c146102db5780633a46b1a8146102f957806340c10f19146103295780634bf5d7e914610345576101e3565b806323b872dd116101c157806323b872dd146102535780632ff2e9dc146102835780633092afd5146102a1578063313ce567146102bd576101e3565b806306fdde03146101e7578063095ea7b31461020557806318160ddd14610235575b5f5ffd5b6101ef610657565b6040516101fc9190613099565b60405180910390f35b61021f600480360381019061021a919061314e565b6106e7565b60405161022c91906131a6565b60405180910390f35b61023d610709565b60405161024a91906131ce565b60405180910390f35b61026d600480360381019061026891906131e7565b610712565b60405161027a91906131a6565b60405180910390f35b61028b610740565b60405161029891906131ce565b60405180910390f35b6102bb60048036038101906102b69190613237565b61074e565b005b6102c56107f0565b6040516102d2919061327d565b60405180910390f35b6102e36107f8565b6040516102f091906131ce565b60405180910390f35b610313600480360381019061030e919061314e565b610807565b60405161032091906131ce565b60405180910390f35b610343600480360381019061033e919061314e565b610883565b005b61034d6109b7565b60405161035a9190613099565b60405180910390f35b61037d60048036038101906103789190613237565b610a4b565b60405161038a91906132a5565b60405180910390f35b6103ad60048036038101906103a89190613237565b610ab0565b005b6103c960048036038101906103c49190613374565b610ac9565b005b6103e560048036038101906103e09190613237565b610cef565b6040516103f29190613410565b60405180910390f35b61041560048036038101906104109190613237565b610d00565b60405161042291906131ce565b60405180910390f35b610433610d45565b005b61044f600480360381019061044a9190613237565b610d58565b60405161045c91906131ce565b60405180910390f35b61046d610d69565b6040516104809796959493929190613532565b60405180910390f35b610491610e0e565b60405161049e91906132a5565b60405180910390f35b6104c160048036038101906104bc91906135b4565b610e36565b6040516104ce91906131ce565b60405180910390f35b6104df610e76565b6040516104ec91906135ff565b60405180910390f35b6104fd610e84565b60405161050a9190613099565b60405180910390f35b61052d60048036038101906105289190613237565b610f14565b005b61054960048036038101906105449190613237565b610fb7565b60405161055691906131ce565b60405180910390f35b6105796004803603810190610574919061314e565b611020565b60405161058691906131a6565b60405180910390f35b6105a960048036038101906105a4919061366c565b611042565b005b6105c560048036038101906105c091906136f5565b611107565b6040516105d291906131ce565b60405180910390f35b6105f560048036038101906105f0919061375d565b611189565b604051610602919061380b565b60405180910390f35b61062560048036038101906106209190613237565b6111a3565b005b610641600480360381019061063c9190613237565b611227565b60405161064e91906131a6565b60405180910390f35b60606003805461066690613851565b80601f016020809104026020016040519081016040528092919081815260200182805461069290613851565b80156106dd5780601f106106b4576101008083540402835291602001916106dd565b820191905f5260205f20905b8154815290600101906020018083116106c057829003601f168201915b5050505050905090565b5f5f6106f161126e565b90506106fe818585611275565b600191505092915050565b5f600254905090565b5f5f61071c61126e565b9050610729858285611287565b61073485858561131a565b60019150509392505050565b69d3c21bcecceda100000081565b61075661140a565b5f600c5f8373ffffffffffffffffffffffffffffffffffffffff1673ffffffffffffffffffffffffffffffffffffffff1681526020019081526020015f205f6101000a81548160ff0219169083151502179055508073ffffffffffffffffffffffffffffffffffffffff167fe94479a9f7e1952cc78f2d6baab678adc1b772d936c6583def489e524cb6669260405160405180910390a250565b5f6012905090565b6a084595161401484a00000081565b5f61085f61081483611491565b60095f8673ffffffffffffffffffffffffffffffffffffffff1673ffffffffffffffffffffffffffffffffffffffff1681526020019081526020015f206114fc90919063ffffffff16565b79ffffffffffffffffffffffffffffffffffffffffffffffffffff16905092915050565b600c5f3373ffffffffffffffffffffffffffffffffffffffff1673ffffffffffffffffffffffffffffffffffffffff1681526020019081526020015f205f9054906101000a900460ff168061090a57506108db610e0e565b73ffffffffffffffffffffffffffffffffffffffff163373ffffffffffffffffffffffffffffffffffffffff16145b610949576040517f08c379a0000000000000000000000000000000000000000000000000000000008152600401610940906138cb565b60405180910390fd5b6a084595161401484a0000008161095e610709565b6109689190613916565b11156109a9576040517f08c379a00000000000000000000000000000000000000000000000000000000081526004016109a090613993565b60405180910390fd5b6109b382826115ec565b5050565b60606109c161166b565b65ffffffffffff166109d1610e76565b65ffffffffffff1614610a10576040517f6ff0714000000000000000000000000000000000000000000000000000000000815260040160405180910390fd5b6040518060400160405280601d81526020017f6d6f64653d626c6f636b6e756d6265722666726f6d3d64656661756c74000000815250905090565b5f60085f8373ffffffffffffffffffffffffffffffffffffffff1673ffffffffffffffffffffffffffffffffffffffff1681526020019081526020015f205f9054906101000a900473ffffffffffffffffffffffffffffffffffffffff169050919050565b5f610ab961126e565b9050610ac5818361167a565b5050565b600c5f3373ffffffffffffffffffffffffffffffffffffffff1673ffffffffffffffffffffffffffffffffffffffff1681526020019081526020015f205f9054906101000a900460ff1680610b505750610b21610e0e565b73ffffffffffffffffffffffffffffffffffffffff163373ffffffffffffffffffffffffffffffffffffffff16145b610b8f576040517f08c379a0000000000000000000000000000000000000000000000000000000008152600401610b86906138cb565b60405180910390fd5b818190508484905014610bd7576040517f08c379a0000000000000000000000000000000000000000000000000000000008152600401610bce906139fb565b60405180910390fd5b5f5f90505f5f90505b83839050811015610c1f57838382818110610bfe57610bfd613a19565b5b9050602002013582610c109190613916565b91508080600101915050610be0565b506a084595161401484a00000081610c35610709565b610c3f9190613916565b1115610c80576040517f08c379a0000000000000000000000000000000000000000000000000000000008152600401610c7790613993565b60405180910390fd5b5f5f90505b85859050811015610ce757610cda868683818110610ca657610ca5613a19565b5b9050602002016020810190610cbb9190613237565b858584818110610cce57610ccd613a19565b5b905060200201356115ec565b8080600101915050610c85565b505050505050565b5f610cf98261178a565b9050919050565b5f5f5f8373ffffffffffffffffffffffffffffffffffffffff1673ffffffffffffffffffffffffffffffffffffffff1681526020019081526020015f20549050919050565b610d4d61140a565b610d565f6117df565b565b5f610d62826118a2565b9050919050565b5f6060805f5f5f6060610d7a6118e8565b610d82611923565b46305f5f1b5f67ffffffffffffffff811115610da157610da0613a46565b5b604051908082528060200260200182016040528015610dcf5781602001602082028036833780820191505090505b507f0f00000000000000000000000000000000000000000000000000000000000000959493929190965096509650965096509650965090919293949596565b5f600b5f9054906101000a900473ffffffffffffffffffffffffffffffffffffffff16905090565b5f610e53610e4383611491565b600a6114fc90919063ffffffff16565b79ffffffffffffffffffffffffffffffffffffffffffffffffffff169050919050565b5f610e7f61166b565b905090565b606060048054610e9390613851565b80601f0160208091040260200160405190810160405280929190818152602001828054610ebf90613851565b8015610f0a5780601f10610ee157610100808354040283529160200191610f0a565b820191905f5260205f20905b815481529060010190602001808311610eed57829003601f168201915b5050505050905090565b610f1c61140a565b6001600c5f8373ffffffffffffffffffffffffffffffffffffffff1673ffffffffffffffffffffffffffffffffffffffff1681526020019081526020015f205f6101000a81548160ff0219169083151502179055508073ffffffffffffffffffffffffffffffffffffffff167f6ae172837ea30b801fbfcdd4108aa1d5bf8ff775444fd70256b44e6bf3dfc3f660405160405180910390a250565b5f610ffd60095f8473ffffffffffffffffffffffffffffffffffffffff1673ffffffffffffffffffffffffffffffffffffffff1681526020019081526020015f2061195e565b79ffffffffffffffffffffffffffffffffffffffffffffffffffff169050919050565b5f5f61102a61126e565b905061103781858561131a565b600191505092915050565b8342111561108757836040517f4683af0e00000000000000000000000000000000000000000000000000000000815260040161107e91906131ce565b60405180910390fd5b5f6110e86110e07fe48329057bfd03d55e49b547132e39cffd9c1820ad7b9d4c5307691425d15adf8989896040516020016110c59493929190613a73565b604051602081830303815290604052805190602001206119c0565b8585856119d9565b90506110f48187611a07565b6110fe818861167a565b50505050505050565b5f60015f8473ffffffffffffffffffffffffffffffffffffffff1673ffffffffffffffffffffffffffffffffffffffff1681526020019081526020015f205f8373ffffffffffffffffffffffffffffffffffffffff1673ffffffffffffffffffffffffffffffffffffffff1681526020019081526020015f2054905092915050565b611191612fed565b61119b8383611a5e565b905092915050565b6111ab61140a565b5f73ffffffffffffffffffffffffffffffffffffffff168173ffffffffffffffffffffffffffffffffffffffff160361121b575f6040517f1e4fbdf700000000000000000000000000000000000000000000000000000000815260040161121291906132a5565b60405180910390fd5b611224816117df565b50565b600c602052805f5260405f205f915054906101000a900460ff1681565b5f81836112519190613ab6565b905092915050565b5f81836112669190613b03565b905092915050565b5f33905090565b6112828383836001611abd565b505050565b5f6112928484611107565b90507fffffffffffffffffffffffffffffffffffffffffffffffffffffffffffffffff8110156113145781811015611305578281836040517ffb8f41b20000000000000000000000000000000000000000000000000000000081526004016112fc93929190613b50565b60405180910390fd5b61131384848484035f611abd565b5b50505050565b5f73ffffffffffffffffffffffffffffffffffffffff168373ffffffffffffffffffffffffffffffffffffffff160361138a575f6040517f96c6fd1e00000000000000000000000000000000000000000000000000000000815260040161138191906132a5565b60405180910390fd5b5f73ffffffffffffffffffffffffffffffffffffffff168273ffffffffffffffffffffffffffffffffffffffff16036113fa575f6040517fec442f050000000000000000000000000000000000000000000000000000000081526004016113f191906132a5565b60405180910390fd5b611405838383611c8c565b505050565b61141261126e565b73ffffffffffffffffffffffffffffffffffffffff16611430610e0e565b73ffffffffffffffffffffffffffffffffffffffff161461148f5761145361126e565b6040517f118cdaa700000000000000000000000000000000000000000000000000000000815260040161148691906132a5565b60405180910390fd5b565b5f5f61149b610e76565b90508065ffffffffffff1683106114eb5782816040517fecd3f81e0000000000000000000000000000000000000000000000000000000081526004016114e2929190613b85565b60405180910390fd5b6114f483611c9c565b915050919050565b5f5f835f018054905090505f5f90505f8290506005831115611580575f61152284611cf5565b8461152d9190613bac565b905061153b875f0182611e8f565b5f015f9054906101000a900465ffffffffffff1665ffffffffffff168665ffffffffffff16101561156e5780915061157e565b60018161157b9190613916565b92505b505b5f61158f875f01878585611ea1565b90505f81146115de576115b0875f016001836115ab9190613bac565b611e8f565b5f0160069054906101000a900479ffffffffffffffffffffffffffffffffffffffffffffffffffff166115e0565b5f5b94505050505092915050565b5f73ffffffffffffffffffffffffffffffffffffffff168273ffffffffffffffffffffffffffffffffffffffff160361165c575f6040517fec442f0500000000000000000000000000000000000000000000000000000000815260040161165391906132a5565b60405180910390fd5b6116675f8383611c8c565b5050565b5f61167543611c9c565b905090565b5f61168483610a4b565b90508160085f8573ffffffffffffffffffffffffffffffffffffffff1673ffffffffffffffffffffffffffffffffffffffff1681526020019081526020015f205f6101000a81548173ffffffffffffffffffffffffffffffffffffffff021916908373ffffffffffffffffffffffffffffffffffffffff1602179055508173ffffffffffffffffffffffffffffffffffffffff168173ffffffffffffffffffffffffffffffffffffffff168473ffffffffffffffffffffffffffffffffffffffff167f3134e8a2e6d97e929a7e54011ea5485d7d196dd5f0ba4d4ef95803e8e3fc257f60405160405180910390a4611785818361178086611f16565b611f27565b505050565b5f6117d86117d360095f8573ffffffffffffffffffffffffffffffffffffffff1673ffffffffffffffffffffffffffffffffffffffff1681526020019081526020015f20612197565b6121a6565b9050919050565b5f600b5f9054906101000a900473ffffffffffffffffffffffffffffffffffffffff16905081600b5f6101000a81548173ffffffffffffffffffffffffffffffffffffffff021916908373ffffffffffffffffffffffffffffffffffffffff1602179055508173ffffffffffffffffffffffffffffffffffffffff168173ffffffffffffffffffffffffffffffffffffffff167f8be0079c531659141344cd1fd0a4f28419497f9722a3daafe3b4186f6b6457e060405160405180910390a35050565b5f60075f8373ffffffffffffffffffffffffffffffffffffffff1673ffffffffffffffffffffffffffffffffffffffff1681526020019081526020015f20549050919050565b606061191e60057f00000000000000000000000000000000000000000000000000000000000000006121fd90919063ffffffff16565b905090565b606061195960067f00000000000000000000000000000000000000000000000000000000000000006121fd90919063ffffffff16565b905090565b5f5f825f018054905090505f81146119b657611988835f016001836119839190613bac565b611e8f565b5f0160069054906101000a900479ffffffffffffffffffffffffffffffffffffffffffffffffffff166119b8565b5f5b915050919050565b5f6119d26119cc6122aa565b83612360565b9050919050565b5f5f5f5f6119e9888888886123a0565b9250925092506119f98282612487565b829350505050949350505050565b5f611a11836125e9565b9050808214611a595782816040517f752d88c0000000000000000000000000000000000000000000000000000000008152600401611a50929190613bdf565b60405180910390fd5b505050565b611a66612fed565b611ab58260095f8673ffffffffffffffffffffffffffffffffffffffff1673ffffffffffffffffffffffffffffffffffffffff1681526020019081526020015f2061263c90919063ffffffff16565b905092915050565b5f73ffffffffffffffffffffffffffffffffffffffff168473ffffffffffffffffffffffffffffffffffffffff1603611b2d575f6040517fe602df05000000000000000000000000000000000000000000000000000000008152600401611b2491906132a5565b60405180910390fd5b5f73ffffffffffffffffffffffffffffffffffffffff168373ffffffffffffffffffffffffffffffffffffffff1603611b9d575f6040517f94280d62000000000000000000000000000000000000000000000000000000008152600401611b9491906132a5565b60405180910390fd5b8160015f8673ffffffffffffffffffffffffffffffffffffffff1673ffffffffffffffffffffffffffffffffffffffff1681526020019081526020015f205f8573ffffffffffffffffffffffffffffffffffffffff1673ffffffffffffffffffffffffffffffffffffffff1681526020019081526020015f20819055508015611c86578273ffffffffffffffffffffffffffffffffffffffff168473ffffffffffffffffffffffffffffffffffffffff167f8c5be1e5ebec7d5bd14f71427d1e84f3dd0314c0f7b2291e5b200ac8c7c3b92584604051611c7d91906131ce565b60405180910390a35b50505050565b611c9783838361270b565b505050565b5f65ffffffffffff8016821115611ced576030826040517f6dfcc650000000000000000000000000000000000000000000000000000000008152600401611ce4929190613c48565b60405180910390fd5b819050919050565b5f60018211611d0657819050611e8a565b5f8290505f600190507001000000000000000000000000000000008210611d3657608082901c9150604081901b90505b680100000000000000008210611d5557604082901c9150602081901b90505b6401000000008210611d7057602082901c9150601081901b90505b620100008210611d8957601082901c9150600881901b90505b6101008210611da157600882901c9150600481901b90505b60108210611db857600482901c9150600281901b90505b60048210611dc857600181901b90505b600181600302901c90506001818581611de457611de3613c6f565b5b048201901c90506001818581611dfd57611dfc613c6f565b5b048201901c90506001818581611e1657611e15613c6f565b5b048201901c90506001818581611e2f57611e2e613c6f565b5b048201901c90506001818581611e4857611e47613c6f565b5b048201901c90506001818581611e6157611e60613c6f565b5b048201901c9050611e83818581611e7b57611e7a613c6f565b5b0482116127b9565b8103925050505b919050565b5f825f528160205f2001905092915050565b5f5b81831015611f0b575f611eb684846127c4565b90508465ffffffffffff16611ecb8783611e8f565b5f015f9054906101000a900465ffffffffffff1665ffffffffffff161115611ef557809250611f05565b600181611f029190613916565b93505b50611ea3565b819050949350505050565b5f611f2082610d00565b9050919050565b8173ffffffffffffffffffffffffffffffffffffffff168373ffffffffffffffffffffffffffffffffffffffff1614158015611f6257505f81115b15612192575f73ffffffffffffffffffffffffffffffffffffffff168373ffffffffffffffffffffffffffffffffffffffff161461207c575f5f611fed60095f8773ffffffffffffffffffffffffffffffffffffffff1673ffffffffffffffffffffffffffffffffffffffff1681526020019081526020015f20611259611fe8866127e9565b612856565b79ffffffffffffffffffffffffffffffffffffffffffffffffffff16915079ffffffffffffffffffffffffffffffffffffffffffffffffffff1691508473ffffffffffffffffffffffffffffffffffffffff167fdec2bacdd2f05b59de34da9b523dff8be42e5e38e818c82fdb0bae774387a7248383604051612071929190613c9c565b60405180910390a250505b5f73ffffffffffffffffffffffffffffffffffffffff168273ffffffffffffffffffffffffffffffffffffffff1614612191575f5f61210260095f8673ffffffffffffffffffffffffffffffffffffffff1673ffffffffffffffffffffffffffffffffffffffff1681526020019081526020015f206112446120fd866127e9565b612856565b79ffffffffffffffffffffffffffffffffffffffffffffffffffff16915079ffffffffffffffffffffffffffffffffffffffffffffffffffff1691508373ffffffffffffffffffffffffffffffffffffffff167fdec2bacdd2f05b59de34da9b523dff8be42e5e38e818c82fdb0bae774387a7248383604051612186929190613c9c565b60405180910390a250505b5b505050565b5f815f01805490509050919050565b5f63ffffffff80168211156121f5576020826040517f6dfcc6500000000000000000000000000000000000000000000000000000000081526004016121ec929190613cfc565b60405180910390fd5b819050919050565b606060ff5f1b83146122195761221283612895565b90506122a4565b81805461222590613851565b80601f016020809104026020016040519081016040528092919081815260200182805461225190613851565b801561229c5780601f106122735761010080835404028352916020019161229c565b820191905f5260205f20905b81548152906001019060200180831161227f57829003601f168201915b505050505090505b92915050565b5f7f000000000000000000000000000000000000000000000000000000000000000073ffffffffffffffffffffffffffffffffffffffff163073ffffffffffffffffffffffffffffffffffffffff1614801561232557507f000000000000000000000000000000000000000000000000000000000000000046145b15612352577f0000000000000000000000000000000000000000000000000000000000000000905061235d565b61235a612907565b90505b90565b5f6040517f190100000000000000000000000000000000000000000000000000000000000081528360028201528260228201526042812091505092915050565b5f5f5f7f7fffffffffffffffffffffffffffffff5d576e7357a4501ddfe92f46681b20a0845f1c11156123dc575f60038592509250925061247d565b5f6001888888886040515f81526020016040526040516123ff9493929190613d23565b6020604051602081039080840390855afa15801561241f573d5f5f3e3d5ffd5b5050506020604051035190505f73ffffffffffffffffffffffffffffffffffffffff168173ffffffffffffffffffffffffffffffffffffffff1603612470575f60015f5f1b9350935093505061247d565b805f5f5f1b935093509350505b9450945094915050565b5f600381111561249a57612499613d66565b5b8260038111156124ad576124ac613d66565b5b03156125e557600160038111156124c7576124c6613d66565b5b8260038111156124da576124d9613d66565b5b03612511576040517ff645eedf00000000000000000000000000000000000000000000000000000000815260040160405180910390fd5b6002600381111561252557612524613d66565b5b82600381111561253857612537613d66565b5b0361257c57805f1c6040517ffce698f700000000000000000000000000000000000000000000000000000000815260040161257391906131ce565b60405180910390fd5b60038081111561258f5761258e613d66565b5b8260038111156125a2576125a1613d66565b5b036125e457806040517fd78bce0c0000000000000000000000000000000000000000000000000000000081526004016125db9190613d93565b60405180910390fd5b5b5050565b5f60075f8373ffffffffffffffffffffffffffffffffffffffff1673ffffffffffffffffffffffffffffffffffffffff1681526020019081526020015f205f815480929190600101919050559050919050565b612644612fed565b825f018263ffffffff168154811061265f5761265e613a19565b5b905f5260205f20016040518060400160405290815f82015f9054906101000a900465ffffffffffff1665ffffffffffff1665ffffffffffff1681526020015f820160069054906101000a900479ffffffffffffffffffffffffffffffffffffffffffffffffffff1679ffffffffffffffffffffffffffffffffffffffffffffffffffff1679ffffffffffffffffffffffffffffffffffffffffffffffffffff1681525050905092915050565b61271683838361299c565b5f73ffffffffffffffffffffffffffffffffffffffff168373ffffffffffffffffffffffffffffffffffffffff16036127a9575f612752610709565b90505f61275d612bb5565b9050808211156127a65781816040517f1cb15d2600000000000000000000000000000000000000000000000000000000815260040161279d929190613c9c565b60405180910390fd5b50505b6127b4838383612bd8565b505050565b5f8115159050919050565b5f60028284186127d49190613dac565b8284166127e19190613916565b905092915050565b5f79ffffffffffffffffffffffffffffffffffffffffffffffffffff801682111561284e5760d0826040517f6dfcc650000000000000000000000000000000000000000000000000000000008152600401612845929190613e15565b60405180910390fd5b819050919050565b5f5f612889612863610e76565b61287961286f8861195e565b868863ffffffff16565b87612c909092919063ffffffff16565b91509150935093915050565b60605f6128a183612cab565b90505f602067ffffffffffffffff8111156128bf576128be613a46565b5b6040519080825280601f01601f1916602001820160405280156128f15781602001600182028036833780820191505090505b5090508181528360208201528092505050919050565b5f7f8b73c3c69bb8fe3d512ecc4cf759cc79239f7b179b0ffacaa9a75d522b39400f7f00000000000000000000000000000000000000000000000000000000000000007f00000000000000000000000000000000000000000000000000000000000000004630604051602001612981959493929190613e3c565b60405160208183030381529060405280519060200120905090565b5f73ffffffffffffffffffffffffffffffffffffffff168373ffffffffffffffffffffffffffffffffffffffff16036129ec578060025f8282546129e09190613916565b92505081905550612aba565b5f5f5f8573ffffffffffffffffffffffffffffffffffffffff1673ffffffffffffffffffffffffffffffffffffffff1681526020019081526020015f2054905081811015612a75578381836040517fe450d38c000000000000000000000000000000000000000000000000000000008152600401612a6c93929190613b50565b60405180910390fd5b8181035f5f8673ffffffffffffffffffffffffffffffffffffffff1673ffffffffffffffffffffffffffffffffffffffff1681526020019081526020015f2081905550505b5f73ffffffffffffffffffffffffffffffffffffffff168273ffffffffffffffffffffffffffffffffffffffff1603612b01578060025f8282540392505081905550612b4b565b805f5f8473ffffffffffffffffffffffffffffffffffffffff1673ffffffffffffffffffffffffffffffffffffffff1681526020019081526020015f205f82825401925050819055505b8173ffffffffffffffffffffffffffffffffffffffff168373ffffffffffffffffffffffffffffffffffffffff167fddf252ad1be2c89b69c2b068fc378daa952ba7f163c4a11628f55a4df523b3ef83604051612ba891906131ce565b60405180910390a3505050565b5f79ffffffffffffffffffffffffffffffffffffffffffffffffffff8016905090565b5f73ffffffffffffffffffffffffffffffffffffffff168373ffffffffffffffffffffffffffffffffffffffff1603612c2457612c21600a611244612c1c846127e9565b612856565b50505b5f73ffffffffffffffffffffffffffffffffffffffff168273ffffffffffffffffffffffffffffffffffffffff1603612c7057612c6d600a611259612c68846127e9565b612856565b50505b612c8b612c7c84610a4b565b612c8584610a4b565b83611f27565b505050565b5f5f612c9f855f018585612cf9565b91509150935093915050565b5f5f60ff835f1c169050601f811115612cf0576040517fb3512b0c00000000000000000000000000000000000000000000000000000000815260040160405180910390fd5b80915050919050565b5f5f5f858054905090505f811115612f05575f612d2287600184612d1d9190613bac565b611e8f565b90505f815f015f9054906101000a900465ffffffffffff1690505f825f0160069054906101000a900479ffffffffffffffffffffffffffffffffffffffffffffffffffff1690508765ffffffffffff168265ffffffffffff161115612db3576040517f2520601d00000000000000000000000000000000000000000000000000000000815260040160405180910390fd5b8765ffffffffffff168265ffffffffffff1603612e1d5786835f0160066101000a81548179ffffffffffffffffffffffffffffffffffffffffffffffffffff021916908379ffffffffffffffffffffffffffffffffffffffffffffffffffff160217905550612ef6565b8860405180604001604052808a65ffffffffffff1681526020018979ffffffffffffffffffffffffffffffffffffffffffffffffffff16815250908060018154018082558091505060019003905f5260205f20015f909190919091505f820151815f015f6101000a81548165ffffffffffff021916908365ffffffffffff1602179055506020820151815f0160066101000a81548179ffffffffffffffffffffffffffffffffffffffffffffffffffff021916908379ffffffffffffffffffffffffffffffffffffffffffffffffffff16021790555050505b80879550955050505050612fe5565b8560405180604001604052808765ffffffffffff1681526020018679ffffffffffffffffffffffffffffffffffffffffffffffffffff16815250908060018154018082558091505060019003905f5260205f20015f909190919091505f820151815f015f6101000a81548165ffffffffffff021916908365ffffffffffff1602179055506020820151815f0160066101000a81548179ffffffffffffffffffffffffffffffffffffffffffffffffffff021916908379ffffffffffffffffffffffffffffffffffffffffffffffffffff16021790555050505f8492509250505b935093915050565b60405180604001604052805f65ffffffffffff1681526020015f79ffffffffffffffffffffffffffffffffffffffffffffffffffff1681525090565b5f81519050919050565b5f82825260208201905092915050565b8281835e5f83830152505050565b5f601f19601f8301169050919050565b5f61306b82613029565b6130758185613033565b9350613085818560208601613043565b61308e81613051565b840191505092915050565b5f6020820190508181035f8301526130b18184613061565b905092915050565b5f5ffd5b5f5ffd5b5f73ffffffffffffffffffffffffffffffffffffffff82169050919050565b5f6130ea826130c1565b9050919050565b6130fa816130e0565b8114613104575f5ffd5b50565b5f81359050613115816130f1565b92915050565b5f819050919050565b61312d8161311b565b8114613137575f5ffd5b50565b5f8135905061314881613124565b92915050565b5f5f60408385031215613164576131636130b9565b5b5f61317185828601613107565b92505060206131828582860161313a565b9150509250929050565b5f8115159050919050565b6131a08161318c565b82525050565b5f6020820190506131b95f830184613197565b92915050565b6131c88161311b565b82525050565b5f6020820190506131e15f8301846131bf565b92915050565b5f5f5f606084860312156131fe576131fd6130b9565b5b5f61320b86828701613107565b935050602061321c86828701613107565b925050604061322d8682870161313a565b9150509250925092565b5f6020828403121561324c5761324b6130b9565b5b5f61325984828501613107565b91505092915050565b5f60ff82169050919050565b61327781613262565b82525050565b5f6020820190506132905f83018461326e565b92915050565b61329f816130e0565b82525050565b5f6020820190506132b85f830184613296565b92915050565b5f5ffd5b5f5ffd5b5f5ffd5b5f5f83601f8401126132df576132de6132be565b5b8235905067ffffffffffffffff8111156132fc576132fb6132c2565b5b602083019150836020820283011115613318576133176132c6565b5b9250929050565b5f5f83601f840112613334576133336132be565b5b8235905067ffffffffffffffff811115613351576133506132c2565b5b60208301915083602082028301111561336d5761336c6132c6565b5b9250929050565b5f5f5f5f6040858703121561338c5761338b6130b9565b5b5f85013567ffffffffffffffff8111156133a9576133a86130bd565b5b6133b5878288016132ca565b9450945050602085013567ffffffffffffffff8111156133d8576133d76130bd565b5b6133e48782880161331f565b925092505092959194509250565b5f63ffffffff82169050919050565b61340a816133f2565b82525050565b5f6020820190506134235f830184613401565b92915050565b5f7fff0000000000000000000000000000000000000000000000000000000000000082169050919050565b61345d81613429565b82525050565b5f819050919050565b61347581613463565b82525050565b5f81519050919050565b5f82825260208201905092915050565b5f819050602082019050919050565b6134ad8161311b565b82525050565b5f6134be83836134a4565b60208301905092915050565b5f602082019050919050565b5f6134e08261347b565b6134ea8185613485565b93506134f583613495565b805f5b8381101561352557815161350c88826134b3565b9750613517836134ca565b9250506001810190506134f8565b5085935050505092915050565b5f60e0820190506135455f83018a613454565b81810360208301526135578189613061565b9050818103604083015261356b8188613061565b905061357a60608301876131bf565b6135876080830186613296565b61359460a083018561346c565b81810360c08301526135a681846134d6565b905098975050505050505050565b5f602082840312156135c9576135c86130b9565b5b5f6135d68482850161313a565b91505092915050565b5f65ffffffffffff82169050919050565b6135f9816135df565b82525050565b5f6020820190506136125f8301846135f0565b92915050565b61362181613262565b811461362b575f5ffd5b50565b5f8135905061363c81613618565b92915050565b61364b81613463565b8114613655575f5ffd5b50565b5f8135905061366681613642565b92915050565b5f5f5f5f5f5f60c08789031215613686576136856130b9565b5b5f61369389828a01613107565b96505060206136a489828a0161313a565b95505060406136b589828a0161313a565b94505060606136c689828a0161362e565b93505060806136d789828a01613658565b92505060a06136e889828a01613658565b9150509295509295509295565b5f5f6040838503121561370b5761370a6130b9565b5b5f61371885828601613107565b925050602061372985828601613107565b9150509250929050565b61373c816133f2565b8114613746575f5ffd5b50565b5f8135905061375781613733565b92915050565b5f5f60408385031215613773576137726130b9565b5b5f61378085828601613107565b925050602061379185828601613749565b9150509250929050565b6137a4816135df565b82525050565b5f79ffffffffffffffffffffffffffffffffffffffffffffffffffff82169050919050565b6137d8816137aa565b82525050565b604082015f8201516137f25f85018261379b565b50602082015161380560208501826137cf565b50505050565b5f60408201905061381e5f8301846137de565b92915050565b7f4e487b71000000000000000000000000000000000000000000000000000000005f52602260045260245ffd5b5f600282049050600182168061386857607f821691505b60208210810361387b5761387a613824565b5b50919050565b7f4e6f7420617574686f72697a656420746f206d696e74000000000000000000005f82015250565b5f6138b5601683613033565b91506138c082613881565b602082019050919050565b5f6020820190508181035f8301526138e2816138a9565b9050919050565b7f4e487b71000000000000000000000000000000000000000000000000000000005f52601160045260245ffd5b5f6139208261311b565b915061392b8361311b565b9250828201905080821115613943576139426138e9565b5b92915050565b7f45786365656473206d617820737570706c7900000000000000000000000000005f82015250565b5f61397d601283613033565b915061398882613949565b602082019050919050565b5f6020820190508181035f8301526139aa81613971565b9050919050565b7f417272617973206c656e677468206d69736d61746368000000000000000000005f82015250565b5f6139e5601683613033565b91506139f0826139b1565b602082019050919050565b5f6020820190508181035f830152613a12816139d9565b9050919050565b7f4e487b71000000000000000000000000000000000000000000000000000000005f52603260045260245ffd5b7f4e487b71000000000000000000000000000000000000000000000000000000005f52604160045260245ffd5b5f608082019050613a865f83018761346c565b613a936020830186613296565b613aa060408301856131bf565b613aad60608301846131bf565b95945050505050565b5f613ac0826137aa565b9150613acb836137aa565b9250828201905079ffffffffffffffffffffffffffffffffffffffffffffffffffff811115613afd57613afc6138e9565b5b92915050565b5f613b0d826137aa565b9150613b18836137aa565b9250828203905079ffffffffffffffffffffffffffffffffffffffffffffffffffff811115613b4a57613b496138e9565b5b92915050565b5f606082019050613b635f830186613296565b613b7060208301856131bf565b613b7d60408301846131bf565b949350505050565b5f604082019050613b985f8301856131bf565b613ba560208301846135f0565b9392505050565b5f613bb68261311b565b9150613bc18361311b565b9250828203905081811115613bd957613bd86138e9565b5b92915050565b5f604082019050613bf25f830185613296565b613bff60208301846131bf565b9392505050565b5f819050919050565b5f819050919050565b5f613c32613c2d613c2884613c06565b613c0f565b613262565b9050919050565b613c4281613c18565b82525050565b5f604082019050613c5b5f830185613c39565b613c6860208301846131bf565b9392505050565b7f4e487b71000000000000000000000000000000000000000000000000000000005f52601260045260245ffd5b5f604082019050613caf5f8301856131bf565b613cbc60208301846131bf565b9392505050565b5f819050919050565b5f613ce6613ce1613cdc84613cc3565b613c0f565b613262565b9050919050565b613cf681613ccc565b82525050565b5f604082019050613d0f5f830185613ced565b613d1c60208301846131bf565b9392505050565b5f608082019050613d365f83018761346c565b613d43602083018661326e565b613d50604083018561346c565b613d5d606083018461346c565b95945050505050565b7f4e487b71000000000000000000000000000000000000000000000000000000005f52602160045260245ffd5b5f602082019050613da65f83018461346c565b92915050565b5f613db68261311b565b9150613dc18361311b565b925082613dd157613dd0613c6f565b5b828204905092915050565b5f819050919050565b5f613dff613dfa613df584613ddc565b613c0f565b613262565b9050919050565b613e0f81613de5565b82525050565b5f604082019050613e285f830185613e06565b613e3560208301846131bf565b9392505050565b5f60a082019050613e4f5f83018861346c565b613e5c602083018761346c565b613e69604083018661346c565b613e7660608301856131bf565b613e836080830184613296565b969550505050505056fea26469706673582212209153b02599085a1f3bc7a6d9a374b257196537ee93d0e4e32fa96a6013bd225a64736f6c634300081e0033', \n     arguments: [\n          initialOwner,\n     ]\n}).send({\n     from: web3.eth.accounts[0], \n     gas: '4700000'\n   }, function (e, contract){\n    console.log(e, contract);\n    if (typeof contract.address !== 'undefined') {\n         console.log('Contract mined! address: ' + contract.address + ' transactionHash: ' + contract.transactionHash);\n    }\n })",
	"functionHashes": {
		"68573107": "batchMint(address[],uint256[])",
		"4bf5d7e9": "CLOCK_MODE()",
		"2ff2e9dc": "INITIAL_SUPPLY()",
		"32cb6b0c": "MAX_SUPPLY()",
		"983b2d56": "addMinter(address)",
		"dd62ed3e": "allowance(address,address)",
		"095ea7b3": "approve(address,uint256)",
		"70a08231": "balanceOf(address)",
		"f1127ed8": "checkpoints(address,uint32)",
		"91ddadf4": "clock()",
		"313ce567": "decimals()",
		"5c19a95c": "delegate(address)",
		"c3cda520": "delegateBySig(address,uint256,uint256,uint8,bytes32,bytes32)",
		"587cde1e": "delegates(address)",
		"84b0196e": "eip712Domain()",
		"8e539e8c": "getPastTotalSupply(uint256)",
		"3a46b1a8": "getPastVotes(address,uint256)",
		"9ab24eb0": "getVotes(address)",
		"40c10f19": "mint(address,uint256)",
		"f46eccc4": "minters(address)",
		"06fdde03": "name()",
		"7ecebe00": "nonces(address)",
		"6fcfff45": "numCheckpoints(address)",
		"8da5cb5b": "owner()",
		"3092afd5": "removeMinter(address)",
		"715018a6": "renounceOwnership()",
		"95d89b41": "symbol()",
		"18160ddd": "totalSupply()",
		"a9059cbb": "transfer(address,uint256)",
		"23b872dd": "transferFrom(address,address,uint256)",
		"f2fde38b": "transferOwnership(address)"
	},
	"gasEstimates": {
		"Creation": {
			"codeDepositCost": "3213400",
			"executionCost": "infinite",
			"totalCost": "infinite"
		},
		"External": {
			"CLOCK_MODE()": "infinite",
			"INITIAL_SUPPLY()": "393",
			"MAX_SUPPLY()": "371",
			"addMinter(address)": "infinite",
			"allowance(address,address)": "infinite",
			"approve(address,uint256)": "infinite",
			"balanceOf(address)": "2874",
			"batchMint(address[],uint256[])": "infinite",
			"checkpoints(address,uint32)": "infinite",
			"clock()": "723",
			"decimals()": "450",
			"delegate(address)": "infinite",
			"delegateBySig(address,uint256,uint256,uint8,bytes32,bytes32)": "infinite",
			"delegates(address)": "infinite",
			"eip712Domain()": "infinite",
			"getPastTotalSupply(uint256)": "infinite",
			"getPastVotes(address,uint256)": "infinite",
			"getVotes(address)": "infinite",
			"mint(address,uint256)": "infinite",
			"minters(address)": "2943",
			"name()": "infinite",
			"nonces(address)": "2961",
			"numCheckpoints(address)": "3296",
			"owner()": "2560",
			"removeMinter(address)": "infinite",
			"renounceOwnership()": "infinite",
			"symbol()": "infinite",
			"totalSupply()": "2523",
			"transfer(address,uint256)": "infinite",
			"transferFrom(address,address,uint256)": "infinite",
			"transferOwnership(address)": "infinite"
		},
		"Internal": {
			"_update(address,address,uint256)": "infinite"
		}
	},
	"devdoc": {
		"details": "ERC20 governance token for SecureGig DAO voting",
		"errors": {
			"CheckpointUnorderedInsertion()": [
				{
					"details": "A value was attempted to be inserted on a past checkpoint."
				}
			],
			"ECDSAInvalidSignature()": [
				{
					"details": "The signature derives the `address(0)`."
				}
			],
			"ECDSAInvalidSignatureLength(uint256)": [
				{
					"details": "The signature has an invalid length."
				}
			],
			"ECDSAInvalidSignatureS(bytes32)": [
				{
					"details": "The signature has an S value that is in the upper half order."
				}
			],
			"ERC20ExceededSafeSupply(uint256,uint256)": [
				{
					"details": "Total supply cap has been exceeded, introducing a risk of votes overflowing."
				}
			],
			"ERC20InsufficientAllowance(address,uint256,uint256)": [
				{
					"details": "Indicates a failure with the `spender`s `allowance`. Used in transfers.",
					"params": {
						"allowance": "Amount of tokens a `spender` is allowed to operate with.",
						"needed": "Minimum amount required to perform a transfer.",
						"spender": "Address that may be allowed to operate on tokens without being their owner."
					}
				}
			],
			"ERC20InsufficientBalance(address,uint256,uint256)": [
				{
					"details": "Indicates an error related to the current `balance` of a `sender`. Used in transfers.",
					"params": {
						"balance": "Current balance for the interacting account.",
						"needed": "Minimum amount required to perform a transfer.",
						"sender": "Address whose tokens are being transferred."
					}
				}
			],
			"ERC20InvalidApprover(address)": [
				{
					"details": "Indicates a failure with the `approver` of a token to be approved. Used in approvals.",
					"params": {
						"approver": "Address initiating an approval operation."
					}
				}
			],
			"ERC20InvalidReceiver(address)": [
				{
					"details": "Indicates a failure with the token `receiver`. Used in transfers.",
					"params": {
						"receiver": "Address to which tokens are being transferred."
					}
				}
			],
			"ERC20InvalidSender(address)": [
				{
					"details": "Indicates a failure with the token `sender`. Used in transfers.",
					"params": {
						"sender": "Address whose tokens are being transferred."
					}
				}
			],
			"ERC20InvalidSpender(address)": [
				{
					"details": "Indicates a failure with the `spender` to be approved. Used in approvals.",
					"params": {
						"spender": "Address that may be allowed to operate on tokens without being their owner."
					}
				}
			],
			"ERC5805FutureLookup(uint256,uint48)": [
				{
					"details": "Lookup to future votes is not available."
				}
			],
			"ERC6372InconsistentClock()": [
				{
					"details": "The clock was incorrectly modified."
				}
			],
			"InvalidAccountNonce(address,uint256)": [
				{
					"details": "The nonce used for an `account` is not the expected current nonce."
				}
			],
			"OwnableInvalidOwner(address)": [
				{
					"details": "The owner is not a valid owner account. (eg. `address(0)`)"
				}
			],
			"OwnableUnauthorizedAccount(address)": [
				{
					"details": "The caller account is not authorized to perform an operation."
				}
			],
			"SafeCastOverflowedUintDowncast(uint8,uint256)": [
				{
					"details": "Value doesn't fit in an uint of `bits` size."
				}
			],
			"VotesExpiredSignature(uint256)": [
				{
					"details": "The signature used has expired."
				}
			]
		},
		"events": {
			"Approval(address,address,uint256)": {
				"details": "Emitted when the allowance of a `spender` for an `owner` is set by a call to {approve}. `value` is the new allowance."
			},
			"DelegateChanged(address,address,address)": {
				"details": "Emitted when an account changes their delegate."
			},
			"DelegateVotesChanged(address,uint256,uint256)": {
				"details": "Emitted when a token transfer or delegate change results in changes to a delegate's number of voting units."
			},
			"EIP712DomainChanged()": {
				"details": "MAY be emitted to signal that the domain could have changed."
			},
			"Transfer(address,address,uint256)": {
				"details": "Emitted when `value` tokens are moved from one account (`from`) to another (`to`). Note that `value` may be zero."
			}
		},
		"kind": "dev",
		"methods": {
			"CLOCK_MODE()": {
				"details": "Machine-readable description of the clock as specified in ERC-6372."
			},
			"addMinter(address)": {
				"details": "Add a new minter",
				"params": {
					"minter": "Address to add as minter"
				}
			},
			"allowance(address,address)": {
				"details": "Returns the remaining number of tokens that `spender` will be allowed to spend on behalf of `owner` through {transferFrom}. This is zero by default. This value changes when {approve} or {transferFrom} are called."
			},
			"approve(address,uint256)": {
				"details": "See {IERC20-approve}. NOTE: If `value` is the maximum `uint256`, the allowance is not updated on `transferFrom`. This is semantically equivalent to an infinite approval. Requirements: - `spender` cannot be the zero address."
			},
			"balanceOf(address)": {
				"details": "Returns the value of tokens owned by `account`."
			},
			"batchMint(address[],uint256[])": {
				"details": "Distribute tokens to multiple addresses (for testing/airdrops)",
				"params": {
					"amounts": "Array of amounts to distribute",
					"recipients": "Array of recipient addresses"
				}
			},
			"checkpoints(address,uint32)": {
				"details": "Get the `pos`-th checkpoint for `account`."
			},
			"clock()": {
				"details": "Clock used for flagging checkpoints. Can be overridden to implement timestamp based checkpoints (and voting), in which case {CLOCK_MODE} should be overridden as well to match."
			},
			"decimals()": {
				"details": "Returns the number of decimals used to get its user representation. For example, if `decimals` equals `2`, a balance of `505` tokens should be displayed to a user as `5.05` (`505 / 10 ** 2`). Tokens usually opt for a value of 18, imitating the relationship between Ether and Wei. This is the default value returned by this function, unless it's overridden. NOTE: This information is only used for _display_ purposes: it in no way affects any of the arithmetic of the contract, including {IERC20-balanceOf} and {IERC20-transfer}."
			},
			"delegate(address)": {
				"details": "Delegates votes from the sender to `delegatee`."
			},
			"delegateBySig(address,uint256,uint256,uint8,bytes32,bytes32)": {
				"details": "Delegates votes from signer to `delegatee`."
			},
			"delegates(address)": {
				"details": "Returns the delegate that `account` has chosen."
			},
			"eip712Domain()": {
				"details": "returns the fields and values that describe the domain separator used by this contract for EIP-712 signature."
			},
			"getPastTotalSupply(uint256)": {
				"details": "Returns the total supply of votes available at a specific moment in the past. If the `clock()` is configured to use block numbers, this will return the value at the end of the corresponding block. NOTE: This value is the sum of all available votes, which is not necessarily the sum of all delegated votes. Votes that have not been delegated are still part of total supply, even though they would not participate in a vote. Requirements: - `timepoint` must be in the past. If operating using block numbers, the block must be already mined."
			},
			"getPastVotes(address,uint256)": {
				"details": "Returns the amount of votes that `account` had at a specific moment in the past. If the `clock()` is configured to use block numbers, this will return the value at the end of the corresponding block. Requirements: - `timepoint` must be in the past. If operating using block numbers, the block must be already mined."
			},
			"getVotes(address)": {
				"details": "Returns the current amount of votes that `account` has."
			},
			"mint(address,uint256)": {
				"details": "Mint new tokens (only by authorized minters)",
				"params": {
					"amount": "Amount of tokens to mint",
					"to": "Address to mint tokens to"
				}
			},
			"name()": {
				"details": "Returns the name of the token."
			},
			"nonces(address)": {
				"details": "Returns the next unused nonce for an address."
			},
			"numCheckpoints(address)": {
				"details": "Get number of checkpoints for `account`."
			},
			"owner()": {
				"details": "Returns the address of the current owner."
			},
			"removeMinter(address)": {
				"details": "Remove a minter",
				"params": {
					"minter": "Address to remove as minter"
				}
			},
			"renounceOwnership()": {
				"details": "Leaves the contract without owner. It will not be possible to call `onlyOwner` functions. Can only be called by the current owner. NOTE: Renouncing ownership will leave the contract without an owner, thereby disabling any functionality that is only available to the owner."
			},
			"symbol()": {
				"details": "Returns the symbol of the token, usually a shorter version of the name."
			},
			"totalSupply()": {
				"details": "Returns the value of tokens in existence."
			},
			"transfer(address,uint256)": {
				"details": "See {IERC20-transfer}. Requirements: - `to` cannot be the zero address. - the caller must have a balance of at least `value`."
			},
			"transferFrom(address,address,uint256)": {
				"details": "See {IERC20-transferFrom}. Skips emitting an {Approval} event indicating an allowance update. This is not required by the ERC. See {xref-ERC20-_approve-address-address-uint256-bool-}[_approve]. NOTE: Does not update the allowance if the current allowance is the maximum `uint256`. Requirements: - `from` and `to` cannot be the zero address. - `from` must have a balance of at least `value`. - the caller must have allowance for ``from``'s tokens of at least `value`."
			},
			"transferOwnership(address)": {
				"details": "Transfers ownership of the contract to a new account (`newOwner`). Can only be called by the current owner."
			}
		},
		"title": "DAOToken",
		"version": 1
	},
	"userdoc": {
		"kind": "user",
		"methods": {},
		"notice": "This token is used for voting on escrow disputes",
		"version": 1
	},
	"Runtime Bytecode": {
		"immutableReferences": {
			"4341": [
				{
					"length": 32,
					"start": 9004
				}
			],
			"4343": [
				{
					"length": 32,
					"start": 8963
				}
			],
			"4345": [
				{
					"length": 32,
					"start": 8877
				}
			],
			"4347": [
				{
					"length": 32,
					"start": 10539
				}
			],
			"4349": [
				{
					"length": 32,
					"start": 10572
				}
			],
			"4352": [
				{
					"length": 32,
					"start": 6385
				}
			],
			"4355": [
				{
					"length": 32,
					"start": 6444
				}
			]
		},
		"linkReferences": {},
		"object": "608060405234801561000f575f5ffd5b50600436106101e3575f3560e01c806370a082311161010d578063983b2d56116100a0578063dd62ed3e1161006f578063dd62ed3e146105ab578063f1127ed8146105db578063f2fde38b1461060b578063f46eccc414610627576101e3565b8063983b2d56146105135780639ab24eb01461052f578063a9059cbb1461055f578063c3cda5201461058f576101e3565b80638da5cb5b116100dc5780638da5cb5b146104895780638e539e8c146104a757806391ddadf4146104d757806395d89b41146104f5576101e3565b806370a08231146103fb578063715018a61461042b5780637ecebe001461043557806384b0196e14610465576101e3565b806332cb6b0c11610185578063587cde1e11610154578063587cde1e146103635780635c19a95c1461039357806368573107146103af5780636fcfff45146103cb576101e3565b806332cb6b0c146102db5780633a46b1a8146102f957806340c10f19146103295780634bf5d7e914610345576101e3565b806323b872dd116101c157806323b872dd146102535780632ff2e9dc146102835780633092afd5146102a1578063313ce567146102bd576101e3565b806306fdde03146101e7578063095ea7b31461020557806318160ddd14610235575b5f5ffd5b6101ef610657565b6040516101fc9190613099565b60405180910390f35b61021f600480360381019061021a919061314e565b6106e7565b60405161022c91906131a6565b60405180910390f35b61023d610709565b60405161024a91906131ce565b60405180910390f35b61026d600480360381019061026891906131e7565b610712565b60405161027a91906131a6565b60405180910390f35b61028b610740565b60405161029891906131ce565b60405180910390f35b6102bb60048036038101906102b69190613237565b61074e565b005b6102c56107f0565b6040516102d2919061327d565b60405180910390f35b6102e36107f8565b6040516102f091906131ce565b60405180910390f35b610313600480360381019061030e919061314e565b610807565b60405161032091906131ce565b60405180910390f35b610343600480360381019061033e919061314e565b610883565b005b61034d6109b7565b60405161035a9190613099565b60405180910390f35b61037d60048036038101906103789190613237565b610a4b565b60405161038a91906132a5565b60405180910390f35b6103ad60048036038101906103a89190613237565b610ab0565b005b6103c960048036038101906103c49190613374565b610ac9565b005b6103e560048036038101906103e09190613237565b610cef565b6040516103f29190613410565b60405180910390f35b61041560048036038101906104109190613237565b610d00565b60405161042291906131ce565b60405180910390f35b610433610d45565b005b61044f600480360381019061044a9190613237565b610d58565b60405161045c91906131ce565b60405180910390f35b61046d610d69565b6040516104809796959493929190613532565b60405180910390f35b610491610e0e565b60405161049e91906132a5565b60405180910390f35b6104c160048036038101906104bc91906135b4565b610e36565b6040516104ce91906131ce565b60405180910390f35b6104df610e76565b6040516104ec91906135ff565b60405180910390f35b6104fd610e84565b60405161050a9190613099565b60405180910390f35b61052d60048036038101906105289190613237565b610f14565b005b61054960048036038101906105449190613237565b610fb7565b60405161055691906131ce565b60405180910390f35b6105796004803603810190610574919061314e565b611020565b60405161058691906131a6565b60405180910390f35b6105a960048036038101906105a4919061366c565b611042565b005b6105c560048036038101906105c091906136f5565b611107565b6040516105d291906131ce565b60405180910390f35b6105f560048036038101906105f0919061375d565b611189565b604051610602919061380b565b60405180910390f35b61062560048036038101906106209190613237565b6111a3565b005b610641600480360381019061063c9190613237565b611227565b60405161064e91906131a6565b60405180910390f35b60606003805461066690613851565b80601f016020809104026020016040519081016040528092919081815260200182805461069290613851565b80156106dd5780601f106106b4576101008083540402835291602001916106dd565b820191905f5260205f20905b8154815290600101906020018083116106c057829003601f168201915b5050505050905090565b5f5f6106f161126e565b90506106fe818585611275565b600191505092915050565b5f600254905090565b5f5f61071c61126e565b9050610729858285611287565b61073485858561131a565b60019150509392505050565b69d3c21bcecceda100000081565b61075661140a565b5f600c5f8373ffffffffffffffffffffffffffffffffffffffff1673ffffffffffffffffffffffffffffffffffffffff1681526020019081526020015f205f6101000a81548160ff0219169083151502179055508073ffffffffffffffffffffffffffffffffffffffff167fe94479a9f7e1952cc78f2d6baab678adc1b772d936c6583def489e524cb6669260405160405180910390a250565b5f6012905090565b6a084595161401484a00000081565b5f61085f61081483611491565b60095f8673ffffffffffffffffffffffffffffffffffffffff1673ffffffffffffffffffffffffffffffffffffffff1681526020019081526020015f206114fc90919063ffffffff16565b79ffffffffffffffffffffffffffffffffffffffffffffffffffff16905092915050565b600c5f3373ffffffffffffffffffffffffffffffffffffffff1673ffffffffffffffffffffffffffffffffffffffff1681526020019081526020015f205f9054906101000a900460ff168061090a57506108db610e0e565b73ffffffffffffffffffffffffffffffffffffffff163373ffffffffffffffffffffffffffffffffffffffff16145b610949576040517f08c379a0000000000000000000000000000000000000000000000000000000008152600401610940906138cb565b60405180910390fd5b6a084595161401484a0000008161095e610709565b6109689190613916565b11156109a9576040517f08c379a00000000000000000000000000000000000000000000000000000000081526004016109a090613993565b60405180910390fd5b6109b382826115ec565b5050565b60606109c161166b565b65ffffffffffff166109d1610e76565b65ffffffffffff1614610a10576040517f6ff0714000000000000000000000000000000000000000000000000000000000815260040160405180910390fd5b6040518060400160405280601d81526020017f6d6f64653d626c6f636b6e756d6265722666726f6d3d64656661756c74000000815250905090565b5f60085f8373ffffffffffffffffffffffffffffffffffffffff1673ffffffffffffffffffffffffffffffffffffffff1681526020019081526020015f205f9054906101000a900473ffffffffffffffffffffffffffffffffffffffff169050919050565b5f610ab961126e565b9050610ac5818361167a565b5050565b600c5f3373ffffffffffffffffffffffffffffffffffffffff1673ffffffffffffffffffffffffffffffffffffffff1681526020019081526020015f205f9054906101000a900460ff1680610b505750610b21610e0e565b73ffffffffffffffffffffffffffffffffffffffff163373ffffffffffffffffffffffffffffffffffffffff16145b610b8f576040517f08c379a0000000000000000000000000000000000000000000000000000000008152600401610b86906138cb565b60405180910390fd5b818190508484905014610bd7576040517f08c379a0000000000000000000000000000000000000000000000000000000008152600401610bce906139fb565b60405180910390fd5b5f5f90505f5f90505b83839050811015610c1f57838382818110610bfe57610bfd613a19565b5b9050602002013582610c109190613916565b91508080600101915050610be0565b506a084595161401484a00000081610c35610709565b610c3f9190613916565b1115610c80576040517f08c379a0000000000000000000000000000000000000000000000000000000008152600401610c7790613993565b60405180910390fd5b5f5f90505b85859050811015610ce757610cda868683818110610ca657610ca5613a19565b5b9050602002016020810190610cbb9190613237565b858584818110610cce57610ccd613a19565b5b905060200201356115ec565b8080600101915050610c85565b505050505050565b5f610cf98261178a565b9050919050565b5f5f5f8373ffffffffffffffffffffffffffffffffffffffff1673ffffffffffffffffffffffffffffffffffffffff1681526020019081526020015f20549050919050565b610d4d61140a565b610d565f6117df565b565b5f610d62826118a2565b9050919050565b5f6060805f5f5f6060610d7a6118e8565b610d82611923565b46305f5f1b5f67ffffffffffffffff811115610da157610da0613a46565b5b604051908082528060200260200182016040528015610dcf5781602001602082028036833780820191505090505b507f0f00000000000000000000000000000000000000000000000000000000000000959493929190965096509650965096509650965090919293949596565b5f600b5f9054906101000a900473ffffffffffffffffffffffffffffffffffffffff16905090565b5f610e53610e4383611491565b600a6114fc90919063ffffffff16565b79ffffffffffffffffffffffffffffffffffffffffffffffffffff169050919050565b5f610e7f61166b565b905090565b606060048054610e9390613851565b80601f0160208091040260200160405190810160405280929190818152602001828054610ebf90613851565b8015610f0a5780601f10610ee157610100808354040283529160200191610f0a565b820191905f5260205f20905b815481529060010190602001808311610eed57829003601f168201915b5050505050905090565b610f1c61140a565b6001600c5f8373ffffffffffffffffffffffffffffffffffffffff1673ffffffffffffffffffffffffffffffffffffffff1681526020019081526020015f205f6101000a81548160ff0219169083151502179055508073ffffffffffffffffffffffffffffffffffffffff167f6ae172837ea30b801fbfcdd4108aa1d5bf8ff775444fd70256b44e6bf3dfc3f660405160405180910390a250565b5f610ffd60095f8473ffffffffffffffffffffffffffffffffffffffff1673ffffffffffffffffffffffffffffffffffffffff1681526020019081526020015f2061195e565b79ffffffffffffffffffffffffffffffffffffffffffffffffffff169050919050565b5f5f61102a61126e565b905061103781858561131a565b600191505092915050565b8342111561108757836040517f4683af0e00000000000000000000000000000000000000000000000000000000815260040161107e91906131ce565b60405180910390fd5b5f6110e86110e07fe48329057bfd03d55e49b547132e39cffd9c1820ad7b9d4c5307691425d15adf8989896040516020016110c59493929190613a73565b604051602081830303815290604052805190602001206119c0565b8585856119d9565b90506110f48187611a07565b6110fe818861167a565b50505050505050565b5f60015f8473ffffffffffffffffffffffffffffffffffffffff1673ffffffffffffffffffffffffffffffffffffffff1681526020019081526020015f205f8373ffffffffffffffffffffffffffffffffffffffff1673ffffffffffffffffffffffffffffffffffffffff1681526020019081526020015f2054905092915050565b611191612fed565b61119b8383611a5e565b905092915050565b6111ab61140a565b5f73ffffffffffffffffffffffffffffffffffffffff168173ffffffffffffffffffffffffffffffffffffffff160361121b575f6040517f1e4fbdf700000000000000000000000000000000000000000000000000000000815260040161121291906132a5565b60405180910390fd5b611224816117df565b50565b600c602052805f5260405f205f915054906101000a900460ff1681565b5f81836112519190613ab6565b905092915050565b5f81836112669190613b03565b905092915050565b5f33905090565b6112828383836001611abd565b505050565b5f6112928484611107565b90507fffffffffffffffffffffffffffffffffffffffffffffffffffffffffffffffff8110156113145781811015611305578281836040517ffb8f41b20000000000000000000000000000000000000000000000000000000081526004016112fc93929190613b50565b60405180910390fd5b61131384848484035f611abd565b5b50505050565b5f73ffffffffffffffffffffffffffffffffffffffff168373ffffffffffffffffffffffffffffffffffffffff160361138a575f6040517f96c6fd1e00000000000000000000000000000000000000000000000000000000815260040161138191906132a5565b60405180910390fd5b5f73ffffffffffffffffffffffffffffffffffffffff168273ffffffffffffffffffffffffffffffffffffffff16036113fa575f6040517fec442f050000000000000000000000000000000000000000000000000000000081526004016113f191906132a5565b60405180910390fd5b611405838383611c8c565b505050565b61141261126e565b73ffffffffffffffffffffffffffffffffffffffff16611430610e0e565b73ffffffffffffffffffffffffffffffffffffffff161461148f5761145361126e565b6040517f118cdaa700000000000000000000000000000000000000000000000000000000815260040161148691906132a5565b60405180910390fd5b565b5f5f61149b610e76565b90508065ffffffffffff1683106114eb5782816040517fecd3f81e0000000000000000000000000000000000000000000000000000000081526004016114e2929190613b85565b60405180910390fd5b6114f483611c9c565b915050919050565b5f5f835f018054905090505f5f90505f8290506005831115611580575f61152284611cf5565b8461152d9190613bac565b905061153b875f0182611e8f565b5f015f9054906101000a900465ffffffffffff1665ffffffffffff168665ffffffffffff16101561156e5780915061157e565b60018161157b9190613916565b92505b505b5f61158f875f01878585611ea1565b90505f81146115de576115b0875f016001836115ab9190613bac565b611e8f565b5f0160069054906101000a900479ffffffffffffffffffffffffffffffffffffffffffffffffffff166115e0565b5f5b94505050505092915050565b5f73ffffffffffffffffffffffffffffffffffffffff168273ffffffffffffffffffffffffffffffffffffffff160361165c575f6040517fec442f0500000000000000000000000000000000000000000000000000000000815260040161165391906132a5565b60405180910390fd5b6116675f8383611c8c565b5050565b5f61167543611c9c565b905090565b5f61168483610a4b565b90508160085f8573ffffffffffffffffffffffffffffffffffffffff1673ffffffffffffffffffffffffffffffffffffffff1681526020019081526020015f205f6101000a81548173ffffffffffffffffffffffffffffffffffffffff021916908373ffffffffffffffffffffffffffffffffffffffff1602179055508173ffffffffffffffffffffffffffffffffffffffff168173ffffffffffffffffffffffffffffffffffffffff168473ffffffffffffffffffffffffffffffffffffffff167f3134e8a2e6d97e929a7e54011ea5485d7d196dd5f0ba4d4ef95803e8e3fc257f60405160405180910390a4611785818361178086611f16565b611f27565b505050565b5f6117d86117d360095f8573ffffffffffffffffffffffffffffffffffffffff1673ffffffffffffffffffffffffffffffffffffffff1681526020019081526020015f20612197565b6121a6565b9050919050565b5f600b5f9054906101000a900473ffffffffffffffffffffffffffffffffffffffff16905081600b5f6101000a81548173ffffffffffffffffffffffffffffffffffffffff021916908373ffffffffffffffffffffffffffffffffffffffff1602179055508173ffffffffffffffffffffffffffffffffffffffff168173ffffffffffffffffffffffffffffffffffffffff167f8be0079c531659141344cd1fd0a4f28419497f9722a3daafe3b4186f6b6457e060405160405180910390a35050565b5f60075f8373ffffffffffffffffffffffffffffffffffffffff1673ffffffffffffffffffffffffffffffffffffffff1681526020019081526020015f20549050919050565b606061191e60057f00000000000000000000000000000000000000000000000000000000000000006121fd90919063ffffffff16565b905090565b606061195960067f00000000000000000000000000000000000000000000000000000000000000006121fd90919063ffffffff16565b905090565b5f5f825f018054905090505f81146119b657611988835f016001836119839190613bac565b611e8f565b5f0160069054906101000a900479ffffffffffffffffffffffffffffffffffffffffffffffffffff166119b8565b5f5b915050919050565b5f6119d26119cc6122aa565b83612360565b9050919050565b5f5f5f5f6119e9888888886123a0565b9250925092506119f98282612487565b829350505050949350505050565b5f611a11836125e9565b9050808214611a595782816040517f752d88c0000000000000000000000000000000000000000000000000000000008152600401611a50929190613bdf565b60405180910390fd5b505050565b611a66612fed565b611ab58260095f8673ffffffffffffffffffffffffffffffffffffffff1673ffffffffffffffffffffffffffffffffffffffff1681526020019081526020015f2061263c90919063ffffffff16565b905092915050565b5f73ffffffffffffffffffffffffffffffffffffffff168473ffffffffffffffffffffffffffffffffffffffff1603611b2d575f6040517fe602df05000000000000000000000000000000000000000000000000000000008152600401611b2491906132a5565b60405180910390fd5b5f73ffffffffffffffffffffffffffffffffffffffff168373ffffffffffffffffffffffffffffffffffffffff1603611b9d575f6040517f94280d62000000000000000000000000000000000000000000000000000000008152600401611b9491906132a5565b60405180910390fd5b8160015f8673ffffffffffffffffffffffffffffffffffffffff1673ffffffffffffffffffffffffffffffffffffffff1681526020019081526020015f205f8573ffffffffffffffffffffffffffffffffffffffff1673ffffffffffffffffffffffffffffffffffffffff1681526020019081526020015f20819055508015611c86578273ffffffffffffffffffffffffffffffffffffffff168473ffffffffffffffffffffffffffffffffffffffff167f8c5be1e5ebec7d5bd14f71427d1e84f3dd0314c0f7b2291e5b200ac8c7c3b92584604051611c7d91906131ce565b60405180910390a35b50505050565b611c9783838361270b565b505050565b5f65ffffffffffff8016821115611ced576030826040517f6dfcc650000000000000000000000000000000000000000000000000000000008152600401611ce4929190613c48565b60405180910390fd5b819050919050565b5f60018211611d0657819050611e8a565b5f8290505f600190507001000000000000000000000000000000008210611d3657608082901c9150604081901b90505b680100000000000000008210611d5557604082901c9150602081901b90505b6401000000008210611d7057602082901c9150601081901b90505b620100008210611d8957601082901c9150600881901b90505b6101008210611da157600882901c9150600481901b90505b60108210611db857600482901c9150600281901b90505b60048210611dc857600181901b90505b600181600302901c90506001818581611de457611de3613c6f565b5b048201901c90506001818581611dfd57611dfc613c6f565b5b048201901c90506001818581611e1657611e15613c6f565b5b048201901c90506001818581611e2f57611e2e613c6f565b5b048201901c90506001818581611e4857611e47613c6f565b5b048201901c90506001818581611e6157611e60613c6f565b5b048201901c9050611e83818581611e7b57611e7a613c6f565b5b0482116127b9565b8103925050505b919050565b5f825f528160205f2001905092915050565b5f5b81831015611f0b575f611eb684846127c4565b90508465ffffffffffff16611ecb8783611e8f565b5f015f9054906101000a900465ffffffffffff1665ffffffffffff161115611ef557809250611f05565b600181611f029190613916565b93505b50611ea3565b819050949350505050565b5f611f2082610d00565b9050919050565b8173ffffffffffffffffffffffffffffffffffffffff168373ffffffffffffffffffffffffffffffffffffffff1614158015611f6257505f81115b15612192575f73ffffffffffffffffffffffffffffffffffffffff168373ffffffffffffffffffffffffffffffffffffffff161461207c575f5f611fed60095f8773ffffffffffffffffffffffffffffffffffffffff1673ffffffffffffffffffffffffffffffffffffffff1681526020019081526020015f20611259611fe8866127e9565b612856565b79ffffffffffffffffffffffffffffffffffffffffffffffffffff16915079ffffffffffffffffffffffffffffffffffffffffffffffffffff1691508473ffffffffffffffffffffffffffffffffffffffff167fdec2bacdd2f05b59de34da9b523dff8be42e5e38e818c82fdb0bae774387a7248383604051612071929190613c9c565b60405180910390a250505b5f73ffffffffffffffffffffffffffffffffffffffff168273ffffffffffffffffffffffffffffffffffffffff1614612191575f5f61210260095f8673ffffffffffffffffffffffffffffffffffffffff1673ffffffffffffffffffffffffffffffffffffffff1681526020019081526020015f206112446120fd866127e9565b612856565b79ffffffffffffffffffffffffffffffffffffffffffffffffffff16915079ffffffffffffffffffffffffffffffffffffffffffffffffffff1691508373ffffffffffffffffffffffffffffffffffffffff167fdec2bacdd2f05b59de34da9b523dff8be42e5e38e818c82fdb0bae774387a7248383604051612186929190613c9c565b60405180910390a250505b5b505050565b5f815f01805490509050919050565b5f63ffffffff80168211156121f5576020826040517f6dfcc6500000000000000000000000000000000000000000000000000000000081526004016121ec929190613cfc565b60405180910390fd5b819050919050565b606060ff5f1b83146122195761221283612895565b90506122a4565b81805461222590613851565b80601f016020809104026020016040519081016040528092919081815260200182805461225190613851565b801561229c5780601f106122735761010080835404028352916020019161229c565b820191905f5260205f20905b81548152906001019060200180831161227f57829003601f168201915b505050505090505b92915050565b5f7f000000000000000000000000000000000000000000000000000000000000000073ffffffffffffffffffffffffffffffffffffffff163073ffffffffffffffffffffffffffffffffffffffff1614801561232557507f000000000000000000000000000000000000000000000000000000000000000046145b15612352577f0000000000000000000000000000000000000000000000000000000000000000905061235d565b61235a612907565b90505b90565b5f6040517f190100000000000000000000000000000000000000000000000000000000000081528360028201528260228201526042812091505092915050565b5f5f5f7f7fffffffffffffffffffffffffffffff5d576e7357a4501ddfe92f46681b20a0845f1c11156123dc575f60038592509250925061247d565b5f6001888888886040515f81526020016040526040516123ff9493929190613d23565b6020604051602081039080840390855afa15801561241f573d5f5f3e3d5ffd5b5050506020604051035190505f73ffffffffffffffffffffffffffffffffffffffff168173ffffffffffffffffffffffffffffffffffffffff1603612470575f60015f5f1b9350935093505061247d565b805f5f5f1b935093509350505b9450945094915050565b5f600381111561249a57612499613d66565b5b8260038111156124ad576124ac613d66565b5b03156125e557600160038111156124c7576124c6613d66565b5b8260038111156124da576124d9613d66565b5b03612511576040517ff645eedf00000000000000000000000000000000000000000000000000000000815260040160405180910390fd5b6002600381111561252557612524613d66565b5b82600381111561253857612537613d66565b5b0361257c57805f1c6040517ffce698f700000000000000000000000000000000000000000000000000000000815260040161257391906131ce565b60405180910390fd5b60038081111561258f5761258e613d66565b5b8260038111156125a2576125a1613d66565b5b036125e457806040517fd78bce0c0000000000000000000000000000000000000000000000000000000081526004016125db9190613d93565b60405180910390fd5b5b5050565b5f60075f8373ffffffffffffffffffffffffffffffffffffffff1673ffffffffffffffffffffffffffffffffffffffff1681526020019081526020015f205f815480929190600101919050559050919050565b612644612fed565b825f018263ffffffff168154811061265f5761265e613a19565b5b905f5260205f20016040518060400160405290815f82015f9054906101000a900465ffffffffffff1665ffffffffffff1665ffffffffffff1681526020015f820160069054906101000a900479ffffffffffffffffffffffffffffffffffffffffffffffffffff1679ffffffffffffffffffffffffffffffffffffffffffffffffffff1679ffffffffffffffffffffffffffffffffffffffffffffffffffff1681525050905092915050565b61271683838361299c565b5f73ffffffffffffffffffffffffffffffffffffffff168373ffffffffffffffffffffffffffffffffffffffff16036127a9575f612752610709565b90505f61275d612bb5565b9050808211156127a65781816040517f1cb15d2600000000000000000000000000000000000000000000000000000000815260040161279d929190613c9c565b60405180910390fd5b50505b6127b4838383612bd8565b505050565b5f8115159050919050565b5f60028284186127d49190613dac565b8284166127e19190613916565b905092915050565b5f79ffffffffffffffffffffffffffffffffffffffffffffffffffff801682111561284e5760d0826040517f6dfcc650000000000000000000000000000000000000000000000000000000008152600401612845929190613e15565b60405180910390fd5b819050919050565b5f5f612889612863610e76565b61287961286f8861195e565b868863ffffffff16565b87612c909092919063ffffffff16565b91509150935093915050565b60605f6128a183612cab565b90505f602067ffffffffffffffff8111156128bf576128be613a46565b5b6040519080825280601f01601f1916602001820160405280156128f15781602001600182028036833780820191505090505b5090508181528360208201528092505050919050565b5f7f8b73c3c69bb8fe3d512ecc4cf759cc79239f7b179b0ffacaa9a75d522b39400f7f00000000000000000000000000000000000000000000000000000000000000007f00000000000000000000000000000000000000000000000000000000000000004630604051602001612981959493929190613e3c565b60405160208183030381529060405280519060200120905090565b5f73ffffffffffffffffffffffffffffffffffffffff168373ffffffffffffffffffffffffffffffffffffffff16036129ec578060025f8282546129e09190613916565b92505081905550612aba565b5f5f5f8573ffffffffffffffffffffffffffffffffffffffff1673ffffffffffffffffffffffffffffffffffffffff1681526020019081526020015f2054905081811015612a75578381836040517fe450d38c000000000000000000000000000000000000000000000000000000008152600401612a6c93929190613b50565b60405180910390fd5b8181035f5f8673ffffffffffffffffffffffffffffffffffffffff1673ffffffffffffffffffffffffffffffffffffffff1681526020019081526020015f2081905550505b5f73ffffffffffffffffffffffffffffffffffffffff168273ffffffffffffffffffffffffffffffffffffffff1603612b01578060025f8282540392505081905550612b4b565b805f5f8473ffffffffffffffffffffffffffffffffffffffff1673ffffffffffffffffffffffffffffffffffffffff1681526020019081526020015f205f82825401925050819055505b8173ffffffffffffffffffffffffffffffffffffffff168373ffffffffffffffffffffffffffffffffffffffff167fddf252ad1be2c89b69c2b068fc378daa952ba7f163c4a11628f55a4df523b3ef83604051612ba891906131ce565b60405180910390a3505050565b5f79ffffffffffffffffffffffffffffffffffffffffffffffffffff8016905090565b5f73ffffffffffffffffffffffffffffffffffffffff168373ffffffffffffffffffffffffffffffffffffffff1603612c2457612c21600a611244612c1c846127e9565b612856565b50505b5f73ffffffffffffffffffffffffffffffffffffffff168273ffffffffffffffffffffffffffffffffffffffff1603612c7057612c6d600a611259612c68846127e9565b612856565b50505b612c8b612c7c84610a4b565b612c8584610a4b565b83611f27565b505050565b5f5f612c9f855f018585612cf9565b91509150935093915050565b5f5f60ff835f1c169050601f811115612cf0576040517fb3512b0c00000000000000000000000000000000000000000000000000000000815260040160405180910390fd5b80915050919050565b5f5f5f858054905090505f811115612f05575f612d2287600184612d1d9190613bac565b611e8f565b90505f815f015f9054906101000a900465ffffffffffff1690505f825f0160069054906101000a900479ffffffffffffffffffffffffffffffffffffffffffffffffffff1690508765ffffffffffff168265ffffffffffff161115612db3576040517f2520601d00000000000000000000000000000000000000000000000000000000815260040160405180910390fd5b8765ffffffffffff168265ffffffffffff1603612e1d5786835f0160066101000a81548179ffffffffffffffffffffffffffffffffffffffffffffffffffff021916908379ffffffffffffffffffffffffffffffffffffffffffffffffffff160217905550612ef6565b8860405180604001604052808a65ffffffffffff1681526020018979ffffffffffffffffffffffffffffffffffffffffffffffffffff16815250908060018154018082558091505060019003905f5260205f20015f909190919091505f820151815f015f6101000a81548165ffffffffffff021916908365ffffffffffff1602179055506020820151815f0160066101000a81548179ffffffffffffffffffffffffffffffffffffffffffffffffffff021916908379ffffffffffffffffffffffffffffffffffffffffffffffffffff16021790555050505b80879550955050505050612fe5565b8560405180604001604052808765ffffffffffff1681526020018679ffffffffffffffffffffffffffffffffffffffffffffffffffff16815250908060018154018082558091505060019003905f5260205f20015f909190919091505f820151815f015f6101000a81548165ffffffffffff021916908365ffffffffffff1602179055506020820151815f0160066101000a81548179ffffffffffffffffffffffffffffffffffffffffffffffffffff021916908379ffffffffffffffffffffffffffffffffffffffffffffffffffff16021790555050505f8492509250505b935093915050565b60405180604001604052805f65ffffffffffff1681526020015f79ffffffffffffffffffffffffffffffffffffffffffffffffffff1681525090565b5f81519050919050565b5f82825260208201905092915050565b8281835e5f83830152505050565b5f601f19601f8301169050919050565b5f61306b82613029565b6130758185613033565b9350613085818560208601613043565b61308e81613051565b840191505092915050565b5f6020820190508181035f8301526130b18184613061565b905092915050565b5f5ffd5b5f5ffd5b5f73ffffffffffffffffffffffffffffffffffffffff82169050919050565b5f6130ea826130c1565b9050919050565b6130fa816130e0565b8114613104575f5ffd5b50565b5f81359050613115816130f1565b92915050565b5f819050919050565b61312d8161311b565b8114613137575f5ffd5b50565b5f8135905061314881613124565b92915050565b5f5f60408385031215613164576131636130b9565b5b5f61317185828601613107565b92505060206131828582860161313a565b9150509250929050565b5f8115159050919050565b6131a08161318c565b82525050565b5f6020820190506131b95f830184613197565b92915050565b6131c88161311b565b82525050565b5f6020820190506131e15f8301846131bf565b92915050565b5f5f5f606084860312156131fe576131fd6130b9565b5b5f61320b86828701613107565b935050602061321c86828701613107565b925050604061322d8682870161313a565b9150509250925092565b5f6020828403121561324c5761324b6130b9565b5b5f61325984828501613107565b91505092915050565b5f60ff82169050919050565b61327781613262565b82525050565b5f6020820190506132905f83018461326e565b92915050565b61329f816130e0565b82525050565b5f6020820190506132b85f830184613296565b92915050565b5f5ffd5b5f5ffd5b5f5ffd5b5f5f83601f8401126132df576132de6132be565b5b8235905067ffffffffffffffff8111156132fc576132fb6132c2565b5b602083019150836020820283011115613318576133176132c6565b5b9250929050565b5f5f83601f840112613334576133336132be565b5b8235905067ffffffffffffffff811115613351576133506132c2565b5b60208301915083602082028301111561336d5761336c6132c6565b5b9250929050565b5f5f5f5f6040858703121561338c5761338b6130b9565b5b5f85013567ffffffffffffffff8111156133a9576133a86130bd565b5b6133b5878288016132ca565b9450945050602085013567ffffffffffffffff8111156133d8576133d76130bd565b5b6133e48782880161331f565b925092505092959194509250565b5f63ffffffff82169050919050565b61340a816133f2565b82525050565b5f6020820190506134235f830184613401565b92915050565b5f7fff0000000000000000000000000000000000000000000000000000000000000082169050919050565b61345d81613429565b82525050565b5f819050919050565b61347581613463565b82525050565b5f81519050919050565b5f82825260208201905092915050565b5f819050602082019050919050565b6134ad8161311b565b82525050565b5f6134be83836134a4565b60208301905092915050565b5f602082019050919050565b5f6134e08261347b565b6134ea8185613485565b93506134f583613495565b805f5b8381101561352557815161350c88826134b3565b9750613517836134ca565b9250506001810190506134f8565b5085935050505092915050565b5f60e0820190506135455f83018a613454565b81810360208301526135578189613061565b9050818103604083015261356b8188613061565b905061357a60608301876131bf565b6135876080830186613296565b61359460a083018561346c565b81810360c08301526135a681846134d6565b905098975050505050505050565b5f602082840312156135c9576135c86130b9565b5b5f6135d68482850161313a565b91505092915050565b5f65ffffffffffff82169050919050565b6135f9816135df565b82525050565b5f6020820190506136125f8301846135f0565b92915050565b61362181613262565b811461362b575f5ffd5b50565b5f8135905061363c81613618565b92915050565b61364b81613463565b8114613655575f5ffd5b50565b5f8135905061366681613642565b92915050565b5f5f5f5f5f5f60c08789031215613686576136856130b9565b5b5f61369389828a01613107565b96505060206136a489828a0161313a565b95505060406136b589828a0161313a565b94505060606136c689828a0161362e565b93505060806136d789828a01613658565b92505060a06136e889828a01613658565b9150509295509295509295565b5f5f6040838503121561370b5761370a6130b9565b5b5f61371885828601613107565b925050602061372985828601613107565b9150509250929050565b61373c816133f2565b8114613746575f5ffd5b50565b5f8135905061375781613733565b92915050565b5f5f60408385031215613773576137726130b9565b5b5f61378085828601613107565b925050602061379185828601613749565b9150509250929050565b6137a4816135df565b82525050565b5f79ffffffffffffffffffffffffffffffffffffffffffffffffffff82169050919050565b6137d8816137aa565b82525050565b604082015f8201516137f25f85018261379b565b50602082015161380560208501826137cf565b50505050565b5f60408201905061381e5f8301846137de565b92915050565b7f4e487b71000000000000000000000000000000000000000000000000000000005f52602260045260245ffd5b5f600282049050600182168061386857607f821691505b60208210810361387b5761387a613824565b5b50919050565b7f4e6f7420617574686f72697a656420746f206d696e74000000000000000000005f82015250565b5f6138b5601683613033565b91506138c082613881565b602082019050919050565b5f6020820190508181035f8301526138e2816138a9565b9050919050565b7f4e487b71000000000000000000000000000000000000000000000000000000005f52601160045260245ffd5b5f6139208261311b565b915061392b8361311b565b9250828201905080821115613943576139426138e9565b5b92915050565b7f45786365656473206d617820737570706c7900000000000000000000000000005f82015250565b5f61397d601283613033565b915061398882613949565b602082019050919050565b5f6020820190508181035f8301526139aa81613971565b9050919050565b7f417272617973206c656e677468206d69736d61746368000000000000000000005f82015250565b5f6139e5601683613033565b91506139f0826139b1565b602082019050919050565b5f6020820190508181035f830152613a12816139d9565b9050919050565b7f4e487b71000000000000000000000000000000000000000000000000000000005f52603260045260245ffd5b7f4e487b71000000000000000000000000000000000000000000000000000000005f52604160045260245ffd5b5f608082019050613a865f83018761346c565b613a936020830186613296565b613aa060408301856131bf565b613aad60608301846131bf565b95945050505050565b5f613ac0826137aa565b9150613acb836137aa565b9250828201905079ffffffffffffffffffffffffffffffffffffffffffffffffffff811115613afd57613afc6138e9565b5b92915050565b5f613b0d826137aa565b9150613b18836137aa565b9250828203905079ffffffffffffffffffffffffffffffffffffffffffffffffffff811115613b4a57613b496138e9565b5b92915050565b5f606082019050613b635f830186613296565b613b7060208301856131bf565b613b7d60408301846131bf565b949350505050565b5f604082019050613b985f8301856131bf565b613ba560208301846135f0565b9392505050565b5f613bb68261311b565b9150613bc18361311b565b9250828203905081811115613bd957613bd86138e9565b5b92915050565b5f604082019050613bf25f830185613296565b613bff60208301846131bf565b9392505050565b5f819050919050565b5f819050919050565b5f613c32613c2d613c2884613c06565b613c0f565b613262565b9050919050565b613c4281613c18565b82525050565b5f604082019050613c5b5f830185613c39565b613c6860208301846131bf565b9392505050565b7f4e487b71000000000000000000000000000000000000000000000000000000005f52601260045260245ffd5b5f604082019050613caf5f8301856131bf565b613cbc60208301846131bf565b9392505050565b5f819050919050565b5f613ce6613ce1613cdc84613cc3565b613c0f565b613262565b9050919050565b613cf681613ccc565b82525050565b5f604082019050613d0f5f830185613ced565b613d1c60208301846131bf565b9392505050565b5f608082019050613d365f83018761346c565b613d43602083018661326e565b613d50604083018561346c565b613d5d606083018461346c565b95945050505050565b7f4e487b71000000000000000000000000000000000000000000000000000000005f52602160045260245ffd5b5f602082019050613da65f83018461346c565b92915050565b5f613db68261311b565b9150613dc18361311b565b925082613dd157613dd0613c6f565b5b828204905092915050565b5f819050919050565b5f613dff613dfa613df584613ddc565b613c0f565b613262565b9050919050565b613e0f81613de5565b82525050565b5f604082019050613e285f830185613e06565b613e3560208301846131bf565b9392505050565b5f60a082019050613e4f5f83018861346c565b613e5c602083018761346c565b613e69604083018661346c565b613e7660608301856131bf565b613e836080830184613296565b969550505050505056fea26469706673582212209153b02599085a1f3bc7a6d9a374b257196537ee93d0e4e32fa96a6013bd225a64736f6c634300081e0033",
		"opcodes": "PUSH1 0x80 PUSH1 0x40 MSTORE CALLVALUE DUP1 ISZERO PUSH2 0xF JUMPI PUSH0 PUSH0 REVERT JUMPDEST POP PUSH1 0x4 CALLDATASIZE LT PUSH2 0x1E3 JUMPI PUSH0 CALLDATALOAD PUSH1 0xE0 SHR DUP1 PUSH4 0x70A08231 GT PUSH2 0x10D JUMPI DUP1 PUSH4 0x983B2D56 GT PUSH2 0xA0 JUMPI DUP1 PUSH4 0xDD62ED3E GT PUSH2 0x6F JUMPI DUP1 PUSH4 0xDD62ED3E EQ PUSH2 0x5AB JUMPI DUP1 PUSH4 0xF1127ED8 EQ PUSH2 0x5DB JUMPI DUP1 PUSH4 0xF2FDE38B EQ PUSH2 0x60B JUMPI DUP1 PUSH4 0xF46ECCC4 EQ PUSH2 0x627 JUMPI PUSH2 0x1E3 JUMP JUMPDEST DUP1 PUSH4 0x983B2D56 EQ PUSH2 0x513 JUMPI DUP1 PUSH4 0x9AB24EB0 EQ PUSH2 0x52F JUMPI DUP1 PUSH4 0xA9059CBB EQ PUSH2 0x55F JUMPI DUP1 PUSH4 0xC3CDA520 EQ PUSH2 0x58F JUMPI PUSH2 0x1E3 JUMP JUMPDEST DUP1 PUSH4 0x8DA5CB5B GT PUSH2 0xDC JUMPI DUP1 PUSH4 0x8DA5CB5B EQ PUSH2 0x489 JUMPI DUP1 PUSH4 0x8E539E8C EQ PUSH2 0x4A7 JUMPI DUP1 PUSH4 0x91DDADF4 EQ PUSH2 0x4D7 JUMPI DUP1 PUSH4 0x95D89B41 EQ PUSH2 0x4F5 JUMPI PUSH2 0x1E3 JUMP JUMPDEST DUP1 PUSH4 0x70A08231 EQ PUSH2 0x3FB JUMPI DUP1 PUSH4 0x715018A6 EQ PUSH2 0x42B JUMPI DUP1 PUSH4 0x7ECEBE00 EQ PUSH2 0x435 JUMPI DUP1 PUSH4 0x84B0196E EQ PUSH2 0x465 JUMPI PUSH2 0x1E3 JUMP JUMPDEST DUP1 PUSH4 0x32CB6B0C GT PUSH2 0x185 JUMPI DUP1 PUSH4 0x587CDE1E GT PUSH2 0x154 JUMPI DUP1 PUSH4 0x587CDE1E EQ PUSH2 0x363 JUMPI DUP1 PUSH4 0x5C19A95C EQ PUSH2 0x393 JUMPI DUP1 PUSH4 0x68573107 EQ PUSH2 0x3AF JUMPI DUP1 PUSH4 0x6FCFFF45 EQ PUSH2 0x3CB JUMPI PUSH2 0x1E3 JUMP JUMPDEST DUP1 PUSH4 0x32CB6B0C EQ PUSH2 0x2DB JUMPI DUP1 PUSH4 0x3A46B1A8 EQ PUSH2 0x2F9 JUMPI DUP1 PUSH4 0x40C10F19 EQ PUSH2 0x329 JUMPI DUP1 PUSH4 0x4BF5D7E9 EQ PUSH2 0x345 JUMPI PUSH2 0x1E3 JUMP JUMPDEST DUP1 PUSH4 0x23B872DD GT PUSH2 0x1C1 JUMPI DUP1 PUSH4 0x23B872DD EQ PUSH2 0x253 JUMPI DUP1 PUSH4 0x2FF2E9DC EQ PUSH2 0x283 JUMPI DUP1 PUSH4 0x3092AFD5 EQ PUSH2 0x2A1 JUMPI DUP1 PUSH4 0x313CE567 EQ PUSH2 0x2BD JUMPI PUSH2 0x1E3 JUMP JUMPDEST DUP1 PUSH4 0x6FDDE03 EQ PUSH2 0x1E7 JUMPI DUP1 PUSH4 0x95EA7B3 EQ PUSH2 0x205 JUMPI DUP1 PUSH4 0x18160DDD EQ PUSH2 0x235 JUMPI JUMPDEST PUSH0 PUSH0 REVERT JUMPDEST PUSH2 0x1EF PUSH2 0x657 JUMP JUMPDEST PUSH1 0x40 MLOAD PUSH2 0x1FC SWAP2 SWAP1 PUSH2 0x3099 JUMP JUMPDEST PUSH1 0x40 MLOAD DUP1 SWAP2 SUB SWAP1 RETURN JUMPDEST PUSH2 0x21F PUSH1 0x4 DUP1 CALLDATASIZE SUB DUP2 ADD SWAP1 PUSH2 0x21A SWAP2 SWAP1 PUSH2 0x314E JUMP JUMPDEST PUSH2 0x6E7 JUMP JUMPDEST PUSH1 0x40 MLOAD PUSH2 0x22C SWAP2 SWAP1 PUSH2 0x31A6 JUMP JUMPDEST PUSH1 0x40 MLOAD DUP1 SWAP2 SUB SWAP1 RETURN JUMPDEST PUSH2 0x23D PUSH2 0x709 JUMP JUMPDEST PUSH1 0x40 MLOAD PUSH2 0x24A SWAP2 SWAP1 PUSH2 0x31CE JUMP JUMPDEST PUSH1 0x40 MLOAD DUP1 SWAP2 SUB SWAP1 RETURN JUMPDEST PUSH2 0x26D PUSH1 0x4 DUP1 CALLDATASIZE SUB DUP2 ADD SWAP1 PUSH2 0x268 SWAP2 SWAP1 PUSH2 0x31E7 JUMP JUMPDEST PUSH2 0x712 JUMP JUMPDEST PUSH1 0x40 MLOAD PUSH2 0x27A SWAP2 SWAP1 PUSH2 0x31A6 JUMP JUMPDEST PUSH1 0x40 MLOAD DUP1 SWAP2 SUB SWAP1 RETURN JUMPDEST PUSH2 0x28B PUSH2 0x740 JUMP JUMPDEST PUSH1 0x40 MLOAD PUSH2 0x298 SWAP2 SWAP1 PUSH2 0x31CE JUMP JUMPDEST PUSH1 0x40 MLOAD DUP1 SWAP2 SUB SWAP1 RETURN JUMPDEST PUSH2 0x2BB PUSH1 0x4 DUP1 CALLDATASIZE SUB DUP2 ADD SWAP1 PUSH2 0x2B6 SWAP2 SWAP1 PUSH2 0x3237 JUMP JUMPDEST PUSH2 0x74E JUMP JUMPDEST STOP JUMPDEST PUSH2 0x2C5 PUSH2 0x7F0 JUMP JUMPDEST PUSH1 0x40 MLOAD PUSH2 0x2D2 SWAP2 SWAP1 PUSH2 0x327D JUMP JUMPDEST PUSH1 0x40 MLOAD DUP1 SWAP2 SUB SWAP1 RETURN JUMPDEST PUSH2 0x2E3 PUSH2 0x7F8 JUMP JUMPDEST PUSH1 0x40 MLOAD PUSH2 0x2F0 SWAP2 SWAP1 PUSH2 0x31CE JUMP JUMPDEST PUSH1 0x40 MLOAD DUP1 SWAP2 SUB SWAP1 RETURN JUMPDEST PUSH2 0x313 PUSH1 0x4 DUP1 CALLDATASIZE SUB DUP2 ADD SWAP1 PUSH2 0x30E SWAP2 SWAP1 PUSH2 0x314E JUMP JUMPDEST PUSH2 0x807 JUMP JUMPDEST PUSH1 0x40 MLOAD PUSH2 0x320 SWAP2 SWAP1 PUSH2 0x31CE JUMP JUMPDEST PUSH1 0x40 MLOAD DUP1 SWAP2 SUB SWAP1 RETURN JUMPDEST PUSH2 0x343 PUSH1 0x4 DUP1 CALLDATASIZE SUB DUP2 ADD SWAP1 PUSH2 0x33E SWAP2 SWAP1 PUSH2 0x314E JUMP JUMPDEST PUSH2 0x883 JUMP JUMPDEST STOP JUMPDEST PUSH2 0x34D PUSH2 0x9B7 JUMP JUMPDEST PUSH1 0x40 MLOAD PUSH2 0x35A SWAP2 SWAP1 PUSH2 0x3099 JUMP JUMPDEST PUSH1 0x40 MLOAD DUP1 SWAP2 SUB SWAP1 RETURN JUMPDEST PUSH2 0x37D PUSH1 0x4 DUP1 CALLDATASIZE SUB DUP2 ADD SWAP1 PUSH2 0x378 SWAP2 SWAP1 PUSH2 0x3237 JUMP JUMPDEST PUSH2 0xA4B JUMP JUMPDEST PUSH1 0x40 MLOAD PUSH2 0x38A SWAP2 SWAP1 PUSH2 0x32A5 JUMP JUMPDEST PUSH1 0x40 MLOAD DUP1 SWAP2 SUB SWAP1 RETURN JUMPDEST PUSH2 0x3AD PUSH1 0x4 DUP1 CALLDATASIZE SUB DUP2 ADD SWAP1 PUSH2 0x3A8 SWAP2 SWAP1 PUSH2 0x3237 JUMP JUMPDEST PUSH2 0xAB0 JUMP JUMPDEST STOP JUMPDEST PUSH2 0x3C9 PUSH1 0x4 DUP1 CALLDATASIZE SUB DUP2 ADD SWAP1 PUSH2 0x3C4 SWAP2 SWAP1 PUSH2 0x3374 JUMP JUMPDEST PUSH2 0xAC9 JUMP JUMPDEST STOP JUMPDEST PUSH2 0x3E5 PUSH1 0x4 DUP1 CALLDATASIZE SUB DUP2 ADD SWAP1 PUSH2 0x3E0 SWAP2 SWAP1 PUSH2 0x3237 JUMP JUMPDEST PUSH2 0xCEF JUMP JUMPDEST PUSH1 0x40 MLOAD PUSH2 0x3F2 SWAP2 SWAP1 PUSH2 0x3410 JUMP JUMPDEST PUSH1 0x40 MLOAD DUP1 SWAP2 SUB SWAP1 RETURN JUMPDEST PUSH2 0x415 PUSH1 0x4 DUP1 CALLDATASIZE SUB DUP2 ADD SWAP1 PUSH2 0x410 SWAP2 SWAP1 PUSH2 0x3237 JUMP JUMPDEST PUSH2 0xD00 JUMP JUMPDEST PUSH1 0x40 MLOAD PUSH2 0x422 SWAP2 SWAP1 PUSH2 0x31CE JUMP JUMPDEST PUSH1 0x40 MLOAD DUP1 SWAP2 SUB SWAP1 RETURN JUMPDEST PUSH2 0x433 PUSH2 0xD45 JUMP JUMPDEST STOP JUMPDEST PUSH2 0x44F PUSH1 0x4 DUP1 CALLDATASIZE SUB DUP2 ADD SWAP1 PUSH2 0x44A SWAP2 SWAP1 PUSH2 0x3237 JUMP JUMPDEST PUSH2 0xD58 JUMP JUMPDEST PUSH1 0x40 MLOAD PUSH2 0x45C SWAP2 SWAP1 PUSH2 0x31CE JUMP JUMPDEST PUSH1 0x40 MLOAD DUP1 SWAP2 SUB SWAP1 RETURN JUMPDEST PUSH2 0x46D PUSH2 0xD69 JUMP JUMPDEST PUSH1 0x40 MLOAD PUSH2 0x480 SWAP8 SWAP7 SWAP6 SWAP5 SWAP4 SWAP3 SWAP2 SWAP1 PUSH2 0x3532 JUMP JUMPDEST PUSH1 0x40 MLOAD DUP1 SWAP2 SUB SWAP1 RETURN JUMPDEST PUSH2 0x491 PUSH2 0xE0E JUMP JUMPDEST PUSH1 0x40 MLOAD PUSH2 0x49E SWAP2 SWAP1 PUSH2 0x32A5 JUMP JUMPDEST PUSH1 0x40 MLOAD DUP1 SWAP2 SUB SWAP1 RETURN JUMPDEST PUSH2 0x4C1 PUSH1 0x4 DUP1 CALLDATASIZE SUB DUP2 ADD SWAP1 PUSH2 0x4BC SWAP2 SWAP1 PUSH2 0x35B4 JUMP JUMPDEST PUSH2 0xE36 JUMP JUMPDEST PUSH1 0x40 MLOAD PUSH2 0x4CE SWAP2 SWAP1 PUSH2 0x31CE JUMP JUMPDEST PUSH1 0x40 MLOAD DUP1 SWAP2 SUB SWAP1 RETURN JUMPDEST PUSH2 0x4DF PUSH2 0xE76 JUMP JUMPDEST PUSH1 0x40 MLOAD PUSH2 0x4EC SWAP2 SWAP1 PUSH2 0x35FF JUMP JUMPDEST PUSH1 0x40 MLOAD DUP1 SWAP2 SUB SWAP1 RETURN JUMPDEST PUSH2 0x4FD PUSH2 0xE84 JUMP JUMPDEST PUSH1 0x40 MLOAD PUSH2 0x50A SWAP2 SWAP1 PUSH2 0x3099 JUMP JUMPDEST PUSH1 0x40 MLOAD DUP1 SWAP2 SUB SWAP1 RETURN JUMPDEST PUSH2 0x52D PUSH1 0x4 DUP1 CALLDATASIZE SUB DUP2 ADD SWAP1 PUSH2 0x528 SWAP2 SWAP1 PUSH2 0x3237 JUMP JUMPDEST PUSH2 0xF14 JUMP JUMPDEST STOP JUMPDEST PUSH2 0x549 PUSH1 0x4 DUP1 CALLDATASIZE SUB DUP2 ADD SWAP1 PUSH2 0x544 SWAP2 SWAP1 PUSH2 0x3237 JUMP JUMPDEST PUSH2 0xFB7 JUMP JUMPDEST PUSH1 0x40 MLOAD PUSH2 0x556 SWAP2 SWAP1 PUSH2 0x31CE JUMP JUMPDEST PUSH1 0x40 MLOAD DUP1 SWAP2 SUB SWAP1 RETURN JUMPDEST PUSH2 0x579 PUSH1 0x4 DUP1 CALLDATASIZE SUB DUP2 ADD SWAP1 PUSH2 0x574 SWAP2 SWAP1 PUSH2 0x314E JUMP JUMPDEST PUSH2 0x1020 JUMP JUMPDEST PUSH1 0x40 MLOAD PUSH2 0x586 SWAP2 SWAP1 PUSH2 0x31A6 JUMP JUMPDEST PUSH1 0x40 MLOAD DUP1 SWAP2 SUB SWAP1 RETURN JUMPDEST PUSH2 0x5A9 PUSH1 0x4 DUP1 CALLDATASIZE SUB DUP2 ADD SWAP1 PUSH2 0x5A4 SWAP2 SWAP1 PUSH2 0x366C JUMP JUMPDEST PUSH2 0x1042 JUMP JUMPDEST STOP JUMPDEST PUSH2 0x5C5 PUSH1 0x4 DUP1 CALLDATASIZE SUB DUP2 ADD SWAP1 PUSH2 0x5C0 SWAP2 SWAP1 PUSH2 0x36F5 JUMP JUMPDEST PUSH2 0x1107 JUMP JUMPDEST PUSH1 0x40 MLOAD PUSH2 0x5D2 SWAP2 SWAP1 PUSH2 0x31CE JUMP JUMPDEST PUSH1 0x40 MLOAD DUP1 SWAP2 SUB SWAP1 RETURN JUMPDEST PUSH2 0x5F5 PUSH1 0x4 DUP1 CALLDATASIZE SUB DUP2 ADD SWAP1 PUSH2 0x5F0 SWAP2 SWAP1 PUSH2 0x375D JUMP JUMPDEST PUSH2 0x1189 JUMP JUMPDEST PUSH1 0x40 MLOAD PUSH2 0x602 SWAP2 SWAP1 PUSH2 0x380B JUMP JUMPDEST PUSH1 0x40 MLOAD DUP1 SWAP2 SUB SWAP1 RETURN JUMPDEST PUSH2 0x625 PUSH1 0x4 DUP1 CALLDATASIZE SUB DUP2 ADD SWAP1 PUSH2 0x620 SWAP2 SWAP1 PUSH2 0x3237 JUMP JUMPDEST PUSH2 0x11A3 JUMP JUMPDEST STOP JUMPDEST PUSH2 0x641 PUSH1 0x4 DUP1 CALLDATASIZE SUB DUP2 ADD SWAP1 PUSH2 0x63C SWAP2 SWAP1 PUSH2 0x3237 JUMP JUMPDEST PUSH2 0x1227 JUMP JUMPDEST PUSH1 0x40 MLOAD PUSH2 0x64E SWAP2 SWAP1 PUSH2 0x31A6 JUMP JUMPDEST PUSH1 0x40 MLOAD DUP1 SWAP2 SUB SWAP1 RETURN JUMPDEST PUSH1 0x60 PUSH1 0x3 DUP1 SLOAD PUSH2 0x666 SWAP1 PUSH2 0x3851 JUMP JUMPDEST DUP1 PUSH1 0x1F ADD PUSH1 0x20 DUP1 SWAP2 DIV MUL PUSH1 0x20 ADD PUSH1 0x40 MLOAD SWAP1 DUP2 ADD PUSH1 0x40 MSTORE DUP1 SWAP3 SWAP2 SWAP1 DUP2 DUP2 MSTORE PUSH1 0x20 ADD DUP3 DUP1 SLOAD PUSH2 0x692 SWAP1 PUSH2 0x3851 JUMP JUMPDEST DUP1 ISZERO PUSH2 0x6DD JUMPI DUP1 PUSH1 0x1F LT PUSH2 0x6B4 JUMPI PUSH2 0x100 DUP1 DUP4 SLOAD DIV MUL DUP4 MSTORE SWAP2 PUSH1 0x20 ADD SWAP2 PUSH2 0x6DD JUMP JUMPDEST DUP3 ADD SWAP2 SWAP1 PUSH0 MSTORE PUSH1 0x20 PUSH0 KECCAK256 SWAP1 JUMPDEST DUP2 SLOAD DUP2 MSTORE SWAP1 PUSH1 0x1 ADD SWAP1 PUSH1 0x20 ADD DUP1 DUP4 GT PUSH2 0x6C0 JUMPI DUP3 SWAP1 SUB PUSH1 0x1F AND DUP3 ADD SWAP2 JUMPDEST POP POP POP POP POP SWAP1 POP SWAP1 JUMP JUMPDEST PUSH0 PUSH0 PUSH2 0x6F1 PUSH2 0x126E JUMP JUMPDEST SWAP1 POP PUSH2 0x6FE DUP2 DUP6 DUP6 PUSH2 0x1275 JUMP JUMPDEST PUSH1 0x1 SWAP2 POP POP SWAP3 SWAP2 POP POP JUMP JUMPDEST PUSH0 PUSH1 0x2 SLOAD SWAP1 POP SWAP1 JUMP JUMPDEST PUSH0 PUSH0 PUSH2 0x71C PUSH2 0x126E JUMP JUMPDEST SWAP1 POP PUSH2 0x729 DUP6 DUP3 DUP6 PUSH2 0x1287 JUMP JUMPDEST PUSH2 0x734 DUP6 DUP6 DUP6 PUSH2 0x131A JUMP JUMPDEST PUSH1 0x1 SWAP2 POP POP SWAP4 SWAP3 POP POP POP JUMP JUMPDEST PUSH10 0xD3C21BCECCEDA1000000 DUP2 JUMP JUMPDEST PUSH2 0x756 PUSH2 0x140A JUMP JUMPDEST PUSH0 PUSH1 0xC PUSH0 DUP4 PUSH20 0xFFFFFFFFFFFFFFFFFFFFFFFFFFFFFFFFFFFFFFFF AND PUSH20 0xFFFFFFFFFFFFFFFFFFFFFFFFFFFFFFFFFFFFFFFF AND DUP2 MSTORE PUSH1 0x20 ADD SWAP1 DUP2 MSTORE PUSH1 0x20 ADD PUSH0 KECCAK256 PUSH0 PUSH2 0x100 EXP DUP2 SLOAD DUP2 PUSH1 0xFF MUL NOT AND SWAP1 DUP4 ISZERO ISZERO MUL OR SWAP1 SSTORE POP DUP1 PUSH20 0xFFFFFFFFFFFFFFFFFFFFFFFFFFFFFFFFFFFFFFFF AND PUSH32 0xE94479A9F7E1952CC78F2D6BAAB678ADC1B772D936C6583DEF489E524CB66692 PUSH1 0x40 MLOAD PUSH1 0x40 MLOAD DUP1 SWAP2 SUB SWAP1 LOG2 POP JUMP JUMPDEST PUSH0 PUSH1 0x12 SWAP1 POP SWAP1 JUMP JUMPDEST PUSH11 0x84595161401484A000000 DUP2 JUMP JUMPDEST PUSH0 PUSH2 0x85F PUSH2 0x814 DUP4 PUSH2 0x1491 JUMP JUMPDEST PUSH1 0x9 PUSH0 DUP7 PUSH20 0xFFFFFFFFFFFFFFFFFFFFFFFFFFFFFFFFFFFFFFFF AND PUSH20 0xFFFFFFFFFFFFFFFFFFFFFFFFFFFFFFFFFFFFFFFF AND DUP2 MSTORE PUSH1 0x20 ADD SWAP1 DUP2 MSTORE PUSH1 0x20 ADD PUSH0 KECCAK256 PUSH2 0x14FC SWAP1 SWAP2 SWAP1 PUSH4 0xFFFFFFFF AND JUMP JUMPDEST PUSH26 0xFFFFFFFFFFFFFFFFFFFFFFFFFFFFFFFFFFFFFFFFFFFFFFFFFFFF AND SWAP1 POP SWAP3 SWAP2 POP POP JUMP JUMPDEST PUSH1 0xC PUSH0 CALLER PUSH20 0xFFFFFFFFFFFFFFFFFFFFFFFFFFFFFFFFFFFFFFFF AND PUSH20 0xFFFFFFFFFFFFFFFFFFFFFFFFFFFFFFFFFFFFFFFF AND DUP2 MSTORE PUSH1 0x20 ADD SWAP1 DUP2 MSTORE PUSH1 0x20 ADD PUSH0 KECCAK256 PUSH0 SWAP1 SLOAD SWAP1 PUSH2 0x100 EXP SWAP1 DIV PUSH1 0xFF AND DUP1 PUSH2 0x90A JUMPI POP PUSH2 0x8DB PUSH2 0xE0E JUMP JUMPDEST PUSH20 0xFFFFFFFFFFFFFFFFFFFFFFFFFFFFFFFFFFFFFFFF AND CALLER PUSH20 0xFFFFFFFFFFFFFFFFFFFFFFFFFFFFFFFFFFFFFFFF AND EQ JUMPDEST PUSH2 0x949 JUMPI PUSH1 0x40 MLOAD PUSH32 0x8C379A000000000000000000000000000000000000000000000000000000000 DUP2 MSTORE PUSH1 0x4 ADD PUSH2 0x940 SWAP1 PUSH2 0x38CB JUMP JUMPDEST PUSH1 0x40 MLOAD DUP1 SWAP2 SUB SWAP1 REVERT JUMPDEST PUSH11 0x84595161401484A000000 DUP2 PUSH2 0x95E PUSH2 0x709 JUMP JUMPDEST PUSH2 0x968 SWAP2 SWAP1 PUSH2 0x3916 JUMP JUMPDEST GT ISZERO PUSH2 0x9A9 JUMPI PUSH1 0x40 MLOAD PUSH32 0x8C379A000000000000000000000000000000000000000000000000000000000 DUP2 MSTORE PUSH1 0x4 ADD PUSH2 0x9A0 SWAP1 PUSH2 0x3993 JUMP JUMPDEST PUSH1 0x40 MLOAD DUP1 SWAP2 SUB SWAP1 REVERT JUMPDEST PUSH2 0x9B3 DUP3 DUP3 PUSH2 0x15EC JUMP JUMPDEST POP POP JUMP JUMPDEST PUSH1 0x60 PUSH2 0x9C1 PUSH2 0x166B JUMP JUMPDEST PUSH6 0xFFFFFFFFFFFF AND PUSH2 0x9D1 PUSH2 0xE76 JUMP JUMPDEST PUSH6 0xFFFFFFFFFFFF AND EQ PUSH2 0xA10 JUMPI PUSH1 0x40 MLOAD PUSH32 0x6FF0714000000000000000000000000000000000000000000000000000000000 DUP2 MSTORE PUSH1 0x4 ADD PUSH1 0x40 MLOAD DUP1 SWAP2 SUB SWAP1 REVERT JUMPDEST PUSH1 0x40 MLOAD DUP1 PUSH1 0x40 ADD PUSH1 0x40 MSTORE DUP1 PUSH1 0x1D DUP2 MSTORE PUSH1 0x20 ADD PUSH32 0x6D6F64653D626C6F636B6E756D6265722666726F6D3D64656661756C74000000 DUP2 MSTORE POP SWAP1 POP SWAP1 JUMP JUMPDEST PUSH0 PUSH1 0x8 PUSH0 DUP4 PUSH20 0xFFFFFFFFFFFFFFFFFFFFFFFFFFFFFFFFFFFFFFFF AND PUSH20 0xFFFFFFFFFFFFFFFFFFFFFFFFFFFFFFFFFFFFFFFF AND DUP2 MSTORE PUSH1 0x20 ADD SWAP1 DUP2 MSTORE PUSH1 0x20 ADD PUSH0 KECCAK256 PUSH0 SWAP1 SLOAD SWAP1 PUSH2 0x100 EXP SWAP1 DIV PUSH20 0xFFFFFFFFFFFFFFFFFFFFFFFFFFFFFFFFFFFFFFFF AND SWAP1 POP SWAP2 SWAP1 POP JUMP JUMPDEST PUSH0 PUSH2 0xAB9 PUSH2 0x126E JUMP JUMPDEST SWAP1 POP PUSH2 0xAC5 DUP2 DUP4 PUSH2 0x167A JUMP JUMPDEST POP POP JUMP JUMPDEST PUSH1 0xC PUSH0 CALLER PUSH20 0xFFFFFFFFFFFFFFFFFFFFFFFFFFFFFFFFFFFFFFFF AND PUSH20 0xFFFFFFFFFFFFFFFFFFFFFFFFFFFFFFFFFFFFFFFF AND DUP2 MSTORE PUSH1 0x20 ADD SWAP1 DUP2 MSTORE PUSH1 0x20 ADD PUSH0 KECCAK256 PUSH0 SWAP1 SLOAD SWAP1 PUSH2 0x100 EXP SWAP1 DIV PUSH1 0xFF AND DUP1 PUSH2 0xB50 JUMPI POP PUSH2 0xB21 PUSH2 0xE0E JUMP JUMPDEST PUSH20 0xFFFFFFFFFFFFFFFFFFFFFFFFFFFFFFFFFFFFFFFF AND CALLER PUSH20 0xFFFFFFFFFFFFFFFFFFFFFFFFFFFFFFFFFFFFFFFF AND EQ JUMPDEST PUSH2 0xB8F JUMPI PUSH1 0x40 MLOAD PUSH32 0x8C379A000000000000000000000000000000000000000000000000000000000 DUP2 MSTORE PUSH1 0x4 ADD PUSH2 0xB86 SWAP1 PUSH2 0x38CB JUMP JUMPDEST PUSH1 0x40 MLOAD DUP1 SWAP2 SUB SWAP1 REVERT JUMPDEST DUP2 DUP2 SWAP1 POP DUP5 DUP5 SWAP1 POP EQ PUSH2 0xBD7 JUMPI PUSH1 0x40 MLOAD PUSH32 0x8C379A000000000000000000000000000000000000000000000000000000000 DUP2 MSTORE PUSH1 0x4 ADD PUSH2 0xBCE SWAP1 PUSH2 0x39FB JUMP JUMPDEST PUSH1 0x40 MLOAD DUP1 SWAP2 SUB SWAP1 REVERT JUMPDEST PUSH0 PUSH0 SWAP1 POP PUSH0 PUSH0 SWAP1 POP JUMPDEST DUP4 DUP4 SWAP1 POP DUP2 LT ISZERO PUSH2 0xC1F JUMPI DUP4 DUP4 DUP3 DUP2 DUP2 LT PUSH2 0xBFE JUMPI PUSH2 0xBFD PUSH2 0x3A19 JUMP JUMPDEST JUMPDEST SWAP1 POP PUSH1 0x20 MUL ADD CALLDATALOAD DUP3 PUSH2 0xC10 SWAP2 SWAP1 PUSH2 0x3916 JUMP JUMPDEST SWAP2 POP DUP1 DUP1 PUSH1 0x1 ADD SWAP2 POP POP PUSH2 0xBE0 JUMP JUMPDEST POP PUSH11 0x84595161401484A000000 DUP2 PUSH2 0xC35 PUSH2 0x709 JUMP JUMPDEST PUSH2 0xC3F SWAP2 SWAP1 PUSH2 0x3916 JUMP JUMPDEST GT ISZERO PUSH2 0xC80 JUMPI PUSH1 0x40 MLOAD PUSH32 0x8C379A000000000000000000000000000000000000000000000000000000000 DUP2 MSTORE PUSH1 0x4 ADD PUSH2 0xC77 SWAP1 PUSH2 0x3993 JUMP JUMPDEST PUSH1 0x40 MLOAD DUP1 SWAP2 SUB SWAP1 REVERT JUMPDEST PUSH0 PUSH0 SWAP1 POP JUMPDEST DUP6 DUP6 SWAP1 POP DUP2 LT ISZERO PUSH2 0xCE7 JUMPI PUSH2 0xCDA DUP7 DUP7 DUP4 DUP2 DUP2 LT PUSH2 0xCA6 JUMPI PUSH2 0xCA5 PUSH2 0x3A19 JUMP JUMPDEST JUMPDEST SWAP1 POP PUSH1 0x20 MUL ADD PUSH1 0x20 DUP2 ADD SWAP1 PUSH2 0xCBB SWAP2 SWAP1 PUSH2 0x3237 JUMP JUMPDEST DUP6 DUP6 DUP5 DUP2 DUP2 LT PUSH2 0xCCE JUMPI PUSH2 0xCCD PUSH2 0x3A19 JUMP JUMPDEST JUMPDEST SWAP1 POP PUSH1 0x20 MUL ADD CALLDATALOAD PUSH2 0x15EC JUMP JUMPDEST DUP1 DUP1 PUSH1 0x1 ADD SWAP2 POP POP PUSH2 0xC85 JUMP JUMPDEST POP POP POP POP POP POP JUMP JUMPDEST PUSH0 PUSH2 0xCF9 DUP3 PUSH2 0x178A JUMP JUMPDEST SWAP1 POP SWAP2 SWAP1 POP JUMP JUMPDEST PUSH0 PUSH0 PUSH0 DUP4 PUSH20 0xFFFFFFFFFFFFFFFFFFFFFFFFFFFFFFFFFFFFFFFF AND PUSH20 0xFFFFFFFFFFFFFFFFFFFFFFFFFFFFFFFFFFFFFFFF AND DUP2 MSTORE PUSH1 0x20 ADD SWAP1 DUP2 MSTORE PUSH1 0x20 ADD PUSH0 KECCAK256 SLOAD SWAP1 POP SWAP2 SWAP1 POP JUMP JUMPDEST PUSH2 0xD4D PUSH2 0x140A JUMP JUMPDEST PUSH2 0xD56 PUSH0 PUSH2 0x17DF JUMP JUMPDEST JUMP JUMPDEST PUSH0 PUSH2 0xD62 DUP3 PUSH2 0x18A2 JUMP JUMPDEST SWAP1 POP SWAP2 SWAP1 POP JUMP JUMPDEST PUSH0 PUSH1 0x60 DUP1 PUSH0 PUSH0 PUSH0 PUSH1 0x60 PUSH2 0xD7A PUSH2 0x18E8 JUMP JUMPDEST PUSH2 0xD82 PUSH2 0x1923 JUMP JUMPDEST CHAINID ADDRESS PUSH0 PUSH0 SHL PUSH0 PUSH8 0xFFFFFFFFFFFFFFFF DUP2 GT ISZERO PUSH2 0xDA1 JUMPI PUSH2 0xDA0 PUSH2 0x3A46 JUMP JUMPDEST JUMPDEST PUSH1 0x40 MLOAD SWAP1 DUP1 DUP3 MSTORE DUP1 PUSH1 0x20 MUL PUSH1 0x20 ADD DUP3 ADD PUSH1 0x40 MSTORE DUP1 ISZERO PUSH2 0xDCF JUMPI DUP2 PUSH1 0x20 ADD PUSH1 0x20 DUP3 MUL DUP1 CALLDATASIZE DUP4 CALLDATACOPY DUP1 DUP3 ADD SWAP2 POP POP SWAP1 POP JUMPDEST POP PUSH32 0xF00000000000000000000000000000000000000000000000000000000000000 SWAP6 SWAP5 SWAP4 SWAP3 SWAP2 SWAP1 SWAP7 POP SWAP7 POP SWAP7 POP SWAP7 POP SWAP7 POP SWAP7 POP SWAP7 POP SWAP1 SWAP2 SWAP3 SWAP4 SWAP5 SWAP6 SWAP7 JUMP JUMPDEST PUSH0 PUSH1 0xB PUSH0 SWAP1 SLOAD SWAP1 PUSH2 0x100 EXP SWAP1 DIV PUSH20 0xFFFFFFFFFFFFFFFFFFFFFFFFFFFFFFFFFFFFFFFF AND SWAP1 POP SWAP1 JUMP JUMPDEST PUSH0 PUSH2 0xE53 PUSH2 0xE43 DUP4 PUSH2 0x1491 JUMP JUMPDEST PUSH1 0xA PUSH2 0x14FC SWAP1 SWAP2 SWAP1 PUSH4 0xFFFFFFFF AND JUMP JUMPDEST PUSH26 0xFFFFFFFFFFFFFFFFFFFFFFFFFFFFFFFFFFFFFFFFFFFFFFFFFFFF AND SWAP1 POP SWAP2 SWAP1 POP JUMP JUMPDEST PUSH0 PUSH2 0xE7F PUSH2 0x166B JUMP JUMPDEST SWAP1 POP SWAP1 JUMP JUMPDEST PUSH1 0x60 PUSH1 0x4 DUP1 SLOAD PUSH2 0xE93 SWAP1 PUSH2 0x3851 JUMP JUMPDEST DUP1 PUSH1 0x1F ADD PUSH1 0x20 DUP1 SWAP2 DIV MUL PUSH1 0x20 ADD PUSH1 0x40 MLOAD SWAP1 DUP2 ADD PUSH1 0x40 MSTORE DUP1 SWAP3 SWAP2 SWAP1 DUP2 DUP2 MSTORE PUSH1 0x20 ADD DUP3 DUP1 SLOAD PUSH2 0xEBF SWAP1 PUSH2 0x3851 JUMP JUMPDEST DUP1 ISZERO PUSH2 0xF0A JUMPI DUP1 PUSH1 0x1F LT PUSH2 0xEE1 JUMPI PUSH2 0x100 DUP1 DUP4 SLOAD DIV MUL DUP4 MSTORE SWAP2 PUSH1 0x20 ADD SWAP2 PUSH2 0xF0A JUMP JUMPDEST DUP3 ADD SWAP2 SWAP1 PUSH0 MSTORE PUSH1 0x20 PUSH0 KECCAK256 SWAP1 JUMPDEST DUP2 SLOAD DUP2 MSTORE SWAP1 PUSH1 0x1 ADD SWAP1 PUSH1 0x20 ADD DUP1 DUP4 GT PUSH2 0xEED JUMPI DUP3 SWAP1 SUB PUSH1 0x1F AND DUP3 ADD SWAP2 JUMPDEST POP POP POP POP POP SWAP1 POP SWAP1 JUMP JUMPDEST PUSH2 0xF1C PUSH2 0x140A JUMP JUMPDEST PUSH1 0x1 PUSH1 0xC PUSH0 DUP4 PUSH20 0xFFFFFFFFFFFFFFFFFFFFFFFFFFFFFFFFFFFFFFFF AND PUSH20 0xFFFFFFFFFFFFFFFFFFFFFFFFFFFFFFFFFFFFFFFF AND DUP2 MSTORE PUSH1 0x20 ADD SWAP1 DUP2 MSTORE PUSH1 0x20 ADD PUSH0 KECCAK256 PUSH0 PUSH2 0x100 EXP DUP2 SLOAD DUP2 PUSH1 0xFF MUL NOT AND SWAP1 DUP4 ISZERO ISZERO MUL OR SWAP1 SSTORE POP DUP1 PUSH20 0xFFFFFFFFFFFFFFFFFFFFFFFFFFFFFFFFFFFFFFFF AND PUSH32 0x6AE172837EA30B801FBFCDD4108AA1D5BF8FF775444FD70256B44E6BF3DFC3F6 PUSH1 0x40 MLOAD PUSH1 0x40 MLOAD DUP1 SWAP2 SUB SWAP1 LOG2 POP JUMP JUMPDEST PUSH0 PUSH2 0xFFD PUSH1 0x9 PUSH0 DUP5 PUSH20 0xFFFFFFFFFFFFFFFFFFFFFFFFFFFFFFFFFFFFFFFF AND PUSH20 0xFFFFFFFFFFFFFFFFFFFFFFFFFFFFFFFFFFFFFFFF AND DUP2 MSTORE PUSH1 0x20 ADD SWAP1 DUP2 MSTORE PUSH1 0x20 ADD PUSH0 KECCAK256 PUSH2 0x195E JUMP JUMPDEST PUSH26 0xFFFFFFFFFFFFFFFFFFFFFFFFFFFFFFFFFFFFFFFFFFFFFFFFFFFF AND SWAP1 POP SWAP2 SWAP1 POP JUMP JUMPDEST PUSH0 PUSH0 PUSH2 0x102A PUSH2 0x126E JUMP JUMPDEST SWAP1 POP PUSH2 0x1037 DUP2 DUP6 DUP6 PUSH2 0x131A JUMP JUMPDEST PUSH1 0x1 SWAP2 POP POP SWAP3 SWAP2 POP POP JUMP JUMPDEST DUP4 TIMESTAMP GT ISZERO PUSH2 0x1087 JUMPI DUP4 PUSH1 0x40 MLOAD PUSH32 0x4683AF0E00000000000000000000000000000000000000000000000000000000 DUP2 MSTORE PUSH1 0x4 ADD PUSH2 0x107E SWAP2 SWAP1 PUSH2 0x31CE JUMP JUMPDEST PUSH1 0x40 MLOAD DUP1 SWAP2 SUB SWAP1 REVERT JUMPDEST PUSH0 PUSH2 0x10E8 PUSH2 0x10E0 PUSH32 0xE48329057BFD03D55E49B547132E39CFFD9C1820AD7B9D4C5307691425D15ADF DUP10 DUP10 DUP10 PUSH1 0x40 MLOAD PUSH1 0x20 ADD PUSH2 0x10C5 SWAP5 SWAP4 SWAP3 SWAP2 SWAP1 PUSH2 0x3A73 JUMP JUMPDEST PUSH1 0x40 MLOAD PUSH1 0x20 DUP2 DUP4 SUB SUB DUP2 MSTORE SWAP1 PUSH1 0x40 MSTORE DUP1 MLOAD SWAP1 PUSH1 0x20 ADD KECCAK256 PUSH2 0x19C0 JUMP JUMPDEST DUP6 DUP6 DUP6 PUSH2 0x19D9 JUMP JUMPDEST SWAP1 POP PUSH2 0x10F4 DUP2 DUP8 PUSH2 0x1A07 JUMP JUMPDEST PUSH2 0x10FE DUP2 DUP9 PUSH2 0x167A JUMP JUMPDEST POP POP POP POP POP POP POP JUMP JUMPDEST PUSH0 PUSH1 0x1 PUSH0 DUP5 PUSH20 0xFFFFFFFFFFFFFFFFFFFFFFFFFFFFFFFFFFFFFFFF AND PUSH20 0xFFFFFFFFFFFFFFFFFFFFFFFFFFFFFFFFFFFFFFFF AND DUP2 MSTORE PUSH1 0x20 ADD SWAP1 DUP2 MSTORE PUSH1 0x20 ADD PUSH0 KECCAK256 PUSH0 DUP4 PUSH20 0xFFFFFFFFFFFFFFFFFFFFFFFFFFFFFFFFFFFFFFFF AND PUSH20 0xFFFFFFFFFFFFFFFFFFFFFFFFFFFFFFFFFFFFFFFF AND DUP2 MSTORE PUSH1 0x20 ADD SWAP1 DUP2 MSTORE PUSH1 0x20 ADD PUSH0 KECCAK256 SLOAD SWAP1 POP SWAP3 SWAP2 POP POP JUMP JUMPDEST PUSH2 0x1191 PUSH2 0x2FED JUMP JUMPDEST PUSH2 0x119B DUP4 DUP4 PUSH2 0x1A5E JUMP JUMPDEST SWAP1 POP SWAP3 SWAP2 POP POP JUMP JUMPDEST PUSH2 0x11AB PUSH2 0x140A JUMP JUMPDEST PUSH0 PUSH20 0xFFFFFFFFFFFFFFFFFFFFFFFFFFFFFFFFFFFFFFFF AND DUP2 PUSH20 0xFFFFFFFFFFFFFFFFFFFFFFFFFFFFFFFFFFFFFFFF AND SUB PUSH2 0x121B JUMPI PUSH0 PUSH1 0x40 MLOAD PUSH32 0x1E4FBDF700000000000000000000000000000000000000000000000000000000 DUP2 MSTORE PUSH1 0x4 ADD PUSH2 0x1212 SWAP2 SWAP1 PUSH2 0x32A5 JUMP JUMPDEST PUSH1 0x40 MLOAD DUP1 SWAP2 SUB SWAP1 REVERT JUMPDEST PUSH2 0x1224 DUP2 PUSH2 0x17DF JUMP JUMPDEST POP JUMP JUMPDEST PUSH1 0xC PUSH1 0x20 MSTORE DUP1 PUSH0 MSTORE PUSH1 0x40 PUSH0 KECCAK256 PUSH0 SWAP2 POP SLOAD SWAP1 PUSH2 0x100 EXP SWAP1 DIV PUSH1 0xFF AND DUP2 JUMP JUMPDEST PUSH0 DUP2 DUP4 PUSH2 0x1251 SWAP2 SWAP1 PUSH2 0x3AB6 JUMP JUMPDEST SWAP1 POP SWAP3 SWAP2 POP POP JUMP JUMPDEST PUSH0 DUP2 DUP4 PUSH2 0x1266 SWAP2 SWAP1 PUSH2 0x3B03 JUMP JUMPDEST SWAP1 POP SWAP3 SWAP2 POP POP JUMP JUMPDEST PUSH0 CALLER SWAP1 POP SWAP1 JUMP JUMPDEST PUSH2 0x1282 DUP4 DUP4 DUP4 PUSH1 0x1 PUSH2 0x1ABD JUMP JUMPDEST POP POP POP JUMP JUMPDEST PUSH0 PUSH2 0x1292 DUP5 DUP5 PUSH2 0x1107 JUMP JUMPDEST SWAP1 POP PUSH32 0xFFFFFFFFFFFFFFFFFFFFFFFFFFFFFFFFFFFFFFFFFFFFFFFFFFFFFFFFFFFFFFFF DUP2 LT ISZERO PUSH2 0x1314 JUMPI DUP2 DUP2 LT ISZERO PUSH2 0x1305 JUMPI DUP3 DUP2 DUP4 PUSH1 0x40 MLOAD PUSH32 0xFB8F41B200000000000000000000000000000000000000000000000000000000 DUP2 MSTORE PUSH1 0x4 ADD PUSH2 0x12FC SWAP4 SWAP3 SWAP2 SWAP1 PUSH2 0x3B50 JUMP JUMPDEST PUSH1 0x40 MLOAD DUP1 SWAP2 SUB SWAP1 REVERT JUMPDEST PUSH2 0x1313 DUP5 DUP5 DUP5 DUP5 SUB PUSH0 PUSH2 0x1ABD JUMP JUMPDEST JUMPDEST POP POP POP POP JUMP JUMPDEST PUSH0 PUSH20 0xFFFFFFFFFFFFFFFFFFFFFFFFFFFFFFFFFFFFFFFF AND DUP4 PUSH20 0xFFFFFFFFFFFFFFFFFFFFFFFFFFFFFFFFFFFFFFFF AND SUB PUSH2 0x138A JUMPI PUSH0 PUSH1 0x40 MLOAD PUSH32 0x96C6FD1E00000000000000000000000000000000000000000000000000000000 DUP2 MSTORE PUSH1 0x4 ADD PUSH2 0x1381 SWAP2 SWAP1 PUSH2 0x32A5 JUMP JUMPDEST PUSH1 0x40 MLOAD DUP1 SWAP2 SUB SWAP1 REVERT JUMPDEST PUSH0 PUSH20 0xFFFFFFFFFFFFFFFFFFFFFFFFFFFFFFFFFFFFFFFF AND DUP3 PUSH20 0xFFFFFFFFFFFFFFFFFFFFFFFFFFFFFFFFFFFFFFFF AND SUB PUSH2 0x13FA JUMPI PUSH0 PUSH1 0x40 MLOAD PUSH32 0xEC442F0500000000000000000000000000000000000000000000000000000000 DUP2 MSTORE PUSH1 0x4 ADD PUSH2 0x13F1 SWAP2 SWAP1 PUSH2 0x32A5 JUMP JUMPDEST PUSH1 0x40 MLOAD DUP1 SWAP2 SUB SWAP1 REVERT JUMPDEST PUSH2 0x1405 DUP4 DUP4 DUP4 PUSH2 0x1C8C JUMP JUMPDEST POP POP POP JUMP JUMPDEST PUSH2 0x1412 PUSH2 0x126E JUMP JUMPDEST PUSH20 0xFFFFFFFFFFFFFFFFFFFFFFFFFFFFFFFFFFFFFFFF AND PUSH2 0x1430 PUSH2 0xE0E JUMP JUMPDEST PUSH20 0xFFFFFFFFFFFFFFFFFFFFFFFFFFFFFFFFFFFFFFFF AND EQ PUSH2 0x148F JUMPI PUSH2 0x1453 PUSH2 0x126E JUMP JUMPDEST PUSH1 0x40 MLOAD PUSH32 0x118CDAA700000000000000000000000000000000000000000000000000000000 DUP2 MSTORE PUSH1 0x4 ADD PUSH2 0x1486 SWAP2 SWAP1 PUSH2 0x32A5 JUMP JUMPDEST PUSH1 0x40 MLOAD DUP1 SWAP2 SUB SWAP1 REVERT JUMPDEST JUMP JUMPDEST PUSH0 PUSH0 PUSH2 0x149B PUSH2 0xE76 JUMP JUMPDEST SWAP1 POP DUP1 PUSH6 0xFFFFFFFFFFFF AND DUP4 LT PUSH2 0x14EB JUMPI DUP3 DUP2 PUSH1 0x40 MLOAD PUSH32 0xECD3F81E00000000000000000000000000000000000000000000000000000000 DUP2 MSTORE PUSH1 0x4 ADD PUSH2 0x14E2 SWAP3 SWAP2 SWAP1 PUSH2 0x3B85 JUMP JUMPDEST PUSH1 0x40 MLOAD DUP1 SWAP2 SUB SWAP1 REVERT JUMPDEST PUSH2 0x14F4 DUP4 PUSH2 0x1C9C JUMP JUMPDEST SWAP2 POP POP SWAP2 SWAP1 POP JUMP JUMPDEST PUSH0 PUSH0 DUP4 PUSH0 ADD DUP1 SLOAD SWAP1 POP SWAP1 POP PUSH0 PUSH0 SWAP1 POP PUSH0 DUP3 SWAP1 POP PUSH1 0x5 DUP4 GT ISZERO PUSH2 0x1580 JUMPI PUSH0 PUSH2 0x1522 DUP5 PUSH2 0x1CF5 JUMP JUMPDEST DUP5 PUSH2 0x152D SWAP2 SWAP1 PUSH2 0x3BAC JUMP JUMPDEST SWAP1 POP PUSH2 0x153B DUP8 PUSH0 ADD DUP3 PUSH2 0x1E8F JUMP JUMPDEST PUSH0 ADD PUSH0 SWAP1 SLOAD SWAP1 PUSH2 0x100 EXP SWAP1 DIV PUSH6 0xFFFFFFFFFFFF AND PUSH6 0xFFFFFFFFFFFF AND DUP7 PUSH6 0xFFFFFFFFFFFF AND LT ISZERO PUSH2 0x156E JUMPI DUP1 SWAP2 POP PUSH2 0x157E JUMP JUMPDEST PUSH1 0x1 DUP2 PUSH2 0x157B SWAP2 SWAP1 PUSH2 0x3916 JUMP JUMPDEST SWAP3 POP JUMPDEST POP JUMPDEST PUSH0 PUSH2 0x158F DUP8 PUSH0 ADD DUP8 DUP6 DUP6 PUSH2 0x1EA1 JUMP JUMPDEST SWAP1 POP PUSH0 DUP2 EQ PUSH2 0x15DE JUMPI PUSH2 0x15B0 DUP8 PUSH0 ADD PUSH1 0x1 DUP4 PUSH2 0x15AB SWAP2 SWAP1 PUSH2 0x3BAC JUMP JUMPDEST PUSH2 0x1E8F JUMP JUMPDEST PUSH0 ADD PUSH1 0x6 SWAP1 SLOAD SWAP1 PUSH2 0x100 EXP SWAP1 DIV PUSH26 0xFFFFFFFFFFFFFFFFFFFFFFFFFFFFFFFFFFFFFFFFFFFFFFFFFFFF AND PUSH2 0x15E0 JUMP JUMPDEST PUSH0 JUMPDEST SWAP5 POP POP POP POP POP SWAP3 SWAP2 POP POP JUMP JUMPDEST PUSH0 PUSH20 0xFFFFFFFFFFFFFFFFFFFFFFFFFFFFFFFFFFFFFFFF AND DUP3 PUSH20 0xFFFFFFFFFFFFFFFFFFFFFFFFFFFFFFFFFFFFFFFF AND SUB PUSH2 0x165C JUMPI PUSH0 PUSH1 0x40 MLOAD PUSH32 0xEC442F0500000000000000000000000000000000000000000000000000000000 DUP2 MSTORE PUSH1 0x4 ADD PUSH2 0x1653 SWAP2 SWAP1 PUSH2 0x32A5 JUMP JUMPDEST PUSH1 0x40 MLOAD DUP1 SWAP2 SUB SWAP1 REVERT JUMPDEST PUSH2 0x1667 PUSH0 DUP4 DUP4 PUSH2 0x1C8C JUMP JUMPDEST POP POP JUMP JUMPDEST PUSH0 PUSH2 0x1675 NUMBER PUSH2 0x1C9C JUMP JUMPDEST SWAP1 POP SWAP1 JUMP JUMPDEST PUSH0 PUSH2 0x1684 DUP4 PUSH2 0xA4B JUMP JUMPDEST SWAP1 POP DUP2 PUSH1 0x8 PUSH0 DUP6 PUSH20 0xFFFFFFFFFFFFFFFFFFFFFFFFFFFFFFFFFFFFFFFF AND PUSH20 0xFFFFFFFFFFFFFFFFFFFFFFFFFFFFFFFFFFFFFFFF AND DUP2 MSTORE PUSH1 0x20 ADD SWAP1 DUP2 MSTORE PUSH1 0x20 ADD PUSH0 KECCAK256 PUSH0 PUSH2 0x100 EXP DUP2 SLOAD DUP2 PUSH20 0xFFFFFFFFFFFFFFFFFFFFFFFFFFFFFFFFFFFFFFFF MUL NOT AND SWAP1 DUP4 PUSH20 0xFFFFFFFFFFFFFFFFFFFFFFFFFFFFFFFFFFFFFFFF AND MUL OR SWAP1 SSTORE POP DUP2 PUSH20 0xFFFFFFFFFFFFFFFFFFFFFFFFFFFFFFFFFFFFFFFF AND DUP2 PUSH20 0xFFFFFFFFFFFFFFFFFFFFFFFFFFFFFFFFFFFFFFFF AND DUP5 PUSH20 0xFFFFFFFFFFFFFFFFFFFFFFFFFFFFFFFFFFFFFFFF AND PUSH32 0x3134E8A2E6D97E929A7E54011EA5485D7D196DD5F0BA4D4EF95803E8E3FC257F PUSH1 0x40 MLOAD PUSH1 0x40 MLOAD DUP1 SWAP2 SUB SWAP1 LOG4 PUSH2 0x1785 DUP2 DUP4 PUSH2 0x1780 DUP7 PUSH2 0x1F16 JUMP JUMPDEST PUSH2 0x1F27 JUMP JUMPDEST POP POP POP JUMP JUMPDEST PUSH0 PUSH2 0x17D8 PUSH2 0x17D3 PUSH1 0x9 PUSH0 DUP6 PUSH20 0xFFFFFFFFFFFFFFFFFFFFFFFFFFFFFFFFFFFFFFFF AND PUSH20 0xFFFFFFFFFFFFFFFFFFFFFFFFFFFFFFFFFFFFFFFF AND DUP2 MSTORE PUSH1 0x20 ADD SWAP1 DUP2 MSTORE PUSH1 0x20 ADD PUSH0 KECCAK256 PUSH2 0x2197 JUMP JUMPDEST PUSH2 0x21A6 JUMP JUMPDEST SWAP1 POP SWAP2 SWAP1 POP JUMP JUMPDEST PUSH0 PUSH1 0xB PUSH0 SWAP1 SLOAD SWAP1 PUSH2 0x100 EXP SWAP1 DIV PUSH20 0xFFFFFFFFFFFFFFFFFFFFFFFFFFFFFFFFFFFFFFFF AND SWAP1 POP DUP2 PUSH1 0xB PUSH0 PUSH2 0x100 EXP DUP2 SLOAD DUP2 PUSH20 0xFFFFFFFFFFFFFFFFFFFFFFFFFFFFFFFFFFFFFFFF MUL NOT AND SWAP1 DUP4 PUSH20 0xFFFFFFFFFFFFFFFFFFFFFFFFFFFFFFFFFFFFFFFF AND MUL OR SWAP1 SSTORE POP DUP2 PUSH20 0xFFFFFFFFFFFFFFFFFFFFFFFFFFFFFFFFFFFFFFFF AND DUP2 PUSH20 0xFFFFFFFFFFFFFFFFFFFFFFFFFFFFFFFFFFFFFFFF AND PUSH32 0x8BE0079C531659141344CD1FD0A4F28419497F9722A3DAAFE3B4186F6B6457E0 PUSH1 0x40 MLOAD PUSH1 0x40 MLOAD DUP1 SWAP2 SUB SWAP1 LOG3 POP POP JUMP JUMPDEST PUSH0 PUSH1 0x7 PUSH0 DUP4 PUSH20 0xFFFFFFFFFFFFFFFFFFFFFFFFFFFFFFFFFFFFFFFF AND PUSH20 0xFFFFFFFFFFFFFFFFFFFFFFFFFFFFFFFFFFFFFFFF AND DUP2 MSTORE PUSH1 0x20 ADD SWAP1 DUP2 MSTORE PUSH1 0x20 ADD PUSH0 KECCAK256 SLOAD SWAP1 POP SWAP2 SWAP1 POP JUMP JUMPDEST PUSH1 0x60 PUSH2 0x191E PUSH1 0x5 PUSH32 0x0 PUSH2 0x21FD SWAP1 SWAP2 SWAP1 PUSH4 0xFFFFFFFF AND JUMP JUMPDEST SWAP1 POP SWAP1 JUMP JUMPDEST PUSH1 0x60 PUSH2 0x1959 PUSH1 0x6 PUSH32 0x0 PUSH2 0x21FD SWAP1 SWAP2 SWAP1 PUSH4 0xFFFFFFFF AND JUMP JUMPDEST SWAP1 POP SWAP1 JUMP JUMPDEST PUSH0 PUSH0 DUP3 PUSH0 ADD DUP1 SLOAD SWAP1 POP SWAP1 POP PUSH0 DUP2 EQ PUSH2 0x19B6 JUMPI PUSH2 0x1988 DUP4 PUSH0 ADD PUSH1 0x1 DUP4 PUSH2 0x1983 SWAP2 SWAP1 PUSH2 0x3BAC JUMP JUMPDEST PUSH2 0x1E8F JUMP JUMPDEST PUSH0 ADD PUSH1 0x6 SWAP1 SLOAD SWAP1 PUSH2 0x100 EXP SWAP1 DIV PUSH26 0xFFFFFFFFFFFFFFFFFFFFFFFFFFFFFFFFFFFFFFFFFFFFFFFFFFFF AND PUSH2 0x19B8 JUMP JUMPDEST PUSH0 JUMPDEST SWAP2 POP POP SWAP2 SWAP1 POP JUMP JUMPDEST PUSH0 PUSH2 0x19D2 PUSH2 0x19CC PUSH2 0x22AA JUMP JUMPDEST DUP4 PUSH2 0x2360 JUMP JUMPDEST SWAP1 POP SWAP2 SWAP1 POP JUMP JUMPDEST PUSH0 PUSH0 PUSH0 PUSH0 PUSH2 0x19E9 DUP9 DUP9 DUP9 DUP9 PUSH2 0x23A0 JUMP JUMPDEST SWAP3 POP SWAP3 POP SWAP3 POP PUSH2 0x19F9 DUP3 DUP3 PUSH2 0x2487 JUMP JUMPDEST DUP3 SWAP4 POP POP POP POP SWAP5 SWAP4 POP POP POP POP JUMP JUMPDEST PUSH0 PUSH2 0x1A11 DUP4 PUSH2 0x25E9 JUMP JUMPDEST SWAP1 POP DUP1 DUP3 EQ PUSH2 0x1A59 JUMPI DUP3 DUP2 PUSH1 0x40 MLOAD PUSH32 0x752D88C000000000000000000000000000000000000000000000000000000000 DUP2 MSTORE PUSH1 0x4 ADD PUSH2 0x1A50 SWAP3 SWAP2 SWAP1 PUSH2 0x3BDF JUMP JUMPDEST PUSH1 0x40 MLOAD DUP1 SWAP2 SUB SWAP1 REVERT JUMPDEST POP POP POP JUMP JUMPDEST PUSH2 0x1A66 PUSH2 0x2FED JUMP JUMPDEST PUSH2 0x1AB5 DUP3 PUSH1 0x9 PUSH0 DUP7 PUSH20 0xFFFFFFFFFFFFFFFFFFFFFFFFFFFFFFFFFFFFFFFF AND PUSH20 0xFFFFFFFFFFFFFFFFFFFFFFFFFFFFFFFFFFFFFFFF AND DUP2 MSTORE PUSH1 0x20 ADD SWAP1 DUP2 MSTORE PUSH1 0x20 ADD PUSH0 KECCAK256 PUSH2 0x263C SWAP1 SWAP2 SWAP1 PUSH4 0xFFFFFFFF AND JUMP JUMPDEST SWAP1 POP SWAP3 SWAP2 POP POP JUMP JUMPDEST PUSH0 PUSH20 0xFFFFFFFFFFFFFFFFFFFFFFFFFFFFFFFFFFFFFFFF AND DUP5 PUSH20 0xFFFFFFFFFFFFFFFFFFFFFFFFFFFFFFFFFFFFFFFF AND SUB PUSH2 0x1B2D JUMPI PUSH0 PUSH1 0x40 MLOAD PUSH32 0xE602DF0500000000000000000000000000000000000000000000000000000000 DUP2 MSTORE PUSH1 0x4 ADD PUSH2 0x1B24 SWAP2 SWAP1 PUSH2 0x32A5 JUMP JUMPDEST PUSH1 0x40 MLOAD DUP1 SWAP2 SUB SWAP1 REVERT JUMPDEST PUSH0 PUSH20 0xFFFFFFFFFFFFFFFFFFFFFFFFFFFFFFFFFFFFFFFF AND DUP4 PUSH20 0xFFFFFFFFFFFFFFFFFFFFFFFFFFFFFFFFFFFFFFFF AND SUB PUSH2 0x1B9D JUMPI PUSH0 PUSH1 0x40 MLOAD PUSH32 0x94280D6200000000000000000000000000000000000000000000000000000000 DUP2 MSTORE PUSH1 0x4 ADD PUSH2 0x1B94 SWAP2 SWAP1 PUSH2 0x32A5 JUMP JUMPDEST PUSH1 0x40 MLOAD DUP1 SWAP2 SUB SWAP1 REVERT JUMPDEST DUP2 PUSH1 0x1 PUSH0 DUP7 PUSH20 0xFFFFFFFFFFFFFFFFFFFFFFFFFFFFFFFFFFFFFFFF AND PUSH20 0xFFFFFFFFFFFFFFFFFFFFFFFFFFFFFFFFFFFFFFFF AND DUP2 MSTORE PUSH1 0x20 ADD SWAP1 DUP2 MSTORE PUSH1 0x20 ADD PUSH0 KECCAK256 PUSH0 DUP6 PUSH20 0xFFFFFFFFFFFFFFFFFFFFFFFFFFFFFFFFFFFFFFFF AND PUSH20 0xFFFFFFFFFFFFFFFFFFFFFFFFFFFFFFFFFFFFFFFF AND DUP2 MSTORE PUSH1 0x20 ADD SWAP1 DUP2 MSTORE PUSH1 0x20 ADD PUSH0 KECCAK256 DUP2 SWAP1 SSTORE POP DUP1 ISZERO PUSH2 0x1C86 JUMPI DUP3 PUSH20 0xFFFFFFFFFFFFFFFFFFFFFFFFFFFFFFFFFFFFFFFF AND DUP5 PUSH20 0xFFFFFFFFFFFFFFFFFFFFFFFFFFFFFFFFFFFFFFFF AND PUSH32 0x8C5BE1E5EBEC7D5BD14F71427D1E84F3DD0314C0F7B2291E5B200AC8C7C3B925 DUP5 PUSH1 0x40 MLOAD PUSH2 0x1C7D SWAP2 SWAP1 PUSH2 0x31CE JUMP JUMPDEST PUSH1 0x40 MLOAD DUP1 SWAP2 SUB SWAP1 LOG3 JUMPDEST POP POP POP POP JUMP JUMPDEST PUSH2 0x1C97 DUP4 DUP4 DUP4 PUSH2 0x270B JUMP JUMPDEST POP POP POP JUMP JUMPDEST PUSH0 PUSH6 0xFFFFFFFFFFFF DUP1 AND DUP3 GT ISZERO PUSH2 0x1CED JUMPI PUSH1 0x30 DUP3 PUSH1 0x40 MLOAD PUSH32 0x6DFCC65000000000000000000000000000000000000000000000000000000000 DUP2 MSTORE PUSH1 0x4 ADD PUSH2 0x1CE4 SWAP3 SWAP2 SWAP1 PUSH2 0x3C48 JUMP JUMPDEST PUSH1 0x40 MLOAD DUP1 SWAP2 SUB SWAP1 REVERT JUMPDEST DUP2 SWAP1 POP SWAP2 SWAP1 POP JUMP JUMPDEST PUSH0 PUSH1 0x1 DUP3 GT PUSH2 0x1D06 JUMPI DUP2 SWAP1 POP PUSH2 0x1E8A JUMP JUMPDEST PUSH0 DUP3 SWAP1 POP PUSH0 PUSH1 0x1 SWAP1 POP PUSH17 0x100000000000000000000000000000000 DUP3 LT PUSH2 0x1D36 JUMPI PUSH1 0x80 DUP3 SWAP1 SHR SWAP2 POP PUSH1 0x40 DUP2 SWAP1 SHL SWAP1 POP JUMPDEST PUSH9 0x10000000000000000 DUP3 LT PUSH2 0x1D55 JUMPI PUSH1 0x40 DUP3 SWAP1 SHR SWAP2 POP PUSH1 0x20 DUP2 SWAP1 SHL SWAP1 POP JUMPDEST PUSH5 0x100000000 DUP3 LT PUSH2 0x1D70 JUMPI PUSH1 0x20 DUP3 SWAP1 SHR SWAP2 POP PUSH1 0x10 DUP2 SWAP1 SHL SWAP1 POP JUMPDEST PUSH3 0x10000 DUP3 LT PUSH2 0x1D89 JUMPI PUSH1 0x10 DUP3 SWAP1 SHR SWAP2 POP PUSH1 0x8 DUP2 SWAP1 SHL SWAP1 POP JUMPDEST PUSH2 0x100 DUP3 LT PUSH2 0x1DA1 JUMPI PUSH1 0x8 DUP3 SWAP1 SHR SWAP2 POP PUSH1 0x4 DUP2 SWAP1 SHL SWAP1 POP JUMPDEST PUSH1 0x10 DUP3 LT PUSH2 0x1DB8 JUMPI PUSH1 0x4 DUP3 SWAP1 SHR SWAP2 POP PUSH1 0x2 DUP2 SWAP1 SHL SWAP1 POP JUMPDEST PUSH1 0x4 DUP3 LT PUSH2 0x1DC8 JUMPI PUSH1 0x1 DUP2 SWAP1 SHL SWAP1 POP JUMPDEST PUSH1 0x1 DUP2 PUSH1 0x3 MUL SWAP1 SHR SWAP1 POP PUSH1 0x1 DUP2 DUP6 DUP2 PUSH2 0x1DE4 JUMPI PUSH2 0x1DE3 PUSH2 0x3C6F JUMP JUMPDEST JUMPDEST DIV DUP3 ADD SWAP1 SHR SWAP1 POP PUSH1 0x1 DUP2 DUP6 DUP2 PUSH2 0x1DFD JUMPI PUSH2 0x1DFC PUSH2 0x3C6F JUMP JUMPDEST JUMPDEST DIV DUP3 ADD SWAP1 SHR SWAP1 POP PUSH1 0x1 DUP2 DUP6 DUP2 PUSH2 0x1E16 JUMPI PUSH2 0x1E15 PUSH2 0x3C6F JUMP JUMPDEST JUMPDEST DIV DUP3 ADD SWAP1 SHR SWAP1 POP PUSH1 0x1 DUP2 DUP6 DUP2 PUSH2 0x1E2F JUMPI PUSH2 0x1E2E PUSH2 0x3C6F JUMP JUMPDEST JUMPDEST DIV DUP3 ADD SWAP1 SHR SWAP1 POP PUSH1 0x1 DUP2 DUP6 DUP2 PUSH2 0x1E48 JUMPI PUSH2 0x1E47 PUSH2 0x3C6F JUMP JUMPDEST JUMPDEST DIV DUP3 ADD SWAP1 SHR SWAP1 POP PUSH1 0x1 DUP2 DUP6 DUP2 PUSH2 0x1E61 JUMPI PUSH2 0x1E60 PUSH2 0x3C6F JUMP JUMPDEST JUMPDEST DIV DUP3 ADD SWAP1 SHR SWAP1 POP PUSH2 0x1E83 DUP2 DUP6 DUP2 PUSH2 0x1E7B JUMPI PUSH2 0x1E7A PUSH2 0x3C6F JUMP JUMPDEST JUMPDEST DIV DUP3 GT PUSH2 0x27B9 JUMP JUMPDEST DUP2 SUB SWAP3 POP POP POP JUMPDEST SWAP2 SWAP1 POP JUMP JUMPDEST PUSH0 DUP3 PUSH0 MSTORE DUP2 PUSH1 0x20 PUSH0 KECCAK256 ADD SWAP1 POP SWAP3 SWAP2 POP POP JUMP JUMPDEST PUSH0 JUMPDEST DUP2 DUP4 LT ISZERO PUSH2 0x1F0B JUMPI PUSH0 PUSH2 0x1EB6 DUP5 DUP5 PUSH2 0x27C4 JUMP JUMPDEST SWAP1 POP DUP5 PUSH6 0xFFFFFFFFFFFF AND PUSH2 0x1ECB DUP8 DUP4 PUSH2 0x1E8F JUMP JUMPDEST PUSH0 ADD PUSH0 SWAP1 SLOAD SWAP1 PUSH2 0x100 EXP SWAP1 DIV PUSH6 0xFFFFFFFFFFFF AND PUSH6 0xFFFFFFFFFFFF AND GT ISZERO PUSH2 0x1EF5 JUMPI DUP1 SWAP3 POP PUSH2 0x1F05 JUMP JUMPDEST PUSH1 0x1 DUP2 PUSH2 0x1F02 SWAP2 SWAP1 PUSH2 0x3916 JUMP JUMPDEST SWAP4 POP JUMPDEST POP PUSH2 0x1EA3 JUMP JUMPDEST DUP2 SWAP1 POP SWAP5 SWAP4 POP POP POP POP JUMP JUMPDEST PUSH0 PUSH2 0x1F20 DUP3 PUSH2 0xD00 JUMP JUMPDEST SWAP1 POP SWAP2 SWAP1 POP JUMP JUMPDEST DUP2 PUSH20 0xFFFFFFFFFFFFFFFFFFFFFFFFFFFFFFFFFFFFFFFF AND DUP4 PUSH20 0xFFFFFFFFFFFFFFFFFFFFFFFFFFFFFFFFFFFFFFFF AND EQ ISZERO DUP1 ISZERO PUSH2 0x1F62 JUMPI POP PUSH0 DUP2 GT JUMPDEST ISZERO PUSH2 0x2192 JUMPI PUSH0 PUSH20 0xFFFFFFFFFFFFFFFFFFFFFFFFFFFFFFFFFFFFFFFF AND DUP4 PUSH20 0xFFFFFFFFFFFFFFFFFFFFFFFFFFFFFFFFFFFFFFFF AND EQ PUSH2 0x207C JUMPI PUSH0 PUSH0 PUSH2 0x1FED PUSH1 0x9 PUSH0 DUP8 PUSH20 0xFFFFFFFFFFFFFFFFFFFFFFFFFFFFFFFFFFFFFFFF AND PUSH20 0xFFFFFFFFFFFFFFFFFFFFFFFFFFFFFFFFFFFFFFFF AND DUP2 MSTORE PUSH1 0x20 ADD SWAP1 DUP2 MSTORE PUSH1 0x20 ADD PUSH0 KECCAK256 PUSH2 0x1259 PUSH2 0x1FE8 DUP7 PUSH2 0x27E9 JUMP JUMPDEST PUSH2 0x2856 JUMP JUMPDEST PUSH26 0xFFFFFFFFFFFFFFFFFFFFFFFFFFFFFFFFFFFFFFFFFFFFFFFFFFFF AND SWAP2 POP PUSH26 0xFFFFFFFFFFFFFFFFFFFFFFFFFFFFFFFFFFFFFFFFFFFFFFFFFFFF AND SWAP2 POP DUP5 PUSH20 0xFFFFFFFFFFFFFFFFFFFFFFFFFFFFFFFFFFFFFFFF AND PUSH32 0xDEC2BACDD2F05B59DE34DA9B523DFF8BE42E5E38E818C82FDB0BAE774387A724 DUP4 DUP4 PUSH1 0x40 MLOAD PUSH2 0x2071 SWAP3 SWAP2 SWAP1 PUSH2 0x3C9C JUMP JUMPDEST PUSH1 0x40 MLOAD DUP1 SWAP2 SUB SWAP1 LOG2 POP POP JUMPDEST PUSH0 PUSH20 0xFFFFFFFFFFFFFFFFFFFFFFFFFFFFFFFFFFFFFFFF AND DUP3 PUSH20 0xFFFFFFFFFFFFFFFFFFFFFFFFFFFFFFFFFFFFFFFF AND EQ PUSH2 0x2191 JUMPI PUSH0 PUSH0 PUSH2 0x2102 PUSH1 0x9 PUSH0 DUP7 PUSH20 0xFFFFFFFFFFFFFFFFFFFFFFFFFFFFFFFFFFFFFFFF AND PUSH20 0xFFFFFFFFFFFFFFFFFFFFFFFFFFFFFFFFFFFFFFFF AND DUP2 MSTORE PUSH1 0x20 ADD SWAP1 DUP2 MSTORE PUSH1 0x20 ADD PUSH0 KECCAK256 PUSH2 0x1244 PUSH2 0x20FD DUP7 PUSH2 0x27E9 JUMP JUMPDEST PUSH2 0x2856 JUMP JUMPDEST PUSH26 0xFFFFFFFFFFFFFFFFFFFFFFFFFFFFFFFFFFFFFFFFFFFFFFFFFFFF AND SWAP2 POP PUSH26 0xFFFFFFFFFFFFFFFFFFFFFFFFFFFFFFFFFFFFFFFFFFFFFFFFFFFF AND SWAP2 POP DUP4 PUSH20 0xFFFFFFFFFFFFFFFFFFFFFFFFFFFFFFFFFFFFFFFF AND PUSH32 0xDEC2BACDD2F05B59DE34DA9B523DFF8BE42E5E38E818C82FDB0BAE774387A724 DUP4 DUP4 PUSH1 0x40 MLOAD PUSH2 0x2186 SWAP3 SWAP2 SWAP1 PUSH2 0x3C9C JUMP JUMPDEST PUSH1 0x40 MLOAD DUP1 SWAP2 SUB SWAP1 LOG2 POP POP JUMPDEST JUMPDEST POP POP POP JUMP JUMPDEST PUSH0 DUP2 PUSH0 ADD DUP1 SLOAD SWAP1 POP SWAP1 POP SWAP2 SWAP1 POP JUMP JUMPDEST PUSH0 PUSH4 0xFFFFFFFF DUP1 AND DUP3 GT ISZERO PUSH2 0x21F5 JUMPI PUSH1 0x20 DUP3 PUSH1 0x40 MLOAD PUSH32 0x6DFCC65000000000000000000000000000000000000000000000000000000000 DUP2 MSTORE PUSH1 0x4 ADD PUSH2 0x21EC SWAP3 SWAP2 SWAP1 PUSH2 0x3CFC JUMP JUMPDEST PUSH1 0x40 MLOAD DUP1 SWAP2 SUB SWAP1 REVERT JUMPDEST DUP2 SWAP1 POP SWAP2 SWAP1 POP JUMP JUMPDEST PUSH1 0x60 PUSH1 0xFF PUSH0 SHL DUP4 EQ PUSH2 0x2219 JUMPI PUSH2 0x2212 DUP4 PUSH2 0x2895 JUMP JUMPDEST SWAP1 POP PUSH2 0x22A4 JUMP JUMPDEST DUP2 DUP1 SLOAD PUSH2 0x2225 SWAP1 PUSH2 0x3851 JUMP JUMPDEST DUP1 PUSH1 0x1F ADD PUSH1 0x20 DUP1 SWAP2 DIV MUL PUSH1 0x20 ADD PUSH1 0x40 MLOAD SWAP1 DUP2 ADD PUSH1 0x40 MSTORE DUP1 SWAP3 SWAP2 SWAP1 DUP2 DUP2 MSTORE PUSH1 0x20 ADD DUP3 DUP1 SLOAD PUSH2 0x2251 SWAP1 PUSH2 0x3851 JUMP JUMPDEST DUP1 ISZERO PUSH2 0x229C JUMPI DUP1 PUSH1 0x1F LT PUSH2 0x2273 JUMPI PUSH2 0x100 DUP1 DUP4 SLOAD DIV MUL DUP4 MSTORE SWAP2 PUSH1 0x20 ADD SWAP2 PUSH2 0x229C JUMP JUMPDEST DUP3 ADD SWAP2 SWAP1 PUSH0 MSTORE PUSH1 0x20 PUSH0 KECCAK256 SWAP1 JUMPDEST DUP2 SLOAD DUP2 MSTORE SWAP1 PUSH1 0x1 ADD SWAP1 PUSH1 0x20 ADD DUP1 DUP4 GT PUSH2 0x227F JUMPI DUP3 SWAP1 SUB PUSH1 0x1F AND DUP3 ADD SWAP2 JUMPDEST POP POP POP POP POP SWAP1 POP JUMPDEST SWAP3 SWAP2 POP POP JUMP JUMPDEST PUSH0 PUSH32 0x0 PUSH20 0xFFFFFFFFFFFFFFFFFFFFFFFFFFFFFFFFFFFFFFFF AND ADDRESS PUSH20 0xFFFFFFFFFFFFFFFFFFFFFFFFFFFFFFFFFFFFFFFF AND EQ DUP1 ISZERO PUSH2 0x2325 JUMPI POP PUSH32 0x0 CHAINID EQ JUMPDEST ISZERO PUSH2 0x2352 JUMPI PUSH32 0x0 SWAP1 POP PUSH2 0x235D JUMP JUMPDEST PUSH2 0x235A PUSH2 0x2907 JUMP JUMPDEST SWAP1 POP JUMPDEST SWAP1 JUMP JUMPDEST PUSH0 PUSH1 0x40 MLOAD PUSH32 0x1901000000000000000000000000000000000000000000000000000000000000 DUP2 MSTORE DUP4 PUSH1 0x2 DUP3 ADD MSTORE DUP3 PUSH1 0x22 DUP3 ADD MSTORE PUSH1 0x42 DUP2 KECCAK256 SWAP2 POP POP SWAP3 SWAP2 POP POP JUMP JUMPDEST PUSH0 PUSH0 PUSH0 PUSH32 0x7FFFFFFFFFFFFFFFFFFFFFFFFFFFFFFF5D576E7357A4501DDFE92F46681B20A0 DUP5 PUSH0 SHR GT ISZERO PUSH2 0x23DC JUMPI PUSH0 PUSH1 0x3 DUP6 SWAP3 POP SWAP3 POP SWAP3 POP PUSH2 0x247D JUMP JUMPDEST PUSH0 PUSH1 0x1 DUP9 DUP9 DUP9 DUP9 PUSH1 0x40 MLOAD PUSH0 DUP2 MSTORE PUSH1 0x20 ADD PUSH1 0x40 MSTORE PUSH1 0x40 MLOAD PUSH2 0x23FF SWAP5 SWAP4 SWAP3 SWAP2 SWAP1 PUSH2 0x3D23 JUMP JUMPDEST PUSH1 0x20 PUSH1 0x40 MLOAD PUSH1 0x20 DUP2 SUB SWAP1 DUP1 DUP5 SUB SWAP1 DUP6 GAS STATICCALL ISZERO DUP1 ISZERO PUSH2 0x241F JUMPI RETURNDATASIZE PUSH0 PUSH0 RETURNDATACOPY RETURNDATASIZE PUSH0 REVERT JUMPDEST POP POP POP PUSH1 0x20 PUSH1 0x40 MLOAD SUB MLOAD SWAP1 POP PUSH0 PUSH20 0xFFFFFFFFFFFFFFFFFFFFFFFFFFFFFFFFFFFFFFFF AND DUP2 PUSH20 0xFFFFFFFFFFFFFFFFFFFFFFFFFFFFFFFFFFFFFFFF AND SUB PUSH2 0x2470 JUMPI PUSH0 PUSH1 0x1 PUSH0 PUSH0 SHL SWAP4 POP SWAP4 POP SWAP4 POP POP PUSH2 0x247D JUMP JUMPDEST DUP1 PUSH0 PUSH0 PUSH0 SHL SWAP4 POP SWAP4 POP SWAP4 POP POP JUMPDEST SWAP5 POP SWAP5 POP SWAP5 SWAP2 POP POP JUMP JUMPDEST PUSH0 PUSH1 0x3 DUP2 GT ISZERO PUSH2 0x249A JUMPI PUSH2 0x2499 PUSH2 0x3D66 JUMP JUMPDEST JUMPDEST DUP3 PUSH1 0x3 DUP2 GT ISZERO PUSH2 0x24AD JUMPI PUSH2 0x24AC PUSH2 0x3D66 JUMP JUMPDEST JUMPDEST SUB ISZERO PUSH2 0x25E5 JUMPI PUSH1 0x1 PUSH1 0x3 DUP2 GT ISZERO PUSH2 0x24C7 JUMPI PUSH2 0x24C6 PUSH2 0x3D66 JUMP JUMPDEST JUMPDEST DUP3 PUSH1 0x3 DUP2 GT ISZERO PUSH2 0x24DA JUMPI PUSH2 0x24D9 PUSH2 0x3D66 JUMP JUMPDEST JUMPDEST SUB PUSH2 0x2511 JUMPI PUSH1 0x40 MLOAD PUSH32 0xF645EEDF00000000000000000000000000000000000000000000000000000000 DUP2 MSTORE PUSH1 0x4 ADD PUSH1 0x40 MLOAD DUP1 SWAP2 SUB SWAP1 REVERT JUMPDEST PUSH1 0x2 PUSH1 0x3 DUP2 GT ISZERO PUSH2 0x2525 JUMPI PUSH2 0x2524 PUSH2 0x3D66 JUMP JUMPDEST JUMPDEST DUP3 PUSH1 0x3 DUP2 GT ISZERO PUSH2 0x2538 JUMPI PUSH2 0x2537 PUSH2 0x3D66 JUMP JUMPDEST JUMPDEST SUB PUSH2 0x257C JUMPI DUP1 PUSH0 SHR PUSH1 0x40 MLOAD PUSH32 0xFCE698F700000000000000000000000000000000000000000000000000000000 DUP2 MSTORE PUSH1 0x4 ADD PUSH2 0x2573 SWAP2 SWAP1 PUSH2 0x31CE JUMP JUMPDEST PUSH1 0x40 MLOAD DUP1 SWAP2 SUB SWAP1 REVERT JUMPDEST PUSH1 0x3 DUP1 DUP2 GT ISZERO PUSH2 0x258F JUMPI PUSH2 0x258E PUSH2 0x3D66 JUMP JUMPDEST JUMPDEST DUP3 PUSH1 0x3 DUP2 GT ISZERO PUSH2 0x25A2 JUMPI PUSH2 0x25A1 PUSH2 0x3D66 JUMP JUMPDEST JUMPDEST SUB PUSH2 0x25E4 JUMPI DUP1 PUSH1 0x40 MLOAD PUSH32 0xD78BCE0C00000000000000000000000000000000000000000000000000000000 DUP2 MSTORE PUSH1 0x4 ADD PUSH2 0x25DB SWAP2 SWAP1 PUSH2 0x3D93 JUMP JUMPDEST PUSH1 0x40 MLOAD DUP1 SWAP2 SUB SWAP1 REVERT JUMPDEST JUMPDEST POP POP JUMP JUMPDEST PUSH0 PUSH1 0x7 PUSH0 DUP4 PUSH20 0xFFFFFFFFFFFFFFFFFFFFFFFFFFFFFFFFFFFFFFFF AND PUSH20 0xFFFFFFFFFFFFFFFFFFFFFFFFFFFFFFFFFFFFFFFF AND DUP2 MSTORE PUSH1 0x20 ADD SWAP1 DUP2 MSTORE PUSH1 0x20 ADD PUSH0 KECCAK256 PUSH0 DUP2 SLOAD DUP1 SWAP3 SWAP2 SWAP1 PUSH1 0x1 ADD SWAP2 SWAP1 POP SSTORE SWAP1 POP SWAP2 SWAP1 POP JUMP JUMPDEST PUSH2 0x2644 PUSH2 0x2FED JUMP JUMPDEST DUP3 PUSH0 ADD DUP3 PUSH4 0xFFFFFFFF AND DUP2 SLOAD DUP2 LT PUSH2 0x265F JUMPI PUSH2 0x265E PUSH2 0x3A19 JUMP JUMPDEST JUMPDEST SWAP1 PUSH0 MSTORE PUSH1 0x20 PUSH0 KECCAK256 ADD PUSH1 0x40 MLOAD DUP1 PUSH1 0x40 ADD PUSH1 0x40 MSTORE SWAP1 DUP2 PUSH0 DUP3 ADD PUSH0 SWAP1 SLOAD SWAP1 PUSH2 0x100 EXP SWAP1 DIV PUSH6 0xFFFFFFFFFFFF AND PUSH6 0xFFFFFFFFFFFF AND PUSH6 0xFFFFFFFFFFFF AND DUP2 MSTORE PUSH1 0x20 ADD PUSH0 DUP3 ADD PUSH1 0x6 SWAP1 SLOAD SWAP1 PUSH2 0x100 EXP SWAP1 DIV PUSH26 0xFFFFFFFFFFFFFFFFFFFFFFFFFFFFFFFFFFFFFFFFFFFFFFFFFFFF AND PUSH26 0xFFFFFFFFFFFFFFFFFFFFFFFFFFFFFFFFFFFFFFFFFFFFFFFFFFFF AND PUSH26 0xFFFFFFFFFFFFFFFFFFFFFFFFFFFFFFFFFFFFFFFFFFFFFFFFFFFF AND DUP2 MSTORE POP POP SWAP1 POP SWAP3 SWAP2 POP POP JUMP JUMPDEST PUSH2 0x2716 DUP4 DUP4 DUP4 PUSH2 0x299C JUMP JUMPDEST PUSH0 PUSH20 0xFFFFFFFFFFFFFFFFFFFFFFFFFFFFFFFFFFFFFFFF AND DUP4 PUSH20 0xFFFFFFFFFFFFFFFFFFFFFFFFFFFFFFFFFFFFFFFF AND SUB PUSH2 0x27A9 JUMPI PUSH0 PUSH2 0x2752 PUSH2 0x709 JUMP JUMPDEST SWAP1 POP PUSH0 PUSH2 0x275D PUSH2 0x2BB5 JUMP JUMPDEST SWAP1 POP DUP1 DUP3 GT ISZERO PUSH2 0x27A6 JUMPI DUP2 DUP2 PUSH1 0x40 MLOAD PUSH32 0x1CB15D2600000000000000000000000000000000000000000000000000000000 DUP2 MSTORE PUSH1 0x4 ADD PUSH2 0x279D SWAP3 SWAP2 SWAP1 PUSH2 0x3C9C JUMP JUMPDEST PUSH1 0x40 MLOAD DUP1 SWAP2 SUB SWAP1 REVERT JUMPDEST POP POP JUMPDEST PUSH2 0x27B4 DUP4 DUP4 DUP4 PUSH2 0x2BD8 JUMP JUMPDEST POP POP POP JUMP JUMPDEST PUSH0 DUP2 ISZERO ISZERO SWAP1 POP SWAP2 SWAP1 POP JUMP JUMPDEST PUSH0 PUSH1 0x2 DUP3 DUP5 XOR PUSH2 0x27D4 SWAP2 SWAP1 PUSH2 0x3DAC JUMP JUMPDEST DUP3 DUP5 AND PUSH2 0x27E1 SWAP2 SWAP1 PUSH2 0x3916 JUMP JUMPDEST SWAP1 POP SWAP3 SWAP2 POP POP JUMP JUMPDEST PUSH0 PUSH26 0xFFFFFFFFFFFFFFFFFFFFFFFFFFFFFFFFFFFFFFFFFFFFFFFFFFFF DUP1 AND DUP3 GT ISZERO PUSH2 0x284E JUMPI PUSH1 0xD0 DUP3 PUSH1 0x40 MLOAD PUSH32 0x6DFCC65000000000000000000000000000000000000000000000000000000000 DUP2 MSTORE PUSH1 0x4 ADD PUSH2 0x2845 SWAP3 SWAP2 SWAP1 PUSH2 0x3E15 JUMP JUMPDEST PUSH1 0x40 MLOAD DUP1 SWAP2 SUB SWAP1 REVERT JUMPDEST DUP2 SWAP1 POP SWAP2 SWAP1 POP JUMP JUMPDEST PUSH0 PUSH0 PUSH2 0x2889 PUSH2 0x2863 PUSH2 0xE76 JUMP JUMPDEST PUSH2 0x2879 PUSH2 0x286F DUP9 PUSH2 0x195E JUMP JUMPDEST DUP7 DUP9 PUSH4 0xFFFFFFFF AND JUMP JUMPDEST DUP8 PUSH2 0x2C90 SWAP1 SWAP3 SWAP2 SWAP1 PUSH4 0xFFFFFFFF AND JUMP JUMPDEST SWAP2 POP SWAP2 POP SWAP4 POP SWAP4 SWAP2 POP POP JUMP JUMPDEST PUSH1 0x60 PUSH0 PUSH2 0x28A1 DUP4 PUSH2 0x2CAB JUMP JUMPDEST SWAP1 POP PUSH0 PUSH1 0x20 PUSH8 0xFFFFFFFFFFFFFFFF DUP2 GT ISZERO PUSH2 0x28BF JUMPI PUSH2 0x28BE PUSH2 0x3A46 JUMP JUMPDEST JUMPDEST PUSH1 0x40 MLOAD SWAP1 DUP1 DUP3 MSTORE DUP1 PUSH1 0x1F ADD PUSH1 0x1F NOT AND PUSH1 0x20 ADD DUP3 ADD PUSH1 0x40 MSTORE DUP1 ISZERO PUSH2 0x28F1 JUMPI DUP2 PUSH1 0x20 ADD PUSH1 0x1 DUP3 MUL DUP1 CALLDATASIZE DUP4 CALLDATACOPY DUP1 DUP3 ADD SWAP2 POP POP SWAP1 POP JUMPDEST POP SWAP1 POP DUP2 DUP2 MSTORE DUP4 PUSH1 0x20 DUP3 ADD MSTORE DUP1 SWAP3 POP POP POP SWAP2 SWAP1 POP JUMP JUMPDEST PUSH0 PUSH32 0x8B73C3C69BB8FE3D512ECC4CF759CC79239F7B179B0FFACAA9A75D522B39400F PUSH32 0x0 PUSH32 0x0 CHAINID ADDRESS PUSH1 0x40 MLOAD PUSH1 0x20 ADD PUSH2 0x2981 SWAP6 SWAP5 SWAP4 SWAP3 SWAP2 SWAP1 PUSH2 0x3E3C JUMP JUMPDEST PUSH1 0x40 MLOAD PUSH1 0x20 DUP2 DUP4 SUB SUB DUP2 MSTORE SWAP1 PUSH1 0x40 MSTORE DUP1 MLOAD SWAP1 PUSH1 0x20 ADD KECCAK256 SWAP1 POP SWAP1 JUMP JUMPDEST PUSH0 PUSH20 0xFFFFFFFFFFFFFFFFFFFFFFFFFFFFFFFFFFFFFFFF AND DUP4 PUSH20 0xFFFFFFFFFFFFFFFFFFFFFFFFFFFFFFFFFFFFFFFF AND SUB PUSH2 0x29EC JUMPI DUP1 PUSH1 0x2 PUSH0 DUP3 DUP3 SLOAD PUSH2 0x29E0 SWAP2 SWAP1 PUSH2 0x3916 JUMP JUMPDEST SWAP3 POP POP DUP2 SWAP1 SSTORE POP PUSH2 0x2ABA JUMP JUMPDEST PUSH0 PUSH0 PUSH0 DUP6 PUSH20 0xFFFFFFFFFFFFFFFFFFFFFFFFFFFFFFFFFFFFFFFF AND PUSH20 0xFFFFFFFFFFFFFFFFFFFFFFFFFFFFFFFFFFFFFFFF AND DUP2 MSTORE PUSH1 0x20 ADD SWAP1 DUP2 MSTORE PUSH1 0x20 ADD PUSH0 KECCAK256 SLOAD SWAP1 POP DUP2 DUP2 LT ISZERO PUSH2 0x2A75 JUMPI DUP4 DUP2 DUP4 PUSH1 0x40 MLOAD PUSH32 0xE450D38C00000000000000000000000000000000000000000000000000000000 DUP2 MSTORE PUSH1 0x4 ADD PUSH2 0x2A6C SWAP4 SWAP3 SWAP2 SWAP1 PUSH2 0x3B50 JUMP JUMPDEST PUSH1 0x40 MLOAD DUP1 SWAP2 SUB SWAP1 REVERT JUMPDEST DUP2 DUP2 SUB PUSH0 PUSH0 DUP7 PUSH20 0xFFFFFFFFFFFFFFFFFFFFFFFFFFFFFFFFFFFFFFFF AND PUSH20 0xFFFFFFFFFFFFFFFFFFFFFFFFFFFFFFFFFFFFFFFF AND DUP2 MSTORE PUSH1 0x20 ADD SWAP1 DUP2 MSTORE PUSH1 0x20 ADD PUSH0 KECCAK256 DUP2 SWAP1 SSTORE POP POP JUMPDEST PUSH0 PUSH20 0xFFFFFFFFFFFFFFFFFFFFFFFFFFFFFFFFFFFFFFFF AND DUP3 PUSH20 0xFFFFFFFFFFFFFFFFFFFFFFFFFFFFFFFFFFFFFFFF AND SUB PUSH2 0x2B01 JUMPI DUP1 PUSH1 0x2 PUSH0 DUP3 DUP3 SLOAD SUB SWAP3 POP POP DUP2 SWAP1 SSTORE POP PUSH2 0x2B4B JUMP JUMPDEST DUP1 PUSH0 PUSH0 DUP5 PUSH20 0xFFFFFFFFFFFFFFFFFFFFFFFFFFFFFFFFFFFFFFFF AND PUSH20 0xFFFFFFFFFFFFFFFFFFFFFFFFFFFFFFFFFFFFFFFF AND DUP2 MSTORE PUSH1 0x20 ADD SWAP1 DUP2 MSTORE PUSH1 0x20 ADD PUSH0 KECCAK256 PUSH0 DUP3 DUP3 SLOAD ADD SWAP3 POP POP DUP2 SWAP1 SSTORE POP JUMPDEST DUP2 PUSH20 0xFFFFFFFFFFFFFFFFFFFFFFFFFFFFFFFFFFFFFFFF AND DUP4 PUSH20 0xFFFFFFFFFFFFFFFFFFFFFFFFFFFFFFFFFFFFFFFF AND PUSH32 0xDDF252AD1BE2C89B69C2B068FC378DAA952BA7F163C4A11628F55A4DF523B3EF DUP4 PUSH1 0x40 MLOAD PUSH2 0x2BA8 SWAP2 SWAP1 PUSH2 0x31CE JUMP JUMPDEST PUSH1 0x40 MLOAD DUP1 SWAP2 SUB SWAP1 LOG3 POP POP POP JUMP JUMPDEST PUSH0 PUSH26 0xFFFFFFFFFFFFFFFFFFFFFFFFFFFFFFFFFFFFFFFFFFFFFFFFFFFF DUP1 AND SWAP1 POP SWAP1 JUMP JUMPDEST PUSH0 PUSH20 0xFFFFFFFFFFFFFFFFFFFFFFFFFFFFFFFFFFFFFFFF AND DUP4 PUSH20 0xFFFFFFFFFFFFFFFFFFFFFFFFFFFFFFFFFFFFFFFF AND SUB PUSH2 0x2C24 JUMPI PUSH2 0x2C21 PUSH1 0xA PUSH2 0x1244 PUSH2 0x2C1C DUP5 PUSH2 0x27E9 JUMP JUMPDEST PUSH2 0x2856 JUMP JUMPDEST POP POP JUMPDEST PUSH0 PUSH20 0xFFFFFFFFFFFFFFFFFFFFFFFFFFFFFFFFFFFFFFFF AND DUP3 PUSH20 0xFFFFFFFFFFFFFFFFFFFFFFFFFFFFFFFFFFFFFFFF AND SUB PUSH2 0x2C70 JUMPI PUSH2 0x2C6D PUSH1 0xA PUSH2 0x1259 PUSH2 0x2C68 DUP5 PUSH2 0x27E9 JUMP JUMPDEST PUSH2 0x2856 JUMP JUMPDEST POP POP JUMPDEST PUSH2 0x2C8B PUSH2 0x2C7C DUP5 PUSH2 0xA4B JUMP JUMPDEST PUSH2 0x2C85 DUP5 PUSH2 0xA4B JUMP JUMPDEST DUP4 PUSH2 0x1F27 JUMP JUMPDEST POP POP POP JUMP JUMPDEST PUSH0 PUSH0 PUSH2 0x2C9F DUP6 PUSH0 ADD DUP6 DUP6 PUSH2 0x2CF9 JUMP JUMPDEST SWAP2 POP SWAP2 POP SWAP4 POP SWAP4 SWAP2 POP POP JUMP JUMPDEST PUSH0 PUSH0 PUSH1 0xFF DUP4 PUSH0 SHR AND SWAP1 POP PUSH1 0x1F DUP2 GT ISZERO PUSH2 0x2CF0 JUMPI PUSH1 0x40 MLOAD PUSH32 0xB3512B0C00000000000000000000000000000000000000000000000000000000 DUP2 MSTORE PUSH1 0x4 ADD PUSH1 0x40 MLOAD DUP1 SWAP2 SUB SWAP1 REVERT JUMPDEST DUP1 SWAP2 POP POP SWAP2 SWAP1 POP JUMP JUMPDEST PUSH0 PUSH0 PUSH0 DUP6 DUP1 SLOAD SWAP1 POP SWAP1 POP PUSH0 DUP2 GT ISZERO PUSH2 0x2F05 JUMPI PUSH0 PUSH2 0x2D22 DUP8 PUSH1 0x1 DUP5 PUSH2 0x2D1D SWAP2 SWAP1 PUSH2 0x3BAC JUMP JUMPDEST PUSH2 0x1E8F JUMP JUMPDEST SWAP1 POP PUSH0 DUP2 PUSH0 ADD PUSH0 SWAP1 SLOAD SWAP1 PUSH2 0x100 EXP SWAP1 DIV PUSH6 0xFFFFFFFFFFFF AND SWAP1 POP PUSH0 DUP3 PUSH0 ADD PUSH1 0x6 SWAP1 SLOAD SWAP1 PUSH2 0x100 EXP SWAP1 DIV PUSH26 0xFFFFFFFFFFFFFFFFFFFFFFFFFFFFFFFFFFFFFFFFFFFFFFFFFFFF AND SWAP1 POP DUP8 PUSH6 0xFFFFFFFFFFFF AND DUP3 PUSH6 0xFFFFFFFFFFFF AND GT ISZERO PUSH2 0x2DB3 JUMPI PUSH1 0x40 MLOAD PUSH32 0x2520601D00000000000000000000000000000000000000000000000000000000 DUP2 MSTORE PUSH1 0x4 ADD PUSH1 0x40 MLOAD DUP1 SWAP2 SUB SWAP1 REVERT JUMPDEST DUP8 PUSH6 0xFFFFFFFFFFFF AND DUP3 PUSH6 0xFFFFFFFFFFFF AND SUB PUSH2 0x2E1D JUMPI DUP7 DUP4 PUSH0 ADD PUSH1 0x6 PUSH2 0x100 EXP DUP2 SLOAD DUP2 PUSH26 0xFFFFFFFFFFFFFFFFFFFFFFFFFFFFFFFFFFFFFFFFFFFFFFFFFFFF MUL NOT AND SWAP1 DUP4 PUSH26 0xFFFFFFFFFFFFFFFFFFFFFFFFFFFFFFFFFFFFFFFFFFFFFFFFFFFF AND MUL OR SWAP1 SSTORE POP PUSH2 0x2EF6 JUMP JUMPDEST DUP9 PUSH1 0x40 MLOAD DUP1 PUSH1 0x40 ADD PUSH1 0x40 MSTORE DUP1 DUP11 PUSH6 0xFFFFFFFFFFFF AND DUP2 MSTORE PUSH1 0x20 ADD DUP10 PUSH26 0xFFFFFFFFFFFFFFFFFFFFFFFFFFFFFFFFFFFFFFFFFFFFFFFFFFFF AND DUP2 MSTORE POP SWAP1 DUP1 PUSH1 0x1 DUP2 SLOAD ADD DUP1 DUP3 SSTORE DUP1 SWAP2 POP POP PUSH1 0x1 SWAP1 SUB SWAP1 PUSH0 MSTORE PUSH1 0x20 PUSH0 KECCAK256 ADD PUSH0 SWAP1 SWAP2 SWAP1 SWAP2 SWAP1 SWAP2 POP PUSH0 DUP3 ADD MLOAD DUP2 PUSH0 ADD PUSH0 PUSH2 0x100 EXP DUP2 SLOAD DUP2 PUSH6 0xFFFFFFFFFFFF MUL NOT AND SWAP1 DUP4 PUSH6 0xFFFFFFFFFFFF AND MUL OR SWAP1 SSTORE POP PUSH1 0x20 DUP3 ADD MLOAD DUP2 PUSH0 ADD PUSH1 0x6 PUSH2 0x100 EXP DUP2 SLOAD DUP2 PUSH26 0xFFFFFFFFFFFFFFFFFFFFFFFFFFFFFFFFFFFFFFFFFFFFFFFFFFFF MUL NOT AND SWAP1 DUP4 PUSH26 0xFFFFFFFFFFFFFFFFFFFFFFFFFFFFFFFFFFFFFFFFFFFFFFFFFFFF AND MUL OR SWAP1 SSTORE POP POP POP JUMPDEST DUP1 DUP8 SWAP6 POP SWAP6 POP POP POP POP POP PUSH2 0x2FE5 JUMP JUMPDEST DUP6 PUSH1 0x40 MLOAD DUP1 PUSH1 0x40 ADD PUSH1 0x40 MSTORE DUP1 DUP8 PUSH6 0xFFFFFFFFFFFF AND DUP2 MSTORE PUSH1 0x20 ADD DUP7 PUSH26 0xFFFFFFFFFFFFFFFFFFFFFFFFFFFFFFFFFFFFFFFFFFFFFFFFFFFF AND DUP2 MSTORE POP SWAP1 DUP1 PUSH1 0x1 DUP2 SLOAD ADD DUP1 DUP3 SSTORE DUP1 SWAP2 POP POP PUSH1 0x1 SWAP1 SUB SWAP1 PUSH0 MSTORE PUSH1 0x20 PUSH0 KECCAK256 ADD PUSH0 SWAP1 SWAP2 SWAP1 SWAP2 SWAP1 SWAP2 POP PUSH0 DUP3 ADD MLOAD DUP2 PUSH0 ADD PUSH0 PUSH2 0x100 EXP DUP2 SLOAD DUP2 PUSH6 0xFFFFFFFFFFFF MUL NOT AND SWAP1 DUP4 PUSH6 0xFFFFFFFFFFFF AND MUL OR SWAP1 SSTORE POP PUSH1 0x20 DUP3 ADD MLOAD DUP2 PUSH0 ADD PUSH1 0x6 PUSH2 0x100 EXP DUP2 SLOAD DUP2 PUSH26 0xFFFFFFFFFFFFFFFFFFFFFFFFFFFFFFFFFFFFFFFFFFFFFFFFFFFF MUL NOT AND SWAP1 DUP4 PUSH26 0xFFFFFFFFFFFFFFFFFFFFFFFFFFFFFFFFFFFFFFFFFFFFFFFFFFFF AND MUL OR SWAP1 SSTORE POP POP POP PUSH0 DUP5 SWAP3 POP SWAP3 POP POP JUMPDEST SWAP4 POP SWAP4 SWAP2 POP POP JUMP JUMPDEST PUSH1 0x40 MLOAD DUP1 PUSH1 0x40 ADD PUSH1 0x40 MSTORE DUP1 PUSH0 PUSH6 0xFFFFFFFFFFFF AND DUP2 MSTORE PUSH1 0x20 ADD PUSH0 PUSH26 0xFFFFFFFFFFFFFFFFFFFFFFFFFFFFFFFFFFFFFFFFFFFFFFFFFFFF AND DUP2 MSTORE POP SWAP1 JUMP JUMPDEST PUSH0 DUP2 MLOAD SWAP1 POP SWAP2 SWAP1 POP JUMP JUMPDEST PUSH0 DUP3 DUP3 MSTORE PUSH1 0x20 DUP3 ADD SWAP1 POP SWAP3 SWAP2 POP POP JUMP JUMPDEST DUP3 DUP2 DUP4 MCOPY PUSH0 DUP4 DUP4 ADD MSTORE POP POP POP JUMP JUMPDEST PUSH0 PUSH1 0x1F NOT PUSH1 0x1F DUP4 ADD AND SWAP1 POP SWAP2 SWAP1 POP JUMP JUMPDEST PUSH0 PUSH2 0x306B DUP3 PUSH2 0x3029 JUMP JUMPDEST PUSH2 0x3075 DUP2 DUP6 PUSH2 0x3033 JUMP JUMPDEST SWAP4 POP PUSH2 0x3085 DUP2 DUP6 PUSH1 0x20 DUP7 ADD PUSH2 0x3043 JUMP JUMPDEST PUSH2 0x308E DUP2 PUSH2 0x3051 JUMP JUMPDEST DUP5 ADD SWAP2 POP POP SWAP3 SWAP2 POP POP JUMP JUMPDEST PUSH0 PUSH1 0x20 DUP3 ADD SWAP1 POP DUP2 DUP2 SUB PUSH0 DUP4 ADD MSTORE PUSH2 0x30B1 DUP2 DUP5 PUSH2 0x3061 JUMP JUMPDEST SWAP1 POP SWAP3 SWAP2 POP POP JUMP JUMPDEST PUSH0 PUSH0 REVERT JUMPDEST PUSH0 PUSH0 REVERT JUMPDEST PUSH0 PUSH20 0xFFFFFFFFFFFFFFFFFFFFFFFFFFFFFFFFFFFFFFFF DUP3 AND SWAP1 POP SWAP2 SWAP1 POP JUMP JUMPDEST PUSH0 PUSH2 0x30EA DUP3 PUSH2 0x30C1 JUMP JUMPDEST SWAP1 POP SWAP2 SWAP1 POP JUMP JUMPDEST PUSH2 0x30FA DUP2 PUSH2 0x30E0 JUMP JUMPDEST DUP2 EQ PUSH2 0x3104 JUMPI PUSH0 PUSH0 REVERT JUMPDEST POP JUMP JUMPDEST PUSH0 DUP2 CALLDATALOAD SWAP1 POP PUSH2 0x3115 DUP2 PUSH2 0x30F1 JUMP JUMPDEST SWAP3 SWAP2 POP POP JUMP JUMPDEST PUSH0 DUP2 SWAP1 POP SWAP2 SWAP1 POP JUMP JUMPDEST PUSH2 0x312D DUP2 PUSH2 0x311B JUMP JUMPDEST DUP2 EQ PUSH2 0x3137 JUMPI PUSH0 PUSH0 REVERT JUMPDEST POP JUMP JUMPDEST PUSH0 DUP2 CALLDATALOAD SWAP1 POP PUSH2 0x3148 DUP2 PUSH2 0x3124 JUMP JUMPDEST SWAP3 SWAP2 POP POP JUMP JUMPDEST PUSH0 PUSH0 PUSH1 0x40 DUP4 DUP6 SUB SLT ISZERO PUSH2 0x3164 JUMPI PUSH2 0x3163 PUSH2 0x30B9 JUMP JUMPDEST JUMPDEST PUSH0 PUSH2 0x3171 DUP6 DUP3 DUP7 ADD PUSH2 0x3107 JUMP JUMPDEST SWAP3 POP POP PUSH1 0x20 PUSH2 0x3182 DUP6 DUP3 DUP7 ADD PUSH2 0x313A JUMP JUMPDEST SWAP2 POP POP SWAP3 POP SWAP3 SWAP1 POP JUMP JUMPDEST PUSH0 DUP2 ISZERO ISZERO SWAP1 POP SWAP2 SWAP1 POP JUMP JUMPDEST PUSH2 0x31A0 DUP2 PUSH2 0x318C JUMP JUMPDEST DUP3 MSTORE POP POP JUMP JUMPDEST PUSH0 PUSH1 0x20 DUP3 ADD SWAP1 POP PUSH2 0x31B9 PUSH0 DUP4 ADD DUP5 PUSH2 0x3197 JUMP JUMPDEST SWAP3 SWAP2 POP POP JUMP JUMPDEST PUSH2 0x31C8 DUP2 PUSH2 0x311B JUMP JUMPDEST DUP3 MSTORE POP POP JUMP JUMPDEST PUSH0 PUSH1 0x20 DUP3 ADD SWAP1 POP PUSH2 0x31E1 PUSH0 DUP4 ADD DUP5 PUSH2 0x31BF JUMP JUMPDEST SWAP3 SWAP2 POP POP JUMP JUMPDEST PUSH0 PUSH0 PUSH0 PUSH1 0x60 DUP5 DUP7 SUB SLT ISZERO PUSH2 0x31FE JUMPI PUSH2 0x31FD PUSH2 0x30B9 JUMP JUMPDEST JUMPDEST PUSH0 PUSH2 0x320B DUP7 DUP3 DUP8 ADD PUSH2 0x3107 JUMP JUMPDEST SWAP4 POP POP PUSH1 0x20 PUSH2 0x321C DUP7 DUP3 DUP8 ADD PUSH2 0x3107 JUMP JUMPDEST SWAP3 POP POP PUSH1 0x40 PUSH2 0x322D DUP7 DUP3 DUP8 ADD PUSH2 0x313A JUMP JUMPDEST SWAP2 POP POP SWAP3 POP SWAP3 POP SWAP3 JUMP JUMPDEST PUSH0 PUSH1 0x20 DUP3 DUP5 SUB SLT ISZERO PUSH2 0x324C JUMPI PUSH2 0x324B PUSH2 0x30B9 JUMP JUMPDEST JUMPDEST PUSH0 PUSH2 0x3259 DUP5 DUP3 DUP6 ADD PUSH2 0x3107 JUMP JUMPDEST SWAP2 POP POP SWAP3 SWAP2 POP POP JUMP JUMPDEST PUSH0 PUSH1 0xFF DUP3 AND SWAP1 POP SWAP2 SWAP1 POP JUMP JUMPDEST PUSH2 0x3277 DUP2 PUSH2 0x3262 JUMP JUMPDEST DUP3 MSTORE POP POP JUMP JUMPDEST PUSH0 PUSH1 0x20 DUP3 ADD SWAP1 POP PUSH2 0x3290 PUSH0 DUP4 ADD DUP5 PUSH2 0x326E JUMP JUMPDEST SWAP3 SWAP2 POP POP JUMP JUMPDEST PUSH2 0x329F DUP2 PUSH2 0x30E0 JUMP JUMPDEST DUP3 MSTORE POP POP JUMP JUMPDEST PUSH0 PUSH1 0x20 DUP3 ADD SWAP1 POP PUSH2 0x32B8 PUSH0 DUP4 ADD DUP5 PUSH2 0x3296 JUMP JUMPDEST SWAP3 SWAP2 POP POP JUMP JUMPDEST PUSH0 PUSH0 REVERT JUMPDEST PUSH0 PUSH0 REVERT JUMPDEST PUSH0 PUSH0 REVERT JUMPDEST PUSH0 PUSH0 DUP4 PUSH1 0x1F DUP5 ADD SLT PUSH2 0x32DF JUMPI PUSH2 0x32DE PUSH2 0x32BE JUMP JUMPDEST JUMPDEST DUP3 CALLDATALOAD SWAP1 POP PUSH8 0xFFFFFFFFFFFFFFFF DUP2 GT ISZERO PUSH2 0x32FC JUMPI PUSH2 0x32FB PUSH2 0x32C2 JUMP JUMPDEST JUMPDEST PUSH1 0x20 DUP4 ADD SWAP2 POP DUP4 PUSH1 0x20 DUP3 MUL DUP4 ADD GT ISZERO PUSH2 0x3318 JUMPI PUSH2 0x3317 PUSH2 0x32C6 JUMP JUMPDEST JUMPDEST SWAP3 POP SWAP3 SWAP1 POP JUMP JUMPDEST PUSH0 PUSH0 DUP4 PUSH1 0x1F DUP5 ADD SLT PUSH2 0x3334 JUMPI PUSH2 0x3333 PUSH2 0x32BE JUMP JUMPDEST JUMPDEST DUP3 CALLDATALOAD SWAP1 POP PUSH8 0xFFFFFFFFFFFFFFFF DUP2 GT ISZERO PUSH2 0x3351 JUMPI PUSH2 0x3350 PUSH2 0x32C2 JUMP JUMPDEST JUMPDEST PUSH1 0x20 DUP4 ADD SWAP2 POP DUP4 PUSH1 0x20 DUP3 MUL DUP4 ADD GT ISZERO PUSH2 0x336D JUMPI PUSH2 0x336C PUSH2 0x32C6 JUMP JUMPDEST JUMPDEST SWAP3 POP SWAP3 SWAP1 POP JUMP JUMPDEST PUSH0 PUSH0 PUSH0 PUSH0 PUSH1 0x40 DUP6 DUP8 SUB SLT ISZERO PUSH2 0x338C JUMPI PUSH2 0x338B PUSH2 0x30B9 JUMP JUMPDEST JUMPDEST PUSH0 DUP6 ADD CALLDATALOAD PUSH8 0xFFFFFFFFFFFFFFFF DUP2 GT ISZERO PUSH2 0x33A9 JUMPI PUSH2 0x33A8 PUSH2 0x30BD JUMP JUMPDEST JUMPDEST PUSH2 0x33B5 DUP8 DUP3 DUP9 ADD PUSH2 0x32CA JUMP JUMPDEST SWAP5 POP SWAP5 POP POP PUSH1 0x20 DUP6 ADD CALLDATALOAD PUSH8 0xFFFFFFFFFFFFFFFF DUP2 GT ISZERO PUSH2 0x33D8 JUMPI PUSH2 0x33D7 PUSH2 0x30BD JUMP JUMPDEST JUMPDEST PUSH2 0x33E4 DUP8 DUP3 DUP9 ADD PUSH2 0x331F JUMP JUMPDEST SWAP3 POP SWAP3 POP POP SWAP3 SWAP6 SWAP2 SWAP5 POP SWAP3 POP JUMP JUMPDEST PUSH0 PUSH4 0xFFFFFFFF DUP3 AND SWAP1 POP SWAP2 SWAP1 POP JUMP JUMPDEST PUSH2 0x340A DUP2 PUSH2 0x33F2 JUMP JUMPDEST DUP3 MSTORE POP POP JUMP JUMPDEST PUSH0 PUSH1 0x20 DUP3 ADD SWAP1 POP PUSH2 0x3423 PUSH0 DUP4 ADD DUP5 PUSH2 0x3401 JUMP JUMPDEST SWAP3 SWAP2 POP POP JUMP JUMPDEST PUSH0 PUSH32 0xFF00000000000000000000000000000000000000000000000000000000000000 DUP3 AND SWAP1 POP SWAP2 SWAP1 POP JUMP JUMPDEST PUSH2 0x345D DUP2 PUSH2 0x3429 JUMP JUMPDEST DUP3 MSTORE POP POP JUMP JUMPDEST PUSH0 DUP2 SWAP1 POP SWAP2 SWAP1 POP JUMP JUMPDEST PUSH2 0x3475 DUP2 PUSH2 0x3463 JUMP JUMPDEST DUP3 MSTORE POP POP JUMP JUMPDEST PUSH0 DUP2 MLOAD SWAP1 POP SWAP2 SWAP1 POP JUMP JUMPDEST PUSH0 DUP3 DUP3 MSTORE PUSH1 0x20 DUP3 ADD SWAP1 POP SWAP3 SWAP2 POP POP JUMP JUMPDEST PUSH0 DUP2 SWAP1 POP PUSH1 0x20 DUP3 ADD SWAP1 POP SWAP2 SWAP1 POP JUMP JUMPDEST PUSH2 0x34AD DUP2 PUSH2 0x311B JUMP JUMPDEST DUP3 MSTORE POP POP JUMP JUMPDEST PUSH0 PUSH2 0x34BE DUP4 DUP4 PUSH2 0x34A4 JUMP JUMPDEST PUSH1 0x20 DUP4 ADD SWAP1 POP SWAP3 SWAP2 POP POP JUMP JUMPDEST PUSH0 PUSH1 0x20 DUP3 ADD SWAP1 POP SWAP2 SWAP1 POP JUMP JUMPDEST PUSH0 PUSH2 0x34E0 DUP3 PUSH2 0x347B JUMP JUMPDEST PUSH2 0x34EA DUP2 DUP6 PUSH2 0x3485 JUMP JUMPDEST SWAP4 POP PUSH2 0x34F5 DUP4 PUSH2 0x3495 JUMP JUMPDEST DUP1 PUSH0 JUMPDEST DUP4 DUP2 LT ISZERO PUSH2 0x3525 JUMPI DUP2 MLOAD PUSH2 0x350C DUP9 DUP3 PUSH2 0x34B3 JUMP JUMPDEST SWAP8 POP PUSH2 0x3517 DUP4 PUSH2 0x34CA JUMP JUMPDEST SWAP3 POP POP PUSH1 0x1 DUP2 ADD SWAP1 POP PUSH2 0x34F8 JUMP JUMPDEST POP DUP6 SWAP4 POP POP POP POP SWAP3 SWAP2 POP POP JUMP JUMPDEST PUSH0 PUSH1 0xE0 DUP3 ADD SWAP1 POP PUSH2 0x3545 PUSH0 DUP4 ADD DUP11 PUSH2 0x3454 JUMP JUMPDEST DUP2 DUP2 SUB PUSH1 0x20 DUP4 ADD MSTORE PUSH2 0x3557 DUP2 DUP10 PUSH2 0x3061 JUMP JUMPDEST SWAP1 POP DUP2 DUP2 SUB PUSH1 0x40 DUP4 ADD MSTORE PUSH2 0x356B DUP2 DUP9 PUSH2 0x3061 JUMP JUMPDEST SWAP1 POP PUSH2 0x357A PUSH1 0x60 DUP4 ADD DUP8 PUSH2 0x31BF JUMP JUMPDEST PUSH2 0x3587 PUSH1 0x80 DUP4 ADD DUP7 PUSH2 0x3296 JUMP JUMPDEST PUSH2 0x3594 PUSH1 0xA0 DUP4 ADD DUP6 PUSH2 0x346C JUMP JUMPDEST DUP2 DUP2 SUB PUSH1 0xC0 DUP4 ADD MSTORE PUSH2 0x35A6 DUP2 DUP5 PUSH2 0x34D6 JUMP JUMPDEST SWAP1 POP SWAP9 SWAP8 POP POP POP POP POP POP POP POP JUMP JUMPDEST PUSH0 PUSH1 0x20 DUP3 DUP5 SUB SLT ISZERO PUSH2 0x35C9 JUMPI PUSH2 0x35C8 PUSH2 0x30B9 JUMP JUMPDEST JUMPDEST PUSH0 PUSH2 0x35D6 DUP5 DUP3 DUP6 ADD PUSH2 0x313A JUMP JUMPDEST SWAP2 POP POP SWAP3 SWAP2 POP POP JUMP JUMPDEST PUSH0 PUSH6 0xFFFFFFFFFFFF DUP3 AND SWAP1 POP SWAP2 SWAP1 POP JUMP JUMPDEST PUSH2 0x35F9 DUP2 PUSH2 0x35DF JUMP JUMPDEST DUP3 MSTORE POP POP JUMP JUMPDEST PUSH0 PUSH1 0x20 DUP3 ADD SWAP1 POP PUSH2 0x3612 PUSH0 DUP4 ADD DUP5 PUSH2 0x35F0 JUMP JUMPDEST SWAP3 SWAP2 POP POP JUMP JUMPDEST PUSH2 0x3621 DUP2 PUSH2 0x3262 JUMP JUMPDEST DUP2 EQ PUSH2 0x362B JUMPI PUSH0 PUSH0 REVERT JUMPDEST POP JUMP JUMPDEST PUSH0 DUP2 CALLDATALOAD SWAP1 POP PUSH2 0x363C DUP2 PUSH2 0x3618 JUMP JUMPDEST SWAP3 SWAP2 POP POP JUMP JUMPDEST PUSH2 0x364B DUP2 PUSH2 0x3463 JUMP JUMPDEST DUP2 EQ PUSH2 0x3655 JUMPI PUSH0 PUSH0 REVERT JUMPDEST POP JUMP JUMPDEST PUSH0 DUP2 CALLDATALOAD SWAP1 POP PUSH2 0x3666 DUP2 PUSH2 0x3642 JUMP JUMPDEST SWAP3 SWAP2 POP POP JUMP JUMPDEST PUSH0 PUSH0 PUSH0 PUSH0 PUSH0 PUSH0 PUSH1 0xC0 DUP8 DUP10 SUB SLT ISZERO PUSH2 0x3686 JUMPI PUSH2 0x3685 PUSH2 0x30B9 JUMP JUMPDEST JUMPDEST PUSH0 PUSH2 0x3693 DUP10 DUP3 DUP11 ADD PUSH2 0x3107 JUMP JUMPDEST SWAP7 POP POP PUSH1 0x20 PUSH2 0x36A4 DUP10 DUP3 DUP11 ADD PUSH2 0x313A JUMP JUMPDEST SWAP6 POP POP PUSH1 0x40 PUSH2 0x36B5 DUP10 DUP3 DUP11 ADD PUSH2 0x313A JUMP JUMPDEST SWAP5 POP POP PUSH1 0x60 PUSH2 0x36C6 DUP10 DUP3 DUP11 ADD PUSH2 0x362E JUMP JUMPDEST SWAP4 POP POP PUSH1 0x80 PUSH2 0x36D7 DUP10 DUP3 DUP11 ADD PUSH2 0x3658 JUMP JUMPDEST SWAP3 POP POP PUSH1 0xA0 PUSH2 0x36E8 DUP10 DUP3 DUP11 ADD PUSH2 0x3658 JUMP JUMPDEST SWAP2 POP POP SWAP3 SWAP6 POP SWAP3 SWAP6 POP SWAP3 SWAP6 JUMP JUMPDEST PUSH0 PUSH0 PUSH1 0x40 DUP4 DUP6 SUB SLT ISZERO PUSH2 0x370B JUMPI PUSH2 0x370A PUSH2 0x30B9 JUMP JUMPDEST JUMPDEST PUSH0 PUSH2 0x3718 DUP6 DUP3 DUP7 ADD PUSH2 0x3107 JUMP JUMPDEST SWAP3 POP POP PUSH1 0x20 PUSH2 0x3729 DUP6 DUP3 DUP7 ADD PUSH2 0x3107 JUMP JUMPDEST SWAP2 POP POP SWAP3 POP SWAP3 SWAP1 POP JUMP JUMPDEST PUSH2 0x373C DUP2 PUSH2 0x33F2 JUMP JUMPDEST DUP2 EQ PUSH2 0x3746 JUMPI PUSH0 PUSH0 REVERT JUMPDEST POP JUMP JUMPDEST PUSH0 DUP2 CALLDATALOAD SWAP1 POP PUSH2 0x3757 DUP2 PUSH2 0x3733 JUMP JUMPDEST SWAP3 SWAP2 POP POP JUMP JUMPDEST PUSH0 PUSH0 PUSH1 0x40 DUP4 DUP6 SUB SLT ISZERO PUSH2 0x3773 JUMPI PUSH2 0x3772 PUSH2 0x30B9 JUMP JUMPDEST JUMPDEST PUSH0 PUSH2 0x3780 DUP6 DUP3 DUP7 ADD PUSH2 0x3107 JUMP JUMPDEST SWAP3 POP POP PUSH1 0x20 PUSH2 0x3791 DUP6 DUP3 DUP7 ADD PUSH2 0x3749 JUMP JUMPDEST SWAP2 POP POP SWAP3 POP SWAP3 SWAP1 POP JUMP JUMPDEST PUSH2 0x37A4 DUP2 PUSH2 0x35DF JUMP JUMPDEST DUP3 MSTORE POP POP JUMP JUMPDEST PUSH0 PUSH26 0xFFFFFFFFFFFFFFFFFFFFFFFFFFFFFFFFFFFFFFFFFFFFFFFFFFFF DUP3 AND SWAP1 POP SWAP2 SWAP1 POP JUMP JUMPDEST PUSH2 0x37D8 DUP2 PUSH2 0x37AA JUMP JUMPDEST DUP3 MSTORE POP POP JUMP JUMPDEST PUSH1 0x40 DUP3 ADD PUSH0 DUP3 ADD MLOAD PUSH2 0x37F2 PUSH0 DUP6 ADD DUP3 PUSH2 0x379B JUMP JUMPDEST POP PUSH1 0x20 DUP3 ADD MLOAD PUSH2 0x3805 PUSH1 0x20 DUP6 ADD DUP3 PUSH2 0x37CF JUMP JUMPDEST POP POP POP POP JUMP JUMPDEST PUSH0 PUSH1 0x40 DUP3 ADD SWAP1 POP PUSH2 0x381E PUSH0 DUP4 ADD DUP5 PUSH2 0x37DE JUMP JUMPDEST SWAP3 SWAP2 POP POP JUMP JUMPDEST PUSH32 0x4E487B7100000000000000000000000000000000000000000000000000000000 PUSH0 MSTORE PUSH1 0x22 PUSH1 0x4 MSTORE PUSH1 0x24 PUSH0 REVERT JUMPDEST PUSH0 PUSH1 0x2 DUP3 DIV SWAP1 POP PUSH1 0x1 DUP3 AND DUP1 PUSH2 0x3868 JUMPI PUSH1 0x7F DUP3 AND SWAP2 POP JUMPDEST PUSH1 0x20 DUP3 LT DUP2 SUB PUSH2 0x387B JUMPI PUSH2 0x387A PUSH2 0x3824 JUMP JUMPDEST JUMPDEST POP SWAP2 SWAP1 POP JUMP JUMPDEST PUSH32 0x4E6F7420617574686F72697A656420746F206D696E7400000000000000000000 PUSH0 DUP3 ADD MSTORE POP JUMP JUMPDEST PUSH0 PUSH2 0x38B5 PUSH1 0x16 DUP4 PUSH2 0x3033 JUMP JUMPDEST SWAP2 POP PUSH2 0x38C0 DUP3 PUSH2 0x3881 JUMP JUMPDEST PUSH1 0x20 DUP3 ADD SWAP1 POP SWAP2 SWAP1 POP JUMP JUMPDEST PUSH0 PUSH1 0x20 DUP3 ADD SWAP1 POP DUP2 DUP2 SUB PUSH0 DUP4 ADD MSTORE PUSH2 0x38E2 DUP2 PUSH2 0x38A9 JUMP JUMPDEST SWAP1 POP SWAP2 SWAP1 POP JUMP JUMPDEST PUSH32 0x4E487B7100000000000000000000000000000000000000000000000000000000 PUSH0 MSTORE PUSH1 0x11 PUSH1 0x4 MSTORE PUSH1 0x24 PUSH0 REVERT JUMPDEST PUSH0 PUSH2 0x3920 DUP3 PUSH2 0x311B JUMP JUMPDEST SWAP2 POP PUSH2 0x392B DUP4 PUSH2 0x311B JUMP JUMPDEST SWAP3 POP DUP3 DUP3 ADD SWAP1 POP DUP1 DUP3 GT ISZERO PUSH2 0x3943 JUMPI PUSH2 0x3942 PUSH2 0x38E9 JUMP JUMPDEST JUMPDEST SWAP3 SWAP2 POP POP JUMP JUMPDEST PUSH32 0x45786365656473206D617820737570706C790000000000000000000000000000 PUSH0 DUP3 ADD MSTORE POP JUMP JUMPDEST PUSH0 PUSH2 0x397D PUSH1 0x12 DUP4 PUSH2 0x3033 JUMP JUMPDEST SWAP2 POP PUSH2 0x3988 DUP3 PUSH2 0x3949 JUMP JUMPDEST PUSH1 0x20 DUP3 ADD SWAP1 POP SWAP2 SWAP1 POP JUMP JUMPDEST PUSH0 PUSH1 0x20 DUP3 ADD SWAP1 POP DUP2 DUP2 SUB PUSH0 DUP4 ADD MSTORE PUSH2 0x39AA DUP2 PUSH2 0x3971 JUMP JUMPDEST SWAP1 POP SWAP2 SWAP1 POP JUMP JUMPDEST PUSH32 0x417272617973206C656E677468206D69736D6174636800000000000000000000 PUSH0 DUP3 ADD MSTORE POP JUMP JUMPDEST PUSH0 PUSH2 0x39E5 PUSH1 0x16 DUP4 PUSH2 0x3033 JUMP JUMPDEST SWAP2 POP PUSH2 0x39F0 DUP3 PUSH2 0x39B1 JUMP JUMPDEST PUSH1 0x20 DUP3 ADD SWAP1 POP SWAP2 SWAP1 POP JUMP JUMPDEST PUSH0 PUSH1 0x20 DUP3 ADD SWAP1 POP DUP2 DUP2 SUB PUSH0 DUP4 ADD MSTORE PUSH2 0x3A12 DUP2 PUSH2 0x39D9 JUMP JUMPDEST SWAP1 POP SWAP2 SWAP1 POP JUMP JUMPDEST PUSH32 0x4E487B7100000000000000000000000000000000000000000000000000000000 PUSH0 MSTORE PUSH1 0x32 PUSH1 0x4 MSTORE PUSH1 0x24 PUSH0 REVERT JUMPDEST PUSH32 0x4E487B7100000000000000000000000000000000000000000000000000000000 PUSH0 MSTORE PUSH1 0x41 PUSH1 0x4 MSTORE PUSH1 0x24 PUSH0 REVERT JUMPDEST PUSH0 PUSH1 0x80 DUP3 ADD SWAP1 POP PUSH2 0x3A86 PUSH0 DUP4 ADD DUP8 PUSH2 0x346C JUMP JUMPDEST PUSH2 0x3A93 PUSH1 0x20 DUP4 ADD DUP7 PUSH2 0x3296 JUMP JUMPDEST PUSH2 0x3AA0 PUSH1 0x40 DUP4 ADD DUP6 PUSH2 0x31BF JUMP JUMPDEST PUSH2 0x3AAD PUSH1 0x60 DUP4 ADD DUP5 PUSH2 0x31BF JUMP JUMPDEST SWAP6 SWAP5 POP POP POP POP POP JUMP JUMPDEST PUSH0 PUSH2 0x3AC0 DUP3 PUSH2 0x37AA JUMP JUMPDEST SWAP2 POP PUSH2 0x3ACB DUP4 PUSH2 0x37AA JUMP JUMPDEST SWAP3 POP DUP3 DUP3 ADD SWAP1 POP PUSH26 0xFFFFFFFFFFFFFFFFFFFFFFFFFFFFFFFFFFFFFFFFFFFFFFFFFFFF DUP2 GT ISZERO PUSH2 0x3AFD JUMPI PUSH2 0x3AFC PUSH2 0x38E9 JUMP JUMPDEST JUMPDEST SWAP3 SWAP2 POP POP JUMP JUMPDEST PUSH0 PUSH2 0x3B0D DUP3 PUSH2 0x37AA JUMP JUMPDEST SWAP2 POP PUSH2 0x3B18 DUP4 PUSH2 0x37AA JUMP JUMPDEST SWAP3 POP DUP3 DUP3 SUB SWAP1 POP PUSH26 0xFFFFFFFFFFFFFFFFFFFFFFFFFFFFFFFFFFFFFFFFFFFFFFFFFFFF DUP2 GT ISZERO PUSH2 0x3B4A JUMPI PUSH2 0x3B49 PUSH2 0x38E9 JUMP JUMPDEST JUMPDEST SWAP3 SWAP2 POP POP JUMP JUMPDEST PUSH0 PUSH1 0x60 DUP3 ADD SWAP1 POP PUSH2 0x3B63 PUSH0 DUP4 ADD DUP7 PUSH2 0x3296 JUMP JUMPDEST PUSH2 0x3B70 PUSH1 0x20 DUP4 ADD DUP6 PUSH2 0x31BF JUMP JUMPDEST PUSH2 0x3B7D PUSH1 0x40 DUP4 ADD DUP5 PUSH2 0x31BF JUMP JUMPDEST SWAP5 SWAP4 POP POP POP POP JUMP JUMPDEST PUSH0 PUSH1 0x40 DUP3 ADD SWAP1 POP PUSH2 0x3B98 PUSH0 DUP4 ADD DUP6 PUSH2 0x31BF JUMP JUMPDEST PUSH2 0x3BA5 PUSH1 0x20 DUP4 ADD DUP5 PUSH2 0x35F0 JUMP JUMPDEST SWAP4 SWAP3 POP POP POP JUMP JUMPDEST PUSH0 PUSH2 0x3BB6 DUP3 PUSH2 0x311B JUMP JUMPDEST SWAP2 POP PUSH2 0x3BC1 DUP4 PUSH2 0x311B JUMP JUMPDEST SWAP3 POP DUP3 DUP3 SUB SWAP1 POP DUP2 DUP2 GT ISZERO PUSH2 0x3BD9 JUMPI PUSH2 0x3BD8 PUSH2 0x38E9 JUMP JUMPDEST JUMPDEST SWAP3 SWAP2 POP POP JUMP JUMPDEST PUSH0 PUSH1 0x40 DUP3 ADD SWAP1 POP PUSH2 0x3BF2 PUSH0 DUP4 ADD DUP6 PUSH2 0x3296 JUMP JUMPDEST PUSH2 0x3BFF PUSH1 0x20 DUP4 ADD DUP5 PUSH2 0x31BF JUMP JUMPDEST SWAP4 SWAP3 POP POP POP JUMP JUMPDEST PUSH0 DUP2 SWAP1 POP SWAP2 SWAP1 POP JUMP JUMPDEST PUSH0 DUP2 SWAP1 POP SWAP2 SWAP1 POP JUMP JUMPDEST PUSH0 PUSH2 0x3C32 PUSH2 0x3C2D PUSH2 0x3C28 DUP5 PUSH2 0x3C06 JUMP JUMPDEST PUSH2 0x3C0F JUMP JUMPDEST PUSH2 0x3262 JUMP JUMPDEST SWAP1 POP SWAP2 SWAP1 POP JUMP JUMPDEST PUSH2 0x3C42 DUP2 PUSH2 0x3C18 JUMP JUMPDEST DUP3 MSTORE POP POP JUMP JUMPDEST PUSH0 PUSH1 0x40 DUP3 ADD SWAP1 POP PUSH2 0x3C5B PUSH0 DUP4 ADD DUP6 PUSH2 0x3C39 JUMP JUMPDEST PUSH2 0x3C68 PUSH1 0x20 DUP4 ADD DUP5 PUSH2 0x31BF JUMP JUMPDEST SWAP4 SWAP3 POP POP POP JUMP JUMPDEST PUSH32 0x4E487B7100000000000000000000000000000000000000000000000000000000 PUSH0 MSTORE PUSH1 0x12 PUSH1 0x4 MSTORE PUSH1 0x24 PUSH0 REVERT JUMPDEST PUSH0 PUSH1 0x40 DUP3 ADD SWAP1 POP PUSH2 0x3CAF PUSH0 DUP4 ADD DUP6 PUSH2 0x31BF JUMP JUMPDEST PUSH2 0x3CBC PUSH1 0x20 DUP4 ADD DUP5 PUSH2 0x31BF JUMP JUMPDEST SWAP4 SWAP3 POP POP POP JUMP JUMPDEST PUSH0 DUP2 SWAP1 POP SWAP2 SWAP1 POP JUMP JUMPDEST PUSH0 PUSH2 0x3CE6 PUSH2 0x3CE1 PUSH2 0x3CDC DUP5 PUSH2 0x3CC3 JUMP JUMPDEST PUSH2 0x3C0F JUMP JUMPDEST PUSH2 0x3262 JUMP JUMPDEST SWAP1 POP SWAP2 SWAP1 POP JUMP JUMPDEST PUSH2 0x3CF6 DUP2 PUSH2 0x3CCC JUMP JUMPDEST DUP3 MSTORE POP POP JUMP JUMPDEST PUSH0 PUSH1 0x40 DUP3 ADD SWAP1 POP PUSH2 0x3D0F PUSH0 DUP4 ADD DUP6 PUSH2 0x3CED JUMP JUMPDEST PUSH2 0x3D1C PUSH1 0x20 DUP4 ADD DUP5 PUSH2 0x31BF JUMP JUMPDEST SWAP4 SWAP3 POP POP POP JUMP JUMPDEST PUSH0 PUSH1 0x80 DUP3 ADD SWAP1 POP PUSH2 0x3D36 PUSH0 DUP4 ADD DUP8 PUSH2 0x346C JUMP JUMPDEST PUSH2 0x3D43 PUSH1 0x20 DUP4 ADD DUP7 PUSH2 0x326E JUMP JUMPDEST PUSH2 0x3D50 PUSH1 0x40 DUP4 ADD DUP6 PUSH2 0x346C JUMP JUMPDEST PUSH2 0x3D5D PUSH1 0x60 DUP4 ADD DUP5 PUSH2 0x346C JUMP JUMPDEST SWAP6 SWAP5 POP POP POP POP POP JUMP JUMPDEST PUSH32 0x4E487B7100000000000000000000000000000000000000000000000000000000 PUSH0 MSTORE PUSH1 0x21 PUSH1 0x4 MSTORE PUSH1 0x24 PUSH0 REVERT JUMPDEST PUSH0 PUSH1 0x20 DUP3 ADD SWAP1 POP PUSH2 0x3DA6 PUSH0 DUP4 ADD DUP5 PUSH2 0x346C JUMP JUMPDEST SWAP3 SWAP2 POP POP JUMP JUMPDEST PUSH0 PUSH2 0x3DB6 DUP3 PUSH2 0x311B JUMP JUMPDEST SWAP2 POP PUSH2 0x3DC1 DUP4 PUSH2 0x311B JUMP JUMPDEST SWAP3 POP DUP3 PUSH2 0x3DD1 JUMPI PUSH2 0x3DD0 PUSH2 0x3C6F JUMP JUMPDEST JUMPDEST DUP3 DUP3 DIV SWAP1 POP SWAP3 SWAP2 POP POP JUMP JUMPDEST PUSH0 DUP2 SWAP1 POP SWAP2 SWAP1 POP JUMP JUMPDEST PUSH0 PUSH2 0x3DFF PUSH2 0x3DFA PUSH2 0x3DF5 DUP5 PUSH2 0x3DDC JUMP JUMPDEST PUSH2 0x3C0F JUMP JUMPDEST PUSH2 0x3262 JUMP JUMPDEST SWAP1 POP SWAP2 SWAP1 POP JUMP JUMPDEST PUSH2 0x3E0F DUP2 PUSH2 0x3DE5 JUMP JUMPDEST DUP3 MSTORE POP POP JUMP JUMPDEST PUSH0 PUSH1 0x40 DUP3 ADD SWAP1 POP PUSH2 0x3E28 PUSH0 DUP4 ADD DUP6 PUSH2 0x3E06 JUMP JUMPDEST PUSH2 0x3E35 PUSH1 0x20 DUP4 ADD DUP5 PUSH2 0x31BF JUMP JUMPDEST SWAP4 SWAP3 POP POP POP JUMP JUMPDEST PUSH0 PUSH1 0xA0 DUP3 ADD SWAP1 POP PUSH2 0x3E4F PUSH0 DUP4 ADD DUP9 PUSH2 0x346C JUMP JUMPDEST PUSH2 0x3E5C PUSH1 0x20 DUP4 ADD DUP8 PUSH2 0x346C JUMP JUMPDEST PUSH2 0x3E69 PUSH1 0x40 DUP4 ADD DUP7 PUSH2 0x346C JUMP JUMPDEST PUSH2 0x3E76 PUSH1 0x60 DUP4 ADD DUP6 PUSH2 0x31BF JUMP JUMPDEST PUSH2 0x3E83 PUSH1 0x80 DUP4 ADD DUP5 PUSH2 0x3296 JUMP JUMPDEST SWAP7 SWAP6 POP POP POP POP POP POP JUMP INVALID LOG2 PUSH5 0x6970667358 0x22 SLT KECCAK256 SWAP2 MSTORE8 0xB0 0x25 SWAP10 ADDMOD GAS 0x1F EXTCODESIZE 0xC7 0xA6 0xD9 LOG3 PUSH21 0xB257196537EE93D0E4E32FA96A6013BD225A64736F PUSH13 0x634300081E0033000000000000 "
	},
	"Assembly": ".code\n  PUSH 160\t\t\tcontract DAOToken is ERC20, ER...\n  PUSH 40\t\t\tcontract DAOToken is ERC20, ER...\n  MSTORE \t\t\tcontract DAOToken is ERC20, ER...\n  CALLVALUE \t\t\tconstructor(\\r\\n        addres...\n  DUP1 \t\t\tconstructor(\\r\\n        addres...\n  ISZERO \t\t\tconstructor(\\r\\n        addres...\n  PUSH [tag] 1\t\t\tconstructor(\\r\\n        addres...\n  JUMPI \t\t\tconstructor(\\r\\n        addres...\n  PUSH 0\t\t\tconstructor(\\r\\n        addres...\n  PUSH 0\t\t\tconstructor(\\r\\n        addres...\n  REVERT \t\t\tconstructor(\\r\\n        addres...\ntag 1\t\t\tconstructor(\\r\\n        addres...\n  JUMPDEST \t\t\tconstructor(\\r\\n        addres...\n  POP \t\t\tconstructor(\\r\\n        addres...\n  PUSH 40\t\t\tconstructor(\\r\\n        addres...\n  MLOAD \t\t\tconstructor(\\r\\n        addres...\n  PUSHSIZE \t\t\tconstructor(\\r\\n        addres...\n  CODESIZE \t\t\tconstructor(\\r\\n        addres...\n  SUB \t\t\tconstructor(\\r\\n        addres...\n  DUP1 \t\t\tconstructor(\\r\\n        addres...\n  PUSHSIZE \t\t\tconstructor(\\r\\n        addres...\n  DUP4 \t\t\tconstructor(\\r\\n        addres...\n  CODECOPY \t\t\tconstructor(\\r\\n        addres...\n  DUP2 \t\t\tconstructor(\\r\\n        addres...\n  DUP2 \t\t\tconstructor(\\r\\n        addres...\n  ADD \t\t\tconstructor(\\r\\n        addres...\n  PUSH 40\t\t\tconstructor(\\r\\n        addres...\n  MSTORE \t\t\tconstructor(\\r\\n        addres...\n  DUP2 \t\t\tconstructor(\\r\\n        addres...\n  ADD \t\t\tconstructor(\\r\\n        addres...\n  SWAP1 \t\t\tconstructor(\\r\\n        addres...\n  PUSH [tag] 2\t\t\tconstructor(\\r\\n        addres...\n  SWAP2 \t\t\tconstructor(\\r\\n        addres...\n  SWAP1 \t\t\tconstructor(\\r\\n        addres...\n  PUSH [tag] 3\t\t\tconstructor(\\r\\n        addres...\n  JUMP \t\t\tconstructor(\\r\\n        addres...\ntag 2\t\t\tconstructor(\\r\\n        addres...\n  JUMPDEST \t\t\tconstructor(\\r\\n        addres...\n  DUP1 \t\t\tinitialOwner\n  PUSH 40\t\t\ty for multiple inheritance\\r\\n...\n  MLOAD \t\t\ty for multiple inheritance\\r\\n...\n  DUP1 \t\t\ty for multiple inheritance\\r\\n...\n  PUSH 40\t\t\ty for multiple inheritance\\r\\n...\n  ADD \t\t\ty for multiple inheritance\\r\\n...\n  PUSH 40\t\t\ty for multiple inheritance\\r\\n...\n  MSTORE \t\t\ty for multiple inheritance\\r\\n...\n  DUP1 \t\t\ty for multiple inheritance\\r\\n...\n  PUSH 13\t\t\ty for multiple inheritance\\r\\n...\n  DUP2 \t\t\ty for multiple inheritance\\r\\n...\n  MSTORE \t\t\ty for multiple inheritance\\r\\n...\n  PUSH 20\t\t\ty for multiple inheritance\\r\\n...\n  ADD \t\t\ty for multiple inheritance\\r\\n...\n  PUSH 5365637572654769672044414F20546F6B656E00000000000000000000000000\t\t\ty for multiple inheritance\\r\\n...\n  DUP2 \t\t\ty for multiple inheritance\\r\\n...\n  MSTORE \t\t\ty for multiple inheritance\\r\\n...\n  POP \t\t\ty for multiple inheritance\\r\\n...\n  PUSH 40\t\t\ty for multiple inheritance\\r\\n...\n  MLOAD \t\t\ty for multiple inheritance\\r\\n...\n  DUP1 \t\t\ty for multiple inheritance\\r\\n...\n  PUSH 40\t\t\ty for multiple inheritance\\r\\n...\n  ADD \t\t\ty for multiple inheritance\\r\\n...\n  PUSH 40\t\t\ty for multiple inheritance\\r\\n...\n  MSTORE \t\t\ty for multiple inheritance\\r\\n...\n  DUP1 \t\t\ty for multiple inheritance\\r\\n...\n  PUSH 1\t\t\ty for multiple inheritance\\r\\n...\n  DUP2 \t\t\ty for multiple inheritance\\r\\n...\n  MSTORE \t\t\ty for multiple inheritance\\r\\n...\n  PUSH 20\t\t\ty for multiple inheritance\\r\\n...\n  ADD \t\t\ty for multiple inheritance\\r\\n...\n  PUSH 3100000000000000000000000000000000000000000000000000000000000000\t\t\ty for multiple inheritance\\r\\n...\n  DUP2 \t\t\ty for multiple inheritance\\r\\n...\n  MSTORE \t\t\ty for multiple inheritance\\r\\n...\n  POP \t\t\ty for multiple inheritance\\r\\n...\n  PUSH 40\t\t\t    ) ERC20(\"SecureGig DAO Tok...\n  MLOAD \t\t\t    ) ERC20(\"SecureGig DAO Tok...\n  DUP1 \t\t\t    ) ERC20(\"SecureGig DAO Tok...\n  PUSH 40\t\t\t    ) ERC20(\"SecureGig DAO Tok...\n  ADD \t\t\t    ) ERC20(\"SecureGig DAO Tok...\n  PUSH 40\t\t\t    ) ERC20(\"SecureGig DAO Tok...\n  MSTORE \t\t\t    ) ERC20(\"SecureGig DAO Tok...\n  DUP1 \t\t\t    ) ERC20(\"SecureGig DAO Tok...\n  PUSH 13\t\t\t    ) ERC20(\"SecureGig DAO Tok...\n  DUP2 \t\t\t    ) ERC20(\"SecureGig DAO Tok...\n  MSTORE \t\t\t    ) ERC20(\"SecureGig DAO Tok...\n  PUSH 20\t\t\t    ) ERC20(\"SecureGig DAO Tok...\n  ADD \t\t\t    ) ERC20(\"SecureGig DAO Tok...\n  PUSH 5365637572654769672044414F20546F6B656E00000000000000000000000000\t\t\t    ) ERC20(\"SecureGig DAO Tok...\n  DUP2 \t\t\t    ) ERC20(\"SecureGig DAO Tok...\n  MSTORE \t\t\t    ) ERC20(\"SecureGig DAO Tok...\n  POP \t\t\t    ) ERC20(\"SecureGig DAO Tok...\n  PUSH 40\t\t\t    ) ERC20(\"SecureGig DAO Tok...\n  MLOAD \t\t\t    ) ERC20(\"SecureGig DAO Tok...\n  DUP1 \t\t\t    ) ERC20(\"SecureGig DAO Tok...\n  PUSH 40\t\t\t    ) ERC20(\"SecureGig DAO Tok...\n  ADD \t\t\t    ) ERC20(\"SecureGig DAO Tok...\n  PUSH 40\t\t\t    ) ERC20(\"SecureGig DAO Tok...\n  MSTORE \t\t\t    ) ERC20(\"SecureGig DAO Tok...\n  DUP1 \t\t\t    ) ERC20(\"SecureGig DAO Tok...\n  PUSH 4\t\t\t    ) ERC20(\"SecureGig DAO Tok...\n  DUP2 \t\t\t    ) ERC20(\"SecureGig DAO Tok...\n  MSTORE \t\t\t    ) ERC20(\"SecureGig DAO Tok...\n  PUSH 20\t\t\t    ) ERC20(\"SecureGig DAO Tok...\n  ADD \t\t\t    ) ERC20(\"SecureGig DAO Tok...\n  PUSH 5347445400000000000000000000000000000000000000000000000000000000\t\t\t    ) ERC20(\"SecureGig DAO Tok...\n  DUP2 \t\t\t    ) ERC20(\"SecureGig DAO Tok...\n  MSTORE \t\t\t    ) ERC20(\"SecureGig DAO Tok...\n  POP \t\t\t    ) ERC20(\"SecureGig DAO Tok...\n  DUP2 \t\t\tecure\n  PUSH 3\t\t\tIP712\n  SWAP1 \t\t\tIP712(\"Secure\n  DUP2 \t\t\tIP712(\"Secure\n  PUSH [tag] 9\t\t\tIP712(\"Secure\n  SWAP2 \t\t\tIP712(\"Secure\n  SWAP1 \t\t\tIP712(\"Secure\n  PUSH [tag] 10\t\t\tIP712(\"Secure\n  JUMP \t\t\tIP712(\"Secure\ntag 9\t\t\tIP712(\"Secure\n  JUMPDEST \t\t\tIP712(\"Secure\n  POP \t\t\tIP712(\"Secure\n  DUP1 \t\t\t {\\r\\n   \n  PUSH 4\t\t\tken\", \"\n  SWAP1 \t\t\tken\", \"1\") {\\r\\n   \n  DUP2 \t\t\tken\", \"1\") {\\r\\n   \n  PUSH [tag] 11\t\t\tken\", \"1\") {\\r\\n   \n  SWAP2 \t\t\tken\", \"1\") {\\r\\n   \n  SWAP1 \t\t\tken\", \"1\") {\\r\\n   \n  PUSH [tag] 10\t\t\tken\", \"1\") {\\r\\n   \n  JUMP \t\t\tken\", \"1\") {\\r\\n   \ntag 11\t\t\tken\", \"1\") {\\r\\n   \n  JUMPDEST \t\t\tken\", \"1\") {\\r\\n   \n  POP \t\t\tken\", \"1\") {\\r\\n   \n  POP \t\t\t    ) ERC20(\"SecureGig DAO Tok...\n  POP \t\t\t    ) ERC20(\"SecureGig DAO Tok...\n  PUSH [tag] 13\t\t\t, uint256 value) internal over...\n  PUSH 5\t\t\tide(ERC20, ER\n  DUP4 \t\t\t, ui\n  PUSH [tag] 14\t\t\t, uint256 value) internal over\n  PUSH 20\t\t\t, uint256 value) internal over\n  SHL \t\t\t, uint256 value) internal over\n  SWAP1 \t\t\t, uint256 value) internal over\n  SWAP2 \t\t\t, uint256 value) internal over...\n  SWAP1 \t\t\t, uint256 value) internal over...\n  PUSH 20\t\t\t, uint256 value) internal over...\n  SHR \t\t\t, uint256 value) internal over...\n  JUMP \t\t\t, uint256 value) internal over...\ntag 13\t\t\t, uint256 value) internal over...\n  JUMPDEST \t\t\t, uint256 value) internal over...\n  PUSH 120\t\t\tdress to, uint256 value) inter...\n  DUP2 \t\t\tdress to, uint256 value) inter...\n  DUP2 \t\t\tdress to, uint256 value) inter...\n  MSTORE \t\t\tdress to, uint256 value) inter...\n  POP \t\t\tdress to, uint256 value) inter...\n  POP \t\t\tdress to, uint256 value) inter...\n  PUSH [tag] 15\t\t\tuper._update(from, to, value);...\n  PUSH 6\t\t\t  }\\r\\n    \\r\\n    f\n  DUP3 \t\t\tuper._u\n  PUSH [tag] 14\t\t\tuper._update(from, to, value);...\n  PUSH 20\t\t\tuper._update(from, to, value);...\n  SHL \t\t\tuper._update(from, to, value);...\n  SWAP1 \t\t\tuper._update(from, to, value);...\n  SWAP2 \t\t\tuper._update(from, to, value);...\n  SWAP1 \t\t\tuper._update(from, to, value);...\n  PUSH 20\t\t\tuper._update(from, to, value);...\n  SHR \t\t\tuper._update(from, to, value);...\n  JUMP \t\t\tuper._update(from, to, value);...\ntag 15\t\t\tuper._update(from, to, value);...\n  JUMPDEST \t\t\tuper._update(from, to, value);...\n  PUSH 140\t\t\t\\r\\n        super._update(from...\n  DUP2 \t\t\t\\r\\n        super._update(from...\n  DUP2 \t\t\t\\r\\n        super._update(from...\n  MSTORE \t\t\t\\r\\n        super._update(from...\n  POP \t\t\t\\r\\n        super._update(from...\n  POP \t\t\t\\r\\n        super._update(from...\n  DUP2 \t\t\t ove\n  DUP1 \t\t\tner) public view overr\n  MLOAD \t\t\tner) public view overr\n  SWAP1 \t\t\tner) public view overr\n  PUSH 20\t\t\tner) public view overr\n  ADD \t\t\tner) public view overr\n  KECCAK256 \t\t\tner) public view overr\n  PUSH E0\t\t\tces(address owner) public view...\n  DUP2 \t\t\tces(address owner) public view...\n  DUP2 \t\t\tces(address owner) public view...\n  MSTORE \t\t\tces(address owner) public view...\n  POP \t\t\tces(address owner) public view...\n  POP \t\t\tces(address owner) public view...\n  DUP1 \t\t\tturn su\n  DUP1 \t\t\t6) {\\r\\n        return supe\n  MLOAD \t\t\t6) {\\r\\n        return supe\n  SWAP1 \t\t\t6) {\\r\\n        return supe\n  PUSH 20\t\t\t6) {\\r\\n        return supe\n  ADD \t\t\t6) {\\r\\n        return supe\n  KECCAK256 \t\t\t6) {\\r\\n        return supe\n  PUSH 100\t\t\t) returns (uint256) {\\r\\n     ...\n  DUP2 \t\t\t) returns (uint256) {\\r\\n     ...\n  DUP2 \t\t\t) returns (uint256) {\\r\\n     ...\n  MSTORE \t\t\t) returns (uint256) {\\r\\n     ...\n  POP \t\t\t) returns (uint256) {\\r\\n     ...\n  POP \t\t\t) returns (uint256) {\\r\\n     ...\n  CHAINID \t\t\t\\r\\n/**\\r\\n * @ti\n  PUSH A0\t\t\tner);\\r\\n    }\\r\\n}\\r\\n\\r\\n/**...\n  DUP2 \t\t\tner);\\r\\n    }\\r\\n}\\r\\n\\r\\n/**...\n  DUP2 \t\t\tner);\\r\\n    }\\r\\n}\\r\\n\\r\\n/**...\n  MSTORE \t\t\tner);\\r\\n    }\\r\\n}\\r\\n\\r\\n/**...\n  POP \t\t\tner);\\r\\n    }\\r\\n}\\r\\n\\r\\n/**...\n  POP \t\t\tner);\\r\\n    }\\r\\n}\\r\\n\\r\\n/**...\n  PUSH [tag] 16\t\t\tw contract for freelanc\n  PUSH [tag] 17\t\t\tw contract for freela\n  PUSH 20\t\t\tw contract for freela\n  SHL \t\t\tw contract for freela\n  PUSH 20\t\t\tw contract for freelanc\n  SHR \t\t\tw contract for freelanc\n  JUMP \t\t\tw contract for freelanc\ntag 16\t\t\tw contract for freelanc\n  JUMPDEST \t\t\tw contract for freelanc\n  PUSH 80\t\t\trow\\r\\n * @dev Secure escrow c...\n  DUP2 \t\t\trow\\r\\n * @dev Secure escrow c...\n  DUP2 \t\t\trow\\r\\n * @dev Secure escrow c...\n  MSTORE \t\t\trow\\r\\n * @dev Secure escrow c...\n  POP \t\t\trow\\r\\n * @dev Secure escrow c...\n  POP \t\t\trow\\r\\n * @dev Secure escrow c...\n  ADDRESS \t\t\tppin\n  PUSH FFFFFFFFFFFFFFFFFFFFFFFFFFFFFFFFFFFFFFFF\t\t\tents with gig-based mapping\n  AND \t\t\tents with gig-based mapping\n  PUSH C0\t\t\tents with gig-based mapping\n  DUP2 \t\t\tents with gig-based mapping\n  PUSH FFFFFFFFFFFFFFFFFFFFFFFFFFFFFFFFFFFFFFFF\t\t\tents with gig-based mapping\n  AND \t\t\tents with gig-based mapping\n  DUP2 \t\t\tents with gig-based mapping\n  MSTORE \t\t\tents with gig-based mapping\n  POP \t\t\tents with gig-based mapping\n  POP \t\t\tents with gig-based mapping\n  POP \t\t\ty for multiple inheritance\\r\\n...\n  POP \t\t\ty for multiple inheritance\\r\\n...\n  PUSH 0\t\t\ti\n  PUSH FFFFFFFFFFFFFFFFFFFFFFFFFFFFFFFFFFFFFFFF\t\t\tters;\\r\\n    \\r\\n    event Min\n  AND \t\t\tters;\\r\\n    \\r\\n    event Min\n  DUP2 \t\t\tters;\\r\\n    \\r\n  PUSH FFFFFFFFFFFFFFFFFFFFFFFFFFFFFFFFFFFFFFFF\t\t\tters;\\r\\n    \\r\\n    event Min\n  AND \t\t\tters;\\r\\n    \\r\\n    event Min\n  SUB \t\t\tters;\\r\\n    \\r\\n    event Min\n  PUSH [tag] 19\t\t\t minters;\\r\\n    \\r\\n    event...\n  JUMPI \t\t\t minters;\\r\\n    \\r\\n    event...\n  PUSH 0\t\t\tR\n  PUSH 40\t\t\td minter);\\r\\n    event Minter...\n  MLOAD \t\t\td minter);\\r\\n    event Minter...\n  PUSH 1E4FBDF700000000000000000000000000000000000000000000000000000000\t\t\td minter);\\r\\n    event Minter...\n  DUP2 \t\t\td minter);\\r\\n    event Minter...\n  MSTORE \t\t\td minter);\\r\\n    event Minter...\n  PUSH 4\t\t\td minter);\\r\\n    event Minter...\n  ADD \t\t\td minter);\\r\\n    event Minter...\n  PUSH [tag] 20\t\t\td minter);\\r\\n    event Minter...\n  SWAP2 \t\t\td minter);\\r\\n    event Minter...\n  SWAP1 \t\t\td minter);\\r\\n    event Minter...\n  PUSH [tag] 21\t\t\td minter);\\r\\n    event Minter...\n  JUMP \t\t\td minter);\\r\\n    event Minter...\ntag 20\t\t\td minter);\\r\\n    event Minter...\n  JUMPDEST \t\t\td minter);\\r\\n    event Minter...\n  PUSH 40\t\t\td minter);\\r\\n    event Minter...\n  MLOAD \t\t\td minter);\\r\\n    event Minter...\n  DUP1 \t\t\td minter);\\r\\n    event Minter...\n  SWAP2 \t\t\td minter);\\r\\n    event Minter...\n  SUB \t\t\td minter);\\r\\n    event Minter...\n  SWAP1 \t\t\td minter);\\r\\n    event Minter...\n  REVERT \t\t\td minter);\\r\\n    event Minter...\ntag 19\t\t\t minters;\\r\\n    \\r\\n    event...\n  JUMPDEST \t\t\t minters;\\r\\n    \\r\\n    event...\n  PUSH [tag] 22\t\t\t minter);\\r\\n    \\r\\n    modif...\n  DUP2 \t\t\t  modifier o\n  PUSH [tag] 23\t\t\t minter);\\r\\n    \\r\\n \n  PUSH 20\t\t\t minter);\\r\\n    \\r\\n \n  SHL \t\t\t minter);\\r\\n    \\r\\n \n  PUSH 20\t\t\t minter);\\r\\n    \\r\\n    modif...\n  SHR \t\t\t minter);\\r\\n    \\r\\n    modif...\n  JUMP \t\t\t minter);\\r\\n    \\r\\n    modif...\ntag 22\t\t\t minter);\\r\\n    \\r\\n    modif...\n  JUMPDEST \t\t\t minter);\\r\\n    \\r\\n    modif...\n  POP \t\t\ty\\r\\n    \\r\\n    mapping(addre...\n  PUSH [tag] 25\t\t\t_mint(initialOwner, INITIAL_SU...\n  DUP2 \t\t\tinitialOwner\n  PUSH D3C21BCECCEDA1000000\t\t\t1000000 * 10**18\n  PUSH [tag] 26\t\t\t_mint\n  PUSH 20\t\t\t_mint\n  SHL \t\t\t_mint\n  PUSH 20\t\t\t_mint(initialOwner, INITIAL_SU...\n  SHR \t\t\t_mint(initialOwner, INITIAL_SU...\n  JUMP \t\t\t_mint(initialOwner, INITIAL_SU...\ntag 25\t\t\t_mint(initialOwner, INITIAL_SU...\n  JUMPDEST \t\t\t_mint(initialOwner, INITIAL_SU...\n  PUSH 1\t\t\ttrue\n  PUSH C\t\t\tminters\n  PUSH 0\t\t\tminters[initialOwner]\n  DUP4 \t\t\tinitialOwner\n  PUSH FFFFFFFFFFFFFFFFFFFFFFFFFFFFFFFFFFFFFFFF\t\t\tminters[initialOwner]\n  AND \t\t\tminters[initialOwner]\n  PUSH FFFFFFFFFFFFFFFFFFFFFFFFFFFFFFFFFFFFFFFF\t\t\tminters[initialOwner]\n  AND \t\t\tminters[initialOwner]\n  DUP2 \t\t\tminters[initialOwner]\n  MSTORE \t\t\tminters[initialOwner]\n  PUSH 20\t\t\tminters[initialOwner]\n  ADD \t\t\tminters[initialOwner]\n  SWAP1 \t\t\tminters[initialOwner]\n  DUP2 \t\t\tminters[initialOwner]\n  MSTORE \t\t\tminters[initialOwner]\n  PUSH 20\t\t\tminters[initialOwner]\n  ADD \t\t\tminters[initialOwner]\n  PUSH 0\t\t\tminters[initialOwner]\n  KECCAK256 \t\t\tminters[initialOwner]\n  PUSH 0\t\t\tminters[initialOwner]\n  PUSH 100\t\t\tminters[initialOwner] = true\n  EXP \t\t\tminters[initialOwner] = true\n  DUP2 \t\t\tminters[initialOwner] = true\n  SLOAD \t\t\tminters[initialOwner] = true\n  DUP2 \t\t\tminters[initialOwner] = true\n  PUSH FF\t\t\tminters[initialOwner] = true\n  MUL \t\t\tminters[initialOwner] = true\n  NOT \t\t\tminters[initialOwner] = true\n  AND \t\t\tminters[initialOwner] = true\n  SWAP1 \t\t\tminters[initialOwner] = true\n  DUP4 \t\t\tminters[initialOwner] = true\n  ISZERO \t\t\tminters[initialOwner] = true\n  ISZERO \t\t\tminters[initialOwner] = true\n  MUL \t\t\tminters[initialOwner] = true\n  OR \t\t\tminters[initialOwner] = true\n  SWAP1 \t\t\tminters[initialOwner] = true\n  SSTORE \t\t\tminters[initialOwner] = true\n  POP \t\t\tminters[initialOwner] = true\n  POP \t\t\tconstructor(\\r\\n        addres...\n  PUSH [tag] 27\t\t\tcontract DAOToken is ERC20, ER...\n  JUMP \t\t\tcontract DAOToken is ERC20, ER...\ntag 14\t\t\tcalldata amounts) external onl...\n  JUMPDEST \t\t\tcalldata amounts) external onl...\n  PUSH 0\t\t\trrays lengt\n  PUSH 20\t\t\t56\n  DUP4 \t\t\t \\r\\n  \n  MLOAD \t\t\t       \\r\\n        ui\n  LT \t\t\t       \\r\\n        uint256\n  ISZERO \t\t\t;\\r\\n        \\r\\n        uint2...\n  PUSH [tag] 29\t\t\t;\\r\\n        \\r\\n        uint2...\n  JUMPI \t\t\t;\\r\\n        \\r\\n        uint2...\n  PUSH [tag] 30\t\t\t    for (uint256 i =\n  DUP4 \t\t\t56 i \n  PUSH [tag] 31\t\t\t    for (uint\n  PUSH 20\t\t\t    for (uint\n  SHL \t\t\t    for (uint\n  PUSH 20\t\t\t    for (uint256 i =\n  SHR \t\t\t    for (uint256 i =\n  JUMP \t\t\t    for (uint256 i =\ntag 30\t\t\t    for (uint256 i =\n  JUMPDEST \t\t\t    for (uint256 i =\n  SWAP1 \t\t\t;\\r\\n        for (uint256 i =\n  POP \t\t\t;\\r\\n        for (uint256 i =\n  PUSH [tag] 28\t\t\t;\\r\\n        for (uint256 i =\n  JUMP \t\t\t;\\r\\n        for (uint256 i =\ntag 29\t\t\t;\\r\\n        \\r\\n        uint2...\n  JUMPDEST \t\t\t;\\r\\n        \\r\\n        uint2...\n  DUP3 \t\t\t     \n  PUSH [tag] 33\t\t\t\\n            totalAmount += a...\n  DUP4 \t\t\t= amo\n  PUSH [tag] 34\t\t\t\\n            totalAmount \n  PUSH 20\t\t\t\\n            totalAmount \n  SHL \t\t\t\\n            totalAmount \n  PUSH 20\t\t\t\\n            totalAmount += a...\n  SHR \t\t\t\\n            totalAmount += a...\n  JUMP \t\t\t\\n            totalAmount += a...\ntag 33\t\t\t\\n            totalAmount += a...\n  JUMPDEST \t\t\t\\n            totalAmount += a...\n  PUSH 0\t\t\t\\n            totalAmount += a...\n  ADD \t\t\t\\n            totalAmount += a...\n  SWAP1 \t\t\t\\n            totalAmount += a...\n  DUP2 \t\t\t\\n            totalAmount += a...\n  PUSH [tag] 35\t\t\t\\n            totalAmount += a...\n  SWAP2 \t\t\t\\n            totalAmount += a...\n  SWAP1 \t\t\t\\n            totalAmount += a...\n  PUSH [tag] 10\t\t\t\\n            totalAmount += a...\n  JUMP \t\t\t\\n            totalAmount += a...\ntag 35\t\t\t\\n            totalAmount += a...\n  JUMPDEST \t\t\t\\n            totalAmount += a...\n  POP \t\t\t\\n            totalAmount += a...\n  PUSH FF\t\t\t    modifier onlyMinter() {\\r\\...\n  PUSH 0\t\t\tupply() + totalAm\n  SHL \t\t\tupply() + totalAm\n  SWAP1 \t\t\t\\r\\n        require(totalSuppl...\n  POP \t\t\t\\r\\n        require(totalSuppl...\ntag 28\t\t\tcalldata amounts) external onl...\n  JUMPDEST \t\t\tcalldata amounts) external onl...\n  SWAP3 \t\t\tcalldata amounts) external onl...\n  SWAP2 \t\t\tcalldata amounts) external onl...\n  POP \t\t\tcalldata amounts) external onl...\n  POP \t\t\tcalldata amounts) external onl...\n  JUMP \t\t\tcalldata amounts) external onl...\ntag 17\t\t\tlled,   // Gig cancelled, fund...\n  JUMPDEST \t\t\tlled,   // Gig cancelled, fund...\n  PUSH 0\t\t\tted    \n  PUSH 8B73C3C69BB8FE3D512ECC4CF759CC79239F7B179B0FFACAA9A75D522B39400F\t\t\tds max supply\");\\r\\n        _m...\n  PUSH E0\t\t\t \\r\\n    stru\n  MLOAD \t\t\t \\r\\n    stru\n  PUSH 100\t\t\t EscrowData {\\r\n  MLOAD \t\t\t EscrowData {\\r\n  CHAINID \t\t\t       uint25\n  ADDRESS \t\t\t    \n  PUSH 40\t\t\tDAO voting\\r\\n    }\\r\\n    \\r\\...\n  MLOAD \t\t\tDAO voting\\r\\n    }\\r\\n    \\r\\...\n  PUSH 20\t\t\tDAO voting\\r\\n    }\\r\\n    \\r\\...\n  ADD \t\t\tDAO voting\\r\\n    }\\r\\n    \\r\\...\n  PUSH [tag] 37\t\t\tDAO voting\\r\\n    }\\r\\n    \\r\\...\n  SWAP6 \t\t\tDAO voting\\r\\n    }\\r\\n    \\r\\...\n  SWAP5 \t\t\tDAO voting\\r\\n    }\\r\\n    \\r\\...\n  SWAP4 \t\t\tDAO voting\\r\\n    }\\r\\n    \\r\\...\n  SWAP3 \t\t\tDAO voting\\r\\n    }\\r\\n    \\r\\...\n  SWAP2 \t\t\tDAO voting\\r\\n    }\\r\\n    \\r\\...\n  SWAP1 \t\t\tDAO voting\\r\\n    }\\r\\n    \\r\\...\n  PUSH [tag] 38\t\t\tDAO voting\\r\\n    }\\r\\n    \\r\\...\n  JUMP \t\t\tDAO voting\\r\\n    }\\r\\n    \\r\\...\ntag 37\t\t\tDAO voting\\r\\n    }\\r\\n    \\r\\...\n  JUMPDEST \t\t\tDAO voting\\r\\n    }\\r\\n    \\r\\...\n  PUSH 40\t\t\tDAO voting\\r\\n    }\\r\\n    \\r\\...\n  MLOAD \t\t\tDAO voting\\r\\n    }\\r\\n    \\r\\...\n  PUSH 20\t\t\tDAO voting\\r\\n    }\\r\\n    \\r\\...\n  DUP2 \t\t\tDAO voting\\r\\n    }\\r\\n    \\r\\...\n  DUP4 \t\t\tDAO voting\\r\\n    }\\r\\n    \\r\\...\n  SUB \t\t\tDAO voting\\r\\n    }\\r\\n    \\r\\...\n  SUB \t\t\tDAO voting\\r\\n    }\\r\\n    \\r\\...\n  DUP2 \t\t\tDAO voting\\r\\n    }\\r\\n    \\r\\...\n  MSTORE \t\t\tDAO voting\\r\\n    }\\r\\n    \\r\\...\n  SWAP1 \t\t\tDAO voting\\r\\n    }\\r\\n    \\r\\...\n  PUSH 40\t\t\tDAO voting\\r\\n    }\\r\\n    \\r\\...\n  MSTORE \t\t\tDAO voting\\r\\n    }\\r\\n    \\r\\...\n  DUP1 \t\t\t requires DAO voting\\r\\n    }\\...\n  MLOAD \t\t\t requires DAO voting\\r\\n    }\\...\n  SWAP1 \t\t\t requires DAO voting\\r\\n    }\\...\n  PUSH 20\t\t\t requires DAO voting\\r\\n    }\\...\n  ADD \t\t\t requires DAO voting\\r\\n    }\\...\n  KECCAK256 \t\t\t requires DAO voting\\r\\n    }\\...\n  SWAP1 \t\t\traised, requires DAO voting\\r\\...\n  POP \t\t\traised, requires DAO voting\\r\\...\n  SWAP1 \t\t\tlled,   // Gig cancelled, fund...\n  JUMP \t\t\tlled,   // Gig cancelled, fund...\ntag 23\t\t\tl onlyMinter {\\r\\n        requ...\n  JUMPDEST \t\t\tl onlyMinter {\\r\\n        requ...\n  PUSH 0\t\t\tays length misma\n  PUSH B\t\t\t\");\\r\\n \n  PUSH 0\t\t\t\");\\r\\n \n  SWAP1 \t\t\t\");\\r\\n \n  SLOAD \t\t\t\");\\r\\n \n  SWAP1 \t\t\t\");\\r\\n \n  PUSH 100\t\t\t\");\\r\\n \n  EXP \t\t\t\");\\r\\n \n  SWAP1 \t\t\t\");\\r\\n \n  DIV \t\t\t\");\\r\\n \n  PUSH FFFFFFFFFFFFFFFFFFFFFFFFFFFFFFFFFFFFFFFF\t\t\t\");\\r\\n \n  AND \t\t\t\");\\r\\n \n  SWAP1 \t\t\tays length mismatch\");\\r\\n \n  POP \t\t\tays length mismatch\");\\r\\n \n  DUP2 \t\t\tnt256 to\n  PUSH B\t\t\t      \n  PUSH 0\t\t\t      \n  PUSH 100\t\t\t       uint256 to\n  EXP \t\t\t       uint256 to\n  DUP2 \t\t\t       uint256 to\n  SLOAD \t\t\t       uint256 to\n  DUP2 \t\t\t       uint256 to\n  PUSH FFFFFFFFFFFFFFFFFFFFFFFFFFFFFFFFFFFFFFFF\t\t\t       uint256 to\n  MUL \t\t\t       uint256 to\n  NOT \t\t\t       uint256 to\n  AND \t\t\t       uint256 to\n  SWAP1 \t\t\t       uint256 to\n  DUP4 \t\t\t       uint256 to\n  PUSH FFFFFFFFFFFFFFFFFFFFFFFFFFFFFFFFFFFFFFFF\t\t\t       uint256 to\n  AND \t\t\t       uint256 to\n  MUL \t\t\t       uint256 to\n  OR \t\t\t       uint256 to\n  SWAP1 \t\t\t       uint256 to\n  SSTORE \t\t\t       uint256 to\n  POP \t\t\t       uint256 to\n  DUP2 \t\t\t< amount\n  PUSH FFFFFFFFFFFFFFFFFFFFFFFFFFFFFFFFFFFFFFFF\t\t\t\\n        for (uint256 i = 0; ...\n  AND \t\t\t\\n        for (uint256 i = 0; ...\n  DUP2 \t\t\t i = 0; \n  PUSH FFFFFFFFFFFFFFFFFFFFFFFFFFFFFFFFFFFFFFFF\t\t\t\\n        for (uint256 i = 0; ...\n  AND \t\t\t\\n        for (uint256 i = 0; ...\n  PUSH 8BE0079C531659141344CD1FD0A4F28419497F9722A3DAAFE3B4186F6B6457E0\t\t\t\\n        for (uint256 i = 0; ...\n  PUSH 40\t\t\t\\n        for (uint256 i = 0; ...\n  MLOAD \t\t\t\\n        for (uint256 i = 0; ...\n  PUSH 40\t\t\t\\n        for (uint256 i = 0; ...\n  MLOAD \t\t\t\\n        for (uint256 i = 0; ...\n  DUP1 \t\t\t\\n        for (uint256 i = 0; ...\n  SWAP2 \t\t\t\\n        for (uint256 i = 0; ...\n  SUB \t\t\t\\n        for (uint256 i = 0; ...\n  SWAP1 \t\t\t\\n        for (uint256 i = 0; ...\n  LOG3 \t\t\t\\n        for (uint256 i = 0; ...\n  POP \t\t\tngth, \"Arrays length mismatch\"...\n  POP \t\t\tl onlyMinter {\\r\\n        requ...\n  JUMP \t\t\tl onlyMinter {\\r\\n        requ...\ntag 26\t\t\tEscrowCreated(gigId, msg.sende...\n  JUMPDEST \t\t\tEscrowCreated(gigId, msg.sende...\n  PUSH 0\t\t\tn\n  PUSH FFFFFFFFFFFFFFFFFFFFFFFFFFFFFFFFFFFFFFFF\t\t\t      emit EscrowFund\n  AND \t\t\t      emit EscrowFund\n  DUP3 \t\t\t      e\n  PUSH FFFFFFFFFFFFFFFFFFFFFFFFFFFFFFFFFFFFFFFF\t\t\t      emit EscrowFund\n  AND \t\t\t      emit EscrowFund\n  SUB \t\t\t      emit EscrowFund\n  PUSH [tag] 41\t\t\t\\r\\n        emit EscrowFunded(...\n  JUMPI \t\t\t\\r\\n        emit EscrowFunded(...\n  PUSH 0\t\t\t/\n  PUSH 40\t\t\tsg.value);\\r\\n    }\\r\\n    \\r\\...\n  MLOAD \t\t\tsg.value);\\r\\n    }\\r\\n    \\r\\...\n  PUSH EC442F0500000000000000000000000000000000000000000000000000000000\t\t\tsg.value);\\r\\n    }\\r\\n    \\r\\...\n  DUP2 \t\t\tsg.value);\\r\\n    }\\r\\n    \\r\\...\n  MSTORE \t\t\tsg.value);\\r\\n    }\\r\\n    \\r\\...\n  PUSH 4\t\t\tsg.value);\\r\\n    }\\r\\n    \\r\\...\n  ADD \t\t\tsg.value);\\r\\n    }\\r\\n    \\r\\...\n  PUSH [tag] 42\t\t\tsg.value);\\r\\n    }\\r\\n    \\r\\...\n  SWAP2 \t\t\tsg.value);\\r\\n    }\\r\\n    \\r\\...\n  SWAP1 \t\t\tsg.value);\\r\\n    }\\r\\n    \\r\\...\n  PUSH [tag] 21\t\t\tsg.value);\\r\\n    }\\r\\n    \\r\\...\n  JUMP \t\t\tsg.value);\\r\\n    }\\r\\n    \\r\\...\ntag 42\t\t\tsg.value);\\r\\n    }\\r\\n    \\r\\...\n  JUMPDEST \t\t\tsg.value);\\r\\n    }\\r\\n    \\r\\...\n  PUSH 40\t\t\tsg.value);\\r\\n    }\\r\\n    \\r\\...\n  MLOAD \t\t\tsg.value);\\r\\n    }\\r\\n    \\r\\...\n  DUP1 \t\t\tsg.value);\\r\\n    }\\r\\n    \\r\\...\n  SWAP2 \t\t\tsg.value);\\r\\n    }\\r\\n    \\r\\...\n  SUB \t\t\tsg.value);\\r\\n    }\\r\\n    \\r\\...\n  SWAP1 \t\t\tsg.value);\\r\\n    }\\r\\n    \\r\\...\n  REVERT \t\t\tsg.value);\\r\\n    }\\r\\n    \\r\\...\ntag 41\t\t\t\\r\\n        emit EscrowFunded(...\n  JUMPDEST \t\t\t\\r\\n        emit EscrowFunded(...\n  PUSH [tag] 43\t\t\te escrow funds to freelancer (...\n  PUSH 0\t\t\to\n  DUP4 \t\t\teelance\n  DUP4 \t\t\t(only\n  PUSH [tag] 44\t\t\te escro\n  PUSH 20\t\t\te escro\n  SHL \t\t\te escro\n  PUSH 20\t\t\te escrow funds to freelancer (...\n  SHR \t\t\te escrow funds to freelancer (...\n  JUMP \t\t\te escrow funds to freelancer (...\ntag 43\t\t\te escrow funds to freelancer (...\n  JUMPDEST \t\t\te escrow funds to freelancer (...\n  POP \t\t\tEscrowCreated(gigId, msg.sende...\n  POP \t\t\tEscrowCreated(gigId, msg.sende...\n  JUMP \t\t\tEscrowCreated(gigId, msg.sende...\ntag 31\t\t\tner, INITIAL_SUPPLY);\\r\\n     ...\n  JUMPDEST \t\t\tner, INITIAL_SUPPLY);\\r\\n     ...\n  PUSH 0\t\t\t }\\r\\n    \\r\\n \n  PUSH 0\t\t\t * @dev Mint new \n  DUP3 \t\t\tnly\n  SWAP1 \t\t\t * @dev Mint new tokens (only \n  POP \t\t\t * @dev Mint new tokens (only \n  PUSH 1F\t\t\t *\n  DUP2 \t\t\tmint\n  MLOAD \t\t\tminters)\\r\\n \n  GT \t\t\tminters)\\r\\n     *\n  ISZERO \t\t\tzed minters)\\r\\n     * @param ...\n  PUSH [tag] 46\t\t\tzed minters)\\r\\n     * @param ...\n  JUMPI \t\t\tzed minters)\\r\\n     * @param ...\n  DUP3 \t\t\t\\n  \n  PUSH 40\t\t\tint tokens to\\r\\n   \n  MLOAD \t\t\tint tokens to\\r\\n   \n  PUSH 305A27A900000000000000000000000000000000000000000000000000000000\t\t\tint tokens to\\r\\n   \n  DUP2 \t\t\tint tokens to\\r\\n   \n  MSTORE \t\t\tint tokens to\\r\\n   \n  PUSH 4\t\t\tint tokens to\\r\\n   \n  ADD \t\t\tint tokens to\\r\\n   \n  PUSH [tag] 47\t\t\tint tokens to\\r\\n   \n  SWAP2 \t\t\tint tokens to\\r\\n   \n  SWAP1 \t\t\tint tokens to\\r\\n   \n  PUSH [tag] 48\t\t\tint tokens to\\r\\n   \n  JUMP \t\t\tint tokens to\\r\\n   \ntag 47\t\t\tint tokens to\\r\\n   \n  JUMPDEST \t\t\tint tokens to\\r\\n   \n  PUSH 40\t\t\tint tokens to\\r\\n   \n  MLOAD \t\t\tint tokens to\\r\\n   \n  DUP1 \t\t\tint tokens to\\r\\n   \n  SWAP2 \t\t\tint tokens to\\r\\n   \n  SUB \t\t\tint tokens to\\r\\n   \n  SWAP1 \t\t\tint tokens to\\r\\n   \n  REVERT \t\t\tint tokens to\\r\\n   \ntag 46\t\t\tzed minters)\\r\\n     * @param ...\n  JUMPDEST \t\t\tzed minters)\\r\\n     * @param ...\n  DUP1 \t\t\ts to\n  MLOAD \t\t\ts to, uint2\n  DUP2 \t\t\tnt(a\n  PUSH [tag] 49\t\t\tction mint(ad\n  SWAP1 \t\t\tction mint(ad\n  PUSH [tag] 50\t\t\tction mint(ad\n  JUMP \t\t\tction mint(ad\ntag 49\t\t\tction mint(ad\n  JUMPDEST \t\t\tction mint(ad\n  PUSH 0\t\t\t\\n    function mint(add\n  SHR \t\t\t\\n    function mint(add\n  OR \t\t\t\\n    function mint(address to...\n  PUSH 0\t\t\t     */\\r\\n    function mint(a...\n  SHL \t\t\t     */\\r\\n    function mint(a...\n  SWAP2 \t\t\tount of tokens to mint\\r\\n    ...\n  POP \t\t\tount of tokens to mint\\r\\n    ...\n  POP \t\t\tount of tokens to mint\\r\\n    ...\n  SWAP2 \t\t\tner, INITIAL_SUPPLY);\\r\\n     ...\n  SWAP1 \t\t\tner, INITIAL_SUPPLY);\\r\\n     ...\n  POP \t\t\tner, INITIAL_SUPPLY);\\r\\n     ...\n  JUMP \t\t\tner, INITIAL_SUPPLY);\\r\\n     ...\ntag 34\t\t\t _update(address from, address...\n  JUMPDEST \t\t\t _update(address from, address...\n  PUSH 0\t\t\tERC20, ERC20Votes) {\n  DUP2 \t\t\tunction no\n  SWAP1 \t\t\t   \\r\\n    function no\n  POP \t\t\t   \\r\\n    function no\n  SWAP2 \t\t\t _update(address from, address...\n  SWAP1 \t\t\t _update(address from, address...\n  POP \t\t\t _update(address from, address...\n  JUMP \t\t\t _update(address from, address...\ntag 44\t\t\tfunction _update(address from,...\n  JUMPDEST \t\t\tfunction _update(address from,...\n  PUSH [tag] 53\t\t\tsuper._update(from, to, value)\n  DUP4 \t\t\tfrom\n  DUP4 \t\t\tto\n  DUP4 \t\t\tvalue\n  PUSH [tag] 54\t\t\tsuper._update\n  PUSH 20\t\t\tsuper._update\n  SHL \t\t\tsuper._update\n  PUSH 20\t\t\tsuper._update(from, to, value)\n  SHR \t\t\tsuper._update(from, to, value)\n  JUMP \t\t\tsuper._update(from, to, value)\ntag 53\t\t\tsuper._update(from, to, value)\n  JUMPDEST \t\t\tsuper._update(from, to, value)\n  POP \t\t\tfunction _update(address from,...\n  POP \t\t\tfunction _update(address from,...\n  POP \t\t\tfunction _update(address from,...\n  JUMP \t\t\tfunction _update(address from,...\ntag 54\t\t\ter);\\r\\n    }\\r\\n    \\r\\n    /...\n  JUMPDEST \t\t\ter);\\r\\n    }\\r\\n    \\r\\n    /...\n  PUSH [tag] 56\t\t\te as minter\\r\\n     */\\r\\n    ...\n  DUP4 \t\t\t    \n  DUP4 \t\t\t\\r\\n\n  DUP4 \t\t\t  fun\n  PUSH [tag] 57\t\t\te as minter\\r\\n\n  PUSH 20\t\t\te as minter\\r\\n\n  SHL \t\t\te as minter\\r\\n\n  PUSH 20\t\t\te as minter\\r\\n     */\\r\\n    ...\n  SHR \t\t\te as minter\\r\\n     */\\r\\n    ...\n  JUMP \t\t\te as minter\\r\\n     */\\r\\n    ...\ntag 56\t\t\te as minter\\r\\n     */\\r\\n    ...\n  JUMPDEST \t\t\te as minter\\r\\n     */\\r\\n    ...\n  PUSH 0\t\t\te\n  PUSH FFFFFFFFFFFFFFFFFFFFFFFFFFFFFFFFFFFFFFFF\t\t\tter(address minter\n  AND \t\t\tter(address minter\n  DUP4 \t\t\tter(\n  PUSH FFFFFFFFFFFFFFFFFFFFFFFFFFFFFFFFFFFFFFFF\t\t\tter(address minter\n  AND \t\t\tter(address minter\n  SUB \t\t\tter(address minter\n  PUSH [tag] 58\t\t\teMinter(address minter) extern...\n  JUMPI \t\t\teMinter(address minter) extern...\n  PUSH 0\t\t\twner {\\r\\n      \n  PUSH [tag] 59\t\t\tinters[minter\n  PUSH [tag] 60\t\t\tinters[mint\n  PUSH 20\t\t\tinters[mint\n  SHL \t\t\tinters[mint\n  PUSH 20\t\t\tinters[minter\n  SHR \t\t\tinters[minter\n  JUMP \t\t\tinters[minter\ntag 59\t\t\tinters[minter\n  JUMPDEST \t\t\tinters[minter\n  SWAP1 \t\t\twner {\\r\\n        minters[mint...\n  POP \t\t\twner {\\r\\n        minters[mint...\n  PUSH 0\t\t\t      emit \n  PUSH [tag] 61\t\t\tterRemoved(m\n  PUSH [tag] 62\t\t\tterRemoved\n  PUSH 20\t\t\tterRemoved\n  SHL \t\t\tterRemoved\n  PUSH 20\t\t\tterRemoved(m\n  SHR \t\t\tterRemoved(m\n  JUMP \t\t\tterRemoved(m\ntag 61\t\t\tterRemoved(m\n  JUMPDEST \t\t\tterRemoved(m\n  SWAP1 \t\t\t      emit MinterRemoved(m\n  POP \t\t\t      emit MinterRemoved(m\n  DUP1 \t\t\t**\\r\n  DUP3 \t\t\t  \\r\\n  \n  GT \t\t\t  \\r\\n    /**\\r\n  ISZERO \t\t\t\\r\\n    \\r\\n    /**\\r\\n     * ...\n  PUSH [tag] 63\t\t\t\\r\\n    \\r\\n    /**\\r\\n     * ...\n  JUMPI \t\t\t\\r\\n    \\r\\n    /**\\r\\n     * ...\n  DUP2 \t\t\ts (for\n  DUP2 \t\t\test\n  PUSH 40\t\t\tens to multiple addresses (for...\n  MLOAD \t\t\tens to multiple addresses (for...\n  PUSH 1CB15D2600000000000000000000000000000000000000000000000000000000\t\t\tens to multiple addresses (for...\n  DUP2 \t\t\tens to multiple addresses (for...\n  MSTORE \t\t\tens to multiple addresses (for...\n  PUSH 4\t\t\tens to multiple addresses (for...\n  ADD \t\t\tens to multiple addresses (for...\n  PUSH [tag] 64\t\t\tens to multiple addresses (for...\n  SWAP3 \t\t\tens to multiple addresses (for...\n  SWAP2 \t\t\tens to multiple addresses (for...\n  SWAP1 \t\t\tens to multiple addresses (for...\n  PUSH [tag] 65\t\t\tens to multiple addresses (for...\n  JUMP \t\t\tens to multiple addresses (for...\ntag 64\t\t\tens to multiple addresses (for...\n  JUMPDEST \t\t\tens to multiple addresses (for...\n  PUSH 40\t\t\tens to multiple addresses (for...\n  MLOAD \t\t\tens to multiple addresses (for...\n  DUP1 \t\t\tens to multiple addresses (for...\n  SWAP2 \t\t\tens to multiple addresses (for...\n  SUB \t\t\tens to multiple addresses (for...\n  SWAP1 \t\t\tens to multiple addresses (for...\n  REVERT \t\t\tens to multiple addresses (for...\ntag 63\t\t\t\\r\\n    \\r\\n    /**\\r\\n     * ...\n  JUMPDEST \t\t\t\\r\\n    \\r\\n    /**\\r\\n     * ...\n  POP \t\t\texternal onlyOwner {\\r\\n      ...\n  POP \t\t\texternal onlyOwner {\\r\\n      ...\ntag 58\t\t\teMinter(address minter) extern...\n  JUMPDEST \t\t\teMinter(address minter) extern...\n  PUSH [tag] 66\t\t\tents Array of recipient addres...\n  DUP4 \t\t\tnt a\n  DUP4 \t\t\tre\n  DUP4 \t\t\tes\\r\\n \n  PUSH [tag] 67\t\t\tents Array of recipi\n  PUSH 20\t\t\tents Array of recipi\n  SHL \t\t\tents Array of recipi\n  PUSH 20\t\t\tents Array of recipient addres...\n  SHR \t\t\tents Array of recipient addres...\n  JUMP \t\t\tents Array of recipient addres...\ntag 66\t\t\tents Array of recipient addres...\n  JUMPDEST \t\t\tents Array of recipient addres...\n  POP \t\t\ter);\\r\\n    }\\r\\n    \\r\\n    /...\n  POP \t\t\ter);\\r\\n    }\\r\\n    \\r\\n    /...\n  POP \t\t\ter);\\r\\n    }\\r\\n    \\r\\n    /...\n  JUMP \t\t\ter);\\r\\n    }\\r\\n    \\r\\n    /...\ntag 57\t\t\t[gigId].freelancer, \"Only free...\n  JUMPDEST \t\t\t[gigId].freelancer, \"Only free...\n  PUSH 0\t\t\tn\n  PUSH FFFFFFFFFFFFFFFFFFFFFFFFFFFFFFFFFFFFFFFF\t\t\tructor(address ini\n  AND \t\t\tructor(address ini\n  DUP4 \t\t\truct\n  PUSH FFFFFFFFFFFFFFFFFFFFFFFFFFFFFFFFFFFFFFFF\t\t\tructor(address ini\n  AND \t\t\tructor(address ini\n  SUB \t\t\tructor(address ini\n  PUSH [tag] 69\t\t\tonstructor(address initialOwne...\n  JUMPI \t\t\tonstructor(address initialOwne...\n  DUP1 \t\t\teate \n  PUSH 2\t\t\t\\r\\n     * @de\n  PUSH 0\t\t\t\\r\\n     * @de\n  DUP3 \t\t\t\\r\\n     * @dev Create \n  DUP3 \t\t\t\\r\\n     * @dev Create \n  SLOAD \t\t\t\\r\\n     * @dev Create \n  PUSH [tag] 70\t\t\t\\r\\n     * @dev Create \n  SWAP2 \t\t\t\\r\\n     * @dev Create \n  SWAP1 \t\t\t\\r\\n     * @dev Create \n  PUSH [tag] 71\t\t\t\\r\\n     * @dev Create \n  JUMP \t\t\t\\r\\n     * @dev Create \ntag 70\t\t\t\\r\\n     * @dev Create \n  JUMPDEST \t\t\t\\r\\n     * @dev Create \n  SWAP3 \t\t\t\\r\\n     * @dev Create \n  POP \t\t\t\\r\\n     * @dev Create \n  POP \t\t\t\\r\\n     * @dev Create \n  DUP2 \t\t\t\\r\\n     * @dev Create \n  SWAP1 \t\t\t\\r\\n     * @dev Create \n  SSTORE \t\t\t\\r\\n     * @dev Create \n  POP \t\t\t\\r\\n     * @dev Create \n  PUSH [tag] 72\t\t\tonstructor(address initialOwne...\n  JUMP \t\t\tonstructor(address initialOwne...\ntag 69\t\t\tonstructor(address initialOwne...\n  JUMPDEST \t\t\tonstructor(address initialOwne...\n  PUSH 0\t\t\t\\r\\n     * @param gig\n  PUSH 0\t\t\tUnique id\n  PUSH 0\t\t\tUnique identifi\n  DUP6 \t\t\tntif\n  PUSH FFFFFFFFFFFFFFFFFFFFFFFFFFFFFFFFFFFFFFFF\t\t\tUnique identifi\n  AND \t\t\tUnique identifi\n  PUSH FFFFFFFFFFFFFFFFFFFFFFFFFFFFFFFFFFFFFFFF\t\t\tUnique identifi\n  AND \t\t\tUnique identifi\n  DUP2 \t\t\tUnique identifi\n  MSTORE \t\t\tUnique identifi\n  PUSH 20\t\t\tUnique identifi\n  ADD \t\t\tUnique identifi\n  SWAP1 \t\t\tUnique identifi\n  DUP2 \t\t\tUnique identifi\n  MSTORE \t\t\tUnique identifi\n  PUSH 20\t\t\tUnique identifi\n  ADD \t\t\tUnique identifi\n  PUSH 0\t\t\tUnique identifi\n  KECCAK256 \t\t\tUnique identifi\n  SLOAD \t\t\tUnique identifi\n  SWAP1 \t\t\t\\r\\n     * @param gigId Unique...\n  POP \t\t\t\\r\\n     * @param gigId Unique...\n  DUP2 \t\t\teelan\n  DUP2 \t\t\t   * @param\n  LT \t\t\t   * @param freelan\n  ISZERO \t\t\t\\r\\n     * @param freelancer A...\n  PUSH [tag] 73\t\t\t\\r\\n     * @param freelancer A...\n  JUMPI \t\t\t\\r\\n     * @param freelancer A...\n  DUP4 \t\t\te Ti\n  DUP2 \t\t\te of the gi\n  DUP4 \t\t\t\\n    \n  PUSH 40\t\t\ter\\r\\n     * @param gigTitle T...\n  MLOAD \t\t\ter\\r\\n     * @param gigTitle T...\n  PUSH E450D38C00000000000000000000000000000000000000000000000000000000\t\t\ter\\r\\n     * @param gigTitle T...\n  DUP2 \t\t\ter\\r\\n     * @param gigTitle T...\n  MSTORE \t\t\ter\\r\\n     * @param gigTitle T...\n  PUSH 4\t\t\ter\\r\\n     * @param gigTitle T...\n  ADD \t\t\ter\\r\\n     * @param gigTitle T...\n  PUSH [tag] 74\t\t\ter\\r\\n     * @param gigTitle T...\n  SWAP4 \t\t\ter\\r\\n     * @param gigTitle T...\n  SWAP3 \t\t\ter\\r\\n     * @param gigTitle T...\n  SWAP2 \t\t\ter\\r\\n     * @param gigTitle T...\n  SWAP1 \t\t\ter\\r\\n     * @param gigTitle T...\n  PUSH [tag] 75\t\t\ter\\r\\n     * @param gigTitle T...\n  JUMP \t\t\ter\\r\\n     * @param gigTitle T...\ntag 74\t\t\ter\\r\\n     * @param gigTitle T...\n  JUMPDEST \t\t\ter\\r\\n     * @param gigTitle T...\n  PUSH 40\t\t\ter\\r\\n     * @param gigTitle T...\n  MLOAD \t\t\ter\\r\\n     * @param gigTitle T...\n  DUP1 \t\t\ter\\r\\n     * @param gigTitle T...\n  SWAP2 \t\t\ter\\r\\n     * @param gigTitle T...\n  SUB \t\t\ter\\r\\n     * @param gigTitle T...\n  SWAP1 \t\t\ter\\r\\n     * @param gigTitle T...\n  REVERT \t\t\ter\\r\\n     * @param gigTitle T...\ntag 73\t\t\t\\r\\n     * @param freelancer A...\n  JUMPDEST \t\t\t\\r\\n     * @param freelancer A...\n  DUP2 \t\t\td {\\r\\n\n  DUP2 \t\t\tt whenNotPa\n  SUB \t\t\tt whenNotPaused {\\r\\n\n  PUSH 0\t\t\tayable no\n  PUSH 0\t\t\tayable nonReent\n  DUP7 \t\t\tReen\n  PUSH FFFFFFFFFFFFFFFFFFFFFFFFFFFFFFFFFFFFFFFF\t\t\tayable nonReent\n  AND \t\t\tayable nonReent\n  PUSH FFFFFFFFFFFFFFFFFFFFFFFFFFFFFFFFFFFFFFFF\t\t\tayable nonReent\n  AND \t\t\tayable nonReent\n  DUP2 \t\t\tayable nonReent\n  MSTORE \t\t\tayable nonReent\n  PUSH 20\t\t\tayable nonReent\n  ADD \t\t\tayable nonReent\n  SWAP1 \t\t\tayable nonReent\n  DUP2 \t\t\tayable nonReent\n  MSTORE \t\t\tayable nonReent\n  PUSH 20\t\t\tayable nonReent\n  ADD \t\t\tayable nonReent\n  PUSH 0\t\t\tayable nonReent\n  KECCAK256 \t\t\tayable nonReent\n  DUP2 \t\t\tayable nonReentrant whenNotPau...\n  SWAP1 \t\t\tayable nonReentrant whenNotPau...\n  SSTORE \t\t\tayable nonReentrant whenNotPau...\n  POP \t\t\tayable nonReentrant whenNotPau...\n  POP \t\t\tand lock funds\\r\\n     * @para...\ntag 72\t\t\tonstructor(address initialOwne...\n  JUMPDEST \t\t\tonstructor(address initialOwne...\n  PUSH 0\t\t\te\n  PUSH FFFFFFFFFFFFFFFFFFFFFFFFFFFFFFFFFFFFFFFF\t\t\t), \"Invalid free\n  AND \t\t\t), \"Invalid free\n  DUP3 \t\t\t),\n  PUSH FFFFFFFFFFFFFFFFFFFFFFFFFFFFFFFFFFFFFFFF\t\t\t), \"Invalid free\n  AND \t\t\t), \"Invalid free\n  SUB \t\t\t), \"Invalid free\n  PUSH [tag] 76\t\t\tss(0), \"Invalid freelancer add...\n  JUMPI \t\t\tss(0), \"Invalid freelancer add...\n  DUP1 \t\t\than 0\n  PUSH 2\t\t\tust be great\n  PUSH 0\t\t\tust be great\n  DUP3 \t\t\tust be greater than 0\n  DUP3 \t\t\tust be greater than 0\n  SLOAD \t\t\tust be greater than 0\n  SUB \t\t\tust be greater than 0\n  SWAP3 \t\t\tust be greater than 0\n  POP \t\t\tust be greater than 0\n  POP \t\t\tust be greater than 0\n  DUP2 \t\t\tust be greater than 0\n  SWAP1 \t\t\tust be greater than 0\n  SSTORE \t\t\tust be greater than 0\n  POP \t\t\tust be greater than 0\n  PUSH [tag] 77\t\t\tss(0), \"Invalid freelancer add...\n  JUMP \t\t\tss(0), \"Invalid freelancer add...\ntag 76\t\t\tss(0), \"Invalid freelancer add...\n  JUMPDEST \t\t\tss(0), \"Invalid freelancer add...\n  DUP1 \t\t\t\\r\\n   \n  PUSH 0\t\t\td] = Escr\n  PUSH 0\t\t\td] = EscrowDa\n  DUP5 \t\t\twD\n  PUSH FFFFFFFFFFFFFFFFFFFFFFFFFFFFFFFFFFFFFFFF\t\t\td] = EscrowDa\n  AND \t\t\td] = EscrowDa\n  PUSH FFFFFFFFFFFFFFFFFFFFFFFFFFFFFFFFFFFFFFFF\t\t\td] = EscrowDa\n  AND \t\t\td] = EscrowDa\n  DUP2 \t\t\td] = EscrowDa\n  MSTORE \t\t\td] = EscrowDa\n  PUSH 20\t\t\td] = EscrowDa\n  ADD \t\t\td] = EscrowDa\n  SWAP1 \t\t\td] = EscrowDa\n  DUP2 \t\t\td] = EscrowDa\n  MSTORE \t\t\td] = EscrowDa\n  PUSH 20\t\t\td] = EscrowDa\n  ADD \t\t\td] = EscrowDa\n  PUSH 0\t\t\td] = EscrowDa\n  KECCAK256 \t\t\td] = EscrowDa\n  PUSH 0\t\t\td] = EscrowDa\n  DUP3 \t\t\td] = EscrowData({\\r\\n   \n  DUP3 \t\t\td] = EscrowData({\\r\\n   \n  SLOAD \t\t\td] = EscrowData({\\r\\n   \n  ADD \t\t\td] = EscrowData({\\r\\n   \n  SWAP3 \t\t\td] = EscrowData({\\r\\n   \n  POP \t\t\td] = EscrowData({\\r\\n   \n  POP \t\t\td] = EscrowData({\\r\\n   \n  DUP2 \t\t\td] = EscrowData({\\r\\n   \n  SWAP1 \t\t\td] = EscrowData({\\r\\n   \n  SSTORE \t\t\td] = EscrowData({\\r\\n   \n  POP \t\t\td] = EscrowData({\\r\\n   \ntag 77\t\t\tss(0), \"Invalid freelancer add...\n  JUMPDEST \t\t\tss(0), \"Invalid freelancer add...\n  DUP2 \t\t\t\\r\\n\n  PUSH FFFFFFFFFFFFFFFFFFFFFFFFFFFFFFFFFFFFFFFF\t\t\tnt: msg.sender,\\r\\n        \n  AND \t\t\tnt: msg.sender,\\r\\n        \n  DUP4 \t\t\tende\n  PUSH FFFFFFFFFFFFFFFFFFFFFFFFFFFFFFFFFFFFFFFF\t\t\tnt: msg.sender,\\r\\n        \n  AND \t\t\tnt: msg.sender,\\r\\n        \n  PUSH DDF252AD1BE2C89B69C2B068FC378DAA952BA7F163C4A11628F55A4DF523B3EF\t\t\tnt: msg.sender,\\r\\n        \n  DUP4 \t\t\t     \n  PUSH 40\t\t\tnt: msg.sender,\\r\\n        \n  MLOAD \t\t\tnt: msg.sender,\\r\\n        \n  PUSH [tag] 78\t\t\tnt: msg.sender,\\r\\n        \n  SWAP2 \t\t\tnt: msg.sender,\\r\\n        \n  SWAP1 \t\t\tnt: msg.sender,\\r\\n        \n  PUSH [tag] 79\t\t\tnt: msg.sender,\\r\\n        \n  JUMP \t\t\tnt: msg.sender,\\r\\n        \ntag 78\t\t\tnt: msg.sender,\\r\\n        \n  JUMPDEST \t\t\tnt: msg.sender,\\r\\n        \n  PUSH 40\t\t\tnt: msg.sender,\\r\\n        \n  MLOAD \t\t\tnt: msg.sender,\\r\\n        \n  DUP1 \t\t\tnt: msg.sender,\\r\\n        \n  SWAP2 \t\t\tnt: msg.sender,\\r\\n        \n  SUB \t\t\tnt: msg.sender,\\r\\n        \n  SWAP1 \t\t\tnt: msg.sender,\\r\\n        \n  LOG3 \t\t\tnt: msg.sender,\\r\\n        \n  POP \t\t\t[gigId].freelancer, \"Only free...\n  POP \t\t\t[gigId].freelancer, \"Only free...\n  POP \t\t\t[gigId].freelancer, \"Only free...\n  JUMP \t\t\t[gigId].freelancer, \"Only free...\ntag 60\t\t\tistribute\\r\\n     */\\r\\n    fu...\n  JUMPDEST \t\t\tistribute\\r\\n     */\\r\\n    fu...\n  PUSH 0\t\t\t callda\n  PUSH 2\t\t\t256[] callda\n  SLOAD \t\t\t256[] callda\n  SWAP1 \t\t\ts, uint256[] callda\n  POP \t\t\ts, uint256[] callda\n  SWAP1 \t\t\tistribute\\r\\n     */\\r\\n    fu...\n  JUMP \t\t\tistribute\\r\\n     */\\r\\n    fu...\ntag 62\t\t\t, amount);\\r\\n    }\\r\\n    \\r\\...\n  JUMPDEST \t\t\t, amount);\\r\\n    }\\r\\n    \\r\\...\n  PUSH 0\t\t\tew mint\n  PUSH FFFFFFFFFFFFFFFFFFFFFFFFFFFFFFFFFFFFFFFFFFFFFFFFFFFF\t\t\tinter Address to \n  DUP1 \t\t\tparam minter Address to \n  AND \t\t\tparam minter Address to \n  SWAP1 \t\t\tparam minter Address to \n  POP \t\t\tparam minter Address to \n  SWAP1 \t\t\t, amount);\\r\\n    }\\r\\n    \\r\\...\n  JUMP \t\t\t, amount);\\r\\n    }\\r\\n    \\r\\...\ntag 67\t\t\th(gigId);\\r\\n        freelance...\n  JUMPDEST \t\t\th(gigId);\\r\\n        freelance...\n  PUSH 0\t\t\tf\n  PUSH FFFFFFFFFFFFFFFFFFFFFFFFFFFFFFFFFFFFFFFF\t\t\tId, msg.sender, fr\n  AND \t\t\tId, msg.sender, fr\n  DUP4 \t\t\tId, \n  PUSH FFFFFFFFFFFFFFFFFFFFFFFFFFFFFFFFFFFFFFFF\t\t\tId, msg.sender, fr\n  AND \t\t\tId, msg.sender, fr\n  SUB \t\t\tId, msg.sender, fr\n  PUSH [tag] 83\t\t\t(gigId, msg.sender, freelancer...\n  JUMPI \t\t\t(gigId, msg.sender, freelancer...\n  PUSH [tag] 84\t\t\tlue, gigTitle);\\r\\n        emi...\n  PUSH A\t\t\tigTitle);\\r\\n      \n  PUSH [tag] 85\t\t\temit\n  PUSH 20\t\t\temit\n  SHL \t\t\temit\n  PUSH [tag] 18446744073709551779\t\t\temit\n  OR \t\t\temit\n  PUSH [tag] 86\t\t\tscrowFunded(gigId, msg.sen\n  DUP5 \t\t\tmsg.se\n  PUSH [tag] 87\t\t\tscrowFunded(gigId,\n  PUSH 20\t\t\tscrowFunded(gigId,\n  SHL \t\t\tscrowFunded(gigId,\n  PUSH 20\t\t\tscrowFunded(gigId, msg.sen\n  SHR \t\t\tscrowFunded(gigId, msg.sen\n  JUMP \t\t\tscrowFunded(gigId, msg.sen\ntag 86\t\t\tscrowFunded(gigId, msg.sen\n  JUMPDEST \t\t\tscrowFunded(gigId, msg.sen\n  PUSH [tag] 88\t\t\tlue, \n  PUSH 20\t\t\tlue, \n  SHL \t\t\tlue, \n  PUSH 20\t\t\tlue, gigTitle);\\r\\n        emi...\n  SHR \t\t\tlue, gigTitle);\\r\\n        emi...\n  JUMP \t\t\tlue, gigTitle);\\r\\n        emi...\ntag 84\t\t\tlue, gigTitle);\\r\\n        emi...\n  JUMPDEST \t\t\tlue, gigTitle);\\r\\n        emi...\n  POP \t\t\tlue, gigTitle);\\r\\n        emi...\n  POP \t\t\tlue, gigTitle);\\r\\n        emi...\ntag 83\t\t\t(gigId, msg.sender, freelancer...\n  JUMPDEST \t\t\t(gigId, msg.sender, freelancer...\n  PUSH 0\t\t\t\\n\n  PUSH FFFFFFFFFFFFFFFFFFFFFFFFFFFFFFFFFFFFFFFF\t\t\t    \\r\\n    /**\\r\\n \n  AND \t\t\t    \\r\\n    /**\\r\\n \n  DUP3 \t\t\t  \n  PUSH FFFFFFFFFFFFFFFFFFFFFFFFFFFFFFFFFFFFFFFF\t\t\t    \\r\\n    /**\\r\\n \n  AND \t\t\t    \\r\\n    /**\\r\\n \n  SUB \t\t\t    \\r\\n    /**\\r\\n \n  PUSH [tag] 89\t\t\t }\\r\\n    \\r\\n    /**\\r\\n     ...\n  JUMPI \t\t\t }\\r\\n    \\r\\n    /**\\r\\n     ...\n  PUSH [tag] 90\t\t\tse escrow funds to freelancer ...\n  PUSH A\t\t\trow funds to free\n  PUSH [tag] 91\t\t\tncer (onl\n  PUSH 20\t\t\tncer (onl\n  SHL \t\t\tncer (onl\n  PUSH [tag] 18446744073709551780\t\t\tncer (onl\n  OR \t\t\tncer (onl\n  PUSH [tag] 92\t\t\tcallable by client)\\r\\n     \n  DUP5 \t\t\t\\r\\n    \n  PUSH [tag] 87\t\t\tcallable by client\n  PUSH 20\t\t\tcallable by client\n  SHL \t\t\tcallable by client\n  PUSH 20\t\t\tcallable by client)\\r\\n     \n  SHR \t\t\tcallable by client)\\r\\n     \n  JUMP \t\t\tcallable by client)\\r\\n     \ntag 92\t\t\tcallable by client)\\r\\n     \n  JUMPDEST \t\t\tcallable by client)\\r\\n     \n  PUSH [tag] 88\t\t\tse es\n  PUSH 20\t\t\tse es\n  SHL \t\t\tse es\n  PUSH 20\t\t\tse escrow funds to freelancer ...\n  SHR \t\t\tse escrow funds to freelancer ...\n  JUMP \t\t\tse escrow funds to freelancer ...\ntag 90\t\t\tse escrow funds to freelancer ...\n  JUMPDEST \t\t\tse escrow funds to freelancer ...\n  POP \t\t\tse escrow funds to freelancer ...\n  POP \t\t\tse escrow funds to freelancer ...\ntag 89\t\t\t }\\r\\n    \\r\\n    /**\\r\\n     ...\n  JUMPDEST \t\t\t }\\r\\n    \\r\\n    /**\\r\\n     ...\n  PUSH [tag] 93\t\t\tthe gig\\r\\n     */\\r\\n    func...\n  PUSH [tag] 94\t\t\t   function rel\n  DUP5 \t\t\tn re\n  PUSH [tag] 95\t\t\t   functi\n  PUSH 20\t\t\t   functi\n  SHL \t\t\t   functi\n  PUSH 20\t\t\t   function rel\n  SHR \t\t\t   function rel\n  JUMP \t\t\t   function rel\ntag 94\t\t\t   function rel\n  JUMPDEST \t\t\t   function rel\n  PUSH [tag] 96\t\t\tseEscrow(uint\n  DUP5 \t\t\tin\n  PUSH [tag] 95\t\t\tseEscrow(\n  PUSH 20\t\t\tseEscrow(\n  SHL \t\t\tseEscrow(\n  PUSH 20\t\t\tseEscrow(uint\n  SHR \t\t\tseEscrow(uint\n  JUMP \t\t\tseEscrow(uint\ntag 96\t\t\tseEscrow(uint\n  JUMPDEST \t\t\tseEscrow(uint\n  DUP4 \t\t\t6 gigI\n  PUSH [tag] 97\t\t\tthe gig\\r\\n     */\\r\\n\n  PUSH 20\t\t\tthe gig\\r\\n     */\\r\\n\n  SHL \t\t\tthe gig\\r\\n     */\\r\\n\n  PUSH 20\t\t\tthe gig\\r\\n     */\\r\\n    func...\n  SHR \t\t\tthe gig\\r\\n     */\\r\\n    func...\n  JUMP \t\t\tthe gig\\r\\n     */\\r\\n    func...\ntag 93\t\t\tthe gig\\r\\n     */\\r\\n    func...\n  JUMPDEST \t\t\tthe gig\\r\\n     */\\r\\n    func...\n  POP \t\t\th(gigId);\\r\\n        freelance...\n  POP \t\t\th(gigId);\\r\\n        freelance...\n  POP \t\t\th(gigId);\\r\\n        freelance...\n  JUMP \t\t\th(gigId);\\r\\n        freelance...\ntag 85\t\t\t  // Refund full amount to cli...\n  JUMPDEST \t\t\t  // Refund full amount to cli...\n  PUSH 0\t\t\tncellat\n  DUP2 \t\t\tc\n  DUP4 \t\t\tl\n  PUSH [tag] 99\t\t\tl suc\n  SWAP2 \t\t\tl suc\n  SWAP1 \t\t\tl suc\n  PUSH [tag] 100\t\t\tl suc\n  JUMP \t\t\tl suc\ntag 99\t\t\tl suc\n  JUMPDEST \t\t\tl suc\n  SWAP1 \t\t\t   (bool suc\n  POP \t\t\t   (bool suc\n  SWAP3 \t\t\t  // Refund full amount to cli...\n  SWAP2 \t\t\t  // Refund full amount to cli...\n  POP \t\t\t  // Refund full amount to cli...\n  POP \t\t\t  // Refund full amount to cli...\n  JUMP \t\t\t  // Refund full amount to cli...\ntag 87\t\t\tapproved, funds released\\r\\n  ...\n  JUMPDEST \t\t\tapproved, funds released\\r\\n  ...\n  PUSH 0\t\t\tcelled,\n  PUSH FFFFFFFFFFFFFFFFFFFFFFFFFFFFFFFFFFFFFFFFFFFFFFFFFFFF\t\t\t Disputed     // \n  DUP1 \t\t\t\\n        Disputed     // \n  AND \t\t\t\\n        Disputed     // \n  DUP3 \t\t\t\\n    \n  GT \t\t\t\\n        Disputed     // \n  ISZERO \t\t\tded\\r\\n        Disputed     //...\n  PUSH [tag] 102\t\t\tded\\r\\n        Disputed     //...\n  JUMPI \t\t\tded\\r\\n        Disputed     //...\n  PUSH D0\t\t\tstr\n  DUP3 \t\t\tt Esc\n  PUSH 40\t\t\ts DAO voting\\r\\n    }\\r\\n    \\...\n  MLOAD \t\t\ts DAO voting\\r\\n    }\\r\\n    \\...\n  PUSH 6DFCC65000000000000000000000000000000000000000000000000000000000\t\t\ts DAO voting\\r\\n    }\\r\\n    \\...\n  DUP2 \t\t\ts DAO voting\\r\\n    }\\r\\n    \\...\n  MSTORE \t\t\ts DAO voting\\r\\n    }\\r\\n    \\...\n  PUSH 4\t\t\ts DAO voting\\r\\n    }\\r\\n    \\...\n  ADD \t\t\ts DAO voting\\r\\n    }\\r\\n    \\...\n  PUSH [tag] 103\t\t\ts DAO voting\\r\\n    }\\r\\n    \\...\n  SWAP3 \t\t\ts DAO voting\\r\\n    }\\r\\n    \\...\n  SWAP2 \t\t\ts DAO voting\\r\\n    }\\r\\n    \\...\n  SWAP1 \t\t\ts DAO voting\\r\\n    }\\r\\n    \\...\n  PUSH [tag] 104\t\t\ts DAO voting\\r\\n    }\\r\\n    \\...\n  JUMP \t\t\ts DAO voting\\r\\n    }\\r\\n    \\...\ntag 103\t\t\ts DAO voting\\r\\n    }\\r\\n    \\...\n  JUMPDEST \t\t\ts DAO voting\\r\\n    }\\r\\n    \\...\n  PUSH 40\t\t\ts DAO voting\\r\\n    }\\r\\n    \\...\n  MLOAD \t\t\ts DAO voting\\r\\n    }\\r\\n    \\...\n  DUP1 \t\t\ts DAO voting\\r\\n    }\\r\\n    \\...\n  SWAP2 \t\t\ts DAO voting\\r\\n    }\\r\\n    \\...\n  SUB \t\t\ts DAO voting\\r\\n    }\\r\\n    \\...\n  SWAP1 \t\t\ts DAO voting\\r\\n    }\\r\\n    \\...\n  REVERT \t\t\ts DAO voting\\r\\n    }\\r\\n    \\...\ntag 102\t\t\tded\\r\\n        Disputed     //...\n  JUMPDEST \t\t\tded\\r\\n        Disputed     //...\n  DUP2 \t\t\t     \n  SWAP1 \t\t\tnt256 gigId;\\r\\n       \n  POP \t\t\tnt256 gigId;\\r\\n       \n  SWAP2 \t\t\tapproved, funds released\\r\\n  ...\n  SWAP1 \t\t\tapproved, funds released\\r\\n  ...\n  POP \t\t\tapproved, funds released\\r\\n  ...\n  JUMP \t\t\tapproved, funds released\\r\\n  ...\ntag 88\t\t\ttatus == EscrowStatus.Pending ...\n  JUMPDEST \t\t\ttatus == EscrowStatus.Pending ...\n  PUSH 0\t\t\tatus.Cancelled;\\r\n  PUSH 0\t\t\t       \\r\\n       \n  PUSH [tag] 106\t\t\tscrow.amount;\\r\\n        escro...\n  PUSH [tag] 107\t\t\tt;\\r\\n   \n  PUSH [tag] 108\t\t\tt;\\r\\n \n  PUSH 20\t\t\tt;\\r\\n \n  SHL \t\t\tt;\\r\\n \n  PUSH 20\t\t\tt;\\r\\n   \n  SHR \t\t\tt;\\r\\n   \n  JUMP \t\t\tt;\\r\\n   \ntag 107\t\t\tt;\\r\\n   \n  JUMPDEST \t\t\tt;\\r\\n   \n  PUSH [tag] 109\t\t\t   escrow.amount = 0;\\r\\n  \n  PUSH [tag] 110\t\t\tescrow.amount \n  DUP9 \t\t\tescro\n  PUSH [tag] 111\t\t\tescrow.amoun\n  PUSH 20\t\t\tescrow.amoun\n  SHL \t\t\tescrow.amoun\n  PUSH 20\t\t\tescrow.amount \n  SHR \t\t\tescrow.amount \n  JUMP \t\t\tescrow.amount \ntag 110\t\t\tescrow.amount \n  JUMPDEST \t\t\tescrow.amount \n  DUP7 \t\t\t0;\\r\\n \n  DUP9 \t\t\t  \n  PUSH 20\t\t\t   escrow.amount = 0;\\r\\n  \n  SHR \t\t\t   escrow.amount = 0;\\r\\n  \n  JUMP \t\t\t   escrow.amount = 0;\\r\\n  \ntag 109\t\t\t   escrow.amount = 0;\\r\\n  \n  JUMPDEST \t\t\t   escrow.amount = 0;\\r\\n  \n  DUP8 \t\t\tscrow\n  PUSH [tag] 112\t\t\tscrow.amou\n  PUSH 20\t\t\tscrow.amou\n  SHL \t\t\tscrow.amou\n  SWAP1 \t\t\tscrow.amou\n  SWAP3 \t\t\tscrow.amount;\\r\\n        escro...\n  SWAP2 \t\t\tscrow.amount;\\r\\n        escro...\n  SWAP1 \t\t\tscrow.amount;\\r\\n        escro...\n  PUSH 20\t\t\tscrow.amount;\\r\\n        escro...\n  SHR \t\t\tscrow.amount;\\r\\n        escro...\n  JUMP \t\t\tscrow.amount;\\r\\n        escro...\ntag 106\t\t\tscrow.amount;\\r\\n        escro...\n  JUMPDEST \t\t\tscrow.amount;\\r\\n        escro...\n  SWAP2 \t\t\tunt = escrow.amount;\\r\\n      ...\n  POP \t\t\tunt = escrow.amount;\\r\\n      ...\n  SWAP2 \t\t\tunt = escrow.amount;\\r\\n      ...\n  POP \t\t\tunt = escrow.amount;\\r\\n      ...\n  SWAP4 \t\t\ttatus == EscrowStatus.Pending ...\n  POP \t\t\ttatus == EscrowStatus.Pending ...\n  SWAP4 \t\t\ttatus == EscrowStatus.Pending ...\n  SWAP2 \t\t\ttatus == EscrowStatus.Pending ...\n  POP \t\t\ttatus == EscrowStatus.Pending ...\n  POP \t\t\ttatus == EscrowStatus.Pending ...\n  JUMP \t\t\ttatus == EscrowStatus.Pending ...\ntag 91\t\t\trow.client.call{value: amount}...\n  JUMPDEST \t\t\trow.client.call{value: amount}...\n  PUSH 0\t\t\tRefund \n  DUP2 \t\t\t \n  DUP4 \t\t\t\\r\n  PUSH [tag] 114\t\t\t\\r\\n   \n  SWAP2 \t\t\t\\r\\n   \n  SWAP1 \t\t\t\\r\\n   \n  PUSH [tag] 115\t\t\t\\r\\n   \n  JUMP \t\t\t\\r\\n   \ntag 114\t\t\t\\r\\n   \n  JUMPDEST \t\t\t\\r\\n   \n  SWAP1 \t\t\tiled\");\\r\\n   \n  POP \t\t\tiled\");\\r\\n   \n  SWAP3 \t\t\trow.client.call{value: amount}...\n  SWAP2 \t\t\trow.client.call{value: amount}...\n  POP \t\t\trow.client.call{value: amount}...\n  POP \t\t\trow.client.call{value: amount}...\n  JUMP \t\t\trow.client.call{value: amount}...\ntag 95\t\t\t        require(escrows[gigId]...\n  JUMPDEST \t\t\t        require(escrows[gigId]...\n  PUSH 0\t\t\t\");\\r\\n  \n  PUSH 8\t\t\t  \\r\\n    mo\n  PUSH 0\t\t\t  \\r\\n    modifier on\n  DUP4 \t\t\tifier o\n  PUSH FFFFFFFFFFFFFFFFFFFFFFFFFFFFFFFFFFFFFFFF\t\t\t  \\r\\n    modifier on\n  AND \t\t\t  \\r\\n    modifier on\n  PUSH FFFFFFFFFFFFFFFFFFFFFFFFFFFFFFFFFFFFFFFF\t\t\t  \\r\\n    modifier on\n  AND \t\t\t  \\r\\n    modifier on\n  DUP2 \t\t\t  \\r\\n    modifier on\n  MSTORE \t\t\t  \\r\\n    modifier on\n  PUSH 20\t\t\t  \\r\\n    modifier on\n  ADD \t\t\t  \\r\\n    modifier on\n  SWAP1 \t\t\t  \\r\\n    modifier on\n  DUP2 \t\t\t  \\r\\n    modifier on\n  MSTORE \t\t\t  \\r\\n    modifier on\n  PUSH 20\t\t\t  \\r\\n    modifier on\n  ADD \t\t\t  \\r\\n    modifier on\n  PUSH 0\t\t\t  \\r\\n    modifier on\n  KECCAK256 \t\t\t  \\r\\n    modifier on\n  PUSH 0\t\t\t  \\r\\n    modifier on\n  SWAP1 \t\t\t  \\r\\n    modifier on\n  SLOAD \t\t\t  \\r\\n    modifier on\n  SWAP1 \t\t\t  \\r\\n    modifier on\n  PUSH 100\t\t\t  \\r\\n    modifier on\n  EXP \t\t\t  \\r\\n    modifier on\n  SWAP1 \t\t\t  \\r\\n    modifier on\n  DIV \t\t\t  \\r\\n    modifier on\n  PUSH FFFFFFFFFFFFFFFFFFFFFFFFFFFFFFFFFFFFFFFF\t\t\t  \\r\\n    modifier on\n  AND \t\t\t  \\r\\n    modifier on\n  SWAP1 \t\t\t  }\\r\\n    \\r\\n    modifier on\n  POP \t\t\t  }\\r\\n    \\r\\n    modifier on\n  SWAP2 \t\t\t        require(escrows[gigId]...\n  SWAP1 \t\t\t        require(escrows[gigId]...\n  POP \t\t\t        require(escrows[gigId]...\n  JUMP \t\t\t        require(escrows[gigId]...\ntag 97\t\t\tw = escrows[gigId];\\r\\n       ...\n  JUMPDEST \t\t\tw = escrows[gigId];\\r\\n       ...\n  DUP2 \t\t\tst\n  PUSH FFFFFFFFFFFFFFFFFFFFFFFFFFFFFFFFFFFFFFFF\t\t\t escrow.st\n  AND \t\t\t escrow.st\n  DUP4 \t\t\t esc\n  PUSH FFFFFFFFFFFFFFFFFFFFFFFFFFFFFFFFFFFFFFFF\t\t\t escrow.st\n  AND \t\t\t escrow.st\n  EQ \t\t\t escrow.st\n  ISZERO \t\t\t escrow.st\n  DUP1 \t\t\t escrow.status == Escrow\n  ISZERO \t\t\t escrow.status == Escrow\n  PUSH [tag] 118\t\t\t escrow.status == Escrow\n  JUMPI \t\t\t escrow.status == Escrow\n  POP \t\t\t escrow.status == Escrow\n  PUSH 0\t\t\tw\n  DUP2 \t\t\t == Es\n  GT \t\t\t == Escrow\ntag 118\t\t\t escrow.status == Escrow\n  JUMPDEST \t\t\t escrow.status == Escrow\n  ISZERO \t\t\tg || escrow.status == EscrowSt...\n  PUSH [tag] 119\t\t\tg || escrow.status == EscrowSt...\n  JUMPI \t\t\tg || escrow.status == EscrowSt...\n  PUSH 0\t\t\tc\n  PUSH FFFFFFFFFFFFFFFFFFFFFFFFFFFFFFFFFFFFFFFF\t\t\t        \"Escrow ca\n  AND \t\t\t        \"Escrow ca\n  DUP4 \t\t\t    \n  PUSH FFFFFFFFFFFFFFFFFFFFFFFFFFFFFFFFFFFFFFFF\t\t\t        \"Escrow ca\n  AND \t\t\t        \"Escrow ca\n  EQ \t\t\t        \"Escrow ca\n  PUSH [tag] 120\t\t\t            \"Escrow cannot be ...\n  JUMPI \t\t\t            \"Escrow cannot be ...\n  PUSH 0\t\t\t      );\\r\\n      \n  PUSH 0\t\t\t\\r\\n        escrow\n  PUSH [tag] 121\t\t\ttus = EscrowStatus.Completed;\\...\n  PUSH 9\t\t\td;\\r\\n        \\r\\n      \n  PUSH 0\t\t\td;\\r\\n        \\r\\n        uint\n  DUP8 \t\t\t uin\n  PUSH FFFFFFFFFFFFFFFFFFFFFFFFFFFFFFFFFFFFFFFF\t\t\td;\\r\\n        \\r\\n        uint\n  AND \t\t\td;\\r\\n        \\r\\n        uint\n  PUSH FFFFFFFFFFFFFFFFFFFFFFFFFFFFFFFFFFFFFFFF\t\t\td;\\r\\n        \\r\\n        uint\n  AND \t\t\td;\\r\\n        \\r\\n        uint\n  DUP2 \t\t\td;\\r\\n        \\r\\n        uint\n  MSTORE \t\t\td;\\r\\n        \\r\\n        uint\n  PUSH 20\t\t\td;\\r\\n        \\r\\n        uint\n  ADD \t\t\td;\\r\\n        \\r\\n        uint\n  SWAP1 \t\t\td;\\r\\n        \\r\\n        uint\n  DUP2 \t\t\td;\\r\\n        \\r\\n        uint\n  MSTORE \t\t\td;\\r\\n        \\r\\n        uint\n  PUSH 20\t\t\td;\\r\\n        \\r\\n        uint\n  ADD \t\t\td;\\r\\n        \\r\\n        uint\n  PUSH 0\t\t\td;\\r\\n        \\r\\n        uint\n  KECCAK256 \t\t\td;\\r\\n        \\r\\n        uint\n  PUSH [tag] 91\t\t\tount;\\r\\n  \n  PUSH 20\t\t\tount;\\r\\n  \n  SHL \t\t\tount;\\r\\n  \n  PUSH [tag] 18446744073709551780\t\t\tount;\\r\\n  \n  OR \t\t\tount;\\r\\n  \n  PUSH [tag] 122\t\t\t0;\\r\\n        \\r\\n        // C\n  DUP7 \t\t\t   // \n  PUSH [tag] 87\t\t\t0;\\r\\n        \\r\\n    \n  PUSH 20\t\t\t0;\\r\\n        \\r\\n    \n  SHL \t\t\t0;\\r\\n        \\r\\n    \n  PUSH 20\t\t\t0;\\r\\n        \\r\\n        // C\n  SHR \t\t\t0;\\r\\n        \\r\\n        // C\n  JUMP \t\t\t0;\\r\\n        \\r\\n        // C\ntag 122\t\t\t0;\\r\\n        \\r\\n        // C\n  JUMPDEST \t\t\t0;\\r\\n        \\r\\n        // C\n  PUSH [tag] 88\t\t\ttus =\n  PUSH 20\t\t\ttus =\n  SHL \t\t\ttus =\n  PUSH 20\t\t\ttus = EscrowStatus.Completed;\\...\n  SHR \t\t\ttus = EscrowStatus.Completed;\\...\n  JUMP \t\t\ttus = EscrowStatus.Completed;\\...\ntag 121\t\t\ttus = EscrowStatus.Completed;\\...\n  JUMPDEST \t\t\ttus = EscrowStatus.Completed;\\...\n  PUSH FFFFFFFFFFFFFFFFFFFFFFFFFFFFFFFFFFFFFFFFFFFFFFFFFFFF\t\t\t       );\\r\\n        \\r\\n     ...\n  AND \t\t\t       );\\r\\n        \\r\\n     ...\n  SWAP2 \t\t\t       );\\r\\n        \\r\\n     ...\n  POP \t\t\t       );\\r\\n        \\r\\n     ...\n  PUSH FFFFFFFFFFFFFFFFFFFFFFFFFFFFFFFFFFFFFFFFFFFFFFFFFFFF\t\t\t       );\\r\\n        \\r\\n     ...\n  AND \t\t\t       );\\r\\n        \\r\\n     ...\n  SWAP2 \t\t\t       );\\r\\n        \\r\\n     ...\n  POP \t\t\t       );\\r\\n        \\r\\n     ...\n  DUP5 \t\t\tmFee\n  PUSH FFFFFFFFFFFFFFFFFFFFFFFFFFFFFFFFFFFFFFFF\t\t\te = (amount * platformFee) / 1...\n  AND \t\t\te = (amount * platformFee) / 1...\n  PUSH DEC2BACDD2F05B59DE34DA9B523DFF8BE42E5E38E818C82FDB0BAE774387A724\t\t\te = (amount * platformFee) / 1...\n  DUP4 \t\t\t/ 10000;\n  DUP4 \t\t\t        \n  PUSH 40\t\t\te = (amount * platformFee) / 1...\n  MLOAD \t\t\te = (amount * platformFee) / 1...\n  PUSH [tag] 123\t\t\te = (amount * platformFee) / 1...\n  SWAP3 \t\t\te = (amount * platformFee) / 1...\n  SWAP2 \t\t\te = (amount * platformFee) / 1...\n  SWAP1 \t\t\te = (amount * platformFee) / 1...\n  PUSH [tag] 65\t\t\te = (amount * platformFee) / 1...\n  JUMP \t\t\te = (amount * platformFee) / 1...\ntag 123\t\t\te = (amount * platformFee) / 1...\n  JUMPDEST \t\t\te = (amount * platformFee) / 1...\n  PUSH 40\t\t\te = (amount * platformFee) / 1...\n  MLOAD \t\t\te = (amount * platformFee) / 1...\n  DUP1 \t\t\te = (amount * platformFee) / 1...\n  SWAP2 \t\t\te = (amount * platformFee) / 1...\n  SUB \t\t\te = (amount * platformFee) / 1...\n  SWAP1 \t\t\te = (amount * platformFee) / 1...\n  LOG2 \t\t\te = (amount * platformFee) / 1...\n  POP \t\t\tot be released\"\\r\\n        );\\...\n  POP \t\t\tot be released\"\\r\\n        );\\...\ntag 120\t\t\t            \"Escrow cannot be ...\n  JUMPDEST \t\t\t            \"Escrow cannot be ...\n  PUSH 0\t\t\t \n  PUSH FFFFFFFFFFFFFFFFFFFFFFFFFFFFFFFFFFFFFFFF\t\t\t       \\r\\n       \n  AND \t\t\t       \\r\\n       \n  DUP3 \t\t\t  \n  PUSH FFFFFFFFFFFFFFFFFFFFFFFFFFFFFFFFFFFFFFFF\t\t\t       \\r\\n       \n  AND \t\t\t       \\r\\n       \n  EQ \t\t\t       \\r\\n       \n  PUSH [tag] 124\t\t\t;\\r\\n        \\r\\n        // Tr...\n  JUMPI \t\t\t;\\r\\n        \\r\\n        // Tr...\n  PUSH 0\t\t\tlatform\\r\\n       \n  PUSH 0\t\t\tf (fee > 0 && fe\n  PUSH [tag] 125\t\t\tipient != address(0)) {\\r\\n   ...\n  PUSH 9\t\t\t          (bool feeS\n  PUSH 0\t\t\t          (bool feeSucce\n  DUP7 \t\t\tcc\n  PUSH FFFFFFFFFFFFFFFFFFFFFFFFFFFFFFFFFFFFFFFF\t\t\t          (bool feeSucce\n  AND \t\t\t          (bool feeSucce\n  PUSH FFFFFFFFFFFFFFFFFFFFFFFFFFFFFFFFFFFFFFFF\t\t\t          (bool feeSucce\n  AND \t\t\t          (bool feeSucce\n  DUP2 \t\t\t          (bool feeSucce\n  MSTORE \t\t\t          (bool feeSucce\n  PUSH 20\t\t\t          (bool feeSucce\n  ADD \t\t\t          (bool feeSucce\n  SWAP1 \t\t\t          (bool feeSucce\n  DUP2 \t\t\t          (bool feeSucce\n  MSTORE \t\t\t          (bool feeSucce\n  PUSH 20\t\t\t          (bool feeSucce\n  ADD \t\t\t          (bool feeSucce\n  PUSH 0\t\t\t          (bool feeSucce\n  KECCAK256 \t\t\t          (bool feeSucce\n  PUSH [tag] 85\t\t\tall{\n  PUSH 20\t\t\tall{\n  SHL \t\t\tall{\n  PUSH [tag] 18446744073709551779\t\t\tall{\n  OR \t\t\tall{\n  PUSH [tag] 126\t\t\t        require(feeSuccess\n  DUP7 \t\t\tSucces\n  PUSH [tag] 87\t\t\t        require(fe\n  PUSH 20\t\t\t        require(fe\n  SHL \t\t\t        require(fe\n  PUSH 20\t\t\t        require(feeSuccess\n  SHR \t\t\t        require(feeSuccess\n  JUMP \t\t\t        require(feeSuccess\ntag 126\t\t\t        require(feeSuccess\n  JUMPDEST \t\t\t        require(feeSuccess\n  PUSH [tag] 88\t\t\tipien\n  PUSH 20\t\t\tipien\n  SHL \t\t\tipien\n  PUSH 20\t\t\tipient != address(0)) {\\r\\n   ...\n  SHR \t\t\tipient != address(0)) {\\r\\n   ...\n  JUMP \t\t\tipient != address(0)) {\\r\\n   ...\ntag 125\t\t\tipient != address(0)) {\\r\\n   ...\n  JUMPDEST \t\t\tipient != address(0)) {\\r\\n   ...\n  PUSH FFFFFFFFFFFFFFFFFFFFFFFFFFFFFFFFFFFFFFFFFFFFFFFFFFFF\t\t\tplatform\\r\\n        if (fee > ...\n  AND \t\t\tplatform\\r\\n        if (fee > ...\n  SWAP2 \t\t\tplatform\\r\\n        if (fee > ...\n  POP \t\t\tplatform\\r\\n        if (fee > ...\n  PUSH FFFFFFFFFFFFFFFFFFFFFFFFFFFFFFFFFFFFFFFFFFFFFFFFFFFF\t\t\tplatform\\r\\n        if (fee > ...\n  AND \t\t\tplatform\\r\\n        if (fee > ...\n  SWAP2 \t\t\tplatform\\r\\n        if (fee > ...\n  POP \t\t\tplatform\\r\\n        if (fee > ...\n  DUP4 \t\t\tns\n  PUSH FFFFFFFFFFFFFFFFFFFFFFFFFFFFFFFFFFFFFFFF\t\t\t     \\r\\n        // Transfer r...\n  AND \t\t\t     \\r\\n        // Transfer r...\n  PUSH DEC2BACDD2F05B59DE34DA9B523DFF8BE42E5E38E818C82FDB0BAE774387A724\t\t\t     \\r\\n        // Transfer r...\n  DUP4 \t\t\tr remain\n  DUP4 \t\t\tg amount\n  PUSH 40\t\t\t     \\r\\n        // Transfer r...\n  MLOAD \t\t\t     \\r\\n        // Transfer r...\n  PUSH [tag] 127\t\t\t     \\r\\n        // Transfer r...\n  SWAP3 \t\t\t     \\r\\n        // Transfer r...\n  SWAP2 \t\t\t     \\r\\n        // Transfer r...\n  SWAP1 \t\t\t     \\r\\n        // Transfer r...\n  PUSH [tag] 65\t\t\t     \\r\\n        // Transfer r...\n  JUMP \t\t\t     \\r\\n        // Transfer r...\ntag 127\t\t\t     \\r\\n        // Transfer r...\n  JUMPDEST \t\t\t     \\r\\n        // Transfer r...\n  PUSH 40\t\t\t     \\r\\n        // Transfer r...\n  MLOAD \t\t\t     \\r\\n        // Transfer r...\n  DUP1 \t\t\t     \\r\\n        // Transfer r...\n  SWAP2 \t\t\t     \\r\\n        // Transfer r...\n  SUB \t\t\t     \\r\\n        // Transfer r...\n  SWAP1 \t\t\t     \\r\\n        // Transfer r...\n  LOG2 \t\t\t     \\r\\n        // Transfer r...\n  POP \t\t\t/ Transfer fee to platform\\r\\n...\n  POP \t\t\t/ Transfer fee to platform\\r\\n...\ntag 124\t\t\t;\\r\\n        \\r\\n        // Tr...\n  JUMPDEST \t\t\t;\\r\\n        \\r\\n        // Tr...\ntag 119\t\t\tg || escrow.status == EscrowSt...\n  JUMPDEST \t\t\tg || escrow.status == EscrowSt...\n  POP \t\t\tw = escrows[gigId];\\r\\n       ...\n  POP \t\t\tw = escrows[gigId];\\r\\n       ...\n  POP \t\t\tw = escrows[gigId];\\r\\n       ...\n  JUMP \t\t\tw = escrows[gigId];\\r\\n       ...\ntag 108\t\t\tf amounts to distribute\\r\\n   ...\n  JUMPDEST \t\t\tf amounts to distribute\\r\\n   ...\n  PUSH 0\t\t\t batch\n  PUSH [tag] 129\t\t\tdata recipients, u\n  PUSH [tag] 130\t\t\tdata recipients,\n  PUSH 20\t\t\tdata recipients,\n  SHL \t\t\tdata recipients,\n  PUSH 20\t\t\tdata recipients, u\n  SHR \t\t\tdata recipients, u\n  JUMP \t\t\tdata recipients, u\ntag 129\t\t\tdata recipients, u\n  JUMPDEST \t\t\tdata recipients, u\n  SWAP1 \t\t\t[] calldata recipients, u\n  POP \t\t\t[] calldata recipients, u\n  SWAP1 \t\t\tf amounts to distribute\\r\\n   ...\n  JUMP \t\t\tf amounts to distribute\\r\\n   ...\ntag 111\t\t\tent's escrow gig IDs\\r\\n     *...\n  JUMPDEST \t\t\tent's escrow gig IDs\\r\\n     *...\n  PUSH 0\t\t\tnt\\r\\n   \n  PUSH 0\t\t\tnction getC\n  DUP3 \t\t\tntEs\n  PUSH 0\t\t\tntEscrows(address\n  ADD \t\t\tntEscrows(address\n  DUP1 \t\t\tntEscrows(address client\n  SLOAD \t\t\tntEscrows(address client\n  SWAP1 \t\t\tntEscrows(address client\n  POP \t\t\tntEscrows(address client\n  SWAP1 \t\t\tnction getClientEscrows(addres...\n  POP \t\t\tnction getClientEscrows(addres...\n  PUSH 0\t\t\t(\n  DUP2 \t\t\tetu\n  EQ \t\t\teturns (\n  PUSH [tag] 132\t\t\teturns (uint256[] memory) {\\r\\...\n  JUMPI \t\t\teturns (uint256[] memory) {\\r\\...\n  PUSH [tag] 133\t\t\t[] memory) {\\r\\n        return...\n  DUP4 \t\t\t    \n  PUSH 0\t\t\t        return cl\n  ADD \t\t\t        return cl\n  PUSH 1\t\t\to\n  DUP4 \t\t\tntE\n  PUSH [tag] 134\t\t\tntEscro\n  SWAP2 \t\t\tntEscro\n  SWAP1 \t\t\tntEscro\n  PUSH [tag] 135\t\t\tntEscro\n  JUMP \t\t\tntEscro\ntag 134\t\t\tntEscro\n  JUMPDEST \t\t\tntEscro\n  PUSH [tag] 136\t\t\t[] memory) {\\r\n  PUSH 20\t\t\t[] memory) {\\r\n  SHL \t\t\t[] memory) {\\r\n  PUSH 20\t\t\t[] memory) {\\r\\n        return...\n  SHR \t\t\t[] memory) {\\r\\n        return...\n  JUMP \t\t\t[] memory) {\\r\\n        return...\ntag 133\t\t\t[] memory) {\\r\\n        return...\n  JUMPDEST \t\t\t[] memory) {\\r\\n        return...\n  PUSH 0\t\t\t[] memory) {\\r\\n        return...\n  ADD \t\t\t[] memory) {\\r\\n        return...\n  PUSH 6\t\t\t[] memory) {\\r\\n        return...\n  SWAP1 \t\t\t[] memory) {\\r\\n        return...\n  SLOAD \t\t\t[] memory) {\\r\\n        return...\n  SWAP1 \t\t\t[] memory) {\\r\\n        return...\n  PUSH 100\t\t\t[] memory) {\\r\\n        return...\n  EXP \t\t\t[] memory) {\\r\\n        return...\n  SWAP1 \t\t\t[] memory) {\\r\\n        return...\n  DIV \t\t\t[] memory) {\\r\\n        return...\n  PUSH FFFFFFFFFFFFFFFFFFFFFFFFFFFFFFFFFFFFFFFFFFFFFFFFFFFF\t\t\t[] memory) {\\r\\n        return...\n  AND \t\t\t[] memory) {\\r\\n        return...\n  PUSH [tag] 137\t\t\teturns (uint256[] memory) {\\r\\...\n  JUMP \t\t\teturns (uint256[] memory) {\\r\\...\ntag 132\t\t\teturns (uint256[] memory) {\\r\\...\n  JUMPDEST \t\t\teturns (uint256[] memory) {\\r\\...\n  PUSH 0\t\t\tt\ntag 137\t\t\teturns (uint256[] memory) {\\r\\...\n  JUMPDEST \t\t\teturns (uint256[] memory) {\\r\\...\n  SWAP2 \t\t\t view returns (uint256[] memor...\n  POP \t\t\t view returns (uint256[] memor...\n  POP \t\t\t view returns (uint256[] memor...\n  SWAP2 \t\t\tent's escrow gig IDs\\r\\n     *...\n  SWAP1 \t\t\tent's escrow gig IDs\\r\\n     *...\n  POP \t\t\tent's escrow gig IDs\\r\\n     *...\n  JUMP \t\t\tent's escrow gig IDs\\r\\n     *...\ntag 112\t\t\tuint256 fee = (amount * platfo...\n  JUMPDEST \t\t\tuint256 fee = (amount * platfo...\n  PUSH 0\t\t\tsfer fee to plat\n  PUSH 0\t\t\trm\\r\\n        if (\n  PUSH [tag] 139\t\t\tient != address(0)) {\\r\\n     ...\n  DUP6 \t\t\taddr\n  PUSH 0\t\t\taddress(0)) {\\r\\n  \n  ADD \t\t\taddress(0)) {\\r\\n  \n  DUP6 \t\t\t   \n  DUP6 \t\t\t   (b\n  PUSH [tag] 140\t\t\tient !=\n  PUSH 20\t\t\tient !=\n  SHL \t\t\tient !=\n  PUSH 20\t\t\tient != address(0)) {\\r\\n     ...\n  SHR \t\t\tient != address(0)) {\\r\\n     ...\n  JUMP \t\t\tient != address(0)) {\\r\\n     ...\ntag 139\t\t\tient != address(0)) {\\r\\n     ...\n  JUMPDEST \t\t\tient != address(0)) {\\r\\n     ...\n  SWAP2 \t\t\teeRecipient != address(0)) {\\r...\n  POP \t\t\teeRecipient != address(0)) {\\r...\n  SWAP2 \t\t\teeRecipient != address(0)) {\\r...\n  POP \t\t\teeRecipient != address(0)) {\\r...\n  SWAP4 \t\t\tuint256 fee = (amount * platfo...\n  POP \t\t\tuint256 fee = (amount * platfo...\n  SWAP4 \t\t\tuint256 fee = (amount * platfo...\n  SWAP2 \t\t\tuint256 fee = (amount * platfo...\n  POP \t\t\tuint256 fee = (amount * platfo...\n  POP \t\t\tuint256 fee = (amount * platfo...\n  JUMP \t\t\tuint256 fee = (amount * platfo...\ntag 130\t\t\tr SecureGig DAO voting\\r\\n * @...\n  JUMPDEST \t\t\tr SecureGig DAO voting\\r\\n * @...\n  PUSH 0\t\t\tis use\n  PUSH [tag] 142\t\t\trow disputes\\r\\n */\\r\\ncontrac...\n  NUMBER \t\t\t\\ncontract DA\n  PUSH [tag] 143\t\t\trow disputes\\r\\n */\n  PUSH 20\t\t\trow disputes\\r\\n */\n  SHL \t\t\trow disputes\\r\\n */\n  PUSH 20\t\t\trow disputes\\r\\n */\\r\\ncontrac...\n  SHR \t\t\trow disputes\\r\\n */\\r\\ncontrac...\n  JUMP \t\t\trow disputes\\r\\n */\\r\\ncontrac...\ntag 142\t\t\trow disputes\\r\\n */\\r\\ncontrac...\n  JUMPDEST \t\t\trow disputes\\r\\n */\\r\\ncontrac...\n  SWAP1 \t\t\t on escrow disputes\\r\\n */\\r\\n...\n  POP \t\t\t on escrow disputes\\r\\n */\\r\\n...\n  SWAP1 \t\t\tr SecureGig DAO voting\\r\\n * @...\n  JUMP \t\t\tr SecureGig DAO voting\\r\\n * @...\ntag 136\t\t\t       // Since we don't track...\n  JUMPDEST \t\t\t       // Since we don't track...\n  PUSH 0\t\t\tmight want to add a counter \n  DUP3 \t\t\tholder - \n  PUSH 0\t\t\ta\n  MSTORE \t\t\t; // Placeholder - a\n  DUP2 \t\t\t@de\n  PUSH 20\t\t\t    \n  PUSH 0\t\t\t*\n  KECCAK256 \t\t\t\\r\\n\\r\\n    /**\\r\\n     \n  ADD \t\t\t   }\\r\\n\\r\\n    /**\\r\\n     * ...\n  SWAP1 \t\t\tn your needs\\r\\n    }\\r\\n\\r\\n ...\n  POP \t\t\tn your needs\\r\\n    }\\r\\n\\r\\n ...\n  SWAP3 \t\t\t       // Since we don't track...\n  SWAP2 \t\t\t       // Since we don't track...\n  POP \t\t\t       // Since we don't track...\n  POP \t\t\t       // Since we don't track...\n  JUMP \t\t\t       // Since we don't track...\ntag 140\t\t\tract (only owner)\\r\\n     */\\r...\n  JUMPDEST \t\t\tract (only owner)\\r\\n     */\\r...\n  PUSH 0\t\t\tev Unpause contr\n  PUSH 0\t\t\tt (only owner)\\r\\n\n  PUSH 0\t\t\t function u\n  DUP6 \t\t\tuse(\n  DUP1 \t\t\tuse() exter\n  SLOAD \t\t\tuse() exter\n  SWAP1 \t\t\tuse() exter\n  POP \t\t\tuse() exter\n  SWAP1 \t\t\t function unpause() exter\n  POP \t\t\t function unpause() exter\n  PUSH 0\t\t\t \n  DUP2 \t\t\t\\r\\n \n  GT \t\t\t\\r\\n     \n  ISZERO \t\t\ter {\\r\\n        _unpause();\\r\\...\n  PUSH [tag] 146\t\t\ter {\\r\\n        _unpause();\\r\\...\n  JUMPI \t\t\ter {\\r\\n        _unpause();\\r\\...\n  PUSH 0\t\t\t    }\\r\\n    \\r\\n    /**\\r\\n  ...\n  PUSH [tag] 147\t\t\t@dev Emergency withdrawal (o\n  DUP8 \t\t\t wit\n  PUSH 1\t\t\t(\n  DUP5 \t\t\traw\n  PUSH [tag] 148\t\t\trawal (\n  SWAP2 \t\t\trawal (\n  SWAP1 \t\t\trawal (\n  PUSH [tag] 135\t\t\trawal (\n  JUMP \t\t\trawal (\ntag 148\t\t\trawal (\n  JUMPDEST \t\t\trawal (\n  PUSH [tag] 136\t\t\t@dev Emergenc\n  PUSH 20\t\t\t@dev Emergenc\n  SHL \t\t\t@dev Emergenc\n  PUSH 20\t\t\t@dev Emergency withdrawal (o\n  SHR \t\t\t@dev Emergency withdrawal (o\n  JUMP \t\t\t@dev Emergency withdrawal (o\ntag 147\t\t\t@dev Emergency withdrawal (o\n  JUMPDEST \t\t\t@dev Emergency withdrawal (o\n  SWAP1 \t\t\t    }\\r\\n    \\r\\n    /**\\r\\n  ...\n  POP \t\t\t    }\\r\\n    \\r\\n    /**\\r\\n  ...\n  PUSH 0\t\t\t emergencies)\\r\n  DUP2 \t\t\t   *\n  PUSH 0\t\t\t   * @par\n  ADD \t\t\t   * @par\n  PUSH 0\t\t\t   * @par\n  SWAP1 \t\t\t   * @par\n  SLOAD \t\t\t   * @par\n  SWAP1 \t\t\t   * @par\n  PUSH 100\t\t\t   * @par\n  EXP \t\t\t   * @par\n  SWAP1 \t\t\t   * @par\n  DIV \t\t\t   * @par\n  PUSH FFFFFFFFFFFF\t\t\t   * @par\n  AND \t\t\t   * @par\n  SWAP1 \t\t\t emergencies)\\r\\n     * @par\n  POP \t\t\t emergencies)\\r\\n     * @par\n  PUSH 0\t\t\t the gig\\r\\n     */\n  DUP3 \t\t\t   f\n  PUSH 0\t\t\t   function\n  ADD \t\t\t   function\n  PUSH 6\t\t\t   function\n  SWAP1 \t\t\t   function\n  SLOAD \t\t\t   function\n  SWAP1 \t\t\t   function\n  PUSH 100\t\t\t   function\n  EXP \t\t\t   function\n  SWAP1 \t\t\t   function\n  DIV \t\t\t   function\n  PUSH FFFFFFFFFFFFFFFFFFFFFFFFFFFFFFFFFFFFFFFFFFFFFFFFFFFF\t\t\t   function\n  AND \t\t\t   function\n  SWAP1 \t\t\t the gig\\r\\n     */\\r\\n    fun...\n  POP \t\t\t the gig\\r\\n     */\\r\\n    fun...\n  DUP8 \t\t\t\\n  \n  PUSH FFFFFFFFFFFF\t\t\tentrant {\\r\\n  \n  AND \t\t\tentrant {\\r\\n  \n  DUP3 \t\t\tentrant\n  PUSH FFFFFFFFFFFF\t\t\tentrant {\\r\\n  \n  AND \t\t\tentrant {\\r\\n  \n  GT \t\t\tentrant {\\r\\n  \n  ISZERO \t\t\tonReentrant {\\r\\n        Escro...\n  PUSH [tag] 149\t\t\tonReentrant {\\r\\n        Escro...\n  JUMPI \t\t\tonReentrant {\\r\\n        Escro...\n  PUSH 40\t\t\tcrow = escrows[gigId];\\r\\n    ...\n  MLOAD \t\t\tcrow = escrows[gigId];\\r\\n    ...\n  PUSH 2520601D00000000000000000000000000000000000000000000000000000000\t\t\tcrow = escrows[gigId];\\r\\n    ...\n  DUP2 \t\t\tcrow = escrows[gigId];\\r\\n    ...\n  MSTORE \t\t\tcrow = escrows[gigId];\\r\\n    ...\n  PUSH 4\t\t\tcrow = escrows[gigId];\\r\\n    ...\n  ADD \t\t\tcrow = escrows[gigId];\\r\\n    ...\n  PUSH 40\t\t\tcrow = escrows[gigId];\\r\\n    ...\n  MLOAD \t\t\tcrow = escrows[gigId];\\r\\n    ...\n  DUP1 \t\t\tcrow = escrows[gigId];\\r\\n    ...\n  SWAP2 \t\t\tcrow = escrows[gigId];\\r\\n    ...\n  SUB \t\t\tcrow = escrows[gigId];\\r\\n    ...\n  SWAP1 \t\t\tcrow = escrows[gigId];\\r\\n    ...\n  REVERT \t\t\tcrow = escrows[gigId];\\r\\n    ...\ntag 149\t\t\tonReentrant {\\r\\n        Escro...\n  JUMPDEST \t\t\tonReentrant {\\r\\n        Escro...\n  DUP8 \t\t\t es\n  PUSH FFFFFFFFFFFF\t\t\t56 amount = es\n  AND \t\t\t56 amount = es\n  DUP3 \t\t\t56 amou\n  PUSH FFFFFFFFFFFF\t\t\t56 amount = es\n  AND \t\t\t56 amount = es\n  SUB \t\t\t56 amount = es\n  PUSH [tag] 150\t\t\tint256 amount = escrow.amount;...\n  JUMPI \t\t\tint256 amount = escrow.amount;...\n  DUP7 \t\t\tt = 0\n  DUP4 \t\t\t  es\n  PUSH 0\t\t\t  escrow.am\n  ADD \t\t\t  escrow.am\n  PUSH 6\t\t\t  escrow.am\n  PUSH 100\t\t\t  escrow.amount = 0\n  EXP \t\t\t  escrow.amount = 0\n  DUP2 \t\t\t  escrow.amount = 0\n  SLOAD \t\t\t  escrow.amount = 0\n  DUP2 \t\t\t  escrow.amount = 0\n  PUSH FFFFFFFFFFFFFFFFFFFFFFFFFFFFFFFFFFFFFFFFFFFFFFFFFFFF\t\t\t  escrow.amount = 0\n  MUL \t\t\t  escrow.amount = 0\n  NOT \t\t\t  escrow.amount = 0\n  AND \t\t\t  escrow.amount = 0\n  SWAP1 \t\t\t  escrow.amount = 0\n  DUP4 \t\t\t  escrow.amount = 0\n  PUSH FFFFFFFFFFFFFFFFFFFFFFFFFFFFFFFFFFFFFFFFFFFFFFFFFFFF\t\t\t  escrow.amount = 0\n  AND \t\t\t  escrow.amount = 0\n  MUL \t\t\t  escrow.amount = 0\n  OR \t\t\t  escrow.amount = 0\n  SWAP1 \t\t\t  escrow.amount = 0\n  SSTORE \t\t\t  escrow.amount = 0\n  POP \t\t\t  escrow.amount = 0\n  PUSH [tag] 151\t\t\tint256 amount = escrow.amount;...\n  JUMP \t\t\tint256 amount = escrow.amount;...\ntag 150\t\t\tint256 amount = escrow.amount;...\n  JUMPDEST \t\t\tint256 amount = escrow.amount;...\n  DUP9 \t\t\t.Can\n  PUSH 40\t\t\t;\\r\\n        \\r\\n        (bool...\n  MLOAD \t\t\t;\\r\\n        \\r\\n        (bool...\n  DUP1 \t\t\t;\\r\\n        \\r\\n        (bool...\n  PUSH 40\t\t\t;\\r\\n        \\r\\n        (bool...\n  ADD \t\t\t;\\r\\n        \\r\\n        (bool...\n  PUSH 40\t\t\t;\\r\\n        \\r\\n        (bool...\n  MSTORE \t\t\t;\\r\\n        \\r\\n        (bool...\n  DUP1 \t\t\t;\\r\\n        \\r\\n        (bool...\n  DUP11 \t\t\t(bo\n  PUSH FFFFFFFFFFFF\t\t\t;\\r\\n        \\r\\n        (bool...\n  AND \t\t\t;\\r\\n        \\r\\n        (bool...\n  DUP2 \t\t\t;\\r\\n        \\r\\n        (bool...\n  MSTORE \t\t\t;\\r\\n        \\r\\n        (bool...\n  PUSH 20\t\t\t;\\r\\n        \\r\\n        (bool...\n  ADD \t\t\t;\\r\\n        \\r\\n        (bool...\n  DUP10 \t\t\t, ) =\n  PUSH FFFFFFFFFFFFFFFFFFFFFFFFFFFFFFFFFFFFFFFFFFFFFFFFFFFF\t\t\t;\\r\\n        \\r\\n        (bool...\n  AND \t\t\t;\\r\\n        \\r\\n        (bool...\n  DUP2 \t\t\t;\\r\\n        \\r\\n        (bool...\n  MSTORE \t\t\t;\\r\\n        \\r\\n        (bool...\n  POP \t\t\t;\\r\\n        \\r\\n        (bool...\n  SWAP1 \t\t\t.Cancelled;\\r\\n        \\r\\n   ...\n  DUP1 \t\t\t.Cancelled;\\r\\n        \\r\\n   ...\n  PUSH 1\t\t\t.Cancelled;\\r\\n        \\r\\n   ...\n  DUP2 \t\t\t.Cancelled;\\r\\n        \\r\\n   ...\n  SLOAD \t\t\t.Cancelled;\\r\\n        \\r\\n   ...\n  ADD \t\t\t.Cancelled;\\r\\n        \\r\\n   ...\n  DUP1 \t\t\t.Cancelled;\\r\\n        \\r\\n   ...\n  DUP3 \t\t\t.Cancelled;\\r\\n        \\r\\n   ...\n  SSTORE \t\t\t.Cancelled;\\r\\n        \\r\\n   ...\n  DUP1 \t\t\t.Cancelled;\\r\\n        \\r\\n   ...\n  SWAP2 \t\t\t.Cancelled;\\r\\n        \\r\\n   ...\n  POP \t\t\t.Cancelled;\\r\\n        \\r\\n   ...\n  POP \t\t\t.Cancelled;\\r\\n        \\r\\n   ...\n  PUSH 1\t\t\t.Cancelled;\\r\\n        \\r\\n   ...\n  SWAP1 \t\t\t.Cancelled;\\r\\n        \\r\\n   ...\n  SUB \t\t\t.Cancelled;\\r\\n        \\r\\n   ...\n  SWAP1 \t\t\t.Cancelled;\\r\\n        \\r\\n   ...\n  PUSH 0\t\t\t.Cancelled;\\r\\n        \\r\\n   ...\n  MSTORE \t\t\t.Cancelled;\\r\\n        \\r\\n   ...\n  PUSH 20\t\t\t.Cancelled;\\r\\n        \\r\\n   ...\n  PUSH 0\t\t\t.Cancelled;\\r\\n        \\r\\n   ...\n  KECCAK256 \t\t\t.Cancelled;\\r\\n        \\r\\n   ...\n  ADD \t\t\t.Cancelled;\\r\\n        \\r\\n   ...\n  PUSH 0\t\t\t.Cancelled;\\r\\n        \\r\\n   ...\n  SWAP1 \t\t\t.Cancelled;\\r\\n        \\r\\n   ...\n  SWAP2 \t\t\t.Cancelled;\\r\\n        \\r\\n   ...\n  SWAP1 \t\t\t.Cancelled;\\r\\n        \\r\\n   ...\n  SWAP2 \t\t\t.Cancelled;\\r\\n        \\r\\n   ...\n  SWAP1 \t\t\t.Cancelled;\\r\\n        \\r\\n   ...\n  SWAP2 \t\t\t.Cancelled;\\r\\n        \\r\\n   ...\n  POP \t\t\t.Cancelled;\\r\\n        \\r\\n   ...\n  PUSH 0\t\t\t.Cancelled;\\r\\n        \\r\\n   ...\n  DUP3 \t\t\t.Cancelled;\\r\\n        \\r\\n   ...\n  ADD \t\t\t.Cancelled;\\r\\n        \\r\\n   ...\n  MLOAD \t\t\t.Cancelled;\\r\\n        \\r\\n   ...\n  DUP2 \t\t\t.Cancelled;\\r\\n        \\r\\n   ...\n  PUSH 0\t\t\t.Cancelled;\\r\\n        \\r\\n   ...\n  ADD \t\t\t.Cancelled;\\r\\n        \\r\\n   ...\n  PUSH 0\t\t\t.Cancelled;\\r\\n        \\r\\n   ...\n  PUSH 100\t\t\t.Cancelled;\\r\\n        \\r\\n   ...\n  EXP \t\t\t.Cancelled;\\r\\n        \\r\\n   ...\n  DUP2 \t\t\t.Cancelled;\\r\\n        \\r\\n   ...\n  SLOAD \t\t\t.Cancelled;\\r\\n        \\r\\n   ...\n  DUP2 \t\t\t.Cancelled;\\r\\n        \\r\\n   ...\n  PUSH FFFFFFFFFFFF\t\t\t.Cancelled;\\r\\n        \\r\\n   ...\n  MUL \t\t\t.Cancelled;\\r\\n        \\r\\n   ...\n  NOT \t\t\t.Cancelled;\\r\\n        \\r\\n   ...\n  AND \t\t\t.Cancelled;\\r\\n        \\r\\n   ...\n  SWAP1 \t\t\t.Cancelled;\\r\\n        \\r\\n   ...\n  DUP4 \t\t\t.Cancelled;\\r\\n        \\r\\n   ...\n  PUSH FFFFFFFFFFFF\t\t\t.Cancelled;\\r\\n        \\r\\n   ...\n  AND \t\t\t.Cancelled;\\r\\n        \\r\\n   ...\n  MUL \t\t\t.Cancelled;\\r\\n        \\r\\n   ...\n  OR \t\t\t.Cancelled;\\r\\n        \\r\\n   ...\n  SWAP1 \t\t\t.Cancelled;\\r\\n        \\r\\n   ...\n  SSTORE \t\t\t.Cancelled;\\r\\n        \\r\\n   ...\n  POP \t\t\t.Cancelled;\\r\\n        \\r\\n   ...\n  PUSH 20\t\t\t.Cancelled;\\r\\n        \\r\\n   ...\n  DUP3 \t\t\t.Cancelled;\\r\\n        \\r\\n   ...\n  ADD \t\t\t.Cancelled;\\r\\n        \\r\\n   ...\n  MLOAD \t\t\t.Cancelled;\\r\\n        \\r\\n   ...\n  DUP2 \t\t\t.Cancelled;\\r\\n        \\r\\n   ...\n  PUSH 0\t\t\t.Cancelled;\\r\\n        \\r\\n   ...\n  ADD \t\t\t.Cancelled;\\r\\n        \\r\\n   ...\n  PUSH 6\t\t\t.Cancelled;\\r\\n        \\r\\n   ...\n  PUSH 100\t\t\t.Cancelled;\\r\\n        \\r\\n   ...\n  EXP \t\t\t.Cancelled;\\r\\n        \\r\\n   ...\n  DUP2 \t\t\t.Cancelled;\\r\\n        \\r\\n   ...\n  SLOAD \t\t\t.Cancelled;\\r\\n        \\r\\n   ...\n  DUP2 \t\t\t.Cancelled;\\r\\n        \\r\\n   ...\n  PUSH FFFFFFFFFFFFFFFFFFFFFFFFFFFFFFFFFFFFFFFFFFFFFFFFFFFF\t\t\t.Cancelled;\\r\\n        \\r\\n   ...\n  MUL \t\t\t.Cancelled;\\r\\n        \\r\\n   ...\n  NOT \t\t\t.Cancelled;\\r\\n        \\r\\n   ...\n  AND \t\t\t.Cancelled;\\r\\n        \\r\\n   ...\n  SWAP1 \t\t\t.Cancelled;\\r\\n        \\r\\n   ...\n  DUP4 \t\t\t.Cancelled;\\r\\n        \\r\\n   ...\n  PUSH FFFFFFFFFFFFFFFFFFFFFFFFFFFFFFFFFFFFFFFFFFFFFFFFFFFF\t\t\t.Cancelled;\\r\\n        \\r\\n   ...\n  AND \t\t\t.Cancelled;\\r\\n        \\r\\n   ...\n  MUL \t\t\t.Cancelled;\\r\\n        \\r\\n   ...\n  OR \t\t\t.Cancelled;\\r\\n        \\r\\n   ...\n  SWAP1 \t\t\t.Cancelled;\\r\\n        \\r\\n   ...\n  SSTORE \t\t\t.Cancelled;\\r\\n        \\r\\n   ...\n  POP \t\t\t.Cancelled;\\r\\n        \\r\\n   ...\n  POP \t\t\t.Cancelled;\\r\\n        \\r\\n   ...\n  POP \t\t\t.Cancelled;\\r\\n        \\r\\n   ...\ntag 151\t\t\tint256 amount = escrow.amount;...\n  JUMPDEST \t\t\tint256 amount = escrow.amount;...\n  DUP1 \t\t\t\\r\\n       \n  DUP8 \t\t\tequir\n  SWAP6 \t\t\tnt}(\"\");\\r\\n        require\n  POP \t\t\tnt}(\"\");\\r\\n        require\n  SWAP6 \t\t\tnt}(\"\");\\r\\n        require\n  POP \t\t\tnt}(\"\");\\r\\n        require\n  POP \t\t\tnt}(\"\");\\r\\n        require\n  POP \t\t\tnt}(\"\");\\r\\n        require\n  POP \t\t\tnt}(\"\");\\r\\n        require\n  POP \t\t\tnt}(\"\");\\r\\n        require\n  PUSH [tag] 145\t\t\tnt}(\"\");\\r\\n        require\n  JUMP \t\t\tnt}(\"\");\\r\\n        require\ntag 146\t\t\ter {\\r\\n        _unpause();\\r\\...\n  JUMPDEST \t\t\ter {\\r\\n        _unpause();\\r\\...\n  DUP6 \t\t\t fai\n  PUSH 40\t\t\t\\r\\n        \\r\\n        emit E...\n  MLOAD \t\t\t\\r\\n        \\r\\n        emit E...\n  DUP1 \t\t\t\\r\\n        \\r\\n        emit E...\n  PUSH 40\t\t\t\\r\\n        \\r\\n        emit E...\n  ADD \t\t\t\\r\\n        \\r\\n        emit E...\n  PUSH 40\t\t\t\\r\\n        \\r\\n        emit E...\n  MSTORE \t\t\t\\r\\n        \\r\\n        emit E...\n  DUP1 \t\t\t\\r\\n        \\r\\n        emit E...\n  DUP8 \t\t\tmit\n  PUSH FFFFFFFFFFFF\t\t\t\\r\\n        \\r\\n        emit E...\n  AND \t\t\t\\r\\n        \\r\\n        emit E...\n  DUP2 \t\t\t\\r\\n        \\r\\n        emit E...\n  MSTORE \t\t\t\\r\\n        \\r\\n        emit E...\n  PUSH 20\t\t\t\\r\\n        \\r\\n        emit E...\n  ADD \t\t\t\\r\\n        \\r\\n        emit E...\n  DUP7 \t\t\tunded\n  PUSH FFFFFFFFFFFFFFFFFFFFFFFFFFFFFFFFFFFFFFFFFFFFFFFFFFFF\t\t\t\\r\\n        \\r\\n        emit E...\n  AND \t\t\t\\r\\n        \\r\\n        emit E...\n  DUP2 \t\t\t\\r\\n        \\r\\n        emit E...\n  MSTORE \t\t\t\\r\\n        \\r\\n        emit E...\n  POP \t\t\t\\r\\n        \\r\\n        emit E...\n  SWAP1 \t\t\t failed\");\\r\\n        \\r\\n    ...\n  DUP1 \t\t\t failed\");\\r\\n        \\r\\n    ...\n  PUSH 1\t\t\t failed\");\\r\\n        \\r\\n    ...\n  DUP2 \t\t\t failed\");\\r\\n        \\r\\n    ...\n  SLOAD \t\t\t failed\");\\r\\n        \\r\\n    ...\n  ADD \t\t\t failed\");\\r\\n        \\r\\n    ...\n  DUP1 \t\t\t failed\");\\r\\n        \\r\\n    ...\n  DUP3 \t\t\t failed\");\\r\\n        \\r\\n    ...\n  SSTORE \t\t\t failed\");\\r\\n        \\r\\n    ...\n  DUP1 \t\t\t failed\");\\r\\n        \\r\\n    ...\n  SWAP2 \t\t\t failed\");\\r\\n        \\r\\n    ...\n  POP \t\t\t failed\");\\r\\n        \\r\\n    ...\n  POP \t\t\t failed\");\\r\\n        \\r\\n    ...\n  PUSH 1\t\t\t failed\");\\r\\n        \\r\\n    ...\n  SWAP1 \t\t\t failed\");\\r\\n        \\r\\n    ...\n  SUB \t\t\t failed\");\\r\\n        \\r\\n    ...\n  SWAP1 \t\t\t failed\");\\r\\n        \\r\\n    ...\n  PUSH 0\t\t\t failed\");\\r\\n        \\r\\n    ...\n  MSTORE \t\t\t failed\");\\r\\n        \\r\\n    ...\n  PUSH 20\t\t\t failed\");\\r\\n        \\r\\n    ...\n  PUSH 0\t\t\t failed\");\\r\\n        \\r\\n    ...\n  KECCAK256 \t\t\t failed\");\\r\\n        \\r\\n    ...\n  ADD \t\t\t failed\");\\r\\n        \\r\\n    ...\n  PUSH 0\t\t\t failed\");\\r\\n        \\r\\n    ...\n  SWAP1 \t\t\t failed\");\\r\\n        \\r\\n    ...\n  SWAP2 \t\t\t failed\");\\r\\n        \\r\\n    ...\n  SWAP1 \t\t\t failed\");\\r\\n        \\r\\n    ...\n  SWAP2 \t\t\t failed\");\\r\\n        \\r\\n    ...\n  SWAP1 \t\t\t failed\");\\r\\n        \\r\\n    ...\n  SWAP2 \t\t\t failed\");\\r\\n        \\r\\n    ...\n  POP \t\t\t failed\");\\r\\n        \\r\\n    ...\n  PUSH 0\t\t\t failed\");\\r\\n        \\r\\n    ...\n  DUP3 \t\t\t failed\");\\r\\n        \\r\\n    ...\n  ADD \t\t\t failed\");\\r\\n        \\r\\n    ...\n  MLOAD \t\t\t failed\");\\r\\n        \\r\\n    ...\n  DUP2 \t\t\t failed\");\\r\\n        \\r\\n    ...\n  PUSH 0\t\t\t failed\");\\r\\n        \\r\\n    ...\n  ADD \t\t\t failed\");\\r\\n        \\r\\n    ...\n  PUSH 0\t\t\t failed\");\\r\\n        \\r\\n    ...\n  PUSH 100\t\t\t failed\");\\r\\n        \\r\\n    ...\n  EXP \t\t\t failed\");\\r\\n        \\r\\n    ...\n  DUP2 \t\t\t failed\");\\r\\n        \\r\\n    ...\n  SLOAD \t\t\t failed\");\\r\\n        \\r\\n    ...\n  DUP2 \t\t\t failed\");\\r\\n        \\r\\n    ...\n  PUSH FFFFFFFFFFFF\t\t\t failed\");\\r\\n        \\r\\n    ...\n  MUL \t\t\t failed\");\\r\\n        \\r\\n    ...\n  NOT \t\t\t failed\");\\r\\n        \\r\\n    ...\n  AND \t\t\t failed\");\\r\\n        \\r\\n    ...\n  SWAP1 \t\t\t failed\");\\r\\n        \\r\\n    ...\n  DUP4 \t\t\t failed\");\\r\\n        \\r\\n    ...\n  PUSH FFFFFFFFFFFF\t\t\t failed\");\\r\\n        \\r\\n    ...\n  AND \t\t\t failed\");\\r\\n        \\r\\n    ...\n  MUL \t\t\t failed\");\\r\\n        \\r\\n    ...\n  OR \t\t\t failed\");\\r\\n        \\r\\n    ...\n  SWAP1 \t\t\t failed\");\\r\\n        \\r\\n    ...\n  SSTORE \t\t\t failed\");\\r\\n        \\r\\n    ...\n  POP \t\t\t failed\");\\r\\n        \\r\\n    ...\n  PUSH 20\t\t\t failed\");\\r\\n        \\r\\n    ...\n  DUP3 \t\t\t failed\");\\r\\n        \\r\\n    ...\n  ADD \t\t\t failed\");\\r\\n        \\r\\n    ...\n  MLOAD \t\t\t failed\");\\r\\n        \\r\\n    ...\n  DUP2 \t\t\t failed\");\\r\\n        \\r\\n    ...\n  PUSH 0\t\t\t failed\");\\r\\n        \\r\\n    ...\n  ADD \t\t\t failed\");\\r\\n        \\r\\n    ...\n  PUSH 6\t\t\t failed\");\\r\\n        \\r\\n    ...\n  PUSH 100\t\t\t failed\");\\r\\n        \\r\\n    ...\n  EXP \t\t\t failed\");\\r\\n        \\r\\n    ...\n  DUP2 \t\t\t failed\");\\r\\n        \\r\\n    ...\n  SLOAD \t\t\t failed\");\\r\\n        \\r\\n    ...\n  DUP2 \t\t\t failed\");\\r\\n        \\r\\n    ...\n  PUSH FFFFFFFFFFFFFFFFFFFFFFFFFFFFFFFFFFFFFFFFFFFFFFFFFFFF\t\t\t failed\");\\r\\n        \\r\\n    ...\n  MUL \t\t\t failed\");\\r\\n        \\r\\n    ...\n  NOT \t\t\t failed\");\\r\\n        \\r\\n    ...\n  AND \t\t\t failed\");\\r\\n        \\r\\n    ...\n  SWAP1 \t\t\t failed\");\\r\\n        \\r\\n    ...\n  DUP4 \t\t\t failed\");\\r\\n        \\r\\n    ...\n  PUSH FFFFFFFFFFFFFFFFFFFFFFFFFFFFFFFFFFFFFFFFFFFFFFFFFFFF\t\t\t failed\");\\r\\n        \\r\\n    ...\n  AND \t\t\t failed\");\\r\\n        \\r\\n    ...\n  MUL \t\t\t failed\");\\r\\n        \\r\\n    ...\n  OR \t\t\t failed\");\\r\\n        \\r\\n    ...\n  SWAP1 \t\t\t failed\");\\r\\n        \\r\\n    ...\n  SSTORE \t\t\t failed\");\\r\\n        \\r\\n    ...\n  POP \t\t\t failed\");\\r\\n        \\r\\n    ...\n  POP \t\t\t failed\");\\r\\n        \\r\\n    ...\n  POP \t\t\t failed\");\\r\\n        \\r\\n    ...\n  PUSH 0\t\t\to\n  DUP5 \t\t\tt);\\r\\n\n  SWAP3 \t\t\tient, amount);\\r\\n \n  POP \t\t\tient, amount);\\r\\n \n  SWAP3 \t\t\tient, amount);\\r\\n \n  POP \t\t\tient, amount);\\r\\n \n  POP \t\t\tient, amount);\\r\\n \ntag 145\t\t\tract (only owner)\\r\\n     */\\r...\n  JUMPDEST \t\t\tract (only owner)\\r\\n     */\\r...\n  SWAP4 \t\t\tract (only owner)\\r\\n     */\\r...\n  POP \t\t\tract (only owner)\\r\\n     */\\r...\n  SWAP4 \t\t\tract (only owner)\\r\\n     */\\r...\n  SWAP2 \t\t\tract (only owner)\\r\\n     */\\r...\n  POP \t\t\tract (only owner)\\r\\n     */\\r...\n  POP \t\t\tract (only owner)\\r\\n     */\\r...\n  JUMP \t\t\tract (only owner)\\r\\n     */\\r...\ntag 143\t\t\t  // Since we don't track tota...\n  JUMPDEST \t\t\t  // Since we don't track tota...\n  PUSH 0\t\t\tasonab\n  PUSH FFFFFFFFFFFF\t\t\tIn production, y\n  DUP1 \t\t\t     // In production, y\n  AND \t\t\t     // In production, y\n  DUP3 \t\t\t     \n  GT \t\t\t     // In production, y\n  ISZERO \t\t\t\\n        // In production, yo...\n  PUSH [tag] 156\t\t\t\\n        // In production, yo...\n  JUMPI \t\t\t\\n        // In production, yo...\n  PUSH 30\t\t\t r\n  DUP3 \t\t\turn 1\n  PUSH 40\t\t\tcounter state variable\\r\\n    ...\n  MLOAD \t\t\tcounter state variable\\r\\n    ...\n  PUSH 6DFCC65000000000000000000000000000000000000000000000000000000000\t\t\tcounter state variable\\r\\n    ...\n  DUP2 \t\t\tcounter state variable\\r\\n    ...\n  MSTORE \t\t\tcounter state variable\\r\\n    ...\n  PUSH 4\t\t\tcounter state variable\\r\\n    ...\n  ADD \t\t\tcounter state variable\\r\\n    ...\n  PUSH [tag] 157\t\t\tcounter state variable\\r\\n    ...\n  SWAP3 \t\t\tcounter state variable\\r\\n    ...\n  SWAP2 \t\t\tcounter state variable\\r\\n    ...\n  SWAP1 \t\t\tcounter state variable\\r\\n    ...\n  PUSH [tag] 158\t\t\tcounter state variable\\r\\n    ...\n  JUMP \t\t\tcounter state variable\\r\\n    ...\ntag 157\t\t\tcounter state variable\\r\\n    ...\n  JUMPDEST \t\t\tcounter state variable\\r\\n    ...\n  PUSH 40\t\t\tcounter state variable\\r\\n    ...\n  MLOAD \t\t\tcounter state variable\\r\\n    ...\n  DUP1 \t\t\tcounter state variable\\r\\n    ...\n  SWAP2 \t\t\tcounter state variable\\r\\n    ...\n  SUB \t\t\tcounter state variable\\r\\n    ...\n  SWAP1 \t\t\tcounter state variable\\r\\n    ...\n  REVERT \t\t\tcounter state variable\\r\\n    ...\ntag 156\t\t\t\\n        // In production, yo...\n  JUMPDEST \t\t\t\\n        // In production, yo...\n  DUP2 \t\t\ton yo\n  SWAP1 \t\t\t adjust based on you\n  POP \t\t\t adjust based on you\n  SWAP2 \t\t\t  // Since we don't track tota...\n  SWAP1 \t\t\t  // Since we don't track tota...\n  POP \t\t\t  // Since we don't track tota...\n  JUMP \t\t\t  // Since we don't track tota...\ntag 160\t\t\tart Contracts\\r\\n * @dev Compl...\n  JUMPDEST \t\t\tart Contracts\\r\\n * @dev Compl...\n  PUSH 0\t\t\tO\n  PUSH 0\t\t\t \n  REVERT \t\t\tontains DAOT\ntag 162\t\t\tenzeppelin/contracts/utils/Ree...\n  JUMPDEST \t\t\tenzeppelin/contracts/utils/Ree...\n  PUSH 0\t\t\tGuard.s\n  PUSH FFFFFFFFFFFFFFFFFFFFFFFFFFFFFFFFFFFFFFFF\t\t\tacts/access/Ownable.sol\";\\r\\ni...\n  DUP3 \t\t\tn/con\n  AND \t\t\tpelin/contracts/access/Ownable...\n  SWAP1 \t\t\tt \"@openzeppelin/contracts/acc...\n  POP \t\t\tt \"@openzeppelin/contracts/acc...\n  SWAP2 \t\t\tenzeppelin/contracts/utils/Ree...\n  SWAP1 \t\t\tenzeppelin/contracts/utils/Ree...\n  POP \t\t\tenzeppelin/contracts/utils/Ree...\n  JUMP \t\t\tenzeppelin/contracts/utils/Ree...\ntag 163\t\t\tcts/utils/Pausable.sol\";\\r\\nim...\n  JUMPDEST \t\t\tcts/utils/Pausable.sol\";\\r\\nim...\n  PUSH 0\t\t\tenzeppe\n  PUSH [tag] 212\t\t\tC20/ERC20.sol\";\\r\\nimport \n  DUP3 \t\t\tmport\n  PUSH [tag] 162\t\t\tC20/ERC20.sol\";\\r\\nimport \n  JUMP \t\t\tC20/ERC20.sol\";\\r\\nimport \ntag 212\t\t\tC20/ERC20.sol\";\\r\\nimport \n  JUMPDEST \t\t\tC20/ERC20.sol\";\\r\\nimport \n  SWAP1 \t\t\tts/token/ERC20/ERC20.sol\";\\r\\n...\n  POP \t\t\tts/token/ERC20/ERC20.sol\";\\r\\n...\n  SWAP2 \t\t\tcts/utils/Pausable.sol\";\\r\\nim...\n  SWAP1 \t\t\tcts/utils/Pausable.sol\";\\r\\nim...\n  POP \t\t\tcts/utils/Pausable.sol\";\\r\\nim...\n  JUMP \t\t\tcts/utils/Pausable.sol\";\\r\\nim...\ntag 164\t\t\tin/contracts/token/ERC20/exten...\n  JUMPDEST \t\t\tin/contracts/token/ERC20/exten...\n  PUSH [tag] 214\t\t\tin/contracts/token/ERC20\n  DUP2 \t\t\t/ERC2\n  PUSH [tag] 163\t\t\tin/contracts/token/ERC20\n  JUMP \t\t\tin/contracts/token/ERC20\ntag 214\t\t\tin/contracts/token/ERC20\n  JUMPDEST \t\t\tin/contracts/token/ERC20\n  DUP2 \t\t\tnzepp\n  EQ \t\t\topenzeppelin/contracts/token/E...\n  PUSH [tag] 215\t\t\t\\nimport \"@openzeppelin/contra...\n  JUMPI \t\t\t\\nimport \"@openzeppelin/contra...\n  PUSH 0\t\t\t2\n  PUSH 0\t\t\tE\n  REVERT \t\t\tnsions/ERC20\ntag 215\t\t\t\\nimport \"@openzeppelin/contra...\n  JUMPDEST \t\t\t\\nimport \"@openzeppelin/contra...\n  POP \t\t\tin/contracts/token/ERC20/exten...\n  JUMP \t\t\tin/contracts/token/ERC20/exten...\ntag 165\t\t\timport \"@openzeppelin/contract...\n  JUMPDEST \t\t\timport \"@openzeppelin/contract...\n  PUSH 0\t\t\t.sol\"\n  DUP2 \t\t\tontrac\n  MLOAD \t\t\telin/contract\n  SWAP1 \t\t\t@openzeppelin/contract\n  POP \t\t\t@openzeppelin/contract\n  PUSH [tag] 217\t\t\tonces.sol\";\\r\\nimport \"@openze...\n  DUP2 \t\t\teppel\n  PUSH [tag] 164\t\t\tonces.sol\";\\r\\nimport \"@openze...\n  JUMP \t\t\tonces.sol\";\\r\\nimport \"@openze...\ntag 217\t\t\tonces.sol\";\\r\\nimport \"@openze...\n  JUMPDEST \t\t\tonces.sol\";\\r\\nimport \"@openze...\n  SWAP3 \t\t\timport \"@openzeppelin/contract...\n  SWAP2 \t\t\timport \"@openzeppelin/contract...\n  POP \t\t\timport \"@openzeppelin/contract...\n  POP \t\t\timport \"@openzeppelin/contract...\n  JUMP \t\t\timport \"@openzeppelin/contract...\ntag 3\t\t\ttoken/ERC20/IERC20.sol\";\\r\\n\\r...\n  JUMPDEST \t\t\ttoken/ERC20/IERC20.sol\";\\r\\n\\r...\n  PUSH 0\t\t\ternanc\n  PUSH 20\t\t\te \n  DUP3 \t\t\tg\\r\\n * @no\n  DUP5 \t\t\tDAO vot\n  SUB \t\t\tGig DAO voting\\r\\n * @not\n  SLT \t\t\tcureGig DAO voting\\r\\n * @noti...\n  ISZERO \t\t\t SecureGig DAO voting\\r\\n * @n...\n  PUSH [tag] 219\t\t\t SecureGig DAO voting\\r\\n * @n...\n  JUMPI \t\t\t SecureGig DAO voting\\r\\n * @n...\n  PUSH [tag] 220\t\t\t token is used for voting on e...\n  PUSH [tag] 160\t\t\t token is used for voting on e...\n  JUMP \t\t\t token is used for voting on e...\ntag 220\t\t\t token is used for voting on e...\n  JUMPDEST \t\t\t token is used for voting on e...\ntag 219\t\t\t SecureGig DAO voting\\r\\n * @n...\n  JUMPDEST \t\t\t SecureGig DAO voting\\r\\n * @n...\n  PUSH 0\t\t\t \n  PUSH [tag] 221\t\t\t= 1000000 * 10**18; // 1M toke...\n  DUP5 \t\t\tstant M\n  DUP3 \t\t\tublic \n  DUP6 \t\t\t  uint256\n  ADD \t\t\t\\r\\n    uint256 public c\n  PUSH [tag] 165\t\t\t= 1000000 * 10**18; // 1M toke...\n  JUMP \t\t\t= 1000000 * 10**18; // 1M toke...\ntag 221\t\t\t= 1000000 * 10**18; // 1M toke...\n  JUMPDEST \t\t\t= 1000000 * 10**18; // 1M toke...\n  SWAP2 \t\t\tAL_SUPPLY = 1000000 * 10**18; ...\n  POP \t\t\tAL_SUPPLY = 1000000 * 10**18; ...\n  POP \t\t\tOwnable {\\r\\n    uint256 publi...\n  SWAP3 \t\t\ttoken/ERC20/IERC20.sol\";\\r\\n\\r...\n  SWAP2 \t\t\ttoken/ERC20/IERC20.sol\";\\r\\n\\r...\n  POP \t\t\ttoken/ERC20/IERC20.sol\";\\r\\n\\r...\n  POP \t\t\ttoken/ERC20/IERC20.sol\";\\r\\n\\r...\n  JUMP \t\t\ttoken/ERC20/IERC20.sol\";\\r\\n\\r...\ntag 166\t\t\t0**18; // 10M max supply\\r\\n  ...\n  JUMPDEST \t\t\t0**18; // 10M max supply\\r\\n  ...\n  PUSH 0\t\t\t=> boo\n  DUP2 \t\t\t  eve\n  MLOAD \t\t\t  \\r\\n    even\n  SWAP1 \t\t\tnters;\\r\\n    \\r\\n    even\n  POP \t\t\tnters;\\r\\n    \\r\\n    even\n  SWAP2 \t\t\t0**18; // 10M max supply\\r\\n  ...\n  SWAP1 \t\t\t0**18; // 10M max supply\\r\\n  ...\n  POP \t\t\t0**18; // 10M max supply\\r\\n  ...\n  JUMP \t\t\t0**18; // 10M max supply\\r\\n  ...\ntag 167\t\t\t(address indexed minter);\\r\\n ...\n  JUMPDEST \t\t\t(address indexed minter);\\r\\n ...\n  PUSH 4E487B7100000000000000000000000000000000000000000000000000000000\t\t\ted(address indexed minter);\\r\\...\n  PUSH 0\t\t\tm\n  MSTORE \t\t\tinterRemoved(address indexed m...\n  PUSH 41\t\t\tr] |\n  PUSH 4\t\t\tn\n  MSTORE \t\t\t[msg.sender] ||\n  PUSH 24\t\t\tr(),\n  PUSH 0\t\t\tw\n  REVERT \t\t\ter == owner(), \ntag 168\t\t\tzed to mint\");\\r\\n        _;\\r...\n  JUMPDEST \t\t\tzed to mint\");\\r\\n        _;\\r...\n  PUSH 4E487B7100000000000000000000000000000000000000000000000000000000\t\t\tstructor(\\r\\n        address i...\n  PUSH 0\t\t\tc\n  MSTORE \t\t\t \\r\\n    constructor(\\r\\n     ...\n  PUSH 22\t\t\talOw\n  PUSH 4\t\t\ti\n  MSTORE \t\t\table(initialOwn\n  PUSH 24\t\t\tig D\n  PUSH 0\t\t\tr\n  REVERT \t\t\t2(\"SecureGig DA\ntag 169\t\t\t\") {\\r\\n        _mint(initialO...\n  JUMPDEST \t\t\t\") {\\r\\n        _mint(initialO...\n  PUSH 0\t\t\tPPLY);\n  PUSH 2\t\t\t \n  DUP3 \t\t\tOwne\n  DIV \t\t\ttialOwner] =\n  SWAP1 \t\t\tinters[initialOwner] =\n  POP \t\t\tinters[initialOwner] =\n  PUSH 1\t\t\tt\n  DUP3 \t\t\tev M\n  AND \t\t\t* @dev Mint \n  DUP1 \t\t\t authorized minter\n  PUSH [tag] 226\t\t\ts (only by authorized minters)...\n  JUMPI \t\t\ts (only by authorized minters)...\n  PUSH 7F\t\t\token\n  DUP3 \t\t\to mint\n  AND \t\t\tss to mint tokens\n  SWAP2 \t\t\tm to Address to mint tokens\n  POP \t\t\tm to Address to mint tokens\ntag 226\t\t\ts (only by authorized minters)...\n  JUMPDEST \t\t\ts (only by authorized minters)...\n  PUSH 20\t\t\t*/\n  DUP3 \t\t\tt\\r\\n   \n  LT \t\t\tmint\\r\\n     */\\r\n  DUP2 \t\t\tAmount of tokens t\n  SUB \t\t\tnt Amount of tokens to mint\\r\\...\n  PUSH [tag] 227\t\t\tmount Amount of tokens to mint...\n  JUMPI \t\t\tmount Amount of tokens to mint...\n  PUSH [tag] 228\t\t\tnt(address to, uin\n  PUSH [tag] 168\t\t\tnt(address to, uin\n  JUMP \t\t\tnt(address to, uin\ntag 228\t\t\tnt(address to, uin\n  JUMPDEST \t\t\tnt(address to, uin\ntag 227\t\t\tmount Amount of tokens to mint...\n  JUMPDEST \t\t\tmount Amount of tokens to mint...\n  POP \t\t\t\\n        minters[initialOwner...\n  SWAP2 \t\t\t\") {\\r\\n        _mint(initialO...\n  SWAP1 \t\t\t\") {\\r\\n        _mint(initialO...\n  POP \t\t\t\") {\\r\\n        _mint(initialO...\n  JUMP \t\t\t\") {\\r\\n        _mint(initialO...\ntag 170\t\t\tonlyMinter {\\r\\n        requir...\n  JUMPDEST \t\t\tonlyMinter {\\r\\n        requir...\n  PUSH 0\t\t\tunt \n  DUP2 \t\t\teed\n  SWAP1 \t\t\tLY, \"Exceed\n  POP \t\t\tLY, \"Exceed\n  DUP2 \t\t\t   \n  PUSH 0\t\t\t \n  MSTORE \t\t\tly\");\\r\\n       \n  PUSH 20\t\t\t  \\r\\n\n  PUSH 0\t\t\t\\n\n  KECCAK256 \t\t\t);\\r\\n    }\\r\\n    \\r\\n \n  SWAP1 \t\t\t, amount);\\r\\n    }\\r\\n    \\r\\...\n  POP \t\t\t, amount);\\r\\n    }\\r\\n    \\r\\...\n  SWAP2 \t\t\tonlyMinter {\\r\\n        requir...\n  SWAP1 \t\t\tonlyMinter {\\r\\n        requir...\n  POP \t\t\tonlyMinter {\\r\\n        requir...\n  JUMP \t\t\tonlyMinter {\\r\\n        requir...\ntag 171\t\t\t* @dev Add a new minter\\r\\n   ...\n  JUMPDEST \t\t\t* @dev Add a new minter\\r\\n   ...\n  PUSH 0\t\t\tm mint\n  PUSH 20\t\t\t f\n  PUSH 1F\t\t\t\\r\\n\n  DUP4 \t\t\t     \n  ADD \t\t\ter\\r\\n     */\\r\\n \n  DIV \t\t\tminter\\r\\n     */\\r\\n    fu\n  SWAP1 \t\t\tto add as minter\\r\\n     */\\r\\...\n  POP \t\t\tto add as minter\\r\\n     */\\r\\...\n  SWAP2 \t\t\t* @dev Add a new minter\\r\\n   ...\n  SWAP1 \t\t\t* @dev Add a new minter\\r\\n   ...\n  POP \t\t\t* @dev Add a new minter\\r\\n   ...\n  JUMP \t\t\t* @dev Add a new minter\\r\\n   ...\ntag 172\t\t\tnter(address minter) external ...\n  JUMPDEST \t\t\tnter(address minter) external ...\n  PUSH 0\t\t\t       m\n  DUP3 \t\t\trAdde\n  DUP3 \t\t\t Min\n  SHL \t\t\temit MinterAdded\n  SWAP1 \t\t\ter] = true;\\r\\n        emit Mi...\n  POP \t\t\ter] = true;\\r\\n        emit Mi...\n  SWAP3 \t\t\tnter(address minter) external ...\n  SWAP2 \t\t\tnter(address minter) external ...\n  POP \t\t\tnter(address minter) external ...\n  POP \t\t\tnter(address minter) external ...\n  JUMP \t\t\tnter(address minter) external ...\ntag 173\t\t\t  }\\r\\n    \\r\\n    /**\\r\\n    ...\n  JUMPDEST \t\t\t  }\\r\\n    \\r\\n    /**\\r\\n    ...\n  PUSH 0\t\t\t Addre\n  PUSH 8\t\t\tn\n  DUP4 \t\t\t\\n    funct\n  MUL \t\t\t */\\r\\n    function \n  PUSH [tag] 233\t\t\tminter) external onlyOwner {\\r...\n  PUSH FFFFFFFFFFFFFFFFFFFFFFFFFFFFFFFFFFFFFFFFFFFFFFFFFFFFFFFFFFFFFFFF\t\t\t        minters[minter] = fals...\n  DUP3 \t\t\tlyOwner {\n  PUSH [tag] 172\t\t\tminter) external onlyOwner {\\r...\n  JUMP \t\t\tminter) external onlyOwner {\\r...\ntag 233\t\t\tminter) external onlyOwner {\\r...\n  JUMPDEST \t\t\tminter) external onlyOwner {\\r...\n  PUSH [tag] 234\t\t\t/**\\r\\n     * @dev Distribute ...\n  DUP7 \t\t\tkens to \n  DUP4 \t\t\tstribute \n  PUSH [tag] 172\t\t\t/**\\r\\n     * @dev Distribute ...\n  JUMP \t\t\t/**\\r\\n     * @dev Distribute ...\ntag 234\t\t\t/**\\r\\n     * @dev Distribute ...\n  JUMPDEST \t\t\t/**\\r\\n     * @dev Distribute ...\n  SWAP6 \t\t\t\\r\\n    \\r\\n    /**\\r\\n     * ...\n  POP \t\t\t\\r\\n    \\r\\n    /**\\r\\n     * ...\n  DUP1 \t\t\trdro\n  NOT \t\t\tg/airdrop\n  DUP5 \t\t\t test\n  AND \t\t\t(for testing/airdrops\n  SWAP4 \t\t\tddresses (for testing/airdrops\n  POP \t\t\tddresses (for testing/airdrops\n  DUP1 \t\t\tent \n  DUP7 \t\t\t of reci\n  AND \t\t\trray of recipient a\n  DUP5 \t\t\tients\n  OR \t\t\tcipients Array of recipient ad\n  SWAP3 \t\t\t @param recipients Array of re...\n  POP \t\t\t @param recipients Array of re...\n  POP \t\t\ts to remove as minter\\r\\n     ...\n  POP \t\t\ts to remove as minter\\r\\n     ...\n  SWAP4 \t\t\t  }\\r\\n    \\r\\n    /**\\r\\n    ...\n  SWAP3 \t\t\t  }\\r\\n    \\r\\n    /**\\r\\n    ...\n  POP \t\t\t  }\\r\\n    \\r\\n    /**\\r\\n    ...\n  POP \t\t\t  }\\r\\n    \\r\\n    /**\\r\\n    ...\n  POP \t\t\t  }\\r\\n    \\r\\n    /**\\r\\n    ...\n  JUMP \t\t\t  }\\r\\n    \\r\\n    /**\\r\\n    ...\ntag 174\t\t\t  * @param amounts Array of am...\n  JUMPDEST \t\t\t  * @param amounts Array of am...\n  PUSH 0\t\t\to distr\n  DUP2 \t\t\tnctio\n  SWAP1 \t\t\t */\\r\\n    functio\n  POP \t\t\t */\\r\\n    functio\n  SWAP2 \t\t\t  * @param amounts Array of am...\n  SWAP1 \t\t\t  * @param amounts Array of am...\n  POP \t\t\t  * @param amounts Array of am...\n  JUMP \t\t\t  * @param amounts Array of am...\ntag 175\t\t\taddress[] calldata recipients,...\n  JUMPDEST \t\t\taddress[] calldata recipients,...\n  PUSH 0\t\t\ts, \n  DUP2 \t\t\t amou\n  SWAP1 \t\t\talldata amou\n  POP \t\t\talldata amou\n  SWAP2 \t\t\taddress[] calldata recipients,...\n  SWAP1 \t\t\taddress[] calldata recipients,...\n  POP \t\t\taddress[] calldata recipients,...\n  JUMP \t\t\taddress[] calldata recipients,...\ntag 176\t\t\tl onlyMinter {\\r\\n        requ...\n  JUMPDEST \t\t\tl onlyMinter {\\r\\n        requ...\n  PUSH 0\t\t\t== amount\n  PUSH [tag] 238\t\t\t mismatch\");\\r\\n        \\r\\n  ...\n  PUSH [tag] 239\t\t\t    \\r\\n        uint256 totalA...\n  PUSH [tag] 240\t\t\t     uint256 totalAmount\n  DUP5 \t\t\tAmoun\n  PUSH [tag] 174\t\t\t     uint256 totalAmount\n  JUMP \t\t\t     uint256 totalAmount\ntag 240\t\t\t     uint256 totalAmount\n  JUMPDEST \t\t\t     uint256 totalAmount\n  PUSH [tag] 175\t\t\t    \\r\\n        uint256 totalA...\n  JUMP \t\t\t    \\r\\n        uint256 totalA...\ntag 239\t\t\t    \\r\\n        uint256 totalA...\n  JUMPDEST \t\t\t    \\r\\n        uint256 totalA...\n  PUSH [tag] 174\t\t\t mismatch\");\\r\\n        \\r\\n  ...\n  JUMP \t\t\t mismatch\");\\r\\n        \\r\\n  ...\ntag 238\t\t\t mismatch\");\\r\\n        \\r\\n  ...\n  JUMPDEST \t\t\t mismatch\");\\r\\n        \\r\\n  ...\n  SWAP1 \t\t\tArrays length mismatch\");\\r\\n ...\n  POP \t\t\tArrays length mismatch\");\\r\\n ...\n  SWAP2 \t\t\tl onlyMinter {\\r\\n        requ...\n  SWAP1 \t\t\tl onlyMinter {\\r\\n        requ...\n  POP \t\t\tl onlyMinter {\\r\\n        requ...\n  JUMP \t\t\tl onlyMinter {\\r\\n        requ...\ntag 177\t\t\t for (uint256 i = 0; i < amoun...\n  JUMPDEST \t\t\t for (uint256 i = 0; i < amoun...\n  PUSH 0\t\t\t+) \n  DUP2 \t\t\talAmo\n  SWAP1 \t\t\t    totalAmo\n  POP \t\t\t    totalAmo\n  SWAP2 \t\t\t for (uint256 i = 0; i < amoun...\n  SWAP1 \t\t\t for (uint256 i = 0; i < amoun...\n  POP \t\t\t for (uint256 i = 0; i < amoun...\n  JUMP \t\t\t for (uint256 i = 0; i < amoun...\ntag 178\t\t\tts[i];\\r\\n        }\\r\\n       ...\n  JUMPDEST \t\t\tts[i];\\r\\n        }\\r\\n       ...\n  PUSH [tag] 243\t\t\t\\r\\n        \\r\\n        for (u...\n  DUP4 \t\t\t6 i = 0\n  PUSH [tag] 176\t\t\t\\r\\n        \\r\\n        for (u...\n  JUMP \t\t\t\\r\\n        \\r\\n        for (u...\ntag 243\t\t\t\\r\\n        \\r\\n        for (u...\n  JUMPDEST \t\t\t\\r\\n        \\r\\n        for (u...\n  PUSH [tag] 244\t\t\t; i++) {\\r\\n            _mint(...\n  PUSH [tag] 245\t\t\ts[i]);\\r\\n        }\\r\\n    }\\r...\n  DUP3 \t\t\t\\r\\n    \\r\\n    // O\n  PUSH [tag] 177\t\t\ts[i]);\\r\\n        }\\r\\n    }\\r...\n  JUMP \t\t\ts[i]);\\r\\n        }\\r\\n    }\\r...\ntag 245\t\t\ts[i]);\\r\\n        }\\r\\n    }\\r...\n  JUMPDEST \t\t\ts[i]);\\r\\n        }\\r\\n    }\\r...\n  DUP5 \t\t\t, amou\n  DUP5 \t\t\tents\n  SLOAD \t\t\trecipients[\n  PUSH [tag] 173\t\t\t; i++) {\\r\\n            _mint(...\n  JUMP \t\t\t; i++) {\\r\\n            _mint(...\ntag 244\t\t\t; i++) {\\r\\n            _mint(...\n  JUMPDEST \t\t\t; i++) {\\r\\n            _mint(...\n  DUP3 \t\t\tleng\n  SSTORE \t\t\tpients.length; i++) {\\r\\n     ...\n  POP \t\t\tMAX_SUPPLY, \"Exceeds max suppl...\n  POP \t\t\tts[i];\\r\\n        }\\r\\n       ...\n  POP \t\t\tts[i];\\r\\n        }\\r\\n       ...\n  POP \t\t\tts[i];\\r\\n        }\\r\\n       ...\n  JUMP \t\t\tts[i];\\r\\n        }\\r\\n       ...\ntag 179\t\t\td by Solidity for multiple inh...\n  JUMPDEST \t\t\td by Solidity for multiple inh...\n  PUSH 0\t\t\tunc\n  PUSH 0\t\t\ts\n  SWAP1 \t\t\te(addres\n  POP \t\t\te(addres\n  SWAP1 \t\t\td by Solidity for multiple inh...\n  JUMP \t\t\td by Solidity for multiple inh...\ntag 180\t\t\tess to, uint256 value) interna...\n  JUMPDEST \t\t\tess to, uint256 value) interna...\n  PUSH [tag] 248\t\t\t_update(from, to, value);\\r\\n ...\n  PUSH [tag] 179\t\t\t_update(from, to, value);\\r\\n ...\n  JUMP \t\t\t_update(from, to, value);\\r\\n ...\ntag 248\t\t\t_update(from, to, value);\\r\\n ...\n  JUMPDEST \t\t\t_update(from, to, value);\\r\\n ...\n  PUSH [tag] 249\t\t\t   function nonces(address own...\n  DUP2 \t\t\tces) r\n  DUP5 \t\t\tride(N\n  DUP5 \t\t\tw ov\n  PUSH [tag] 178\t\t\t   function nonces(address own...\n  JUMP \t\t\t   function nonces(address own...\ntag 249\t\t\t   function nonces(address own...\n  JUMPDEST \t\t\t   function nonces(address own...\n  POP \t\t\tVotes) {\\r\\n        super._upd...\n  POP \t\t\tess to, uint256 value) interna...\n  POP \t\t\tess to, uint256 value) interna...\n  JUMP \t\t\tess to, uint256 value) interna...\ntag 181\t\t\t56) {\\r\\n        return super....\n  JUMPDEST \t\t\t56) {\\r\\n        return super....\ntag 251\t\t\t\\n * @title GigEscrow\\r\\n * @d...\n  JUMPDEST \t\t\t\\n * @title GigEscrow\\r\\n * @d...\n  DUP2 \t\t\trow\n  DUP2 \t\t\t GigE\n  LT \t\t\ttle GigEscrow\\r\n  ISZERO \t\t\t\\n * @title GigEscrow\\r\\n * @d...\n  PUSH [tag] 253\t\t\t\\n * @title GigEscrow\\r\\n * @d...\n  JUMPI \t\t\t\\n * @title GigEscrow\\r\\n * @d...\n  PUSH [tag] 254\t\t\tpayments with gig-based mappin...\n  PUSH 0\t\t\tn\n  DUP3 \t\t\tg\\r\\n *\n  PUSH [tag] 180\t\t\tpayments with gig-based mappin...\n  JUMP \t\t\tpayments with gig-based mappin...\ntag 254\t\t\tpayments with gig-based mappin...\n  JUMPDEST \t\t\tpayments with gig-based mappin...\n  PUSH 1\t\t\tc\n  DUP2 \t\t\tescro\n  ADD \t\t\ture escrow co\n  SWAP1 \t\t\t @dev Secure escrow co\n  POP \t\t\t @dev Secure escrow co\n  PUSH [tag] 251\t\t\t\\n * @title GigEscrow\\r\\n * @d...\n  JUMP \t\t\t\\n * @title GigEscrow\\r\\n * @d...\ntag 253\t\t\t\\n * @title GigEscrow\\r\\n * @d...\n  JUMPDEST \t\t\t\\n * @title GigEscrow\\r\\n * @d...\n  POP \t\t\t56) {\\r\\n        return super....\n  POP \t\t\t56) {\\r\\n        return super....\n  JUMP \t\t\t56) {\\r\\n        return super....\ntag 182\t\t\teation, work approval, and ref...\n  JUMPDEST \t\t\teation, work approval, and ref...\n  PUSH 1F\t\t\tab\n  DUP3 \t\t\t, O\n  GT \t\t\tard, Ownabl\n  ISZERO \t\t\tyGuard, Ownable, Pausable {\\r\\...\n  PUSH [tag] 256\t\t\tyGuard, Ownable, Pausable {\\r\\...\n  JUMPI \t\t\tyGuard, Ownable, Pausable {\\r\\...\n  PUSH [tag] 257\t\t\tscrowStatus {\\r\\n        Pendi...\n  DUP2 \t\t\t    /\n  PUSH [tag] 170\t\t\tscrowStatus {\\r\\n        Pendi...\n  JUMP \t\t\tscrowStatus {\\r\\n        Pendi...\ntag 257\t\t\tscrowStatus {\\r\\n        Pendi...\n  JUMPDEST \t\t\tscrowStatus {\\r\\n        Pendi...\n  PUSH [tag] 258\t\t\t      // Freelancer working, \n  DUP5 \t\t\tr working,\n  PUSH [tag] 171\t\t\t      // Freelancer working, \n  JUMP \t\t\t      // Freelancer working, \ntag 258\t\t\t      // Freelancer working, \n  JUMPDEST \t\t\t      // Freelancer working, \n  DUP2 \t\t\t   Activ\n  ADD \t\t\t       Active,      // Freelan...\n  PUSH 20\t\t\tte\n  DUP6 \t\t\t    // Dis\n  LT \t\t\ted     // Dispute \n  ISZERO \t\t\tputed     // Dispute raised, r...\n  PUSH [tag] 259\t\t\tputed     // Dispute raised, r...\n  JUMPI \t\t\tputed     // Dispute raised, r...\n  DUP2 \t\t\tAO votin\n  SWAP1 \t\t\tsed, requires DAO votin\n  POP \t\t\tsed, requires DAO votin\ntag 259\t\t\tputed     // Dispute raised, r...\n  JUMPDEST \t\t\tputed     // Dispute raised, r...\n  PUSH [tag] 260\t\t\t\\n    struct EscrowData {\\r\\n ...\n  PUSH [tag] 261\t\t\t  address client;\\r\\n   \n  DUP6 \t\t\t\\n  \n  PUSH [tag] 171\t\t\t  address client;\\r\\n   \n  JUMP \t\t\t  address client;\\r\\n   \ntag 261\t\t\t  address client;\\r\\n   \n  JUMPDEST \t\t\t  address client;\\r\\n   \n  DUP4 \t\t\td;\\r\\n    \n  ADD \t\t\tgigId;\\r\\n        address clie...\n  DUP3 \t\t\t     uint25\n  PUSH [tag] 181\t\t\t\\n    struct EscrowData {\\r\\n ...\n  JUMP \t\t\t\\n    struct EscrowData {\\r\\n ...\ntag 260\t\t\t\\n    struct EscrowData {\\r\\n ...\n  JUMPDEST \t\t\t\\n    struct EscrowData {\\r\\n ...\n  POP \t\t\t, Pausable {\\r\\n    \\r\\n    en...\n  POP \t\t\t, Pausable {\\r\\n    \\r\\n    en...\ntag 256\t\t\tyGuard, Ownable, Pausable {\\r\\...\n  JUMPDEST \t\t\tyGuard, Ownable, Pausable {\\r\\...\n  POP \t\t\teation, work approval, and ref...\n  POP \t\t\teation, work approval, and ref...\n  POP \t\t\teation, work approval, and ref...\n  JUMP \t\t\teation, work approval, and ref...\ntag 183\t\t\t\\n        uint256 amount;\\r\\n ...\n  JUMPDEST \t\t\t\\n        uint256 amount;\\r\\n ...\n  PUSH 0\t\t\t\\r\\n      \n  DUP3 \t\t\ttle;\\r\n  DUP3 \t\t\t gig\n  SHR \t\t\tring gigTitle;\\r\\n\n  SWAP1 \t\t\treatedAt;\\r\\n        string gi...\n  POP \t\t\treatedAt;\\r\\n        string gi...\n  SWAP3 \t\t\t\\n        uint256 amount;\\r\\n ...\n  SWAP2 \t\t\t\\n        uint256 amount;\\r\\n ...\n  POP \t\t\t\\n        uint256 amount;\\r\\n ...\n  POP \t\t\t\\n        uint256 amount;\\r\\n ...\n  JUMP \t\t\t\\n        uint256 amount;\\r\\n ...\ntag 184\t\t\texists;\\r\\n    }\\r\\n    \\r\\n  ...\n  JUMPDEST \t\t\texists;\\r\\n    }\\r\\n    \\r\\n  ...\n  PUSH 0\t\t\t\\r\\n    \n  PUSH [tag] 264\t\t\tta) public escrows;\\r\\n    map...\n  PUSH 0\t\t\t2\n  NOT \t\t\tuint25\n  DUP5 \t\t\tress \n  PUSH 8\t\t\ta\n  MUL \t\t\ting(address =\n  PUSH [tag] 183\t\t\tta) public escrows;\\r\\n    map...\n  JUMP \t\t\tta) public escrows;\\r\\n    map...\ntag 264\t\t\tta) public escrows;\\r\\n    map...\n  JUMPDEST \t\t\tta) public escrows;\\r\\n    map...\n  NOT \t\t\towData) public escrows;\\r\\n   ...\n  DUP1 \t\t\t map\n  DUP4 \t\t\t;\\r\\n \n  AND \t\t\trows;\\r\\n    mapp\n  SWAP2 \t\t\t clientEscrows;\\r\\n    mapp\n  POP \t\t\t clientEscrows;\\r\\n    mapp\n  POP \t\t\tapping(uint256 => EscrowData) ...\n  SWAP3 \t\t\texists;\\r\\n    }\\r\\n    \\r\\n  ...\n  SWAP2 \t\t\texists;\\r\\n    }\\r\\n    \\r\\n  ...\n  POP \t\t\texists;\\r\\n    }\\r\\n    \\r\\n  ...\n  POP \t\t\texists;\\r\\n    }\\r\\n    \\r\\n  ...\n  JUMP \t\t\texists;\\r\\n    }\\r\\n    \\r\\n  ...\ntag 185\t\t\t => uint256[]) public freelanc...\n  JUMPDEST \t\t\t => uint256[]) public freelanc...\n  PUSH 0\t\t\tatio\n  PUSH [tag] 266\t\t\t EscrowCreated(\\r\\n        uin...\n  DUP4 \t\t\tuin\n  DUP4 \t\t\t    \n  PUSH [tag] 184\t\t\t EscrowCreated(\\r\\n        uin...\n  JUMP \t\t\t EscrowCreated(\\r\\n        uin...\ntag 266\t\t\t EscrowCreated(\\r\\n        uin...\n  JUMPDEST \t\t\t EscrowCreated(\\r\\n        uin...\n  SWAP2 \t\t\t   event EscrowCreated(\\r\\n   ...\n  POP \t\t\t   event EscrowCreated(\\r\\n   ...\n  DUP3 \t\t\tss \n  PUSH 2\t\t\td\n  MUL \t\t\t  address i\n  DUP3 \t\t\t    \n  OR \t\t\t,\\r\\n        address in\n  SWAP1 \t\t\ted gigId,\\r\\n        address i...\n  POP \t\t\ted gigId,\\r\\n        address i...\n  SWAP3 \t\t\t => uint256[]) public freelanc...\n  SWAP2 \t\t\t => uint256[]) public freelanc...\n  POP \t\t\t => uint256[]) public freelanc...\n  POP \t\t\t => uint256[]) public freelanc...\n  JUMP \t\t\t => uint256[]) public freelanc...\ntag 10\t\t\tt,\\r\\n        address indexed ...\n  JUMPDEST \t\t\tt,\\r\\n        address indexed ...\n  PUSH [tag] 268\t\t\tcrowFunded(\\r\\n        uint256...\n  DUP3 \t\t\txed\n  PUSH [tag] 166\t\t\tcrowFunded(\\r\\n        uint256...\n  JUMP \t\t\tcrowFunded(\\r\\n        uint256...\ntag 268\t\t\tcrowFunded(\\r\\n        uint256...\n  JUMPDEST \t\t\tcrowFunded(\\r\\n        uint256...\n  PUSH FFFFFFFFFFFFFFFF\t\t\t    );\\r\\n    \\r\\n    \n  DUP2 \t\t\tamount\n  GT \t\t\t56 amount\\r\\n    );\\r\\n    \\r\\...\n  ISZERO \t\t\tnt256 amount\\r\\n    );\\r\\n    ...\n  PUSH [tag] 269\t\t\tnt256 amount\\r\\n    );\\r\\n    ...\n  JUMPI \t\t\tnt256 amount\\r\\n    );\\r\\n    ...\n  PUSH [tag] 270\t\t\tt EscrowReleased(\\r\n  PUSH [tag] 167\t\t\tt EscrowReleased(\\r\n  JUMP \t\t\tt EscrowReleased(\\r\ntag 270\t\t\tt EscrowReleased(\\r\n  JUMPDEST \t\t\tt EscrowReleased(\\r\ntag 269\t\t\tnt256 amount\\r\\n    );\\r\\n    ...\n  JUMPDEST \t\t\tnt256 amount\\r\\n    );\\r\\n    ...\n  PUSH [tag] 271\t\t\tigId,\\r\\n        address index...\n  DUP3 \t\t\treel\n  SLOAD \t\t\texed freela\n  PUSH [tag] 169\t\t\tigId,\\r\\n        address index...\n  JUMP \t\t\tigId,\\r\\n        address index...\ntag 271\t\t\tigId,\\r\\n        address index...\n  JUMPDEST \t\t\tigId,\\r\\n        address index...\n  PUSH [tag] 272\t\t\t event EscrowRefunded(\\r\\n    ...\n  DUP3 \t\t\t    ad\n  DUP3 \t\t\td,\\r\\n  \n  DUP6 \t\t\td gi\n  PUSH [tag] 182\t\t\t event EscrowRefunded(\\r\\n    ...\n  JUMP \t\t\t event EscrowRefunded(\\r\\n    ...\ntag 272\t\t\t event EscrowRefunded(\\r\\n    ...\n  JUMPDEST \t\t\t event EscrowRefunded(\\r\\n    ...\n  PUSH 0\t\t\t \n  PUSH 20\t\t\t;\\r\\n \n  SWAP1 \t\t\tamount\\r\\n    );\\r\\n \n  POP \t\t\tamount\\r\\n    );\\r\\n \n  PUSH 1F\t\t\tod\n  DUP4 \t\t\ts\\r\\n   \n  GT \t\t\tiers\\r\\n    modi\n  PUSH 1\t\t\tu\n  DUP2 \t\t\tdGig(uint256 gigId) {\\r\\n     ...\n  EQ \t\t\tdGig(uint256 gigId) {\\r\\n     ...\n  PUSH [tag] 274\t\t\tdGig(uint256 gigId) {\\r\\n     ...\n  JUMPI \t\t\tdGig(uint256 gigId) {\\r\\n     ...\n  PUSH 0\t\t\tt\n  DUP5 \t\t\tg\\r\\n   \n  ISZERO \t\t\t gig\\r\\n     * @param freelanc...\n  PUSH [tag] 275\t\t\t gig\\r\\n     * @param freelanc...\n  JUMPI \t\t\t gig\\r\\n     * @param freelanc...\n  DUP3 \t\t\tncer\\r\\n   \n  DUP8 \t\t\tree\n  ADD \t\t\the freelancer\\r\\n    \n  MLOAD \t\t\ts of the freelancer\\r\\n     \n  SWAP1 \t\t\ter Address of the freelancer\\r...\n  POP \t\t\ter Address of the freelancer\\r...\ntag 275\t\t\t gig\\r\\n     * @param freelanc...\n  JUMPDEST \t\t\t gig\\r\\n     * @param freelanc...\n  PUSH [tag] 276\t\t\t */\\r\\n    function createEscr...\n  DUP6 \t\t\t     a\n  DUP3 \t\t\td,\\r\\n \n  PUSH [tag] 185\t\t\t */\\r\\n    function createEscr...\n  JUMP \t\t\t */\\r\\n    function createEscr...\ntag 276\t\t\t */\\r\\n    function createEscr...\n  JUMPDEST \t\t\t */\\r\\n    function createEscr...\n  DUP7 \t\t\t\\r\\n  \n  SSTORE \t\t\tthe gig\\r\\n     */\\r\\n    func...\n  POP \t\t\t * @param gigId Unique identif...\n  PUSH [tag] 273\t\t\t/ Modifiers\\r\\n    modifier va...\n  JUMP \t\t\t/ Modifiers\\r\\n    modifier va...\ntag 274\t\t\tdGig(uint256 gigId) {\\r\\n     ...\n  JUMPDEST \t\t\tdGig(uint256 gigId) {\\r\\n     ...\n  PUSH 1F\t\t\t].ex\n  NOT \t\t\tigId].exi\n  DUP5 \t\t\tscrows\n  AND \t\t\tre(escrows[gigId].exis\n  PUSH [tag] 277\t\t\tst\");\\r\\n        _;\\r\\n    }\\r...\n  DUP7 \t\t\t    \n  PUSH [tag] 170\t\t\tst\");\\r\\n        _;\\r\\n    }\\r...\n  JUMP \t\t\tst\");\\r\\n        _;\\r\\n    }\\r...\ntag 277\t\t\tst\");\\r\\n        _;\\r\\n    }\\r...\n  JUMPDEST \t\t\tst\");\\r\\n        _;\\r\\n    }\\r...\n  PUSH 0\t\t\tt\ntag 278\t\t\t\\n        require(msg.sender =...\n  JUMPDEST \t\t\t\\n        require(msg.sender =...\n  DUP3 \t\t\tre(msg.\n  DUP2 \t\t\tq\n  LT \t\t\t require(msg.s\n  ISZERO \t\t\t\\n        require(msg.sender =...\n  PUSH [tag] 280\t\t\t\\n        require(msg.sender =...\n  JUMPI \t\t\t\\n        require(msg.sender =...\n  DUP5 \t\t\t_;\\r\\n    }\n  DUP10 \t\t\t   \n  ADD \t\t\t\\n        _;\\r\\n    }\\r\n  MLOAD \t\t\tis\");\\r\\n        _;\\r\\n    }\\r...\n  DUP3 \t\t\t call \n  SSTORE \t\t\tent can call this\");\\r\\n      ...\n  PUSH 1\t\t\t6\n  DUP3 \t\t\tr(uint\n  ADD \t\t\tancer(uint256 \n  SWAP2 \t\t\t onlyFreelancer(uint256 \n  POP \t\t\t onlyFreelancer(uint256 \n  PUSH 20\t\t\tws\n  DUP6 \t\t\ter == esc\n  ADD \t\t\tsender == escrows[\n  SWAP5 \t\t\t require(msg.sender == escrows...\n  POP \t\t\t require(msg.sender == escrows...\n  PUSH 20\t\t\ts[gi\n  DUP2 \t\t\tr\n  ADD \t\t\t escrows[gig\n  SWAP1 \t\t\ter == escrows[gig\n  POP \t\t\ter == escrows[gig\n  PUSH [tag] 278\t\t\t\\n        require(msg.sender =...\n  JUMP \t\t\t\\n        require(msg.sender =...\ntag 280\t\t\t\\n        require(msg.sender =...\n  JUMPDEST \t\t\t\\n        require(msg.sender =...\n  DUP7 \t\t\tll thi\n  DUP4 \t\t\ter can \n  LT \t\t\tancer can call this\n  ISZERO \t\t\teelancer can call this\");\\r\\n ...\n  PUSH [tag] 281\t\t\teelancer can call this\");\\r\\n ...\n  JUMPI \t\t\teelancer can call this\");\\r\\n ...\n  DUP5 \t\t\tss initia\n  DUP10 \t\t\tadd\n  ADD \t\t\ttor(address initial\n  MLOAD \t\t\tnstructor(address initialO\n  PUSH [tag] 282\t\t\table(initialOwner) {\\r\\n      ...\n  PUSH 1F\t\t\t = _\n  DUP10 \t\t\tecipie\n  AND \t\t\tfeeRecipient = _f\n  DUP3 \t\t\t{\\r\\n      \n  PUSH [tag] 184\t\t\table(initialOwner) {\\r\\n      ...\n  JUMP \t\t\table(initialOwner) {\\r\\n      ...\ntag 282\t\t\table(initialOwner) {\\r\\n      ...\n  JUMPDEST \t\t\table(initialOwner) {\\r\\n      ...\n  DUP4 \t\t\tent) O\n  SSTORE \t\t\teRecipient) Ownable(initialOwn...\n  POP \t\t\t);\\r\\n        _;\\r\\n    }\\r\\n ...\ntag 281\t\t\teelancer can call this\");\\r\\n ...\n  JUMPDEST \t\t\teelancer can call this\");\\r\\n ...\n  PUSH 1\t\t\tf\n  PUSH 2\t\t\tr\n  DUP9 \t\t\teate e\n  MUL \t\t\tv Create escro\n  ADD \t\t\t @dev Create escrow fo\n  DUP9 \t\t\t    \n  SSTORE \t\t\t  /**\\r\\n     * @dev Create es...\n  POP \t\t\tnt256 gigId) {\\r\\n        requ...\n  POP \t\t\tnt256 gigId) {\\r\\n        requ...\n  POP \t\t\tnt256 gigId) {\\r\\n        requ...\ntag 273\t\t\t/ Modifiers\\r\\n    modifier va...\n  JUMPDEST \t\t\t/ Modifiers\\r\\n    modifier va...\n  POP \t\t\t/ Modifiers\\r\\n    modifier va...\n  POP \t\t\t   );\\r\\n    \\r\\n    event Esc...\n  POP \t\t\t   );\\r\\n    \\r\\n    event Esc...\n  POP \t\t\t   );\\r\\n    \\r\\n    event Esc...\n  POP \t\t\tt,\\r\\n        address indexed ...\n  POP \t\t\tt,\\r\\n        address indexed ...\n  JUMP \t\t\tt,\\r\\n        address indexed ...\ntag 186\t\t\t    string calldata gigTitle\\r...\n  JUMPDEST \t\t\t    string calldata gigTitle\\r...\n  PUSH [tag] 284\t\t\t    require(freelancer !\n  DUP2 \t\t\tncer \n  PUSH [tag] 163\t\t\t    require(freelancer !\n  JUMP \t\t\t    require(freelancer !\ntag 284\t\t\t    require(freelancer !\n  JUMPDEST \t\t\t    require(freelancer !\n  DUP3 \t\t\t\\n  \n  MSTORE \t\t\tused {\\r\\n        require(free...\n  POP \t\t\t    string calldata gigTitle\\r...\n  POP \t\t\t    string calldata gigTitle\\r...\n  JUMP \t\t\t    string calldata gigTitle\\r...\ntag 21\t\t\t \"Invalid freelancer address\")...\n  JUMPDEST \t\t\t \"Invalid freelancer address\")...\n  PUSH 0\t\t\tncer\n  PUSH 20\t\t\tqu\n  DUP3 \t\t\t\\n        \n  ADD \t\t\t\");\\r\\n        requi\n  SWAP1 \t\t\tthe same\");\\r\\n        requi\n  POP \t\t\tthe same\");\\r\\n        requi\n  PUSH [tag] 286\t\t\tue > 0, \"Amount must be greate...\n  PUSH 0\t\t\tg\n  DUP4 \t\t\te(!escrow\n  ADD \t\t\tquire(!escrows[gi\n  DUP5 \t\t\t      \n  PUSH [tag] 186\t\t\tue > 0, \"Amount must be greate...\n  JUMP \t\t\tue > 0, \"Amount must be greate...\ntag 286\t\t\tue > 0, \"Amount must be greate...\n  JUMPDEST \t\t\tue > 0, \"Amount must be greate...\n  SWAP3 \t\t\t \"Invalid freelancer address\")...\n  SWAP2 \t\t\t \"Invalid freelancer address\")...\n  POP \t\t\t \"Invalid freelancer address\")...\n  POP \t\t\t \"Invalid freelancer address\")...\n  JUMP \t\t\t \"Invalid freelancer address\")...\ntag 187\t\t\tEscrow already exists for this...\n  JUMPDEST \t\t\tEscrow already exists for this...\n  PUSH 0\t\t\t\\r\\n     \n  DUP2 \t\t\ttle).\n  SWAP1 \t\t\tbytes(gigTitle).\n  POP \t\t\tbytes(gigTitle).\n  SWAP2 \t\t\tEscrow already exists for this...\n  SWAP1 \t\t\tEscrow already exists for this...\n  POP \t\t\tEscrow already exists for this...\n  JUMP \t\t\tEscrow already exists for this...\ntag 188\t\t\t\"Gig title cannot be empty\");\\...\n  JUMPDEST \t\t\t\"Gig title cannot be empty\");\\...\n  PUSH [tag] 289\t\t\t     gigId: gigId,\\r\\n    \n  DUP2 \t\t\t\\r\\n   \n  PUSH [tag] 187\t\t\t     gigId: gigId,\\r\\n    \n  JUMP \t\t\t     gigId: gigId,\\r\\n    \ntag 289\t\t\t     gigId: gigId,\\r\\n    \n  JUMPDEST \t\t\t     gigId: gigId,\\r\\n    \n  DUP3 \t\t\t   \n  MSTORE \t\t\ta({\\r\\n            gigId: gigI...\n  POP \t\t\t\"Gig title cannot be empty\");\\...\n  POP \t\t\t\"Gig title cannot be empty\");\\...\n  JUMP \t\t\t\"Gig title cannot be empty\");\\...\ntag 189\t\t\tt: msg.sender,\\r\\n            ...\n  JUMPDEST \t\t\tt: msg.sender,\\r\\n            ...\n  PUSH [tag] 291\t\t\t          status: Escrow\n  DUP2 \t\t\tEscro\n  PUSH [tag] 174\t\t\t          status: Escrow\n  JUMP \t\t\t          status: Escrow\ntag 291\t\t\t          status: Escrow\n  JUMPDEST \t\t\t          status: Escrow\n  DUP3 \t\t\t,\\r\\n\n  MSTORE \t\t\tg.value,\\r\\n            status...\n  POP \t\t\tt: msg.sender,\\r\\n            ...\n  POP \t\t\tt: msg.sender,\\r\\n            ...\n  JUMP \t\t\tt: msg.sender,\\r\\n            ...\ntag 38\t\t\tg,\\r\\n            createdAt: b...\n  JUMPDEST \t\t\tg,\\r\\n            createdAt: b...\n  PUSH 0\t\t\tlanc\n  PUSH A0\t\t\t  e\n  DUP3 \t\t\t   \\r\\n    \n  ADD \t\t\t       \\r\\n        em\n  SWAP1 \t\t\tgId);\\r\\n        \\r\\n        e...\n  POP \t\t\tgId);\\r\\n        \\r\\n        e...\n  PUSH [tag] 293\t\t\treated(gigId, msg.sender, free...\n  PUSH 0\t\t\t \n  DUP4 \t\t\t);\\r\\n     \n  ADD \t\t\title);\\r\\n        e\n  DUP9 \t\t\tlue, g\n  PUSH [tag] 188\t\t\treated(gigId, msg.sender, free...\n  JUMP \t\t\treated(gigId, msg.sender, free...\ntag 293\t\t\treated(gigId, msg.sender, free...\n  JUMPDEST \t\t\treated(gigId, msg.sender, free...\n  PUSH [tag] 294\t\t\tunded(gigId, msg.sender, msg.v...\n  PUSH 20\t\t\tde\n  DUP4 \t\t\t*\\r\\n     *\n  ADD \t\t\t  /**\\r\\n     * @dev\n  DUP8 \t\t\t\\n    \\r\n  PUSH [tag] 188\t\t\tunded(gigId, msg.sender, msg.v...\n  JUMP \t\t\tunded(gigId, msg.sender, msg.v...\ntag 294\t\t\tunded(gigId, msg.sender, msg.v...\n  JUMPDEST \t\t\tunded(gigId, msg.sender, msg.v...\n  PUSH [tag] 295\t\t\tcrow funds to freelancer (only...\n  PUSH 40\t\t\tgI\n  DUP4 \t\t\t* @param \n  ADD \t\t\t    * @param gigId\n  DUP7 \t\t\tlient)\n  PUSH [tag] 188\t\t\tcrow funds to freelancer (only...\n  JUMP \t\t\tcrow funds to freelancer (only...\ntag 295\t\t\tcrow funds to freelancer (only...\n  JUMPDEST \t\t\tcrow funds to freelancer (only...\n  PUSH [tag] 296\t\t\tgig\\r\\n     */\\r\\n    function...\n  PUSH 60\t\t\tid\n  DUP4 \t\t\txternal v\n  ADD \t\t\td) external validG\n  DUP6 \t\t\tt256 g\n  PUSH [tag] 189\t\t\tgig\\r\\n     */\\r\\n    function...\n  JUMP \t\t\tgig\\r\\n     */\\r\\n    function...\ntag 296\t\t\tgig\\r\\n     */\\r\\n    function...\n  JUMPDEST \t\t\tgig\\r\\n     */\\r\\n    function...\n  PUSH [tag] 297\t\t\tnlyClient(gigId) nonReentrant ...\n  PUSH 80\t\t\t es\n  DUP4 \t\t\tge escrow\n  ADD \t\t\ttorage escrow = esc\n  DUP5 \t\t\trowDat\n  PUSH [tag] 186\t\t\tnlyClient(gigId) nonReentrant ...\n  JUMP \t\t\tnlyClient(gigId) nonReentrant ...\ntag 297\t\t\tnlyClient(gigId) nonReentrant ...\n  JUMPDEST \t\t\tnlyClient(gigId) nonReentrant ...\n  SWAP7 \t\t\tg,\\r\\n            createdAt: b...\n  SWAP6 \t\t\tg,\\r\\n            createdAt: b...\n  POP \t\t\tg,\\r\\n            createdAt: b...\n  POP \t\t\tg,\\r\\n            createdAt: b...\n  POP \t\t\tg,\\r\\n            createdAt: b...\n  POP \t\t\tg,\\r\\n            createdAt: b...\n  POP \t\t\tg,\\r\\n            createdAt: b...\n  POP \t\t\tg,\\r\\n            createdAt: b...\n  JUMP \t\t\tg,\\r\\n            createdAt: b...\ntag 190\t\t\t        \\r\\n        require(\\r...\n  JUMPDEST \t\t\t        \\r\\n        require(\\r...\n  PUSH 0\t\t\trow.status \n  DUP3 \t\t\t\\r\\n    \n  DUP3 \t\t\ttiv\n  MSTORE \t\t\tatus.Active,\\r\\n     \n  PUSH 20\t\t\t\"\\r\\n \n  DUP3 \t\t\teas\n  ADD \t\t\t released\"\\r\\n  \n  SWAP1 \t\t\tscrow cannot be released\"\\r\\n ...\n  POP \t\t\tscrow cannot be released\"\\r\\n ...\n  SWAP3 \t\t\t        \\r\\n        require(\\r...\n  SWAP2 \t\t\t        \\r\\n        require(\\r...\n  POP \t\t\t        \\r\\n        require(\\r...\n  POP \t\t\t        \\r\\n        require(\\r...\n  JUMP \t\t\t        \\r\\n        require(\\r...\ntag 191\t\t\t      \\r\\n        escrow.statu...\n  JUMPDEST \t\t\t      \\r\\n        escrow.statu...\n  DUP3 \t\t\t = esc\n  DUP2 \t\t\tmou\n  DUP4 \t\t\t256\n  MCOPY \t\t\t  uint256 amount = escr\n  PUSH 0\t\t\t=\n  DUP4 \t\t\tw.amou\n  DUP4 \t\t\tesc\n  ADD \t\t\t    escrow.amoun\n  MSTORE \t\t\t;\\r\\n        escrow.amount = \n  POP \t\t\t      \\r\\n        escrow.statu...\n  POP \t\t\t      \\r\\n        escrow.statu...\n  POP \t\t\t      \\r\\n        escrow.statu...\n  JUMP \t\t\t      \\r\\n        escrow.statu...\ntag 192\t\t\t\\n        // Calculate platfor...\n  JUMPDEST \t\t\t\\n        // Calculate platfor...\n  PUSH 0\t\t\t   uin\n  PUSH 1F\t\t\t  \n  NOT \t\t\t;\\r\\n    \n  PUSH 1F\t\t\t10\n  DUP4 \t\t\tFee) \n  ADD \t\t\tformFee) / 100\n  AND \t\t\tplatformFee) / 10000;\\r\\n     \n  SWAP1 \t\t\t(amount * platformFee) / 10000...\n  POP \t\t\t(amount * platformFee) / 10000...\n  SWAP2 \t\t\t\\n        // Calculate platfor...\n  SWAP1 \t\t\t\\n        // Calculate platfor...\n  POP \t\t\t\\n        // Calculate platfor...\n  JUMP \t\t\t\\n        // Calculate platfor...\ntag 193\t\t\tayout = amount - fee;\\r\\n     ...\n  JUMPDEST \t\t\tayout = amount - fee;\\r\\n     ...\n  PUSH 0\t\t\t0 &\n  PUSH [tag] 302\t\t\t(0)) {\\r\\n            (bool fe...\n  DUP3 \t\t\tess, \n  PUSH [tag] 166\t\t\t(0)) {\\r\\n            (bool fe...\n  JUMP \t\t\t(0)) {\\r\\n            (bool fe...\ntag 302\t\t\t(0)) {\\r\\n            (bool fe...\n  JUMPDEST \t\t\t(0)) {\\r\\n            (bool fe...\n  PUSH [tag] 303\t\t\tcall{value: fee}(\"\");\\r\\n     ...\n  DUP2 \t\t\tsfer f\n  DUP6 \t\t\t tr\n  PUSH [tag] 190\t\t\tcall{value: fee}(\"\");\\r\\n     ...\n  JUMP \t\t\tcall{value: fee}(\"\");\\r\\n     ...\ntag 303\t\t\tcall{value: fee}(\"\");\\r\\n     ...\n  JUMPDEST \t\t\tcall{value: fee}(\"\");\\r\\n     ...\n  SWAP4 \t\t\tipient.call{value: fee}(\"\");\\r...\n  POP \t\t\tipient.call{value: fee}(\"\");\\r...\n  PUSH [tag] 304\t\t\t        }\\r\\n        \\r\\n     ...\n  DUP2 \t\t\tto fre\n  DUP6 \t\t\toun\n  PUSH 20\t\t\tning\n  DUP7 \t\t\tr rem\n  ADD \t\t\tnsfer remaining \n  PUSH [tag] 191\t\t\t        }\\r\\n        \\r\\n     ...\n  JUMP \t\t\t        }\\r\\n        \\r\\n     ...\ntag 304\t\t\t        }\\r\\n        \\r\\n     ...\n  JUMPDEST \t\t\t        }\\r\\n        \\r\\n     ...\n  PUSH [tag] 305\t\t\tcess, ) = escrow.freelancer.c\n  DUP2 \t\t\tancer.\n  PUSH [tag] 192\t\t\tcess, ) = escrow.freelancer.c\n  JUMP \t\t\tcess, ) = escrow.freelancer.c\ntag 305\t\t\tcess, ) = escrow.freelancer.c\n  JUMPDEST \t\t\tcess, ) = escrow.freelancer.c\n  DUP5 \t\t\tl s\n  ADD \t\t\t(bool success, ) = escrow.free...\n  SWAP2 \t\t\t       (bool success, ) = escr...\n  POP \t\t\t       (bool success, ) = escr...\n  POP \t\t\t feeRecipient != address(0)) {...\n  SWAP3 \t\t\tayout = amount - fee;\\r\\n     ...\n  SWAP2 \t\t\tayout = amount - fee;\\r\\n     ...\n  POP \t\t\tayout = amount - fee;\\r\\n     ...\n  POP \t\t\tayout = amount - fee;\\r\\n     ...\n  JUMP \t\t\tayout = amount - fee;\\r\\n     ...\ntag 48\t\t\tyout}(\"\");\\r\\n        require(...\n  JUMPDEST \t\t\tyout}(\"\");\\r\\n        require(...\n  PUSH 0\t\t\tId, \n  PUSH 20\t\t\t\\r\\n\n  DUP3 \t\t\tut);\\r\\n   \n  ADD \t\t\tpayout);\\r\\n    }\\r\\n \n  SWAP1 \t\t\tlancer, payout);\\r\\n    }\\r\\n \n  POP \t\t\tlancer, payout);\\r\\n    }\\r\\n \n  DUP2 \t\t\tent (only\n  DUP2 \t\t\tto c\n  SUB \t\t\trow to client (only \n  PUSH 0\t\t\t \n  DUP4 \t\t\t@dev Refu\n  ADD \t\t\t  * @dev Refund e\n  MSTORE \t\t\t**\\r\\n     * @dev Refund escro...\n  PUSH [tag] 307\t\t\t)\\r\\n     * @param gigId ID of...\n  DUP2 \t\t\tuint\n  DUP5 \t\t\tndEscr\n  PUSH [tag] 193\t\t\t)\\r\\n     * @param gigId ID of...\n  JUMP \t\t\t)\\r\\n     * @param gigId ID of...\ntag 307\t\t\t)\\r\\n     * @param gigId ID of...\n  JUMPDEST \t\t\t)\\r\\n     * @param gigId ID of...\n  SWAP1 \t\t\ty client)\\r\\n     * @param gig...\n  POP \t\t\ty client)\\r\\n     * @param gig...\n  SWAP3 \t\t\tyout}(\"\");\\r\\n        require(...\n  SWAP2 \t\t\tyout}(\"\");\\r\\n        require(...\n  POP \t\t\tyout}(\"\");\\r\\n        require(...\n  POP \t\t\tyout}(\"\");\\r\\n        require(...\n  JUMP \t\t\tyout}(\"\");\\r\\n        require(...\ntag 194\t\t\ternal validGig(gigId) onlyClie...\n  JUMPDEST \t\t\ternal validGig(gigId) onlyClie...\n  PUSH 0\t\t\tt {\\r\\n \n  DUP2 \t\t\tcrow \n  MLOAD \t\t\tage escrow =\n  SWAP1 \t\t\twData storage escrow =\n  POP \t\t\twData storage escrow =\n  SWAP2 \t\t\ternal validGig(gigId) onlyClie...\n  SWAP1 \t\t\ternal validGig(gigId) onlyClie...\n  POP \t\t\ternal validGig(gigId) onlyClie...\n  JUMP \t\t\ternal validGig(gigId) onlyClie...\ntag 195\t\t\td];\\r\\n        \\r\\n        req...\n  JUMPDEST \t\t\td];\\r\\n        \\r\\n        req...\n  PUSH 0\t\t\t.sta\n  DUP2 \t\t\t.Pe\n  SWAP1 \t\t\towStatus.Pe\n  POP \t\t\towStatus.Pe\n  PUSH 20\t\t\tscro\n  DUP3 \t\t\t ==\n  ADD \t\t\tatus == Escrow\n  SWAP1 \t\t\tscrow.status == Escrow\n  POP \t\t\tscrow.status == Escrow\n  SWAP2 \t\t\td];\\r\\n        \\r\\n        req...\n  SWAP1 \t\t\td];\\r\\n        \\r\\n        req...\n  POP \t\t\td];\\r\\n        \\r\\n        req...\n  JUMP \t\t\td];\\r\\n        \\r\\n        req...\ntag 196\t\t\t,\\r\\n            \"Escrow canno...\n  JUMPDEST \t\t\t,\\r\\n            \"Escrow canno...\n  PUSH 0\t\t\t\\n        );\n  PUSH [tag] 311\t\t\tw.status = EscrowStatus.Cance\n  DUP3 \t\t\tCan\n  MLOAD \t\t\ttatus.Canc\n  PUSH [tag] 187\t\t\tw.status = EscrowStatus.Cance\n  JUMP \t\t\tw.status = EscrowStatus.Cance\ntag 311\t\t\tw.status = EscrowStatus.Cance\n  JUMPDEST \t\t\tw.status = EscrowStatus.Cance\n  DUP1 \t\t\tmount\n  SWAP2 \t\t\t     \\r\\n        uint256 amoun...\n  POP \t\t\t     \\r\\n        uint256 amoun...\n  POP \t\t\t\\n        \\r\\n        escrow.s...\n  SWAP2 \t\t\t,\\r\\n            \"Escrow canno...\n  SWAP1 \t\t\t,\\r\\n            \"Escrow canno...\n  POP \t\t\t,\\r\\n            \"Escrow canno...\n  JUMP \t\t\t,\\r\\n            \"Escrow canno...\ntag 50\t\t\tunt;\\r\\n        escrow.amount ...\n  JUMPDEST \t\t\tunt;\\r\\n        escrow.amount ...\n  PUSH 0\t\t\t(no f\n  PUSH [tag] 313\t\t\tions)\\r\\n        (bool success...\n  DUP3 \t\t\t= esc\n  PUSH [tag] 194\t\t\tions)\\r\\n        (bool success...\n  JUMP \t\t\tions)\\r\\n        (bool success...\ntag 313\t\t\tions)\\r\\n        (bool success...\n  JUMPDEST \t\t\tions)\\r\\n        (bool success...\n  DUP3 \t\t\tunt}(\n  PUSH [tag] 314\t\t\tsuccess, \"Refund to client fai...\n  DUP5 \t\t\t);\\r\\n \n  PUSH [tag] 195\t\t\tsuccess, \"Refund to client fai...\n  JUMP \t\t\tsuccess, \"Refund to client fai...\ntag 314\t\t\tsuccess, \"Refund to client fai...\n  JUMPDEST \t\t\tsuccess, \"Refund to client fai...\n  SWAP1 \t\t\t    require(success, \"Refund t...\n  POP \t\t\t    require(success, \"Refund t...\n  PUSH [tag] 315\t\t\tt EscrowRefunded(gigId, escrow...\n  DUP2 \t\t\tcrow.cli\n  PUSH [tag] 196\t\t\tt EscrowRefunded(gigId, escrow...\n  JUMP \t\t\tt EscrowRefunded(gigId, escrow...\ntag 315\t\t\tt EscrowRefunded(gigId, escrow...\n  JUMPDEST \t\t\tt EscrowRefunded(gigId, escrow...\n  SWAP3 \t\t\t      emit EscrowRefunded(gigI...\n  POP \t\t\t      emit EscrowRefunded(gigI...\n  PUSH 20\t\t\t \\r\n  DUP3 \t\t\t  }\\r\\n \n  LT \t\t\t\\n    }\\r\\n    \\r\\n\n  ISZERO \t\t\t);\\r\\n    }\\r\\n    \\r\\n    /**...\n  PUSH [tag] 316\t\t\t);\\r\\n    }\\r\\n    \\r\\n    /**...\n  JUMPI \t\t\t);\\r\\n    }\\r\\n    \\r\\n    /**...\n  PUSH [tag] 317\t\t\tg)\\r\\n     * @param gigId ID o...\n  PUSH FFFFFFFFFFFFFFFFFFFFFFFFFFFFFFFFFFFFFFFFFFFFFFFFFFFFFFFFFFFFFFFF\t\t\t external validGig(gigId) only...\n  DUP4 \t\t\tction \n  PUSH 20\t\t\t f\n  SUB \t\t\t\\n    function s\n  PUSH 8\t\t\t*\n  MUL \t\t\t    */\\r\\n    function st\n  PUSH [tag] 172\t\t\tg)\\r\\n     * @param gigId ID o...\n  JUMP \t\t\tg)\\r\\n     * @param gigId ID o...\ntag 317\t\t\tg)\\r\\n     * @param gigId ID o...\n  JUMPDEST \t\t\tg)\\r\\n     * @param gigId ID o...\n  DUP4 \t\t\treela\n  AND \t\t\tk escrow as active (freelancer...\n  SWAP3 \t\t\t @dev Mark escrow as active (f...\n  POP \t\t\t @dev Mark escrow as active (f...\ntag 316\t\t\t);\\r\\n    }\\r\\n    \\r\\n    /**...\n  JUMPDEST \t\t\t);\\r\\n    }\\r\\n    \\r\\n    /**...\n  POP \t\t\te deduction for cancellations)...\n  POP \t\t\te deduction for cancellations)...\n  SWAP2 \t\t\tunt;\\r\\n        escrow.amount ...\n  SWAP1 \t\t\tunt;\\r\\n        escrow.amount ...\n  POP \t\t\tunt;\\r\\n        escrow.amount ...\n  JUMP \t\t\tunt;\\r\\n        escrow.amount ...\ntag 65\t\t\tscrow.status == EscrowStatus.P...\n  JUMPDEST \t\t\tscrow.status == EscrowStatus.P...\n  PUSH 0\t\t\tus.A\n  PUSH 40\t\t\t *\n  DUP3 \t\t\t  /**\\r\\n  \n  ADD \t\t\t\\r\\n    /**\\r\\n     * \n  SWAP1 \t\t\t }\\r\\n    \\r\\n    /**\\r\\n     ...\n  POP \t\t\t }\\r\\n    \\r\\n    /**\\r\\n     ...\n  PUSH [tag] 319\t\t\tscrow details for a gig\\r\\n   ...\n  PUSH 0\t\t\t\\n\n  DUP4 \t\t\tg\\r\\n     *\n  ADD \t\t\te gig\\r\\n     */\\r\\n \n  DUP6 \t\t\t ID of\n  PUSH [tag] 189\t\t\tscrow details for a gig\\r\\n   ...\n  JUMP \t\t\tscrow details for a gig\\r\\n   ...\ntag 319\t\t\tscrow details for a gig\\r\\n   ...\n  JUMPDEST \t\t\tscrow details for a gig\\r\\n   ...\n  PUSH [tag] 320\t\t\t getEscrow(uint256 gigId) exte...\n  PUSH 20\t\t\tro\n  DUP4 \t\t\teturns (E\n  ADD \t\t\td) returns (Escrow\n  DUP5 \t\t\tdGig(g\n  PUSH [tag] 189\t\t\t getEscrow(uint256 gigId) exte...\n  JUMP \t\t\t getEscrow(uint256 gigId) exte...\ntag 320\t\t\t getEscrow(uint256 gigId) exte...\n  JUMPDEST \t\t\t getEscrow(uint256 gigId) exte...\n  SWAP4 \t\t\tscrow.status == EscrowStatus.P...\n  SWAP3 \t\t\tscrow.status == EscrowStatus.P...\n  POP \t\t\tscrow.status == EscrowStatus.P...\n  POP \t\t\tscrow.status == EscrowStatus.P...\n  POP \t\t\tscrow.status == EscrowStatus.P...\n  JUMP \t\t\tscrow.status == EscrowStatus.P...\ntag 197\t\t\t\\r\\n        return escrows[gig...\n  JUMPDEST \t\t\t\\r\\n        return escrows[gig...\n  PUSH 4E487B7100000000000000000000000000000000000000000000000000000000\t\t\t   /**\\r\\n     * @dev Get clie...\n  PUSH 0\t\t\t\\r\n  MSTORE \t\t\t}\\r\\n    \\r\\n    /**\\r\\n     *...\n  PUSH 11\t\t\t */\\r\n  PUSH 4\t\t\t \n  MSTORE \t\t\tient\\r\\n     */\\r\\n\n  PUSH 24\t\t\tentE\n  PUSH 0\t\t\tC\n  REVERT \t\t\tion getClientEs\ntag 71\t\t\ts client) external view return...\n  JUMPDEST \t\t\ts client) external view return...\n  PUSH 0\t\t\t[] \n  PUSH [tag] 323\t\t\t   return clientEscr\n  DUP3 \t\t\tc\n  PUSH [tag] 174\t\t\t   return clientEscr\n  JUMP \t\t\t   return clientEscr\ntag 323\t\t\t   return clientEscr\n  JUMPDEST \t\t\t   return clientEscr\n  SWAP2 \t\t\t        return clientEscr\n  POP \t\t\t        return clientEscr\n  PUSH [tag] 324\t\t\t    }\\r\\n    \\r\\n    /**\n  DUP4 \t\t\t*\n  PUSH [tag] 174\t\t\t    }\\r\\n    \\r\\n    /**\n  JUMP \t\t\t    }\\r\\n    \\r\\n    /**\ntag 324\t\t\t    }\\r\\n    \\r\\n    /**\n  JUMPDEST \t\t\t    }\\r\\n    \\r\\n    /**\n  SWAP3 \t\t\tt];\\r\\n    }\\r\\n    \\r\\n    /*...\n  POP \t\t\tt];\\r\\n    }\\r\\n    \\r\\n    /*...\n  DUP3 \t\t\ta\n  DUP3 \t\t\te\n  ADD \t\t\tt freelan\n  SWAP1 \t\t\t@dev Get freelan\n  POP \t\t\t@dev Get freelan\n  DUP1 \t\t\ts\\r\\n\n  DUP3 \t\t\t \n  GT \t\t\tgig IDs\\r\\n \n  ISZERO \t\t\tow gig IDs\\r\\n     * @param fr...\n  PUSH [tag] 325\t\t\tow gig IDs\\r\\n     * @param fr...\n  JUMPI \t\t\tow gig IDs\\r\\n     * @param fr...\n  PUSH [tag] 326\t\t\t * @param freelanc\n  PUSH [tag] 197\t\t\t * @param freelanc\n  JUMP \t\t\t * @param freelanc\ntag 326\t\t\t * @param freelanc\n  JUMPDEST \t\t\t * @param freelanc\ntag 325\t\t\tow gig IDs\\r\\n     * @param fr...\n  JUMPDEST \t\t\tow gig IDs\\r\\n     * @param fr...\n  SWAP3 \t\t\ts client) external view return...\n  SWAP2 \t\t\ts client) external view return...\n  POP \t\t\ts client) external view return...\n  POP \t\t\ts client) external view return...\n  JUMP \t\t\ts client) external view return...\ntag 75\t\t\the freelancer\\r\\n     */\\r\\n  ...\n  JUMPDEST \t\t\the freelancer\\r\\n     */\\r\\n  ...\n  PUSH 0\t\t\tcrow\n  PUSH 60\t\t\t**\n  DUP3 \t\t\t    \\r\\n   \n  ADD \t\t\t }\\r\\n    \\r\\n    /**\\r\n  SWAP1 \t\t\tr];\\r\\n    }\\r\\n    \\r\\n    /*...\n  POP \t\t\tr];\\r\\n    }\\r\\n    \\r\\n    /*...\n  PUSH [tag] 328\t\t\tev Check if escrow exists for ...\n  PUSH 0\t\t\ti\n  DUP4 \t\t\tID of the\n  ADD \t\t\tgId ID of the gig\n  DUP7 \t\t\t@param\n  PUSH [tag] 186\t\t\tev Check if escrow exists for ...\n  JUMP \t\t\tev Check if escrow exists for ...\ntag 328\t\t\tev Check if escrow exists for ...\n  JUMPDEST \t\t\tev Check if escrow exists for ...\n  PUSH [tag] 329\t\t\t    function escrowExists(uint...\n  PUSH 20\t\t\t) \n  DUP4 \t\t\tturns (bo\n  ADD \t\t\tw returns (bool) {\n  DUP6 \t\t\ternal \n  PUSH [tag] 189\t\t\t    function escrowExists(uint...\n  JUMP \t\t\t    function escrowExists(uint...\ntag 329\t\t\t    function escrowExists(uint...\n  JUMPDEST \t\t\t    function escrowExists(uint...\n  PUSH [tag] 330\t\t\teturn escrows[gigId].exists;\\r...\n  PUSH 40\t\t\tte\n  DUP4 \t\t\t* @dev Up\n  ADD \t\t\t    * @dev Update \n  DUP5 \t\t\t   /**\n  PUSH [tag] 189\t\t\teturn escrows[gigId].exists;\\r...\n  JUMP \t\t\teturn escrows[gigId].exists;\\r...\ntag 330\t\t\teturn escrows[gigId].exists;\\r...\n  JUMPDEST \t\t\teturn escrows[gigId].exists;\\r...\n  SWAP5 \t\t\the freelancer\\r\\n     */\\r\\n  ...\n  SWAP4 \t\t\the freelancer\\r\\n     */\\r\\n  ...\n  POP \t\t\the freelancer\\r\\n     */\\r\\n  ...\n  POP \t\t\the freelancer\\r\\n     */\\r\\n  ...\n  POP \t\t\the freelancer\\r\\n     */\\r\\n  ...\n  POP \t\t\the freelancer\\r\\n     */\\r\\n  ...\n  JUMP \t\t\the freelancer\\r\\n     */\\r\\n  ...\ntag 79\t\t\tonly owner)\\r\\n     * @param n...\n  JUMPDEST \t\t\tonly owner)\\r\\n     * @param n...\n  PUSH 0\t\t\trmFe\n  PUSH 20\t\t\ter\n  DUP3 \t\t\tnal onlyO\n  ADD \t\t\txternal onlyOwner \n  SWAP1 \t\t\tewFee) external onlyOwner \n  POP \t\t\tewFee) external onlyOwner \n  PUSH [tag] 332\t\t\t require(newFee <= 1000, \"Fee ...\n  PUSH 0\t\t\tF\n  DUP4 \t\t\t   platfo\n  ADD \t\t\t       platformFe\n  DUP5 \t\t\t10%\");\n  PUSH [tag] 189\t\t\t require(newFee <= 1000, \"Fee ...\n  JUMP \t\t\t require(newFee <= 1000, \"Fee ...\ntag 332\t\t\t require(newFee <= 1000, \"Fee ...\n  JUMPDEST \t\t\t require(newFee <= 1000, \"Fee ...\n  SWAP3 \t\t\tonly owner)\\r\\n     * @param n...\n  SWAP2 \t\t\tonly owner)\\r\\n     * @param n...\n  POP \t\t\tonly owner)\\r\\n     * @param n...\n  POP \t\t\tonly owner)\\r\\n     * @param n...\n  JUMP \t\t\tonly owner)\\r\\n     * @param n...\ntag 198\t\t\t   }\\r\\n    \\r\\n    /**\\r\\n   ...\n  JUMPDEST \t\t\t   }\\r\\n    \\r\\n    /**\\r\\n   ...\n  PUSH 0\t\t\tte fee \n  PUSH FFFFFFFFFFFFFFFFFFFFFFFFFFFFFFFFFFFFFFFFFFFFFFFFFFFF\t\t\taram newRecipient New fee reci...\n  DUP3 \t\t\t   * \n  AND \t\t\t\\r\\n     * @param newRecipient...\n  SWAP1 \t\t\tonly owner)\\r\\n     * @param n...\n  POP \t\t\tonly owner)\\r\\n     * @param n...\n  SWAP2 \t\t\t   }\\r\\n    \\r\\n    /**\\r\\n   ...\n  SWAP1 \t\t\t   }\\r\\n    \\r\\n    /**\\r\\n   ...\n  POP \t\t\t   }\\r\\n    \\r\\n    /**\\r\\n   ...\n  JUMP \t\t\t   }\\r\\n    \\r\\n    /**\\r\\n   ...\ntag 100\t\t\tupdateFeeRecipient(address new...\n  JUMPDEST \t\t\tupdateFeeRecipient(address new...\n  PUSH 0\t\t\t ex\n  PUSH [tag] 335\t\t\t {\\r\\n        require(\n  DUP3 \t\t\te\n  PUSH [tag] 198\t\t\t {\\r\\n        require(\n  JUMP \t\t\t {\\r\\n        require(\ntag 335\t\t\t {\\r\\n        require(\n  JUMPDEST \t\t\t {\\r\\n        require(\n  SWAP2 \t\t\tOwner {\\r\\n        require(\n  POP \t\t\tOwner {\\r\\n        require(\n  PUSH [tag] 336\t\t\t= address(0), \"Inval\n  DUP4 \t\t\ta\n  PUSH [tag] 198\t\t\t= address(0), \"Inval\n  JUMP \t\t\t= address(0), \"Inval\ntag 336\t\t\t= address(0), \"Inval\n  JUMPDEST \t\t\t= address(0), \"Inval\n  SWAP3 \t\t\tent != address(0), \"Inval\n  POP \t\t\tent != address(0), \"Inval\n  DUP3 \t\t\t\\r\n  DUP3 \t\t\t\"\n  ADD \t\t\tress\");\\r\\n\n  SWAP1 \t\t\tent address\");\\r\\n\n  POP \t\t\tent address\");\\r\\n\n  PUSH FFFFFFFFFFFFFFFFFFFFFFFFFFFFFFFFFFFFFFFFFFFFFFFFFFFF\t\t\t= newRecipient;\\r\\n    }\\r\\n  ...\n  DUP2 \t\t\tien\n  GT \t\t\tcipient = newRecipient;\\r\\n   ...\n  ISZERO \t\t\teRecipient = newRecipient;\\r\\n...\n  PUSH [tag] 337\t\t\teRecipient = newRecipient;\\r\\n...\n  JUMPI \t\t\teRecipient = newRecipient;\\r\\n...\n  PUSH [tag] 338\t\t\tontract (only owne\n  PUSH [tag] 197\t\t\tontract (only owne\n  JUMP \t\t\tontract (only owne\ntag 338\t\t\tontract (only owne\n  JUMPDEST \t\t\tontract (only owne\ntag 337\t\t\teRecipient = newRecipient;\\r\\n...\n  JUMPDEST \t\t\teRecipient = newRecipient;\\r\\n...\n  SWAP3 \t\t\tupdateFeeRecipient(address new...\n  SWAP2 \t\t\tupdateFeeRecipient(address new...\n  POP \t\t\tupdateFeeRecipient(address new...\n  POP \t\t\tupdateFeeRecipient(address new...\n  JUMP \t\t\tupdateFeeRecipient(address new...\ntag 199\t\t\t  function pause() external on...\n  JUMPDEST \t\t\t  function pause() external on...\n  PUSH 0\t\t\t  _paus\n  DUP2 \t\t\t /**\\r\n  SWAP1 \t\t\t\\r\\n    \\r\\n    /**\\r\n  POP \t\t\t\\r\\n    \\r\\n    /**\\r\n  SWAP2 \t\t\t  function pause() external on...\n  SWAP1 \t\t\t  function pause() external on...\n  POP \t\t\t  function pause() external on...\n  JUMP \t\t\t  function pause() external on...\ntag 200\t\t\t Unpause contract (only owner)...\n  JUMPDEST \t\t\t Unpause contract (only owner)...\n  PUSH 0\t\t\t  */\\r\\n \n  PUSH FF\t\t\tlyOw\n  DUP3 \t\t\trnal \n  AND \t\t\texternal onlyOwn\n  SWAP1 \t\t\t unpause() external onlyOwn\n  POP \t\t\t unpause() external onlyOwn\n  SWAP2 \t\t\t Unpause contract (only owner)...\n  SWAP1 \t\t\t Unpause contract (only owner)...\n  POP \t\t\t Unpause contract (only owner)...\n  JUMP \t\t\t Unpause contract (only owner)...\ntag 201\t\t\t  _unpause();\\r\\n    }\\r\\n    ...\n  JUMPDEST \t\t\t  _unpause();\\r\\n    }\\r\\n    ...\n  PUSH 0\t\t\t withdraw\n  PUSH [tag] 342\t\t\tgencies)\\r\\n     * @param gigI...\n  PUSH [tag] 343\t\t\t @param gigId ID of the gig\\r\\...\n  PUSH [tag] 344\t\t\tigId ID of the gig\\r\\n     */\\...\n  DUP5 \t\t\t\\n    \n  PUSH [tag] 199\t\t\tigId ID of the gig\\r\\n     */\\...\n  JUMP \t\t\tigId ID of the gig\\r\\n     */\\...\ntag 344\t\t\tigId ID of the gig\\r\\n     */\\...\n  JUMPDEST \t\t\tigId ID of the gig\\r\\n     */\\...\n  PUSH [tag] 175\t\t\t @param gigId ID of the gig\\r\\...\n  JUMP \t\t\t @param gigId ID of the gig\\r\\...\ntag 343\t\t\t @param gigId ID of the gig\\r\\...\n  JUMPDEST \t\t\t @param gigId ID of the gig\\r\\...\n  PUSH [tag] 200\t\t\tgencies)\\r\\n     * @param gigI...\n  JUMP \t\t\tgencies)\\r\\n     * @param gigI...\ntag 342\t\t\tgencies)\\r\\n     * @param gigI...\n  JUMPDEST \t\t\tgencies)\\r\\n     * @param gigI...\n  SWAP1 \t\t\tner, for emergencies)\\r\\n     ...\n  POP \t\t\tner, for emergencies)\\r\\n     ...\n  SWAP2 \t\t\t  _unpause();\\r\\n    }\\r\\n    ...\n  SWAP1 \t\t\t  _unpause();\\r\\n    }\\r\\n    ...\n  POP \t\t\t  _unpause();\\r\\n    }\\r\\n    ...\n  JUMP \t\t\t  _unpause();\\r\\n    }\\r\\n    ...\ntag 202\t\t\tncyWithdraw(uint256 gigId) ext...\n  JUMPDEST \t\t\tncyWithdraw(uint256 gigId) ext...\n  PUSH [tag] 346\t\t\ta storage escrow = escrows[gig...\n  DUP2 \t\t\t     \n  PUSH [tag] 201\t\t\ta storage escrow = escrows[gig...\n  JUMP \t\t\ta storage escrow = escrows[gig...\ntag 346\t\t\ta storage escrow = escrows[gig...\n  JUMPDEST \t\t\ta storage escrow = escrows[gig...\n  DUP3 \t\t\towD\n  MSTORE \t\t\t   EscrowData storage escrow =...\n  POP \t\t\tncyWithdraw(uint256 gigId) ext...\n  POP \t\t\tncyWithdraw(uint256 gigId) ext...\n  JUMP \t\t\tncyWithdraw(uint256 gigId) ext...\ntag 104\t\t\t.amount > 0, \"No funds to with...\n  JUMPDEST \t\t\t.amount > 0, \"No funds to with...\n  PUSH 0\t\t\trow.\n  PUSH 40\t\t\t  \n  DUP3 \t\t\tancelled;\n  ADD \t\t\tus.Cancelled;\\r\\n   \n  SWAP1 \t\t\tcrowStatus.Cancelled;\\r\\n   \n  POP \t\t\tcrowStatus.Cancelled;\\r\\n   \n  PUSH [tag] 348\t\t\t     (bool success, ) = escrow...\n  PUSH 0\t\t\ti\n  DUP4 \t\t\t       re\n  ADD \t\t\t;\\r\\n        requir\n  DUP6 \t\t\tount}(\n  PUSH [tag] 202\t\t\t     (bool success, ) = escrow...\n  JUMP \t\t\t     (bool success, ) = escrow...\ntag 348\t\t\t     (bool success, ) = escrow...\n  JUMPDEST \t\t\t     (bool success, ) = escrow...\n  PUSH [tag] 349\t\t\t\"Emergency withdrawal failed\")...\n  PUSH 20\t\t\ted\n  DUP4 \t\t\tscrowRefu\n  ADD \t\t\tit EscrowRefunded(\n  DUP5 \t\t\t      \n  PUSH [tag] 189\t\t\t\"Emergency withdrawal failed\")...\n  JUMP \t\t\t\"Emergency withdrawal failed\")...\ntag 349\t\t\t\"Emergency withdrawal failed\")...\n  JUMPDEST \t\t\t\"Emergency withdrawal failed\")...\n  SWAP4 \t\t\t.amount > 0, \"No funds to with...\n  SWAP3 \t\t\t.amount > 0, \"No funds to with...\n  POP \t\t\t.amount > 0, \"No funds to with...\n  POP \t\t\t.amount > 0, \"No funds to with...\n  POP \t\t\t.amount > 0, \"No funds to with...\n  JUMP \t\t\t.amount > 0, \"No funds to with...\ntag 115\t\t\tclient, amount);\\r\\n    }\\r\\n ...\n  JUMPDEST \t\t\tclient, amount);\\r\\n    }\\r\\n ...\n  PUSH 0\t\t\t    \n  PUSH [tag] 351\t\t\tescrow to specified \n  DUP3 \t\t\td\n  PUSH [tag] 198\t\t\tescrow to specified \n  JUMP \t\t\tescrow to specified \ntag 351\t\t\tescrow to specified \n  JUMPDEST \t\t\tescrow to specified \n  SWAP2 \t\t\tease escrow to specified \n  POP \t\t\tease escrow to specified \n  PUSH [tag] 352\t\t\tcallable by DAO for \n  DUP4 \t\t\tr\n  PUSH [tag] 198\t\t\tcallable by DAO for \n  JUMP \t\t\tcallable by DAO for \ntag 352\t\t\tcallable by DAO for \n  JUMPDEST \t\t\tcallable by DAO for \n  SWAP3 \t\t\tonly callable by DAO for \n  POP \t\t\tonly callable by DAO for \n  DUP3 \t\t\t \n  DUP3 \t\t\t \n  SUB \t\t\tn)\\r\\n     \n  SWAP1 \t\t\tesolution)\\r\\n     \n  POP \t\t\tesolution)\\r\\n     \n  PUSH FFFFFFFFFFFFFFFFFFFFFFFFFFFFFFFFFFFFFFFFFFFFFFFFFFFF\t\t\the gig\\r\\n     * @param recipi...\n  DUP2 \t\t\tD of\n  GT \t\t\td ID of the gig\\r\\n     * @par...\n  ISZERO \t\t\tigId ID of the gig\\r\\n     * @...\n  PUSH [tag] 353\t\t\tigId ID of the gig\\r\\n     * @...\n  JUMPI \t\t\tigId ID of the gig\\r\\n     * @...\n  PUSH [tag] 354\t\t\tds (client or free\n  PUSH [tag] 197\t\t\tds (client or free\n  JUMP \t\t\tds (client or free\ntag 354\t\t\tds (client or free\n  JUMPDEST \t\t\tds (client or free\ntag 353\t\t\tigId ID of the gig\\r\\n     * @...\n  JUMPDEST \t\t\tigId ID of the gig\\r\\n     * @...\n  SWAP3 \t\t\tclient, amount);\\r\\n    }\\r\\n ...\n  SWAP2 \t\t\tclient, amount);\\r\\n    }\\r\\n ...\n  POP \t\t\tclient, amount);\\r\\n    }\\r\\n ...\n  POP \t\t\tclient, amount);\\r\\n    }\\r\\n ...\n  JUMP \t\t\tclient, amount);\\r\\n    }\\r\\n ...\ntag 135\t\t\t/\\r\\n    function releaseTo(ui...\n  JUMPDEST \t\t\t/\\r\\n    function releaseTo(ui...\n  PUSH 0\t\t\t add\n  PUSH [tag] 356\t\t\texternal validGig(gi\n  DUP3 \t\t\tg\n  PUSH [tag] 174\t\t\texternal validGig(gi\n  JUMP \t\t\texternal validGig(gi\ntag 356\t\t\texternal validGig(gi\n  JUMPDEST \t\t\texternal validGig(gi\n  SWAP2 \t\t\tent) external validGig(gi\n  POP \t\t\tent) external validGig(gi\n  PUSH [tag] 357\t\t\t nonReentrant {\\r\\n   \n  DUP4 \t\t\t \n  PUSH [tag] 174\t\t\t nonReentrant {\\r\\n   \n  JUMP \t\t\t nonReentrant {\\r\\n   \ntag 357\t\t\t nonReentrant {\\r\\n   \n  JUMPDEST \t\t\t nonReentrant {\\r\\n   \n  SWAP3 \t\t\tOwner nonReentrant {\\r\\n   \n  POP \t\t\tOwner nonReentrant {\\r\\n   \n  DUP3 \t\t\te\n  DUP3 \t\t\tg\n  SUB \t\t\ttorage es\n  SWAP1 \t\t\towData storage es\n  POP \t\t\towData storage es\n  DUP2 \t\t\t\\r\n  DUP2 \t\t\tigId\n  GT \t\t\ts[gigId];\\r\\n\n  ISZERO \t\t\trows[gigId];\\r\\n        requir...\n  PUSH [tag] 358\t\t\trows[gigId];\\r\\n        requir...\n  JUMPI \t\t\trows[gigId];\\r\\n        requir...\n  PUSH [tag] 359\t\t\t     require(escro\n  PUSH [tag] 197\t\t\t     require(escro\n  JUMP \t\t\t     require(escro\ntag 359\t\t\t     require(escro\n  JUMPDEST \t\t\t     require(escro\ntag 358\t\t\trows[gigId];\\r\\n        requir...\n  JUMPDEST \t\t\trows[gigId];\\r\\n        requir...\n  SWAP3 \t\t\t/\\r\\n    function releaseTo(ui...\n  SWAP2 \t\t\t/\\r\\n    function releaseTo(ui...\n  POP \t\t\t/\\r\\n    function releaseTo(ui...\n  POP \t\t\t/\\r\\n    function releaseTo(ui...\n  JUMP \t\t\t/\\r\\n    function releaseTo(ui...\ntag 203\t\t\trowStatus.Disputed, \"Escrow no...\n  JUMPDEST \t\t\trowStatus.Disputed, \"Escrow no...\n  PUSH 0\t\t\tate\");\\r\n  DUP2 \t\t\tw.amo\n  SWAP1 \t\t\tquire(escrow.amo\n  POP \t\t\tquire(escrow.amo\n  SWAP2 \t\t\trowStatus.Disputed, \"Escrow no...\n  SWAP1 \t\t\trowStatus.Disputed, \"Escrow no...\n  POP \t\t\trowStatus.Disputed, \"Escrow no...\n  JUMP \t\t\trowStatus.Disputed, \"Escrow no...\ntag 204\t\t\t funds to release\");\\r\\n      ...\n  JUMPDEST \t\t\t funds to release\");\\r\\n      ...\n  PUSH 0\t\t\t.client |\n  PUSH [tag] 362\t\t\teelancer, \"Invalid recipient\")...\n  PUSH [tag] 363\t\t\tid recipient\");\\r\\n        \\r\\...\n  PUSH [tag] 364\t\t\tent\");\\r\\n        \\r\\n        ...\n  DUP5 \t\t\tint25\n  PUSH [tag] 203\t\t\tent\");\\r\\n        \\r\\n        ...\n  JUMP \t\t\tent\");\\r\\n        \\r\\n        ...\ntag 364\t\t\tent\");\\r\\n        \\r\\n        ...\n  JUMPDEST \t\t\tent\");\\r\\n        \\r\\n        ...\n  PUSH [tag] 175\t\t\tid recipient\");\\r\\n        \\r\\...\n  JUMP \t\t\tid recipient\");\\r\\n        \\r\\...\ntag 363\t\t\tid recipient\");\\r\\n        \\r\\...\n  JUMPDEST \t\t\tid recipient\");\\r\\n        \\r\\...\n  PUSH [tag] 200\t\t\teelancer, \"Invalid recipient\")...\n  JUMP \t\t\teelancer, \"Invalid recipient\")...\ntag 362\t\t\teelancer, \"Invalid recipient\")...\n  JUMPDEST \t\t\teelancer, \"Invalid recipient\")...\n  SWAP1 \t\t\t == escrow.freelancer, \"Invali...\n  POP \t\t\t == escrow.freelancer, \"Invali...\n  SWAP2 \t\t\t funds to release\");\\r\\n      ...\n  SWAP1 \t\t\t funds to release\");\\r\\n      ...\n  POP \t\t\t funds to release\");\\r\\n      ...\n  JUMP \t\t\t funds to release\");\\r\\n      ...\ntag 205\t\t\t escrow.amount;\\r\\n        uin...\n  JUMPDEST \t\t\t escrow.amount;\\r\\n        uin...\n  PUSH [tag] 366\t\t\tt256 releaseAmount = totalAmou...\n  DUP2 \t\t\tAmoun\n  PUSH [tag] 204\t\t\tt256 releaseAmount = totalAmou...\n  JUMP \t\t\tt256 releaseAmount = totalAmou...\ntag 366\t\t\tt256 releaseAmount = totalAmou...\n  JUMPDEST \t\t\tt256 releaseAmount = totalAmou...\n  DUP3 \t\t\t  u\n  MSTORE \t\t\t\\n        uint256 releaseAmoun...\n  POP \t\t\t escrow.amount;\\r\\n        uin...\n  POP \t\t\t escrow.amount;\\r\\n        uin...\n  JUMP \t\t\t escrow.amount;\\r\\n        uin...\ntag 158\t\t\t        escrow.amount = 0;\\r\\n...\n  JUMPDEST \t\t\t        escrow.amount = 0;\\r\\n...\n  PUSH 0\t\t\t    \n  PUSH 40\t\t\t!=\n  DUP3 \t\t\teRecipien\n  ADD \t\t\t& feeRecipient != \n  SWAP1 \t\t\tnt > 0 && feeRecipient != \n  POP \t\t\tnt > 0 && feeRecipient != \n  PUSH [tag] 368\t\t\t) {\\r\\n            (bool feeSu...\n  PUSH 0\t\t\t\"\n  DUP4 \t\t\tfeeAmount\n  ADD \t\t\tue: feeAmount}(\"\"\n  DUP6 \t\t\t.call{\n  PUSH [tag] 205\t\t\t) {\\r\\n            (bool feeSu...\n  JUMP \t\t\t) {\\r\\n            (bool feeSu...\ntag 368\t\t\t) {\\r\\n            (bool feeSu...\n  JUMPDEST \t\t\t) {\\r\\n            (bool feeSu...\n  PUSH [tag] 369\t\t\t     require(feeSuccess, \"Fee ...\n  PUSH 20\t\t\t \\r\n  DUP4 \t\t\t }\\r\\n     \n  ADD \t\t\t     }\\r\\n        \\r\\n\n  DUP5 \t\t\td\");\\r\\n\n  PUSH [tag] 189\t\t\t     require(feeSuccess, \"Fee ...\n  JUMP \t\t\t     require(feeSuccess, \"Fee ...\ntag 369\t\t\t     require(feeSuccess, \"Fee ...\n  JUMPDEST \t\t\t     require(feeSuccess, \"Fee ...\n  SWAP4 \t\t\t        escrow.amount = 0;\\r\\n...\n  SWAP3 \t\t\t        escrow.amount = 0;\\r\\n...\n  POP \t\t\t        escrow.amount = 0;\\r\\n...\n  POP \t\t\t        escrow.amount = 0;\\r\\n...\n  POP \t\t\t        escrow.amount = 0;\\r\\n...\n  JUMP \t\t\t        escrow.amount = 0;\\r\\n...\ntag 27\t\t\tcontract DAOToken is ERC20, ER...\n  JUMPDEST \t\t\tcontract DAOToken is ERC20, ER...\n  PUSH 80\t\t\tcontract DAOToken is ERC20, ER...\n  MLOAD \t\t\tcontract DAOToken is ERC20, ER...\n  PUSH A0\t\t\tcontract DAOToken is ERC20, ER...\n  MLOAD \t\t\tcontract DAOToken is ERC20, ER...\n  PUSH C0\t\t\tcontract DAOToken is ERC20, ER...\n  MLOAD \t\t\tcontract DAOToken is ERC20, ER...\n  PUSH E0\t\t\tcontract DAOToken is ERC20, ER...\n  MLOAD \t\t\tcontract DAOToken is ERC20, ER...\n  PUSH 100\t\t\tcontract DAOToken is ERC20, ER...\n  MLOAD \t\t\tcontract DAOToken is ERC20, ER...\n  PUSH 120\t\t\tcontract DAOToken is ERC20, ER...\n  MLOAD \t\t\tcontract DAOToken is ERC20, ER...\n  PUSH 140\t\t\tcontract DAOToken is ERC20, ER...\n  MLOAD \t\t\tcontract DAOToken is ERC20, ER...\n  PUSH #[$] 0000000000000000000000000000000000000000000000000000000000000000\t\t\tcontract DAOToken is ERC20, ER...\n  PUSH [$] 0000000000000000000000000000000000000000000000000000000000000000\t\t\tcontract DAOToken is ERC20, ER...\n  PUSH 0\t\t\tcontract DAOToken is ERC20, ER...\n  CODECOPY \t\t\tcontract DAOToken is ERC20, ER...\n  PUSH 0\t\t\tcontract DAOToken is ERC20, ER...\n  ASSIGNIMMUTABLE 4355\t\t\tcontract DAOToken is ERC20, ER...\n  PUSH 0\t\t\tcontract DAOToken is ERC20, ER...\n  ASSIGNIMMUTABLE 4352\t\t\tcontract DAOToken is ERC20, ER...\n  PUSH 0\t\t\tcontract DAOToken is ERC20, ER...\n  ASSIGNIMMUTABLE 4349\t\t\tcontract DAOToken is ERC20, ER...\n  PUSH 0\t\t\tcontract DAOToken is ERC20, ER...\n  ASSIGNIMMUTABLE 4347\t\t\tcontract DAOToken is ERC20, ER...\n  PUSH 0\t\t\tcontract DAOToken is ERC20, ER...\n  ASSIGNIMMUTABLE 4345\t\t\tcontract DAOToken is ERC20, ER...\n  PUSH 0\t\t\tcontract DAOToken is ERC20, ER...\n  ASSIGNIMMUTABLE 4343\t\t\tcontract DAOToken is ERC20, ER...\n  PUSH 0\t\t\tcontract DAOToken is ERC20, ER...\n  ASSIGNIMMUTABLE 4341\t\t\tcontract DAOToken is ERC20, ER...\n  PUSH #[$] 0000000000000000000000000000000000000000000000000000000000000000\t\t\tcontract DAOToken is ERC20, ER...\n  PUSH 0\t\t\tcontract DAOToken is ERC20, ER...\n  RETURN \t\t\tcontract DAOToken is ERC20, ER...\n.data\n  0:\n    .code\n      PUSH 80\t\t\tcontract DAOToken is ERC20, ER...\n      PUSH 40\t\t\tcontract DAOToken is ERC20, ER...\n      MSTORE \t\t\tcontract DAOToken is ERC20, ER...\n      CALLVALUE \t\t\tcontract DAOToken is ERC20, ER...\n      DUP1 \t\t\tcontract DAOToken is ERC20, ER...\n      ISZERO \t\t\tcontract DAOToken is ERC20, ER...\n      PUSH [tag] 1\t\t\tcontract DAOToken is ERC20, ER...\n      JUMPI \t\t\tcontract DAOToken is ERC20, ER...\n      PUSH 0\t\t\tcontract DAOToken is ERC20, ER...\n      PUSH 0\t\t\tcontract DAOToken is ERC20, ER...\n      REVERT \t\t\tcontract DAOToken is ERC20, ER...\n    tag 1\t\t\tcontract DAOToken is ERC20, ER...\n      JUMPDEST \t\t\tcontract DAOToken is ERC20, ER...\n      POP \t\t\tcontract DAOToken is ERC20, ER...\n      PUSH 4\t\t\tcontract DAOToken is ERC20, ER...\n      CALLDATASIZE \t\t\tcontract DAOToken is ERC20, ER...\n      LT \t\t\tcontract DAOToken is ERC20, ER...\n      PUSH [tag] 2\t\t\tcontract DAOToken is ERC20, ER...\n      JUMPI \t\t\tcontract DAOToken is ERC20, ER...\n      PUSH 0\t\t\tcontract DAOToken is ERC20, ER...\n      CALLDATALOAD \t\t\tcontract DAOToken is ERC20, ER...\n      PUSH E0\t\t\tcontract DAOToken is ERC20, ER...\n      SHR \t\t\tcontract DAOToken is ERC20, ER...\n      DUP1 \t\t\tcontract DAOToken is ERC20, ER...\n      PUSH 70A08231\t\t\tcontract DAOToken is ERC20, ER...\n      GT \t\t\tcontract DAOToken is ERC20, ER...\n      PUSH [tag] 34\t\t\tcontract DAOToken is ERC20, ER...\n      JUMPI \t\t\tcontract DAOToken is ERC20, ER...\n      DUP1 \t\t\tcontract DAOToken is ERC20, ER...\n      PUSH 983B2D56\t\t\tcontract DAOToken is ERC20, ER...\n      GT \t\t\tcontract DAOToken is ERC20, ER...\n      PUSH [tag] 35\t\t\tcontract DAOToken is ERC20, ER...\n      JUMPI \t\t\tcontract DAOToken is ERC20, ER...\n      DUP1 \t\t\tcontract DAOToken is ERC20, ER...\n      PUSH DD62ED3E\t\t\tcontract DAOToken is ERC20, ER...\n      GT \t\t\tcontract DAOToken is ERC20, ER...\n      PUSH [tag] 36\t\t\tcontract DAOToken is ERC20, ER...\n      JUMPI \t\t\tcontract DAOToken is ERC20, ER...\n      DUP1 \t\t\tcontract DAOToken is ERC20, ER...\n      PUSH DD62ED3E\t\t\tcontract DAOToken is ERC20, ER...\n      EQ \t\t\tcontract DAOToken is ERC20, ER...\n      PUSH [tag] 30\t\t\tcontract DAOToken is ERC20, ER...\n      JUMPI \t\t\tcontract DAOToken is ERC20, ER...\n      DUP1 \t\t\tcontract DAOToken is ERC20, ER...\n      PUSH F1127ED8\t\t\tcontract DAOToken is ERC20, ER...\n      EQ \t\t\tcontract DAOToken is ERC20, ER...\n      PUSH [tag] 31\t\t\tcontract DAOToken is ERC20, ER...\n      JUMPI \t\t\tcontract DAOToken is ERC20, ER...\n      DUP1 \t\t\tcontract DAOToken is ERC20, ER...\n      PUSH F2FDE38B\t\t\tcontract DAOToken is ERC20, ER...\n      EQ \t\t\tcontract DAOToken is ERC20, ER...\n      PUSH [tag] 32\t\t\tcontract DAOToken is ERC20, ER...\n      JUMPI \t\t\tcontract DAOToken is ERC20, ER...\n      DUP1 \t\t\tcontract DAOToken is ERC20, ER...\n      PUSH F46ECCC4\t\t\tcontract DAOToken is ERC20, ER...\n      EQ \t\t\tcontract DAOToken is ERC20, ER...\n      PUSH [tag] 33\t\t\tcontract DAOToken is ERC20, ER...\n      JUMPI \t\t\tcontract DAOToken is ERC20, ER...\n      PUSH [tag] 2\t\t\tcontract DAOToken is ERC20, ER...\n      JUMP \t\t\tcontract DAOToken is ERC20, ER...\n    tag 36\t\t\tcontract DAOToken is ERC20, ER...\n      JUMPDEST \t\t\tcontract DAOToken is ERC20, ER...\n      DUP1 \t\t\tcontract DAOToken is ERC20, ER...\n      PUSH 983B2D56\t\t\tcontract DAOToken is ERC20, ER...\n      EQ \t\t\tcontract DAOToken is ERC20, ER...\n      PUSH [tag] 26\t\t\tcontract DAOToken is ERC20, ER...\n      JUMPI \t\t\tcontract DAOToken is ERC20, ER...\n      DUP1 \t\t\tcontract DAOToken is ERC20, ER...\n      PUSH 9AB24EB0\t\t\tcontract DAOToken is ERC20, ER...\n      EQ \t\t\tcontract DAOToken is ERC20, ER...\n      PUSH [tag] 27\t\t\tcontract DAOToken is ERC20, ER...\n      JUMPI \t\t\tcontract DAOToken is ERC20, ER...\n      DUP1 \t\t\tcontract DAOToken is ERC20, ER...\n      PUSH A9059CBB\t\t\tcontract DAOToken is ERC20, ER...\n      EQ \t\t\tcontract DAOToken is ERC20, ER...\n      PUSH [tag] 28\t\t\tcontract DAOToken is ERC20, ER...\n      JUMPI \t\t\tcontract DAOToken is ERC20, ER...\n      DUP1 \t\t\tcontract DAOToken is ERC20, ER...\n      PUSH C3CDA520\t\t\tcontract DAOToken is ERC20, ER...\n      EQ \t\t\tcontract DAOToken is ERC20, ER...\n      PUSH [tag] 29\t\t\tcontract DAOToken is ERC20, ER...\n      JUMPI \t\t\tcontract DAOToken is ERC20, ER...\n      PUSH [tag] 2\t\t\tcontract DAOToken is ERC20, ER...\n      JUMP \t\t\tcontract DAOToken is ERC20, ER...\n    tag 35\t\t\tcontract DAOToken is ERC20, ER...\n      JUMPDEST \t\t\tcontract DAOToken is ERC20, ER...\n      DUP1 \t\t\tcontract DAOToken is ERC20, ER...\n      PUSH 8DA5CB5B\t\t\tcontract DAOToken is ERC20, ER...\n      GT \t\t\tcontract DAOToken is ERC20, ER...\n      PUSH [tag] 37\t\t\tcontract DAOToken is ERC20, ER...\n      JUMPI \t\t\tcontract DAOToken is ERC20, ER...\n      DUP1 \t\t\tcontract DAOToken is ERC20, ER...\n      PUSH 8DA5CB5B\t\t\tcontract DAOToken is ERC20, ER...\n      EQ \t\t\tcontract DAOToken is ERC20, ER...\n      PUSH [tag] 22\t\t\tcontract DAOToken is ERC20, ER...\n      JUMPI \t\t\tcontract DAOToken is ERC20, ER...\n      DUP1 \t\t\tcontract DAOToken is ERC20, ER...\n      PUSH 8E539E8C\t\t\tcontract DAOToken is ERC20, ER...\n      EQ \t\t\tcontract DAOToken is ERC20, ER...\n      PUSH [tag] 23\t\t\tcontract DAOToken is ERC20, ER...\n      JUMPI \t\t\tcontract DAOToken is ERC20, ER...\n      DUP1 \t\t\tcontract DAOToken is ERC20, ER...\n      PUSH 91DDADF4\t\t\tcontract DAOToken is ERC20, ER...\n      EQ \t\t\tcontract DAOToken is ERC20, ER...\n      PUSH [tag] 24\t\t\tcontract DAOToken is ERC20, ER...\n      JUMPI \t\t\tcontract DAOToken is ERC20, ER...\n      DUP1 \t\t\tcontract DAOToken is ERC20, ER...\n      PUSH 95D89B41\t\t\tcontract DAOToken is ERC20, ER...\n      EQ \t\t\tcontract DAOToken is ERC20, ER...\n      PUSH [tag] 25\t\t\tcontract DAOToken is ERC20, ER...\n      JUMPI \t\t\tcontract DAOToken is ERC20, ER...\n      PUSH [tag] 2\t\t\tcontract DAOToken is ERC20, ER...\n      JUMP \t\t\tcontract DAOToken is ERC20, ER...\n    tag 37\t\t\tcontract DAOToken is ERC20, ER...\n      JUMPDEST \t\t\tcontract DAOToken is ERC20, ER...\n      DUP1 \t\t\tcontract DAOToken is ERC20, ER...\n      PUSH 70A08231\t\t\tcontract DAOToken is ERC20, ER...\n      EQ \t\t\tcontract DAOToken is ERC20, ER...\n      PUSH [tag] 18\t\t\tcontract DAOToken is ERC20, ER...\n      JUMPI \t\t\tcontract DAOToken is ERC20, ER...\n      DUP1 \t\t\tcontract DAOToken is ERC20, ER...\n      PUSH 715018A6\t\t\tcontract DAOToken is ERC20, ER...\n      EQ \t\t\tcontract DAOToken is ERC20, ER...\n      PUSH [tag] 19\t\t\tcontract DAOToken is ERC20, ER...\n      JUMPI \t\t\tcontract DAOToken is ERC20, ER...\n      DUP1 \t\t\tcontract DAOToken is ERC20, ER...\n      PUSH 7ECEBE00\t\t\tcontract DAOToken is ERC20, ER...\n      EQ \t\t\tcontract DAOToken is ERC20, ER...\n      PUSH [tag] 20\t\t\tcontract DAOToken is ERC20, ER...\n      JUMPI \t\t\tcontract DAOToken is ERC20, ER...\n      DUP1 \t\t\tcontract DAOToken is ERC20, ER...\n      PUSH 84B0196E\t\t\tcontract DAOToken is ERC20, ER...\n      EQ \t\t\tcontract DAOToken is ERC20, ER...\n      PUSH [tag] 21\t\t\tcontract DAOToken is ERC20, ER...\n      JUMPI \t\t\tcontract DAOToken is ERC20, ER...\n      PUSH [tag] 2\t\t\tcontract DAOToken is ERC20, ER...\n      JUMP \t\t\tcontract DAOToken is ERC20, ER...\n    tag 34\t\t\tcontract DAOToken is ERC20, ER...\n      JUMPDEST \t\t\tcontract DAOToken is ERC20, ER...\n      DUP1 \t\t\tcontract DAOToken is ERC20, ER...\n      PUSH 32CB6B0C\t\t\tcontract DAOToken is ERC20, ER...\n      GT \t\t\tcontract DAOToken is ERC20, ER...\n      PUSH [tag] 38\t\t\tcontract DAOToken is ERC20, ER...\n      JUMPI \t\t\tcontract DAOToken is ERC20, ER...\n      DUP1 \t\t\tcontract DAOToken is ERC20, ER...\n      PUSH 587CDE1E\t\t\tcontract DAOToken is ERC20, ER...\n      GT \t\t\tcontract DAOToken is ERC20, ER...\n      PUSH [tag] 39\t\t\tcontract DAOToken is ERC20, ER...\n      JUMPI \t\t\tcontract DAOToken is ERC20, ER...\n      DUP1 \t\t\tcontract DAOToken is ERC20, ER...\n      PUSH 587CDE1E\t\t\tcontract DAOToken is ERC20, ER...\n      EQ \t\t\tcontract DAOToken is ERC20, ER...\n      PUSH [tag] 14\t\t\tcontract DAOToken is ERC20, ER...\n      JUMPI \t\t\tcontract DAOToken is ERC20, ER...\n      DUP1 \t\t\tcontract DAOToken is ERC20, ER...\n      PUSH 5C19A95C\t\t\tcontract DAOToken is ERC20, ER...\n      EQ \t\t\tcontract DAOToken is ERC20, ER...\n      PUSH [tag] 15\t\t\tcontract DAOToken is ERC20, ER...\n      JUMPI \t\t\tcontract DAOToken is ERC20, ER...\n      DUP1 \t\t\tcontract DAOToken is ERC20, ER...\n      PUSH 68573107\t\t\tcontract DAOToken is ERC20, ER...\n      EQ \t\t\tcontract DAOToken is ERC20, ER...\n      PUSH [tag] 16\t\t\tcontract DAOToken is ERC20, ER...\n      JUMPI \t\t\tcontract DAOToken is ERC20, ER...\n      DUP1 \t\t\tcontract DAOToken is ERC20, ER...\n      PUSH 6FCFFF45\t\t\tcontract DAOToken is ERC20, ER...\n      EQ \t\t\tcontract DAOToken is ERC20, ER...\n      PUSH [tag] 17\t\t\tcontract DAOToken is ERC20, ER...\n      JUMPI \t\t\tcontract DAOToken is ERC20, ER...\n      PUSH [tag] 2\t\t\tcontract DAOToken is ERC20, ER...\n      JUMP \t\t\tcontract DAOToken is ERC20, ER...\n    tag 39\t\t\tcontract DAOToken is ERC20, ER...\n      JUMPDEST \t\t\tcontract DAOToken is ERC20, ER...\n      DUP1 \t\t\tcontract DAOToken is ERC20, ER...\n      PUSH 32CB6B0C\t\t\tcontract DAOToken is ERC20, ER...\n      EQ \t\t\tcontract DAOToken is ERC20, ER...\n      PUSH [tag] 10\t\t\tcontract DAOToken is ERC20, ER...\n      JUMPI \t\t\tcontract DAOToken is ERC20, ER...\n      DUP1 \t\t\tcontract DAOToken is ERC20, ER...\n      PUSH 3A46B1A8\t\t\tcontract DAOToken is ERC20, ER...\n      EQ \t\t\tcontract DAOToken is ERC20, ER...\n      PUSH [tag] 11\t\t\tcontract DAOToken is ERC20, ER...\n      JUMPI \t\t\tcontract DAOToken is ERC20, ER...\n      DUP1 \t\t\tcontract DAOToken is ERC20, ER...\n      PUSH 40C10F19\t\t\tcontract DAOToken is ERC20, ER...\n      EQ \t\t\tcontract DAOToken is ERC20, ER...\n      PUSH [tag] 12\t\t\tcontract DAOToken is ERC20, ER...\n      JUMPI \t\t\tcontract DAOToken is ERC20, ER...\n      DUP1 \t\t\tcontract DAOToken is ERC20, ER...\n      PUSH 4BF5D7E9\t\t\tcontract DAOToken is ERC20, ER...\n      EQ \t\t\tcontract DAOToken is ERC20, ER...\n      PUSH [tag] 13\t\t\tcontract DAOToken is ERC20, ER...\n      JUMPI \t\t\tcontract DAOToken is ERC20, ER...\n      PUSH [tag] 2\t\t\tcontract DAOToken is ERC20, ER...\n      JUMP \t\t\tcontract DAOToken is ERC20, ER...\n    tag 38\t\t\tcontract DAOToken is ERC20, ER...\n      JUMPDEST \t\t\tcontract DAOToken is ERC20, ER...\n      DUP1 \t\t\tcontract DAOToken is ERC20, ER...\n      PUSH 23B872DD\t\t\tcontract DAOToken is ERC20, ER...\n      GT \t\t\tcontract DAOToken is ERC20, ER...\n      PUSH [tag] 40\t\t\tcontract DAOToken is ERC20, ER...\n      JUMPI \t\t\tcontract DAOToken is ERC20, ER...\n      DUP1 \t\t\tcontract DAOToken is ERC20, ER...\n      PUSH 23B872DD\t\t\tcontract DAOToken is ERC20, ER...\n      EQ \t\t\tcontract DAOToken is ERC20, ER...\n      PUSH [tag] 6\t\t\tcontract DAOToken is ERC20, ER...\n      JUMPI \t\t\tcontract DAOToken is ERC20, ER...\n      DUP1 \t\t\tcontract DAOToken is ERC20, ER...\n      PUSH 2FF2E9DC\t\t\tcontract DAOToken is ERC20, ER...\n      EQ \t\t\tcontract DAOToken is ERC20, ER...\n      PUSH [tag] 7\t\t\tcontract DAOToken is ERC20, ER...\n      JUMPI \t\t\tcontract DAOToken is ERC20, ER...\n      DUP1 \t\t\tcontract DAOToken is ERC20, ER...\n      PUSH 3092AFD5\t\t\tcontract DAOToken is ERC20, ER...\n      EQ \t\t\tcontract DAOToken is ERC20, ER...\n      PUSH [tag] 8\t\t\tcontract DAOToken is ERC20, ER...\n      JUMPI \t\t\tcontract DAOToken is ERC20, ER...\n      DUP1 \t\t\tcontract DAOToken is ERC20, ER...\n      PUSH 313CE567\t\t\tcontract DAOToken is ERC20, ER...\n      EQ \t\t\tcontract DAOToken is ERC20, ER...\n      PUSH [tag] 9\t\t\tcontract DAOToken is ERC20, ER...\n      JUMPI \t\t\tcontract DAOToken is ERC20, ER...\n      PUSH [tag] 2\t\t\tcontract DAOToken is ERC20, ER...\n      JUMP \t\t\tcontract DAOToken is ERC20, ER...\n    tag 40\t\t\tcontract DAOToken is ERC20, ER...\n      JUMPDEST \t\t\tcontract DAOToken is ERC20, ER...\n      DUP1 \t\t\tcontract DAOToken is ERC20, ER...\n      PUSH 6FDDE03\t\t\tcontract DAOToken is ERC20, ER...\n      EQ \t\t\tcontract DAOToken is ERC20, ER...\n      PUSH [tag] 3\t\t\tcontract DAOToken is ERC20, ER...\n      JUMPI \t\t\tcontract DAOToken is ERC20, ER...\n      DUP1 \t\t\tcontract DAOToken is ERC20, ER...\n      PUSH 95EA7B3\t\t\tcontract DAOToken is ERC20, ER...\n      EQ \t\t\tcontract DAOToken is ERC20, ER...\n      PUSH [tag] 4\t\t\tcontract DAOToken is ERC20, ER...\n      JUMPI \t\t\tcontract DAOToken is ERC20, ER...\n      DUP1 \t\t\tcontract DAOToken is ERC20, ER...\n      PUSH 18160DDD\t\t\tcontract DAOToken is ERC20, ER...\n      EQ \t\t\tcontract DAOToken is ERC20, ER...\n      PUSH [tag] 5\t\t\tcontract DAOToken is ERC20, ER...\n      JUMPI \t\t\tcontract DAOToken is ERC20, ER...\n    tag 2\t\t\tcontract DAOToken is ERC20, ER...\n      JUMPDEST \t\t\tcontract DAOToken is ERC20, ER...\n      PUSH 0\t\t\tcontract DAOToken is ERC20, ER...\n      PUSH 0\t\t\tcontract DAOToken is ERC20, ER...\n      REVERT \t\t\tcontract DAOToken is ERC20, ER...\n    tag 3\t\t\t = true;\\r\\n    }\\r\\n    \\r\\n ...\n      JUMPDEST \t\t\t = true;\\r\\n    }\\r\\n    \\r\\n ...\n      PUSH [tag] 41\t\t\t = true;\\r\\n    }\\r\\n    \\r\\n ...\n      PUSH [tag] 42\t\t\t = true;\\r\\n    }\\r\\n    \\r\\n ...\n      JUMP \t\t\t = true;\\r\\n    }\\r\\n    \\r\\n ...\n    tag 41\t\t\t = true;\\r\\n    }\\r\\n    \\r\\n ...\n      JUMPDEST \t\t\t = true;\\r\\n    }\\r\\n    \\r\\n ...\n      PUSH 40\t\t\t = true;\\r\\n    }\\r\\n    \\r\\n ...\n      MLOAD \t\t\t = true;\\r\\n    }\\r\\n    \\r\\n ...\n      PUSH [tag] 43\t\t\t = true;\\r\\n    }\\r\\n    \\r\\n ...\n      SWAP2 \t\t\t = true;\\r\\n    }\\r\\n    \\r\\n ...\n      SWAP1 \t\t\t = true;\\r\\n    }\\r\\n    \\r\\n ...\n      PUSH [tag] 44\t\t\t = true;\\r\\n    }\\r\\n    \\r\\n ...\n      JUMP \t\t\t = true;\\r\\n    }\\r\\n    \\r\\n ...\n    tag 43\t\t\t = true;\\r\\n    }\\r\\n    \\r\\n ...\n      JUMPDEST \t\t\t = true;\\r\\n    }\\r\\n    \\r\\n ...\n      PUSH 40\t\t\t = true;\\r\\n    }\\r\\n    \\r\\n ...\n      MLOAD \t\t\t = true;\\r\\n    }\\r\\n    \\r\\n ...\n      DUP1 \t\t\t = true;\\r\\n    }\\r\\n    \\r\\n ...\n      SWAP2 \t\t\t = true;\\r\\n    }\\r\\n    \\r\\n ...\n      SUB \t\t\t = true;\\r\\n    }\\r\\n    \\r\\n ...\n      SWAP1 \t\t\t = true;\\r\\n    }\\r\\n    \\r\\n ...\n      RETURN \t\t\t = true;\\r\\n    }\\r\\n    \\r\\n ...\n    tag 4\t\t\tl, and refunds for specific gi...\n      JUMPDEST \t\t\tl, and refunds for specific gi...\n      PUSH [tag] 45\t\t\tl, and refunds for specific gi...\n      PUSH 4\t\t\tl, and refunds for specific gi...\n      DUP1 \t\t\tl, and refunds for specific gi...\n      CALLDATASIZE \t\t\tl, and refunds for specific gi...\n      SUB \t\t\tl, and refunds for specific gi...\n      DUP2 \t\t\tl, and refunds for specific gi...\n      ADD \t\t\tl, and refunds for specific gi...\n      SWAP1 \t\t\tl, and refunds for specific gi...\n      PUSH [tag] 46\t\t\tl, and refunds for specific gi...\n      SWAP2 \t\t\tl, and refunds for specific gi...\n      SWAP1 \t\t\tl, and refunds for specific gi...\n      PUSH [tag] 47\t\t\tl, and refunds for specific gi...\n      JUMP \t\t\tl, and refunds for specific gi...\n    tag 46\t\t\tl, and refunds for specific gi...\n      JUMPDEST \t\t\tl, and refunds for specific gi...\n      PUSH [tag] 48\t\t\tl, and refunds for specific gi...\n      JUMP \t\t\tl, and refunds for specific gi...\n    tag 45\t\t\tl, and refunds for specific gi...\n      JUMPDEST \t\t\tl, and refunds for specific gi...\n      PUSH 40\t\t\tl, and refunds for specific gi...\n      MLOAD \t\t\tl, and refunds for specific gi...\n      PUSH [tag] 49\t\t\tl, and refunds for specific gi...\n      SWAP2 \t\t\tl, and refunds for specific gi...\n      SWAP1 \t\t\tl, and refunds for specific gi...\n      PUSH [tag] 50\t\t\tl, and refunds for specific gi...\n      JUMP \t\t\tl, and refunds for specific gi...\n    tag 49\t\t\tl, and refunds for specific gi...\n      JUMPDEST \t\t\tl, and refunds for specific gi...\n      PUSH 40\t\t\tl, and refunds for specific gi...\n      MLOAD \t\t\tl, and refunds for specific gi...\n      DUP1 \t\t\tl, and refunds for specific gi...\n      SWAP2 \t\t\tl, and refunds for specific gi...\n      SUB \t\t\tl, and refunds for specific gi...\n      SWAP1 \t\t\tl, and refunds for specific gi...\n      RETURN \t\t\tl, and refunds for specific gi...\n    tag 5\t\t\tistribute\\r\\n     */\\r\\n    fu...\n      JUMPDEST \t\t\tistribute\\r\\n     */\\r\\n    fu...\n      PUSH [tag] 51\t\t\tistribute\\r\\n     */\\r\\n    fu...\n      PUSH [tag] 52\t\t\tistribute\\r\\n     */\\r\\n    fu...\n      JUMP \t\t\tistribute\\r\\n     */\\r\\n    fu...\n    tag 51\t\t\tistribute\\r\\n     */\\r\\n    fu...\n      JUMPDEST \t\t\tistribute\\r\\n     */\\r\\n    fu...\n      PUSH 40\t\t\tistribute\\r\\n     */\\r\\n    fu...\n      MLOAD \t\t\tistribute\\r\\n     */\\r\\n    fu...\n      PUSH [tag] 53\t\t\tistribute\\r\\n     */\\r\\n    fu...\n      SWAP2 \t\t\tistribute\\r\\n     */\\r\\n    fu...\n      SWAP1 \t\t\tistribute\\r\\n     */\\r\\n    fu...\n      PUSH [tag] 54\t\t\tistribute\\r\\n     */\\r\\n    fu...\n      JUMP \t\t\tistribute\\r\\n     */\\r\\n    fu...\n    tag 53\t\t\tistribute\\r\\n     */\\r\\n    fu...\n      JUMPDEST \t\t\tistribute\\r\\n     */\\r\\n    fu...\n      PUSH 40\t\t\tistribute\\r\\n     */\\r\\n    fu...\n      MLOAD \t\t\tistribute\\r\\n     */\\r\\n    fu...\n      DUP1 \t\t\tistribute\\r\\n     */\\r\\n    fu...\n      SWAP2 \t\t\tistribute\\r\\n     */\\r\\n    fu...\n      SUB \t\t\tistribute\\r\\n     */\\r\\n    fu...\n      SWAP1 \t\t\tistribute\\r\\n     */\\r\\n    fu...\n      RETURN \t\t\tistribute\\r\\n     */\\r\\n    fu...\n    tag 6\t\t\t56[]) public clientEscrows;\\r\\...\n      JUMPDEST \t\t\t56[]) public clientEscrows;\\r\\...\n      PUSH [tag] 55\t\t\t56[]) public clientEscrows;\\r\\...\n      PUSH 4\t\t\t56[]) public clientEscrows;\\r\\...\n      DUP1 \t\t\t56[]) public clientEscrows;\\r\\...\n      CALLDATASIZE \t\t\t56[]) public clientEscrows;\\r\\...\n      SUB \t\t\t56[]) public clientEscrows;\\r\\...\n      DUP2 \t\t\t56[]) public clientEscrows;\\r\\...\n      ADD \t\t\t56[]) public clientEscrows;\\r\\...\n      SWAP1 \t\t\t56[]) public clientEscrows;\\r\\...\n      PUSH [tag] 56\t\t\t56[]) public clientEscrows;\\r\\...\n      SWAP2 \t\t\t56[]) public clientEscrows;\\r\\...\n      SWAP1 \t\t\t56[]) public clientEscrows;\\r\\...\n      PUSH [tag] 57\t\t\t56[]) public clientEscrows;\\r\\...\n      JUMP \t\t\t56[]) public clientEscrows;\\r\\...\n    tag 56\t\t\t56[]) public clientEscrows;\\r\\...\n      JUMPDEST \t\t\t56[]) public clientEscrows;\\r\\...\n      PUSH [tag] 58\t\t\t56[]) public clientEscrows;\\r\\...\n      JUMP \t\t\t56[]) public clientEscrows;\\r\\...\n    tag 55\t\t\t56[]) public clientEscrows;\\r\\...\n      JUMPDEST \t\t\t56[]) public clientEscrows;\\r\\...\n      PUSH 40\t\t\t56[]) public clientEscrows;\\r\\...\n      MLOAD \t\t\t56[]) public clientEscrows;\\r\\...\n      PUSH [tag] 59\t\t\t56[]) public clientEscrows;\\r\\...\n      SWAP2 \t\t\t56[]) public clientEscrows;\\r\\...\n      SWAP1 \t\t\t56[]) public clientEscrows;\\r\\...\n      PUSH [tag] 50\t\t\t56[]) public clientEscrows;\\r\\...\n      JUMP \t\t\t56[]) public clientEscrows;\\r\\...\n    tag 59\t\t\t56[]) public clientEscrows;\\r\\...\n      JUMPDEST \t\t\t56[]) public clientEscrows;\\r\\...\n      PUSH 40\t\t\t56[]) public clientEscrows;\\r\\...\n      MLOAD \t\t\t56[]) public clientEscrows;\\r\\...\n      DUP1 \t\t\t56[]) public clientEscrows;\\r\\...\n      SWAP2 \t\t\t56[]) public clientEscrows;\\r\\...\n      SUB \t\t\t56[]) public clientEscrows;\\r\\...\n      SWAP1 \t\t\t56[]) public clientEscrows;\\r\\...\n      RETURN \t\t\t56[]) public clientEscrows;\\r\\...\n    tag 7\t\t\tuint256 public constant INITIA...\n      JUMPDEST \t\t\tuint256 public constant INITIA...\n      PUSH [tag] 60\t\t\tuint256 public constant INITIA...\n      PUSH [tag] 61\t\t\tuint256 public constant INITIA...\n      JUMP \t\t\tuint256 public constant INITIA...\n    tag 60\t\t\tuint256 public constant INITIA...\n      JUMPDEST \t\t\tuint256 public constant INITIA...\n      PUSH 40\t\t\tuint256 public constant INITIA...\n      MLOAD \t\t\tuint256 public constant INITIA...\n      PUSH [tag] 62\t\t\tuint256 public constant INITIA...\n      SWAP2 \t\t\tuint256 public constant INITIA...\n      SWAP1 \t\t\tuint256 public constant INITIA...\n      PUSH [tag] 54\t\t\tuint256 public constant INITIA...\n      JUMP \t\t\tuint256 public constant INITIA...\n    tag 62\t\t\tuint256 public constant INITIA...\n      JUMPDEST \t\t\tuint256 public constant INITIA...\n      PUSH 40\t\t\tuint256 public constant INITIA...\n      MLOAD \t\t\tuint256 public constant INITIA...\n      DUP1 \t\t\tuint256 public constant INITIA...\n      SWAP2 \t\t\tuint256 public constant INITIA...\n      SUB \t\t\tuint256 public constant INITIA...\n      SWAP1 \t\t\tuint256 public constant INITIA...\n      RETURN \t\t\tuint256 public constant INITIA...\n    tag 8\t\t\tfunction removeMinter(address ...\n      JUMPDEST \t\t\tfunction removeMinter(address ...\n      PUSH [tag] 63\t\t\tfunction removeMinter(address ...\n      PUSH 4\t\t\tfunction removeMinter(address ...\n      DUP1 \t\t\tfunction removeMinter(address ...\n      CALLDATASIZE \t\t\tfunction removeMinter(address ...\n      SUB \t\t\tfunction removeMinter(address ...\n      DUP2 \t\t\tfunction removeMinter(address ...\n      ADD \t\t\tfunction removeMinter(address ...\n      SWAP1 \t\t\tfunction removeMinter(address ...\n      PUSH [tag] 64\t\t\tfunction removeMinter(address ...\n      SWAP2 \t\t\tfunction removeMinter(address ...\n      SWAP1 \t\t\tfunction removeMinter(address ...\n      PUSH [tag] 65\t\t\tfunction removeMinter(address ...\n      JUMP \t\t\tfunction removeMinter(address ...\n    tag 64\t\t\tfunction removeMinter(address ...\n      JUMPDEST \t\t\tfunction removeMinter(address ...\n      PUSH [tag] 66\t\t\tfunction removeMinter(address ...\n      JUMP \t\t\tfunction removeMinter(address ...\n    tag 63\t\t\tfunction removeMinter(address ...\n      JUMPDEST \t\t\tfunction removeMinter(address ...\n      STOP \t\t\tfunction removeMinter(address ...\n    tag 9\t\t\tsting/airdrops)\\r\\n     * @par...\n      JUMPDEST \t\t\tsting/airdrops)\\r\\n     * @par...\n      PUSH [tag] 67\t\t\tsting/airdrops)\\r\\n     * @par...\n      PUSH [tag] 68\t\t\tsting/airdrops)\\r\\n     * @par...\n      JUMP \t\t\tsting/airdrops)\\r\\n     * @par...\n    tag 67\t\t\tsting/airdrops)\\r\\n     * @par...\n      JUMPDEST \t\t\tsting/airdrops)\\r\\n     * @par...\n      PUSH 40\t\t\tsting/airdrops)\\r\\n     * @par...\n      MLOAD \t\t\tsting/airdrops)\\r\\n     * @par...\n      PUSH [tag] 69\t\t\tsting/airdrops)\\r\\n     * @par...\n      SWAP2 \t\t\tsting/airdrops)\\r\\n     * @par...\n      SWAP1 \t\t\tsting/airdrops)\\r\\n     * @par...\n      PUSH [tag] 70\t\t\tsting/airdrops)\\r\\n     * @par...\n      JUMP \t\t\tsting/airdrops)\\r\\n     * @par...\n    tag 69\t\t\tsting/airdrops)\\r\\n     * @par...\n      JUMPDEST \t\t\tsting/airdrops)\\r\\n     * @par...\n      PUSH 40\t\t\tsting/airdrops)\\r\\n     * @par...\n      MLOAD \t\t\tsting/airdrops)\\r\\n     * @par...\n      DUP1 \t\t\tsting/airdrops)\\r\\n     * @par...\n      SWAP2 \t\t\tsting/airdrops)\\r\\n     * @par...\n      SUB \t\t\tsting/airdrops)\\r\\n     * @par...\n      SWAP1 \t\t\tsting/airdrops)\\r\\n     * @par...\n      RETURN \t\t\tsting/airdrops)\\r\\n     * @par...\n    tag 10\t\t\tuint256 public constant MAX_SU...\n      JUMPDEST \t\t\tuint256 public constant MAX_SU...\n      PUSH [tag] 71\t\t\tuint256 public constant MAX_SU...\n      PUSH [tag] 72\t\t\tuint256 public constant MAX_SU...\n      JUMP \t\t\tuint256 public constant MAX_SU...\n    tag 71\t\t\tuint256 public constant MAX_SU...\n      JUMPDEST \t\t\tuint256 public constant MAX_SU...\n      PUSH 40\t\t\tuint256 public constant MAX_SU...\n      MLOAD \t\t\tuint256 public constant MAX_SU...\n      PUSH [tag] 73\t\t\tuint256 public constant MAX_SU...\n      SWAP2 \t\t\tuint256 public constant MAX_SU...\n      SWAP1 \t\t\tuint256 public constant MAX_SU...\n      PUSH [tag] 54\t\t\tuint256 public constant MAX_SU...\n      JUMP \t\t\tuint256 public constant MAX_SU...\n    tag 73\t\t\tuint256 public constant MAX_SU...\n      JUMPDEST \t\t\tuint256 public constant MAX_SU...\n      PUSH 40\t\t\tuint256 public constant MAX_SU...\n      MLOAD \t\t\tuint256 public constant MAX_SU...\n      DUP1 \t\t\tuint256 public constant MAX_SU...\n      SWAP2 \t\t\tuint256 public constant MAX_SU...\n      SUB \t\t\tuint256 public constant MAX_SU...\n      SWAP1 \t\t\tuint256 public constant MAX_SU...\n      RETURN \t\t\tuint256 public constant MAX_SU...\n    tag 11\t\t\tuires DAO voting\\r\\n    }\\r\\n ...\n      JUMPDEST \t\t\tuires DAO voting\\r\\n    }\\r\\n ...\n      PUSH [tag] 74\t\t\tuires DAO voting\\r\\n    }\\r\\n ...\n      PUSH 4\t\t\tuires DAO voting\\r\\n    }\\r\\n ...\n      DUP1 \t\t\tuires DAO voting\\r\\n    }\\r\\n ...\n      CALLDATASIZE \t\t\tuires DAO voting\\r\\n    }\\r\\n ...\n      SUB \t\t\tuires DAO voting\\r\\n    }\\r\\n ...\n      DUP2 \t\t\tuires DAO voting\\r\\n    }\\r\\n ...\n      ADD \t\t\tuires DAO voting\\r\\n    }\\r\\n ...\n      SWAP1 \t\t\tuires DAO voting\\r\\n    }\\r\\n ...\n      PUSH [tag] 75\t\t\tuires DAO voting\\r\\n    }\\r\\n ...\n      SWAP2 \t\t\tuires DAO voting\\r\\n    }\\r\\n ...\n      SWAP1 \t\t\tuires DAO voting\\r\\n    }\\r\\n ...\n      PUSH [tag] 47\t\t\tuires DAO voting\\r\\n    }\\r\\n ...\n      JUMP \t\t\tuires DAO voting\\r\\n    }\\r\\n ...\n    tag 75\t\t\tuires DAO voting\\r\\n    }\\r\\n ...\n      JUMPDEST \t\t\tuires DAO voting\\r\\n    }\\r\\n ...\n      PUSH [tag] 76\t\t\tuires DAO voting\\r\\n    }\\r\\n ...\n      JUMP \t\t\tuires DAO voting\\r\\n    }\\r\\n ...\n    tag 74\t\t\tuires DAO voting\\r\\n    }\\r\\n ...\n      JUMPDEST \t\t\tuires DAO voting\\r\\n    }\\r\\n ...\n      PUSH 40\t\t\tuires DAO voting\\r\\n    }\\r\\n ...\n      MLOAD \t\t\tuires DAO voting\\r\\n    }\\r\\n ...\n      PUSH [tag] 77\t\t\tuires DAO voting\\r\\n    }\\r\\n ...\n      SWAP2 \t\t\tuires DAO voting\\r\\n    }\\r\\n ...\n      SWAP1 \t\t\tuires DAO voting\\r\\n    }\\r\\n ...\n      PUSH [tag] 54\t\t\tuires DAO voting\\r\\n    }\\r\\n ...\n      JUMP \t\t\tuires DAO voting\\r\\n    }\\r\\n ...\n    tag 77\t\t\tuires DAO voting\\r\\n    }\\r\\n ...\n      JUMPDEST \t\t\tuires DAO voting\\r\\n    }\\r\\n ...\n      PUSH 40\t\t\tuires DAO voting\\r\\n    }\\r\\n ...\n      MLOAD \t\t\tuires DAO voting\\r\\n    }\\r\\n ...\n      DUP1 \t\t\tuires DAO voting\\r\\n    }\\r\\n ...\n      SWAP2 \t\t\tuires DAO voting\\r\\n    }\\r\\n ...\n      SUB \t\t\tuires DAO voting\\r\\n    }\\r\\n ...\n      SWAP1 \t\t\tuires DAO voting\\r\\n    }\\r\\n ...\n      RETURN \t\t\tuires DAO voting\\r\\n    }\\r\\n ...\n    tag 12\t\t\tfunction mint(address to, uint...\n      JUMPDEST \t\t\tfunction mint(address to, uint...\n      PUSH [tag] 78\t\t\tfunction mint(address to, uint...\n      PUSH 4\t\t\tfunction mint(address to, uint...\n      DUP1 \t\t\tfunction mint(address to, uint...\n      CALLDATASIZE \t\t\tfunction mint(address to, uint...\n      SUB \t\t\tfunction mint(address to, uint...\n      DUP2 \t\t\tfunction mint(address to, uint...\n      ADD \t\t\tfunction mint(address to, uint...\n      SWAP1 \t\t\tfunction mint(address to, uint...\n      PUSH [tag] 79\t\t\tfunction mint(address to, uint...\n      SWAP2 \t\t\tfunction mint(address to, uint...\n      SWAP1 \t\t\tfunction mint(address to, uint...\n      PUSH [tag] 47\t\t\tfunction mint(address to, uint...\n      JUMP \t\t\tfunction mint(address to, uint...\n    tag 79\t\t\tfunction mint(address to, uint...\n      JUMPDEST \t\t\tfunction mint(address to, uint...\n      PUSH [tag] 80\t\t\tfunction mint(address to, uint...\n      JUMP \t\t\tfunction mint(address to, uint...\n    tag 78\t\t\tfunction mint(address to, uint...\n      JUMPDEST \t\t\tfunction mint(address to, uint...\n      STOP \t\t\tfunction mint(address to, uint...\n    tag 13\t\t\tAmount = 0;\\r\\n        for (ui...\n      JUMPDEST \t\t\tAmount = 0;\\r\\n        for (ui...\n      PUSH [tag] 81\t\t\tAmount = 0;\\r\\n        for (ui...\n      PUSH [tag] 82\t\t\tAmount = 0;\\r\\n        for (ui...\n      JUMP \t\t\tAmount = 0;\\r\\n        for (ui...\n    tag 81\t\t\tAmount = 0;\\r\\n        for (ui...\n      JUMPDEST \t\t\tAmount = 0;\\r\\n        for (ui...\n      PUSH 40\t\t\tAmount = 0;\\r\\n        for (ui...\n      MLOAD \t\t\tAmount = 0;\\r\\n        for (ui...\n      PUSH [tag] 83\t\t\tAmount = 0;\\r\\n        for (ui...\n      SWAP2 \t\t\tAmount = 0;\\r\\n        for (ui...\n      SWAP1 \t\t\tAmount = 0;\\r\\n        for (ui...\n      PUSH [tag] 44\t\t\tAmount = 0;\\r\\n        for (ui...\n      JUMP \t\t\tAmount = 0;\\r\\n        for (ui...\n    tag 83\t\t\tAmount = 0;\\r\\n        for (ui...\n      JUMPDEST \t\t\tAmount = 0;\\r\\n        for (ui...\n      PUSH 40\t\t\tAmount = 0;\\r\\n        for (ui...\n      MLOAD \t\t\tAmount = 0;\\r\\n        for (ui...\n      DUP1 \t\t\tAmount = 0;\\r\\n        for (ui...\n      SWAP2 \t\t\tAmount = 0;\\r\\n        for (ui...\n      SUB \t\t\tAmount = 0;\\r\\n        for (ui...\n      SWAP1 \t\t\tAmount = 0;\\r\\n        for (ui...\n      RETURN \t\t\tAmount = 0;\\r\\n        for (ui...\n    tag 14\t\t\t        require(escrows[gigId]...\n      JUMPDEST \t\t\t        require(escrows[gigId]...\n      PUSH [tag] 84\t\t\t        require(escrows[gigId]...\n      PUSH 4\t\t\t        require(escrows[gigId]...\n      DUP1 \t\t\t        require(escrows[gigId]...\n      CALLDATASIZE \t\t\t        require(escrows[gigId]...\n      SUB \t\t\t        require(escrows[gigId]...\n      DUP2 \t\t\t        require(escrows[gigId]...\n      ADD \t\t\t        require(escrows[gigId]...\n      SWAP1 \t\t\t        require(escrows[gigId]...\n      PUSH [tag] 85\t\t\t        require(escrows[gigId]...\n      SWAP2 \t\t\t        require(escrows[gigId]...\n      SWAP1 \t\t\t        require(escrows[gigId]...\n      PUSH [tag] 65\t\t\t        require(escrows[gigId]...\n      JUMP \t\t\t        require(escrows[gigId]...\n    tag 85\t\t\t        require(escrows[gigId]...\n      JUMPDEST \t\t\t        require(escrows[gigId]...\n      PUSH [tag] 86\t\t\t        require(escrows[gigId]...\n      JUMP \t\t\t        require(escrows[gigId]...\n    tag 84\t\t\t        require(escrows[gigId]...\n      JUMPDEST \t\t\t        require(escrows[gigId]...\n      PUSH 40\t\t\t        require(escrows[gigId]...\n      MLOAD \t\t\t        require(escrows[gigId]...\n      PUSH [tag] 87\t\t\t        require(escrows[gigId]...\n      SWAP2 \t\t\t        require(escrows[gigId]...\n      SWAP1 \t\t\t        require(escrows[gigId]...\n      PUSH [tag] 88\t\t\t        require(escrows[gigId]...\n      JUMP \t\t\t        require(escrows[gigId]...\n    tag 87\t\t\t        require(escrows[gigId]...\n      JUMPDEST \t\t\t        require(escrows[gigId]...\n      PUSH 40\t\t\t        require(escrows[gigId]...\n      MLOAD \t\t\t        require(escrows[gigId]...\n      DUP1 \t\t\t        require(escrows[gigId]...\n      SWAP2 \t\t\t        require(escrows[gigId]...\n      SUB \t\t\t        require(escrows[gigId]...\n      SWAP1 \t\t\t        require(escrows[gigId]...\n      RETURN \t\t\t        require(escrows[gigId]...\n    tag 15\t\t\tent can call this\");\\r\\n      ...\n      JUMPDEST \t\t\tent can call this\");\\r\\n      ...\n      PUSH [tag] 89\t\t\tent can call this\");\\r\\n      ...\n      PUSH 4\t\t\tent can call this\");\\r\\n      ...\n      DUP1 \t\t\tent can call this\");\\r\\n      ...\n      CALLDATASIZE \t\t\tent can call this\");\\r\\n      ...\n      SUB \t\t\tent can call this\");\\r\\n      ...\n      DUP2 \t\t\tent can call this\");\\r\\n      ...\n      ADD \t\t\tent can call this\");\\r\\n      ...\n      SWAP1 \t\t\tent can call this\");\\r\\n      ...\n      PUSH [tag] 90\t\t\tent can call this\");\\r\\n      ...\n      SWAP2 \t\t\tent can call this\");\\r\\n      ...\n      SWAP1 \t\t\tent can call this\");\\r\\n      ...\n      PUSH [tag] 65\t\t\tent can call this\");\\r\\n      ...\n      JUMP \t\t\tent can call this\");\\r\\n      ...\n    tag 90\t\t\tent can call this\");\\r\\n      ...\n      JUMPDEST \t\t\tent can call this\");\\r\\n      ...\n      PUSH [tag] 91\t\t\tent can call this\");\\r\\n      ...\n      JUMP \t\t\tent can call this\");\\r\\n      ...\n    tag 89\t\t\tent can call this\");\\r\\n      ...\n      JUMPDEST \t\t\tent can call this\");\\r\\n      ...\n      STOP \t\t\tent can call this\");\\r\\n      ...\n    tag 16\t\t\tfunction batchMint(address[] c...\n      JUMPDEST \t\t\tfunction batchMint(address[] c...\n      PUSH [tag] 92\t\t\tfunction batchMint(address[] c...\n      PUSH 4\t\t\tfunction batchMint(address[] c...\n      DUP1 \t\t\tfunction batchMint(address[] c...\n      CALLDATASIZE \t\t\tfunction batchMint(address[] c...\n      SUB \t\t\tfunction batchMint(address[] c...\n      DUP2 \t\t\tfunction batchMint(address[] c...\n      ADD \t\t\tfunction batchMint(address[] c...\n      SWAP1 \t\t\tfunction batchMint(address[] c...\n      PUSH [tag] 93\t\t\tfunction batchMint(address[] c...\n      SWAP2 \t\t\tfunction batchMint(address[] c...\n      SWAP1 \t\t\tfunction batchMint(address[] c...\n      PUSH [tag] 94\t\t\tfunction batchMint(address[] c...\n      JUMP \t\t\tfunction batchMint(address[] c...\n    tag 93\t\t\tfunction batchMint(address[] c...\n      JUMPDEST \t\t\tfunction batchMint(address[] c...\n      PUSH [tag] 95\t\t\tfunction batchMint(address[] c...\n      JUMP \t\t\tfunction batchMint(address[] c...\n    tag 92\t\t\tfunction batchMint(address[] c...\n      JUMPDEST \t\t\tfunction batchMint(address[] c...\n      STOP \t\t\tfunction batchMint(address[] c...\n    tag 17\t\t\t max supply\");\\r\\n        \\r\\n...\n      JUMPDEST \t\t\t max supply\");\\r\\n        \\r\\n...\n      PUSH [tag] 96\t\t\t max supply\");\\r\\n        \\r\\n...\n      PUSH 4\t\t\t max supply\");\\r\\n        \\r\\n...\n      DUP1 \t\t\t max supply\");\\r\\n        \\r\\n...\n      CALLDATASIZE \t\t\t max supply\");\\r\\n        \\r\\n...\n      SUB \t\t\t max supply\");\\r\\n        \\r\\n...\n      DUP2 \t\t\t max supply\");\\r\\n        \\r\\n...\n      ADD \t\t\t max supply\");\\r\\n        \\r\\n...\n      SWAP1 \t\t\t max supply\");\\r\\n        \\r\\n...\n      PUSH [tag] 97\t\t\t max supply\");\\r\\n        \\r\\n...\n      SWAP2 \t\t\t max supply\");\\r\\n        \\r\\n...\n      SWAP1 \t\t\t max supply\");\\r\\n        \\r\\n...\n      PUSH [tag] 65\t\t\t max supply\");\\r\\n        \\r\\n...\n      JUMP \t\t\t max supply\");\\r\\n        \\r\\n...\n    tag 97\t\t\t max supply\");\\r\\n        \\r\\n...\n      JUMPDEST \t\t\t max supply\");\\r\\n        \\r\\n...\n      PUSH [tag] 98\t\t\t max supply\");\\r\\n        \\r\\n...\n      JUMP \t\t\t max supply\");\\r\\n        \\r\\n...\n    tag 96\t\t\t max supply\");\\r\\n        \\r\\n...\n      JUMPDEST \t\t\t max supply\");\\r\\n        \\r\\n...\n      PUSH 40\t\t\t max supply\");\\r\\n        \\r\\n...\n      MLOAD \t\t\t max supply\");\\r\\n        \\r\\n...\n      PUSH [tag] 99\t\t\t max supply\");\\r\\n        \\r\\n...\n      SWAP2 \t\t\t max supply\");\\r\\n        \\r\\n...\n      SWAP1 \t\t\t max supply\");\\r\\n        \\r\\n...\n      PUSH [tag] 100\t\t\t max supply\");\\r\\n        \\r\\n...\n      JUMP \t\t\t max supply\");\\r\\n        \\r\\n...\n    tag 99\t\t\t max supply\");\\r\\n        \\r\\n...\n      JUMPDEST \t\t\t max supply\");\\r\\n        \\r\\n...\n      PUSH 40\t\t\t max supply\");\\r\\n        \\r\\n...\n      MLOAD \t\t\t max supply\");\\r\\n        \\r\\n...\n      DUP1 \t\t\t max supply\");\\r\\n        \\r\\n...\n      SWAP2 \t\t\t max supply\");\\r\\n        \\r\\n...\n      SUB \t\t\t max supply\");\\r\\n        \\r\\n...\n      SWAP1 \t\t\t max supply\");\\r\\n        \\r\\n...\n      RETURN \t\t\t max supply\");\\r\\n        \\r\\n...\n    tag 18\t\t\t   require(recipients.length =...\n      JUMPDEST \t\t\t   require(recipients.length =...\n      PUSH [tag] 101\t\t\t   require(recipients.length =...\n      PUSH 4\t\t\t   require(recipients.length =...\n      DUP1 \t\t\t   require(recipients.length =...\n      CALLDATASIZE \t\t\t   require(recipients.length =...\n      SUB \t\t\t   require(recipients.length =...\n      DUP2 \t\t\t   require(recipients.length =...\n      ADD \t\t\t   require(recipients.length =...\n      SWAP1 \t\t\t   require(recipients.length =...\n      PUSH [tag] 102\t\t\t   require(recipients.length =...\n      SWAP2 \t\t\t   require(recipients.length =...\n      SWAP1 \t\t\t   require(recipients.length =...\n      PUSH [tag] 65\t\t\t   require(recipients.length =...\n      JUMP \t\t\t   require(recipients.length =...\n    tag 102\t\t\t   require(recipients.length =...\n      JUMPDEST \t\t\t   require(recipients.length =...\n      PUSH [tag] 103\t\t\t   require(recipients.length =...\n      JUMP \t\t\t   require(recipients.length =...\n    tag 101\t\t\t   require(recipients.length =...\n      JUMPDEST \t\t\t   require(recipients.length =...\n      PUSH 40\t\t\t   require(recipients.length =...\n      MLOAD \t\t\t   require(recipients.length =...\n      PUSH [tag] 104\t\t\t   require(recipients.length =...\n      SWAP2 \t\t\t   require(recipients.length =...\n      SWAP1 \t\t\t   require(recipients.length =...\n      PUSH [tag] 54\t\t\t   require(recipients.length =...\n      JUMP \t\t\t   require(recipients.length =...\n    tag 104\t\t\t   require(recipients.length =...\n      JUMPDEST \t\t\t   require(recipients.length =...\n      PUSH 40\t\t\t   require(recipients.length =...\n      MLOAD \t\t\t   require(recipients.length =...\n      DUP1 \t\t\t   require(recipients.length =...\n      SWAP2 \t\t\t   require(recipients.length =...\n      SUB \t\t\t   require(recipients.length =...\n      SWAP1 \t\t\t   require(recipients.length =...\n      RETURN \t\t\t   require(recipients.length =...\n    tag 19\t\t\t\\n        minters[minter] = tr...\n      JUMPDEST \t\t\t\\n        minters[minter] = tr...\n      PUSH [tag] 105\t\t\t\\n        minters[minter] = tr...\n      PUSH [tag] 106\t\t\t\\n        minters[minter] = tr...\n      JUMP \t\t\t\\n        minters[minter] = tr...\n    tag 105\t\t\t\\n        minters[minter] = tr...\n      JUMPDEST \t\t\t\\n        minters[minter] = tr...\n      STOP \t\t\t\\n        minters[minter] = tr...\n    tag 20\t\t\tfunction nonces(address owner)...\n      JUMPDEST \t\t\tfunction nonces(address owner)...\n      PUSH [tag] 107\t\t\tfunction nonces(address owner)...\n      PUSH 4\t\t\tfunction nonces(address owner)...\n      DUP1 \t\t\tfunction nonces(address owner)...\n      CALLDATASIZE \t\t\tfunction nonces(address owner)...\n      SUB \t\t\tfunction nonces(address owner)...\n      DUP2 \t\t\tfunction nonces(address owner)...\n      ADD \t\t\tfunction nonces(address owner)...\n      SWAP1 \t\t\tfunction nonces(address owner)...\n      PUSH [tag] 108\t\t\tfunction nonces(address owner)...\n      SWAP2 \t\t\tfunction nonces(address owner)...\n      SWAP1 \t\t\tfunction nonces(address owner)...\n      PUSH [tag] 65\t\t\tfunction nonces(address owner)...\n      JUMP \t\t\tfunction nonces(address owner)...\n    tag 108\t\t\tfunction nonces(address owner)...\n      JUMPDEST \t\t\tfunction nonces(address owner)...\n      PUSH [tag] 109\t\t\tfunction nonces(address owner)...\n      JUMP \t\t\tfunction nonces(address owner)...\n    tag 107\t\t\tfunction nonces(address owner)...\n      JUMPDEST \t\t\tfunction nonces(address owner)...\n      PUSH 40\t\t\tfunction nonces(address owner)...\n      MLOAD \t\t\tfunction nonces(address owner)...\n      PUSH [tag] 110\t\t\tfunction nonces(address owner)...\n      SWAP2 \t\t\tfunction nonces(address owner)...\n      SWAP1 \t\t\tfunction nonces(address owner)...\n      PUSH [tag] 54\t\t\tfunction nonces(address owner)...\n      JUMP \t\t\tfunction nonces(address owner)...\n    tag 110\t\t\tfunction nonces(address owner)...\n      JUMPDEST \t\t\tfunction nonces(address owner)...\n      PUSH 40\t\t\tfunction nonces(address owner)...\n      MLOAD \t\t\tfunction nonces(address owner)...\n      DUP1 \t\t\tfunction nonces(address owner)...\n      SWAP2 \t\t\tfunction nonces(address owner)...\n      SUB \t\t\tfunction nonces(address owner)...\n      SWAP1 \t\t\tfunction nonces(address owner)...\n      RETURN \t\t\tfunction nonces(address owner)...\n    tag 21\t\t\t   uint256 amount\\r\\n    );\\r\\...\n      JUMPDEST \t\t\t   uint256 amount\\r\\n    );\\r\\...\n      PUSH [tag] 111\t\t\t   uint256 amount\\r\\n    );\\r\\...\n      PUSH [tag] 112\t\t\t   uint256 amount\\r\\n    );\\r\\...\n      JUMP \t\t\t   uint256 amount\\r\\n    );\\r\\...\n    tag 111\t\t\t   uint256 amount\\r\\n    );\\r\\...\n      JUMPDEST \t\t\t   uint256 amount\\r\\n    );\\r\\...\n      PUSH 40\t\t\t   uint256 amount\\r\\n    );\\r\\...\n      MLOAD \t\t\t   uint256 amount\\r\\n    );\\r\\...\n      PUSH [tag] 113\t\t\t   uint256 amount\\r\\n    );\\r\\...\n      SWAP8 \t\t\t   uint256 amount\\r\\n    );\\r\\...\n      SWAP7 \t\t\t   uint256 amount\\r\\n    );\\r\\...\n      SWAP6 \t\t\t   uint256 amount\\r\\n    );\\r\\...\n      SWAP5 \t\t\t   uint256 amount\\r\\n    );\\r\\...\n      SWAP4 \t\t\t   uint256 amount\\r\\n    );\\r\\...\n      SWAP3 \t\t\t   uint256 amount\\r\\n    );\\r\\...\n      SWAP2 \t\t\t   uint256 amount\\r\\n    );\\r\\...\n      SWAP1 \t\t\t   uint256 amount\\r\\n    );\\r\\...\n      PUSH [tag] 114\t\t\t   uint256 amount\\r\\n    );\\r\\...\n      JUMP \t\t\t   uint256 amount\\r\\n    );\\r\\...\n    tag 113\t\t\t   uint256 amount\\r\\n    );\\r\\...\n      JUMPDEST \t\t\t   uint256 amount\\r\\n    );\\r\\...\n      PUSH 40\t\t\t   uint256 amount\\r\\n    );\\r\\...\n      MLOAD \t\t\t   uint256 amount\\r\\n    );\\r\\...\n      DUP1 \t\t\t   uint256 amount\\r\\n    );\\r\\...\n      SWAP2 \t\t\t   uint256 amount\\r\\n    );\\r\\...\n      SUB \t\t\t   uint256 amount\\r\\n    );\\r\\...\n      SWAP1 \t\t\t   uint256 amount\\r\\n    );\\r\\...\n      RETURN \t\t\t   uint256 amount\\r\\n    );\\r\\...\n    tag 22\t\t\talOwner) EIP712(\"SecureGig DAO...\n      JUMPDEST \t\t\talOwner) EIP712(\"SecureGig DAO...\n      PUSH [tag] 115\t\t\talOwner) EIP712(\"SecureGig DAO...\n      PUSH [tag] 116\t\t\talOwner) EIP712(\"SecureGig DAO...\n      JUMP \t\t\talOwner) EIP712(\"SecureGig DAO...\n    tag 115\t\t\talOwner) EIP712(\"SecureGig DAO...\n      JUMPDEST \t\t\talOwner) EIP712(\"SecureGig DAO...\n      PUSH 40\t\t\talOwner) EIP712(\"SecureGig DAO...\n      MLOAD \t\t\talOwner) EIP712(\"SecureGig DAO...\n      PUSH [tag] 117\t\t\talOwner) EIP712(\"SecureGig DAO...\n      SWAP2 \t\t\talOwner) EIP712(\"SecureGig DAO...\n      SWAP1 \t\t\talOwner) EIP712(\"SecureGig DAO...\n      PUSH [tag] 88\t\t\talOwner) EIP712(\"SecureGig DAO...\n      JUMP \t\t\talOwner) EIP712(\"SecureGig DAO...\n    tag 117\t\t\talOwner) EIP712(\"SecureGig DAO...\n      JUMPDEST \t\t\talOwner) EIP712(\"SecureGig DAO...\n      PUSH 40\t\t\talOwner) EIP712(\"SecureGig DAO...\n      MLOAD \t\t\talOwner) EIP712(\"SecureGig DAO...\n      DUP1 \t\t\talOwner) EIP712(\"SecureGig DAO...\n      SWAP2 \t\t\talOwner) EIP712(\"SecureGig DAO...\n      SUB \t\t\talOwner) EIP712(\"SecureGig DAO...\n      SWAP1 \t\t\talOwner) EIP712(\"SecureGig DAO...\n      RETURN \t\t\talOwner) EIP712(\"SecureGig DAO...\n    tag 23\t\t\t\\n    event EscrowFunded(\\r\\n ...\n      JUMPDEST \t\t\t\\n    event EscrowFunded(\\r\\n ...\n      PUSH [tag] 118\t\t\t\\n    event EscrowFunded(\\r\\n ...\n      PUSH 4\t\t\t\\n    event EscrowFunded(\\r\\n ...\n      DUP1 \t\t\t\\n    event EscrowFunded(\\r\\n ...\n      CALLDATASIZE \t\t\t\\n    event EscrowFunded(\\r\\n ...\n      SUB \t\t\t\\n    event EscrowFunded(\\r\\n ...\n      DUP2 \t\t\t\\n    event EscrowFunded(\\r\\n ...\n      ADD \t\t\t\\n    event EscrowFunded(\\r\\n ...\n      SWAP1 \t\t\t\\n    event EscrowFunded(\\r\\n ...\n      PUSH [tag] 119\t\t\t\\n    event EscrowFunded(\\r\\n ...\n      SWAP2 \t\t\t\\n    event EscrowFunded(\\r\\n ...\n      SWAP1 \t\t\t\\n    event EscrowFunded(\\r\\n ...\n      PUSH [tag] 120\t\t\t\\n    event EscrowFunded(\\r\\n ...\n      JUMP \t\t\t\\n    event EscrowFunded(\\r\\n ...\n    tag 119\t\t\t\\n    event EscrowFunded(\\r\\n ...\n      JUMPDEST \t\t\t\\n    event EscrowFunded(\\r\\n ...\n      PUSH [tag] 121\t\t\t\\n    event EscrowFunded(\\r\\n ...\n      JUMP \t\t\t\\n    event EscrowFunded(\\r\\n ...\n    tag 118\t\t\t\\n    event EscrowFunded(\\r\\n ...\n      JUMPDEST \t\t\t\\n    event EscrowFunded(\\r\\n ...\n      PUSH 40\t\t\t\\n    event EscrowFunded(\\r\\n ...\n      MLOAD \t\t\t\\n    event EscrowFunded(\\r\\n ...\n      PUSH [tag] 122\t\t\t\\n    event EscrowFunded(\\r\\n ...\n      SWAP2 \t\t\t\\n    event EscrowFunded(\\r\\n ...\n      SWAP1 \t\t\t\\n    event EscrowFunded(\\r\\n ...\n      PUSH [tag] 54\t\t\t\\n    event EscrowFunded(\\r\\n ...\n      JUMP \t\t\t\\n    event EscrowFunded(\\r\\n ...\n    tag 122\t\t\t\\n    event EscrowFunded(\\r\\n ...\n      JUMPDEST \t\t\t\\n    event EscrowFunded(\\r\\n ...\n      PUSH 40\t\t\t\\n    event EscrowFunded(\\r\\n ...\n      MLOAD \t\t\t\\n    event EscrowFunded(\\r\\n ...\n      DUP1 \t\t\t\\n    event EscrowFunded(\\r\\n ...\n      SWAP2 \t\t\t\\n    event EscrowFunded(\\r\\n ...\n      SUB \t\t\t\\n    event EscrowFunded(\\r\\n ...\n      SWAP1 \t\t\t\\n    event EscrowFunded(\\r\\n ...\n      RETURN \t\t\t\\n    event EscrowFunded(\\r\\n ...\n    tag 24\t\t\tf amounts to distribute\\r\\n   ...\n      JUMPDEST \t\t\tf amounts to distribute\\r\\n   ...\n      PUSH [tag] 123\t\t\tf amounts to distribute\\r\\n   ...\n      PUSH [tag] 124\t\t\tf amounts to distribute\\r\\n   ...\n      JUMP \t\t\tf amounts to distribute\\r\\n   ...\n    tag 123\t\t\tf amounts to distribute\\r\\n   ...\n      JUMPDEST \t\t\tf amounts to distribute\\r\\n   ...\n      PUSH 40\t\t\tf amounts to distribute\\r\\n   ...\n      MLOAD \t\t\tf amounts to distribute\\r\\n   ...\n      PUSH [tag] 125\t\t\tf amounts to distribute\\r\\n   ...\n      SWAP2 \t\t\tf amounts to distribute\\r\\n   ...\n      SWAP1 \t\t\tf amounts to distribute\\r\\n   ...\n      PUSH [tag] 126\t\t\tf amounts to distribute\\r\\n   ...\n      JUMP \t\t\tf amounts to distribute\\r\\n   ...\n    tag 125\t\t\tf amounts to distribute\\r\\n   ...\n      JUMPDEST \t\t\tf amounts to distribute\\r\\n   ...\n      PUSH 40\t\t\tf amounts to distribute\\r\\n   ...\n      MLOAD \t\t\tf amounts to distribute\\r\\n   ...\n      DUP1 \t\t\tf amounts to distribute\\r\\n   ...\n      SWAP2 \t\t\tf amounts to distribute\\r\\n   ...\n      SUB \t\t\tf amounts to distribute\\r\\n   ...\n      SWAP1 \t\t\tf amounts to distribute\\r\\n   ...\n      RETURN \t\t\tf amounts to distribute\\r\\n   ...\n    tag 25\t\t\t mint(address to, uint256 amou...\n      JUMPDEST \t\t\t mint(address to, uint256 amou...\n      PUSH [tag] 127\t\t\t mint(address to, uint256 amou...\n      PUSH [tag] 128\t\t\t mint(address to, uint256 amou...\n      JUMP \t\t\t mint(address to, uint256 amou...\n    tag 127\t\t\t mint(address to, uint256 amou...\n      JUMPDEST \t\t\t mint(address to, uint256 amou...\n      PUSH 40\t\t\t mint(address to, uint256 amou...\n      MLOAD \t\t\t mint(address to, uint256 amou...\n      PUSH [tag] 129\t\t\t mint(address to, uint256 amou...\n      SWAP2 \t\t\t mint(address to, uint256 amou...\n      SWAP1 \t\t\t mint(address to, uint256 amou...\n      PUSH [tag] 44\t\t\t mint(address to, uint256 amou...\n      JUMP \t\t\t mint(address to, uint256 amou...\n    tag 129\t\t\t mint(address to, uint256 amou...\n      JUMPDEST \t\t\t mint(address to, uint256 amou...\n      PUSH 40\t\t\t mint(address to, uint256 amou...\n      MLOAD \t\t\t mint(address to, uint256 amou...\n      DUP1 \t\t\t mint(address to, uint256 amou...\n      SWAP2 \t\t\t mint(address to, uint256 amou...\n      SUB \t\t\t mint(address to, uint256 amou...\n      SWAP1 \t\t\t mint(address to, uint256 amou...\n      RETURN \t\t\t mint(address to, uint256 amou...\n    tag 26\t\t\tfunction addMinter(address min...\n      JUMPDEST \t\t\tfunction addMinter(address min...\n      PUSH [tag] 130\t\t\tfunction addMinter(address min...\n      PUSH 4\t\t\tfunction addMinter(address min...\n      DUP1 \t\t\tfunction addMinter(address min...\n      CALLDATASIZE \t\t\tfunction addMinter(address min...\n      SUB \t\t\tfunction addMinter(address min...\n      DUP2 \t\t\tfunction addMinter(address min...\n      ADD \t\t\tfunction addMinter(address min...\n      SWAP1 \t\t\tfunction addMinter(address min...\n      PUSH [tag] 131\t\t\tfunction addMinter(address min...\n      SWAP2 \t\t\tfunction addMinter(address min...\n      SWAP1 \t\t\tfunction addMinter(address min...\n      PUSH [tag] 65\t\t\tfunction addMinter(address min...\n      JUMP \t\t\tfunction addMinter(address min...\n    tag 131\t\t\tfunction addMinter(address min...\n      JUMPDEST \t\t\tfunction addMinter(address min...\n      PUSH [tag] 132\t\t\tfunction addMinter(address min...\n      JUMP \t\t\tfunction addMinter(address min...\n    tag 130\t\t\tfunction addMinter(address min...\n      JUMPDEST \t\t\tfunction addMinter(address min...\n      STOP \t\t\tfunction addMinter(address min...\n    tag 27\t\t\tv Secure escrow contract for f...\n      JUMPDEST \t\t\tv Secure escrow contract for f...\n      PUSH [tag] 133\t\t\tv Secure escrow contract for f...\n      PUSH 4\t\t\tv Secure escrow contract for f...\n      DUP1 \t\t\tv Secure escrow contract for f...\n      CALLDATASIZE \t\t\tv Secure escrow contract for f...\n      SUB \t\t\tv Secure escrow contract for f...\n      DUP2 \t\t\tv Secure escrow contract for f...\n      ADD \t\t\tv Secure escrow contract for f...\n      SWAP1 \t\t\tv Secure escrow contract for f...\n      PUSH [tag] 134\t\t\tv Secure escrow contract for f...\n      SWAP2 \t\t\tv Secure escrow contract for f...\n      SWAP1 \t\t\tv Secure escrow contract for f...\n      PUSH [tag] 65\t\t\tv Secure escrow contract for f...\n      JUMP \t\t\tv Secure escrow contract for f...\n    tag 134\t\t\tv Secure escrow contract for f...\n      JUMPDEST \t\t\tv Secure escrow contract for f...\n      PUSH [tag] 135\t\t\tv Secure escrow contract for f...\n      JUMP \t\t\tv Secure escrow contract for f...\n    tag 133\t\t\tv Secure escrow contract for f...\n      JUMPDEST \t\t\tv Secure escrow contract for f...\n      PUSH 40\t\t\tv Secure escrow contract for f...\n      MLOAD \t\t\tv Secure escrow contract for f...\n      PUSH [tag] 136\t\t\tv Secure escrow contract for f...\n      SWAP2 \t\t\tv Secure escrow contract for f...\n      SWAP1 \t\t\tv Secure escrow contract for f...\n      PUSH [tag] 54\t\t\tv Secure escrow contract for f...\n      JUMP \t\t\tv Secure escrow contract for f...\n    tag 136\t\t\tv Secure escrow contract for f...\n      JUMPDEST \t\t\tv Secure escrow contract for f...\n      PUSH 40\t\t\tv Secure escrow contract for f...\n      MLOAD \t\t\tv Secure escrow contract for f...\n      DUP1 \t\t\tv Secure escrow contract for f...\n      SWAP2 \t\t\tv Secure escrow contract for f...\n      SUB \t\t\tv Secure escrow contract for f...\n      SWAP1 \t\t\tv Secure escrow contract for f...\n      RETURN \t\t\tv Secure escrow contract for f...\n    tag 28\t\t\tpply\");\\r\\n        \\r\\n       ...\n      JUMPDEST \t\t\tpply\");\\r\\n        \\r\\n       ...\n      PUSH [tag] 137\t\t\tpply\");\\r\\n        \\r\\n       ...\n      PUSH 4\t\t\tpply\");\\r\\n        \\r\\n       ...\n      DUP1 \t\t\tpply\");\\r\\n        \\r\\n       ...\n      CALLDATASIZE \t\t\tpply\");\\r\\n        \\r\\n       ...\n      SUB \t\t\tpply\");\\r\\n        \\r\\n       ...\n      DUP2 \t\t\tpply\");\\r\\n        \\r\\n       ...\n      ADD \t\t\tpply\");\\r\\n        \\r\\n       ...\n      SWAP1 \t\t\tpply\");\\r\\n        \\r\\n       ...\n      PUSH [tag] 138\t\t\tpply\");\\r\\n        \\r\\n       ...\n      SWAP2 \t\t\tpply\");\\r\\n        \\r\\n       ...\n      SWAP1 \t\t\tpply\");\\r\\n        \\r\\n       ...\n      PUSH [tag] 47\t\t\tpply\");\\r\\n        \\r\\n       ...\n      JUMP \t\t\tpply\");\\r\\n        \\r\\n       ...\n    tag 138\t\t\tpply\");\\r\\n        \\r\\n       ...\n      JUMPDEST \t\t\tpply\");\\r\\n        \\r\\n       ...\n      PUSH [tag] 139\t\t\tpply\");\\r\\n        \\r\\n       ...\n      JUMP \t\t\tpply\");\\r\\n        \\r\\n       ...\n    tag 137\t\t\tpply\");\\r\\n        \\r\\n       ...\n      JUMPDEST \t\t\tpply\");\\r\\n        \\r\\n       ...\n      PUSH 40\t\t\tpply\");\\r\\n        \\r\\n       ...\n      MLOAD \t\t\tpply\");\\r\\n        \\r\\n       ...\n      PUSH [tag] 140\t\t\tpply\");\\r\\n        \\r\\n       ...\n      SWAP2 \t\t\tpply\");\\r\\n        \\r\\n       ...\n      SWAP1 \t\t\tpply\");\\r\\n        \\r\\n       ...\n      PUSH [tag] 50\t\t\tpply\");\\r\\n        \\r\\n       ...\n      JUMP \t\t\tpply\");\\r\\n        \\r\\n       ...\n    tag 140\t\t\tpply\");\\r\\n        \\r\\n       ...\n      JUMPDEST \t\t\tpply\");\\r\\n        \\r\\n       ...\n      PUSH 40\t\t\tpply\");\\r\\n        \\r\\n       ...\n      MLOAD \t\t\tpply\");\\r\\n        \\r\\n       ...\n      DUP1 \t\t\tpply\");\\r\\n        \\r\\n       ...\n      SWAP2 \t\t\tpply\");\\r\\n        \\r\\n       ...\n      SUB \t\t\tpply\");\\r\\n        \\r\\n       ...\n      SWAP1 \t\t\tpply\");\\r\\n        \\r\\n       ...\n      RETURN \t\t\tpply\");\\r\\n        \\r\\n       ...\n    tag 29\t\t\tnstructor(address initialOwner...\n      JUMPDEST \t\t\tnstructor(address initialOwner...\n      PUSH [tag] 141\t\t\tnstructor(address initialOwner...\n      PUSH 4\t\t\tnstructor(address initialOwner...\n      DUP1 \t\t\tnstructor(address initialOwner...\n      CALLDATASIZE \t\t\tnstructor(address initialOwner...\n      SUB \t\t\tnstructor(address initialOwner...\n      DUP2 \t\t\tnstructor(address initialOwner...\n      ADD \t\t\tnstructor(address initialOwner...\n      SWAP1 \t\t\tnstructor(address initialOwner...\n      PUSH [tag] 142\t\t\tnstructor(address initialOwner...\n      SWAP2 \t\t\tnstructor(address initialOwner...\n      SWAP1 \t\t\tnstructor(address initialOwner...\n      PUSH [tag] 143\t\t\tnstructor(address initialOwner...\n      JUMP \t\t\tnstructor(address initialOwner...\n    tag 142\t\t\tnstructor(address initialOwner...\n      JUMPDEST \t\t\tnstructor(address initialOwner...\n      PUSH [tag] 144\t\t\tnstructor(address initialOwner...\n      JUMP \t\t\tnstructor(address initialOwner...\n    tag 141\t\t\tnstructor(address initialOwner...\n      JUMPDEST \t\t\tnstructor(address initialOwner...\n      STOP \t\t\tnstructor(address initialOwner...\n    tag 30\t\t\t\\n    function _update(address...\n      JUMPDEST \t\t\t\\n    function _update(address...\n      PUSH [tag] 145\t\t\t\\n    function _update(address...\n      PUSH 4\t\t\t\\n    function _update(address...\n      DUP1 \t\t\t\\n    function _update(address...\n      CALLDATASIZE \t\t\t\\n    function _update(address...\n      SUB \t\t\t\\n    function _update(address...\n      DUP2 \t\t\t\\n    function _update(address...\n      ADD \t\t\t\\n    function _update(address...\n      SWAP1 \t\t\t\\n    function _update(address...\n      PUSH [tag] 146\t\t\t\\n    function _update(address...\n      SWAP2 \t\t\t\\n    function _update(address...\n      SWAP1 \t\t\t\\n    function _update(address...\n      PUSH [tag] 147\t\t\t\\n    function _update(address...\n      JUMP \t\t\t\\n    function _update(address...\n    tag 146\t\t\t\\n    function _update(address...\n      JUMPDEST \t\t\t\\n    function _update(address...\n      PUSH [tag] 148\t\t\t\\n    function _update(address...\n      JUMP \t\t\t\\n    function _update(address...\n    tag 145\t\t\t\\n    function _update(address...\n      JUMPDEST \t\t\t\\n    function _update(address...\n      PUSH 40\t\t\t\\n    function _update(address...\n      MLOAD \t\t\t\\n    function _update(address...\n      PUSH [tag] 149\t\t\t\\n    function _update(address...\n      SWAP2 \t\t\t\\n    function _update(address...\n      SWAP1 \t\t\t\\n    function _update(address...\n      PUSH [tag] 54\t\t\t\\n    function _update(address...\n      JUMP \t\t\t\\n    function _update(address...\n    tag 149\t\t\t\\n    function _update(address...\n      JUMPDEST \t\t\t\\n    function _update(address...\n      PUSH 40\t\t\t\\n    function _update(address...\n      MLOAD \t\t\t\\n    function _update(address...\n      DUP1 \t\t\t\\n    function _update(address...\n      SWAP2 \t\t\t\\n    function _update(address...\n      SUB \t\t\t\\n    function _update(address...\n      SWAP1 \t\t\t\\n    function _update(address...\n      RETURN \t\t\t\\n    function _update(address...\n    tag 31\t\t\tle inheritance\\r\\n    function...\n      JUMPDEST \t\t\tle inheritance\\r\\n    function...\n      PUSH [tag] 150\t\t\tle inheritance\\r\\n    function...\n      PUSH 4\t\t\tle inheritance\\r\\n    function...\n      DUP1 \t\t\tle inheritance\\r\\n    function...\n      CALLDATASIZE \t\t\tle inheritance\\r\\n    function...\n      SUB \t\t\tle inheritance\\r\\n    function...\n      DUP2 \t\t\tle inheritance\\r\\n    function...\n      ADD \t\t\tle inheritance\\r\\n    function...\n      SWAP1 \t\t\tle inheritance\\r\\n    function...\n      PUSH [tag] 151\t\t\tle inheritance\\r\\n    function...\n      SWAP2 \t\t\tle inheritance\\r\\n    function...\n      SWAP1 \t\t\tle inheritance\\r\\n    function...\n      PUSH [tag] 152\t\t\tle inheritance\\r\\n    function...\n      JUMP \t\t\tle inheritance\\r\\n    function...\n    tag 151\t\t\tle inheritance\\r\\n    function...\n      JUMPDEST \t\t\tle inheritance\\r\\n    function...\n      PUSH [tag] 153\t\t\tle inheritance\\r\\n    function...\n      JUMP \t\t\tle inheritance\\r\\n    function...\n    tag 150\t\t\tle inheritance\\r\\n    function...\n      JUMPDEST \t\t\tle inheritance\\r\\n    function...\n      PUSH 40\t\t\tle inheritance\\r\\n    function...\n      MLOAD \t\t\tle inheritance\\r\\n    function...\n      PUSH [tag] 154\t\t\tle inheritance\\r\\n    function...\n      SWAP2 \t\t\tle inheritance\\r\\n    function...\n      SWAP1 \t\t\tle inheritance\\r\\n    function...\n      PUSH [tag] 155\t\t\tle inheritance\\r\\n    function...\n      JUMP \t\t\tle inheritance\\r\\n    function...\n    tag 154\t\t\tle inheritance\\r\\n    function...\n      JUMPDEST \t\t\tle inheritance\\r\\n    function...\n      PUSH 40\t\t\tle inheritance\\r\\n    function...\n      MLOAD \t\t\tle inheritance\\r\\n    function...\n      DUP1 \t\t\tle inheritance\\r\\n    function...\n      SWAP2 \t\t\tle inheritance\\r\\n    function...\n      SUB \t\t\tle inheritance\\r\\n    function...\n      SWAP1 \t\t\tle inheritance\\r\\n    function...\n      RETURN \t\t\tle inheritance\\r\\n    function...\n    tag 32\t\t\t minters[minter] = false;\\r\\n ...\n      JUMPDEST \t\t\t minters[minter] = false;\\r\\n ...\n      PUSH [tag] 156\t\t\t minters[minter] = false;\\r\\n ...\n      PUSH 4\t\t\t minters[minter] = false;\\r\\n ...\n      DUP1 \t\t\t minters[minter] = false;\\r\\n ...\n      CALLDATASIZE \t\t\t minters[minter] = false;\\r\\n ...\n      SUB \t\t\t minters[minter] = false;\\r\\n ...\n      DUP2 \t\t\t minters[minter] = false;\\r\\n ...\n      ADD \t\t\t minters[minter] = false;\\r\\n ...\n      SWAP1 \t\t\t minters[minter] = false;\\r\\n ...\n      PUSH [tag] 157\t\t\t minters[minter] = false;\\r\\n ...\n      SWAP2 \t\t\t minters[minter] = false;\\r\\n ...\n      SWAP1 \t\t\t minters[minter] = false;\\r\\n ...\n      PUSH [tag] 65\t\t\t minters[minter] = false;\\r\\n ...\n      JUMP \t\t\t minters[minter] = false;\\r\\n ...\n    tag 157\t\t\t minters[minter] = false;\\r\\n ...\n      JUMPDEST \t\t\t minters[minter] = false;\\r\\n ...\n      PUSH [tag] 158\t\t\t minters[minter] = false;\\r\\n ...\n      JUMP \t\t\t minters[minter] = false;\\r\\n ...\n    tag 156\t\t\t minters[minter] = false;\\r\\n ...\n      JUMPDEST \t\t\t minters[minter] = false;\\r\\n ...\n      STOP \t\t\t minters[minter] = false;\\r\\n ...\n    tag 33\t\t\tmapping(address => bool) publi...\n      JUMPDEST \t\t\tmapping(address => bool) publi...\n      PUSH [tag] 159\t\t\tmapping(address => bool) publi...\n      PUSH 4\t\t\tmapping(address => bool) publi...\n      DUP1 \t\t\tmapping(address => bool) publi...\n      CALLDATASIZE \t\t\tmapping(address => bool) publi...\n      SUB \t\t\tmapping(address => bool) publi...\n      DUP2 \t\t\tmapping(address => bool) publi...\n      ADD \t\t\tmapping(address => bool) publi...\n      SWAP1 \t\t\tmapping(address => bool) publi...\n      PUSH [tag] 160\t\t\tmapping(address => bool) publi...\n      SWAP2 \t\t\tmapping(address => bool) publi...\n      SWAP1 \t\t\tmapping(address => bool) publi...\n      PUSH [tag] 65\t\t\tmapping(address => bool) publi...\n      JUMP \t\t\tmapping(address => bool) publi...\n    tag 160\t\t\tmapping(address => bool) publi...\n      JUMPDEST \t\t\tmapping(address => bool) publi...\n      PUSH [tag] 161\t\t\tmapping(address => bool) publi...\n      JUMP \t\t\tmapping(address => bool) publi...\n    tag 159\t\t\tmapping(address => bool) publi...\n      JUMPDEST \t\t\tmapping(address => bool) publi...\n      PUSH 40\t\t\tmapping(address => bool) publi...\n      MLOAD \t\t\tmapping(address => bool) publi...\n      PUSH [tag] 162\t\t\tmapping(address => bool) publi...\n      SWAP2 \t\t\tmapping(address => bool) publi...\n      SWAP1 \t\t\tmapping(address => bool) publi...\n      PUSH [tag] 50\t\t\tmapping(address => bool) publi...\n      JUMP \t\t\tmapping(address => bool) publi...\n    tag 162\t\t\tmapping(address => bool) publi...\n      JUMPDEST \t\t\tmapping(address => bool) publi...\n      PUSH 40\t\t\tmapping(address => bool) publi...\n      MLOAD \t\t\tmapping(address => bool) publi...\n      DUP1 \t\t\tmapping(address => bool) publi...\n      SWAP2 \t\t\tmapping(address => bool) publi...\n      SUB \t\t\tmapping(address => bool) publi...\n      SWAP1 \t\t\tmapping(address => bool) publi...\n      RETURN \t\t\tmapping(address => bool) publi...\n    tag 42\t\t\t = true;\\r\\n    }\\r\\n    \\r\\n ...\n      JUMPDEST \t\t\t = true;\\r\\n    }\\r\\n    \\r\\n ...\n      PUSH 60\t\t\tint new token\n      PUSH 3\t\t\ted mi\n      DUP1 \t\t\tuthorized mi\n      SLOAD \t\t\tuthorized mi\n      PUSH [tag] 166\t\t\tuthorized mi\n      SWAP1 \t\t\tuthorized mi\n      PUSH [tag] 167\t\t\tuthorized mi\n      JUMP \t\t\tuthorized mi\n    tag 166\t\t\tuthorized mi\n      JUMPDEST \t\t\tuthorized mi\n      DUP1 \t\t\tuthorized mi\n      PUSH 1F\t\t\tuthorized mi\n      ADD \t\t\tuthorized mi\n      PUSH 20\t\t\tuthorized mi\n      DUP1 \t\t\tuthorized mi\n      SWAP2 \t\t\tuthorized mi\n      DIV \t\t\tuthorized mi\n      MUL \t\t\tuthorized mi\n      PUSH 20\t\t\tuthorized mi\n      ADD \t\t\tuthorized mi\n      PUSH 40\t\t\tuthorized mi\n      MLOAD \t\t\tuthorized mi\n      SWAP1 \t\t\tuthorized mi\n      DUP2 \t\t\tuthorized mi\n      ADD \t\t\tuthorized mi\n      PUSH 40\t\t\tuthorized mi\n      MSTORE \t\t\tuthorized mi\n      DUP1 \t\t\tuthorized mi\n      SWAP3 \t\t\tuthorized mi\n      SWAP2 \t\t\tuthorized mi\n      SWAP1 \t\t\tuthorized mi\n      DUP2 \t\t\tuthorized mi\n      DUP2 \t\t\tuthorized mi\n      MSTORE \t\t\tuthorized mi\n      PUSH 20\t\t\tuthorized mi\n      ADD \t\t\tuthorized mi\n      DUP3 \t\t\tuthorized mi\n      DUP1 \t\t\tuthorized mi\n      SLOAD \t\t\tuthorized mi\n      PUSH [tag] 168\t\t\tuthorized mi\n      SWAP1 \t\t\tuthorized mi\n      PUSH [tag] 167\t\t\tuthorized mi\n      JUMP \t\t\tuthorized mi\n    tag 168\t\t\tuthorized mi\n      JUMPDEST \t\t\tuthorized mi\n      DUP1 \t\t\tuthorized mi\n      ISZERO \t\t\tuthorized mi\n      PUSH [tag] 169\t\t\tuthorized mi\n      JUMPI \t\t\tuthorized mi\n      DUP1 \t\t\tuthorized mi\n      PUSH 1F\t\t\tuthorized mi\n      LT \t\t\tuthorized mi\n      PUSH [tag] 170\t\t\tuthorized mi\n      JUMPI \t\t\tuthorized mi\n      PUSH 100\t\t\tuthorized mi\n      DUP1 \t\t\tuthorized mi\n      DUP4 \t\t\tuthorized mi\n      SLOAD \t\t\tuthorized mi\n      DIV \t\t\tuthorized mi\n      MUL \t\t\tuthorized mi\n      DUP4 \t\t\tuthorized mi\n      MSTORE \t\t\tuthorized mi\n      SWAP2 \t\t\tuthorized mi\n      PUSH 20\t\t\tuthorized mi\n      ADD \t\t\tuthorized mi\n      SWAP2 \t\t\tuthorized mi\n      PUSH [tag] 169\t\t\tuthorized mi\n      JUMP \t\t\tuthorized mi\n    tag 170\t\t\tuthorized mi\n      JUMPDEST \t\t\tuthorized mi\n      DUP3 \t\t\tuthorized mi\n      ADD \t\t\tuthorized mi\n      SWAP2 \t\t\tuthorized mi\n      SWAP1 \t\t\tuthorized mi\n      PUSH 0\t\t\tuthorized mi\n      MSTORE \t\t\tuthorized mi\n      PUSH 20\t\t\tuthorized mi\n      PUSH 0\t\t\tuthorized mi\n      KECCAK256 \t\t\tuthorized mi\n      SWAP1 \t\t\tuthorized mi\n    tag 171\t\t\tuthorized mi\n      JUMPDEST \t\t\tuthorized mi\n      DUP2 \t\t\tuthorized mi\n      SLOAD \t\t\tuthorized mi\n      DUP2 \t\t\tuthorized mi\n      MSTORE \t\t\tuthorized mi\n      SWAP1 \t\t\tuthorized mi\n      PUSH 1\t\t\tuthorized mi\n      ADD \t\t\tuthorized mi\n      SWAP1 \t\t\tuthorized mi\n      PUSH 20\t\t\tuthorized mi\n      ADD \t\t\tuthorized mi\n      DUP1 \t\t\tuthorized mi\n      DUP4 \t\t\tuthorized mi\n      GT \t\t\tuthorized mi\n      PUSH [tag] 171\t\t\tuthorized mi\n      JUMPI \t\t\tuthorized mi\n      DUP3 \t\t\tuthorized mi\n      SWAP1 \t\t\tuthorized mi\n      SUB \t\t\tuthorized mi\n      PUSH 1F\t\t\tuthorized mi\n      AND \t\t\tuthorized mi\n      DUP3 \t\t\tuthorized mi\n      ADD \t\t\tuthorized mi\n      SWAP2 \t\t\tuthorized mi\n    tag 169\t\t\tuthorized mi\n      JUMPDEST \t\t\tuthorized mi\n      POP \t\t\tuthorized mi\n      POP \t\t\tuthorized mi\n      POP \t\t\tuthorized mi\n      POP \t\t\tuthorized mi\n      POP \t\t\tuthorized mi\n      SWAP1 \t\t\tuthorized mi\n      POP \t\t\tuthorized mi\n      SWAP1 \t\t\t = true;\\r\\n    }\\r\\n    \\r\\n ...\n      JUMP \t\t\t = true;\\r\\n    }\\r\\n    \\r\\n ...\n    tag 48\t\t\tl, and refunds for specific gi...\n      JUMPDEST \t\t\tl, and refunds for specific gi...\n      PUSH 0\t\t\tard,\n      PUSH 0\t\t\tusable {\\r\\n   \n      PUSH [tag] 173\t\t\t    enum Esc\n      PUSH [tag] 174\t\t\t    enum E\n      JUMP \t\t\t    enum Esc\n    tag 173\t\t\t    enum Esc\n      JUMPDEST \t\t\t    enum Esc\n      SWAP1 \t\t\tusable {\\r\\n    \\r\\n    enum E...\n      POP \t\t\tusable {\\r\\n    \\r\\n    enum E...\n      PUSH [tag] 175\t\t\t{\\r\\n        Pending,     // E...\n      DUP2 \t\t\t  Pen\n      DUP6 \t\t\tng,    \n      DUP6 \t\t\t/ Esc\n      PUSH [tag] 176\t\t\t{\\r\\n     \n      JUMP \t\t\t{\\r\\n        Pending,     // E...\n    tag 175\t\t\t{\\r\\n        Pending,     // E...\n      JUMPDEST \t\t\t{\\r\\n        Pending,     // E...\n      PUSH 1\t\t\t loc\n      SWAP2 \t\t\t, funds loc\n      POP \t\t\t, funds loc\n      POP \t\t\t, funds loc\n      SWAP3 \t\t\tl, and refunds for specific gi...\n      SWAP2 \t\t\tl, and refunds for specific gi...\n      POP \t\t\tl, and refunds for specific gi...\n      POP \t\t\tl, and refunds for specific gi...\n      JUMP \t\t\tl, and refunds for specific gi...\n    tag 52\t\t\tistribute\\r\\n     */\\r\\n    fu...\n      JUMPDEST \t\t\tistribute\\r\\n     */\\r\\n    fu...\n      PUSH 0\t\t\t callda\n      PUSH 2\t\t\t256[] callda\n      SLOAD \t\t\t256[] callda\n      SWAP1 \t\t\ts, uint256[] callda\n      POP \t\t\ts, uint256[] callda\n      SWAP1 \t\t\tistribute\\r\\n     */\\r\\n    fu...\n      JUMP \t\t\tistribute\\r\\n     */\\r\\n    fu...\n    tag 58\t\t\t56[]) public clientEscrows;\\r\\...\n      JUMPDEST \t\t\t56[]) public clientEscrows;\\r\\...\n      PUSH 0\t\t\t;\\r\\n \n      PUSH 0\t\t\tPlatform fee co\n      PUSH [tag] 179\t\t\tguration (in\n      PUSH [tag] 174\t\t\tguration (\n      JUMP \t\t\tguration (in\n    tag 179\t\t\tguration (in\n      JUMPDEST \t\t\tguration (in\n      SWAP1 \t\t\tPlatform fee configuration (in\n      POP \t\t\tPlatform fee configuration (in\n      PUSH [tag] 180\t\t\tnts, 100 = 1%)\\r\\n    uint256 ...\n      DUP6 \t\t\t    \n      DUP3 \t\t\tnt256 p\n      DUP6 \t\t\tlic p\n      PUSH [tag] 181\t\t\tnts, 100 = 1%)\\r\n      JUMP \t\t\tnts, 100 = 1%)\\r\\n    uint256 ...\n    tag 180\t\t\tnts, 100 = 1%)\\r\\n    uint256 ...\n      JUMPDEST \t\t\tnts, 100 = 1%)\\r\\n    uint256 ...\n      PUSH [tag] 182\t\t\t= 250; // 2.5%\\r\\n    addres\n      DUP6 \t\t\t2.5%\n      DUP6 \t\t\t  \n      DUP6 \t\t\taddre\n      PUSH [tag] 183\t\t\t= 250; //\n      JUMP \t\t\t= 250; // 2.5%\\r\\n    addres\n    tag 182\t\t\t= 250; // 2.5%\\r\\n    addres\n      JUMPDEST \t\t\t= 250; // 2.5%\\r\\n    addres\n      PUSH 1\t\t\tient\n      SWAP2 \t\t\teeRecipient\n      POP \t\t\teeRecipient\n      POP \t\t\teeRecipient\n      SWAP4 \t\t\t56[]) public clientEscrows;\\r\\...\n      SWAP3 \t\t\t56[]) public clientEscrows;\\r\\...\n      POP \t\t\t56[]) public clientEscrows;\\r\\...\n      POP \t\t\t56[]) public clientEscrows;\\r\\...\n      POP \t\t\t56[]) public clientEscrows;\\r\\...\n      JUMP \t\t\t56[]) public clientEscrows;\\r\\...\n    tag 61\t\t\tuint256 public constant INITIA...\n      JUMPDEST \t\t\tuint256 public constant INITIA...\n      PUSH D3C21BCECCEDA1000000\t\t\t1000000 * 10**18\n      DUP2 \t\t\tuint256 public constant INITIA...\n      JUMP \t\t\tuint256 public constant INITIA...\n    tag 66\t\t\tfunction removeMinter(address ...\n      JUMPDEST \t\t\tfunction removeMinter(address ...\n      PUSH [tag] 185\t\t\t \\r\\n    constr\n      PUSH [tag] 186\t\t\t \\r\\n    cons\n      JUMP \t\t\t \\r\\n    constr\n    tag 185\t\t\t \\r\\n    constr\n      JUMPDEST \t\t\t \\r\\n    constr\n      PUSH 0\t\t\tfalse\n      PUSH C\t\t\tminters\n      PUSH 0\t\t\tminters[minter]\n      DUP4 \t\t\tminter\n      PUSH FFFFFFFFFFFFFFFFFFFFFFFFFFFFFFFFFFFFFFFF\t\t\tminters[minter]\n      AND \t\t\tminters[minter]\n      PUSH FFFFFFFFFFFFFFFFFFFFFFFFFFFFFFFFFFFFFFFF\t\t\tminters[minter]\n      AND \t\t\tminters[minter]\n      DUP2 \t\t\tminters[minter]\n      MSTORE \t\t\tminters[minter]\n      PUSH 20\t\t\tminters[minter]\n      ADD \t\t\tminters[minter]\n      SWAP1 \t\t\tminters[minter]\n      DUP2 \t\t\tminters[minter]\n      MSTORE \t\t\tminters[minter]\n      PUSH 20\t\t\tminters[minter]\n      ADD \t\t\tminters[minter]\n      PUSH 0\t\t\tminters[minter]\n      KECCAK256 \t\t\tminters[minter]\n      PUSH 0\t\t\tminters[minter]\n      PUSH 100\t\t\tminters[minter] = false\n      EXP \t\t\tminters[minter] = false\n      DUP2 \t\t\tminters[minter] = false\n      SLOAD \t\t\tminters[minter] = false\n      DUP2 \t\t\tminters[minter] = false\n      PUSH FF\t\t\tminters[minter] = false\n      MUL \t\t\tminters[minter] = false\n      NOT \t\t\tminters[minter] = false\n      AND \t\t\tminters[minter] = false\n      SWAP1 \t\t\tminters[minter] = false\n      DUP4 \t\t\tminters[minter] = false\n      ISZERO \t\t\tminters[minter] = false\n      ISZERO \t\t\tminters[minter] = false\n      MUL \t\t\tminters[minter] = false\n      OR \t\t\tminters[minter] = false\n      SWAP1 \t\t\tminters[minter] = false\n      SSTORE \t\t\tminters[minter] = false\n      POP \t\t\tminters[minter] = false\n      DUP1 \t\t\tminter\n      PUSH FFFFFFFFFFFFFFFFFFFFFFFFFFFFFFFFFFFFFFFF\t\t\tMinterRemoved(minter)\n      AND \t\t\tMinterRemoved(minter)\n      PUSH E94479A9F7E1952CC78F2D6BAAB678ADC1B772D936C6583DEF489E524CB66692\t\t\tMinterRemoved(minter)\n      PUSH 40\t\t\tMinterRemoved(minter)\n      MLOAD \t\t\tMinterRemoved(minter)\n      PUSH 40\t\t\tMinterRemoved(minter)\n      MLOAD \t\t\tMinterRemoved(minter)\n      DUP1 \t\t\tMinterRemoved(minter)\n      SWAP2 \t\t\tMinterRemoved(minter)\n      SUB \t\t\tMinterRemoved(minter)\n      SWAP1 \t\t\tMinterRemoved(minter)\n      LOG2 \t\t\tMinterRemoved(minter)\n      POP \t\t\tfunction removeMinter(address ...\n      JUMP \t\t\tfunction removeMinter(address ...\n    tag 68\t\t\tsting/airdrops)\\r\\n     * @par...\n      JUMPDEST \t\t\tsting/airdrops)\\r\\n     * @par...\n      PUSH 0\t\t\tf rec\n      PUSH 12\t\t\t  \n      SWAP1 \t\t\tsses\\r\\n   \n      POP \t\t\tsses\\r\\n   \n      SWAP1 \t\t\tsting/airdrops)\\r\\n     * @par...\n      JUMP \t\t\tsting/airdrops)\\r\\n     * @par...\n    tag 72\t\t\tuint256 public constant MAX_SU...\n      JUMPDEST \t\t\tuint256 public constant MAX_SU...\n      PUSH 84595161401484A000000\t\t\t10000000 * 10**18\n      DUP2 \t\t\tuint256 public constant MAX_SU...\n      JUMP \t\t\tuint256 public constant MAX_SU...\n    tag 76\t\t\tuires DAO voting\\r\\n    }\\r\\n ...\n      JUMPDEST \t\t\tuires DAO voting\\r\\n    }\\r\\n ...\n      PUSH 0\t\t\t addres\n      PUSH [tag] 190\t\t\taddress freelancer;\\r\\n       ...\n      PUSH [tag] 191\t\t\t      EscrowStatus status;\\r\\n...\n      DUP4 \t\t\tstatus;\\r\\n\n      PUSH [tag] 192\t\t\t      EscrowStatus\n      JUMP \t\t\t      EscrowStatus status;\\r\\n...\n    tag 191\t\t\t      EscrowStatus status;\\r\\n...\n      JUMPDEST \t\t\t      EscrowStatus status;\\r\\n...\n      PUSH 9\t\t\taddress freelancer;\\r\n      PUSH 0\t\t\taddress freelancer;\\r\\n       ...\n      DUP7 \t\t\t       \n      PUSH FFFFFFFFFFFFFFFFFFFFFFFFFFFFFFFFFFFFFFFF\t\t\taddress freelancer;\\r\\n       ...\n      AND \t\t\taddress freelancer;\\r\\n       ...\n      PUSH FFFFFFFFFFFFFFFFFFFFFFFFFFFFFFFFFFFFFFFF\t\t\taddress freelancer;\\r\\n       ...\n      AND \t\t\taddress freelancer;\\r\\n       ...\n      DUP2 \t\t\taddress freelancer;\\r\\n       ...\n      MSTORE \t\t\taddress freelancer;\\r\\n       ...\n      PUSH 20\t\t\taddress freelancer;\\r\\n       ...\n      ADD \t\t\taddress freelancer;\\r\\n       ...\n      SWAP1 \t\t\taddress freelancer;\\r\\n       ...\n      DUP2 \t\t\taddress freelancer;\\r\\n       ...\n      MSTORE \t\t\taddress freelancer;\\r\\n       ...\n      PUSH 20\t\t\taddress freelancer;\\r\\n       ...\n      ADD \t\t\taddress freelancer;\\r\\n       ...\n      PUSH 0\t\t\taddress freelancer;\\r\\n       ...\n      KECCAK256 \t\t\taddress freelancer;\\r\\n       ...\n      PUSH [tag] 193\t\t\taddress freelancer;\\r\\n       ...\n      SWAP1 \t\t\taddress freelancer;\\r\\n       ...\n      SWAP2 \t\t\taddress freelancer;\\r\\n       ...\n      SWAP1 \t\t\taddress freelancer;\\r\\n       ...\n      PUSH FFFFFFFF\t\t\taddress freelancer;\\r\\n       ...\n      AND \t\t\taddress freelancer;\\r\\n       ...\n      JUMP \t\t\taddress freelancer;\\r\\n       ...\n    tag 190\t\t\taddress freelancer;\\r\\n       ...\n      JUMPDEST \t\t\taddress freelancer;\\r\\n       ...\n      PUSH FFFFFFFFFFFFFFFFFFFFFFFFFFFFFFFFFFFFFFFFFFFFFFFFFFFF\t\t\t       address freelancer;\\r\\n...\n      AND \t\t\t       address freelancer;\\r\\n...\n      SWAP1 \t\t\t       address freelancer;\\r\\n...\n      POP \t\t\t       address freelancer;\\r\\n...\n      SWAP3 \t\t\tuires DAO voting\\r\\n    }\\r\\n ...\n      SWAP2 \t\t\tuires DAO voting\\r\\n    }\\r\\n ...\n      POP \t\t\tuires DAO voting\\r\\n    }\\r\\n ...\n      POP \t\t\tuires DAO voting\\r\\n    }\\r\\n ...\n      JUMP \t\t\tuires DAO voting\\r\\n    }\\r\\n ...\n    tag 80\t\t\tfunction mint(address to, uint...\n      JUMPDEST \t\t\tfunction mint(address to, uint...\n      PUSH C\t\t\tminters\n      PUSH 0\t\t\tminters[msg.sender]\n      CALLER \t\t\tmsg.sender\n      PUSH FFFFFFFFFFFFFFFFFFFFFFFFFFFFFFFFFFFFFFFF\t\t\tminters[msg.sender]\n      AND \t\t\tminters[msg.sender]\n      PUSH FFFFFFFFFFFFFFFFFFFFFFFFFFFFFFFFFFFFFFFF\t\t\tminters[msg.sender]\n      AND \t\t\tminters[msg.sender]\n      DUP2 \t\t\tminters[msg.sender]\n      MSTORE \t\t\tminters[msg.sender]\n      PUSH 20\t\t\tminters[msg.sender]\n      ADD \t\t\tminters[msg.sender]\n      SWAP1 \t\t\tminters[msg.sender]\n      DUP2 \t\t\tminters[msg.sender]\n      MSTORE \t\t\tminters[msg.sender]\n      PUSH 20\t\t\tminters[msg.sender]\n      ADD \t\t\tminters[msg.sender]\n      PUSH 0\t\t\tminters[msg.sender]\n      KECCAK256 \t\t\tminters[msg.sender]\n      PUSH 0\t\t\tminters[msg.sender]\n      SWAP1 \t\t\tminters[msg.sender]\n      SLOAD \t\t\tminters[msg.sender]\n      SWAP1 \t\t\tminters[msg.sender]\n      PUSH 100\t\t\tminters[msg.sender]\n      EXP \t\t\tminters[msg.sender]\n      SWAP1 \t\t\tminters[msg.sender]\n      DIV \t\t\tminters[msg.sender]\n      PUSH FF\t\t\tminters[msg.sender]\n      AND \t\t\tminters[msg.sender]\n      DUP1 \t\t\tminters[msg.sender] || msg.sen...\n      PUSH [tag] 195\t\t\tminters[msg.sender] || msg.sen...\n      JUMPI \t\t\tminters[msg.sender] || msg.sen...\n      POP \t\t\tminters[msg.sender] || msg.sen...\n      PUSH [tag] 196\t\t\towner()\n      PUSH [tag] 116\t\t\towner\n      JUMP \t\t\towner()\n    tag 196\t\t\towner()\n      JUMPDEST \t\t\towner()\n      PUSH FFFFFFFFFFFFFFFFFFFFFFFFFFFFFFFFFFFFFFFF\t\t\tmsg.sender == owner()\n      AND \t\t\tmsg.sender == owner()\n      CALLER \t\t\tmsg.sender\n      PUSH FFFFFFFFFFFFFFFFFFFFFFFFFFFFFFFFFFFFFFFF\t\t\tmsg.sender == owner()\n      AND \t\t\tmsg.sender == owner()\n      EQ \t\t\tmsg.sender == owner()\n    tag 195\t\t\tminters[msg.sender] || msg.sen...\n      JUMPDEST \t\t\tminters[msg.sender] || msg.sen...\n      PUSH [tag] 197\t\t\trequire(minters[msg.sender] ||...\n      JUMPI \t\t\trequire(minters[msg.sender] ||...\n      PUSH 40\t\t\trequire(minters[msg.sender] ||...\n      MLOAD \t\t\trequire(minters[msg.sender] ||...\n      PUSH 8C379A000000000000000000000000000000000000000000000000000000000\t\t\trequire(minters[msg.sender] ||...\n      DUP2 \t\t\trequire(minters[msg.sender] ||...\n      MSTORE \t\t\trequire(minters[msg.sender] ||...\n      PUSH 4\t\t\trequire(minters[msg.sender] ||...\n      ADD \t\t\trequire(minters[msg.sender] ||...\n      PUSH [tag] 198\t\t\trequire(minters[msg.sender] ||...\n      SWAP1 \t\t\trequire(minters[msg.sender] ||...\n      PUSH [tag] 199\t\t\trequire(minters[msg.sender] ||...\n      JUMP \t\t\trequire(minters[msg.sender] ||...\n    tag 198\t\t\trequire(minters[msg.sender] ||...\n      JUMPDEST \t\t\trequire(minters[msg.sender] ||...\n      PUSH 40\t\t\trequire(minters[msg.sender] ||...\n      MLOAD \t\t\trequire(minters[msg.sender] ||...\n      DUP1 \t\t\trequire(minters[msg.sender] ||...\n      SWAP2 \t\t\trequire(minters[msg.sender] ||...\n      SUB \t\t\trequire(minters[msg.sender] ||...\n      SWAP1 \t\t\trequire(minters[msg.sender] ||...\n      REVERT \t\t\trequire(minters[msg.sender] ||...\n    tag 197\t\t\trequire(minters[msg.sender] ||...\n      JUMPDEST \t\t\trequire(minters[msg.sender] ||...\n      PUSH 84595161401484A000000\t\t\t10000000 * 10**18\n      DUP2 \t\t\tamount\n      PUSH [tag] 201\t\t\ttotalSupply()\n      PUSH [tag] 52\t\t\ttotalSupply\n      JUMP \t\t\ttotalSupply()\n    tag 201\t\t\ttotalSupply()\n      JUMPDEST \t\t\ttotalSupply()\n      PUSH [tag] 202\t\t\ttotalSupply() + amount\n      SWAP2 \t\t\ttotalSupply() + amount\n      SWAP1 \t\t\ttotalSupply() + amount\n      PUSH [tag] 203\t\t\ttotalSupply() + amount\n      JUMP \t\t\ttotalSupply() + amount\n    tag 202\t\t\ttotalSupply() + amount\n      JUMPDEST \t\t\ttotalSupply() + amount\n      GT \t\t\ttotalSupply() + amount <= MAX_...\n      ISZERO \t\t\ttotalSupply() + amount <= MAX_...\n      PUSH [tag] 204\t\t\trequire(totalSupply() + amount...\n      JUMPI \t\t\trequire(totalSupply() + amount...\n      PUSH 40\t\t\trequire(totalSupply() + amount...\n      MLOAD \t\t\trequire(totalSupply() + amount...\n      PUSH 8C379A000000000000000000000000000000000000000000000000000000000\t\t\trequire(totalSupply() + amount...\n      DUP2 \t\t\trequire(totalSupply() + amount...\n      MSTORE \t\t\trequire(totalSupply() + amount...\n      PUSH 4\t\t\trequire(totalSupply() + amount...\n      ADD \t\t\trequire(totalSupply() + amount...\n      PUSH [tag] 205\t\t\trequire(totalSupply() + amount...\n      SWAP1 \t\t\trequire(totalSupply() + amount...\n      PUSH [tag] 206\t\t\trequire(totalSupply() + amount...\n      JUMP \t\t\trequire(totalSupply() + amount...\n    tag 205\t\t\trequire(totalSupply() + amount...\n      JUMPDEST \t\t\trequire(totalSupply() + amount...\n      PUSH 40\t\t\trequire(totalSupply() + amount...\n      MLOAD \t\t\trequire(totalSupply() + amount...\n      DUP1 \t\t\trequire(totalSupply() + amount...\n      SWAP2 \t\t\trequire(totalSupply() + amount...\n      SUB \t\t\trequire(totalSupply() + amount...\n      SWAP1 \t\t\trequire(totalSupply() + amount...\n      REVERT \t\t\trequire(totalSupply() + amount...\n    tag 204\t\t\trequire(totalSupply() + amount...\n      JUMPDEST \t\t\trequire(totalSupply() + amount...\n      PUSH [tag] 207\t\t\t_mint(to, amount)\n      DUP3 \t\t\tto\n      DUP3 \t\t\tamount\n      PUSH [tag] 208\t\t\t_mint\n      JUMP \t\t\t_mint(to, amount)\n    tag 207\t\t\t_mint(to, amount)\n      JUMPDEST \t\t\t_mint(to, amount)\n      POP \t\t\tfunction mint(address to, uint...\n      POP \t\t\tfunction mint(address to, uint...\n      JUMP \t\t\tfunction mint(address to, uint...\n    tag 82\t\t\tAmount = 0;\\r\\n        for (ui...\n      JUMPDEST \t\t\tAmount = 0;\\r\\n        for (ui...\n      PUSH 60\t\t\ts.length; i++\n      PUSH [tag] 210\t\t\tquire(totalSupply(\n      PUSH [tag] 211\t\t\tquire(totalSuppl\n      JUMP \t\t\tquire(totalSupply(\n    tag 210\t\t\tquire(totalSupply(\n      JUMPDEST \t\t\tquire(totalSupply(\n      PUSH FFFFFFFFFFFF\t\t\t\\n        require(totalSupply(\n      AND \t\t\t\\n        require(totalSupply(\n      PUSH [tag] 212\t\t\t\\n      \n      PUSH [tag] 124\t\t\t\\n    \n      JUMP \t\t\t\\n      \n    tag 212\t\t\t\\n      \n      JUMPDEST \t\t\t\\n      \n      PUSH FFFFFFFFFFFF\t\t\t\\n        require(totalSupply(\n      AND \t\t\t\\n        require(totalSupply(\n      EQ \t\t\t\\n        require(totalSupply(\n      PUSH [tag] 213\t\t\t   \\r\\n        require(totalSu...\n      JUMPI \t\t\t   \\r\\n        require(totalSu...\n      PUSH 40\t\t\tSUPPLY, \"Exceeds max suppl\n      MLOAD \t\t\tSUPPLY, \"Exceeds max suppl\n      PUSH 6FF0714000000000000000000000000000000000000000000000000000000000\t\t\tSUPPLY, \"Exceeds max suppl\n      DUP2 \t\t\tSUPPLY, \"Exceeds max suppl\n      MSTORE \t\t\tSUPPLY, \"Exceeds max suppl\n      PUSH 4\t\t\tSUPPLY, \"Exceeds max suppl\n      ADD \t\t\tSUPPLY, \"Exceeds max suppl\n      PUSH 40\t\t\tSUPPLY, \"Exceeds max suppl\n      MLOAD \t\t\tSUPPLY, \"Exceeds max suppl\n      DUP1 \t\t\tSUPPLY, \"Exceeds max suppl\n      SWAP2 \t\t\tSUPPLY, \"Exceeds max suppl\n      SUB \t\t\tSUPPLY, \"Exceeds max suppl\n      SWAP1 \t\t\tSUPPLY, \"Exceeds max suppl\n      REVERT \t\t\tSUPPLY, \"Exceeds max suppl\n    tag 213\t\t\t   \\r\\n        require(totalSu...\n      JUMPDEST \t\t\t   \\r\\n        require(totalSu...\n      PUSH 40\t\t\t    for (uint256 i = 0; i < re...\n      MLOAD \t\t\t    for (uint256 i = 0; i < re...\n      DUP1 \t\t\t    for (uint256 i = 0; i < re...\n      PUSH 40\t\t\t    for (uint256 i = 0; i < re...\n      ADD \t\t\t    for (uint256 i = 0; i < re...\n      PUSH 40\t\t\t    for (uint256 i = 0; i < re...\n      MSTORE \t\t\t    for (uint256 i = 0; i < re...\n      DUP1 \t\t\t    for (uint256 i = 0; i < re...\n      PUSH 1D\t\t\t    for (uint256 i = 0; i < re...\n      DUP2 \t\t\t    for (uint256 i = 0; i < re...\n      MSTORE \t\t\t    for (uint256 i = 0; i < re...\n      PUSH 20\t\t\t    for (uint256 i = 0; i < re...\n      ADD \t\t\t    for (uint256 i = 0; i < re...\n      PUSH 6D6F64653D626C6F636B6E756D6265722666726F6D3D64656661756C74000000\t\t\t    for (uint256 i = 0; i < re...\n      DUP2 \t\t\t    for (uint256 i = 0; i < re...\n      MSTORE \t\t\t    for (uint256 i = 0; i < re...\n      POP \t\t\t    for (uint256 i = 0; i < re...\n      SWAP1 \t\t\t    for (uint256 i = 0; i < re...\n      POP \t\t\t    for (uint256 i = 0; i < re...\n      SWAP1 \t\t\tAmount = 0;\\r\\n        for (ui...\n      JUMP \t\t\tAmount = 0;\\r\\n        for (ui...\n    tag 86\t\t\t        require(escrows[gigId]...\n      JUMPDEST \t\t\t        require(escrows[gigId]...\n      PUSH 0\t\t\t\");\\r\\n  \n      PUSH 8\t\t\t  \\r\\n    mo\n      PUSH 0\t\t\t  \\r\\n    modifier on\n      DUP4 \t\t\tifier o\n      PUSH FFFFFFFFFFFFFFFFFFFFFFFFFFFFFFFFFFFFFFFF\t\t\t  \\r\\n    modifier on\n      AND \t\t\t  \\r\\n    modifier on\n      PUSH FFFFFFFFFFFFFFFFFFFFFFFFFFFFFFFFFFFFFFFF\t\t\t  \\r\\n    modifier on\n      AND \t\t\t  \\r\\n    modifier on\n      DUP2 \t\t\t  \\r\\n    modifier on\n      MSTORE \t\t\t  \\r\\n    modifier on\n      PUSH 20\t\t\t  \\r\\n    modifier on\n      ADD \t\t\t  \\r\\n    modifier on\n      SWAP1 \t\t\t  \\r\\n    modifier on\n      DUP2 \t\t\t  \\r\\n    modifier on\n      MSTORE \t\t\t  \\r\\n    modifier on\n      PUSH 20\t\t\t  \\r\\n    modifier on\n      ADD \t\t\t  \\r\\n    modifier on\n      PUSH 0\t\t\t  \\r\\n    modifier on\n      KECCAK256 \t\t\t  \\r\\n    modifier on\n      PUSH 0\t\t\t  \\r\\n    modifier on\n      SWAP1 \t\t\t  \\r\\n    modifier on\n      SLOAD \t\t\t  \\r\\n    modifier on\n      SWAP1 \t\t\t  \\r\\n    modifier on\n      PUSH 100\t\t\t  \\r\\n    modifier on\n      EXP \t\t\t  \\r\\n    modifier on\n      SWAP1 \t\t\t  \\r\\n    modifier on\n      DIV \t\t\t  \\r\\n    modifier on\n      PUSH FFFFFFFFFFFFFFFFFFFFFFFFFFFFFFFFFFFFFFFF\t\t\t  \\r\\n    modifier on\n      AND \t\t\t  \\r\\n    modifier on\n      SWAP1 \t\t\t  }\\r\\n    \\r\\n    modifier on\n      POP \t\t\t  }\\r\\n    \\r\\n    modifier on\n      SWAP2 \t\t\t        require(escrows[gigId]...\n      SWAP1 \t\t\t        require(escrows[gigId]...\n      POP \t\t\t        require(escrows[gigId]...\n      JUMP \t\t\t        require(escrows[gigId]...\n    tag 91\t\t\tent can call this\");\\r\\n      ...\n      JUMPDEST \t\t\tent can call this\");\\r\\n      ...\n      PUSH 0\t\t\tlyFreelancer(ui\n      PUSH [tag] 216\t\t\t56 gigId) {\\r\n      PUSH [tag] 174\t\t\t56 gigId) \n      JUMP \t\t\t56 gigId) {\\r\n    tag 216\t\t\t56 gigId) {\\r\n      JUMPDEST \t\t\t56 gigId) {\\r\n      SWAP1 \t\t\tlyFreelancer(uint256 gigId) {\\...\n      POP \t\t\tlyFreelancer(uint256 gigId) {\\...\n      PUSH [tag] 217\t\t\tequire(msg.sender == escrows[\n      DUP2 \t\t\t.sender\n      DUP4 \t\t\t= escrows\n      PUSH [tag] 218\t\t\tequire(ms\n      JUMP \t\t\tequire(msg.sender == escrows[\n    tag 217\t\t\tequire(msg.sender == escrows[\n      JUMPDEST \t\t\tequire(msg.sender == escrows[\n      POP \t\t\todifier onlyFreelancer(uint256...\n      POP \t\t\tent can call this\");\\r\\n      ...\n      JUMP \t\t\tent can call this\");\\r\\n      ...\n    tag 95\t\t\tfunction batchMint(address[] c...\n      JUMPDEST \t\t\tfunction batchMint(address[] c...\n      PUSH C\t\t\tminters\n      PUSH 0\t\t\tminters[msg.sender]\n      CALLER \t\t\tmsg.sender\n      PUSH FFFFFFFFFFFFFFFFFFFFFFFFFFFFFFFFFFFFFFFF\t\t\tminters[msg.sender]\n      AND \t\t\tminters[msg.sender]\n      PUSH FFFFFFFFFFFFFFFFFFFFFFFFFFFFFFFFFFFFFFFF\t\t\tminters[msg.sender]\n      AND \t\t\tminters[msg.sender]\n      DUP2 \t\t\tminters[msg.sender]\n      MSTORE \t\t\tminters[msg.sender]\n      PUSH 20\t\t\tminters[msg.sender]\n      ADD \t\t\tminters[msg.sender]\n      SWAP1 \t\t\tminters[msg.sender]\n      DUP2 \t\t\tminters[msg.sender]\n      MSTORE \t\t\tminters[msg.sender]\n      PUSH 20\t\t\tminters[msg.sender]\n      ADD \t\t\tminters[msg.sender]\n      PUSH 0\t\t\tminters[msg.sender]\n      KECCAK256 \t\t\tminters[msg.sender]\n      PUSH 0\t\t\tminters[msg.sender]\n      SWAP1 \t\t\tminters[msg.sender]\n      SLOAD \t\t\tminters[msg.sender]\n      SWAP1 \t\t\tminters[msg.sender]\n      PUSH 100\t\t\tminters[msg.sender]\n      EXP \t\t\tminters[msg.sender]\n      SWAP1 \t\t\tminters[msg.sender]\n      DIV \t\t\tminters[msg.sender]\n      PUSH FF\t\t\tminters[msg.sender]\n      AND \t\t\tminters[msg.sender]\n      DUP1 \t\t\tminters[msg.sender] || msg.sen...\n      PUSH [tag] 220\t\t\tminters[msg.sender] || msg.sen...\n      JUMPI \t\t\tminters[msg.sender] || msg.sen...\n      POP \t\t\tminters[msg.sender] || msg.sen...\n      PUSH [tag] 221\t\t\towner()\n      PUSH [tag] 116\t\t\towner\n      JUMP \t\t\towner()\n    tag 221\t\t\towner()\n      JUMPDEST \t\t\towner()\n      PUSH FFFFFFFFFFFFFFFFFFFFFFFFFFFFFFFFFFFFFFFF\t\t\tmsg.sender == owner()\n      AND \t\t\tmsg.sender == owner()\n      CALLER \t\t\tmsg.sender\n      PUSH FFFFFFFFFFFFFFFFFFFFFFFFFFFFFFFFFFFFFFFF\t\t\tmsg.sender == owner()\n      AND \t\t\tmsg.sender == owner()\n      EQ \t\t\tmsg.sender == owner()\n    tag 220\t\t\tminters[msg.sender] || msg.sen...\n      JUMPDEST \t\t\tminters[msg.sender] || msg.sen...\n      PUSH [tag] 222\t\t\trequire(minters[msg.sender] ||...\n      JUMPI \t\t\trequire(minters[msg.sender] ||...\n      PUSH 40\t\t\trequire(minters[msg.sender] ||...\n      MLOAD \t\t\trequire(minters[msg.sender] ||...\n      PUSH 8C379A000000000000000000000000000000000000000000000000000000000\t\t\trequire(minters[msg.sender] ||...\n      DUP2 \t\t\trequire(minters[msg.sender] ||...\n      MSTORE \t\t\trequire(minters[msg.sender] ||...\n      PUSH 4\t\t\trequire(minters[msg.sender] ||...\n      ADD \t\t\trequire(minters[msg.sender] ||...\n      PUSH [tag] 223\t\t\trequire(minters[msg.sender] ||...\n      SWAP1 \t\t\trequire(minters[msg.sender] ||...\n      PUSH [tag] 199\t\t\trequire(minters[msg.sender] ||...\n      JUMP \t\t\trequire(minters[msg.sender] ||...\n    tag 223\t\t\trequire(minters[msg.sender] ||...\n      JUMPDEST \t\t\trequire(minters[msg.sender] ||...\n      PUSH 40\t\t\trequire(minters[msg.sender] ||...\n      MLOAD \t\t\trequire(minters[msg.sender] ||...\n      DUP1 \t\t\trequire(minters[msg.sender] ||...\n      SWAP2 \t\t\trequire(minters[msg.sender] ||...\n      SUB \t\t\trequire(minters[msg.sender] ||...\n      SWAP1 \t\t\trequire(minters[msg.sender] ||...\n      REVERT \t\t\trequire(minters[msg.sender] ||...\n    tag 222\t\t\trequire(minters[msg.sender] ||...\n      JUMPDEST \t\t\trequire(minters[msg.sender] ||...\n      DUP2 \t\t\tamounts\n      DUP2 \t\t\tamounts\n      SWAP1 \t\t\tamounts.length\n      POP \t\t\tamounts.length\n      DUP5 \t\t\trecipients\n      DUP5 \t\t\trecipients\n      SWAP1 \t\t\trecipients.length\n      POP \t\t\trecipients.length\n      EQ \t\t\trecipients.length == amounts.l...\n      PUSH [tag] 225\t\t\trequire(recipients.length == a...\n      JUMPI \t\t\trequire(recipients.length == a...\n      PUSH 40\t\t\trequire(recipients.length == a...\n      MLOAD \t\t\trequire(recipients.length == a...\n      PUSH 8C379A000000000000000000000000000000000000000000000000000000000\t\t\trequire(recipients.length == a...\n      DUP2 \t\t\trequire(recipients.length == a...\n      MSTORE \t\t\trequire(recipients.length == a...\n      PUSH 4\t\t\trequire(recipients.length == a...\n      ADD \t\t\trequire(recipients.length == a...\n      PUSH [tag] 226\t\t\trequire(recipients.length == a...\n      SWAP1 \t\t\trequire(recipients.length == a...\n      PUSH [tag] 227\t\t\trequire(recipients.length == a...\n      JUMP \t\t\trequire(recipients.length == a...\n    tag 226\t\t\trequire(recipients.length == a...\n      JUMPDEST \t\t\trequire(recipients.length == a...\n      PUSH 40\t\t\trequire(recipients.length == a...\n      MLOAD \t\t\trequire(recipients.length == a...\n      DUP1 \t\t\trequire(recipients.length == a...\n      SWAP2 \t\t\trequire(recipients.length == a...\n      SUB \t\t\trequire(recipients.length == a...\n      SWAP1 \t\t\trequire(recipients.length == a...\n      REVERT \t\t\trequire(recipients.length == a...\n    tag 225\t\t\trequire(recipients.length == a...\n      JUMPDEST \t\t\trequire(recipients.length == a...\n      PUSH 0\t\t\tuint256 totalAmount\n      PUSH 0\t\t\t0\n      SWAP1 \t\t\tuint256 totalAmount = 0\n      POP \t\t\tuint256 totalAmount = 0\n      PUSH 0\t\t\tuint256 i\n      PUSH 0\t\t\t0\n      SWAP1 \t\t\tuint256 i = 0\n      POP \t\t\tuint256 i = 0\n    tag 228\t\t\tfor (uint256 i = 0; i < amount...\n      JUMPDEST \t\t\tfor (uint256 i = 0; i < amount...\n      DUP4 \t\t\tamounts\n      DUP4 \t\t\tamounts\n      SWAP1 \t\t\tamounts.length\n      POP \t\t\tamounts.length\n      DUP2 \t\t\ti\n      LT \t\t\ti < amounts.length\n      ISZERO \t\t\tfor (uint256 i = 0; i < amount...\n      PUSH [tag] 229\t\t\tfor (uint256 i = 0; i < amount...\n      JUMPI \t\t\tfor (uint256 i = 0; i < amount...\n      DUP4 \t\t\tamounts\n      DUP4 \t\t\tamounts\n      DUP3 \t\t\ti\n      DUP2 \t\t\tamounts[i]\n      DUP2 \t\t\tamounts[i]\n      LT \t\t\tamounts[i]\n      PUSH [tag] 231\t\t\tamounts[i]\n      JUMPI \t\t\tamounts[i]\n      PUSH [tag] 232\t\t\tamounts[i]\n      PUSH [tag] 233\t\t\tamounts[i]\n      JUMP \t\t\tamounts[i]\n    tag 232\t\t\tamounts[i]\n      JUMPDEST \t\t\tamounts[i]\n    tag 231\t\t\tamounts[i]\n      JUMPDEST \t\t\tamounts[i]\n      SWAP1 \t\t\tamounts[i]\n      POP \t\t\tamounts[i]\n      PUSH 20\t\t\tamounts[i]\n      MUL \t\t\tamounts[i]\n      ADD \t\t\tamounts[i]\n      CALLDATALOAD \t\t\tamounts[i]\n      DUP3 \t\t\ttotalAmount += amounts[i]\n      PUSH [tag] 234\t\t\ttotalAmount += amounts[i]\n      SWAP2 \t\t\ttotalAmount += amounts[i]\n      SWAP1 \t\t\ttotalAmount += amounts[i]\n      PUSH [tag] 203\t\t\ttotalAmount += amounts[i]\n      JUMP \t\t\ttotalAmount += amounts[i]\n    tag 234\t\t\ttotalAmount += amounts[i]\n      JUMPDEST \t\t\ttotalAmount += amounts[i]\n      SWAP2 \t\t\ttotalAmount += amounts[i]\n      POP \t\t\ttotalAmount += amounts[i]\n      DUP1 \t\t\ti++\n      DUP1 \t\t\ti++\n      PUSH 1\t\t\ti++\n      ADD \t\t\ti++\n      SWAP2 \t\t\ti++\n      POP \t\t\ti++\n      POP \t\t\ti++\n      PUSH [tag] 228\t\t\tfor (uint256 i = 0; i < amount...\n      JUMP \t\t\tfor (uint256 i = 0; i < amount...\n    tag 229\t\t\tfor (uint256 i = 0; i < amount...\n      JUMPDEST \t\t\tfor (uint256 i = 0; i < amount...\n      POP \t\t\tfor (uint256 i = 0; i < amount...\n      PUSH 84595161401484A000000\t\t\t10000000 * 10**18\n      DUP2 \t\t\ttotalAmount\n      PUSH [tag] 235\t\t\ttotalSupply()\n      PUSH [tag] 52\t\t\ttotalSupply\n      JUMP \t\t\ttotalSupply()\n    tag 235\t\t\ttotalSupply()\n      JUMPDEST \t\t\ttotalSupply()\n      PUSH [tag] 236\t\t\ttotalSupply() + totalAmount\n      SWAP2 \t\t\ttotalSupply() + totalAmount\n      SWAP1 \t\t\ttotalSupply() + totalAmount\n      PUSH [tag] 203\t\t\ttotalSupply() + totalAmount\n      JUMP \t\t\ttotalSupply() + totalAmount\n    tag 236\t\t\ttotalSupply() + totalAmount\n      JUMPDEST \t\t\ttotalSupply() + totalAmount\n      GT \t\t\ttotalSupply() + totalAmount <=...\n      ISZERO \t\t\ttotalSupply() + totalAmount <=...\n      PUSH [tag] 237\t\t\trequire(totalSupply() + totalA...\n      JUMPI \t\t\trequire(totalSupply() + totalA...\n      PUSH 40\t\t\trequire(totalSupply() + totalA...\n      MLOAD \t\t\trequire(totalSupply() + totalA...\n      PUSH 8C379A000000000000000000000000000000000000000000000000000000000\t\t\trequire(totalSupply() + totalA...\n      DUP2 \t\t\trequire(totalSupply() + totalA...\n      MSTORE \t\t\trequire(totalSupply() + totalA...\n      PUSH 4\t\t\trequire(totalSupply() + totalA...\n      ADD \t\t\trequire(totalSupply() + totalA...\n      PUSH [tag] 238\t\t\trequire(totalSupply() + totalA...\n      SWAP1 \t\t\trequire(totalSupply() + totalA...\n      PUSH [tag] 206\t\t\trequire(totalSupply() + totalA...\n      JUMP \t\t\trequire(totalSupply() + totalA...\n    tag 238\t\t\trequire(totalSupply() + totalA...\n      JUMPDEST \t\t\trequire(totalSupply() + totalA...\n      PUSH 40\t\t\trequire(totalSupply() + totalA...\n      MLOAD \t\t\trequire(totalSupply() + totalA...\n      DUP1 \t\t\trequire(totalSupply() + totalA...\n      SWAP2 \t\t\trequire(totalSupply() + totalA...\n      SUB \t\t\trequire(totalSupply() + totalA...\n      SWAP1 \t\t\trequire(totalSupply() + totalA...\n      REVERT \t\t\trequire(totalSupply() + totalA...\n    tag 237\t\t\trequire(totalSupply() + totalA...\n      JUMPDEST \t\t\trequire(totalSupply() + totalA...\n      PUSH 0\t\t\tuint256 i\n      PUSH 0\t\t\t0\n      SWAP1 \t\t\tuint256 i = 0\n      POP \t\t\tuint256 i = 0\n    tag 239\t\t\tfor (uint256 i = 0; i < recipi...\n      JUMPDEST \t\t\tfor (uint256 i = 0; i < recipi...\n      DUP6 \t\t\trecipients\n      DUP6 \t\t\trecipients\n      SWAP1 \t\t\trecipients.length\n      POP \t\t\trecipients.length\n      DUP2 \t\t\ti\n      LT \t\t\ti < recipients.length\n      ISZERO \t\t\tfor (uint256 i = 0; i < recipi...\n      PUSH [tag] 240\t\t\tfor (uint256 i = 0; i < recipi...\n      JUMPI \t\t\tfor (uint256 i = 0; i < recipi...\n      PUSH [tag] 242\t\t\t_mint(recipients[i], amounts[i...\n      DUP7 \t\t\trecipients\n      DUP7 \t\t\trecipients\n      DUP4 \t\t\ti\n      DUP2 \t\t\trecipients[i]\n      DUP2 \t\t\trecipients[i]\n      LT \t\t\trecipients[i]\n      PUSH [tag] 243\t\t\trecipients[i]\n      JUMPI \t\t\trecipients[i]\n      PUSH [tag] 244\t\t\trecipients[i]\n      PUSH [tag] 233\t\t\trecipients[i]\n      JUMP \t\t\trecipients[i]\n    tag 244\t\t\trecipients[i]\n      JUMPDEST \t\t\trecipients[i]\n    tag 243\t\t\trecipients[i]\n      JUMPDEST \t\t\trecipients[i]\n      SWAP1 \t\t\trecipients[i]\n      POP \t\t\trecipients[i]\n      PUSH 20\t\t\trecipients[i]\n      MUL \t\t\trecipients[i]\n      ADD \t\t\trecipients[i]\n      PUSH 20\t\t\trecipients[i]\n      DUP2 \t\t\trecipients[i]\n      ADD \t\t\trecipients[i]\n      SWAP1 \t\t\trecipients[i]\n      PUSH [tag] 245\t\t\trecipients[i]\n      SWAP2 \t\t\trecipients[i]\n      SWAP1 \t\t\trecipients[i]\n      PUSH [tag] 65\t\t\trecipients[i]\n      JUMP \t\t\trecipients[i]\n    tag 245\t\t\trecipients[i]\n      JUMPDEST \t\t\trecipients[i]\n      DUP6 \t\t\tamounts\n      DUP6 \t\t\tamounts\n      DUP5 \t\t\ti\n      DUP2 \t\t\tamounts[i]\n      DUP2 \t\t\tamounts[i]\n      LT \t\t\tamounts[i]\n      PUSH [tag] 246\t\t\tamounts[i]\n      JUMPI \t\t\tamounts[i]\n      PUSH [tag] 247\t\t\tamounts[i]\n      PUSH [tag] 233\t\t\tamounts[i]\n      JUMP \t\t\tamounts[i]\n    tag 247\t\t\tamounts[i]\n      JUMPDEST \t\t\tamounts[i]\n    tag 246\t\t\tamounts[i]\n      JUMPDEST \t\t\tamounts[i]\n      SWAP1 \t\t\tamounts[i]\n      POP \t\t\tamounts[i]\n      PUSH 20\t\t\tamounts[i]\n      MUL \t\t\tamounts[i]\n      ADD \t\t\tamounts[i]\n      CALLDATALOAD \t\t\tamounts[i]\n      PUSH [tag] 208\t\t\t_mint\n      JUMP \t\t\t_mint(recipients[i], amounts[i...\n    tag 242\t\t\t_mint(recipients[i], amounts[i...\n      JUMPDEST \t\t\t_mint(recipients[i], amounts[i...\n      DUP1 \t\t\ti++\n      DUP1 \t\t\ti++\n      PUSH 1\t\t\ti++\n      ADD \t\t\ti++\n      SWAP2 \t\t\ti++\n      POP \t\t\ti++\n      POP \t\t\ti++\n      PUSH [tag] 239\t\t\tfor (uint256 i = 0; i < recipi...\n      JUMP \t\t\tfor (uint256 i = 0; i < recipi...\n    tag 240\t\t\tfor (uint256 i = 0; i < recipi...\n      JUMPDEST \t\t\tfor (uint256 i = 0; i < recipi...\n      POP \t\t\tfor (uint256 i = 0; i < recipi...\n      POP \t\t\t{\\r\\n        require(recipient...\n      POP \t\t\tfunction batchMint(address[] c...\n      POP \t\t\tfunction batchMint(address[] c...\n      POP \t\t\tfunction batchMint(address[] c...\n      POP \t\t\tfunction batchMint(address[] c...\n      JUMP \t\t\tfunction batchMint(address[] c...\n    tag 98\t\t\t max supply\");\\r\\n        \\r\\n...\n      JUMPDEST \t\t\t max supply\");\\r\\n        \\r\\n...\n      PUSH 0\t\t\tength;\n      PUSH [tag] 249\t\t\t  _mint(recipients[i], a\n      DUP3 \t\t\tts[i], \n      PUSH [tag] 250\t\t\t  _mint(recipie\n      JUMP \t\t\t  _mint(recipients[i], a\n    tag 249\t\t\t  _mint(recipients[i], a\n      JUMPDEST \t\t\t  _mint(recipients[i], a\n      SWAP1 \t\t\t         _mint(recipients[i], ...\n      POP \t\t\t         _mint(recipients[i], ...\n      SWAP2 \t\t\t max supply\");\\r\\n        \\r\\n...\n      SWAP1 \t\t\t max supply\");\\r\\n        \\r\\n...\n      POP \t\t\t max supply\");\\r\\n        \\r\\n...\n      JUMP \t\t\t max supply\");\\r\\n        \\r\\n...\n    tag 103\t\t\t   require(recipients.length =...\n      JUMPDEST \t\t\t   require(recipients.length =...\n      PUSH 0\t\t\tsmatch\"\n      PUSH 0\t\t\t   uint25\n      PUSH 0\t\t\t   uint256 totalAm\n      DUP4 \t\t\t totalA\n      PUSH FFFFFFFFFFFFFFFFFFFFFFFFFFFFFFFFFFFFFFFF\t\t\t   uint256 totalAm\n      AND \t\t\t   uint256 totalAm\n      PUSH FFFFFFFFFFFFFFFFFFFFFFFFFFFFFFFFFFFFFFFF\t\t\t   uint256 totalAm\n      AND \t\t\t   uint256 totalAm\n      DUP2 \t\t\t   uint256 totalAm\n      MSTORE \t\t\t   uint256 totalAm\n      PUSH 20\t\t\t   uint256 totalAm\n      ADD \t\t\t   uint256 totalAm\n      SWAP1 \t\t\t   uint256 totalAm\n      DUP2 \t\t\t   uint256 totalAm\n      MSTORE \t\t\t   uint256 totalAm\n      PUSH 20\t\t\t   uint256 totalAm\n      ADD \t\t\t   uint256 totalAm\n      PUSH 0\t\t\t   uint256 totalAm\n      KECCAK256 \t\t\t   uint256 totalAm\n      SLOAD \t\t\t   uint256 totalAm\n      SWAP1 \t\t\t\\r\\n        uint256 totalAm\n      POP \t\t\t\\r\\n        uint256 totalAm\n      SWAP2 \t\t\t   require(recipients.length =...\n      SWAP1 \t\t\t   require(recipients.length =...\n      POP \t\t\t   require(recipients.length =...\n      JUMP \t\t\t   require(recipients.length =...\n    tag 106\t\t\t\\n        minters[minter] = tr...\n      JUMPDEST \t\t\t\\n        minters[minter] = tr...\n      PUSH [tag] 253\t\t\t \\r\\n    constr\n      PUSH [tag] 186\t\t\t \\r\\n    cons\n      JUMP \t\t\t \\r\\n    constr\n    tag 253\t\t\t \\r\\n    constr\n      JUMPDEST \t\t\t \\r\\n    constr\n      PUSH [tag] 255\t\t\tr);\\r\\n    }\\r\\n    \\r\\n    /*...\n      PUSH 0\t\t\t \n      PUSH [tag] 256\t\t\tr);\\r\\n    }\\r\\n    \\r\\n\n      JUMP \t\t\tr);\\r\\n    }\\r\\n    \\r\\n    /*...\n    tag 255\t\t\tr);\\r\\n    }\\r\\n    \\r\\n    /*...\n      JUMPDEST \t\t\tr);\\r\\n    }\\r\\n    \\r\\n    /*...\n      JUMP \t\t\t\\n        minters[minter] = tr...\n    tag 109\t\t\tfunction nonces(address owner)...\n      JUMPDEST \t\t\tfunction nonces(address owner)...\n      PUSH 0\t\t\tuint256\n      PUSH [tag] 258\t\t\tsuper.nonces(owner)\n      DUP3 \t\t\towner\n      PUSH [tag] 259\t\t\tsuper.nonces\n      JUMP \t\t\tsuper.nonces(owner)\n    tag 258\t\t\tsuper.nonces(owner)\n      JUMPDEST \t\t\tsuper.nonces(owner)\n      SWAP1 \t\t\treturn super.nonces(owner)\n      POP \t\t\treturn super.nonces(owner)\n      SWAP2 \t\t\tfunction nonces(address owner)...\n      SWAP1 \t\t\tfunction nonces(address owner)...\n      POP \t\t\tfunction nonces(address owner)...\n      JUMP \t\t\tfunction nonces(address owner)...\n    tag 112\t\t\t   uint256 amount\\r\\n    );\\r\\...\n      JUMPDEST \t\t\t   uint256 amount\\r\\n    );\\r\\...\n      PUSH 0\t\t\t  address ind\n      PUSH 60\t\t\tr,\\r\\n        uint25\n      DUP1 \t\t\t);\\r\\n    \\r\\n    event E\n      PUSH 0\t\t\t\\r\\n        uint2\n      PUSH 0\t\t\tId,\\r\\n        address inde\n      PUSH 0\t\t\t       uint2\n      PUSH 60\t\t\t );\\r\\n    \\r\\n    // Modifier...\n      PUSH [tag] 261\t\t\tsts, \"Gig esc\n      PUSH [tag] 262\t\t\tsts, \"Gig e\n      JUMP \t\t\tsts, \"Gig esc\n    tag 261\t\t\tsts, \"Gig esc\n      JUMPDEST \t\t\tsts, \"Gig esc\n      PUSH [tag] 263\t\t\txist\");\\r\\n       \n      PUSH [tag] 264\t\t\txist\");\\r\\n     \n      JUMP \t\t\txist\");\\r\\n       \n    tag 263\t\t\txist\");\\r\\n       \n      JUMPDEST \t\t\txist\");\\r\\n       \n      CHAINID \t\t\t  \\r\\n    modif\n      ADDRESS \t\t\t gig\n      PUSH 0\t\t\tm\n      PUSH 0\t\t\trequire(ms\n      SHL \t\t\trequire(ms\n      PUSH 0\t\t\tl\n      PUSH FFFFFFFFFFFFFFFF\t\t\tcrows[gigId].cli\n      DUP2 \t\t\tcrows[gigId].cli\n      GT \t\t\tcrows[gigId].cli\n      ISZERO \t\t\tcrows[gigId].cli\n      PUSH [tag] 265\t\t\tcrows[gigId].cli\n      JUMPI \t\t\tcrows[gigId].cli\n      PUSH [tag] 266\t\t\tcrows[gigId].cli\n      PUSH [tag] 267\t\t\tcrows[gigId].cli\n      JUMP \t\t\tcrows[gigId].cli\n    tag 266\t\t\tcrows[gigId].cli\n      JUMPDEST \t\t\tcrows[gigId].cli\n    tag 265\t\t\tcrows[gigId].cli\n      JUMPDEST \t\t\tcrows[gigId].cli\n      PUSH 40\t\t\tcrows[gigId].cli\n      MLOAD \t\t\tcrows[gigId].cli\n      SWAP1 \t\t\tcrows[gigId].cli\n      DUP1 \t\t\tcrows[gigId].cli\n      DUP3 \t\t\tcrows[gigId].cli\n      MSTORE \t\t\tcrows[gigId].cli\n      DUP1 \t\t\tcrows[gigId].cli\n      PUSH 20\t\t\tcrows[gigId].cli\n      MUL \t\t\tcrows[gigId].cli\n      PUSH 20\t\t\tcrows[gigId].cli\n      ADD \t\t\tcrows[gigId].cli\n      DUP3 \t\t\tcrows[gigId].cli\n      ADD \t\t\tcrows[gigId].cli\n      PUSH 40\t\t\tcrows[gigId].cli\n      MSTORE \t\t\tcrows[gigId].cli\n      DUP1 \t\t\tcrows[gigId].cli\n      ISZERO \t\t\tcrows[gigId].cli\n      PUSH [tag] 268\t\t\tcrows[gigId].cli\n      JUMPI \t\t\tcrows[gigId].cli\n      DUP2 \t\t\tcrows[gigId].cli\n      PUSH 20\t\t\tcrows[gigId].cli\n      ADD \t\t\tcrows[gigId].cli\n      PUSH 20\t\t\tcrows[gigId].cli\n      DUP3 \t\t\tcrows[gigId].cli\n      MUL \t\t\tcrows[gigId].cli\n      DUP1 \t\t\tcrows[gigId].cli\n      CALLDATASIZE \t\t\tcrows[gigId].cli\n      DUP4 \t\t\tcrows[gigId].cli\n      CALLDATACOPY \t\t\tcrows[gigId].cli\n      DUP1 \t\t\tcrows[gigId].cli\n      DUP3 \t\t\tcrows[gigId].cli\n      ADD \t\t\tcrows[gigId].cli\n      SWAP2 \t\t\tcrows[gigId].cli\n      POP \t\t\tcrows[gigId].cli\n      POP \t\t\tcrows[gigId].cli\n      SWAP1 \t\t\tcrows[gigId].cli\n      POP \t\t\tcrows[gigId].cli\n    tag 268\t\t\tcrows[gigId].cli\n      JUMPDEST \t\t\tcrows[gigId].cli\n      POP \t\t\tcrows[gigId].cli\n      PUSH F00000000000000000000000000000000000000000000000000000000000000\t\t\tint256 gigId) {\\r\\n        req...\n      SWAP6 \t\t\tint256 gigId) {\\r\\n        req...\n      SWAP5 \t\t\tint256 gigId) {\\r\\n        req...\n      SWAP4 \t\t\tint256 gigId) {\\r\\n        req...\n      SWAP3 \t\t\tint256 gigId) {\\r\\n        req...\n      SWAP2 \t\t\tint256 gigId) {\\r\\n        req...\n      SWAP1 \t\t\tint256 gigId) {\\r\\n        req...\n      SWAP7 \t\t\tint256 gigId) {\\r\\n        req...\n      POP \t\t\tint256 gigId) {\\r\\n        req...\n      SWAP7 \t\t\tint256 gigId) {\\r\\n        req...\n      POP \t\t\tint256 gigId) {\\r\\n        req...\n      SWAP7 \t\t\tint256 gigId) {\\r\\n        req...\n      POP \t\t\tint256 gigId) {\\r\\n        req...\n      SWAP7 \t\t\tint256 gigId) {\\r\\n        req...\n      POP \t\t\tint256 gigId) {\\r\\n        req...\n      SWAP7 \t\t\tint256 gigId) {\\r\\n        req...\n      POP \t\t\tint256 gigId) {\\r\\n        req...\n      SWAP7 \t\t\tint256 gigId) {\\r\\n        req...\n      POP \t\t\tint256 gigId) {\\r\\n        req...\n      SWAP7 \t\t\tint256 gigId) {\\r\\n        req...\n      POP \t\t\tint256 gigId) {\\r\\n        req...\n      SWAP1 \t\t\t   uint256 amount\\r\\n    );\\r\\...\n      SWAP2 \t\t\t   uint256 amount\\r\\n    );\\r\\...\n      SWAP3 \t\t\t   uint256 amount\\r\\n    );\\r\\...\n      SWAP4 \t\t\t   uint256 amount\\r\\n    );\\r\\...\n      SWAP5 \t\t\t   uint256 amount\\r\\n    );\\r\\...\n      SWAP6 \t\t\t   uint256 amount\\r\\n    );\\r\\...\n      SWAP7 \t\t\t   uint256 amount\\r\\n    );\\r\\...\n      JUMP \t\t\t   uint256 amount\\r\\n    );\\r\\...\n    tag 116\t\t\talOwner) EIP712(\"SecureGig DAO...\n      JUMPDEST \t\t\talOwner) EIP712(\"SecureGig DAO...\n      PUSH 0\t\t\t\\n      \n      PUSH B\t\t\tr, INI\n      PUSH 0\t\t\tr, INI\n      SWAP1 \t\t\tr, INI\n      SLOAD \t\t\tr, INI\n      SWAP1 \t\t\tr, INI\n      PUSH 100\t\t\tr, INI\n      EXP \t\t\tr, INI\n      SWAP1 \t\t\tr, INI\n      DIV \t\t\tr, INI\n      PUSH FFFFFFFFFFFFFFFFFFFFFFFFFFFFFFFFFFFFFFFF\t\t\tr, INI\n      AND \t\t\tr, INI\n      SWAP1 \t\t\tialOwner, INI\n      POP \t\t\tialOwner, INI\n      SWAP1 \t\t\talOwner) EIP712(\"SecureGig DAO...\n      JUMP \t\t\talOwner) EIP712(\"SecureGig DAO...\n    tag 121\t\t\t\\n    event EscrowFunded(\\r\\n ...\n      JUMPDEST \t\t\t\\n    event EscrowFunded(\\r\\n ...\n      PUSH 0\t\t\tdexed c\n      PUSH [tag] 271\t\t\tt256 amount\\r\\n    );\\r\\n    \\...\n      PUSH [tag] 272\t\t\t EscrowReleased(\\r\\n        ui...\n      DUP4 \t\t\t       ui\n      PUSH [tag] 192\t\t\t EscrowReleased(\\r\\n\n      JUMP \t\t\t EscrowReleased(\\r\\n        ui...\n    tag 272\t\t\t EscrowReleased(\\r\\n        ui...\n      JUMPDEST \t\t\t EscrowReleased(\\r\\n        ui...\n      PUSH A\t\t\tt256 amount\\r\\n    \n      PUSH [tag] 193\t\t\tt256 amount\\r\\n    );\\r\\n    \\...\n      SWAP1 \t\t\tt256 amount\\r\\n    );\\r\\n    \\...\n      SWAP2 \t\t\tt256 amount\\r\\n    );\\r\\n    \\...\n      SWAP1 \t\t\tt256 amount\\r\\n    );\\r\\n    \\...\n      PUSH FFFFFFFF\t\t\tt256 amount\\r\\n    );\\r\\n    \\...\n      AND \t\t\tt256 amount\\r\\n    );\\r\\n    \\...\n      JUMP \t\t\tt256 amount\\r\\n    );\\r\\n    \\...\n    tag 271\t\t\tt256 amount\\r\\n    );\\r\\n    \\...\n      JUMPDEST \t\t\tt256 amount\\r\\n    );\\r\\n    \\...\n      PUSH FFFFFFFFFFFFFFFFFFFFFFFFFFFFFFFFFFFFFFFFFFFFFFFFFFFF\t\t\t    uint256 amount\\r\\n    );\\r...\n      AND \t\t\t    uint256 amount\\r\\n    );\\r...\n      SWAP1 \t\t\t    uint256 amount\\r\\n    );\\r...\n      POP \t\t\t    uint256 amount\\r\\n    );\\r...\n      SWAP2 \t\t\t\\n    event EscrowFunded(\\r\\n ...\n      SWAP1 \t\t\t\\n    event EscrowFunded(\\r\\n ...\n      POP \t\t\t\\n    event EscrowFunded(\\r\\n ...\n      JUMP \t\t\t\\n    event EscrowFunded(\\r\\n ...\n    tag 124\t\t\tf amounts to distribute\\r\\n   ...\n      JUMPDEST \t\t\tf amounts to distribute\\r\\n   ...\n      PUSH 0\t\t\t batch\n      PUSH [tag] 274\t\t\tdata recipients, u\n      PUSH [tag] 211\t\t\tdata recipients,\n      JUMP \t\t\tdata recipients, u\n    tag 274\t\t\tdata recipients, u\n      JUMPDEST \t\t\tdata recipients, u\n      SWAP1 \t\t\t[] calldata recipients, u\n      POP \t\t\t[] calldata recipients, u\n      SWAP1 \t\t\tf amounts to distribute\\r\\n   ...\n      JUMP \t\t\tf amounts to distribute\\r\\n   ...\n    tag 128\t\t\t mint(address to, uint256 amou...\n      JUMPDEST \t\t\t mint(address to, uint256 amou...\n      PUSH 60\t\t\tMinter {\\r\\n   \n      PUSH 4\t\t\tupply()\n      DUP1 \t\t\t(totalSupply()\n      SLOAD \t\t\t(totalSupply()\n      PUSH [tag] 276\t\t\t(totalSupply()\n      SWAP1 \t\t\t(totalSupply()\n      PUSH [tag] 167\t\t\t(totalSupply()\n      JUMP \t\t\t(totalSupply()\n    tag 276\t\t\t(totalSupply()\n      JUMPDEST \t\t\t(totalSupply()\n      DUP1 \t\t\t(totalSupply()\n      PUSH 1F\t\t\t(totalSupply()\n      ADD \t\t\t(totalSupply()\n      PUSH 20\t\t\t(totalSupply()\n      DUP1 \t\t\t(totalSupply()\n      SWAP2 \t\t\t(totalSupply()\n      DIV \t\t\t(totalSupply()\n      MUL \t\t\t(totalSupply()\n      PUSH 20\t\t\t(totalSupply()\n      ADD \t\t\t(totalSupply()\n      PUSH 40\t\t\t(totalSupply()\n      MLOAD \t\t\t(totalSupply()\n      SWAP1 \t\t\t(totalSupply()\n      DUP2 \t\t\t(totalSupply()\n      ADD \t\t\t(totalSupply()\n      PUSH 40\t\t\t(totalSupply()\n      MSTORE \t\t\t(totalSupply()\n      DUP1 \t\t\t(totalSupply()\n      SWAP3 \t\t\t(totalSupply()\n      SWAP2 \t\t\t(totalSupply()\n      SWAP1 \t\t\t(totalSupply()\n      DUP2 \t\t\t(totalSupply()\n      DUP2 \t\t\t(totalSupply()\n      MSTORE \t\t\t(totalSupply()\n      PUSH 20\t\t\t(totalSupply()\n      ADD \t\t\t(totalSupply()\n      DUP3 \t\t\t(totalSupply()\n      DUP1 \t\t\t(totalSupply()\n      SLOAD \t\t\t(totalSupply()\n      PUSH [tag] 277\t\t\t(totalSupply()\n      SWAP1 \t\t\t(totalSupply()\n      PUSH [tag] 167\t\t\t(totalSupply()\n      JUMP \t\t\t(totalSupply()\n    tag 277\t\t\t(totalSupply()\n      JUMPDEST \t\t\t(totalSupply()\n      DUP1 \t\t\t(totalSupply()\n      ISZERO \t\t\t(totalSupply()\n      PUSH [tag] 278\t\t\t(totalSupply()\n      JUMPI \t\t\t(totalSupply()\n      DUP1 \t\t\t(totalSupply()\n      PUSH 1F\t\t\t(totalSupply()\n      LT \t\t\t(totalSupply()\n      PUSH [tag] 279\t\t\t(totalSupply()\n      JUMPI \t\t\t(totalSupply()\n      PUSH 100\t\t\t(totalSupply()\n      DUP1 \t\t\t(totalSupply()\n      DUP4 \t\t\t(totalSupply()\n      SLOAD \t\t\t(totalSupply()\n      DIV \t\t\t(totalSupply()\n      MUL \t\t\t(totalSupply()\n      DUP4 \t\t\t(totalSupply()\n      MSTORE \t\t\t(totalSupply()\n      SWAP2 \t\t\t(totalSupply()\n      PUSH 20\t\t\t(totalSupply()\n      ADD \t\t\t(totalSupply()\n      SWAP2 \t\t\t(totalSupply()\n      PUSH [tag] 278\t\t\t(totalSupply()\n      JUMP \t\t\t(totalSupply()\n    tag 279\t\t\t(totalSupply()\n      JUMPDEST \t\t\t(totalSupply()\n      DUP3 \t\t\t(totalSupply()\n      ADD \t\t\t(totalSupply()\n      SWAP2 \t\t\t(totalSupply()\n      SWAP1 \t\t\t(totalSupply()\n      PUSH 0\t\t\t(totalSupply()\n      MSTORE \t\t\t(totalSupply()\n      PUSH 20\t\t\t(totalSupply()\n      PUSH 0\t\t\t(totalSupply()\n      KECCAK256 \t\t\t(totalSupply()\n      SWAP1 \t\t\t(totalSupply()\n    tag 280\t\t\t(totalSupply()\n      JUMPDEST \t\t\t(totalSupply()\n      DUP2 \t\t\t(totalSupply()\n      SLOAD \t\t\t(totalSupply()\n      DUP2 \t\t\t(totalSupply()\n      MSTORE \t\t\t(totalSupply()\n      SWAP1 \t\t\t(totalSupply()\n      PUSH 1\t\t\t(totalSupply()\n      ADD \t\t\t(totalSupply()\n      SWAP1 \t\t\t(totalSupply()\n      PUSH 20\t\t\t(totalSupply()\n      ADD \t\t\t(totalSupply()\n      DUP1 \t\t\t(totalSupply()\n      DUP4 \t\t\t(totalSupply()\n      GT \t\t\t(totalSupply()\n      PUSH [tag] 280\t\t\t(totalSupply()\n      JUMPI \t\t\t(totalSupply()\n      DUP3 \t\t\t(totalSupply()\n      SWAP1 \t\t\t(totalSupply()\n      SUB \t\t\t(totalSupply()\n      PUSH 1F\t\t\t(totalSupply()\n      AND \t\t\t(totalSupply()\n      DUP3 \t\t\t(totalSupply()\n      ADD \t\t\t(totalSupply()\n      SWAP2 \t\t\t(totalSupply()\n    tag 278\t\t\t(totalSupply()\n      JUMPDEST \t\t\t(totalSupply()\n      POP \t\t\t(totalSupply()\n      POP \t\t\t(totalSupply()\n      POP \t\t\t(totalSupply()\n      POP \t\t\t(totalSupply()\n      POP \t\t\t(totalSupply()\n      SWAP1 \t\t\t(totalSupply()\n      POP \t\t\t(totalSupply()\n      SWAP1 \t\t\t mint(address to, uint256 amou...\n      JUMP \t\t\t mint(address to, uint256 amou...\n    tag 132\t\t\tfunction addMinter(address min...\n      JUMPDEST \t\t\tfunction addMinter(address min...\n      PUSH [tag] 282\t\t\t \\r\\n    constr\n      PUSH [tag] 186\t\t\t \\r\\n    cons\n      JUMP \t\t\t \\r\\n    constr\n    tag 282\t\t\t \\r\\n    constr\n      JUMPDEST \t\t\t \\r\\n    constr\n      PUSH 1\t\t\ttrue\n      PUSH C\t\t\tminters\n      PUSH 0\t\t\tminters[minter]\n      DUP4 \t\t\tminter\n      PUSH FFFFFFFFFFFFFFFFFFFFFFFFFFFFFFFFFFFFFFFF\t\t\tminters[minter]\n      AND \t\t\tminters[minter]\n      PUSH FFFFFFFFFFFFFFFFFFFFFFFFFFFFFFFFFFFFFFFF\t\t\tminters[minter]\n      AND \t\t\tminters[minter]\n      DUP2 \t\t\tminters[minter]\n      MSTORE \t\t\tminters[minter]\n      PUSH 20\t\t\tminters[minter]\n      ADD \t\t\tminters[minter]\n      SWAP1 \t\t\tminters[minter]\n      DUP2 \t\t\tminters[minter]\n      MSTORE \t\t\tminters[minter]\n      PUSH 20\t\t\tminters[minter]\n      ADD \t\t\tminters[minter]\n      PUSH 0\t\t\tminters[minter]\n      KECCAK256 \t\t\tminters[minter]\n      PUSH 0\t\t\tminters[minter]\n      PUSH 100\t\t\tminters[minter] = true\n      EXP \t\t\tminters[minter] = true\n      DUP2 \t\t\tminters[minter] = true\n      SLOAD \t\t\tminters[minter] = true\n      DUP2 \t\t\tminters[minter] = true\n      PUSH FF\t\t\tminters[minter] = true\n      MUL \t\t\tminters[minter] = true\n      NOT \t\t\tminters[minter] = true\n      AND \t\t\tminters[minter] = true\n      SWAP1 \t\t\tminters[minter] = true\n      DUP4 \t\t\tminters[minter] = true\n      ISZERO \t\t\tminters[minter] = true\n      ISZERO \t\t\tminters[minter] = true\n      MUL \t\t\tminters[minter] = true\n      OR \t\t\tminters[minter] = true\n      SWAP1 \t\t\tminters[minter] = true\n      SSTORE \t\t\tminters[minter] = true\n      POP \t\t\tminters[minter] = true\n      DUP1 \t\t\tminter\n      PUSH FFFFFFFFFFFFFFFFFFFFFFFFFFFFFFFFFFFFFFFF\t\t\tMinterAdded(minter)\n      AND \t\t\tMinterAdded(minter)\n      PUSH 6AE172837EA30B801FBFCDD4108AA1D5BF8FF775444FD70256B44E6BF3DFC3F6\t\t\tMinterAdded(minter)\n      PUSH 40\t\t\tMinterAdded(minter)\n      MLOAD \t\t\tMinterAdded(minter)\n      PUSH 40\t\t\tMinterAdded(minter)\n      MLOAD \t\t\tMinterAdded(minter)\n      DUP1 \t\t\tMinterAdded(minter)\n      SWAP2 \t\t\tMinterAdded(minter)\n      SUB \t\t\tMinterAdded(minter)\n      SWAP1 \t\t\tMinterAdded(minter)\n      LOG2 \t\t\tMinterAdded(minter)\n      POP \t\t\tfunction addMinter(address min...\n      JUMP \t\t\tfunction addMinter(address min...\n    tag 135\t\t\tv Secure escrow contract for f...\n      JUMPDEST \t\t\tv Secure escrow contract for f...\n      PUSH 0\t\t\ted mapp\n      PUSH [tag] 285\t\t\tdles escrow creation, work app...\n      PUSH 9\t\t\tdles escrow creation\n      PUSH 0\t\t\tdles escrow creation, work ap\n      DUP5 \t\t\t work a\n      PUSH FFFFFFFFFFFFFFFFFFFFFFFFFFFFFFFFFFFFFFFF\t\t\tdles escrow creation, work ap\n      AND \t\t\tdles escrow creation, work ap\n      PUSH FFFFFFFFFFFFFFFFFFFFFFFFFFFFFFFFFFFFFFFF\t\t\tdles escrow creation, work ap\n      AND \t\t\tdles escrow creation, work ap\n      DUP2 \t\t\tdles escrow creation, work ap\n      MSTORE \t\t\tdles escrow creation, work ap\n      PUSH 20\t\t\tdles escrow creation, work ap\n      ADD \t\t\tdles escrow creation, work ap\n      SWAP1 \t\t\tdles escrow creation, work ap\n      DUP2 \t\t\tdles escrow creation, work ap\n      MSTORE \t\t\tdles escrow creation, work ap\n      PUSH 20\t\t\tdles escrow creation, work ap\n      ADD \t\t\tdles escrow creation, work ap\n      PUSH 0\t\t\tdles escrow creation, work ap\n      KECCAK256 \t\t\tdles escrow creation, work ap\n      PUSH [tag] 286\t\t\tdles escrow creation, work app...\n      JUMP \t\t\tdles escrow creation, work app...\n    tag 285\t\t\tdles escrow creation, work app...\n      JUMPDEST \t\t\tdles escrow creation, work app...\n      PUSH FFFFFFFFFFFFFFFFFFFFFFFFFFFFFFFFFFFFFFFFFFFFFFFFFFFF\t\t\tice Handles escrow creation, w...\n      AND \t\t\tice Handles escrow creation, w...\n      SWAP1 \t\t\tice Handles escrow creation, w...\n      POP \t\t\tice Handles escrow creation, w...\n      SWAP2 \t\t\tv Secure escrow contract for f...\n      SWAP1 \t\t\tv Secure escrow contract for f...\n      POP \t\t\tv Secure escrow contract for f...\n      JUMP \t\t\tv Secure escrow contract for f...\n    tag 139\t\t\tpply\");\\r\\n        \\r\\n       ...\n      JUMPDEST \t\t\tpply\");\\r\\n        \\r\\n       ...\n      PUSH 0\t\t\t i++\n      PUSH 0\t\t\t     _mint(re\n      PUSH [tag] 288\t\t\tients[i], am\n      PUSH [tag] 174\t\t\tients[i], \n      JUMP \t\t\tients[i], am\n    tag 288\t\t\tients[i], am\n      JUMPDEST \t\t\tients[i], am\n      SWAP1 \t\t\t     _mint(recipients[i], am\n      POP \t\t\t     _mint(recipients[i], am\n      PUSH [tag] 289\t\t\t\\r\\n        }\\r\\n    }\\r\\n    ...\n      DUP2 \t\t\t}\\r\\n  \n      DUP6 \t\t\t}\\r\n      DUP6 \t\t\t   \\r\\n\n      PUSH [tag] 183\t\t\t\\r\\n       \n      JUMP \t\t\t\\r\\n        }\\r\\n    }\\r\\n    ...\n    tag 289\t\t\t\\r\\n        }\\r\\n    }\\r\\n    ...\n      JUMPDEST \t\t\t\\r\\n        }\\r\\n    }\\r\\n    ...\n      PUSH 1\t\t\tquir\n      SWAP2 \t\t\tride requir\n      POP \t\t\tride requir\n      POP \t\t\tride requir\n      SWAP3 \t\t\tpply\");\\r\\n        \\r\\n       ...\n      SWAP2 \t\t\tpply\");\\r\\n        \\r\\n       ...\n      POP \t\t\tpply\");\\r\\n        \\r\\n       ...\n      POP \t\t\tpply\");\\r\\n        \\r\\n       ...\n      JUMP \t\t\tpply\");\\r\\n        \\r\\n       ...\n    tag 144\t\t\tnstructor(address initialOwner...\n      JUMPDEST \t\t\tnstructor(address initialOwner...\n      DUP4 \t\t\tm gigI\n      TIMESTAMP \t\t\tunds\\r\\n     * @p\n      GT \t\t\tunds\\r\\n     * @param gigI\n      ISZERO \t\t\tck funds\\r\\n     * @param gigI...\n      PUSH [tag] 291\t\t\tck funds\\r\\n     * @param gigI...\n      JUMPI \t\t\tck funds\\r\\n     * @param gigI...\n      DUP4 \t\t\tm free\n      PUSH 40\t\t\t the gig\\r\\n     * @param free...\n      MLOAD \t\t\t the gig\\r\\n     * @param free...\n      PUSH 4683AF0E00000000000000000000000000000000000000000000000000000000\t\t\t the gig\\r\\n     * @param free...\n      DUP2 \t\t\t the gig\\r\\n     * @param free...\n      MSTORE \t\t\t the gig\\r\\n     * @param free...\n      PUSH 4\t\t\t the gig\\r\\n     * @param free...\n      ADD \t\t\t the gig\\r\\n     * @param free...\n      PUSH [tag] 292\t\t\t the gig\\r\\n     * @param free...\n      SWAP2 \t\t\t the gig\\r\\n     * @param free...\n      SWAP1 \t\t\t the gig\\r\\n     * @param free...\n      PUSH [tag] 54\t\t\t the gig\\r\\n     * @param free...\n      JUMP \t\t\t the gig\\r\\n     * @param free...\n    tag 292\t\t\t the gig\\r\\n     * @param free...\n      JUMPDEST \t\t\t the gig\\r\\n     * @param free...\n      PUSH 40\t\t\t the gig\\r\\n     * @param free...\n      MLOAD \t\t\t the gig\\r\\n     * @param free...\n      DUP1 \t\t\t the gig\\r\\n     * @param free...\n      SWAP2 \t\t\t the gig\\r\\n     * @param free...\n      SUB \t\t\t the gig\\r\\n     * @param free...\n      SWAP1 \t\t\t the gig\\r\\n     * @param free...\n      REVERT \t\t\t the gig\\r\\n     * @param free...\n    tag 291\t\t\tck funds\\r\\n     * @param gigI...\n      JUMPDEST \t\t\tck funds\\r\\n     * @param gigI...\n      PUSH 0\t\t\t freelancer\\r\\n \n      PUSH [tag] 293\t\t\t * @param gigTitle Title of th...\n      PUSH [tag] 294\t\t\t the gig\\r\\n     */\\r\\n    fun...\n      PUSH E48329057BFD03D55E49B547132E39CFFD9C1820AD7B9D4C5307691425D15ADF\t\t\tX_SUPPLY, \"Exceeds max supply\"...\n      DUP10 \t\t\t256 gigId\n      DUP10 \t\t\t\\n    \n      DUP10 \t\t\t  addr\n      PUSH 40\t\t\ttion createEscrow(\\r\\n        ...\n      MLOAD \t\t\ttion createEscrow(\\r\\n        ...\n      PUSH 20\t\t\ttion createEscrow(\\r\\n        ...\n      ADD \t\t\ttion createEscrow(\\r\\n        ...\n      PUSH [tag] 295\t\t\ttion createEscrow(\\r\\n        ...\n      SWAP5 \t\t\ttion createEscrow(\\r\\n        ...\n      SWAP4 \t\t\ttion createEscrow(\\r\\n        ...\n      SWAP3 \t\t\ttion createEscrow(\\r\\n        ...\n      SWAP2 \t\t\ttion createEscrow(\\r\\n        ...\n      SWAP1 \t\t\ttion createEscrow(\\r\\n        ...\n      PUSH [tag] 296\t\t\ttion createEscrow(\\r\\n        ...\n      JUMP \t\t\ttion createEscrow(\\r\\n        ...\n    tag 295\t\t\ttion createEscrow(\\r\\n        ...\n      JUMPDEST \t\t\ttion createEscrow(\\r\\n        ...\n      PUSH 40\t\t\ttion createEscrow(\\r\\n        ...\n      MLOAD \t\t\ttion createEscrow(\\r\\n        ...\n      PUSH 20\t\t\ttion createEscrow(\\r\\n        ...\n      DUP2 \t\t\ttion createEscrow(\\r\\n        ...\n      DUP4 \t\t\ttion createEscrow(\\r\\n        ...\n      SUB \t\t\ttion createEscrow(\\r\\n        ...\n      SUB \t\t\ttion createEscrow(\\r\\n        ...\n      DUP2 \t\t\ttion createEscrow(\\r\\n        ...\n      MSTORE \t\t\ttion createEscrow(\\r\\n        ...\n      SWAP1 \t\t\ttion createEscrow(\\r\\n        ...\n      PUSH 40\t\t\ttion createEscrow(\\r\\n        ...\n      MSTORE \t\t\ttion createEscrow(\\r\\n        ...\n      DUP1 \t\t\t\\r\\n    function createEscrow(...\n      MLOAD \t\t\t\\r\\n    function createEscrow(...\n      SWAP1 \t\t\t\\r\\n    function createEscrow(...\n      PUSH 20\t\t\t\\r\\n    function createEscrow(...\n      ADD \t\t\t\\r\\n    function createEscrow(...\n      KECCAK256 \t\t\t\\r\\n    function createEscrow(...\n      PUSH [tag] 297\t\t\t the gig\\r\\n     *\n      JUMP \t\t\t the gig\\r\\n     */\\r\\n    fun...\n    tag 294\t\t\t the gig\\r\\n     */\\r\\n    fun...\n      JUMPDEST \t\t\t the gig\\r\\n     */\\r\\n    fun...\n      DUP6 \t\t\t \n      DUP6 \t\t\tc\n      DUP6 \t\t\tl\n      PUSH [tag] 298\t\t\t * @param gig\n      JUMP \t\t\t * @param gigTitle Title of th...\n    tag 293\t\t\t * @param gigTitle Title of th...\n      JUMPDEST \t\t\t * @param gigTitle Title of th...\n      SWAP1 \t\t\t freelancer\\r\\n     * @param g...\n      POP \t\t\t freelancer\\r\\n     * @param g...\n      PUSH [tag] 299\t\t\tyable nonReentrant whenNotPaus...\n      DUP2 \t\t\tt when\n      DUP8 \t\t\ttPaus\n      PUSH [tag] 300\t\t\tyable nonReentra\n      JUMP \t\t\tyable nonReentrant whenNotPaus...\n    tag 299\t\t\tyable nonReentrant whenNotPaus...\n      JUMPDEST \t\t\tyable nonReentrant whenNotPaus...\n      PUSH [tag] 301\t\t\t   require(freelancer != add\n      DUP2 \t\t\t(freel\n      DUP9 \t\t\tcer != ad\n      PUSH [tag] 218\t\t\t   requir\n      JUMP \t\t\t   require(freelancer != add\n    tag 301\t\t\t   require(freelancer != add\n      JUMPDEST \t\t\t   require(freelancer != add\n      POP \t\t\tgig and lock funds\\r\\n     * @...\n      POP \t\t\tnstructor(address initialOwner...\n      POP \t\t\tnstructor(address initialOwner...\n      POP \t\t\tnstructor(address initialOwner...\n      POP \t\t\tnstructor(address initialOwner...\n      POP \t\t\tnstructor(address initialOwner...\n      POP \t\t\tnstructor(address initialOwner...\n      JUMP \t\t\tnstructor(address initialOwner...\n    tag 148\t\t\t\\n    function _update(address...\n      JUMPDEST \t\t\t\\n    function _update(address...\n      PUSH 0\t\t\t(ERC20,\n      PUSH 1\t\t\t     super.\n      PUSH 0\t\t\t     super._update\n      DUP5 \t\t\tupdat\n      PUSH FFFFFFFFFFFFFFFFFFFFFFFFFFFFFFFFFFFFFFFF\t\t\t     super._update\n      AND \t\t\t     super._update\n      PUSH FFFFFFFFFFFFFFFFFFFFFFFFFFFFFFFFFFFFFFFF\t\t\t     super._update\n      AND \t\t\t     super._update\n      DUP2 \t\t\t     super._update\n      MSTORE \t\t\t     super._update\n      PUSH 20\t\t\t     super._update\n      ADD \t\t\t     super._update\n      SWAP1 \t\t\t     super._update\n      DUP2 \t\t\t     super._update\n      MSTORE \t\t\t     super._update\n      PUSH 20\t\t\t     super._update\n      ADD \t\t\t     super._update\n      PUSH 0\t\t\t     super._update\n      KECCAK256 \t\t\t     super._update\n      PUSH 0\t\t\t     super._update(from, to\n      DUP4 \t\t\tfrom, t\n      PUSH FFFFFFFFFFFFFFFFFFFFFFFFFFFFFFFFFFFFFFFF\t\t\t     super._update(from, to\n      AND \t\t\t     super._update(from, to\n      PUSH FFFFFFFFFFFFFFFFFFFFFFFFFFFFFFFFFFFFFFFF\t\t\t     super._update(from, to\n      AND \t\t\t     super._update(from, to\n      DUP2 \t\t\t     super._update(from, to\n      MSTORE \t\t\t     super._update(from, to\n      PUSH 20\t\t\t     super._update(from, to\n      ADD \t\t\t     super._update(from, to\n      SWAP1 \t\t\t     super._update(from, to\n      DUP2 \t\t\t     super._update(from, to\n      MSTORE \t\t\t     super._update(from, to\n      PUSH 20\t\t\t     super._update(from, to\n      ADD \t\t\t     super._update(from, to\n      PUSH 0\t\t\t     super._update(from, to\n      KECCAK256 \t\t\t     super._update(from, to\n      SLOAD \t\t\t     super._update(from, to\n      SWAP1 \t\t\t {\\r\\n        super._update(fr...\n      POP \t\t\t {\\r\\n        super._update(fr...\n      SWAP3 \t\t\t\\n    function _update(address...\n      SWAP2 \t\t\t\\n    function _update(address...\n      POP \t\t\t\\n    function _update(address...\n      POP \t\t\t\\n    function _update(address...\n      JUMP \t\t\t\\n    function _update(address...\n    tag 153\t\t\tle inheritance\\r\\n    function...\n      JUMPDEST \t\t\tle inheritance\\r\\n    function...\n      PUSH [tag] 303\t\t\tnternal override(ERC20, ERC20V...\n      PUSH [tag] 304\t\t\tnternal override(ERC20, ERC20V...\n      JUMP \t\t\tnternal override(ERC20, ERC20V...\n    tag 303\t\t\tnternal override(ERC20, ERC20V...\n      JUMPDEST \t\t\tnternal override(ERC20, ERC20V...\n      PUSH [tag] 306\t\t\tr._update(from, to, value)\n      DUP4 \t\t\tm, to, \n      DUP4 \t\t\tlue\n      PUSH [tag] 307\t\t\tr._update(fr\n      JUMP \t\t\tr._update(from, to, value)\n    tag 306\t\t\tr._update(from, to, value)\n      JUMPDEST \t\t\tr._update(from, to, value)\n      SWAP1 \t\t\t   super._update(from, to, val...\n      POP \t\t\t   super._update(from, to, val...\n      SWAP3 \t\t\tle inheritance\\r\\n    function...\n      SWAP2 \t\t\tle inheritance\\r\\n    function...\n      POP \t\t\tle inheritance\\r\\n    function...\n      POP \t\t\tle inheritance\\r\\n    function...\n      JUMP \t\t\tle inheritance\\r\\n    function...\n    tag 158\t\t\t minters[minter] = false;\\r\\n ...\n      JUMPDEST \t\t\t minters[minter] = false;\\r\\n ...\n      PUSH [tag] 309\t\t\t \\r\\n    constr\n      PUSH [tag] 186\t\t\t \\r\\n    cons\n      JUMP \t\t\t \\r\\n    constr\n    tag 309\t\t\t \\r\\n    constr\n      JUMPDEST \t\t\t \\r\\n    constr\n      PUSH 0\t\t\tb\n      PUSH FFFFFFFFFFFFFFFFFFFFFFFFFFFFFFFFFFFFFFFF\t\t\t\\r\\n     * @dev Distribu\n      AND \t\t\t\\r\\n     * @dev Distribu\n      DUP2 \t\t\t\\r\\n     *\n      PUSH FFFFFFFFFFFFFFFFFFFFFFFFFFFFFFFFFFFFFFFF\t\t\t\\r\\n     * @dev Distribu\n      AND \t\t\t\\r\\n     * @dev Distribu\n      SUB \t\t\t\\r\\n     * @dev Distribu\n      PUSH [tag] 311\t\t\t /**\\r\\n     * @dev Distribute...\n      JUMPI \t\t\t /**\\r\\n     * @dev Distribute...\n      PUSH 0\t\t\tp\n      PUSH 40\t\t\tddresses (for testing/airdrops...\n      MLOAD \t\t\tddresses (for testing/airdrops...\n      PUSH 1E4FBDF700000000000000000000000000000000000000000000000000000000\t\t\tddresses (for testing/airdrops...\n      DUP2 \t\t\tddresses (for testing/airdrops...\n      MSTORE \t\t\tddresses (for testing/airdrops...\n      PUSH 4\t\t\tddresses (for testing/airdrops...\n      ADD \t\t\tddresses (for testing/airdrops...\n      PUSH [tag] 312\t\t\tddresses (for testing/airdrops...\n      SWAP2 \t\t\tddresses (for testing/airdrops...\n      SWAP1 \t\t\tddresses (for testing/airdrops...\n      PUSH [tag] 88\t\t\tddresses (for testing/airdrops...\n      JUMP \t\t\tddresses (for testing/airdrops...\n    tag 312\t\t\tddresses (for testing/airdrops...\n      JUMPDEST \t\t\tddresses (for testing/airdrops...\n      PUSH 40\t\t\tddresses (for testing/airdrops...\n      MLOAD \t\t\tddresses (for testing/airdrops...\n      DUP1 \t\t\tddresses (for testing/airdrops...\n      SWAP2 \t\t\tddresses (for testing/airdrops...\n      SUB \t\t\tddresses (for testing/airdrops...\n      SWAP1 \t\t\tddresses (for testing/airdrops...\n      REVERT \t\t\tddresses (for testing/airdrops...\n    tag 311\t\t\t /**\\r\\n     * @dev Distribute...\n      JUMPDEST \t\t\t /**\\r\\n     * @dev Distribute...\n      PUSH [tag] 313\t\t\tpients Array of recipient ad\n      DUP2 \t\t\tipient a\n      PUSH [tag] 256\t\t\tpients Array of re\n      JUMP \t\t\tpients Array of recipient ad\n    tag 313\t\t\tpients Array of recipient ad\n      JUMPDEST \t\t\tpients Array of recipient ad\n      POP \t\t\t minters[minter] = false;\\r\\n ...\n      JUMP \t\t\t minters[minter] = false;\\r\\n ...\n    tag 161\t\t\tmapping(address => bool) publi...\n      JUMPDEST \t\t\tmapping(address => bool) publi...\n      PUSH C\t\t\tmapping(address => bool) publi...\n      PUSH 20\t\t\tmapping(address => bool) publi...\n      MSTORE \t\t\tmapping(address => bool) publi...\n      DUP1 \t\t\tmapping(address => bool) publi...\n      PUSH 0\t\t\tmapping(address => bool) publi...\n      MSTORE \t\t\tmapping(address => bool) publi...\n      PUSH 40\t\t\tmapping(address => bool) publi...\n      PUSH 0\t\t\tmapping(address => bool) publi...\n      KECCAK256 \t\t\tmapping(address => bool) publi...\n      PUSH 0\t\t\tmapping(address => bool) publi...\n      SWAP2 \t\t\tmapping(address => bool) publi...\n      POP \t\t\tmapping(address => bool) publi...\n      SLOAD \t\t\tmapping(address => bool) publi...\n      SWAP1 \t\t\tmapping(address => bool) publi...\n      PUSH 100\t\t\tmapping(address => bool) publi...\n      EXP \t\t\tmapping(address => bool) publi...\n      SWAP1 \t\t\tmapping(address => bool) publi...\n      DIV \t\t\tmapping(address => bool) publi...\n      PUSH FF\t\t\tmapping(address => bool) publi...\n      AND \t\t\tmapping(address => bool) publi...\n      DUP2 \t\t\tmapping(address => bool) publi...\n      JUMP \t\t\tmapping(address => bool) publi...\n    tag 163\t\t\t  // Refund full amount to cli...\n      JUMPDEST \t\t\t  // Refund full amount to cli...\n      PUSH 0\t\t\tncellat\n      DUP2 \t\t\tc\n      DUP4 \t\t\tl\n      PUSH [tag] 315\t\t\tl suc\n      SWAP2 \t\t\tl suc\n      SWAP1 \t\t\tl suc\n      PUSH [tag] 316\t\t\tl suc\n      JUMP \t\t\tl suc\n    tag 315\t\t\tl suc\n      JUMPDEST \t\t\tl suc\n      SWAP1 \t\t\t   (bool suc\n      POP \t\t\t   (bool suc\n      SWAP3 \t\t\t  // Refund full amount to cli...\n      SWAP2 \t\t\t  // Refund full amount to cli...\n      POP \t\t\t  // Refund full amount to cli...\n      POP \t\t\t  // Refund full amount to cli...\n      JUMP \t\t\t  // Refund full amount to cli...\n    tag 164\t\t\trow.client.call{value: amount}...\n      JUMPDEST \t\t\trow.client.call{value: amount}...\n      PUSH 0\t\t\tRefund \n      DUP2 \t\t\t \n      DUP4 \t\t\t\\r\n      PUSH [tag] 318\t\t\t\\r\\n   \n      SWAP2 \t\t\t\\r\\n   \n      SWAP1 \t\t\t\\r\\n   \n      PUSH [tag] 319\t\t\t\\r\\n   \n      JUMP \t\t\t\\r\\n   \n    tag 318\t\t\t\\r\\n   \n      JUMPDEST \t\t\t\\r\\n   \n      SWAP1 \t\t\tiled\");\\r\\n   \n      POP \t\t\tiled\");\\r\\n   \n      SWAP3 \t\t\trow.client.call{value: amount}...\n      SWAP2 \t\t\trow.client.call{value: amount}...\n      POP \t\t\trow.client.call{value: amount}...\n      POP \t\t\trow.client.call{value: amount}...\n      JUMP \t\t\trow.client.call{value: amount}...\n    tag 174\t\t\tken/ERC20/extensions/ERC20Perm...\n      JUMPDEST \t\t\tken/ERC20/extensions/ERC20Perm...\n      PUSH 0\t\t\tzeppeli\n      CALLER \t\t\tryptograph\n      SWAP1 \t\t\tutils/cryptograph\n      POP \t\t\tutils/cryptograph\n      SWAP1 \t\t\tken/ERC20/extensions/ERC20Perm...\n      JUMP \t\t\tken/ERC20/extensions/ERC20Perm...\n    tag 176\t\t\t\"Transfer to freelancer failed...\n      JUMPDEST \t\t\t\"Transfer to freelancer failed...\n      PUSH [tag] 322\t\t\tow.freelancer, payout);\\r\\n   ...\n      DUP4 \t\t\tncer,\n      DUP4 \t\t\tayout);\n      DUP4 \t\t\t    }\n      PUSH 1\t\t\t    \n      PUSH [tag] 323\t\t\tow.freel\n      JUMP \t\t\tow.freelancer, payout);\\r\\n   ...\n    tag 322\t\t\tow.freelancer, payout);\\r\\n   ...\n      JUMPDEST \t\t\tow.freelancer, payout);\\r\\n   ...\n      POP \t\t\t\"Transfer to freelancer failed...\n      POP \t\t\t\"Transfer to freelancer failed...\n      POP \t\t\t\"Transfer to freelancer failed...\n      JUMP \t\t\t\"Transfer to freelancer failed...\n    tag 181\t\t\tcrow gig IDs\\r\\n     * @param ...\n      JUMPDEST \t\t\tcrow gig IDs\\r\\n     * @param ...\n      PUSH 0\t\t\tdress client) external v\n      PUSH [tag] 325\t\t\t returns (uint256[] memor\n      DUP5 \t\t\tuint2\n      DUP5 \t\t\t[] memo\n      PUSH [tag] 148\t\t\t returns \n      JUMP \t\t\t returns (uint256[] memor\n    tag 325\t\t\t returns (uint256[] memor\n      JUMPDEST \t\t\t returns (uint256[] memor\n      SWAP1 \t\t\tdress client) external view re...\n      POP \t\t\tdress client) external view re...\n      PUSH FFFFFFFFFFFFFFFFFFFFFFFFFFFFFFFFFFFFFFFFFFFFFFFFFFFFFFFFFFFFFFFF\t\t\ts[client];\\r\\n    }\n      DUP2 \t\t\treturn clientEsc\n      LT \t\t\treturn clientEscrows[client];\\...\n      ISZERO \t\t\t    return clientEscrows[clien...\n      PUSH [tag] 326\t\t\t    return clientEscrows[clien...\n      JUMPI \t\t\t    return clientEscrows[clien...\n      DUP2 \t\t\tncer'\n      DUP2 \t\t\t  * @dev Get fre\n      LT \t\t\t  * @dev Get freelancer'\n      ISZERO \t\t\t\\n     * @dev Get freelancer's...\n      PUSH [tag] 327\t\t\t\\n     * @dev Get freelancer's...\n      JUMPI \t\t\t\\n     * @dev Get freelancer's...\n      DUP3 \t\t\tthe fre\n      DUP2 \t\t\tancer\\r\\n     */\\r\\n\n      DUP4 \t\t\t  fun\n      PUSH 40\t\t\taram freelancer Address of the...\n      MLOAD \t\t\taram freelancer Address of the...\n      PUSH FB8F41B200000000000000000000000000000000000000000000000000000000\t\t\taram freelancer Address of the...\n      DUP2 \t\t\taram freelancer Address of the...\n      MSTORE \t\t\taram freelancer Address of the...\n      PUSH 4\t\t\taram freelancer Address of the...\n      ADD \t\t\taram freelancer Address of the...\n      PUSH [tag] 328\t\t\taram freelancer Address of the...\n      SWAP4 \t\t\taram freelancer Address of the...\n      SWAP3 \t\t\taram freelancer Address of the...\n      SWAP2 \t\t\taram freelancer Address of the...\n      SWAP1 \t\t\taram freelancer Address of the...\n      PUSH [tag] 329\t\t\taram freelancer Address of the...\n      JUMP \t\t\taram freelancer Address of the...\n    tag 328\t\t\taram freelancer Address of the...\n      JUMPDEST \t\t\taram freelancer Address of the...\n      PUSH 40\t\t\taram freelancer Address of the...\n      MLOAD \t\t\taram freelancer Address of the...\n      DUP1 \t\t\taram freelancer Address of the...\n      SWAP2 \t\t\taram freelancer Address of the...\n      SUB \t\t\taram freelancer Address of the...\n      SWAP1 \t\t\taram freelancer Address of the...\n      REVERT \t\t\taram freelancer Address of the...\n    tag 327\t\t\t\\n     * @dev Get freelancer's...\n      JUMPDEST \t\t\t\\n     * @dev Get freelancer's...\n      PUSH [tag] 330\t\t\tiew returns (uint256[] memory)...\n      DUP5 \t\t\tns (u\n      DUP5 \t\t\tt256[] \n      DUP5 \t\t\tturn \n      DUP5 \t\t\tmory) {\\r\\n       \n      SUB \t\t\tmory) {\\r\\n        return \n      PUSH 0\t\t\teelan\n      PUSH [tag] 323\t\t\tiew retu\n      JUMP \t\t\tiew returns (uint256[] memory)...\n    tag 330\t\t\tiew returns (uint256[] memory)...\n      JUMPDEST \t\t\tiew returns (uint256[] memory)...\n    tag 326\t\t\t    return clientEscrows[clien...\n      JUMPDEST \t\t\t    return clientEscrows[clien...\n      POP \t\t\tEscrows(address client) extern...\n      POP \t\t\tcrow gig IDs\\r\\n     * @param ...\n      POP \t\t\tcrow gig IDs\\r\\n     * @param ...\n      POP \t\t\tcrow gig IDs\\r\\n     * @param ...\n      JUMP \t\t\tcrow gig IDs\\r\\n     * @param ...\n    tag 183\t\t\tint256 indexed gigId,\\r\\n     ...\n      JUMPDEST \t\t\tint256 indexed gigId,\\r\\n     ...\n      PUSH 0\t\t\t \n      PUSH FFFFFFFFFFFFFFFFFFFFFFFFFFFFFFFFFFFFFFFF\t\t\t\\n    );\\r\\n    \\r\\n   \n      AND \t\t\t\\n    );\\r\\n    \\r\\n   \n      DUP4 \t\t\t\\n   \n      PUSH FFFFFFFFFFFFFFFFFFFFFFFFFFFFFFFFFFFFFFFF\t\t\t\\n    );\\r\\n    \\r\\n   \n      AND \t\t\t\\n    );\\r\\n    \\r\\n   \n      SUB \t\t\t\\n    );\\r\\n    \\r\\n   \n      PUSH [tag] 332\t\t\tunt\\r\\n    );\\r\\n    \\r\\n    e...\n      JUMPI \t\t\tunt\\r\\n    );\\r\\n    \\r\\n    e...\n      PUSH 0\t\t\tg\n      PUSH 40\t\t\t\\n        uint256 indexed gigI...\n      MLOAD \t\t\t\\n        uint256 indexed gigI...\n      PUSH 96C6FD1E00000000000000000000000000000000000000000000000000000000\t\t\t\\n        uint256 indexed gigI...\n      DUP2 \t\t\t\\n        uint256 indexed gigI...\n      MSTORE \t\t\t\\n        uint256 indexed gigI...\n      PUSH 4\t\t\t\\n        uint256 indexed gigI...\n      ADD \t\t\t\\n        uint256 indexed gigI...\n      PUSH [tag] 333\t\t\t\\n        uint256 indexed gigI...\n      SWAP2 \t\t\t\\n        uint256 indexed gigI...\n      SWAP1 \t\t\t\\n        uint256 indexed gigI...\n      PUSH [tag] 88\t\t\t\\n        uint256 indexed gigI...\n      JUMP \t\t\t\\n        uint256 indexed gigI...\n    tag 333\t\t\t\\n        uint256 indexed gigI...\n      JUMPDEST \t\t\t\\n        uint256 indexed gigI...\n      PUSH 40\t\t\t\\n        uint256 indexed gigI...\n      MLOAD \t\t\t\\n        uint256 indexed gigI...\n      DUP1 \t\t\t\\n        uint256 indexed gigI...\n      SWAP2 \t\t\t\\n        uint256 indexed gigI...\n      SUB \t\t\t\\n        uint256 indexed gigI...\n      SWAP1 \t\t\t\\n        uint256 indexed gigI...\n      REVERT \t\t\t\\n        uint256 indexed gigI...\n    tag 332\t\t\tunt\\r\\n    );\\r\\n    \\r\\n    e...\n      JUMPDEST \t\t\tunt\\r\\n    );\\r\\n    \\r\\n    e...\n      PUSH 0\t\t\t \n      PUSH FFFFFFFFFFFFFFFFFFFFFFFFFFFFFFFFFFFFFFFF\t\t\ted client,\\r\\n    \n      AND \t\t\ted client,\\r\\n    \n      DUP3 \t\t\ted\n      PUSH FFFFFFFFFFFFFFFFFFFFFFFFFFFFFFFFFFFFFFFF\t\t\ted client,\\r\\n    \n      AND \t\t\ted client,\\r\\n    \n      SUB \t\t\ted client,\\r\\n    \n      PUSH [tag] 334\t\t\tndexed client,\\r\\n        uint...\n      JUMPI \t\t\tndexed client,\\r\\n        uint...\n      PUSH 0\t\t\t \n      PUSH 40\t\t\t );\\r\\n    \\r\\n    // Modifier...\n      MLOAD \t\t\t );\\r\\n    \\r\\n    // Modifier...\n      PUSH EC442F0500000000000000000000000000000000000000000000000000000000\t\t\t );\\r\\n    \\r\\n    // Modifier...\n      DUP2 \t\t\t );\\r\\n    \\r\\n    // Modifier...\n      MSTORE \t\t\t );\\r\\n    \\r\\n    // Modifier...\n      PUSH 4\t\t\t );\\r\\n    \\r\\n    // Modifier...\n      ADD \t\t\t );\\r\\n    \\r\\n    // Modifier...\n      PUSH [tag] 335\t\t\t );\\r\\n    \\r\\n    // Modifier...\n      SWAP2 \t\t\t );\\r\\n    \\r\\n    // Modifier...\n      SWAP1 \t\t\t );\\r\\n    \\r\\n    // Modifier...\n      PUSH [tag] 88\t\t\t );\\r\\n    \\r\\n    // Modifier...\n      JUMP \t\t\t );\\r\\n    \\r\\n    // Modifier...\n    tag 335\t\t\t );\\r\\n    \\r\\n    // Modifier...\n      JUMPDEST \t\t\t );\\r\\n    \\r\\n    // Modifier...\n      PUSH 40\t\t\t );\\r\\n    \\r\\n    // Modifier...\n      MLOAD \t\t\t );\\r\\n    \\r\\n    // Modifier...\n      DUP1 \t\t\t );\\r\\n    \\r\\n    // Modifier...\n      SWAP2 \t\t\t );\\r\\n    \\r\\n    // Modifier...\n      SUB \t\t\t );\\r\\n    \\r\\n    // Modifier...\n      SWAP1 \t\t\t );\\r\\n    \\r\\n    // Modifier...\n      REVERT \t\t\t );\\r\\n    \\r\\n    // Modifier...\n    tag 334\t\t\tndexed client,\\r\\n        uint...\n      JUMPDEST \t\t\tndexed client,\\r\\n        uint...\n      PUSH [tag] 336\t\t\tint256 gigId) {\\r\\n       \n      DUP4 \t\t\tigId\n      DUP4 \t\t\t{\\r\n      DUP4 \t\t\t     \n      PUSH [tag] 337\t\t\tint256 \n      JUMP \t\t\tint256 gigId) {\\r\\n       \n    tag 336\t\t\tint256 gigId) {\\r\\n       \n      JUMPDEST \t\t\tint256 gigId) {\\r\\n       \n      POP \t\t\tint256 indexed gigId,\\r\\n     ...\n      POP \t\t\tint256 indexed gigId,\\r\\n     ...\n      POP \t\t\tint256 indexed gigId,\\r\\n     ...\n      JUMP \t\t\tint256 indexed gigId,\\r\\n     ...\n    tag 186\t\t\t * @dev Mint new tokens (only ...\n      JUMPDEST \t\t\t * @dev Mint new tokens (only ...\n      PUSH [tag] 339\t\t\t Address to \n      PUSH [tag] 174\t\t\t Address t\n      JUMP \t\t\t Address to \n    tag 339\t\t\t Address to \n      JUMPDEST \t\t\t Address to \n      PUSH FFFFFFFFFFFFFFFFFFFFFFFFFFFFFFFFFFFFFFFF\t\t\t* @param to Address to \n      AND \t\t\t* @param to Address to \n      PUSH [tag] 340\t\t\t* @para\n      PUSH [tag] 116\t\t\t* @pa\n      JUMP \t\t\t* @para\n    tag 340\t\t\t* @para\n      JUMPDEST \t\t\t* @para\n      PUSH FFFFFFFFFFFFFFFFFFFFFFFFFFFFFFFFFFFFFFFF\t\t\t* @param to Address to \n      AND \t\t\t* @param to Address to \n      EQ \t\t\t* @param to Address to \n      PUSH [tag] 341\t\t\t    * @param to Address to min...\n      JUMPI \t\t\t    * @param to Address to min...\n      PUSH [tag] 342\t\t\tens to mint\\r\n      PUSH [tag] 174\t\t\tens to min\n      JUMP \t\t\tens to mint\\r\n    tag 342\t\t\tens to mint\\r\n      JUMPDEST \t\t\tens to mint\\r\n      PUSH 40\t\t\t@param amount Amount of tokens...\n      MLOAD \t\t\t@param amount Amount of tokens...\n      PUSH 118CDAA700000000000000000000000000000000000000000000000000000000\t\t\t@param amount Amount of tokens...\n      DUP2 \t\t\t@param amount Amount of tokens...\n      MSTORE \t\t\t@param amount Amount of tokens...\n      PUSH 4\t\t\t@param amount Amount of tokens...\n      ADD \t\t\t@param amount Amount of tokens...\n      PUSH [tag] 343\t\t\t@param amount Amount of tokens...\n      SWAP2 \t\t\t@param amount Amount of tokens...\n      SWAP1 \t\t\t@param amount Amount of tokens...\n      PUSH [tag] 88\t\t\t@param amount Amount of tokens...\n      JUMP \t\t\t@param amount Amount of tokens...\n    tag 343\t\t\t@param amount Amount of tokens...\n      JUMPDEST \t\t\t@param amount Amount of tokens...\n      PUSH 40\t\t\t@param amount Amount of tokens...\n      MLOAD \t\t\t@param amount Amount of tokens...\n      DUP1 \t\t\t@param amount Amount of tokens...\n      SWAP2 \t\t\t@param amount Amount of tokens...\n      SUB \t\t\t@param amount Amount of tokens...\n      SWAP1 \t\t\t@param amount Amount of tokens...\n      REVERT \t\t\t@param amount Amount of tokens...\n    tag 341\t\t\t    * @param to Address to min...\n      JUMPDEST \t\t\t    * @param to Address to min...\n      JUMP \t\t\t * @dev Mint new tokens (only ...\n    tag 192\t\t\ted by Solidity for multiple in...\n      JUMPDEST \t\t\ted by Solidity for multiple in...\n      PUSH 0\t\t\tfrom, \n      PUSH 0\t\t\tuint256 value) internal\n      PUSH [tag] 345\t\t\terride(\n      PUSH [tag] 124\t\t\terrid\n      JUMP \t\t\terride(\n    tag 345\t\t\terride(\n      JUMPDEST \t\t\terride(\n      SWAP1 \t\t\tuint256 value) internal overri...\n      POP \t\t\tuint256 value) internal overri...\n      DUP1 \t\t\t   super._update\n      PUSH FFFFFFFFFFFF\t\t\ttes) {\\r\\n        super._updat...\n      AND \t\t\ttes) {\\r\\n        super._updat...\n      DUP4 \t\t\ttes) {\\r\\n \n      LT \t\t\ttes) {\\r\\n        super._updat...\n      PUSH [tag] 346\t\t\t20Votes) {\\r\\n        super._u...\n      JUMPI \t\t\t20Votes) {\\r\\n        super._u...\n      DUP3 \t\t\t  \\r\\n    f\n      DUP2 \t\t\tction nonces(add\n      PUSH 40\t\t\t, value);\\r\\n    }\\r\\n    \\r\\n...\n      MLOAD \t\t\t, value);\\r\\n    }\\r\\n    \\r\\n...\n      PUSH ECD3F81E00000000000000000000000000000000000000000000000000000000\t\t\t, value);\\r\\n    }\\r\\n    \\r\\n...\n      DUP2 \t\t\t, value);\\r\\n    }\\r\\n    \\r\\n...\n      MSTORE \t\t\t, value);\\r\\n    }\\r\\n    \\r\\n...\n      PUSH 4\t\t\t, value);\\r\\n    }\\r\\n    \\r\\n...\n      ADD \t\t\t, value);\\r\\n    }\\r\\n    \\r\\n...\n      PUSH [tag] 347\t\t\t, value);\\r\\n    }\\r\\n    \\r\\n...\n      SWAP3 \t\t\t, value);\\r\\n    }\\r\\n    \\r\\n...\n      SWAP2 \t\t\t, value);\\r\\n    }\\r\\n    \\r\\n...\n      SWAP1 \t\t\t, value);\\r\\n    }\\r\\n    \\r\\n...\n      PUSH [tag] 348\t\t\t, value);\\r\\n    }\\r\\n    \\r\\n...\n      JUMP \t\t\t, value);\\r\\n    }\\r\\n    \\r\\n...\n    tag 347\t\t\t, value);\\r\\n    }\\r\\n    \\r\\n...\n      JUMPDEST \t\t\t, value);\\r\\n    }\\r\\n    \\r\\n...\n      PUSH 40\t\t\t, value);\\r\\n    }\\r\\n    \\r\\n...\n      MLOAD \t\t\t, value);\\r\\n    }\\r\\n    \\r\\n...\n      DUP1 \t\t\t, value);\\r\\n    }\\r\\n    \\r\\n...\n      SWAP2 \t\t\t, value);\\r\\n    }\\r\\n    \\r\\n...\n      SUB \t\t\t, value);\\r\\n    }\\r\\n    \\r\\n...\n      SWAP1 \t\t\t, value);\\r\\n    }\\r\\n    \\r\\n...\n      REVERT \t\t\t, value);\\r\\n    }\\r\\n    \\r\\n...\n    tag 346\t\t\t20Votes) {\\r\\n        super._u...\n      JUMPDEST \t\t\t20Votes) {\\r\\n        super._u...\n      PUSH [tag] 349\t\t\t view override(Nonces) retur\n      DUP4 \t\t\tces) retu\n      PUSH [tag] 350\t\t\t view override(No\n      JUMP \t\t\t view override(Nonces) retur\n    tag 349\t\t\t view override(Nonces) retur\n      JUMPDEST \t\t\t view override(Nonces) retur\n      SWAP2 \t\t\t public view override(Nonces) ...\n      POP \t\t\t public view override(Nonces) ...\n      POP \t\t\t public view override(Nonces) ...\n      SWAP2 \t\t\ted by Solidity for multiple in...\n      SWAP1 \t\t\ted by Solidity for multiple in...\n      POP \t\t\ted by Solidity for multiple in...\n      JUMP \t\t\ted by Solidity for multiple in...\n    tag 193\t\t\t escrow.client, amount);\\r\\n  ...\n      JUMPDEST \t\t\t escrow.client, amount);\\r\\n  ...\n      PUSH 0\t\t\teelance\n      PUSH 0\t\t\tking)\\r\\n    \n      DUP4 \t\t\t@par\n      PUSH 0\t\t\t@param gigId ID o\n      ADD \t\t\t@param gigId ID o\n      DUP1 \t\t\t@param gigId ID of the g\n      SLOAD \t\t\t@param gigId ID of the g\n      SWAP1 \t\t\t@param gigId ID of the g\n      POP \t\t\t@param gigId ID of the g\n      SWAP1 \t\t\tking)\\r\\n     * @param gigId I...\n      POP \t\t\tking)\\r\\n     * @param gigId I...\n      PUSH 0\t\t\t\\r\\n    funct\n      PUSH 0\t\t\t \n      SWAP1 \t\t\t\\r\\n    function \n      POP \t\t\t\\r\\n    function \n      PUSH 0\t\t\tuint256 gigI\n      DUP3 \t\t\text\n      SWAP1 \t\t\tuint256 gigId) ext\n      POP \t\t\tuint256 gigId) ext\n      PUSH 5\t\t\t \n      DUP4 \t\t\tgig\n      GT \t\t\tgigId) \n      ISZERO \t\t\tGig(gigId) onlyFreelancer(gigI...\n      PUSH [tag] 352\t\t\tGig(gigId) onlyFreelancer(gigI...\n      JUMPI \t\t\tGig(gigId) onlyFreelancer(gigI...\n      PUSH 0\t\t\tigId) {\\r\\n  \n      PUSH [tag] 353\t\t\trowData storag\n      DUP5 \t\t\tora\n      PUSH [tag] 354\t\t\trowData s\n      JUMP \t\t\trowData storag\n    tag 353\t\t\trowData storag\n      JUMPDEST \t\t\trowData storag\n      DUP5 \t\t\t   \n      PUSH [tag] 355\t\t\t   EscrowData storag\n      SWAP2 \t\t\t   EscrowData storag\n      SWAP1 \t\t\t   EscrowData storag\n      PUSH [tag] 356\t\t\t   EscrowData storag\n      JUMP \t\t\t   EscrowData storag\n    tag 355\t\t\t   EscrowData storag\n      JUMPDEST \t\t\t   EscrowData storag\n      SWAP1 \t\t\tigId) {\\r\\n        EscrowData ...\n      POP \t\t\tigId) {\\r\\n        EscrowData ...\n      PUSH [tag] 357\t\t\t];\\r\\n        require(escrow.s...\n      DUP8 \t\t\tquir\n      PUSH 0\t\t\tquire(escrow.stat\n      ADD \t\t\tquire(escrow.stat\n      DUP3 \t\t\t ==\n      PUSH [tag] 358\t\t\t];\\r\\n        r\n      JUMP \t\t\t];\\r\\n        require(escrow.s...\n    tag 357\t\t\t];\\r\\n        require(escrow.s...\n      JUMPDEST \t\t\t];\\r\\n        require(escrow.s...\n      PUSH 0\t\t\t];\\r\\n        require(escrow.s...\n      ADD \t\t\t];\\r\\n        require(escrow.s...\n      PUSH 0\t\t\t];\\r\\n        require(escrow.s...\n      SWAP1 \t\t\t];\\r\\n        require(escrow.s...\n      SLOAD \t\t\t];\\r\\n        require(escrow.s...\n      SWAP1 \t\t\t];\\r\\n        require(escrow.s...\n      PUSH 100\t\t\t];\\r\\n        require(escrow.s...\n      EXP \t\t\t];\\r\\n        require(escrow.s...\n      SWAP1 \t\t\t];\\r\\n        require(escrow.s...\n      DIV \t\t\t];\\r\\n        require(escrow.s...\n      PUSH FFFFFFFFFFFF\t\t\t];\\r\\n        require(escrow.s...\n      AND \t\t\t];\\r\\n        require(escrow.s...\n      PUSH FFFFFFFFFFFF\t\t\t[gigId];\\r\\n        require(es...\n      AND \t\t\t[gigId];\\r\\n        require(es...\n      DUP7 \t\t\t[gi\n      PUSH FFFFFFFFFFFF\t\t\t[gigId];\\r\\n        require(es...\n      AND \t\t\t[gigId];\\r\\n        require(es...\n      LT \t\t\t[gigId];\\r\\n        require(es...\n      ISZERO \t\t\trows[gigId];\\r\\n        requir...\n      PUSH [tag] 359\t\t\trows[gigId];\\r\\n        requir...\n      JUMPI \t\t\trows[gigId];\\r\\n        requir...\n      DUP1 \t\t\tady\n      SWAP2 \t\t\trk already\n      POP \t\t\trk already\n      PUSH [tag] 360\t\t\trows[gigId];\\r\\n        requir...\n      JUMP \t\t\trows[gigId];\\r\\n        requir...\n    tag 359\t\t\trows[gigId];\\r\\n        requir...\n      JUMPDEST \t\t\trows[gigId];\\r\\n        requir...\n      PUSH 1\t\t\ts\n      DUP2 \t\t\tscr\n      PUSH [tag] 361\t\t\tscrow.s\n      SWAP2 \t\t\tscrow.s\n      SWAP1 \t\t\tscrow.s\n      PUSH [tag] 203\t\t\tscrow.s\n      JUMP \t\t\tscrow.s\n    tag 361\t\t\tscrow.s\n      JUMPDEST \t\t\tscrow.s\n      SWAP3 \t\t\t     escrow.s\n      POP \t\t\t     escrow.s\n    tag 360\t\t\trows[gigId];\\r\\n        requir...\n      JUMPDEST \t\t\trows[gigId];\\r\\n        requir...\n      POP \t\t\tlyFreelancer(gigId) {\\r\\n     ...\n    tag 352\t\t\tGig(gigId) onlyFreelancer(gigI...\n      JUMPDEST \t\t\tGig(gigId) onlyFreelancer(gigI...\n      PUSH 0\t\t\t\\r\\n    \\r\\n   \n      PUSH [tag] 362\t\t\t*\\r\\n     * @dev Get escrow de...\n      DUP8 \t\t\tescr\n      PUSH 0\t\t\tescrow details fo\n      ADD \t\t\tescrow details fo\n      DUP8 \t\t\ta g\n      DUP6 \t\t\t\\r\\n \n      DUP6 \t\t\t  * \n      PUSH [tag] 363\t\t\t*\\r\\n     * @dev Get\n      JUMP \t\t\t*\\r\\n     * @dev Get escrow de...\n    tag 362\t\t\t*\\r\\n     * @dev Get escrow de...\n      JUMPDEST \t\t\t*\\r\\n     * @dev Get escrow de...\n      SWAP1 \t\t\t\\r\\n    \\r\\n    /**\\r\\n     * ...\n      POP \t\t\t\\r\\n    \\r\\n    /**\\r\\n     * ...\n      PUSH 0\t\t\t\\r\n      DUP2 \t\t\tthe\n      EQ \t\t\tthe gig\\r\n      PUSH [tag] 364\t\t\tthe gig\\r\\n     */\\r\\n    func...\n      JUMPI \t\t\tthe gig\\r\\n     */\\r\\n    func...\n      PUSH [tag] 365\t\t\t/\\r\\n    function getEscrow(ui...\n      DUP8 \t\t\tn ge\n      PUSH 0\t\t\tn getEscrow(uint2\n      ADD \t\t\tn getEscrow(uint2\n      PUSH 1\t\t\t)\n      DUP4 \t\t\t gi\n      PUSH [tag] 366\t\t\t gigId)\n      SWAP2 \t\t\t gigId)\n      SWAP1 \t\t\t gigId)\n      PUSH [tag] 356\t\t\t gigId)\n      JUMP \t\t\t gigId)\n    tag 366\t\t\t gigId)\n      JUMPDEST \t\t\t gigId)\n      PUSH [tag] 358\t\t\t/\\r\\n    functi\n      JUMP \t\t\t/\\r\\n    function getEscrow(ui...\n    tag 365\t\t\t/\\r\\n    function getEscrow(ui...\n      JUMPDEST \t\t\t/\\r\\n    function getEscrow(ui...\n      PUSH 0\t\t\t/\\r\\n    function getEscrow(ui...\n      ADD \t\t\t/\\r\\n    function getEscrow(ui...\n      PUSH 6\t\t\t/\\r\\n    function getEscrow(ui...\n      SWAP1 \t\t\t/\\r\\n    function getEscrow(ui...\n      SLOAD \t\t\t/\\r\\n    function getEscrow(ui...\n      SWAP1 \t\t\t/\\r\\n    function getEscrow(ui...\n      PUSH 100\t\t\t/\\r\\n    function getEscrow(ui...\n      EXP \t\t\t/\\r\\n    function getEscrow(ui...\n      SWAP1 \t\t\t/\\r\\n    function getEscrow(ui...\n      DIV \t\t\t/\\r\\n    function getEscrow(ui...\n      PUSH FFFFFFFFFFFFFFFFFFFFFFFFFFFFFFFFFFFFFFFFFFFFFFFFFFFF\t\t\t/\\r\\n    function getEscrow(ui...\n      AND \t\t\t/\\r\\n    function getEscrow(ui...\n      PUSH [tag] 367\t\t\tthe gig\\r\\n     */\\r\\n    func...\n      JUMP \t\t\tthe gig\\r\\n     */\\r\\n    func...\n    tag 364\t\t\tthe gig\\r\\n     */\\r\\n    func...\n      JUMPDEST \t\t\tthe gig\\r\\n     */\\r\\n    func...\n      PUSH 0\t\t\t \n    tag 367\t\t\tthe gig\\r\\n     */\\r\\n    func...\n      JUMPDEST \t\t\tthe gig\\r\\n     */\\r\\n    func...\n      SWAP5 \t\t\t ID of the gig\\r\\n     */\\r\\n ...\n      POP \t\t\t ID of the gig\\r\\n     */\\r\\n ...\n      POP \t\t\t ID of the gig\\r\\n     */\\r\\n ...\n      POP \t\t\t ID of the gig\\r\\n     */\\r\\n ...\n      POP \t\t\t ID of the gig\\r\\n     */\\r\\n ...\n      POP \t\t\t ID of the gig\\r\\n     */\\r\\n ...\n      SWAP3 \t\t\t escrow.client, amount);\\r\\n  ...\n      SWAP2 \t\t\t escrow.client, amount);\\r\\n  ...\n      POP \t\t\t escrow.client, amount);\\r\\n  ...\n      POP \t\t\t escrow.client, amount);\\r\\n  ...\n      JUMP \t\t\t escrow.client, amount);\\r\\n  ...\n    tag 208\t\t\tEscrowCreated(gigId, msg.sende...\n      JUMPDEST \t\t\tEscrowCreated(gigId, msg.sende...\n      PUSH 0\t\t\tn\n      PUSH FFFFFFFFFFFFFFFFFFFFFFFFFFFFFFFFFFFFFFFF\t\t\t      emit EscrowFund\n      AND \t\t\t      emit EscrowFund\n      DUP3 \t\t\t      e\n      PUSH FFFFFFFFFFFFFFFFFFFFFFFFFFFFFFFFFFFFFFFF\t\t\t      emit EscrowFund\n      AND \t\t\t      emit EscrowFund\n      SUB \t\t\t      emit EscrowFund\n      PUSH [tag] 369\t\t\t\\r\\n        emit EscrowFunded(...\n      JUMPI \t\t\t\\r\\n        emit EscrowFunded(...\n      PUSH 0\t\t\t/\n      PUSH 40\t\t\tsg.value);\\r\\n    }\\r\\n    \\r\\...\n      MLOAD \t\t\tsg.value);\\r\\n    }\\r\\n    \\r\\...\n      PUSH EC442F0500000000000000000000000000000000000000000000000000000000\t\t\tsg.value);\\r\\n    }\\r\\n    \\r\\...\n      DUP2 \t\t\tsg.value);\\r\\n    }\\r\\n    \\r\\...\n      MSTORE \t\t\tsg.value);\\r\\n    }\\r\\n    \\r\\...\n      PUSH 4\t\t\tsg.value);\\r\\n    }\\r\\n    \\r\\...\n      ADD \t\t\tsg.value);\\r\\n    }\\r\\n    \\r\\...\n      PUSH [tag] 370\t\t\tsg.value);\\r\\n    }\\r\\n    \\r\\...\n      SWAP2 \t\t\tsg.value);\\r\\n    }\\r\\n    \\r\\...\n      SWAP1 \t\t\tsg.value);\\r\\n    }\\r\\n    \\r\\...\n      PUSH [tag] 88\t\t\tsg.value);\\r\\n    }\\r\\n    \\r\\...\n      JUMP \t\t\tsg.value);\\r\\n    }\\r\\n    \\r\\...\n    tag 370\t\t\tsg.value);\\r\\n    }\\r\\n    \\r\\...\n      JUMPDEST \t\t\tsg.value);\\r\\n    }\\r\\n    \\r\\...\n      PUSH 40\t\t\tsg.value);\\r\\n    }\\r\\n    \\r\\...\n      MLOAD \t\t\tsg.value);\\r\\n    }\\r\\n    \\r\\...\n      DUP1 \t\t\tsg.value);\\r\\n    }\\r\\n    \\r\\...\n      SWAP2 \t\t\tsg.value);\\r\\n    }\\r\\n    \\r\\...\n      SUB \t\t\tsg.value);\\r\\n    }\\r\\n    \\r\\...\n      SWAP1 \t\t\tsg.value);\\r\\n    }\\r\\n    \\r\\...\n      REVERT \t\t\tsg.value);\\r\\n    }\\r\\n    \\r\\...\n    tag 369\t\t\t\\r\\n        emit EscrowFunded(...\n      JUMPDEST \t\t\t\\r\\n        emit EscrowFunded(...\n      PUSH [tag] 371\t\t\te escrow funds to freelancer (...\n      PUSH 0\t\t\to\n      DUP4 \t\t\teelance\n      DUP4 \t\t\t(only\n      PUSH [tag] 337\t\t\te escro\n      JUMP \t\t\te escrow funds to freelancer (...\n    tag 371\t\t\te escrow funds to freelancer (...\n      JUMPDEST \t\t\te escrow funds to freelancer (...\n      POP \t\t\tEscrowCreated(gigId, msg.sende...\n      POP \t\t\tEscrowCreated(gigId, msg.sende...\n      JUMP \t\t\tEscrowCreated(gigId, msg.sende...\n    tag 211\t\t\tr SecureGig DAO voting\\r\\n * @...\n      JUMPDEST \t\t\tr SecureGig DAO voting\\r\\n * @...\n      PUSH 0\t\t\tis use\n      PUSH [tag] 373\t\t\trow disputes\\r\\n */\\r\\ncontrac...\n      NUMBER \t\t\t\\ncontract DA\n      PUSH [tag] 350\t\t\trow disputes\\r\\n */\n      JUMP \t\t\trow disputes\\r\\n */\\r\\ncontrac...\n    tag 373\t\t\trow disputes\\r\\n */\\r\\ncontrac...\n      JUMPDEST \t\t\trow disputes\\r\\n */\\r\\ncontrac...\n      SWAP1 \t\t\t on escrow disputes\\r\\n */\\r\\n...\n      POP \t\t\t on escrow disputes\\r\\n */\\r\\n...\n      SWAP1 \t\t\tr SecureGig DAO voting\\r\\n * @...\n      JUMP \t\t\tr SecureGig DAO voting\\r\\n * @...\n    tag 218\t\t\than 0\");\\r\\n        require(!e...\n      JUMPDEST \t\t\than 0\");\\r\\n        require(!e...\n      PUSH 0\t\t\tgig\");\\r\\n        req\n      PUSH [tag] 375\t\t\te(bytes(gigTitle).\n      DUP4 \t\t\tgTitle)\n      PUSH [tag] 86\t\t\te(bytes(g\n      JUMP \t\t\te(bytes(gigTitle).\n    tag 375\t\t\te(bytes(gigTitle).\n      JUMPDEST \t\t\te(bytes(gigTitle).\n      SWAP1 \t\t\tgig\");\\r\\n        require(byte...\n      POP \t\t\tgig\");\\r\\n        require(byte...\n      DUP2 \t\t\t empty\");\n      PUSH 8\t\t\t, \"Gig tit\n      PUSH 0\t\t\t, \"Gig title cannot\n      DUP6 \t\t\te canno\n      PUSH FFFFFFFFFFFFFFFFFFFFFFFFFFFFFFFFFFFFFFFF\t\t\t, \"Gig title cannot\n      AND \t\t\t, \"Gig title cannot\n      PUSH FFFFFFFFFFFFFFFFFFFFFFFFFFFFFFFFFFFFFFFF\t\t\t, \"Gig title cannot\n      AND \t\t\t, \"Gig title cannot\n      DUP2 \t\t\t, \"Gig title cannot\n      MSTORE \t\t\t, \"Gig title cannot\n      PUSH 20\t\t\t, \"Gig title cannot\n      ADD \t\t\t, \"Gig title cannot\n      SWAP1 \t\t\t, \"Gig title cannot\n      DUP2 \t\t\t, \"Gig title cannot\n      MSTORE \t\t\t, \"Gig title cannot\n      PUSH 20\t\t\t, \"Gig title cannot\n      ADD \t\t\t, \"Gig title cannot\n      PUSH 0\t\t\t, \"Gig title cannot\n      KECCAK256 \t\t\t, \"Gig title cannot\n      PUSH 0\t\t\t, \"Gig title cannot\n      PUSH 100\t\t\t, \"Gig title cannot be empty\")...\n      EXP \t\t\t, \"Gig title cannot be empty\")...\n      DUP2 \t\t\t, \"Gig title cannot be empty\")...\n      SLOAD \t\t\t, \"Gig title cannot be empty\")...\n      DUP2 \t\t\t, \"Gig title cannot be empty\")...\n      PUSH FFFFFFFFFFFFFFFFFFFFFFFFFFFFFFFFFFFFFFFF\t\t\t, \"Gig title cannot be empty\")...\n      MUL \t\t\t, \"Gig title cannot be empty\")...\n      NOT \t\t\t, \"Gig title cannot be empty\")...\n      AND \t\t\t, \"Gig title cannot be empty\")...\n      SWAP1 \t\t\t, \"Gig title cannot be empty\")...\n      DUP4 \t\t\t, \"Gig title cannot be empty\")...\n      PUSH FFFFFFFFFFFFFFFFFFFFFFFFFFFFFFFFFFFFFFFF\t\t\t, \"Gig title cannot be empty\")...\n      AND \t\t\t, \"Gig title cannot be empty\")...\n      MUL \t\t\t, \"Gig title cannot be empty\")...\n      OR \t\t\t, \"Gig title cannot be empty\")...\n      SWAP1 \t\t\t, \"Gig title cannot be empty\")...\n      SSTORE \t\t\t, \"Gig title cannot be empty\")...\n      POP \t\t\t, \"Gig title cannot be empty\")...\n      DUP2 \t\t\t         \n      PUSH FFFFFFFFFFFFFFFFFFFFFFFFFFFFFFFFFFFFFFFF\t\t\t    escrows[gigId] = EscrowDat...\n      AND \t\t\t    escrows[gigId] = EscrowDat...\n      DUP2 \t\t\towData({\\r\\n \n      PUSH FFFFFFFFFFFFFFFFFFFFFFFFFFFFFFFFFFFFFFFF\t\t\t    escrows[gigId] = EscrowDat...\n      AND \t\t\t    escrows[gigId] = EscrowDat...\n      DUP5 \t\t\td] = Es\n      PUSH FFFFFFFFFFFFFFFFFFFFFFFFFFFFFFFFFFFFFFFF\t\t\t    escrows[gigId] = EscrowDat...\n      AND \t\t\t    escrows[gigId] = EscrowDat...\n      PUSH 3134E8A2E6D97E929A7E54011EA5485D7D196DD5F0BA4D4EF95803E8E3FC257F\t\t\t    escrows[gigId] = EscrowDat...\n      PUSH 40\t\t\t    escrows[gigId] = EscrowDat...\n      MLOAD \t\t\t    escrows[gigId] = EscrowDat...\n      PUSH 40\t\t\t    escrows[gigId] = EscrowDat...\n      MLOAD \t\t\t    escrows[gigId] = EscrowDat...\n      DUP1 \t\t\t    escrows[gigId] = EscrowDat...\n      SWAP2 \t\t\t    escrows[gigId] = EscrowDat...\n      SUB \t\t\t    escrows[gigId] = EscrowDat...\n      SWAP1 \t\t\t    escrows[gigId] = EscrowDat...\n      LOG4 \t\t\t    escrows[gigId] = EscrowDat...\n      PUSH [tag] 376\t\t\td,\\r\\n            client: msg....\n      DUP2 \t\t\tent: msg.se\n      DUP4 \t\t\ter,\\r\\n    \n      PUSH [tag] 377\t\t\t      freelancer: freela\n      DUP7 \t\t\t: freel\n      PUSH [tag] 378\t\t\t      freelance\n      JUMP \t\t\t      freelancer: freela\n    tag 377\t\t\t      freelancer: freela\n      JUMPDEST \t\t\t      freelancer: freela\n      PUSH [tag] 379\t\t\td,\\r\\n            cl\n      JUMP \t\t\td,\\r\\n            client: msg....\n    tag 376\t\t\td,\\r\\n            client: msg....\n      JUMPDEST \t\t\td,\\r\\n            client: msg....\n      POP \t\t\t for this gig\");\\r\\n        re...\n      POP \t\t\than 0\");\\r\\n        require(!e...\n      POP \t\t\than 0\");\\r\\n        require(!e...\n      JUMP \t\t\than 0\");\\r\\n        require(!e...\n    tag 250\t\t\tess, \"Transfer to freelancer f...\n      JUMPDEST \t\t\tess, \"Transfer to freelancer f...\n      PUSH 0\t\t\tased(g\n      PUSH [tag] 381\t\t\tncer, payout);\\r\\n    }\\r\\n   ...\n      PUSH [tag] 382\t\t\t  }\\r\\n    \\r\\n    /**\\r\\n    ...\n      PUSH 9\t\t\t  }\\r\\n    \\r\\n    /**\\r\\n\n      PUSH 0\t\t\t  }\\r\\n    \\r\\n    /**\\r\\n    ...\n      DUP6 \t\t\t    * @\n      PUSH FFFFFFFFFFFFFFFFFFFFFFFFFFFFFFFFFFFFFFFF\t\t\t  }\\r\\n    \\r\\n    /**\\r\\n    ...\n      AND \t\t\t  }\\r\\n    \\r\\n    /**\\r\\n    ...\n      PUSH FFFFFFFFFFFFFFFFFFFFFFFFFFFFFFFFFFFFFFFF\t\t\t  }\\r\\n    \\r\\n    /**\\r\\n    ...\n      AND \t\t\t  }\\r\\n    \\r\\n    /**\\r\\n    ...\n      DUP2 \t\t\t  }\\r\\n    \\r\\n    /**\\r\\n    ...\n      MSTORE \t\t\t  }\\r\\n    \\r\\n    /**\\r\\n    ...\n      PUSH 20\t\t\t  }\\r\\n    \\r\\n    /**\\r\\n    ...\n      ADD \t\t\t  }\\r\\n    \\r\\n    /**\\r\\n    ...\n      SWAP1 \t\t\t  }\\r\\n    \\r\\n    /**\\r\\n    ...\n      DUP2 \t\t\t  }\\r\\n    \\r\\n    /**\\r\\n    ...\n      MSTORE \t\t\t  }\\r\\n    \\r\\n    /**\\r\\n    ...\n      PUSH 20\t\t\t  }\\r\\n    \\r\\n    /**\\r\\n    ...\n      ADD \t\t\t  }\\r\\n    \\r\\n    /**\\r\\n    ...\n      PUSH 0\t\t\t  }\\r\\n    \\r\\n    /**\\r\\n    ...\n      KECCAK256 \t\t\t  }\\r\\n    \\r\\n    /**\\r\\n    ...\n      PUSH [tag] 383\t\t\t  }\\r\\n    \\r\\n    /**\\r\\n    ...\n      JUMP \t\t\t  }\\r\\n    \\r\\n    /**\\r\\n    ...\n    tag 382\t\t\t  }\\r\\n    \\r\\n    /**\\r\\n    ...\n      JUMPDEST \t\t\t  }\\r\\n    \\r\\n    /**\\r\\n    ...\n      PUSH [tag] 384\t\t\tncer, payout);\\r\\n \n      JUMP \t\t\tncer, payout);\\r\\n    }\\r\\n   ...\n    tag 381\t\t\tncer, payout);\\r\\n    }\\r\\n   ...\n      JUMPDEST \t\t\tncer, payout);\\r\\n    }\\r\\n   ...\n      SWAP1 \t\t\t.freelancer, payout);\\r\\n    }...\n      POP \t\t\t.freelancer, payout);\\r\\n    }...\n      SWAP2 \t\t\tess, \"Transfer to freelancer f...\n      SWAP1 \t\t\tess, \"Transfer to freelancer f...\n      POP \t\t\tess, \"Transfer to freelancer f...\n      JUMP \t\t\tess, \"Transfer to freelancer f...\n    tag 256\t\t\tl onlyMinter {\\r\\n        requ...\n      JUMPDEST \t\t\tl onlyMinter {\\r\\n        requ...\n      PUSH 0\t\t\tays length misma\n      PUSH B\t\t\t\");\\r\\n \n      PUSH 0\t\t\t\");\\r\\n \n      SWAP1 \t\t\t\");\\r\\n \n      SLOAD \t\t\t\");\\r\\n \n      SWAP1 \t\t\t\");\\r\\n \n      PUSH 100\t\t\t\");\\r\\n \n      EXP \t\t\t\");\\r\\n \n      SWAP1 \t\t\t\");\\r\\n \n      DIV \t\t\t\");\\r\\n \n      PUSH FFFFFFFFFFFFFFFFFFFFFFFFFFFFFFFFFFFFFFFF\t\t\t\");\\r\\n \n      AND \t\t\t\");\\r\\n \n      SWAP1 \t\t\tays length mismatch\");\\r\\n \n      POP \t\t\tays length mismatch\");\\r\\n \n      DUP2 \t\t\tnt256 to\n      PUSH B\t\t\t      \n      PUSH 0\t\t\t      \n      PUSH 100\t\t\t       uint256 to\n      EXP \t\t\t       uint256 to\n      DUP2 \t\t\t       uint256 to\n      SLOAD \t\t\t       uint256 to\n      DUP2 \t\t\t       uint256 to\n      PUSH FFFFFFFFFFFFFFFFFFFFFFFFFFFFFFFFFFFFFFFF\t\t\t       uint256 to\n      MUL \t\t\t       uint256 to\n      NOT \t\t\t       uint256 to\n      AND \t\t\t       uint256 to\n      SWAP1 \t\t\t       uint256 to\n      DUP4 \t\t\t       uint256 to\n      PUSH FFFFFFFFFFFFFFFFFFFFFFFFFFFFFFFFFFFFFFFF\t\t\t       uint256 to\n      AND \t\t\t       uint256 to\n      MUL \t\t\t       uint256 to\n      OR \t\t\t       uint256 to\n      SWAP1 \t\t\t       uint256 to\n      SSTORE \t\t\t       uint256 to\n      POP \t\t\t       uint256 to\n      DUP2 \t\t\t< amount\n      PUSH FFFFFFFFFFFFFFFFFFFFFFFFFFFFFFFFFFFFFFFF\t\t\t\\n        for (uint256 i = 0; ...\n      AND \t\t\t\\n        for (uint256 i = 0; ...\n      DUP2 \t\t\t i = 0; \n      PUSH FFFFFFFFFFFFFFFFFFFFFFFFFFFFFFFFFFFFFFFF\t\t\t\\n        for (uint256 i = 0; ...\n      AND \t\t\t\\n        for (uint256 i = 0; ...\n      PUSH 8BE0079C531659141344CD1FD0A4F28419497F9722A3DAAFE3B4186F6B6457E0\t\t\t\\n        for (uint256 i = 0; ...\n      PUSH 40\t\t\t\\n        for (uint256 i = 0; ...\n      MLOAD \t\t\t\\n        for (uint256 i = 0; ...\n      PUSH 40\t\t\t\\n        for (uint256 i = 0; ...\n      MLOAD \t\t\t\\n        for (uint256 i = 0; ...\n      DUP1 \t\t\t\\n        for (uint256 i = 0; ...\n      SWAP2 \t\t\t\\n        for (uint256 i = 0; ...\n      SUB \t\t\t\\n        for (uint256 i = 0; ...\n      SWAP1 \t\t\t\\n        for (uint256 i = 0; ...\n      LOG3 \t\t\t\\n        for (uint256 i = 0; ...\n      POP \t\t\tngth, \"Arrays length mismatch\"...\n      POP \t\t\tl onlyMinter {\\r\\n        requ...\n      JUMP \t\t\tl onlyMinter {\\r\\n        requ...\n    tag 259\t\t\tC20.sol\";\\r\\nimport \"@openzepp...\n      JUMPDEST \t\t\tC20.sol\";\\r\\nimport \"@openzepp...\n      PUSH 0\t\t\tsions/E\n      PUSH 7\t\t\tport \"@\n      PUSH 0\t\t\tport \"@openzep\n      DUP4 \t\t\tpenze\n      PUSH FFFFFFFFFFFFFFFFFFFFFFFFFFFFFFFFFFFFFFFF\t\t\tport \"@openzep\n      AND \t\t\tport \"@openzep\n      PUSH FFFFFFFFFFFFFFFFFFFFFFFFFFFFFFFFFFFFFFFF\t\t\tport \"@openzep\n      AND \t\t\tport \"@openzep\n      DUP2 \t\t\tport \"@openzep\n      MSTORE \t\t\tport \"@openzep\n      PUSH 20\t\t\tport \"@openzep\n      ADD \t\t\tport \"@openzep\n      SWAP1 \t\t\tport \"@openzep\n      DUP2 \t\t\tport \"@openzep\n      MSTORE \t\t\tport \"@openzep\n      PUSH 20\t\t\tport \"@openzep\n      ADD \t\t\tport \"@openzep\n      PUSH 0\t\t\tport \"@openzep\n      KECCAK256 \t\t\tport \"@openzep\n      SLOAD \t\t\tport \"@openzep\n      SWAP1 \t\t\tl\";\\r\\nimport \"@openzep\n      POP \t\t\tl\";\\r\\nimport \"@openzep\n      SWAP2 \t\t\tC20.sol\";\\r\\nimport \"@openzepp...\n      SWAP1 \t\t\tC20.sol\";\\r\\nimport \"@openzepp...\n      POP \t\t\tC20.sol\";\\r\\nimport \"@openzepp...\n      JUMP \t\t\tC20.sol\";\\r\\nimport \"@openzepp...\n    tag 262\t\t\tRecipient;\\r\\n    }\\r\\n    \\r\\...\n      JUMPDEST \t\t\tRecipient;\\r\\n    }\\r\\n    \\r\\...\n      PUSH 60\t\t\tCreate escrow\n      PUSH [tag] 388\t\t\t funds\\r\\n     * @param gigId ...\n      PUSH 5\t\t\t Unique ident\n      PUSHIMMUTABLE 4352\t\t\t fund\n      PUSH [tag] 389\t\t\t funds\\r\\n     * @param gigI\n      SWAP1 \t\t\t funds\\r\\n     * @param gigI\n      SWAP2 \t\t\t funds\\r\\n     * @param gigId ...\n      SWAP1 \t\t\t funds\\r\\n     * @param gigId ...\n      PUSH FFFFFFFF\t\t\t funds\\r\\n     * @param gigId ...\n      AND \t\t\t funds\\r\\n     * @param gigId ...\n      JUMP \t\t\t funds\\r\\n     * @param gigId ...\n    tag 388\t\t\t funds\\r\\n     * @param gigId ...\n      JUMPDEST \t\t\t funds\\r\\n     * @param gigId ...\n      SWAP1 \t\t\tnd lock funds\\r\\n     * @param...\n      POP \t\t\tnd lock funds\\r\\n     * @param...\n      SWAP1 \t\t\tRecipient;\\r\\n    }\\r\\n    \\r\\...\n      JUMP \t\t\tRecipient;\\r\\n    }\\r\\n    \\r\\...\n    tag 264\t\t\tvalid freelancer address\");\\r\\...\n      JUMPDEST \t\t\tvalid freelancer address\");\\r\\...\n      PUSH 60\t\t\tlancer != msg\n      PUSH [tag] 391\t\t\td freelancer cannot be the sam...\n      PUSH 6\t\t\te\");\\r\\n        re\n      PUSHIMMUTABLE 4355\t\t\td freela\n      PUSH [tag] 389\t\t\td freelancer cannot be the sa\n      SWAP1 \t\t\td freelancer cannot be the sa\n      SWAP2 \t\t\td freelancer cannot be the sam...\n      SWAP1 \t\t\td freelancer cannot be the sam...\n      PUSH FFFFFFFF\t\t\td freelancer cannot be the sam...\n      AND \t\t\td freelancer cannot be the sam...\n      JUMP \t\t\td freelancer cannot be the sam...\n    tag 391\t\t\td freelancer cannot be the sam...\n      JUMPDEST \t\t\td freelancer cannot be the sam...\n      SWAP1 \t\t\tient and freelancer cannot be ...\n      POP \t\t\tient and freelancer cannot be ...\n      SWAP1 \t\t\tvalid freelancer address\");\\r\\...\n      JUMP \t\t\tvalid freelancer address\");\\r\\...\n    tag 286\t\t\tent's escrow gig IDs\\r\\n     *...\n      JUMPDEST \t\t\tent's escrow gig IDs\\r\\n     *...\n      PUSH 0\t\t\tnt\\r\\n   \n      PUSH 0\t\t\tnction getC\n      DUP3 \t\t\tntEs\n      PUSH 0\t\t\tntEscrows(address\n      ADD \t\t\tntEscrows(address\n      DUP1 \t\t\tntEscrows(address client\n      SLOAD \t\t\tntEscrows(address client\n      SWAP1 \t\t\tntEscrows(address client\n      POP \t\t\tntEscrows(address client\n      SWAP1 \t\t\tnction getClientEscrows(addres...\n      POP \t\t\tnction getClientEscrows(addres...\n      PUSH 0\t\t\t(\n      DUP2 \t\t\tetu\n      EQ \t\t\teturns (\n      PUSH [tag] 393\t\t\teturns (uint256[] memory) {\\r\\...\n      JUMPI \t\t\teturns (uint256[] memory) {\\r\\...\n      PUSH [tag] 394\t\t\t[] memory) {\\r\\n        return...\n      DUP4 \t\t\t    \n      PUSH 0\t\t\t        return cl\n      ADD \t\t\t        return cl\n      PUSH 1\t\t\to\n      DUP4 \t\t\tntE\n      PUSH [tag] 395\t\t\tntEscro\n      SWAP2 \t\t\tntEscro\n      SWAP1 \t\t\tntEscro\n      PUSH [tag] 356\t\t\tntEscro\n      JUMP \t\t\tntEscro\n    tag 395\t\t\tntEscro\n      JUMPDEST \t\t\tntEscro\n      PUSH [tag] 358\t\t\t[] memory) {\\r\n      JUMP \t\t\t[] memory) {\\r\\n        return...\n    tag 394\t\t\t[] memory) {\\r\\n        return...\n      JUMPDEST \t\t\t[] memory) {\\r\\n        return...\n      PUSH 0\t\t\t[] memory) {\\r\\n        return...\n      ADD \t\t\t[] memory) {\\r\\n        return...\n      PUSH 6\t\t\t[] memory) {\\r\\n        return...\n      SWAP1 \t\t\t[] memory) {\\r\\n        return...\n      SLOAD \t\t\t[] memory) {\\r\\n        return...\n      SWAP1 \t\t\t[] memory) {\\r\\n        return...\n      PUSH 100\t\t\t[] memory) {\\r\\n        return...\n      EXP \t\t\t[] memory) {\\r\\n        return...\n      SWAP1 \t\t\t[] memory) {\\r\\n        return...\n      DIV \t\t\t[] memory) {\\r\\n        return...\n      PUSH FFFFFFFFFFFFFFFFFFFFFFFFFFFFFFFFFFFFFFFFFFFFFFFFFFFF\t\t\t[] memory) {\\r\\n        return...\n      AND \t\t\t[] memory) {\\r\\n        return...\n      PUSH [tag] 396\t\t\teturns (uint256[] memory) {\\r\\...\n      JUMP \t\t\teturns (uint256[] memory) {\\r\\...\n    tag 393\t\t\teturns (uint256[] memory) {\\r\\...\n      JUMPDEST \t\t\teturns (uint256[] memory) {\\r\\...\n      PUSH 0\t\t\tt\n    tag 396\t\t\teturns (uint256[] memory) {\\r\\...\n      JUMPDEST \t\t\teturns (uint256[] memory) {\\r\\...\n      SWAP2 \t\t\t view returns (uint256[] memor...\n      POP \t\t\t view returns (uint256[] memor...\n      POP \t\t\t view returns (uint256[] memor...\n      SWAP2 \t\t\tent's escrow gig IDs\\r\\n     *...\n      SWAP1 \t\t\tent's escrow gig IDs\\r\\n     *...\n      POP \t\t\tent's escrow gig IDs\\r\\n     *...\n      JUMP \t\t\tent's escrow gig IDs\\r\\n     *...\n    tag 297\t\t\tdexed client,\\r\\n        addre...\n      JUMPDEST \t\t\tdexed client,\\r\\n        addre...\n      PUSH 0\t\t\t       \n      PUSH [tag] 398\t\t\t   );\\r\\n    \\r\\n    event Esc...\n      PUSH [tag] 399\t\t\ted(\\r\\n        uint256\n      PUSH [tag] 400\t\t\ted(\\r\\n        uint2\n      JUMP \t\t\ted(\\r\\n        uint256\n    tag 399\t\t\ted(\\r\\n        uint256\n      JUMPDEST \t\t\ted(\\r\\n        uint256\n      DUP4 \t\t\tndexed gig\n      PUSH [tag] 401\t\t\t   );\\r\\n    \\r\\n    event Esc...\n      JUMP \t\t\t   );\\r\\n    \\r\\n    event Esc...\n    tag 398\t\t\t   );\\r\\n    \\r\\n    event Esc...\n      JUMPDEST \t\t\t   );\\r\\n    \\r\\n    event Esc...\n      SWAP1 \t\t\title\\r\\n    );\\r\\n    \\r\\n    ...\n      POP \t\t\title\\r\\n    );\\r\\n    \\r\\n    ...\n      SWAP2 \t\t\tdexed client,\\r\\n        addre...\n      SWAP1 \t\t\tdexed client,\\r\\n        addre...\n      POP \t\t\tdexed client,\\r\\n        addre...\n      JUMP \t\t\tdexed client,\\r\\n        addre...\n    tag 298\t\t\tpty\");\\r\\n        \\r\\n        ...\n      JUMPDEST \t\t\tpty\");\\r\\n        \\r\\n        ...\n      PUSH 0\t\t\t       \n      PUSH 0\t\t\tsg.sender,\\r\\n     \n      PUSH 0\t\t\t     freelancer: f\n      PUSH 0\t\t\telancer,\\r\\n      \n      PUSH [tag] 403\t\t\t  amount: msg.value,\\r\\n   \n      DUP9 \t\t\tsg.v\n      DUP9 \t\t\tu\n      DUP9 \t\t\t\\r\n      DUP9 \t\t\t \n      PUSH [tag] 404\t\t\t  amount: \n      JUMP \t\t\t  amount: msg.value,\\r\\n   \n    tag 403\t\t\t  amount: msg.value,\\r\\n   \n      JUMPDEST \t\t\t  amount: msg.value,\\r\\n   \n      SWAP3 \t\t\tmsg.sender,\\r\\n            fre...\n      POP \t\t\tmsg.sender,\\r\\n            fre...\n      SWAP3 \t\t\tmsg.sender,\\r\\n            fre...\n      POP \t\t\tmsg.sender,\\r\\n            fre...\n      SWAP3 \t\t\tmsg.sender,\\r\\n            fre...\n      POP \t\t\tmsg.sender,\\r\\n            fre...\n      PUSH [tag] 405\t\t\ttatus: EscrowStatus.Pending,\n      DUP3 \t\t\twStat\n      DUP3 \t\t\t.Pending\n      PUSH [tag] 406\t\t\ttatus: Escr\n      JUMP \t\t\ttatus: EscrowStatus.Pending,\n    tag 405\t\t\ttatus: EscrowStatus.Pending,\n      JUMPDEST \t\t\ttatus: EscrowStatus.Pending,\n      DUP3 \t\t\tatedAt: b\n      SWAP4 \t\t\t    createdAt: b\n      POP \t\t\t    createdAt: b\n      POP \t\t\t    createdAt: b\n      POP \t\t\t    createdAt: b\n      POP \t\t\t    createdAt: b\n      SWAP5 \t\t\tpty\");\\r\\n        \\r\\n        ...\n      SWAP4 \t\t\tpty\");\\r\\n        \\r\\n        ...\n      POP \t\t\tpty\");\\r\\n        \\r\\n        ...\n      POP \t\t\tpty\");\\r\\n        \\r\\n        ...\n      POP \t\t\tpty\");\\r\\n        \\r\\n        ...\n      POP \t\t\tpty\");\\r\\n        \\r\\n        ...\n      JUMP \t\t\tpty\");\\r\\n        \\r\\n        ...\n    tag 300\t\t\tblic minters;\\r\\n    \\r\\n    e...\n      JUMPDEST \t\t\tblic minters;\\r\\n    \\r\\n    e...\n      PUSH 0\t\t\terRemoved(addre\n      PUSH [tag] 408\t\t\tindexed minter);\n      DUP4 \t\t\tnter)\n      PUSH [tag] 409\t\t\tindexed m\n      JUMP \t\t\tindexed minter);\n    tag 408\t\t\tindexed minter);\n      JUMPDEST \t\t\tindexed minter);\n      SWAP1 \t\t\terRemoved(address indexed mint...\n      POP \t\t\terRemoved(address indexed mint...\n      DUP1 \t\t\tlyMinte\n      DUP3 \t\t\tdifie\n      EQ \t\t\tdifier onlyMinte\n      PUSH [tag] 410\t\t\t  modifier onlyMinter() {\\r\\n ...\n      JUMPI \t\t\t  modifier onlyMinter() {\\r\\n ...\n      DUP3 \t\t\t|| ms\n      DUP2 \t\t\tsender \n      PUSH 40\t\t\tminters[msg.sender] || msg.sen...\n      MLOAD \t\t\tminters[msg.sender] || msg.sen...\n      PUSH 752D88C000000000000000000000000000000000000000000000000000000000\t\t\tminters[msg.sender] || msg.sen...\n      DUP2 \t\t\tminters[msg.sender] || msg.sen...\n      MSTORE \t\t\tminters[msg.sender] || msg.sen...\n      PUSH 4\t\t\tminters[msg.sender] || msg.sen...\n      ADD \t\t\tminters[msg.sender] || msg.sen...\n      PUSH [tag] 411\t\t\tminters[msg.sender] || msg.sen...\n      SWAP3 \t\t\tminters[msg.sender] || msg.sen...\n      SWAP2 \t\t\tminters[msg.sender] || msg.sen...\n      SWAP1 \t\t\tminters[msg.sender] || msg.sen...\n      PUSH [tag] 412\t\t\tminters[msg.sender] || msg.sen...\n      JUMP \t\t\tminters[msg.sender] || msg.sen...\n    tag 411\t\t\tminters[msg.sender] || msg.sen...\n      JUMPDEST \t\t\tminters[msg.sender] || msg.sen...\n      PUSH 40\t\t\tminters[msg.sender] || msg.sen...\n      MLOAD \t\t\tminters[msg.sender] || msg.sen...\n      DUP1 \t\t\tminters[msg.sender] || msg.sen...\n      SWAP2 \t\t\tminters[msg.sender] || msg.sen...\n      SUB \t\t\tminters[msg.sender] || msg.sen...\n      SWAP1 \t\t\tminters[msg.sender] || msg.sen...\n      REVERT \t\t\tminters[msg.sender] || msg.sen...\n    tag 410\t\t\t  modifier onlyMinter() {\\r\\n ...\n      JUMPDEST \t\t\t  modifier onlyMinter() {\\r\\n ...\n      POP \t\t\tevent MinterRemoved(address in...\n      POP \t\t\tblic minters;\\r\\n    \\r\\n    e...\n      POP \t\t\tblic minters;\\r\\n    \\r\\n    e...\n      JUMP \t\t\tblic minters;\\r\\n    \\r\\n    e...\n    tag 307\t\t\t*/\\r\\n    function refundEscro...\n      JUMPDEST \t\t\t*/\\r\\n    function refundEscro...\n      PUSH [tag] 413\t\t\t        EscrowData storage esc...\n      PUSH [tag] 304\t\t\t        EscrowData storage esc...\n      JUMP \t\t\t        EscrowData storage esc...\n    tag 413\t\t\t        EscrowData storage esc...\n      JUMPDEST \t\t\t        EscrowData storage esc...\n      PUSH [tag] 415\t\t\t\\r\\n        \\r\\n        requir...\n      DUP3 \t\t\t   \n      PUSH 9\t\t\t\\r\\n        \\r\\n        \n      PUSH 0\t\t\t\\r\\n        \\r\\n        requir...\n      DUP7 \t\t\tequire(\n      PUSH FFFFFFFFFFFFFFFFFFFFFFFFFFFFFFFFFFFFFFFF\t\t\t\\r\\n        \\r\\n        requir...\n      AND \t\t\t\\r\\n        \\r\\n        requir...\n      PUSH FFFFFFFFFFFFFFFFFFFFFFFFFFFFFFFFFFFFFFFF\t\t\t\\r\\n        \\r\\n        requir...\n      AND \t\t\t\\r\\n        \\r\\n        requir...\n      DUP2 \t\t\t\\r\\n        \\r\\n        requir...\n      MSTORE \t\t\t\\r\\n        \\r\\n        requir...\n      PUSH 20\t\t\t\\r\\n        \\r\\n        requir...\n      ADD \t\t\t\\r\\n        \\r\\n        requir...\n      SWAP1 \t\t\t\\r\\n        \\r\\n        requir...\n      DUP2 \t\t\t\\r\\n        \\r\\n        requir...\n      MSTORE \t\t\t\\r\\n        \\r\\n        requir...\n      PUSH 20\t\t\t\\r\\n        \\r\\n        requir...\n      ADD \t\t\t\\r\\n        \\r\\n        requir...\n      PUSH 0\t\t\t\\r\\n        \\r\\n        requir...\n      KECCAK256 \t\t\t\\r\\n        \\r\\n        requir...\n      PUSH [tag] 416\t\t\t\\r\\n        \\r\\n        requir...\n      SWAP1 \t\t\t\\r\\n        \\r\\n        requir...\n      SWAP2 \t\t\t\\r\\n        \\r\\n        requir...\n      SWAP1 \t\t\t\\r\\n        \\r\\n        requir...\n      PUSH FFFFFFFF\t\t\t\\r\\n        \\r\\n        requir...\n      AND \t\t\t\\r\\n        \\r\\n        requir...\n      JUMP \t\t\t\\r\\n        \\r\\n        requir...\n    tag 415\t\t\t\\r\\n        \\r\\n        requir...\n      JUMPDEST \t\t\t\\r\\n        \\r\\n        requir...\n      SWAP1 \t\t\tgigId];\\r\\n        \\r\\n       ...\n      POP \t\t\tgigId];\\r\\n        \\r\\n       ...\n      SWAP3 \t\t\t*/\\r\\n    function refundEscro...\n      SWAP2 \t\t\t*/\\r\\n    function refundEscro...\n      POP \t\t\t*/\\r\\n    function refundEscro...\n      POP \t\t\t*/\\r\\n    function refundEscro...\n      JUMP \t\t\t*/\\r\\n    function refundEscro...\n    tag 323\t\t\tnt);\\r\\n    }\\r\\n    \\r\\n    /...\n      JUMPDEST \t\t\tnt);\\r\\n    }\\r\\n    \\r\\n    /...\n      PUSH 0\t\t\t \n      PUSH FFFFFFFFFFFFFFFFFFFFFFFFFFFFFFFFFFFFFFFF\t\t\tD of the gig\\r\\n     \n      AND \t\t\tD of the gig\\r\\n     \n      DUP5 \t\t\tD of \n      PUSH FFFFFFFFFFFFFFFFFFFFFFFFFFFFFFFFFFFFFFFF\t\t\tD of the gig\\r\\n     \n      AND \t\t\tD of the gig\\r\\n     \n      SUB \t\t\tD of the gig\\r\\n     \n      PUSH [tag] 418\t\t\tId ID of the gig\\r\\n     */\\r\\...\n      JUMPI \t\t\tId ID of the gig\\r\\n     */\\r\\...\n      PUSH 0\t\t\ta\n      PUSH 40\t\t\tork(uint256 gigId) external va...\n      MLOAD \t\t\tork(uint256 gigId) external va...\n      PUSH E602DF0500000000000000000000000000000000000000000000000000000000\t\t\tork(uint256 gigId) external va...\n      DUP2 \t\t\tork(uint256 gigId) external va...\n      MSTORE \t\t\tork(uint256 gigId) external va...\n      PUSH 4\t\t\tork(uint256 gigId) external va...\n      ADD \t\t\tork(uint256 gigId) external va...\n      PUSH [tag] 419\t\t\tork(uint256 gigId) external va...\n      SWAP2 \t\t\tork(uint256 gigId) external va...\n      SWAP1 \t\t\tork(uint256 gigId) external va...\n      PUSH [tag] 88\t\t\tork(uint256 gigId) external va...\n      JUMP \t\t\tork(uint256 gigId) external va...\n    tag 419\t\t\tork(uint256 gigId) external va...\n      JUMPDEST \t\t\tork(uint256 gigId) external va...\n      PUSH 40\t\t\tork(uint256 gigId) external va...\n      MLOAD \t\t\tork(uint256 gigId) external va...\n      DUP1 \t\t\tork(uint256 gigId) external va...\n      SWAP2 \t\t\tork(uint256 gigId) external va...\n      SUB \t\t\tork(uint256 gigId) external va...\n      SWAP1 \t\t\tork(uint256 gigId) external va...\n      REVERT \t\t\tork(uint256 gigId) external va...\n    tag 418\t\t\tId ID of the gig\\r\\n     */\\r\\...\n      JUMPDEST \t\t\tId ID of the gig\\r\\n     */\\r\\...\n      PUSH 0\t\t\t \n      PUSH FFFFFFFFFFFFFFFFFFFFFFFFFFFFFFFFFFFFFFFF\t\t\ter(gigId) {\\r\\n        \n      AND \t\t\ter(gigId) {\\r\\n        \n      DUP4 \t\t\ter(gigI\n      PUSH FFFFFFFFFFFFFFFFFFFFFFFFFFFFFFFFFFFFFFFF\t\t\ter(gigId) {\\r\\n        \n      AND \t\t\ter(gigId) {\\r\\n        \n      SUB \t\t\ter(gigId) {\\r\\n        \n      PUSH [tag] 420\t\t\tlancer(gigId) {\\r\\n        Esc...\n      JUMPI \t\t\tlancer(gigId) {\\r\\n        Esc...\n      PUSH 0\t\t\t \n      PUSH 40\t\t\tow = escrows[gigId];\\r\\n      ...\n      MLOAD \t\t\tow = escrows[gigId];\\r\\n      ...\n      PUSH 94280D6200000000000000000000000000000000000000000000000000000000\t\t\tow = escrows[gigId];\\r\\n      ...\n      DUP2 \t\t\tow = escrows[gigId];\\r\\n      ...\n      MSTORE \t\t\tow = escrows[gigId];\\r\\n      ...\n      PUSH 4\t\t\tow = escrows[gigId];\\r\\n      ...\n      ADD \t\t\tow = escrows[gigId];\\r\\n      ...\n      PUSH [tag] 421\t\t\tow = escrows[gigId];\\r\\n      ...\n      SWAP2 \t\t\tow = escrows[gigId];\\r\\n      ...\n      SWAP1 \t\t\tow = escrows[gigId];\\r\\n      ...\n      PUSH [tag] 88\t\t\tow = escrows[gigId];\\r\\n      ...\n      JUMP \t\t\tow = escrows[gigId];\\r\\n      ...\n    tag 421\t\t\tow = escrows[gigId];\\r\\n      ...\n      JUMPDEST \t\t\tow = escrows[gigId];\\r\\n      ...\n      PUSH 40\t\t\tow = escrows[gigId];\\r\\n      ...\n      MLOAD \t\t\tow = escrows[gigId];\\r\\n      ...\n      DUP1 \t\t\tow = escrows[gigId];\\r\\n      ...\n      SWAP2 \t\t\tow = escrows[gigId];\\r\\n      ...\n      SUB \t\t\tow = escrows[gigId];\\r\\n      ...\n      SWAP1 \t\t\tow = escrows[gigId];\\r\\n      ...\n      REVERT \t\t\tow = escrows[gigId];\\r\\n      ...\n    tag 420\t\t\tlancer(gigId) {\\r\\n        Esc...\n      JUMPDEST \t\t\tlancer(gigId) {\\r\\n        Esc...\n      DUP2 \t\t\tk alr\n      PUSH 1\t\t\t == EscrowS\n      PUSH 0\t\t\t == EscrowStatus.P\n      DUP7 \t\t\tatus.\n      PUSH FFFFFFFFFFFFFFFFFFFFFFFFFFFFFFFFFFFFFFFF\t\t\t == EscrowStatus.P\n      AND \t\t\t == EscrowStatus.P\n      PUSH FFFFFFFFFFFFFFFFFFFFFFFFFFFFFFFFFFFFFFFF\t\t\t == EscrowStatus.P\n      AND \t\t\t == EscrowStatus.P\n      DUP2 \t\t\t == EscrowStatus.P\n      MSTORE \t\t\t == EscrowStatus.P\n      PUSH 20\t\t\t == EscrowStatus.P\n      ADD \t\t\t == EscrowStatus.P\n      SWAP1 \t\t\t == EscrowStatus.P\n      DUP2 \t\t\t == EscrowStatus.P\n      MSTORE \t\t\t == EscrowStatus.P\n      PUSH 20\t\t\t == EscrowStatus.P\n      ADD \t\t\t == EscrowStatus.P\n      PUSH 0\t\t\t == EscrowStatus.P\n      KECCAK256 \t\t\t == EscrowStatus.P\n      PUSH 0\t\t\t == EscrowStatus.Pending, \"\n      DUP6 \t\t\tnding, \n      PUSH FFFFFFFFFFFFFFFFFFFFFFFFFFFFFFFFFFFFFFFF\t\t\t == EscrowStatus.Pending, \"\n      AND \t\t\t == EscrowStatus.Pending, \"\n      PUSH FFFFFFFFFFFFFFFFFFFFFFFFFFFFFFFFFFFFFFFF\t\t\t == EscrowStatus.Pending, \"\n      AND \t\t\t == EscrowStatus.Pending, \"\n      DUP2 \t\t\t == EscrowStatus.Pending, \"\n      MSTORE \t\t\t == EscrowStatus.Pending, \"\n      PUSH 20\t\t\t == EscrowStatus.Pending, \"\n      ADD \t\t\t == EscrowStatus.Pending, \"\n      SWAP1 \t\t\t == EscrowStatus.Pending, \"\n      DUP2 \t\t\t == EscrowStatus.Pending, \"\n      MSTORE \t\t\t == EscrowStatus.Pending, \"\n      PUSH 20\t\t\t == EscrowStatus.Pending, \"\n      ADD \t\t\t == EscrowStatus.Pending, \"\n      PUSH 0\t\t\t == EscrowStatus.Pending, \"\n      KECCAK256 \t\t\t == EscrowStatus.Pending, \"\n      DUP2 \t\t\t == EscrowStatus.Pending, \"Wor...\n      SWAP1 \t\t\t == EscrowStatus.Pending, \"Wor...\n      SSTORE \t\t\t == EscrowStatus.Pending, \"Wor...\n      POP \t\t\t == EscrowStatus.Pending, \"Wor...\n      DUP1 \t\t\tr complet\n      ISZERO \t\t\ted or completed\");\\r\\n        ...\n      PUSH [tag] 422\t\t\ted or completed\");\\r\\n        ...\n      JUMPI \t\t\ted or completed\");\\r\\n        ...\n      DUP3 \t\t\ts = Esc\n      PUSH FFFFFFFFFFFFFFFFFFFFFFFFFFFFFFFFFFFFFFFF\t\t\t    escrow.status = EscrowStat...\n      AND \t\t\t    escrow.status = EscrowStat...\n      DUP5 \t\t\tw.sta\n      PUSH FFFFFFFFFFFFFFFFFFFFFFFFFFFFFFFFFFFFFFFF\t\t\t    escrow.status = EscrowStat...\n      AND \t\t\t    escrow.status = EscrowStat...\n      PUSH 8C5BE1E5EBEC7D5BD14F71427D1E84F3DD0314C0F7B2291E5B200AC8C7C3B925\t\t\t    escrow.status = EscrowStat...\n      DUP5 \t\t\twStat\n      PUSH 40\t\t\t    escrow.status = EscrowStat...\n      MLOAD \t\t\t    escrow.status = EscrowStat...\n      PUSH [tag] 423\t\t\t    escrow.status = EscrowStat...\n      SWAP2 \t\t\t    escrow.status = EscrowStat...\n      SWAP1 \t\t\t    escrow.status = EscrowStat...\n      PUSH [tag] 54\t\t\t    escrow.status = EscrowStat...\n      JUMP \t\t\t    escrow.status = EscrowStat...\n    tag 423\t\t\t    escrow.status = EscrowStat...\n      JUMPDEST \t\t\t    escrow.status = EscrowStat...\n      PUSH 40\t\t\t    escrow.status = EscrowStat...\n      MLOAD \t\t\t    escrow.status = EscrowStat...\n      DUP1 \t\t\t    escrow.status = EscrowStat...\n      SWAP2 \t\t\t    escrow.status = EscrowStat...\n      SUB \t\t\t    escrow.status = EscrowStat...\n      SWAP1 \t\t\t    escrow.status = EscrowStat...\n      LOG3 \t\t\t    escrow.status = EscrowStat...\n    tag 422\t\t\ted or completed\");\\r\\n        ...\n      JUMPDEST \t\t\ted or completed\");\\r\\n        ...\n      POP \t\t\tnt);\\r\\n    }\\r\\n    \\r\\n    /...\n      POP \t\t\tnt);\\r\\n    }\\r\\n    \\r\\n    /...\n      POP \t\t\tnt);\\r\\n    }\\r\\n    \\r\\n    /...\n      POP \t\t\tnt);\\r\\n    }\\r\\n    \\r\\n    /...\n      JUMP \t\t\tnt);\\r\\n    }\\r\\n    \\r\\n    /...\n    tag 337\t\t\tfunction _update(address from,...\n      JUMPDEST \t\t\tfunction _update(address from,...\n      PUSH [tag] 425\t\t\tsuper._update(from, to, value)\n      DUP4 \t\t\tfrom\n      DUP4 \t\t\tto\n      DUP4 \t\t\tvalue\n      PUSH [tag] 426\t\t\tsuper._update\n      JUMP \t\t\tsuper._update(from, to, value)\n    tag 425\t\t\tsuper._update(from, to, value)\n      JUMPDEST \t\t\tsuper._update(from, to, value)\n      POP \t\t\tfunction _update(address from,...\n      POP \t\t\tfunction _update(address from,...\n      POP \t\t\tfunction _update(address from,...\n      JUMP \t\t\tfunction _update(address from,...\n    tag 350\t\t\t  // Since we don't track tota...\n      JUMPDEST \t\t\t  // Since we don't track tota...\n      PUSH 0\t\t\tasonab\n      PUSH FFFFFFFFFFFF\t\t\tIn production, y\n      DUP1 \t\t\t     // In production, y\n      AND \t\t\t     // In production, y\n      DUP3 \t\t\t     \n      GT \t\t\t     // In production, y\n      ISZERO \t\t\t\\n        // In production, yo...\n      PUSH [tag] 428\t\t\t\\n        // In production, yo...\n      JUMPI \t\t\t\\n        // In production, yo...\n      PUSH 30\t\t\t r\n      DUP3 \t\t\turn 1\n      PUSH 40\t\t\tcounter state variable\\r\\n    ...\n      MLOAD \t\t\tcounter state variable\\r\\n    ...\n      PUSH 6DFCC65000000000000000000000000000000000000000000000000000000000\t\t\tcounter state variable\\r\\n    ...\n      DUP2 \t\t\tcounter state variable\\r\\n    ...\n      MSTORE \t\t\tcounter state variable\\r\\n    ...\n      PUSH 4\t\t\tcounter state variable\\r\\n    ...\n      ADD \t\t\tcounter state variable\\r\\n    ...\n      PUSH [tag] 429\t\t\tcounter state variable\\r\\n    ...\n      SWAP3 \t\t\tcounter state variable\\r\\n    ...\n      SWAP2 \t\t\tcounter state variable\\r\\n    ...\n      SWAP1 \t\t\tcounter state variable\\r\\n    ...\n      PUSH [tag] 430\t\t\tcounter state variable\\r\\n    ...\n      JUMP \t\t\tcounter state variable\\r\\n    ...\n    tag 429\t\t\tcounter state variable\\r\\n    ...\n      JUMPDEST \t\t\tcounter state variable\\r\\n    ...\n      PUSH 40\t\t\tcounter state variable\\r\\n    ...\n      MLOAD \t\t\tcounter state variable\\r\\n    ...\n      DUP1 \t\t\tcounter state variable\\r\\n    ...\n      SWAP2 \t\t\tcounter state variable\\r\\n    ...\n      SUB \t\t\tcounter state variable\\r\\n    ...\n      SWAP1 \t\t\tcounter state variable\\r\\n    ...\n      REVERT \t\t\tcounter state variable\\r\\n    ...\n    tag 428\t\t\t\\n        // In production, yo...\n      JUMPDEST \t\t\t\\n        // In production, yo...\n      DUP2 \t\t\ton yo\n      SWAP1 \t\t\t adjust based on you\n      POP \t\t\t adjust based on you\n      SWAP2 \t\t\t  // Since we don't track tota...\n      SWAP1 \t\t\t  // Since we don't track tota...\n      POP \t\t\t  // Since we don't track tota...\n      JUMP \t\t\t  // Since we don't track tota...\n    tag 354\t\t\t  \\r\\n        // Execute the d...\n      JUMPDEST \t\t\t  \\r\\n        // Execute the d...\n      PUSH 0\t\t\tscrow c\n      PUSH 1\t\t\tr\n      DUP3 \t\t\td\n      GT \t\t\td(escr\n      PUSH [tag] 432\t\t\tlized(escrowId, voteData.winne...\n      JUMPI \t\t\tlized(escrowId, voteData.winne...\n      DUP2 \t\t\tD\n      SWAP1 \t\t\tr, voteD\n      POP \t\t\tr, voteD\n      PUSH [tag] 431\t\t\tr, voteD\n      JUMP \t\t\tr, voteD\n    tag 432\t\t\tlized(escrowId, voteData.winne...\n      JUMPDEST \t\t\tlized(escrowId, voteData.winne...\n      PUSH 0\t\t\thasVoted(u\n      DUP3 \t\t\t2\n      SWAP1 \t\t\thasVoted(uint2\n      POP \t\t\thasVoted(uint2\n      PUSH 0\t\t\tddress vot\n      PUSH 1\t\t\t \n      SWAP1 \t\t\tddress voter) \n      POP \t\t\tddress voter) \n      PUSH 100000000000000000000000000000000\t\t\tescrowId\n      DUP3 \t\t\tEs\n      LT \t\t\tEscrow(escrowId)\n      PUSH [tag] 433\t\t\talidEscrow(escrowId) returns (...\n      JUMPI \t\t\talidEscrow(escrowId) returns (...\n      PUSH 80\t\t\tret\n      DUP3 \t\t\t       ret\n      SWAP1 \t\t\t       ret\n      SHR \t\t\t       ret\n      SWAP2 \t\t\t       ret\n      POP \t\t\t       ret\n      PUSH 40\t\t\tte\n      DUP2 \t\t\t].hasVote\n      SWAP1 \t\t\t].hasVote\n      SHL \t\t\t].hasVote\n      SWAP1 \t\t\t].hasVote\n      POP \t\t\t].hasVote\n    tag 433\t\t\talidEscrow(escrowId) returns (...\n      JUMPDEST \t\t\talidEscrow(escrowId) returns (...\n      PUSH 10000000000000000\t\t\t @dev G\n      DUP3 \t\t\t\\n \n      LT \t\t\t\\n     * @dev Ge\n      PUSH [tag] 434\t\t\t/**\\r\\n     * @dev Get voter's...\n      JUMPI \t\t\t/**\\r\\n     * @dev Get voter's...\n      PUSH 40\t\t\tfi\n      DUP3 \t\t\ta specifi\n      SWAP1 \t\t\ta specifi\n      SHR \t\t\ta specifi\n      SWAP2 \t\t\ta specifi\n      POP \t\t\ta specifi\n      PUSH 20\t\t\tsc\n      DUP2 \t\t\tparam esc\n      SWAP1 \t\t\tparam esc\n      SHL \t\t\tparam esc\n      SWAP1 \t\t\tparam esc\n      POP \t\t\tparam esc\n    tag 434\t\t\t/**\\r\\n     * @dev Get voter's...\n      JUMPDEST \t\t\t/**\\r\\n     * @dev Get voter's...\n      PUSH 100000000\t\t\t @param\n      DUP3 \t\t\t\\n \n      LT \t\t\t\\n     * @param \n      PUSH [tag] 435\t\t\trow\\r\\n     * @param voter Add...\n      JUMPI \t\t\trow\\r\\n     * @param voter Add...\n      PUSH 20\t\t\t  \n      DUP3 \t\t\tck\\r\\n     \n      SWAP1 \t\t\tck\\r\\n     \n      SHR \t\t\tck\\r\\n     \n      SWAP2 \t\t\tck\\r\\n     \n      POP \t\t\tck\\r\\n     \n      PUSH 10\t\t\tCh\n      DUP2 \t\t\tetVoterCh\n      SWAP1 \t\t\tetVoterCh\n      SHL \t\t\tetVoterCh\n      SWAP1 \t\t\tetVoterCh\n      POP \t\t\tetVoterCh\n    tag 435\t\t\trow\\r\\n     * @param voter Add...\n      JUMPDEST \t\t\trow\\r\\n     * @param voter Add...\n      PUSH 10000\t\t\txternal\n      DUP3 \t\t\tot\n      LT \t\t\toter) external \n      PUSH [tag] 436\t\t\tss voter) external view validE...\n      JUMPI \t\t\tss voter) external view validE...\n      PUSH 10\t\t\tre\n      DUP3 \t\t\trowId) re\n      SWAP1 \t\t\trowId) re\n      SHR \t\t\trowId) re\n      SWAP2 \t\t\trowId) re\n      POP \t\t\trowId) re\n      PUSH 8\t\t\te\n      DUP2 \t\t\t      re\n      SWAP1 \t\t\t      re\n      SHL \t\t\t      re\n      SWAP1 \t\t\t      re\n      POP \t\t\t      re\n    tag 436\t\t\tss voter) external view validE...\n      JUMPDEST \t\t\tss voter) external view validE...\n      PUSH 100\t\t\t\"Voter\n      DUP3 \t\t\tot\n      LT \t\t\toter], \"Voter \n      PUSH [tag] 437\t\t\ted[voter], \"Voter has not vote...\n      JUMPI \t\t\ted[voter], \"Voter has not vote...\n      PUSH 8\t\t\te\n      DUP3 \t\t\t      re\n      SWAP1 \t\t\t      re\n      SHR \t\t\t      re\n      SWAP2 \t\t\t      re\n      POP \t\t\t      re\n      PUSH 4\t\t\tC\n      DUP2 \t\t\td].voteC\n      SWAP1 \t\t\td].voteC\n      SHL \t\t\td].voteC\n      SWAP1 \t\t\td].voteC\n      POP \t\t\td].voteC\n    tag 437\t\t\ted[voter], \"Voter has not vote...\n      JUMPDEST \t\t\ted[voter], \"Voter has not vote...\n      PUSH 10\t\t\t   * @\n      DUP3 \t\t\t/*\n      LT \t\t\t/**\\r\\n     * @d\n      PUSH [tag] 438\t\t\t    /**\\r\\n     * @dev Check i...\n      JUMPI \t\t\t    /**\\r\\n     * @dev Check i...\n      PUSH 4\t\t\tn\n      DUP3 \t\t\ts curren\n      SWAP1 \t\t\ts curren\n      SHR \t\t\ts curren\n      SWAP2 \t\t\ts curren\n      POP \t\t\ts curren\n      PUSH 2\t\t\t\\n\n      DUP2 \t\t\tescrow\\r\\n\n      SWAP1 \t\t\tescrow\\r\\n\n      SHL \t\t\tescrow\\r\\n\n      SWAP1 \t\t\tescrow\\r\\n\n      POP \t\t\tescrow\\r\\n\n    tag 438\t\t\t    /**\\r\\n     * @dev Check i...\n      JUMPDEST \t\t\t    /**\\r\\n     * @dev Check i...\n      PUSH 4\t\t\ted esc\n      DUP3 \t\t\t d\n      LT \t\t\t disputed escr\n      PUSH [tag] 439\t\t\t the disputed escrow\\r\\n     *...\n      JUMPI \t\t\t the disputed escrow\\r\\n     *...\n      PUSH 1\t\t\ts\n      DUP2 \t\t\tction is\n      SWAP1 \t\t\tction is\n      SHL \t\t\tction is\n      SWAP1 \t\t\tction is\n      POP \t\t\tction is\n    tag 439\t\t\t the disputed escrow\\r\\n     *...\n      JUMPDEST \t\t\t the disputed escrow\\r\\n     *...\n      PUSH 1\t\t\t \n      DUP2 \t\t\tuo\n      PUSH 3\t\t\tr\n      MUL \t\t\tredQuo\n      SWAP1 \t\t\tiredQuorum() \n      SHR \t\t\tiredQuorum() \n      SWAP1 \t\t\ttRequiredQuorum() \n      POP \t\t\ttRequiredQuorum() \n      PUSH 1\t\t\tl\n      DUP2 \t\t\t  \n      DUP6 \t\t\t \n      DUP2 \t\t\t      \n      PUSH [tag] 440\t\t\t      \n      JUMPI \t\t\t      \n      PUSH [tag] 441\t\t\t      \n      PUSH [tag] 442\t\t\t      \n      JUMP \t\t\t      \n    tag 441\t\t\t      \n      JUMPDEST \t\t\t      \n    tag 440\t\t\t      \n      JUMPDEST \t\t\t      \n      DIV \t\t\t      \n      DUP3 \t\t\t  \n      ADD \t\t\t           \n      SWAP1 \t\t\t            if (bl\n      SHR \t\t\t            if (bl\n      SWAP1 \t\t\t\\n                if (bl\n      POP \t\t\t\\n                if (bl\n      PUSH 1\t\t\t\\n\n      DUP2 \t\t\tun\n      DUP6 \t\t\t \n      DUP2 \t\t\t  coun\n      PUSH [tag] 443\t\t\t  coun\n      JUMPI \t\t\t  coun\n      PUSH [tag] 444\t\t\t  coun\n      PUSH [tag] 442\t\t\t  coun\n      JUMP \t\t\t  coun\n    tag 444\t\t\t  coun\n      JUMPDEST \t\t\t  coun\n    tag 443\t\t\t  coun\n      JUMPDEST \t\t\t  coun\n      DIV \t\t\t  coun\n      DUP3 \t\t\t  \n      ADD \t\t\t       coun\n      SWAP1 \t\t\t        count++;\\r\\n\n      SHR \t\t\t        count++;\\r\\n\n      SWAP1 \t\t\t             count++;\\r\\n\n      POP \t\t\t             count++;\\r\\n\n      PUSH 1\t\t\t\n      DUP2 \t\t\t\n      DUP6 \t\t\t\n      DUP2 \t\t\t\n      PUSH [tag] 445\t\t\t\n      JUMPI \t\t\t\n      PUSH [tag] 446\t\t\t\n      PUSH [tag] 442\t\t\t\n      JUMP \t\t\t\n    tag 446\t\t\t\n      JUMPDEST \t\t\t\n    tag 445\t\t\t\n      JUMPDEST \t\t\t\n      DIV \t\t\t\n      DUP3 \t\t\t\n      ADD \t\t\t\n      SWAP1 \t\t\t\n      SHR \t\t\t\n      SWAP1 \t\t\t\n      POP \t\t\t\n      PUSH 1\t\t\t\n      DUP2 \t\t\t\n      DUP6 \t\t\t\n      DUP2 \t\t\t\n      PUSH [tag] 447\t\t\t\n      JUMPI \t\t\t\n      PUSH [tag] 448\t\t\t\n      PUSH [tag] 442\t\t\t\n      JUMP \t\t\t\n    tag 448\t\t\t\n      JUMPDEST \t\t\t\n    tag 447\t\t\t\n      JUMPDEST \t\t\t\n      DIV \t\t\t\n      DUP3 \t\t\t\n      ADD \t\t\t\n      SWAP1 \t\t\t\n      SHR \t\t\t\n      SWAP1 \t\t\t\n      POP \t\t\t\n      PUSH 1\t\t\t\n      DUP2 \t\t\t\n      DUP6 \t\t\t\n      DUP2 \t\t\t\n      PUSH [tag] 449\t\t\t\n      JUMPI \t\t\t\n      PUSH [tag] 450\t\t\t\n      PUSH [tag] 442\t\t\t\n      JUMP \t\t\t\n    tag 450\t\t\t\n      JUMPDEST \t\t\t\n    tag 449\t\t\t\n      JUMPDEST \t\t\t\n      DIV \t\t\t\n      DUP3 \t\t\t\n      ADD \t\t\t\n      SWAP1 \t\t\t\n      SHR \t\t\t\n      SWAP1 \t\t\t\n      POP \t\t\t\n      PUSH 1\t\t\t\n      DUP2 \t\t\t\n      DUP6 \t\t\t\n      DUP2 \t\t\t\n      PUSH [tag] 451\t\t\t\n      JUMPI \t\t\t\n      PUSH [tag] 452\t\t\t\n      PUSH [tag] 442\t\t\t\n      JUMP \t\t\t\n    tag 452\t\t\t\n      JUMPDEST \t\t\t\n    tag 451\t\t\t\n      JUMPDEST \t\t\t\n      DIV \t\t\t\n      DUP3 \t\t\t\n      ADD \t\t\t\n      SWAP1 \t\t\t\n      SHR \t\t\t\n      SWAP1 \t\t\t\n      POP \t\t\t\n      PUSH [tag] 453\t\t\t\n      DUP2 \t\t\t\n      DUP6 \t\t\t\n      DUP2 \t\t\t\n      PUSH [tag] 454\t\t\t\n      JUMPI \t\t\t\n      PUSH [tag] 455\t\t\t\n      PUSH [tag] 442\t\t\t\n      JUMP \t\t\t\n    tag 455\t\t\t\n      JUMPDEST \t\t\t\n    tag 454\t\t\t\n      JUMPDEST \t\t\t\n      DIV \t\t\t\n      DUP3 \t\t\t\n      GT \t\t\t\n      PUSH [tag] 456\t\t\t\n      JUMP \t\t\t\n    tag 453\t\t\t\n      JUMPDEST \t\t\t\n      DUP2 \t\t\t\n      SUB \t\t\t\n      SWAP3 \t\t\t\n      POP \t\t\t\n      POP \t\t\t\n      POP \t\t\t\n    tag 431\t\t\t  \\r\\n        // Execute the d...\n      JUMPDEST \t\t\t  \\r\\n        // Execute the d...\n      SWAP2 \t\t\t  \\r\\n        // Execute the d...\n      SWAP1 \t\t\t  \\r\\n        // Execute the d...\n      POP \t\t\t  \\r\\n        // Execute the d...\n      JUMP \t\t\t  \\r\\n        // Execute the d...\n    tag 358\t\t\t       // Since we don't track...\n      JUMPDEST \t\t\t       // Since we don't track...\n      PUSH 0\t\t\tmight want to add a counter \n      DUP3 \t\t\tholder - \n      PUSH 0\t\t\ta\n      MSTORE \t\t\t; // Placeholder - a\n      DUP2 \t\t\t@de\n      PUSH 20\t\t\t    \n      PUSH 0\t\t\t*\n      KECCAK256 \t\t\t\\r\\n\\r\\n    /**\\r\\n     \n      ADD \t\t\t   }\\r\\n\\r\\n    /**\\r\\n     * ...\n      SWAP1 \t\t\tn your needs\\r\\n    }\\r\\n\\r\\n ...\n      POP \t\t\tn your needs\\r\\n    }\\r\\n\\r\\n ...\n      SWAP3 \t\t\t       // Since we don't track...\n      SWAP2 \t\t\t       // Since we don't track...\n      POP \t\t\t       // Since we don't track...\n      POP \t\t\t       // Since we don't track...\n      JUMP \t\t\t       // Since we don't track...\n    tag 363\t\t\trage escrow = escrows[gigId];\\...\n      JUMPDEST \t\t\trage escrow = escrows[gigId];\\...\n      PUSH 0\t\t\tNo fund\n    tag 459\t\t\t\");\\r\\n        require(recipie...\n      JUMPDEST \t\t\t\");\\r\\n        require(recipie...\n      DUP2 \t\t\trequ\n      DUP4 \t\t\t   \n      LT \t\t\t      requ\n      ISZERO \t\t\t\");\\r\\n        require(recipie...\n      PUSH [tag] 460\t\t\t\");\\r\\n        require(recipie...\n      JUMPI \t\t\t\");\\r\\n        require(recipie...\n      PUSH 0\t\t\t escrow.cli\n      PUSH [tag] 461\t\t\t || recipient == escrow\n      DUP5 \t\t\t ==\n      DUP5 \t\t\tscro\n      PUSH [tag] 462\t\t\t || recipien\n      JUMP \t\t\t || recipient == escrow\n    tag 461\t\t\t || recipient == escrow\n      JUMPDEST \t\t\t || recipient == escrow\n      SWAP1 \t\t\t escrow.client || recipient ==...\n      POP \t\t\t escrow.client || recipient ==...\n      DUP5 \t\t\t   \n      PUSH FFFFFFFFFFFF\t\t\tlid recipient\");\\r\\n        \\r...\n      AND \t\t\tlid recipient\");\\r\\n        \\r...\n      PUSH [tag] 463\t\t\tlid recipient\");\\r\\n      \n      DUP8 \t\t\t);\\r\\n\n      DUP4 \t\t\t   \n      PUSH [tag] 358\t\t\tlid recipient\n      JUMP \t\t\tlid recipient\");\\r\\n      \n    tag 463\t\t\tlid recipient\");\\r\\n      \n      JUMPDEST \t\t\tlid recipient\");\\r\\n      \n      PUSH 0\t\t\tlid recipient\");\\r\\n        \\r...\n      ADD \t\t\tlid recipient\");\\r\\n        \\r...\n      PUSH 0\t\t\tlid recipient\");\\r\\n        \\r...\n      SWAP1 \t\t\tlid recipient\");\\r\\n        \\r...\n      SLOAD \t\t\tlid recipient\");\\r\\n        \\r...\n      SWAP1 \t\t\tlid recipient\");\\r\\n        \\r...\n      PUSH 100\t\t\tlid recipient\");\\r\\n        \\r...\n      EXP \t\t\tlid recipient\");\\r\\n        \\r...\n      SWAP1 \t\t\tlid recipient\");\\r\\n        \\r...\n      DIV \t\t\tlid recipient\");\\r\\n        \\r...\n      PUSH FFFFFFFFFFFF\t\t\tlid recipient\");\\r\\n        \\r...\n      AND \t\t\tlid recipient\");\\r\\n        \\r...\n      PUSH FFFFFFFFFFFF\t\t\tlid recipient\");\\r\\n        \\r...\n      AND \t\t\tlid recipient\");\\r\\n        \\r...\n      GT \t\t\tlid recipient\");\\r\\n        \\r...\n      ISZERO \t\t\tInvalid recipient\");\\r\\n      ...\n      PUSH [tag] 464\t\t\tInvalid recipient\");\\r\\n      ...\n      JUMPI \t\t\tInvalid recipient\");\\r\\n      ...\n      DUP1 \t\t\tow.\n      SWAP3 \t\t\t = escrow.\n      POP \t\t\t = escrow.\n      PUSH [tag] 465\t\t\tInvalid recipient\");\\r\\n      ...\n      JUMP \t\t\tInvalid recipient\");\\r\\n      ...\n    tag 464\t\t\tInvalid recipient\");\\r\\n      ...\n      JUMPDEST \t\t\tInvalid recipient\");\\r\\n      ...\n      PUSH 1\t\t\t \n      DUP2 \t\t\toun\n      PUSH [tag] 466\t\t\tount * \n      SWAP2 \t\t\tount * \n      SWAP1 \t\t\tount * \n      PUSH [tag] 203\t\t\tount * \n      JUMP \t\t\tount * \n    tag 466\t\t\tount * \n      JUMPDEST \t\t\tount * \n      SWAP4 \t\t\totalAmount * \n      POP \t\t\totalAmount * \n    tag 465\t\t\tInvalid recipient\");\\r\\n      ...\n      JUMPDEST \t\t\tInvalid recipient\");\\r\\n      ...\n      POP \t\t\te(recipient == escrow.client |...\n      PUSH [tag] 459\t\t\t\");\\r\\n        require(recipie...\n      JUMP \t\t\t\");\\r\\n        require(recipie...\n    tag 460\t\t\t\");\\r\\n        require(recipie...\n      JUMPDEST \t\t\t\");\\r\\n        require(recipie...\n      DUP2 \t\t\tleas\n      SWAP1 \t\t\tt256 releas\n      POP \t\t\tt256 releas\n      SWAP5 \t\t\trage escrow = escrows[gigId];\\...\n      SWAP4 \t\t\trage escrow = escrows[gigId];\\...\n      POP \t\t\trage escrow = escrows[gigId];\\...\n      POP \t\t\trage escrow = escrows[gigId];\\...\n      POP \t\t\trage escrow = escrows[gigId];\\...\n      POP \t\t\trage escrow = escrows[gigId];\\...\n      JUMP \t\t\trage escrow = escrows[gigId];\\...\n    tag 378\t\t\tnt256 totalAmount = 0;\\r\\n    ...\n      JUMPDEST \t\t\tnt256 totalAmount = 0;\\r\\n    ...\n      PUSH 0\t\t\t       \n      PUSH [tag] 468\t\t\tmounts[i];\\r\\n      \n      DUP3 \t\t\t\\r\\n     \n      PUSH [tag] 103\t\t\tmounts[i]\n      JUMP \t\t\tmounts[i];\\r\\n      \n    tag 468\t\t\tmounts[i];\\r\\n      \n      JUMPDEST \t\t\tmounts[i];\\r\\n      \n      SWAP1 \t\t\tnt += amounts[i];\\r\\n      \n      POP \t\t\tnt += amounts[i];\\r\\n      \n      SWAP2 \t\t\tnt256 totalAmount = 0;\\r\\n    ...\n      SWAP1 \t\t\tnt256 totalAmount = 0;\\r\\n    ...\n      POP \t\t\tnt256 totalAmount = 0;\\r\\n    ...\n      JUMP \t\t\tnt256 totalAmount = 0;\\r\\n    ...\n    tag 379\t\t\tw = escrows[gigId];\\r\\n       ...\n      JUMPDEST \t\t\tw = escrows[gigId];\\r\\n       ...\n      DUP2 \t\t\tst\n      PUSH FFFFFFFFFFFFFFFFFFFFFFFFFFFFFFFFFFFFFFFF\t\t\t escrow.st\n      AND \t\t\t escrow.st\n      DUP4 \t\t\t esc\n      PUSH FFFFFFFFFFFFFFFFFFFFFFFFFFFFFFFFFFFFFFFF\t\t\t escrow.st\n      AND \t\t\t escrow.st\n      EQ \t\t\t escrow.st\n      ISZERO \t\t\t escrow.st\n      DUP1 \t\t\t escrow.status == Escrow\n      ISZERO \t\t\t escrow.status == Escrow\n      PUSH [tag] 470\t\t\t escrow.status == Escrow\n      JUMPI \t\t\t escrow.status == Escrow\n      POP \t\t\t escrow.status == Escrow\n      PUSH 0\t\t\tw\n      DUP2 \t\t\t == Es\n      GT \t\t\t == Escrow\n    tag 470\t\t\t escrow.status == Escrow\n      JUMPDEST \t\t\t escrow.status == Escrow\n      ISZERO \t\t\tg || escrow.status == EscrowSt...\n      PUSH [tag] 471\t\t\tg || escrow.status == EscrowSt...\n      JUMPI \t\t\tg || escrow.status == EscrowSt...\n      PUSH 0\t\t\tc\n      PUSH FFFFFFFFFFFFFFFFFFFFFFFFFFFFFFFFFFFFFFFF\t\t\t        \"Escrow ca\n      AND \t\t\t        \"Escrow ca\n      DUP4 \t\t\t    \n      PUSH FFFFFFFFFFFFFFFFFFFFFFFFFFFFFFFFFFFFFFFF\t\t\t        \"Escrow ca\n      AND \t\t\t        \"Escrow ca\n      EQ \t\t\t        \"Escrow ca\n      PUSH [tag] 472\t\t\t            \"Escrow cannot be ...\n      JUMPI \t\t\t            \"Escrow cannot be ...\n      PUSH 0\t\t\t      );\\r\\n      \n      PUSH 0\t\t\t\\r\\n        escrow\n      PUSH [tag] 473\t\t\ttus = EscrowStatus.Completed;\\...\n      PUSH 9\t\t\td;\\r\\n        \\r\\n      \n      PUSH 0\t\t\td;\\r\\n        \\r\\n        uint\n      DUP8 \t\t\t uin\n      PUSH FFFFFFFFFFFFFFFFFFFFFFFFFFFFFFFFFFFFFFFF\t\t\td;\\r\\n        \\r\\n        uint\n      AND \t\t\td;\\r\\n        \\r\\n        uint\n      PUSH FFFFFFFFFFFFFFFFFFFFFFFFFFFFFFFFFFFFFFFF\t\t\td;\\r\\n        \\r\\n        uint\n      AND \t\t\td;\\r\\n        \\r\\n        uint\n      DUP2 \t\t\td;\\r\\n        \\r\\n        uint\n      MSTORE \t\t\td;\\r\\n        \\r\\n        uint\n      PUSH 20\t\t\td;\\r\\n        \\r\\n        uint\n      ADD \t\t\td;\\r\\n        \\r\\n        uint\n      SWAP1 \t\t\td;\\r\\n        \\r\\n        uint\n      DUP2 \t\t\td;\\r\\n        \\r\\n        uint\n      MSTORE \t\t\td;\\r\\n        \\r\\n        uint\n      PUSH 20\t\t\td;\\r\\n        \\r\\n        uint\n      ADD \t\t\td;\\r\\n        \\r\\n        uint\n      PUSH 0\t\t\td;\\r\\n        \\r\\n        uint\n      KECCAK256 \t\t\td;\\r\\n        \\r\\n        uint\n      PUSH [tag] 164\t\t\tount;\\r\\n  \n      PUSH [tag] 474\t\t\t0;\\r\\n        \\r\\n        // C\n      DUP7 \t\t\t   // \n      PUSH [tag] 475\t\t\t0;\\r\\n        \\r\\n    \n      JUMP \t\t\t0;\\r\\n        \\r\\n        // C\n    tag 474\t\t\t0;\\r\\n        \\r\\n        // C\n      JUMPDEST \t\t\t0;\\r\\n        \\r\\n        // C\n      PUSH [tag] 476\t\t\ttus =\n      JUMP \t\t\ttus = EscrowStatus.Completed;\\...\n    tag 473\t\t\ttus = EscrowStatus.Completed;\\...\n      JUMPDEST \t\t\ttus = EscrowStatus.Completed;\\...\n      PUSH FFFFFFFFFFFFFFFFFFFFFFFFFFFFFFFFFFFFFFFFFFFFFFFFFFFF\t\t\t       );\\r\\n        \\r\\n     ...\n      AND \t\t\t       );\\r\\n        \\r\\n     ...\n      SWAP2 \t\t\t       );\\r\\n        \\r\\n     ...\n      POP \t\t\t       );\\r\\n        \\r\\n     ...\n      PUSH FFFFFFFFFFFFFFFFFFFFFFFFFFFFFFFFFFFFFFFFFFFFFFFFFFFF\t\t\t       );\\r\\n        \\r\\n     ...\n      AND \t\t\t       );\\r\\n        \\r\\n     ...\n      SWAP2 \t\t\t       );\\r\\n        \\r\\n     ...\n      POP \t\t\t       );\\r\\n        \\r\\n     ...\n      DUP5 \t\t\tmFee\n      PUSH FFFFFFFFFFFFFFFFFFFFFFFFFFFFFFFFFFFFFFFF\t\t\te = (amount * platformFee) / 1...\n      AND \t\t\te = (amount * platformFee) / 1...\n      PUSH DEC2BACDD2F05B59DE34DA9B523DFF8BE42E5E38E818C82FDB0BAE774387A724\t\t\te = (amount * platformFee) / 1...\n      DUP4 \t\t\t/ 10000;\n      DUP4 \t\t\t        \n      PUSH 40\t\t\te = (amount * platformFee) / 1...\n      MLOAD \t\t\te = (amount * platformFee) / 1...\n      PUSH [tag] 477\t\t\te = (amount * platformFee) / 1...\n      SWAP3 \t\t\te = (amount * platformFee) / 1...\n      SWAP2 \t\t\te = (amount * platformFee) / 1...\n      SWAP1 \t\t\te = (amount * platformFee) / 1...\n      PUSH [tag] 478\t\t\te = (amount * platformFee) / 1...\n      JUMP \t\t\te = (amount * platformFee) / 1...\n    tag 477\t\t\te = (amount * platformFee) / 1...\n      JUMPDEST \t\t\te = (amount * platformFee) / 1...\n      PUSH 40\t\t\te = (amount * platformFee) / 1...\n      MLOAD \t\t\te = (amount * platformFee) / 1...\n      DUP1 \t\t\te = (amount * platformFee) / 1...\n      SWAP2 \t\t\te = (amount * platformFee) / 1...\n      SUB \t\t\te = (amount * platformFee) / 1...\n      SWAP1 \t\t\te = (amount * platformFee) / 1...\n      LOG2 \t\t\te = (amount * platformFee) / 1...\n      POP \t\t\tot be released\"\\r\\n        );\\...\n      POP \t\t\tot be released\"\\r\\n        );\\...\n    tag 472\t\t\t            \"Escrow cannot be ...\n      JUMPDEST \t\t\t            \"Escrow cannot be ...\n      PUSH 0\t\t\t \n      PUSH FFFFFFFFFFFFFFFFFFFFFFFFFFFFFFFFFFFFFFFF\t\t\t       \\r\\n       \n      AND \t\t\t       \\r\\n       \n      DUP3 \t\t\t  \n      PUSH FFFFFFFFFFFFFFFFFFFFFFFFFFFFFFFFFFFFFFFF\t\t\t       \\r\\n       \n      AND \t\t\t       \\r\\n       \n      EQ \t\t\t       \\r\\n       \n      PUSH [tag] 479\t\t\t;\\r\\n        \\r\\n        // Tr...\n      JUMPI \t\t\t;\\r\\n        \\r\\n        // Tr...\n      PUSH 0\t\t\tlatform\\r\\n       \n      PUSH 0\t\t\tf (fee > 0 && fe\n      PUSH [tag] 480\t\t\tipient != address(0)) {\\r\\n   ...\n      PUSH 9\t\t\t          (bool feeS\n      PUSH 0\t\t\t          (bool feeSucce\n      DUP7 \t\t\tcc\n      PUSH FFFFFFFFFFFFFFFFFFFFFFFFFFFFFFFFFFFFFFFF\t\t\t          (bool feeSucce\n      AND \t\t\t          (bool feeSucce\n      PUSH FFFFFFFFFFFFFFFFFFFFFFFFFFFFFFFFFFFFFFFF\t\t\t          (bool feeSucce\n      AND \t\t\t          (bool feeSucce\n      DUP2 \t\t\t          (bool feeSucce\n      MSTORE \t\t\t          (bool feeSucce\n      PUSH 20\t\t\t          (bool feeSucce\n      ADD \t\t\t          (bool feeSucce\n      SWAP1 \t\t\t          (bool feeSucce\n      DUP2 \t\t\t          (bool feeSucce\n      MSTORE \t\t\t          (bool feeSucce\n      PUSH 20\t\t\t          (bool feeSucce\n      ADD \t\t\t          (bool feeSucce\n      PUSH 0\t\t\t          (bool feeSucce\n      KECCAK256 \t\t\t          (bool feeSucce\n      PUSH [tag] 163\t\t\tall{\n      PUSH [tag] 481\t\t\t        require(feeSuccess\n      DUP7 \t\t\tSucces\n      PUSH [tag] 475\t\t\t        require(fe\n      JUMP \t\t\t        require(feeSuccess\n    tag 481\t\t\t        require(feeSuccess\n      JUMPDEST \t\t\t        require(feeSuccess\n      PUSH [tag] 476\t\t\tipien\n      JUMP \t\t\tipient != address(0)) {\\r\\n   ...\n    tag 480\t\t\tipient != address(0)) {\\r\\n   ...\n      JUMPDEST \t\t\tipient != address(0)) {\\r\\n   ...\n      PUSH FFFFFFFFFFFFFFFFFFFFFFFFFFFFFFFFFFFFFFFFFFFFFFFFFFFF\t\t\tplatform\\r\\n        if (fee > ...\n      AND \t\t\tplatform\\r\\n        if (fee > ...\n      SWAP2 \t\t\tplatform\\r\\n        if (fee > ...\n      POP \t\t\tplatform\\r\\n        if (fee > ...\n      PUSH FFFFFFFFFFFFFFFFFFFFFFFFFFFFFFFFFFFFFFFFFFFFFFFFFFFF\t\t\tplatform\\r\\n        if (fee > ...\n      AND \t\t\tplatform\\r\\n        if (fee > ...\n      SWAP2 \t\t\tplatform\\r\\n        if (fee > ...\n      POP \t\t\tplatform\\r\\n        if (fee > ...\n      DUP4 \t\t\tns\n      PUSH FFFFFFFFFFFFFFFFFFFFFFFFFFFFFFFFFFFFFFFF\t\t\t     \\r\\n        // Transfer r...\n      AND \t\t\t     \\r\\n        // Transfer r...\n      PUSH DEC2BACDD2F05B59DE34DA9B523DFF8BE42E5E38E818C82FDB0BAE774387A724\t\t\t     \\r\\n        // Transfer r...\n      DUP4 \t\t\tr remain\n      DUP4 \t\t\tg amount\n      PUSH 40\t\t\t     \\r\\n        // Transfer r...\n      MLOAD \t\t\t     \\r\\n        // Transfer r...\n      PUSH [tag] 482\t\t\t     \\r\\n        // Transfer r...\n      SWAP3 \t\t\t     \\r\\n        // Transfer r...\n      SWAP2 \t\t\t     \\r\\n        // Transfer r...\n      SWAP1 \t\t\t     \\r\\n        // Transfer r...\n      PUSH [tag] 478\t\t\t     \\r\\n        // Transfer r...\n      JUMP \t\t\t     \\r\\n        // Transfer r...\n    tag 482\t\t\t     \\r\\n        // Transfer r...\n      JUMPDEST \t\t\t     \\r\\n        // Transfer r...\n      PUSH 40\t\t\t     \\r\\n        // Transfer r...\n      MLOAD \t\t\t     \\r\\n        // Transfer r...\n      DUP1 \t\t\t     \\r\\n        // Transfer r...\n      SWAP2 \t\t\t     \\r\\n        // Transfer r...\n      SUB \t\t\t     \\r\\n        // Transfer r...\n      SWAP1 \t\t\t     \\r\\n        // Transfer r...\n      LOG2 \t\t\t     \\r\\n        // Transfer r...\n      POP \t\t\t/ Transfer fee to platform\\r\\n...\n      POP \t\t\t/ Transfer fee to platform\\r\\n...\n    tag 479\t\t\t;\\r\\n        \\r\\n        // Tr...\n      JUMPDEST \t\t\t;\\r\\n        \\r\\n        // Tr...\n    tag 471\t\t\tg || escrow.status == EscrowSt...\n      JUMPDEST \t\t\tg || escrow.status == EscrowSt...\n      POP \t\t\tw = escrows[gigId];\\r\\n       ...\n      POP \t\t\tw = escrows[gigId];\\r\\n       ...\n      POP \t\t\tw = escrows[gigId];\\r\\n       ...\n      JUMP \t\t\tw = escrows[gigId];\\r\\n       ...\n    tag 383\t\t\tPlatformFee(uint256 newFee) ex...\n      JUMPDEST \t\t\tPlatformFee(uint256 newFee) ex...\n      PUSH 0\t\t\tire(new\n      DUP2 \t\t\tanno\n      PUSH 0\t\t\tannot exceed 10%\"\n      ADD \t\t\tannot exceed 10%\"\n      DUP1 \t\t\tannot exceed 10%\");\\r\\n   \n      SLOAD \t\t\tannot exceed 10%\");\\r\\n   \n      SWAP1 \t\t\tannot exceed 10%\");\\r\\n   \n      POP \t\t\tannot exceed 10%\");\\r\\n   \n      SWAP1 \t\t\t \"Fee cannot exceed 10%\");\\r\\n...\n      POP \t\t\t \"Fee cannot exceed 10%\");\\r\\n...\n      SWAP2 \t\t\tPlatformFee(uint256 newFee) ex...\n      SWAP1 \t\t\tPlatformFee(uint256 newFee) ex...\n      POP \t\t\tPlatformFee(uint256 newFee) ex...\n      JUMP \t\t\tPlatformFee(uint256 newFee) ex...\n    tag 384\t\t\tlse = client\\r\\n    }\\r\\n    \\...\n      JUMPDEST \t\t\tlse = client\\r\\n    }\\r\\n    \\...\n      PUSH 0\t\t\tAOToke\n      PUSH FFFFFFFF\t\t\tGigEscrow public\n      DUP1 \t\t\tn;\\r\\n    GigEscrow public\n      AND \t\t\tn;\\r\\n    GigEscrow public\n      DUP3 \t\t\tn;\\r\\n \n      GT \t\t\tn;\\r\\n    GigEscrow public\n      ISZERO \t\t\tToken;\\r\\n    GigEscrow public...\n      PUSH [tag] 485\t\t\tToken;\\r\\n    GigEscrow public...\n      JUMPI \t\t\tToken;\\r\\n    GigEscrow public...\n      PUSH 20\t\t\tub\n      DUP3 \t\t\tc vot\n      PUSH 40\t\t\t\\n    mapping(uint256 => Vote)...\n      MLOAD \t\t\t\\n    mapping(uint256 => Vote)...\n      PUSH 6DFCC65000000000000000000000000000000000000000000000000000000000\t\t\t\\n    mapping(uint256 => Vote)...\n      DUP2 \t\t\t\\n    mapping(uint256 => Vote)...\n      MSTORE \t\t\t\\n    mapping(uint256 => Vote)...\n      PUSH 4\t\t\t\\n    mapping(uint256 => Vote)...\n      ADD \t\t\t\\n    mapping(uint256 => Vote)...\n      PUSH [tag] 486\t\t\t\\n    mapping(uint256 => Vote)...\n      SWAP3 \t\t\t\\n    mapping(uint256 => Vote)...\n      SWAP2 \t\t\t\\n    mapping(uint256 => Vote)...\n      SWAP1 \t\t\t\\n    mapping(uint256 => Vote)...\n      PUSH [tag] 487\t\t\t\\n    mapping(uint256 => Vote)...\n      JUMP \t\t\t\\n    mapping(uint256 => Vote)...\n    tag 486\t\t\t\\n    mapping(uint256 => Vote)...\n      JUMPDEST \t\t\t\\n    mapping(uint256 => Vote)...\n      PUSH 40\t\t\t\\n    mapping(uint256 => Vote)...\n      MLOAD \t\t\t\\n    mapping(uint256 => Vote)...\n      DUP1 \t\t\t\\n    mapping(uint256 => Vote)...\n      SWAP2 \t\t\t\\n    mapping(uint256 => Vote)...\n      SUB \t\t\t\\n    mapping(uint256 => Vote)...\n      SWAP1 \t\t\t\\n    mapping(uint256 => Vote)...\n      REVERT \t\t\t\\n    mapping(uint256 => Vote)...\n    tag 485\t\t\tToken;\\r\\n    GigEscrow public...\n      JUMPDEST \t\t\tToken;\\r\\n    GigEscrow public...\n      DUP2 \t\t\tublic\n      SWAP1 \t\t\t256 => bool) public \n      POP \t\t\t256 => bool) public \n      SWAP2 \t\t\tlse = client\\r\\n    }\\r\\n    \\...\n      SWAP1 \t\t\tlse = client\\r\\n    }\\r\\n    \\...\n      POP \t\t\tlse = client\\r\\n    }\\r\\n    \\...\n      JUMP \t\t\tlse = client\\r\\n    }\\r\\n    \\...\n    tag 389\t\t\t\\n        }\\r\\n    }\\r\\n    \\r...\n      JUMPDEST \t\t\t\\n        }\\r\\n    }\\r\\n    \\r...\n      PUSH 60\t\t\tnction _updat\n      PUSH FF\t\t\t    modifier onlyMinter() {\\r\\...\n      PUSH 0\t\t\tternal override(E\n      SHL \t\t\tternal override(E\n      DUP4 \t\t\t valu\n      EQ \t\t\taddress to, uint256 value) int...\n      PUSH [tag] 489\t\t\tom, address to, uint256 value)...\n      JUMPI \t\t\tom, address to, uint256 value)...\n      PUSH [tag] 490\t\t\t      super._up\n      DUP4 \t\t\ter._u\n      PUSH [tag] 491\t\t\t      su\n      JUMP \t\t\t      super._up\n    tag 490\t\t\t      super._up\n      JUMPDEST \t\t\t      super._up\n      SWAP1 \t\t\t) {\\r\\n        super._up\n      POP \t\t\t) {\\r\\n        super._up\n      PUSH [tag] 488\t\t\t) {\\r\\n        super._up\n      JUMP \t\t\t) {\\r\\n        super._up\n    tag 489\t\t\tom, address to, uint256 value)...\n      JUMPDEST \t\t\tom, address to, uint256 value)...\n      DUP2 \t\t\t   fu\n      DUP1 \t\t\t    \\r\\n    fu\n      SLOAD \t\t\t    \\r\\n    fu\n      PUSH [tag] 493\t\t\t    \\r\\n    fu\n      SWAP1 \t\t\t    \\r\\n    fu\n      PUSH [tag] 167\t\t\t    \\r\\n    fu\n      JUMP \t\t\t    \\r\\n    fu\n    tag 493\t\t\t    \\r\\n    fu\n      JUMPDEST \t\t\t    \\r\\n    fu\n      DUP1 \t\t\t    \\r\\n    fu\n      PUSH 1F\t\t\t    \\r\\n    fu\n      ADD \t\t\t    \\r\\n    fu\n      PUSH 20\t\t\t    \\r\\n    fu\n      DUP1 \t\t\t    \\r\\n    fu\n      SWAP2 \t\t\t    \\r\\n    fu\n      DIV \t\t\t    \\r\\n    fu\n      MUL \t\t\t    \\r\\n    fu\n      PUSH 20\t\t\t    \\r\\n    fu\n      ADD \t\t\t    \\r\\n    fu\n      PUSH 40\t\t\t    \\r\\n    fu\n      MLOAD \t\t\t    \\r\\n    fu\n      SWAP1 \t\t\t    \\r\\n    fu\n      DUP2 \t\t\t    \\r\\n    fu\n      ADD \t\t\t    \\r\\n    fu\n      PUSH 40\t\t\t    \\r\\n    fu\n      MSTORE \t\t\t    \\r\\n    fu\n      DUP1 \t\t\t    \\r\\n    fu\n      SWAP3 \t\t\t    \\r\\n    fu\n      SWAP2 \t\t\t    \\r\\n    fu\n      SWAP1 \t\t\t    \\r\\n    fu\n      DUP2 \t\t\t    \\r\\n    fu\n      DUP2 \t\t\t    \\r\\n    fu\n      MSTORE \t\t\t    \\r\\n    fu\n      PUSH 20\t\t\t    \\r\\n    fu\n      ADD \t\t\t    \\r\\n    fu\n      DUP3 \t\t\t    \\r\\n    fu\n      DUP1 \t\t\t    \\r\\n    fu\n      SLOAD \t\t\t    \\r\\n    fu\n      PUSH [tag] 494\t\t\t    \\r\\n    fu\n      SWAP1 \t\t\t    \\r\\n    fu\n      PUSH [tag] 167\t\t\t    \\r\\n    fu\n      JUMP \t\t\t    \\r\\n    fu\n    tag 494\t\t\t    \\r\\n    fu\n      JUMPDEST \t\t\t    \\r\\n    fu\n      DUP1 \t\t\t    \\r\\n    fu\n      ISZERO \t\t\t    \\r\\n    fu\n      PUSH [tag] 495\t\t\t    \\r\\n    fu\n      JUMPI \t\t\t    \\r\\n    fu\n      DUP1 \t\t\t    \\r\\n    fu\n      PUSH 1F\t\t\t    \\r\\n    fu\n      LT \t\t\t    \\r\\n    fu\n      PUSH [tag] 496\t\t\t    \\r\\n    fu\n      JUMPI \t\t\t    \\r\\n    fu\n      PUSH 100\t\t\t    \\r\\n    fu\n      DUP1 \t\t\t    \\r\\n    fu\n      DUP4 \t\t\t    \\r\\n    fu\n      SLOAD \t\t\t    \\r\\n    fu\n      DIV \t\t\t    \\r\\n    fu\n      MUL \t\t\t    \\r\\n    fu\n      DUP4 \t\t\t    \\r\\n    fu\n      MSTORE \t\t\t    \\r\\n    fu\n      SWAP2 \t\t\t    \\r\\n    fu\n      PUSH 20\t\t\t    \\r\\n    fu\n      ADD \t\t\t    \\r\\n    fu\n      SWAP2 \t\t\t    \\r\\n    fu\n      PUSH [tag] 495\t\t\t    \\r\\n    fu\n      JUMP \t\t\t    \\r\\n    fu\n    tag 496\t\t\t    \\r\\n    fu\n      JUMPDEST \t\t\t    \\r\\n    fu\n      DUP3 \t\t\t    \\r\\n    fu\n      ADD \t\t\t    \\r\\n    fu\n      SWAP2 \t\t\t    \\r\\n    fu\n      SWAP1 \t\t\t    \\r\\n    fu\n      PUSH 0\t\t\t    \\r\\n    fu\n      MSTORE \t\t\t    \\r\\n    fu\n      PUSH 20\t\t\t    \\r\\n    fu\n      PUSH 0\t\t\t    \\r\\n    fu\n      KECCAK256 \t\t\t    \\r\\n    fu\n      SWAP1 \t\t\t    \\r\\n    fu\n    tag 497\t\t\t    \\r\\n    fu\n      JUMPDEST \t\t\t    \\r\\n    fu\n      DUP2 \t\t\t    \\r\\n    fu\n      SLOAD \t\t\t    \\r\\n    fu\n      DUP2 \t\t\t    \\r\\n    fu\n      MSTORE \t\t\t    \\r\\n    fu\n      SWAP1 \t\t\t    \\r\\n    fu\n      PUSH 1\t\t\t    \\r\\n    fu\n      ADD \t\t\t    \\r\\n    fu\n      SWAP1 \t\t\t    \\r\\n    fu\n      PUSH 20\t\t\t    \\r\\n    fu\n      ADD \t\t\t    \\r\\n    fu\n      DUP1 \t\t\t    \\r\\n    fu\n      DUP4 \t\t\t    \\r\\n    fu\n      GT \t\t\t    \\r\\n    fu\n      PUSH [tag] 497\t\t\t    \\r\\n    fu\n      JUMPI \t\t\t    \\r\\n    fu\n      DUP3 \t\t\t    \\r\\n    fu\n      SWAP1 \t\t\t    \\r\\n    fu\n      SUB \t\t\t    \\r\\n    fu\n      PUSH 1F\t\t\t    \\r\\n    fu\n      AND \t\t\t    \\r\\n    fu\n      DUP3 \t\t\t    \\r\\n    fu\n      ADD \t\t\t    \\r\\n    fu\n      SWAP2 \t\t\t    \\r\\n    fu\n    tag 495\t\t\t    \\r\\n    fu\n      JUMPDEST \t\t\t    \\r\\n    fu\n      POP \t\t\t    \\r\\n    fu\n      POP \t\t\t    \\r\\n    fu\n      POP \t\t\t    \\r\\n    fu\n      POP \t\t\t    \\r\\n    fu\n      POP \t\t\t    \\r\\n    fu\n      SWAP1 \t\t\t    \\r\\n    fu\n      POP \t\t\t    \\r\\n    fu\n    tag 488\t\t\t\\n        }\\r\\n    }\\r\\n    \\r...\n      JUMPDEST \t\t\t\\n        }\\r\\n    }\\r\\n    \\r...\n      SWAP3 \t\t\t\\n        }\\r\\n    }\\r\\n    \\r...\n      SWAP2 \t\t\t\\n        }\\r\\n    }\\r\\n    \\r...\n      POP \t\t\t\\n        }\\r\\n    }\\r\\n    \\r...\n      POP \t\t\t\\n        }\\r\\n    }\\r\\n    \\r...\n      JUMP \t\t\t\\n        }\\r\\n    }\\r\\n    \\r...\n    tag 400\t\t\tract GigEscrow is ReentrancyGu...\n      JUMPDEST \t\t\tract GigEscrow is ReentrancyGu...\n      PUSH 0\t\t\t{\\r\\n    \n      PUSHIMMUTABLE 4345\t\t\t  Pending, \n      PUSH FFFFFFFFFFFFFFFFFFFFFFFFFFFFFFFFFFFFFFFF\t\t\twStatus {\\r\\n        Pending, \n      AND \t\t\twStatus {\\r\\n        Pending, \n      ADDRESS \t\t\t{\\r\\n \n      PUSH FFFFFFFFFFFFFFFFFFFFFFFFFFFFFFFFFFFFFFFF\t\t\twStatus {\\r\\n        Pending, \n      AND \t\t\twStatus {\\r\\n        Pending, \n      EQ \t\t\twStatus {\\r\\n        Pending, \n      DUP1 \t\t\twStatus {\\r\\n        Pending, ...\n      ISZERO \t\t\twStatus {\\r\\n        Pending, ...\n      PUSH [tag] 499\t\t\twStatus {\\r\\n        Pending, ...\n      JUMPI \t\t\twStatus {\\r\\n        Pending, ...\n      POP \t\t\twStatus {\\r\\n        Pending, ...\n      PUSHIMMUTABLE 4343\t\t\t, funds locked\n      CHAINID \t\t\t// Escrow cre\n      EQ \t\t\t// Escrow created, funds locke...\n    tag 499\t\t\twStatus {\\r\\n        Pending, ...\n      JUMPDEST \t\t\twStatus {\\r\\n        Pending, ...\n      ISZERO \t\t\tscrowStatus {\\r\\n        Pendi...\n      PUSH [tag] 500\t\t\tscrowStatus {\\r\\n        Pendi...\n      JUMPI \t\t\tscrowStatus {\\r\\n        Pendi...\n      PUSHIMMUTABLE 4341\t\t\t// Freelancer working,\n      SWAP1 \t\t\t,      // Freelancer working,\n      POP \t\t\t,      // Freelancer working,\n      PUSH [tag] 498\t\t\t,      // Freelancer working,\n      JUMP \t\t\t,      // Freelancer working,\n    tag 500\t\t\tscrowStatus {\\r\\n        Pendi...\n      JUMPDEST \t\t\tscrowStatus {\\r\\n        Pendi...\n      PUSH [tag] 502\t\t\t/ Work approved, funds \n      PUSH [tag] 503\t\t\t/ Work approved, fund\n      JUMP \t\t\t/ Work approved, funds \n    tag 502\t\t\t/ Work approved, funds \n      JUMPDEST \t\t\t/ Work approved, funds \n      SWAP1 \t\t\ted,   // Work approved, funds \n      POP \t\t\ted,   // Work approved, funds \n    tag 498\t\t\tract GigEscrow is ReentrancyGu...\n      JUMPDEST \t\t\tract GigEscrow is ReentrancyGu...\n      SWAP1 \t\t\tract GigEscrow is ReentrancyGu...\n      JUMP \t\t\tract GigEscrow is ReentrancyGu...\n    tag 401\t\t\tscrow creation, work approval,...\n      JUMPDEST \t\t\tscrow creation, work approval,...\n      PUSH 0\t\t\ttrancyGuard, O\n      PUSH 40\t\t\t    \n      MLOAD \t\t\tding,     /\n      PUSH 1901000000000000000000000000000000000000000000000000000000000000\t\t\tocked\\r\\n   \n      DUP2 \t\t\tnds\n      MSTORE \t\t\tted, funds locked\\r\\n    \n      DUP4 \t\t\tng, funds secur\n      PUSH 2\t\t\tr wo\n      DUP3 \t\t\tlan\n      ADD \t\t\tFreelancer wor\n      MSTORE \t\t\t    // Freelancer working, fun...\n      DUP3 \t\t\toved, fund\n      PUSH 22\t\t\trk a\n      DUP3 \t\t\t// \n      ADD \t\t\t,   // Work ap\n      MSTORE \t\t\tmpleted,   // Work approved, f...\n      PUSH 42\t\t\t can\n      DUP2 \t\t\t/ G\n      KECCAK256 \t\t\telled,   // Gig canc\n      SWAP2 \t\t\t      Cancelled,   // Gig canc\n      POP \t\t\t      Cancelled,   // Gig canc\n      POP \t\t\tcrowStatus {\\r\\n        Pendin...\n      SWAP3 \t\t\tscrow creation, work approval,...\n      SWAP2 \t\t\tscrow creation, work approval,...\n      POP \t\t\tscrow creation, work approval,...\n      POP \t\t\tscrow creation, work approval,...\n      JUMP \t\t\tscrow creation, work approval,...\n    tag 404\t\t\tss indexed client,\\r\\n        ...\n      JUMPDEST \t\t\tss indexed client,\\r\\n        ...\n      PUSH 0\t\t\tddress indexed fr\n      PUSH 0\t\t\tlancer,\\r\\n       \n      PUSH 0\t\t\tint256 amount\\r\n      PUSH 7FFFFFFFFFFFFFFFFFFFFFFFFFFFFFFF5D576E7357A4501DDFE92F46681B20A0\t\t\treelancer\\r\\n     * @param gig...\n      DUP5 \t\t\tt\n      PUSH 0\t\t\tress of th\n      SHR \t\t\tress of th\n      GT \t\t\tress of the freelancer\\r\\n    ...\n      ISZERO \t\t\t Address of the freelancer\\r\\n...\n      PUSH [tag] 506\t\t\t Address of the freelancer\\r\\n...\n      JUMPI \t\t\t Address of the freelancer\\r\\n...\n      PUSH 0\t\t\ti\n      PUSH 3\t\t\t56 gigId,\\r\\n        address f...\n      DUP6 \t\t\ta\n      SWAP3 \t\t\tcrow(\\r\\n        uint256 gigId...\n      POP \t\t\tcrow(\\r\\n        uint256 gigId...\n      SWAP3 \t\t\tcrow(\\r\\n        uint256 gigId...\n      POP \t\t\tcrow(\\r\\n        uint256 gigId...\n      SWAP3 \t\t\tcrow(\\r\\n        uint256 gigId...\n      POP \t\t\tcrow(\\r\\n        uint256 gigId...\n      PUSH [tag] 505\t\t\tcrow(\\r\\n        uint256 gigId...\n      JUMP \t\t\tcrow(\\r\\n        uint256 gigId...\n    tag 506\t\t\t Address of the freelancer\\r\\n...\n      JUMPDEST \t\t\t Address of the freelancer\\r\\n...\n      PUSH 0\t\t\tire(freelancer\n      PUSH 1\t\t\t address(0), \"Invalid fr\n      DUP9 \t\t\t), \"\n      DUP9 \t\t\tv\n      DUP9 \t\t\ti\n      DUP9 \t\t\tf\n      PUSH 40\t\t\t address(0), \"Invalid fr\n      MLOAD \t\t\t address(0), \"Invalid fr\n      PUSH 0\t\t\t address(0), \"Invalid fr\n      DUP2 \t\t\t address(0), \"Invalid fr\n      MSTORE \t\t\t address(0), \"Invalid fr\n      PUSH 20\t\t\t address(0), \"Invalid fr\n      ADD \t\t\t address(0), \"Invalid fr\n      PUSH 40\t\t\t address(0), \"Invalid fr\n      MSTORE \t\t\t address(0), \"Invalid fr\n      PUSH 40\t\t\t address(0), \"Invalid fr\n      MLOAD \t\t\t address(0), \"Invalid fr\n      PUSH [tag] 507\t\t\t address(0), \"Invalid fr\n      SWAP5 \t\t\t address(0), \"Invalid fr\n      SWAP4 \t\t\t address(0), \"Invalid fr\n      SWAP3 \t\t\t address(0), \"Invalid fr\n      SWAP2 \t\t\t address(0), \"Invalid fr\n      SWAP1 \t\t\t address(0), \"Invalid fr\n      PUSH [tag] 508\t\t\t address(0), \"Invalid fr\n      JUMP \t\t\t address(0), \"Invalid fr\n    tag 507\t\t\t address(0), \"Invalid fr\n      JUMPDEST \t\t\t address(0), \"Invalid fr\n      PUSH 20\t\t\t address(0), \"Invalid fr\n      PUSH 40\t\t\t address(0), \"Invalid fr\n      MLOAD \t\t\t address(0), \"Invalid fr\n      PUSH 20\t\t\t address(0), \"Invalid fr\n      DUP2 \t\t\t address(0), \"Invalid fr\n      SUB \t\t\t address(0), \"Invalid fr\n      SWAP1 \t\t\t address(0), \"Invalid fr\n      DUP1 \t\t\t address(0), \"Invalid fr\n      DUP5 \t\t\t address(0), \"Invalid fr\n      SUB \t\t\t address(0), \"Invalid fr\n      SWAP1 \t\t\t address(0), \"Invalid fr\n      DUP6 \t\t\t address(0), \"Invalid fr\n      GAS \t\t\t address(0), \"Invalid fr\n      STATICCALL \t\t\t address(0), \"Invalid fr\n      ISZERO \t\t\t address(0), \"Invalid fr\n      DUP1 \t\t\t address(0), \"Invalid fr\n      ISZERO \t\t\t address(0), \"Invalid fr\n      PUSH [tag] 510\t\t\t address(0), \"Invalid fr\n      JUMPI \t\t\t address(0), \"Invalid fr\n      RETURNDATASIZE \t\t\t address(0), \"Invalid fr\n      PUSH 0\t\t\t address(0), \"Invalid fr\n      PUSH 0\t\t\t address(0), \"Invalid fr\n      RETURNDATACOPY \t\t\t address(0), \"Invalid fr\n      RETURNDATASIZE \t\t\t address(0), \"Invalid fr\n      PUSH 0\t\t\t address(0), \"Invalid fr\n      REVERT \t\t\t address(0), \"Invalid fr\n    tag 510\t\t\t address(0), \"Invalid fr\n      JUMPDEST \t\t\t address(0), \"Invalid fr\n      POP \t\t\t address(0), \"Invalid fr\n      POP \t\t\t address(0), \"Invalid fr\n      POP \t\t\t address(0), \"Invalid fr\n      PUSH 20\t\t\t address(0), \"Invalid fr\n      PUSH 40\t\t\t address(0), \"Invalid fr\n      MLOAD \t\t\t address(0), \"Invalid fr\n      SUB \t\t\t address(0), \"Invalid fr\n      MLOAD \t\t\t address(0), \"Invalid fr\n      SWAP1 \t\t\tire(freelancer != address(0), ...\n      POP \t\t\tire(freelancer != address(0), ...\n      PUSH 0\t\t\tu\n      PUSH FFFFFFFFFFFFFFFFFFFFFFFFFFFFFFFFFFFFFFFF\t\t\tss\");\\r\\n        requi\n      AND \t\t\tss\");\\r\\n        requi\n      DUP2 \t\t\tss\");\\r\n      PUSH FFFFFFFFFFFFFFFFFFFFFFFFFFFFFFFFFFFFFFFF\t\t\tss\");\\r\\n        requi\n      AND \t\t\tss\");\\r\\n        requi\n      SUB \t\t\tss\");\\r\\n        requi\n      PUSH [tag] 511\t\t\tddress\");\\r\\n        require(f...\n      JUMPI \t\t\tddress\");\\r\\n        require(f...\n      PUSH 0\t\t\ti\n      PUSH 1\t\t\t and freelancer cannot be the\n      PUSH 0\t\t\t \n      PUSH 0\t\t\tame\");\\r\\n  \n      SHL \t\t\tame\");\\r\\n  \n      SWAP4 \t\t\t msg.sender, \"Client and freel...\n      POP \t\t\t msg.sender, \"Client and freel...\n      SWAP4 \t\t\t msg.sender, \"Client and freel...\n      POP \t\t\t msg.sender, \"Client and freel...\n      SWAP4 \t\t\t msg.sender, \"Client and freel...\n      POP \t\t\t msg.sender, \"Client and freel...\n      POP \t\t\t msg.sender, \"Client and freel...\n      PUSH [tag] 505\t\t\t msg.sender, \"Client and freel...\n      JUMP \t\t\t msg.sender, \"Client and freel...\n    tag 511\t\t\tddress\");\\r\\n        require(f...\n      JUMPDEST \t\t\tddress\");\\r\\n        require(f...\n      DUP1 \t\t\tAmount\n      PUSH 0\t\t\tust be greater than \n      PUSH 0\t\t\t \n      PUSH 0\t\t\t);\\r\\n      \n      SHL \t\t\t);\\r\\n      \n      SWAP4 \t\t\te > 0, \"Amount must be greater...\n      POP \t\t\te > 0, \"Amount must be greater...\n      SWAP4 \t\t\te > 0, \"Amount must be greater...\n      POP \t\t\te > 0, \"Amount must be greater...\n      SWAP4 \t\t\te > 0, \"Amount must be greater...\n      POP \t\t\te > 0, \"Amount must be greater...\n      POP \t\t\te > 0, \"Amount must be greater...\n    tag 505\t\t\tss indexed client,\\r\\n        ...\n      JUMPDEST \t\t\tss indexed client,\\r\\n        ...\n      SWAP5 \t\t\tss indexed client,\\r\\n        ...\n      POP \t\t\tss indexed client,\\r\\n        ...\n      SWAP5 \t\t\tss indexed client,\\r\\n        ...\n      POP \t\t\tss indexed client,\\r\\n        ...\n      SWAP5 \t\t\tss indexed client,\\r\\n        ...\n      SWAP2 \t\t\tss indexed client,\\r\\n        ...\n      POP \t\t\tss indexed client,\\r\\n        ...\n      POP \t\t\tss indexed client,\\r\\n        ...\n      JUMP \t\t\tss indexed client,\\r\\n        ...\n    tag 406\t\t\tgId);\\r\\n        freelancerEsc...\n      JUMPDEST \t\t\tgId);\\r\\n        freelancerEsc...\n      PUSH 0\t\t\t(gigId, msg.sender, \n      PUSH 3\t\t\towCreated(gigId, msg.sender, \n      DUP2 \t\t\towCreated(gigId, msg.sender, \n      GT \t\t\towCreated(gigId, msg.sender, \n      ISZERO \t\t\towCreated(gigId, msg.sender, \n      PUSH [tag] 513\t\t\towCreated(gigId, msg.sender, \n      JUMPI \t\t\towCreated(gigId, msg.sender, \n      PUSH [tag] 514\t\t\towCreated(gigId, msg.sender, \n      PUSH [tag] 515\t\t\towCreated(gigId, msg.sender, \n      JUMP \t\t\towCreated(gigId, msg.sender, \n    tag 514\t\t\towCreated(gigId, msg.sender, \n      JUMPDEST \t\t\towCreated(gigId, msg.sender, \n    tag 513\t\t\towCreated(gigId, msg.sender, \n      JUMPDEST \t\t\towCreated(gigId, msg.sender, \n      DUP3 \t\t\towCre\n      PUSH 3\t\t\towCreated(gigId, msg.sender, \n      DUP2 \t\t\towCreated(gigId, msg.sender, \n      GT \t\t\towCreated(gigId, msg.sender, \n      ISZERO \t\t\towCreated(gigId, msg.sender, \n      PUSH [tag] 516\t\t\towCreated(gigId, msg.sender, \n      JUMPI \t\t\towCreated(gigId, msg.sender, \n      PUSH [tag] 517\t\t\towCreated(gigId, msg.sender, \n      PUSH [tag] 515\t\t\towCreated(gigId, msg.sender, \n      JUMP \t\t\towCreated(gigId, msg.sender, \n    tag 517\t\t\towCreated(gigId, msg.sender, \n      JUMPDEST \t\t\towCreated(gigId, msg.sender, \n    tag 516\t\t\towCreated(gigId, msg.sender, \n      JUMPDEST \t\t\towCreated(gigId, msg.sender, \n      SUB \t\t\towCreated(gigId, msg.sender, \n      ISZERO \t\t\tEscrowCreated(gigId, msg.sende...\n      PUSH [tag] 512\t\t\tvalue, \n      JUMPI \t\t\tEscrowCreated(gigId, msg.sende...\n      PUSH 1\t\t\ter, msg.value);\\r\\n    }\\r\\n  ...\n      PUSH 3\t\t\t msg.sender, msg.value);\\r\\n  ...\n      DUP2 \t\t\t msg.sender, msg.value);\\r\\n  ...\n      GT \t\t\t msg.sender, msg.value);\\r\\n  ...\n      ISZERO \t\t\t msg.sender, msg.value);\\r\\n  ...\n      PUSH [tag] 520\t\t\t msg.sender, msg.value);\\r\\n  ...\n      JUMPI \t\t\t msg.sender, msg.value);\\r\\n  ...\n      PUSH [tag] 521\t\t\t msg.sender, msg.value);\\r\\n  ...\n      PUSH [tag] 515\t\t\t msg.sender, msg.value);\\r\\n  ...\n      JUMP \t\t\t msg.sender, msg.value);\\r\\n  ...\n    tag 521\t\t\t msg.sender, msg.value);\\r\\n  ...\n      JUMPDEST \t\t\t msg.sender, msg.value);\\r\\n  ...\n    tag 520\t\t\t msg.sender, msg.value);\\r\\n  ...\n      JUMPDEST \t\t\t msg.sender, msg.value);\\r\\n  ...\n      DUP3 \t\t\t msg.\n      PUSH 3\t\t\t msg.sender, msg.value);\\r\\n  ...\n      DUP2 \t\t\t msg.sender, msg.value);\\r\\n  ...\n      GT \t\t\t msg.sender, msg.value);\\r\\n  ...\n      ISZERO \t\t\t msg.sender, msg.value);\\r\\n  ...\n      PUSH [tag] 522\t\t\t msg.sender, msg.value);\\r\\n  ...\n      JUMPI \t\t\t msg.sender, msg.value);\\r\\n  ...\n      PUSH [tag] 523\t\t\t msg.sender, msg.value);\\r\\n  ...\n      PUSH [tag] 515\t\t\t msg.sender, msg.value);\\r\\n  ...\n      JUMP \t\t\t msg.sender, msg.value);\\r\\n  ...\n    tag 523\t\t\t msg.sender, msg.value);\\r\\n  ...\n      JUMPDEST \t\t\t msg.sender, msg.value);\\r\\n  ...\n    tag 522\t\t\t msg.sender, msg.value);\\r\\n  ...\n      JUMPDEST \t\t\t msg.sender, msg.value);\\r\\n  ...\n      SUB \t\t\t msg.sender, msg.value);\\r\\n  ...\n      PUSH [tag] 524\t\t\tgId, msg.sender, msg.value);\\r...\n      JUMPI \t\t\tgId, msg.sender, msg.value);\\r...\n      PUSH 40\t\t\telease escrow funds to \n      MLOAD \t\t\telease escrow funds to \n      PUSH F645EEDF00000000000000000000000000000000000000000000000000000000\t\t\telease escrow funds to \n      DUP2 \t\t\telease escrow funds to \n      MSTORE \t\t\telease escrow funds to \n      PUSH 4\t\t\telease escrow funds to \n      ADD \t\t\telease escrow funds to \n      PUSH 40\t\t\telease escrow funds to \n      MLOAD \t\t\telease escrow funds to \n      DUP1 \t\t\telease escrow funds to \n      SWAP2 \t\t\telease escrow funds to \n      SUB \t\t\telease escrow funds to \n      SWAP1 \t\t\telease escrow funds to \n      REVERT \t\t\telease escrow funds to \n    tag 524\t\t\tgId, msg.sender, msg.value);\\r...\n      JUMPDEST \t\t\tgId, msg.sender, msg.value);\\r...\n      PUSH 2\t\t\tlient)\\r\\n     * @param gigId ...\n      PUSH 3\t\t\table by client)\\r\\n     * @par...\n      DUP2 \t\t\table by client)\\r\\n     * @par...\n      GT \t\t\table by client)\\r\\n     * @par...\n      ISZERO \t\t\table by client)\\r\\n     * @par...\n      PUSH [tag] 526\t\t\table by client)\\r\\n     * @par...\n      JUMPI \t\t\table by client)\\r\\n     * @par...\n      PUSH [tag] 527\t\t\table by client)\\r\\n     * @par...\n      PUSH [tag] 515\t\t\table by client)\\r\\n     * @par...\n      JUMP \t\t\table by client)\\r\\n     * @par...\n    tag 527\t\t\table by client)\\r\\n     * @par...\n      JUMPDEST \t\t\table by client)\\r\\n     * @par...\n    tag 526\t\t\table by client)\\r\\n     * @par...\n      JUMPDEST \t\t\table by client)\\r\\n     * @par...\n      DUP3 \t\t\table \n      PUSH 3\t\t\table by client)\\r\\n     * @par...\n      DUP2 \t\t\table by client)\\r\\n     * @par...\n      GT \t\t\table by client)\\r\\n     * @par...\n      ISZERO \t\t\table by client)\\r\\n     * @par...\n      PUSH [tag] 528\t\t\table by client)\\r\\n     * @par...\n      JUMPI \t\t\table by client)\\r\\n     * @par...\n      PUSH [tag] 529\t\t\table by client)\\r\\n     * @par...\n      PUSH [tag] 515\t\t\table by client)\\r\\n     * @par...\n      JUMP \t\t\table by client)\\r\\n     * @par...\n    tag 529\t\t\table by client)\\r\\n     * @par...\n      JUMPDEST \t\t\table by client)\\r\\n     * @par...\n    tag 528\t\t\table by client)\\r\\n     * @par...\n      JUMPDEST \t\t\table by client)\\r\\n     * @par...\n      SUB \t\t\table by client)\\r\\n     * @par...\n      PUSH [tag] 530\t\t\tcallable by client)\\r\\n     * ...\n      JUMPI \t\t\tcallable by client)\\r\\n     * ...\n      DUP1 \t\t\texternal\n      PUSH 0\t\t\t gigId) external \n      SHR \t\t\t gigId) external \n      PUSH 40\t\t\tnction releaseEscrow(uint256 g...\n      MLOAD \t\t\tnction releaseEscrow(uint256 g...\n      PUSH FCE698F700000000000000000000000000000000000000000000000000000000\t\t\tnction releaseEscrow(uint256 g...\n      DUP2 \t\t\tnction releaseEscrow(uint256 g...\n      MSTORE \t\t\tnction releaseEscrow(uint256 g...\n      PUSH 4\t\t\tnction releaseEscrow(uint256 g...\n      ADD \t\t\tnction releaseEscrow(uint256 g...\n      PUSH [tag] 531\t\t\tnction releaseEscrow(uint256 g...\n      SWAP2 \t\t\tnction releaseEscrow(uint256 g...\n      SWAP1 \t\t\tnction releaseEscrow(uint256 g...\n      PUSH [tag] 54\t\t\tnction releaseEscrow(uint256 g...\n      JUMP \t\t\tnction releaseEscrow(uint256 g...\n    tag 531\t\t\tnction releaseEscrow(uint256 g...\n      JUMPDEST \t\t\tnction releaseEscrow(uint256 g...\n      PUSH 40\t\t\tnction releaseEscrow(uint256 g...\n      MLOAD \t\t\tnction releaseEscrow(uint256 g...\n      DUP1 \t\t\tnction releaseEscrow(uint256 g...\n      SWAP2 \t\t\tnction releaseEscrow(uint256 g...\n      SUB \t\t\tnction releaseEscrow(uint256 g...\n      SWAP1 \t\t\tnction releaseEscrow(uint256 g...\n      REVERT \t\t\tnction releaseEscrow(uint256 g...\n    tag 530\t\t\tcallable by client)\\r\\n     * ...\n      JUMPDEST \t\t\tcallable by client)\\r\\n     * ...\n      PUSH 3\t\t\td) nonReentrant {\\r\\n        E...\n      DUP1 \t\t\tient(gigId) nonReentrant {\\r\\n...\n      DUP2 \t\t\tient(gigId) nonReentrant {\\r\\n...\n      GT \t\t\tient(gigId) nonReentrant {\\r\\n...\n      ISZERO \t\t\tient(gigId) nonReentrant {\\r\\n...\n      PUSH [tag] 533\t\t\tient(gigId) nonReentrant {\\r\\n...\n      JUMPI \t\t\tient(gigId) nonReentrant {\\r\\n...\n      PUSH [tag] 534\t\t\tient(gigId) nonReentrant {\\r\\n...\n      PUSH [tag] 515\t\t\tient(gigId) nonReentrant {\\r\\n...\n      JUMP \t\t\tient(gigId) nonReentrant {\\r\\n...\n    tag 534\t\t\tient(gigId) nonReentrant {\\r\\n...\n      JUMPDEST \t\t\tient(gigId) nonReentrant {\\r\\n...\n    tag 533\t\t\tient(gigId) nonReentrant {\\r\\n...\n      JUMPDEST \t\t\tient(gigId) nonReentrant {\\r\\n...\n      DUP3 \t\t\tient(\n      PUSH 3\t\t\tient(gigId) nonReentrant {\\r\\n...\n      DUP2 \t\t\tient(gigId) nonReentrant {\\r\\n...\n      GT \t\t\tient(gigId) nonReentrant {\\r\\n...\n      ISZERO \t\t\tient(gigId) nonReentrant {\\r\\n...\n      PUSH [tag] 535\t\t\tient(gigId) nonReentrant {\\r\\n...\n      JUMPI \t\t\tient(gigId) nonReentrant {\\r\\n...\n      PUSH [tag] 536\t\t\tient(gigId) nonReentrant {\\r\\n...\n      PUSH [tag] 515\t\t\tient(gigId) nonReentrant {\\r\\n...\n      JUMP \t\t\tient(gigId) nonReentrant {\\r\\n...\n    tag 536\t\t\tient(gigId) nonReentrant {\\r\\n...\n      JUMPDEST \t\t\tient(gigId) nonReentrant {\\r\\n...\n    tag 535\t\t\tient(gigId) nonReentrant {\\r\\n...\n      JUMPDEST \t\t\tient(gigId) nonReentrant {\\r\\n...\n      SUB \t\t\tient(gigId) nonReentrant {\\r\\n...\n      PUSH [tag] 537\t\t\tlyClient(gigId) nonReentrant {...\n      JUMPI \t\t\tlyClient(gigId) nonReentrant {...\n      DUP1 \t\t\t    \\r\\n  \n      PUSH 40\t\t\t= escrows[gigId];\\r\\n        \\...\n      MLOAD \t\t\t= escrows[gigId];\\r\\n        \\...\n      PUSH D78BCE0C00000000000000000000000000000000000000000000000000000000\t\t\t= escrows[gigId];\\r\\n        \\...\n      DUP2 \t\t\t= escrows[gigId];\\r\\n        \\...\n      MSTORE \t\t\t= escrows[gigId];\\r\\n        \\...\n      PUSH 4\t\t\t= escrows[gigId];\\r\\n        \\...\n      ADD \t\t\t= escrows[gigId];\\r\\n        \\...\n      PUSH [tag] 538\t\t\t= escrows[gigId];\\r\\n        \\...\n      SWAP2 \t\t\t= escrows[gigId];\\r\\n        \\...\n      SWAP1 \t\t\t= escrows[gigId];\\r\\n        \\...\n      PUSH [tag] 539\t\t\t= escrows[gigId];\\r\\n        \\...\n      JUMP \t\t\t= escrows[gigId];\\r\\n        \\...\n    tag 538\t\t\t= escrows[gigId];\\r\\n        \\...\n      JUMPDEST \t\t\t= escrows[gigId];\\r\\n        \\...\n      PUSH 40\t\t\t= escrows[gigId];\\r\\n        \\...\n      MLOAD \t\t\t= escrows[gigId];\\r\\n        \\...\n      DUP1 \t\t\t= escrows[gigId];\\r\\n        \\...\n      SWAP2 \t\t\t= escrows[gigId];\\r\\n        \\...\n      SUB \t\t\t= escrows[gigId];\\r\\n        \\...\n      SWAP1 \t\t\t= escrows[gigId];\\r\\n        \\...\n      REVERT \t\t\t= escrows[gigId];\\r\\n        \\...\n    tag 537\t\t\tlyClient(gigId) nonReentrant {...\n      JUMPDEST \t\t\tlyClient(gigId) nonReentrant {...\n    tag 512\t\t\tgId);\\r\\n        freelancerEsc...\n      JUMPDEST \t\t\tgId);\\r\\n        freelancerEsc...\n      POP \t\t\tgId);\\r\\n        freelancerEsc...\n      POP \t\t\tgId);\\r\\n        freelancerEsc...\n      JUMP \t\t\tgId);\\r\\n        freelancerEsc...\n    tag 409\t\t\t\\r\\nimport \"@openzeppelin/cont...\n      JUMPDEST \t\t\t\\r\\nimport \"@openzeppelin/cont...\n      PUSH 0\t\t\t \"@open\n      PUSH 7\t\t\t000 * 1\n      PUSH 0\t\t\t000 * 10**18; \n      DUP4 \t\t\t**18;\n      PUSH FFFFFFFFFFFFFFFFFFFFFFFFFFFFFFFFFFFFFFFF\t\t\t000 * 10**18; \n      AND \t\t\t000 * 10**18; \n      PUSH FFFFFFFFFFFFFFFFFFFFFFFFFFFFFFFFFFFFFFFF\t\t\t000 * 10**18; \n      AND \t\t\t000 * 10**18; \n      DUP2 \t\t\t000 * 10**18; \n      MSTORE \t\t\t000 * 10**18; \n      PUSH 20\t\t\t000 * 10**18; \n      ADD \t\t\t000 * 10**18; \n      SWAP1 \t\t\t000 * 10**18; \n      DUP2 \t\t\t000 * 10**18; \n      MSTORE \t\t\t000 * 10**18; \n      PUSH 20\t\t\t000 * 10**18; \n      ADD \t\t\t000 * 10**18; \n      PUSH 0\t\t\t000 * 10**18; \n      KECCAK256 \t\t\t000 * 10**18; \n      PUSH 0\t\t\t000 * 10**18; \n      DUP2 \t\t\t000 * 10**18; //\n      SLOAD \t\t\t000 * 10**18; //\n      DUP1 \t\t\t000 * 10**18; //\n      SWAP3 \t\t\t000 * 10**18; //\n      SWAP2 \t\t\t000 * 10**18; //\n      SWAP1 \t\t\t000 * 10**18; //\n      PUSH 1\t\t\t000 * 10**18; //\n      ADD \t\t\t000 * 10**18; //\n      SWAP2 \t\t\t000 * 10**18; //\n      SWAP1 \t\t\t000 * 10**18; //\n      POP \t\t\t000 * 10**18; //\n      SSTORE \t\t\t000 * 10**18; //\n      SWAP1 \t\t\t = 1000000 * 10**18; //\n      POP \t\t\t = 1000000 * 10**18; //\n      SWAP2 \t\t\t\\r\\nimport \"@openzeppelin/cont...\n      SWAP1 \t\t\t\\r\\nimport \"@openzeppelin/cont...\n      POP \t\t\t\\r\\nimport \"@openzeppelin/cont...\n      JUMP \t\t\t\\r\\nimport \"@openzeppelin/cont...\n    tag 416\t\t\tent (only owner)\\r\\n     * @pa...\n      JUMPDEST \t\t\tent (only owner)\\r\\n     * @pa...\n      PUSH [tag] 541\t\t\t\\r\\n     */\\r\\n    funct\n      PUSH [tag] 304\t\t\t\\r\\n     */\\r\\n    funct\n      JUMP \t\t\t\\r\\n     */\\r\\n    funct\n    tag 541\t\t\t\\r\\n     */\\r\\n    funct\n      JUMPDEST \t\t\t\\r\\n     */\\r\\n    funct\n      DUP3 \t\t\tent(\n      PUSH 0\t\t\tent(address newRe\n      ADD \t\t\tent(address newRe\n      DUP3 \t\t\tipi\n      PUSH FFFFFFFF\t\t\tent(address newRecipie\n      AND \t\t\tent(address newRecipie\n      DUP2 \t\t\tent(address newRecipie\n      SLOAD \t\t\tent(address newRecipie\n      DUP2 \t\t\tent(address newRecipie\n      LT \t\t\tent(address newRecipie\n      PUSH [tag] 543\t\t\tent(address newRecipie\n      JUMPI \t\t\tent(address newRecipie\n      PUSH [tag] 544\t\t\tent(address newRecipie\n      PUSH [tag] 233\t\t\tent(address newRecipie\n      JUMP \t\t\tent(address newRecipie\n    tag 544\t\t\tent(address newRecipie\n      JUMPDEST \t\t\tent(address newRecipie\n    tag 543\t\t\tent(address newRecipie\n      JUMPDEST \t\t\tent(address newRecipie\n      SWAP1 \t\t\tent(address newRecipie\n      PUSH 0\t\t\tent(address newRecipie\n      MSTORE \t\t\tent(address newRecipie\n      PUSH 20\t\t\tent(address newRecipie\n      PUSH 0\t\t\tent(address newRecipie\n      KECCAK256 \t\t\tent(address newRecipie\n      ADD \t\t\tent(address newRecipie\n      PUSH 40\t\t\teRecipient(address newRecipie\n      MLOAD \t\t\teRecipient(address newRecipie\n      DUP1 \t\t\teRecipient(address newRecipie\n      PUSH 40\t\t\teRecipient(address newRecipie\n      ADD \t\t\teRecipient(address newRecipie\n      PUSH 40\t\t\teRecipient(address newRecipie\n      MSTORE \t\t\teRecipient(address newRecipie\n      SWAP1 \t\t\teRecipient(address newRecipie\n      DUP2 \t\t\teRecipient(address newRecipie\n      PUSH 0\t\t\teRecipient(address newRecipie\n      DUP3 \t\t\teRecipient(address newRecipie\n      ADD \t\t\teRecipient(address newRecipie\n      PUSH 0\t\t\teRecipient(address newRecipie\n      SWAP1 \t\t\teRecipient(address newRecipie\n      SLOAD \t\t\teRecipient(address newRecipie\n      SWAP1 \t\t\teRecipient(address newRecipie\n      PUSH 100\t\t\teRecipient(address newRecipie\n      EXP \t\t\teRecipient(address newRecipie\n      SWAP1 \t\t\teRecipient(address newRecipie\n      DIV \t\t\teRecipient(address newRecipie\n      PUSH FFFFFFFFFFFF\t\t\teRecipient(address newRecipie\n      AND \t\t\teRecipient(address newRecipie\n      PUSH FFFFFFFFFFFF\t\t\teRecipient(address newRecipie\n      AND \t\t\teRecipient(address newRecipie\n      PUSH FFFFFFFFFFFF\t\t\teRecipient(address newRecipie\n      AND \t\t\teRecipient(address newRecipie\n      DUP2 \t\t\teRecipient(address newRecipie\n      MSTORE \t\t\teRecipient(address newRecipie\n      PUSH 20\t\t\teRecipient(address newRecipie\n      ADD \t\t\teRecipient(address newRecipie\n      PUSH 0\t\t\teRecipient(address newRecipie\n      DUP3 \t\t\teRecipient(address newRecipie\n      ADD \t\t\teRecipient(address newRecipie\n      PUSH 6\t\t\teRecipient(address newRecipie\n      SWAP1 \t\t\teRecipient(address newRecipie\n      SLOAD \t\t\teRecipient(address newRecipie\n      SWAP1 \t\t\teRecipient(address newRecipie\n      PUSH 100\t\t\teRecipient(address newRecipie\n      EXP \t\t\teRecipient(address newRecipie\n      SWAP1 \t\t\teRecipient(address newRecipie\n      DIV \t\t\teRecipient(address newRecipie\n      PUSH FFFFFFFFFFFFFFFFFFFFFFFFFFFFFFFFFFFFFFFFFFFFFFFFFFFF\t\t\teRecipient(address newRecipie\n      AND \t\t\teRecipient(address newRecipie\n      PUSH FFFFFFFFFFFFFFFFFFFFFFFFFFFFFFFFFFFFFFFFFFFFFFFFFFFF\t\t\teRecipient(address newRecipie\n      AND \t\t\teRecipient(address newRecipie\n      PUSH FFFFFFFFFFFFFFFFFFFFFFFFFFFFFFFFFFFFFFFFFFFFFFFFFFFF\t\t\teRecipient(address newRecipie\n      AND \t\t\teRecipient(address newRecipie\n      DUP2 \t\t\teRecipient(address newRecipie\n      MSTORE \t\t\teRecipient(address newRecipie\n      POP \t\t\teRecipient(address newRecipie\n      POP \t\t\teRecipient(address newRecipie\n      SWAP1 \t\t\teRecipient(address newRecipie\n      POP \t\t\teRecipient(address newRecipie\n      SWAP3 \t\t\tent (only owner)\\r\\n     * @pa...\n      SWAP2 \t\t\tent (only owner)\\r\\n     * @pa...\n      POP \t\t\tent (only owner)\\r\\n     * @pa...\n      POP \t\t\tent (only owner)\\r\\n     * @pa...\n      JUMP \t\t\tent (only owner)\\r\\n     * @pa...\n    tag 426\t\t\ter);\\r\\n    }\\r\\n    \\r\\n    /...\n      JUMPDEST \t\t\ter);\\r\\n    }\\r\\n    \\r\\n    /...\n      PUSH [tag] 547\t\t\te as minter\\r\\n     */\\r\\n    ...\n      DUP4 \t\t\t    \n      DUP4 \t\t\t\\r\\n\n      DUP4 \t\t\t  fun\n      PUSH [tag] 548\t\t\te as minter\\r\\n\n      JUMP \t\t\te as minter\\r\\n     */\\r\\n    ...\n    tag 547\t\t\te as minter\\r\\n     */\\r\\n    ...\n      JUMPDEST \t\t\te as minter\\r\\n     */\\r\\n    ...\n      PUSH 0\t\t\te\n      PUSH FFFFFFFFFFFFFFFFFFFFFFFFFFFFFFFFFFFFFFFF\t\t\tter(address minter\n      AND \t\t\tter(address minter\n      DUP4 \t\t\tter(\n      PUSH FFFFFFFFFFFFFFFFFFFFFFFFFFFFFFFFFFFFFFFF\t\t\tter(address minter\n      AND \t\t\tter(address minter\n      SUB \t\t\tter(address minter\n      PUSH [tag] 549\t\t\teMinter(address minter) extern...\n      JUMPI \t\t\teMinter(address minter) extern...\n      PUSH 0\t\t\twner {\\r\\n      \n      PUSH [tag] 550\t\t\tinters[minter\n      PUSH [tag] 52\t\t\tinters[mint\n      JUMP \t\t\tinters[minter\n    tag 550\t\t\tinters[minter\n      JUMPDEST \t\t\tinters[minter\n      SWAP1 \t\t\twner {\\r\\n        minters[mint...\n      POP \t\t\twner {\\r\\n        minters[mint...\n      PUSH 0\t\t\t      emit \n      PUSH [tag] 551\t\t\tterRemoved(m\n      PUSH [tag] 552\t\t\tterRemoved\n      JUMP \t\t\tterRemoved(m\n    tag 551\t\t\tterRemoved(m\n      JUMPDEST \t\t\tterRemoved(m\n      SWAP1 \t\t\t      emit MinterRemoved(m\n      POP \t\t\t      emit MinterRemoved(m\n      DUP1 \t\t\t**\\r\n      DUP3 \t\t\t  \\r\\n  \n      GT \t\t\t  \\r\\n    /**\\r\n      ISZERO \t\t\t\\r\\n    \\r\\n    /**\\r\\n     * ...\n      PUSH [tag] 553\t\t\t\\r\\n    \\r\\n    /**\\r\\n     * ...\n      JUMPI \t\t\t\\r\\n    \\r\\n    /**\\r\\n     * ...\n      DUP2 \t\t\ts (for\n      DUP2 \t\t\test\n      PUSH 40\t\t\tens to multiple addresses (for...\n      MLOAD \t\t\tens to multiple addresses (for...\n      PUSH 1CB15D2600000000000000000000000000000000000000000000000000000000\t\t\tens to multiple addresses (for...\n      DUP2 \t\t\tens to multiple addresses (for...\n      MSTORE \t\t\tens to multiple addresses (for...\n      PUSH 4\t\t\tens to multiple addresses (for...\n      ADD \t\t\tens to multiple addresses (for...\n      PUSH [tag] 554\t\t\tens to multiple addresses (for...\n      SWAP3 \t\t\tens to multiple addresses (for...\n      SWAP2 \t\t\tens to multiple addresses (for...\n      SWAP1 \t\t\tens to multiple addresses (for...\n      PUSH [tag] 478\t\t\tens to multiple addresses (for...\n      JUMP \t\t\tens to multiple addresses (for...\n    tag 554\t\t\tens to multiple addresses (for...\n      JUMPDEST \t\t\tens to multiple addresses (for...\n      PUSH 40\t\t\tens to multiple addresses (for...\n      MLOAD \t\t\tens to multiple addresses (for...\n      DUP1 \t\t\tens to multiple addresses (for...\n      SWAP2 \t\t\tens to multiple addresses (for...\n      SUB \t\t\tens to multiple addresses (for...\n      SWAP1 \t\t\tens to multiple addresses (for...\n      REVERT \t\t\tens to multiple addresses (for...\n    tag 553\t\t\t\\r\\n    \\r\\n    /**\\r\\n     * ...\n      JUMPDEST \t\t\t\\r\\n    \\r\\n    /**\\r\\n     * ...\n      POP \t\t\texternal onlyOwner {\\r\\n      ...\n      POP \t\t\texternal onlyOwner {\\r\\n      ...\n    tag 549\t\t\teMinter(address minter) extern...\n      JUMPDEST \t\t\teMinter(address minter) extern...\n      PUSH [tag] 555\t\t\tents Array of recipient addres...\n      DUP4 \t\t\tnt a\n      DUP4 \t\t\tre\n      DUP4 \t\t\tes\\r\\n \n      PUSH [tag] 556\t\t\tents Array of recipi\n      JUMP \t\t\tents Array of recipient addres...\n    tag 555\t\t\tents Array of recipient addres...\n      JUMPDEST \t\t\tents Array of recipient addres...\n      POP \t\t\ter);\\r\\n    }\\r\\n    \\r\\n    /...\n      POP \t\t\ter);\\r\\n    }\\r\\n    \\r\\n    /...\n      POP \t\t\ter);\\r\\n    }\\r\\n    \\r\\n    /...\n      JUMP \t\t\ter);\\r\\n    }\\r\\n    \\r\\n    /...\n    tag 456\t\t\t\n      JUMPDEST \t\t\t\n      PUSH 0\t\t\t\n      DUP2 \t\t\t\n      ISZERO \t\t\t\n      ISZERO \t\t\t\n      SWAP1 \t\t\t\n      POP \t\t\t\n      SWAP2 \t\t\t\n      SWAP1 \t\t\t\n      POP \t\t\t\n      JUMP \t\t\t\n    tag 462\t\t\t onlyFreelancer(uint256 gigId)...\n      JUMPDEST \t\t\t onlyFreelancer(uint256 gigId)...\n      PUSH 0\t\t\t= escro\n      PUSH 2\t\t\t \n      DUP3 \t\t\t \n      DUP5 \t\t\t\\r\n      XOR \t\t\t\\r\\n   \n      PUSH [tag] 559\t\t\t;\\r\\n    }\\r\\n \n      SWAP2 \t\t\t;\\r\\n    }\\r\\n \n      SWAP1 \t\t\t;\\r\\n    }\\r\\n \n      PUSH [tag] 560\t\t\t;\\r\\n    }\\r\\n \n      JUMP \t\t\t;\\r\\n    }\\r\\n \n    tag 559\t\t\t;\\r\\n    }\\r\\n \n      JUMPDEST \t\t\t;\\r\\n    }\\r\\n \n      DUP3 \t\t\t \n      DUP5 \t\t\t \n      AND \t\t\t     \n      PUSH [tag] 561\t\t\t\\n        _;\\r\\n    }\\r\\n \n      SWAP2 \t\t\t\\n        _;\\r\\n    }\\r\\n \n      SWAP1 \t\t\t\\n        _;\\r\\n    }\\r\\n \n      PUSH [tag] 203\t\t\t\\n        _;\\r\\n    }\\r\\n \n      JUMP \t\t\t\\n        _;\\r\\n    }\\r\\n \n    tag 561\t\t\t\\n        _;\\r\\n    }\\r\\n \n      JUMPDEST \t\t\t\\n        _;\\r\\n    }\\r\\n \n      SWAP1 \t\t\this\");\\r\\n        _;\\r\\n    }\\...\n      POP \t\t\this\");\\r\\n        _;\\r\\n    }\\...\n      SWAP3 \t\t\t onlyFreelancer(uint256 gigId)...\n      SWAP2 \t\t\t onlyFreelancer(uint256 gigId)...\n      POP \t\t\t onlyFreelancer(uint256 gigId)...\n      POP \t\t\t onlyFreelancer(uint256 gigId)...\n      JUMP \t\t\t onlyFreelancer(uint256 gigId)...\n    tag 475\t\t\tapproved, funds released\\r\\n  ...\n      JUMPDEST \t\t\tapproved, funds released\\r\\n  ...\n      PUSH 0\t\t\tcelled,\n      PUSH FFFFFFFFFFFFFFFFFFFFFFFFFFFFFFFFFFFFFFFFFFFFFFFFFFFF\t\t\t Disputed     // \n      DUP1 \t\t\t\\n        Disputed     // \n      AND \t\t\t\\n        Disputed     // \n      DUP3 \t\t\t\\n    \n      GT \t\t\t\\n        Disputed     // \n      ISZERO \t\t\tded\\r\\n        Disputed     //...\n      PUSH [tag] 563\t\t\tded\\r\\n        Disputed     //...\n      JUMPI \t\t\tded\\r\\n        Disputed     //...\n      PUSH D0\t\t\tstr\n      DUP3 \t\t\tt Esc\n      PUSH 40\t\t\ts DAO voting\\r\\n    }\\r\\n    \\...\n      MLOAD \t\t\ts DAO voting\\r\\n    }\\r\\n    \\...\n      PUSH 6DFCC65000000000000000000000000000000000000000000000000000000000\t\t\ts DAO voting\\r\\n    }\\r\\n    \\...\n      DUP2 \t\t\ts DAO voting\\r\\n    }\\r\\n    \\...\n      MSTORE \t\t\ts DAO voting\\r\\n    }\\r\\n    \\...\n      PUSH 4\t\t\ts DAO voting\\r\\n    }\\r\\n    \\...\n      ADD \t\t\ts DAO voting\\r\\n    }\\r\\n    \\...\n      PUSH [tag] 564\t\t\ts DAO voting\\r\\n    }\\r\\n    \\...\n      SWAP3 \t\t\ts DAO voting\\r\\n    }\\r\\n    \\...\n      SWAP2 \t\t\ts DAO voting\\r\\n    }\\r\\n    \\...\n      SWAP1 \t\t\ts DAO voting\\r\\n    }\\r\\n    \\...\n      PUSH [tag] 565\t\t\ts DAO voting\\r\\n    }\\r\\n    \\...\n      JUMP \t\t\ts DAO voting\\r\\n    }\\r\\n    \\...\n    tag 564\t\t\ts DAO voting\\r\\n    }\\r\\n    \\...\n      JUMPDEST \t\t\ts DAO voting\\r\\n    }\\r\\n    \\...\n      PUSH 40\t\t\ts DAO voting\\r\\n    }\\r\\n    \\...\n      MLOAD \t\t\ts DAO voting\\r\\n    }\\r\\n    \\...\n      DUP1 \t\t\ts DAO voting\\r\\n    }\\r\\n    \\...\n      SWAP2 \t\t\ts DAO voting\\r\\n    }\\r\\n    \\...\n      SUB \t\t\ts DAO voting\\r\\n    }\\r\\n    \\...\n      SWAP1 \t\t\ts DAO voting\\r\\n    }\\r\\n    \\...\n      REVERT \t\t\ts DAO voting\\r\\n    }\\r\\n    \\...\n    tag 563\t\t\tded\\r\\n        Disputed     //...\n      JUMPDEST \t\t\tded\\r\\n        Disputed     //...\n      DUP2 \t\t\t     \n      SWAP1 \t\t\tnt256 gigId;\\r\\n       \n      POP \t\t\tnt256 gigId;\\r\\n       \n      SWAP2 \t\t\tapproved, funds released\\r\\n  ...\n      SWAP1 \t\t\tapproved, funds released\\r\\n  ...\n      POP \t\t\tapproved, funds released\\r\\n  ...\n      JUMP \t\t\tapproved, funds released\\r\\n  ...\n    tag 476\t\t\ttatus == EscrowStatus.Pending ...\n      JUMPDEST \t\t\ttatus == EscrowStatus.Pending ...\n      PUSH 0\t\t\tatus.Cancelled;\\r\n      PUSH 0\t\t\t       \\r\\n       \n      PUSH [tag] 567\t\t\tscrow.amount;\\r\\n        escro...\n      PUSH [tag] 568\t\t\tt;\\r\\n   \n      PUSH [tag] 124\t\t\tt;\\r\\n \n      JUMP \t\t\tt;\\r\\n   \n    tag 568\t\t\tt;\\r\\n   \n      JUMPDEST \t\t\tt;\\r\\n   \n      PUSH [tag] 569\t\t\t   escrow.amount = 0;\\r\\n  \n      PUSH [tag] 570\t\t\tescrow.amount \n      DUP9 \t\t\tescro\n      PUSH [tag] 286\t\t\tescrow.amoun\n      JUMP \t\t\tescrow.amount \n    tag 570\t\t\tescrow.amount \n      JUMPDEST \t\t\tescrow.amount \n      DUP7 \t\t\t0;\\r\\n \n      DUP9 \t\t\t  \n      PUSH FFFFFFFF\t\t\t   escrow.amount = 0;\\r\\n  \n      AND \t\t\t   escrow.amount = 0;\\r\\n  \n      JUMP \t\t\t   escrow.amount = 0;\\r\\n  \n    tag 569\t\t\t   escrow.amount = 0;\\r\\n  \n      JUMPDEST \t\t\t   escrow.amount = 0;\\r\\n  \n      DUP8 \t\t\tscrow\n      PUSH [tag] 571\t\t\tscrow.amou\n      SWAP1 \t\t\tscrow.amou\n      SWAP3 \t\t\tscrow.amount;\\r\\n        escro...\n      SWAP2 \t\t\tscrow.amount;\\r\\n        escro...\n      SWAP1 \t\t\tscrow.amount;\\r\\n        escro...\n      PUSH FFFFFFFF\t\t\tscrow.amount;\\r\\n        escro...\n      AND \t\t\tscrow.amount;\\r\\n        escro...\n      JUMP \t\t\tscrow.amount;\\r\\n        escro...\n    tag 567\t\t\tscrow.amount;\\r\\n        escro...\n      JUMPDEST \t\t\tscrow.amount;\\r\\n        escro...\n      SWAP2 \t\t\tunt = escrow.amount;\\r\\n      ...\n      POP \t\t\tunt = escrow.amount;\\r\\n      ...\n      SWAP2 \t\t\tunt = escrow.amount;\\r\\n      ...\n      POP \t\t\tunt = escrow.amount;\\r\\n      ...\n      SWAP4 \t\t\ttatus == EscrowStatus.Pending ...\n      POP \t\t\ttatus == EscrowStatus.Pending ...\n      SWAP4 \t\t\ttatus == EscrowStatus.Pending ...\n      SWAP2 \t\t\ttatus == EscrowStatus.Pending ...\n      POP \t\t\ttatus == EscrowStatus.Pending ...\n      POP \t\t\ttatus == EscrowStatus.Pending ...\n      JUMP \t\t\ttatus == EscrowStatus.Pending ...\n    tag 491\t\t\teds max supply\");\\r\\n        _...\n      JUMPDEST \t\t\teds max supply\");\\r\\n        _...\n      PUSH 60\t\t\t\\n    /**\\r\\n   \n      PUSH 0\t\t\t a new mint\n      PUSH [tag] 573\t\t\t\\n     * @param m\n      DUP4 \t\t\tram \n      PUSH [tag] 574\t\t\t\\n     * @p\n      JUMP \t\t\t\\n     * @param m\n    tag 573\t\t\t\\n     * @param m\n      JUMPDEST \t\t\t\\n     * @param m\n      SWAP1 \t\t\t a new minter\\r\\n     * @param...\n      POP \t\t\t a new minter\\r\\n     * @param...\n      PUSH 0\t\t\t onlyOwner {\\r\\n   \n      PUSH 20\t\t\tin\n      PUSH FFFFFFFFFFFFFFFF\t\t\t  minters[mint\n      DUP2 \t\t\t  minters[mint\n      GT \t\t\t  minters[mint\n      ISZERO \t\t\t  minters[mint\n      PUSH [tag] 575\t\t\t  minters[mint\n      JUMPI \t\t\t  minters[mint\n      PUSH [tag] 576\t\t\t  minters[mint\n      PUSH [tag] 267\t\t\t  minters[mint\n      JUMP \t\t\t  minters[mint\n    tag 576\t\t\t  minters[mint\n      JUMPDEST \t\t\t  minters[mint\n    tag 575\t\t\t  minters[mint\n      JUMPDEST \t\t\t  minters[mint\n      PUSH 40\t\t\t  minters[mint\n      MLOAD \t\t\t  minters[mint\n      SWAP1 \t\t\t  minters[mint\n      DUP1 \t\t\t  minters[mint\n      DUP3 \t\t\t  minters[mint\n      MSTORE \t\t\t  minters[mint\n      DUP1 \t\t\t  minters[mint\n      PUSH 1F\t\t\t  minters[mint\n      ADD \t\t\t  minters[mint\n      PUSH 1F\t\t\t  minters[mint\n      NOT \t\t\t  minters[mint\n      AND \t\t\t  minters[mint\n      PUSH 20\t\t\t  minters[mint\n      ADD \t\t\t  minters[mint\n      DUP3 \t\t\t  minters[mint\n      ADD \t\t\t  minters[mint\n      PUSH 40\t\t\t  minters[mint\n      MSTORE \t\t\t  minters[mint\n      DUP1 \t\t\t  minters[mint\n      ISZERO \t\t\t  minters[mint\n      PUSH [tag] 577\t\t\t  minters[mint\n      JUMPI \t\t\t  minters[mint\n      DUP2 \t\t\t  minters[mint\n      PUSH 20\t\t\t  minters[mint\n      ADD \t\t\t  minters[mint\n      PUSH 1\t\t\t  minters[mint\n      DUP3 \t\t\t  minters[mint\n      MUL \t\t\t  minters[mint\n      DUP1 \t\t\t  minters[mint\n      CALLDATASIZE \t\t\t  minters[mint\n      DUP4 \t\t\t  minters[mint\n      CALLDATACOPY \t\t\t  minters[mint\n      DUP1 \t\t\t  minters[mint\n      DUP3 \t\t\t  minters[mint\n      ADD \t\t\t  minters[mint\n      SWAP2 \t\t\t  minters[mint\n      POP \t\t\t  minters[mint\n      POP \t\t\t  minters[mint\n      SWAP1 \t\t\t  minters[mint\n      POP \t\t\t  minters[mint\n    tag 577\t\t\t  minters[mint\n      JUMPDEST \t\t\t  minters[mint\n      POP \t\t\t  minters[mint\n      SWAP1 \t\t\t onlyOwner {\\r\\n        minter...\n      POP \t\t\t onlyOwner {\\r\\n        minter...\n      DUP2 \t\t\t   \n      DUP2 \t\t\t   \n      MSTORE \t\t\t   }\\r\\n    \\r\\n    \n      DUP4 \t\t\t   *\n      PUSH 20\t\t\tter\\r\n      DUP3 \t\t\ta m\n      ADD \t\t\tove a minter\\r\\n\n      MSTORE \t\t\tdev Remove a minter\\r\\n     * \n      DUP1 \t\t\temo\n      SWAP3 \t\t\tss to remo\n      POP \t\t\tss to remo\n      POP \t\t\tss to remo\n      POP \t\t\tss to remo\n      SWAP2 \t\t\teds max supply\");\\r\\n        _...\n      SWAP1 \t\t\teds max supply\");\\r\\n        _...\n      POP \t\t\teds max supply\");\\r\\n        _...\n      JUMP \t\t\teds max supply\");\\r\\n        _...\n    tag 503\t\t\tlled,   // Gig cancelled, fund...\n      JUMPDEST \t\t\tlled,   // Gig cancelled, fund...\n      PUSH 0\t\t\tted    \n      PUSH 8B73C3C69BB8FE3D512ECC4CF759CC79239F7B179B0FFACAA9A75D522B39400F\t\t\tds max supply\");\\r\\n        _m...\n      PUSHIMMUTABLE 4347\t\t\t \\r\\n    stru\n      PUSHIMMUTABLE 4349\t\t\t EscrowData {\\r\n      CHAINID \t\t\t       uint25\n      ADDRESS \t\t\t    \n      PUSH 40\t\t\tDAO voting\\r\\n    }\\r\\n    \\r\\...\n      MLOAD \t\t\tDAO voting\\r\\n    }\\r\\n    \\r\\...\n      PUSH 20\t\t\tDAO voting\\r\\n    }\\r\\n    \\r\\...\n      ADD \t\t\tDAO voting\\r\\n    }\\r\\n    \\r\\...\n      PUSH [tag] 579\t\t\tDAO voting\\r\\n    }\\r\\n    \\r\\...\n      SWAP6 \t\t\tDAO voting\\r\\n    }\\r\\n    \\r\\...\n      SWAP5 \t\t\tDAO voting\\r\\n    }\\r\\n    \\r\\...\n      SWAP4 \t\t\tDAO voting\\r\\n    }\\r\\n    \\r\\...\n      SWAP3 \t\t\tDAO voting\\r\\n    }\\r\\n    \\r\\...\n      SWAP2 \t\t\tDAO voting\\r\\n    }\\r\\n    \\r\\...\n      SWAP1 \t\t\tDAO voting\\r\\n    }\\r\\n    \\r\\...\n      PUSH [tag] 580\t\t\tDAO voting\\r\\n    }\\r\\n    \\r\\...\n      JUMP \t\t\tDAO voting\\r\\n    }\\r\\n    \\r\\...\n    tag 579\t\t\tDAO voting\\r\\n    }\\r\\n    \\r\\...\n      JUMPDEST \t\t\tDAO voting\\r\\n    }\\r\\n    \\r\\...\n      PUSH 40\t\t\tDAO voting\\r\\n    }\\r\\n    \\r\\...\n      MLOAD \t\t\tDAO voting\\r\\n    }\\r\\n    \\r\\...\n      PUSH 20\t\t\tDAO voting\\r\\n    }\\r\\n    \\r\\...\n      DUP2 \t\t\tDAO voting\\r\\n    }\\r\\n    \\r\\...\n      DUP4 \t\t\tDAO voting\\r\\n    }\\r\\n    \\r\\...\n      SUB \t\t\tDAO voting\\r\\n    }\\r\\n    \\r\\...\n      SUB \t\t\tDAO voting\\r\\n    }\\r\\n    \\r\\...\n      DUP2 \t\t\tDAO voting\\r\\n    }\\r\\n    \\r\\...\n      MSTORE \t\t\tDAO voting\\r\\n    }\\r\\n    \\r\\...\n      SWAP1 \t\t\tDAO voting\\r\\n    }\\r\\n    \\r\\...\n      PUSH 40\t\t\tDAO voting\\r\\n    }\\r\\n    \\r\\...\n      MSTORE \t\t\tDAO voting\\r\\n    }\\r\\n    \\r\\...\n      DUP1 \t\t\t requires DAO voting\\r\\n    }\\...\n      MLOAD \t\t\t requires DAO voting\\r\\n    }\\...\n      SWAP1 \t\t\t requires DAO voting\\r\\n    }\\...\n      PUSH 20\t\t\t requires DAO voting\\r\\n    }\\...\n      ADD \t\t\t requires DAO voting\\r\\n    }\\...\n      KECCAK256 \t\t\t requires DAO voting\\r\\n    }\\...\n      SWAP1 \t\t\traised, requires DAO voting\\r\\...\n      POP \t\t\traised, requires DAO voting\\r\\...\n      SWAP1 \t\t\tlled,   // Gig cancelled, fund...\n      JUMP \t\t\tlled,   // Gig cancelled, fund...\n    tag 548\t\t\t[gigId].freelancer, \"Only free...\n      JUMPDEST \t\t\t[gigId].freelancer, \"Only free...\n      PUSH 0\t\t\tn\n      PUSH FFFFFFFFFFFFFFFFFFFFFFFFFFFFFFFFFFFFFFFF\t\t\tructor(address ini\n      AND \t\t\tructor(address ini\n      DUP4 \t\t\truct\n      PUSH FFFFFFFFFFFFFFFFFFFFFFFFFFFFFFFFFFFFFFFF\t\t\tructor(address ini\n      AND \t\t\tructor(address ini\n      SUB \t\t\tructor(address ini\n      PUSH [tag] 582\t\t\tonstructor(address initialOwne...\n      JUMPI \t\t\tonstructor(address initialOwne...\n      DUP1 \t\t\teate \n      PUSH 2\t\t\t\\r\\n     * @de\n      PUSH 0\t\t\t\\r\\n     * @de\n      DUP3 \t\t\t\\r\\n     * @dev Create \n      DUP3 \t\t\t\\r\\n     * @dev Create \n      SLOAD \t\t\t\\r\\n     * @dev Create \n      PUSH [tag] 583\t\t\t\\r\\n     * @dev Create \n      SWAP2 \t\t\t\\r\\n     * @dev Create \n      SWAP1 \t\t\t\\r\\n     * @dev Create \n      PUSH [tag] 203\t\t\t\\r\\n     * @dev Create \n      JUMP \t\t\t\\r\\n     * @dev Create \n    tag 583\t\t\t\\r\\n     * @dev Create \n      JUMPDEST \t\t\t\\r\\n     * @dev Create \n      SWAP3 \t\t\t\\r\\n     * @dev Create \n      POP \t\t\t\\r\\n     * @dev Create \n      POP \t\t\t\\r\\n     * @dev Create \n      DUP2 \t\t\t\\r\\n     * @dev Create \n      SWAP1 \t\t\t\\r\\n     * @dev Create \n      SSTORE \t\t\t\\r\\n     * @dev Create \n      POP \t\t\t\\r\\n     * @dev Create \n      PUSH [tag] 584\t\t\tonstructor(address initialOwne...\n      JUMP \t\t\tonstructor(address initialOwne...\n    tag 582\t\t\tonstructor(address initialOwne...\n      JUMPDEST \t\t\tonstructor(address initialOwne...\n      PUSH 0\t\t\t\\r\\n     * @param gig\n      PUSH 0\t\t\tUnique id\n      PUSH 0\t\t\tUnique identifi\n      DUP6 \t\t\tntif\n      PUSH FFFFFFFFFFFFFFFFFFFFFFFFFFFFFFFFFFFFFFFF\t\t\tUnique identifi\n      AND \t\t\tUnique identifi\n      PUSH FFFFFFFFFFFFFFFFFFFFFFFFFFFFFFFFFFFFFFFF\t\t\tUnique identifi\n      AND \t\t\tUnique identifi\n      DUP2 \t\t\tUnique identifi\n      MSTORE \t\t\tUnique identifi\n      PUSH 20\t\t\tUnique identifi\n      ADD \t\t\tUnique identifi\n      SWAP1 \t\t\tUnique identifi\n      DUP2 \t\t\tUnique identifi\n      MSTORE \t\t\tUnique identifi\n      PUSH 20\t\t\tUnique identifi\n      ADD \t\t\tUnique identifi\n      PUSH 0\t\t\tUnique identifi\n      KECCAK256 \t\t\tUnique identifi\n      SLOAD \t\t\tUnique identifi\n      SWAP1 \t\t\t\\r\\n     * @param gigId Unique...\n      POP \t\t\t\\r\\n     * @param gigId Unique...\n      DUP2 \t\t\teelan\n      DUP2 \t\t\t   * @param\n      LT \t\t\t   * @param freelan\n      ISZERO \t\t\t\\r\\n     * @param freelancer A...\n      PUSH [tag] 585\t\t\t\\r\\n     * @param freelancer A...\n      JUMPI \t\t\t\\r\\n     * @param freelancer A...\n      DUP4 \t\t\te Ti\n      DUP2 \t\t\te of the gi\n      DUP4 \t\t\t\\n    \n      PUSH 40\t\t\ter\\r\\n     * @param gigTitle T...\n      MLOAD \t\t\ter\\r\\n     * @param gigTitle T...\n      PUSH E450D38C00000000000000000000000000000000000000000000000000000000\t\t\ter\\r\\n     * @param gigTitle T...\n      DUP2 \t\t\ter\\r\\n     * @param gigTitle T...\n      MSTORE \t\t\ter\\r\\n     * @param gigTitle T...\n      PUSH 4\t\t\ter\\r\\n     * @param gigTitle T...\n      ADD \t\t\ter\\r\\n     * @param gigTitle T...\n      PUSH [tag] 586\t\t\ter\\r\\n     * @param gigTitle T...\n      SWAP4 \t\t\ter\\r\\n     * @param gigTitle T...\n      SWAP3 \t\t\ter\\r\\n     * @param gigTitle T...\n      SWAP2 \t\t\ter\\r\\n     * @param gigTitle T...\n      SWAP1 \t\t\ter\\r\\n     * @param gigTitle T...\n      PUSH [tag] 329\t\t\ter\\r\\n     * @param gigTitle T...\n      JUMP \t\t\ter\\r\\n     * @param gigTitle T...\n    tag 586\t\t\ter\\r\\n     * @param gigTitle T...\n      JUMPDEST \t\t\ter\\r\\n     * @param gigTitle T...\n      PUSH 40\t\t\ter\\r\\n     * @param gigTitle T...\n      MLOAD \t\t\ter\\r\\n     * @param gigTitle T...\n      DUP1 \t\t\ter\\r\\n     * @param gigTitle T...\n      SWAP2 \t\t\ter\\r\\n     * @param gigTitle T...\n      SUB \t\t\ter\\r\\n     * @param gigTitle T...\n      SWAP1 \t\t\ter\\r\\n     * @param gigTitle T...\n      REVERT \t\t\ter\\r\\n     * @param gigTitle T...\n    tag 585\t\t\t\\r\\n     * @param freelancer A...\n      JUMPDEST \t\t\t\\r\\n     * @param freelancer A...\n      DUP2 \t\t\td {\\r\\n\n      DUP2 \t\t\tt whenNotPa\n      SUB \t\t\tt whenNotPaused {\\r\\n\n      PUSH 0\t\t\tayable no\n      PUSH 0\t\t\tayable nonReent\n      DUP7 \t\t\tReen\n      PUSH FFFFFFFFFFFFFFFFFFFFFFFFFFFFFFFFFFFFFFFF\t\t\tayable nonReent\n      AND \t\t\tayable nonReent\n      PUSH FFFFFFFFFFFFFFFFFFFFFFFFFFFFFFFFFFFFFFFF\t\t\tayable nonReent\n      AND \t\t\tayable nonReent\n      DUP2 \t\t\tayable nonReent\n      MSTORE \t\t\tayable nonReent\n      PUSH 20\t\t\tayable nonReent\n      ADD \t\t\tayable nonReent\n      SWAP1 \t\t\tayable nonReent\n      DUP2 \t\t\tayable nonReent\n      MSTORE \t\t\tayable nonReent\n      PUSH 20\t\t\tayable nonReent\n      ADD \t\t\tayable nonReent\n      PUSH 0\t\t\tayable nonReent\n      KECCAK256 \t\t\tayable nonReent\n      DUP2 \t\t\tayable nonReentrant whenNotPau...\n      SWAP1 \t\t\tayable nonReentrant whenNotPau...\n      SSTORE \t\t\tayable nonReentrant whenNotPau...\n      POP \t\t\tayable nonReentrant whenNotPau...\n      POP \t\t\tand lock funds\\r\\n     * @para...\n    tag 584\t\t\tonstructor(address initialOwne...\n      JUMPDEST \t\t\tonstructor(address initialOwne...\n      PUSH 0\t\t\te\n      PUSH FFFFFFFFFFFFFFFFFFFFFFFFFFFFFFFFFFFFFFFF\t\t\t), \"Invalid free\n      AND \t\t\t), \"Invalid free\n      DUP3 \t\t\t),\n      PUSH FFFFFFFFFFFFFFFFFFFFFFFFFFFFFFFFFFFFFFFF\t\t\t), \"Invalid free\n      AND \t\t\t), \"Invalid free\n      SUB \t\t\t), \"Invalid free\n      PUSH [tag] 587\t\t\tss(0), \"Invalid freelancer add...\n      JUMPI \t\t\tss(0), \"Invalid freelancer add...\n      DUP1 \t\t\than 0\n      PUSH 2\t\t\tust be great\n      PUSH 0\t\t\tust be great\n      DUP3 \t\t\tust be greater than 0\n      DUP3 \t\t\tust be greater than 0\n      SLOAD \t\t\tust be greater than 0\n      SUB \t\t\tust be greater than 0\n      SWAP3 \t\t\tust be greater than 0\n      POP \t\t\tust be greater than 0\n      POP \t\t\tust be greater than 0\n      DUP2 \t\t\tust be greater than 0\n      SWAP1 \t\t\tust be greater than 0\n      SSTORE \t\t\tust be greater than 0\n      POP \t\t\tust be greater than 0\n      PUSH [tag] 588\t\t\tss(0), \"Invalid freelancer add...\n      JUMP \t\t\tss(0), \"Invalid freelancer add...\n    tag 587\t\t\tss(0), \"Invalid freelancer add...\n      JUMPDEST \t\t\tss(0), \"Invalid freelancer add...\n      DUP1 \t\t\t\\r\\n   \n      PUSH 0\t\t\td] = Escr\n      PUSH 0\t\t\td] = EscrowDa\n      DUP5 \t\t\twD\n      PUSH FFFFFFFFFFFFFFFFFFFFFFFFFFFFFFFFFFFFFFFF\t\t\td] = EscrowDa\n      AND \t\t\td] = EscrowDa\n      PUSH FFFFFFFFFFFFFFFFFFFFFFFFFFFFFFFFFFFFFFFF\t\t\td] = EscrowDa\n      AND \t\t\td] = EscrowDa\n      DUP2 \t\t\td] = EscrowDa\n      MSTORE \t\t\td] = EscrowDa\n      PUSH 20\t\t\td] = EscrowDa\n      ADD \t\t\td] = EscrowDa\n      SWAP1 \t\t\td] = EscrowDa\n      DUP2 \t\t\td] = EscrowDa\n      MSTORE \t\t\td] = EscrowDa\n      PUSH 20\t\t\td] = EscrowDa\n      ADD \t\t\td] = EscrowDa\n      PUSH 0\t\t\td] = EscrowDa\n      KECCAK256 \t\t\td] = EscrowDa\n      PUSH 0\t\t\td] = EscrowDa\n      DUP3 \t\t\td] = EscrowData({\\r\\n   \n      DUP3 \t\t\td] = EscrowData({\\r\\n   \n      SLOAD \t\t\td] = EscrowData({\\r\\n   \n      ADD \t\t\td] = EscrowData({\\r\\n   \n      SWAP3 \t\t\td] = EscrowData({\\r\\n   \n      POP \t\t\td] = EscrowData({\\r\\n   \n      POP \t\t\td] = EscrowData({\\r\\n   \n      DUP2 \t\t\td] = EscrowData({\\r\\n   \n      SWAP1 \t\t\td] = EscrowData({\\r\\n   \n      SSTORE \t\t\td] = EscrowData({\\r\\n   \n      POP \t\t\td] = EscrowData({\\r\\n   \n    tag 588\t\t\tss(0), \"Invalid freelancer add...\n      JUMPDEST \t\t\tss(0), \"Invalid freelancer add...\n      DUP2 \t\t\t\\r\\n\n      PUSH FFFFFFFFFFFFFFFFFFFFFFFFFFFFFFFFFFFFFFFF\t\t\tnt: msg.sender,\\r\\n        \n      AND \t\t\tnt: msg.sender,\\r\\n        \n      DUP4 \t\t\tende\n      PUSH FFFFFFFFFFFFFFFFFFFFFFFFFFFFFFFFFFFFFFFF\t\t\tnt: msg.sender,\\r\\n        \n      AND \t\t\tnt: msg.sender,\\r\\n        \n      PUSH DDF252AD1BE2C89B69C2B068FC378DAA952BA7F163C4A11628F55A4DF523B3EF\t\t\tnt: msg.sender,\\r\\n        \n      DUP4 \t\t\t     \n      PUSH 40\t\t\tnt: msg.sender,\\r\\n        \n      MLOAD \t\t\tnt: msg.sender,\\r\\n        \n      PUSH [tag] 589\t\t\tnt: msg.sender,\\r\\n        \n      SWAP2 \t\t\tnt: msg.sender,\\r\\n        \n      SWAP1 \t\t\tnt: msg.sender,\\r\\n        \n      PUSH [tag] 54\t\t\tnt: msg.sender,\\r\\n        \n      JUMP \t\t\tnt: msg.sender,\\r\\n        \n    tag 589\t\t\tnt: msg.sender,\\r\\n        \n      JUMPDEST \t\t\tnt: msg.sender,\\r\\n        \n      PUSH 40\t\t\tnt: msg.sender,\\r\\n        \n      MLOAD \t\t\tnt: msg.sender,\\r\\n        \n      DUP1 \t\t\tnt: msg.sender,\\r\\n        \n      SWAP2 \t\t\tnt: msg.sender,\\r\\n        \n      SUB \t\t\tnt: msg.sender,\\r\\n        \n      SWAP1 \t\t\tnt: msg.sender,\\r\\n        \n      LOG3 \t\t\tnt: msg.sender,\\r\\n        \n      POP \t\t\t[gigId].freelancer, \"Only free...\n      POP \t\t\t[gigId].freelancer, \"Only free...\n      POP \t\t\t[gigId].freelancer, \"Only free...\n      JUMP \t\t\t[gigId].freelancer, \"Only free...\n    tag 552\t\t\t, amount);\\r\\n    }\\r\\n    \\r\\...\n      JUMPDEST \t\t\t, amount);\\r\\n    }\\r\\n    \\r\\...\n      PUSH 0\t\t\tew mint\n      PUSH FFFFFFFFFFFFFFFFFFFFFFFFFFFFFFFFFFFFFFFFFFFFFFFFFFFF\t\t\tinter Address to \n      DUP1 \t\t\tparam minter Address to \n      AND \t\t\tparam minter Address to \n      SWAP1 \t\t\tparam minter Address to \n      POP \t\t\tparam minter Address to \n      SWAP1 \t\t\t, amount);\\r\\n    }\\r\\n    \\r\\...\n      JUMP \t\t\t, amount);\\r\\n    }\\r\\n    \\r\\...\n    tag 556\t\t\th(gigId);\\r\\n        freelance...\n      JUMPDEST \t\t\th(gigId);\\r\\n        freelance...\n      PUSH 0\t\t\tf\n      PUSH FFFFFFFFFFFFFFFFFFFFFFFFFFFFFFFFFFFFFFFF\t\t\tId, msg.sender, fr\n      AND \t\t\tId, msg.sender, fr\n      DUP4 \t\t\tId, \n      PUSH FFFFFFFFFFFFFFFFFFFFFFFFFFFFFFFFFFFFFFFF\t\t\tId, msg.sender, fr\n      AND \t\t\tId, msg.sender, fr\n      SUB \t\t\tId, msg.sender, fr\n      PUSH [tag] 592\t\t\t(gigId, msg.sender, freelancer...\n      JUMPI \t\t\t(gigId, msg.sender, freelancer...\n      PUSH [tag] 593\t\t\tlue, gigTitle);\\r\\n        emi...\n      PUSH A\t\t\tigTitle);\\r\\n      \n      PUSH [tag] 163\t\t\temit\n      PUSH [tag] 594\t\t\tscrowFunded(gigId, msg.sen\n      DUP5 \t\t\tmsg.se\n      PUSH [tag] 475\t\t\tscrowFunded(gigId,\n      JUMP \t\t\tscrowFunded(gigId, msg.sen\n    tag 594\t\t\tscrowFunded(gigId, msg.sen\n      JUMPDEST \t\t\tscrowFunded(gigId, msg.sen\n      PUSH [tag] 476\t\t\tlue, \n      JUMP \t\t\tlue, gigTitle);\\r\\n        emi...\n    tag 593\t\t\tlue, gigTitle);\\r\\n        emi...\n      JUMPDEST \t\t\tlue, gigTitle);\\r\\n        emi...\n      POP \t\t\tlue, gigTitle);\\r\\n        emi...\n      POP \t\t\tlue, gigTitle);\\r\\n        emi...\n    tag 592\t\t\t(gigId, msg.sender, freelancer...\n      JUMPDEST \t\t\t(gigId, msg.sender, freelancer...\n      PUSH 0\t\t\t\\n\n      PUSH FFFFFFFFFFFFFFFFFFFFFFFFFFFFFFFFFFFFFFFF\t\t\t    \\r\\n    /**\\r\\n \n      AND \t\t\t    \\r\\n    /**\\r\\n \n      DUP3 \t\t\t  \n      PUSH FFFFFFFFFFFFFFFFFFFFFFFFFFFFFFFFFFFFFFFF\t\t\t    \\r\\n    /**\\r\\n \n      AND \t\t\t    \\r\\n    /**\\r\\n \n      SUB \t\t\t    \\r\\n    /**\\r\\n \n      PUSH [tag] 595\t\t\t }\\r\\n    \\r\\n    /**\\r\\n     ...\n      JUMPI \t\t\t }\\r\\n    \\r\\n    /**\\r\\n     ...\n      PUSH [tag] 596\t\t\tse escrow funds to freelancer ...\n      PUSH A\t\t\trow funds to free\n      PUSH [tag] 164\t\t\tncer (onl\n      PUSH [tag] 597\t\t\tcallable by client)\\r\\n     \n      DUP5 \t\t\t\\r\\n    \n      PUSH [tag] 475\t\t\tcallable by client\n      JUMP \t\t\tcallable by client)\\r\\n     \n    tag 597\t\t\tcallable by client)\\r\\n     \n      JUMPDEST \t\t\tcallable by client)\\r\\n     \n      PUSH [tag] 476\t\t\tse es\n      JUMP \t\t\tse escrow funds to freelancer ...\n    tag 596\t\t\tse escrow funds to freelancer ...\n      JUMPDEST \t\t\tse escrow funds to freelancer ...\n      POP \t\t\tse escrow funds to freelancer ...\n      POP \t\t\tse escrow funds to freelancer ...\n    tag 595\t\t\t }\\r\\n    \\r\\n    /**\\r\\n     ...\n      JUMPDEST \t\t\t }\\r\\n    \\r\\n    /**\\r\\n     ...\n      PUSH [tag] 598\t\t\tthe gig\\r\\n     */\\r\\n    func...\n      PUSH [tag] 599\t\t\t   function rel\n      DUP5 \t\t\tn re\n      PUSH [tag] 86\t\t\t   functi\n      JUMP \t\t\t   function rel\n    tag 599\t\t\t   function rel\n      JUMPDEST \t\t\t   function rel\n      PUSH [tag] 600\t\t\tseEscrow(uint\n      DUP5 \t\t\tin\n      PUSH [tag] 86\t\t\tseEscrow(\n      JUMP \t\t\tseEscrow(uint\n    tag 600\t\t\tseEscrow(uint\n      JUMPDEST \t\t\tseEscrow(uint\n      DUP4 \t\t\t6 gigI\n      PUSH [tag] 379\t\t\tthe gig\\r\\n     */\\r\\n\n      JUMP \t\t\tthe gig\\r\\n     */\\r\\n    func...\n    tag 598\t\t\tthe gig\\r\\n     */\\r\\n    func...\n      JUMPDEST \t\t\tthe gig\\r\\n     */\\r\\n    func...\n      POP \t\t\th(gigId);\\r\\n        freelance...\n      POP \t\t\th(gigId);\\r\\n        freelance...\n      POP \t\t\th(gigId);\\r\\n        freelance...\n      JUMP \t\t\th(gigId);\\r\\n        freelance...\n    tag 571\t\t\tuint256 fee = (amount * platfo...\n      JUMPDEST \t\t\tuint256 fee = (amount * platfo...\n      PUSH 0\t\t\tsfer fee to plat\n      PUSH 0\t\t\trm\\r\\n        if (\n      PUSH [tag] 602\t\t\tient != address(0)) {\\r\\n     ...\n      DUP6 \t\t\taddr\n      PUSH 0\t\t\taddress(0)) {\\r\\n  \n      ADD \t\t\taddress(0)) {\\r\\n  \n      DUP6 \t\t\t   \n      DUP6 \t\t\t   (b\n      PUSH [tag] 603\t\t\tient !=\n      JUMP \t\t\tient != address(0)) {\\r\\n     ...\n    tag 602\t\t\tient != address(0)) {\\r\\n     ...\n      JUMPDEST \t\t\tient != address(0)) {\\r\\n     ...\n      SWAP2 \t\t\teeRecipient != address(0)) {\\r...\n      POP \t\t\teeRecipient != address(0)) {\\r...\n      SWAP2 \t\t\teeRecipient != address(0)) {\\r...\n      POP \t\t\teeRecipient != address(0)) {\\r...\n      SWAP4 \t\t\tuint256 fee = (amount * platfo...\n      POP \t\t\tuint256 fee = (amount * platfo...\n      SWAP4 \t\t\tuint256 fee = (amount * platfo...\n      SWAP2 \t\t\tuint256 fee = (amount * platfo...\n      POP \t\t\tuint256 fee = (amount * platfo...\n      POP \t\t\tuint256 fee = (amount * platfo...\n      JUMP \t\t\tuint256 fee = (amount * platfo...\n    tag 574\t\t\twner {\\r\\n        minters[mint...\n      JUMPDEST \t\t\twner {\\r\\n        minters[mint...\n      PUSH 0\t\t\tRemoved\n      PUSH 0\t\t\t   }\\r\\n    \\r\\n  \n      PUSH FF\t\t\t mul\n      DUP4 \t\t\ttoke\n      PUSH 0\t\t\t**\\r\\n     * @dev Distribute t...\n      SHR \t\t\t**\\r\\n     * @dev Distribute t...\n      AND \t\t\t**\\r\\n     * @dev Distribute t...\n      SWAP1 \t\t\t   }\\r\\n    \\r\\n    /**\\r\\n   ...\n      POP \t\t\t   }\\r\\n    \\r\\n    /**\\r\\n   ...\n      PUSH 1F\t\t\tst\n      DUP2 \t\t\ts (for\n      GT \t\t\ts (for test\n      ISZERO \t\t\tesses (for testing/airdrops)\\r...\n      PUSH [tag] 605\t\t\tesses (for testing/airdrops)\\r...\n      JUMPI \t\t\tesses (for testing/airdrops)\\r...\n      PUSH 40\t\t\tparam recipients Arr\n      MLOAD \t\t\tparam recipients Arr\n      PUSH B3512B0C00000000000000000000000000000000000000000000000000000000\t\t\tparam recipients Arr\n      DUP2 \t\t\tparam recipients Arr\n      MSTORE \t\t\tparam recipients Arr\n      PUSH 4\t\t\tparam recipients Arr\n      ADD \t\t\tparam recipients Arr\n      PUSH 40\t\t\tparam recipients Arr\n      MLOAD \t\t\tparam recipients Arr\n      DUP1 \t\t\tparam recipients Arr\n      SWAP2 \t\t\tparam recipients Arr\n      SUB \t\t\tparam recipients Arr\n      SWAP1 \t\t\tparam recipients Arr\n      REVERT \t\t\tparam recipients Arr\n    tag 605\t\t\tesses (for testing/airdrops)\\r...\n      JUMPDEST \t\t\tesses (for testing/airdrops)\\r...\n      DUP1 \t\t\t     *\n      SWAP2 \t\t\tesses\\r\\n     *\n      POP \t\t\tesses\\r\\n     *\n      POP \t\t\tesses\\r\\n     *\n      SWAP2 \t\t\twner {\\r\\n        minters[mint...\n      SWAP1 \t\t\twner {\\r\\n        minters[mint...\n      POP \t\t\twner {\\r\\n        minters[mint...\n      JUMP \t\t\twner {\\r\\n        minters[mint...\n    tag 603\t\t\tract (only owner)\\r\\n     */\\r...\n      JUMPDEST \t\t\tract (only owner)\\r\\n     */\\r...\n      PUSH 0\t\t\tev Unpause contr\n      PUSH 0\t\t\tt (only owner)\\r\\n\n      PUSH 0\t\t\t function u\n      DUP6 \t\t\tuse(\n      DUP1 \t\t\tuse() exter\n      SLOAD \t\t\tuse() exter\n      SWAP1 \t\t\tuse() exter\n      POP \t\t\tuse() exter\n      SWAP1 \t\t\t function unpause() exter\n      POP \t\t\t function unpause() exter\n      PUSH 0\t\t\t \n      DUP2 \t\t\t\\r\\n \n      GT \t\t\t\\r\\n     \n      ISZERO \t\t\ter {\\r\\n        _unpause();\\r\\...\n      PUSH [tag] 607\t\t\ter {\\r\\n        _unpause();\\r\\...\n      JUMPI \t\t\ter {\\r\\n        _unpause();\\r\\...\n      PUSH 0\t\t\t    }\\r\\n    \\r\\n    /**\\r\\n  ...\n      PUSH [tag] 608\t\t\t@dev Emergency withdrawal (o\n      DUP8 \t\t\t wit\n      PUSH 1\t\t\t(\n      DUP5 \t\t\traw\n      PUSH [tag] 609\t\t\trawal (\n      SWAP2 \t\t\trawal (\n      SWAP1 \t\t\trawal (\n      PUSH [tag] 356\t\t\trawal (\n      JUMP \t\t\trawal (\n    tag 609\t\t\trawal (\n      JUMPDEST \t\t\trawal (\n      PUSH [tag] 358\t\t\t@dev Emergenc\n      JUMP \t\t\t@dev Emergency withdrawal (o\n    tag 608\t\t\t@dev Emergency withdrawal (o\n      JUMPDEST \t\t\t@dev Emergency withdrawal (o\n      SWAP1 \t\t\t    }\\r\\n    \\r\\n    /**\\r\\n  ...\n      POP \t\t\t    }\\r\\n    \\r\\n    /**\\r\\n  ...\n      PUSH 0\t\t\t emergencies)\\r\n      DUP2 \t\t\t   *\n      PUSH 0\t\t\t   * @par\n      ADD \t\t\t   * @par\n      PUSH 0\t\t\t   * @par\n      SWAP1 \t\t\t   * @par\n      SLOAD \t\t\t   * @par\n      SWAP1 \t\t\t   * @par\n      PUSH 100\t\t\t   * @par\n      EXP \t\t\t   * @par\n      SWAP1 \t\t\t   * @par\n      DIV \t\t\t   * @par\n      PUSH FFFFFFFFFFFF\t\t\t   * @par\n      AND \t\t\t   * @par\n      SWAP1 \t\t\t emergencies)\\r\\n     * @par\n      POP \t\t\t emergencies)\\r\\n     * @par\n      PUSH 0\t\t\t the gig\\r\\n     */\n      DUP3 \t\t\t   f\n      PUSH 0\t\t\t   function\n      ADD \t\t\t   function\n      PUSH 6\t\t\t   function\n      SWAP1 \t\t\t   function\n      SLOAD \t\t\t   function\n      SWAP1 \t\t\t   function\n      PUSH 100\t\t\t   function\n      EXP \t\t\t   function\n      SWAP1 \t\t\t   function\n      DIV \t\t\t   function\n      PUSH FFFFFFFFFFFFFFFFFFFFFFFFFFFFFFFFFFFFFFFFFFFFFFFFFFFF\t\t\t   function\n      AND \t\t\t   function\n      SWAP1 \t\t\t the gig\\r\\n     */\\r\\n    fun...\n      POP \t\t\t the gig\\r\\n     */\\r\\n    fun...\n      DUP8 \t\t\t\\n  \n      PUSH FFFFFFFFFFFF\t\t\tentrant {\\r\\n  \n      AND \t\t\tentrant {\\r\\n  \n      DUP3 \t\t\tentrant\n      PUSH FFFFFFFFFFFF\t\t\tentrant {\\r\\n  \n      AND \t\t\tentrant {\\r\\n  \n      GT \t\t\tentrant {\\r\\n  \n      ISZERO \t\t\tonReentrant {\\r\\n        Escro...\n      PUSH [tag] 610\t\t\tonReentrant {\\r\\n        Escro...\n      JUMPI \t\t\tonReentrant {\\r\\n        Escro...\n      PUSH 40\t\t\tcrow = escrows[gigId];\\r\\n    ...\n      MLOAD \t\t\tcrow = escrows[gigId];\\r\\n    ...\n      PUSH 2520601D00000000000000000000000000000000000000000000000000000000\t\t\tcrow = escrows[gigId];\\r\\n    ...\n      DUP2 \t\t\tcrow = escrows[gigId];\\r\\n    ...\n      MSTORE \t\t\tcrow = escrows[gigId];\\r\\n    ...\n      PUSH 4\t\t\tcrow = escrows[gigId];\\r\\n    ...\n      ADD \t\t\tcrow = escrows[gigId];\\r\\n    ...\n      PUSH 40\t\t\tcrow = escrows[gigId];\\r\\n    ...\n      MLOAD \t\t\tcrow = escrows[gigId];\\r\\n    ...\n      DUP1 \t\t\tcrow = escrows[gigId];\\r\\n    ...\n      SWAP2 \t\t\tcrow = escrows[gigId];\\r\\n    ...\n      SUB \t\t\tcrow = escrows[gigId];\\r\\n    ...\n      SWAP1 \t\t\tcrow = escrows[gigId];\\r\\n    ...\n      REVERT \t\t\tcrow = escrows[gigId];\\r\\n    ...\n    tag 610\t\t\tonReentrant {\\r\\n        Escro...\n      JUMPDEST \t\t\tonReentrant {\\r\\n        Escro...\n      DUP8 \t\t\t es\n      PUSH FFFFFFFFFFFF\t\t\t56 amount = es\n      AND \t\t\t56 amount = es\n      DUP3 \t\t\t56 amou\n      PUSH FFFFFFFFFFFF\t\t\t56 amount = es\n      AND \t\t\t56 amount = es\n      SUB \t\t\t56 amount = es\n      PUSH [tag] 611\t\t\tint256 amount = escrow.amount;...\n      JUMPI \t\t\tint256 amount = escrow.amount;...\n      DUP7 \t\t\tt = 0\n      DUP4 \t\t\t  es\n      PUSH 0\t\t\t  escrow.am\n      ADD \t\t\t  escrow.am\n      PUSH 6\t\t\t  escrow.am\n      PUSH 100\t\t\t  escrow.amount = 0\n      EXP \t\t\t  escrow.amount = 0\n      DUP2 \t\t\t  escrow.amount = 0\n      SLOAD \t\t\t  escrow.amount = 0\n      DUP2 \t\t\t  escrow.amount = 0\n      PUSH FFFFFFFFFFFFFFFFFFFFFFFFFFFFFFFFFFFFFFFFFFFFFFFFFFFF\t\t\t  escrow.amount = 0\n      MUL \t\t\t  escrow.amount = 0\n      NOT \t\t\t  escrow.amount = 0\n      AND \t\t\t  escrow.amount = 0\n      SWAP1 \t\t\t  escrow.amount = 0\n      DUP4 \t\t\t  escrow.amount = 0\n      PUSH FFFFFFFFFFFFFFFFFFFFFFFFFFFFFFFFFFFFFFFFFFFFFFFFFFFF\t\t\t  escrow.amount = 0\n      AND \t\t\t  escrow.amount = 0\n      MUL \t\t\t  escrow.amount = 0\n      OR \t\t\t  escrow.amount = 0\n      SWAP1 \t\t\t  escrow.amount = 0\n      SSTORE \t\t\t  escrow.amount = 0\n      POP \t\t\t  escrow.amount = 0\n      PUSH [tag] 612\t\t\tint256 amount = escrow.amount;...\n      JUMP \t\t\tint256 amount = escrow.amount;...\n    tag 611\t\t\tint256 amount = escrow.amount;...\n      JUMPDEST \t\t\tint256 amount = escrow.amount;...\n      DUP9 \t\t\t.Can\n      PUSH 40\t\t\t;\\r\\n        \\r\\n        (bool...\n      MLOAD \t\t\t;\\r\\n        \\r\\n        (bool...\n      DUP1 \t\t\t;\\r\\n        \\r\\n        (bool...\n      PUSH 40\t\t\t;\\r\\n        \\r\\n        (bool...\n      ADD \t\t\t;\\r\\n        \\r\\n        (bool...\n      PUSH 40\t\t\t;\\r\\n        \\r\\n        (bool...\n      MSTORE \t\t\t;\\r\\n        \\r\\n        (bool...\n      DUP1 \t\t\t;\\r\\n        \\r\\n        (bool...\n      DUP11 \t\t\t(bo\n      PUSH FFFFFFFFFFFF\t\t\t;\\r\\n        \\r\\n        (bool...\n      AND \t\t\t;\\r\\n        \\r\\n        (bool...\n      DUP2 \t\t\t;\\r\\n        \\r\\n        (bool...\n      MSTORE \t\t\t;\\r\\n        \\r\\n        (bool...\n      PUSH 20\t\t\t;\\r\\n        \\r\\n        (bool...\n      ADD \t\t\t;\\r\\n        \\r\\n        (bool...\n      DUP10 \t\t\t, ) =\n      PUSH FFFFFFFFFFFFFFFFFFFFFFFFFFFFFFFFFFFFFFFFFFFFFFFFFFFF\t\t\t;\\r\\n        \\r\\n        (bool...\n      AND \t\t\t;\\r\\n        \\r\\n        (bool...\n      DUP2 \t\t\t;\\r\\n        \\r\\n        (bool...\n      MSTORE \t\t\t;\\r\\n        \\r\\n        (bool...\n      POP \t\t\t;\\r\\n        \\r\\n        (bool...\n      SWAP1 \t\t\t.Cancelled;\\r\\n        \\r\\n   ...\n      DUP1 \t\t\t.Cancelled;\\r\\n        \\r\\n   ...\n      PUSH 1\t\t\t.Cancelled;\\r\\n        \\r\\n   ...\n      DUP2 \t\t\t.Cancelled;\\r\\n        \\r\\n   ...\n      SLOAD \t\t\t.Cancelled;\\r\\n        \\r\\n   ...\n      ADD \t\t\t.Cancelled;\\r\\n        \\r\\n   ...\n      DUP1 \t\t\t.Cancelled;\\r\\n        \\r\\n   ...\n      DUP3 \t\t\t.Cancelled;\\r\\n        \\r\\n   ...\n      SSTORE \t\t\t.Cancelled;\\r\\n        \\r\\n   ...\n      DUP1 \t\t\t.Cancelled;\\r\\n        \\r\\n   ...\n      SWAP2 \t\t\t.Cancelled;\\r\\n        \\r\\n   ...\n      POP \t\t\t.Cancelled;\\r\\n        \\r\\n   ...\n      POP \t\t\t.Cancelled;\\r\\n        \\r\\n   ...\n      PUSH 1\t\t\t.Cancelled;\\r\\n        \\r\\n   ...\n      SWAP1 \t\t\t.Cancelled;\\r\\n        \\r\\n   ...\n      SUB \t\t\t.Cancelled;\\r\\n        \\r\\n   ...\n      SWAP1 \t\t\t.Cancelled;\\r\\n        \\r\\n   ...\n      PUSH 0\t\t\t.Cancelled;\\r\\n        \\r\\n   ...\n      MSTORE \t\t\t.Cancelled;\\r\\n        \\r\\n   ...\n      PUSH 20\t\t\t.Cancelled;\\r\\n        \\r\\n   ...\n      PUSH 0\t\t\t.Cancelled;\\r\\n        \\r\\n   ...\n      KECCAK256 \t\t\t.Cancelled;\\r\\n        \\r\\n   ...\n      ADD \t\t\t.Cancelled;\\r\\n        \\r\\n   ...\n      PUSH 0\t\t\t.Cancelled;\\r\\n        \\r\\n   ...\n      SWAP1 \t\t\t.Cancelled;\\r\\n        \\r\\n   ...\n      SWAP2 \t\t\t.Cancelled;\\r\\n        \\r\\n   ...\n      SWAP1 \t\t\t.Cancelled;\\r\\n        \\r\\n   ...\n      SWAP2 \t\t\t.Cancelled;\\r\\n        \\r\\n   ...\n      SWAP1 \t\t\t.Cancelled;\\r\\n        \\r\\n   ...\n      SWAP2 \t\t\t.Cancelled;\\r\\n        \\r\\n   ...\n      POP \t\t\t.Cancelled;\\r\\n        \\r\\n   ...\n      PUSH 0\t\t\t.Cancelled;\\r\\n        \\r\\n   ...\n      DUP3 \t\t\t.Cancelled;\\r\\n        \\r\\n   ...\n      ADD \t\t\t.Cancelled;\\r\\n        \\r\\n   ...\n      MLOAD \t\t\t.Cancelled;\\r\\n        \\r\\n   ...\n      DUP2 \t\t\t.Cancelled;\\r\\n        \\r\\n   ...\n      PUSH 0\t\t\t.Cancelled;\\r\\n        \\r\\n   ...\n      ADD \t\t\t.Cancelled;\\r\\n        \\r\\n   ...\n      PUSH 0\t\t\t.Cancelled;\\r\\n        \\r\\n   ...\n      PUSH 100\t\t\t.Cancelled;\\r\\n        \\r\\n   ...\n      EXP \t\t\t.Cancelled;\\r\\n        \\r\\n   ...\n      DUP2 \t\t\t.Cancelled;\\r\\n        \\r\\n   ...\n      SLOAD \t\t\t.Cancelled;\\r\\n        \\r\\n   ...\n      DUP2 \t\t\t.Cancelled;\\r\\n        \\r\\n   ...\n      PUSH FFFFFFFFFFFF\t\t\t.Cancelled;\\r\\n        \\r\\n   ...\n      MUL \t\t\t.Cancelled;\\r\\n        \\r\\n   ...\n      NOT \t\t\t.Cancelled;\\r\\n        \\r\\n   ...\n      AND \t\t\t.Cancelled;\\r\\n        \\r\\n   ...\n      SWAP1 \t\t\t.Cancelled;\\r\\n        \\r\\n   ...\n      DUP4 \t\t\t.Cancelled;\\r\\n        \\r\\n   ...\n      PUSH FFFFFFFFFFFF\t\t\t.Cancelled;\\r\\n        \\r\\n   ...\n      AND \t\t\t.Cancelled;\\r\\n        \\r\\n   ...\n      MUL \t\t\t.Cancelled;\\r\\n        \\r\\n   ...\n      OR \t\t\t.Cancelled;\\r\\n        \\r\\n   ...\n      SWAP1 \t\t\t.Cancelled;\\r\\n        \\r\\n   ...\n      SSTORE \t\t\t.Cancelled;\\r\\n        \\r\\n   ...\n      POP \t\t\t.Cancelled;\\r\\n        \\r\\n   ...\n      PUSH 20\t\t\t.Cancelled;\\r\\n        \\r\\n   ...\n      DUP3 \t\t\t.Cancelled;\\r\\n        \\r\\n   ...\n      ADD \t\t\t.Cancelled;\\r\\n        \\r\\n   ...\n      MLOAD \t\t\t.Cancelled;\\r\\n        \\r\\n   ...\n      DUP2 \t\t\t.Cancelled;\\r\\n        \\r\\n   ...\n      PUSH 0\t\t\t.Cancelled;\\r\\n        \\r\\n   ...\n      ADD \t\t\t.Cancelled;\\r\\n        \\r\\n   ...\n      PUSH 6\t\t\t.Cancelled;\\r\\n        \\r\\n   ...\n      PUSH 100\t\t\t.Cancelled;\\r\\n        \\r\\n   ...\n      EXP \t\t\t.Cancelled;\\r\\n        \\r\\n   ...\n      DUP2 \t\t\t.Cancelled;\\r\\n        \\r\\n   ...\n      SLOAD \t\t\t.Cancelled;\\r\\n        \\r\\n   ...\n      DUP2 \t\t\t.Cancelled;\\r\\n        \\r\\n   ...\n      PUSH FFFFFFFFFFFFFFFFFFFFFFFFFFFFFFFFFFFFFFFFFFFFFFFFFFFF\t\t\t.Cancelled;\\r\\n        \\r\\n   ...\n      MUL \t\t\t.Cancelled;\\r\\n        \\r\\n   ...\n      NOT \t\t\t.Cancelled;\\r\\n        \\r\\n   ...\n      AND \t\t\t.Cancelled;\\r\\n        \\r\\n   ...\n      SWAP1 \t\t\t.Cancelled;\\r\\n        \\r\\n   ...\n      DUP4 \t\t\t.Cancelled;\\r\\n        \\r\\n   ...\n      PUSH FFFFFFFFFFFFFFFFFFFFFFFFFFFFFFFFFFFFFFFFFFFFFFFFFFFF\t\t\t.Cancelled;\\r\\n        \\r\\n   ...\n      AND \t\t\t.Cancelled;\\r\\n        \\r\\n   ...\n      MUL \t\t\t.Cancelled;\\r\\n        \\r\\n   ...\n      OR \t\t\t.Cancelled;\\r\\n        \\r\\n   ...\n      SWAP1 \t\t\t.Cancelled;\\r\\n        \\r\\n   ...\n      SSTORE \t\t\t.Cancelled;\\r\\n        \\r\\n   ...\n      POP \t\t\t.Cancelled;\\r\\n        \\r\\n   ...\n      POP \t\t\t.Cancelled;\\r\\n        \\r\\n   ...\n      POP \t\t\t.Cancelled;\\r\\n        \\r\\n   ...\n    tag 612\t\t\tint256 amount = escrow.amount;...\n      JUMPDEST \t\t\tint256 amount = escrow.amount;...\n      DUP1 \t\t\t\\r\\n       \n      DUP8 \t\t\tequir\n      SWAP6 \t\t\tnt}(\"\");\\r\\n        require\n      POP \t\t\tnt}(\"\");\\r\\n        require\n      SWAP6 \t\t\tnt}(\"\");\\r\\n        require\n      POP \t\t\tnt}(\"\");\\r\\n        require\n      POP \t\t\tnt}(\"\");\\r\\n        require\n      POP \t\t\tnt}(\"\");\\r\\n        require\n      POP \t\t\tnt}(\"\");\\r\\n        require\n      POP \t\t\tnt}(\"\");\\r\\n        require\n      PUSH [tag] 606\t\t\tnt}(\"\");\\r\\n        require\n      JUMP \t\t\tnt}(\"\");\\r\\n        require\n    tag 607\t\t\ter {\\r\\n        _unpause();\\r\\...\n      JUMPDEST \t\t\ter {\\r\\n        _unpause();\\r\\...\n      DUP6 \t\t\t fai\n      PUSH 40\t\t\t\\r\\n        \\r\\n        emit E...\n      MLOAD \t\t\t\\r\\n        \\r\\n        emit E...\n      DUP1 \t\t\t\\r\\n        \\r\\n        emit E...\n      PUSH 40\t\t\t\\r\\n        \\r\\n        emit E...\n      ADD \t\t\t\\r\\n        \\r\\n        emit E...\n      PUSH 40\t\t\t\\r\\n        \\r\\n        emit E...\n      MSTORE \t\t\t\\r\\n        \\r\\n        emit E...\n      DUP1 \t\t\t\\r\\n        \\r\\n        emit E...\n      DUP8 \t\t\tmit\n      PUSH FFFFFFFFFFFF\t\t\t\\r\\n        \\r\\n        emit E...\n      AND \t\t\t\\r\\n        \\r\\n        emit E...\n      DUP2 \t\t\t\\r\\n        \\r\\n        emit E...\n      MSTORE \t\t\t\\r\\n        \\r\\n        emit E...\n      PUSH 20\t\t\t\\r\\n        \\r\\n        emit E...\n      ADD \t\t\t\\r\\n        \\r\\n        emit E...\n      DUP7 \t\t\tunded\n      PUSH FFFFFFFFFFFFFFFFFFFFFFFFFFFFFFFFFFFFFFFFFFFFFFFFFFFF\t\t\t\\r\\n        \\r\\n        emit E...\n      AND \t\t\t\\r\\n        \\r\\n        emit E...\n      DUP2 \t\t\t\\r\\n        \\r\\n        emit E...\n      MSTORE \t\t\t\\r\\n        \\r\\n        emit E...\n      POP \t\t\t\\r\\n        \\r\\n        emit E...\n      SWAP1 \t\t\t failed\");\\r\\n        \\r\\n    ...\n      DUP1 \t\t\t failed\");\\r\\n        \\r\\n    ...\n      PUSH 1\t\t\t failed\");\\r\\n        \\r\\n    ...\n      DUP2 \t\t\t failed\");\\r\\n        \\r\\n    ...\n      SLOAD \t\t\t failed\");\\r\\n        \\r\\n    ...\n      ADD \t\t\t failed\");\\r\\n        \\r\\n    ...\n      DUP1 \t\t\t failed\");\\r\\n        \\r\\n    ...\n      DUP3 \t\t\t failed\");\\r\\n        \\r\\n    ...\n      SSTORE \t\t\t failed\");\\r\\n        \\r\\n    ...\n      DUP1 \t\t\t failed\");\\r\\n        \\r\\n    ...\n      SWAP2 \t\t\t failed\");\\r\\n        \\r\\n    ...\n      POP \t\t\t failed\");\\r\\n        \\r\\n    ...\n      POP \t\t\t failed\");\\r\\n        \\r\\n    ...\n      PUSH 1\t\t\t failed\");\\r\\n        \\r\\n    ...\n      SWAP1 \t\t\t failed\");\\r\\n        \\r\\n    ...\n      SUB \t\t\t failed\");\\r\\n        \\r\\n    ...\n      SWAP1 \t\t\t failed\");\\r\\n        \\r\\n    ...\n      PUSH 0\t\t\t failed\");\\r\\n        \\r\\n    ...\n      MSTORE \t\t\t failed\");\\r\\n        \\r\\n    ...\n      PUSH 20\t\t\t failed\");\\r\\n        \\r\\n    ...\n      PUSH 0\t\t\t failed\");\\r\\n        \\r\\n    ...\n      KECCAK256 \t\t\t failed\");\\r\\n        \\r\\n    ...\n      ADD \t\t\t failed\");\\r\\n        \\r\\n    ...\n      PUSH 0\t\t\t failed\");\\r\\n        \\r\\n    ...\n      SWAP1 \t\t\t failed\");\\r\\n        \\r\\n    ...\n      SWAP2 \t\t\t failed\");\\r\\n        \\r\\n    ...\n      SWAP1 \t\t\t failed\");\\r\\n        \\r\\n    ...\n      SWAP2 \t\t\t failed\");\\r\\n        \\r\\n    ...\n      SWAP1 \t\t\t failed\");\\r\\n        \\r\\n    ...\n      SWAP2 \t\t\t failed\");\\r\\n        \\r\\n    ...\n      POP \t\t\t failed\");\\r\\n        \\r\\n    ...\n      PUSH 0\t\t\t failed\");\\r\\n        \\r\\n    ...\n      DUP3 \t\t\t failed\");\\r\\n        \\r\\n    ...\n      ADD \t\t\t failed\");\\r\\n        \\r\\n    ...\n      MLOAD \t\t\t failed\");\\r\\n        \\r\\n    ...\n      DUP2 \t\t\t failed\");\\r\\n        \\r\\n    ...\n      PUSH 0\t\t\t failed\");\\r\\n        \\r\\n    ...\n      ADD \t\t\t failed\");\\r\\n        \\r\\n    ...\n      PUSH 0\t\t\t failed\");\\r\\n        \\r\\n    ...\n      PUSH 100\t\t\t failed\");\\r\\n        \\r\\n    ...\n      EXP \t\t\t failed\");\\r\\n        \\r\\n    ...\n      DUP2 \t\t\t failed\");\\r\\n        \\r\\n    ...\n      SLOAD \t\t\t failed\");\\r\\n        \\r\\n    ...\n      DUP2 \t\t\t failed\");\\r\\n        \\r\\n    ...\n      PUSH FFFFFFFFFFFF\t\t\t failed\");\\r\\n        \\r\\n    ...\n      MUL \t\t\t failed\");\\r\\n        \\r\\n    ...\n      NOT \t\t\t failed\");\\r\\n        \\r\\n    ...\n      AND \t\t\t failed\");\\r\\n        \\r\\n    ...\n      SWAP1 \t\t\t failed\");\\r\\n        \\r\\n    ...\n      DUP4 \t\t\t failed\");\\r\\n        \\r\\n    ...\n      PUSH FFFFFFFFFFFF\t\t\t failed\");\\r\\n        \\r\\n    ...\n      AND \t\t\t failed\");\\r\\n        \\r\\n    ...\n      MUL \t\t\t failed\");\\r\\n        \\r\\n    ...\n      OR \t\t\t failed\");\\r\\n        \\r\\n    ...\n      SWAP1 \t\t\t failed\");\\r\\n        \\r\\n    ...\n      SSTORE \t\t\t failed\");\\r\\n        \\r\\n    ...\n      POP \t\t\t failed\");\\r\\n        \\r\\n    ...\n      PUSH 20\t\t\t failed\");\\r\\n        \\r\\n    ...\n      DUP3 \t\t\t failed\");\\r\\n        \\r\\n    ...\n      ADD \t\t\t failed\");\\r\\n        \\r\\n    ...\n      MLOAD \t\t\t failed\");\\r\\n        \\r\\n    ...\n      DUP2 \t\t\t failed\");\\r\\n        \\r\\n    ...\n      PUSH 0\t\t\t failed\");\\r\\n        \\r\\n    ...\n      ADD \t\t\t failed\");\\r\\n        \\r\\n    ...\n      PUSH 6\t\t\t failed\");\\r\\n        \\r\\n    ...\n      PUSH 100\t\t\t failed\");\\r\\n        \\r\\n    ...\n      EXP \t\t\t failed\");\\r\\n        \\r\\n    ...\n      DUP2 \t\t\t failed\");\\r\\n        \\r\\n    ...\n      SLOAD \t\t\t failed\");\\r\\n        \\r\\n    ...\n      DUP2 \t\t\t failed\");\\r\\n        \\r\\n    ...\n      PUSH FFFFFFFFFFFFFFFFFFFFFFFFFFFFFFFFFFFFFFFFFFFFFFFFFFFF\t\t\t failed\");\\r\\n        \\r\\n    ...\n      MUL \t\t\t failed\");\\r\\n        \\r\\n    ...\n      NOT \t\t\t failed\");\\r\\n        \\r\\n    ...\n      AND \t\t\t failed\");\\r\\n        \\r\\n    ...\n      SWAP1 \t\t\t failed\");\\r\\n        \\r\\n    ...\n      DUP4 \t\t\t failed\");\\r\\n        \\r\\n    ...\n      PUSH FFFFFFFFFFFFFFFFFFFFFFFFFFFFFFFFFFFFFFFFFFFFFFFFFFFF\t\t\t failed\");\\r\\n        \\r\\n    ...\n      AND \t\t\t failed\");\\r\\n        \\r\\n    ...\n      MUL \t\t\t failed\");\\r\\n        \\r\\n    ...\n      OR \t\t\t failed\");\\r\\n        \\r\\n    ...\n      SWAP1 \t\t\t failed\");\\r\\n        \\r\\n    ...\n      SSTORE \t\t\t failed\");\\r\\n        \\r\\n    ...\n      POP \t\t\t failed\");\\r\\n        \\r\\n    ...\n      POP \t\t\t failed\");\\r\\n        \\r\\n    ...\n      POP \t\t\t failed\");\\r\\n        \\r\\n    ...\n      PUSH 0\t\t\to\n      DUP5 \t\t\tt);\\r\\n\n      SWAP3 \t\t\tient, amount);\\r\\n \n      POP \t\t\tient, amount);\\r\\n \n      SWAP3 \t\t\tient, amount);\\r\\n \n      POP \t\t\tient, amount);\\r\\n \n      POP \t\t\tient, amount);\\r\\n \n    tag 606\t\t\tract (only owner)\\r\\n     */\\r...\n      JUMPDEST \t\t\tract (only owner)\\r\\n     */\\r...\n      SWAP4 \t\t\tract (only owner)\\r\\n     */\\r...\n      POP \t\t\tract (only owner)\\r\\n     */\\r...\n      SWAP4 \t\t\tract (only owner)\\r\\n     */\\r...\n      SWAP2 \t\t\tract (only owner)\\r\\n     */\\r...\n      POP \t\t\tract (only owner)\\r\\n     */\\r...\n      POP \t\t\tract (only owner)\\r\\n     */\\r...\n      JUMP \t\t\tract (only owner)\\r\\n     */\\r...\n    tag 304\t\t\t\n      JUMPDEST \t\t\t\n      PUSH 40\t\t\t\n      MLOAD \t\t\t\n      DUP1 \t\t\t\n      PUSH 40\t\t\t\n      ADD \t\t\t\n      PUSH 40\t\t\t\n      MSTORE \t\t\t\n      DUP1 \t\t\t\n      PUSH 0\t\t\t\n      PUSH FFFFFFFFFFFF\t\t\t\n      AND \t\t\t\n      DUP2 \t\t\t\n      MSTORE \t\t\t\n      PUSH 20\t\t\t\n      ADD \t\t\t\n      PUSH 0\t\t\t\n      PUSH FFFFFFFFFFFFFFFFFFFFFFFFFFFFFFFFFFFFFFFFFFFFFFFFFFFF\t\t\t\n      AND \t\t\t\n      DUP2 \t\t\t\n      MSTORE \t\t\t\n      POP \t\t\t\n      SWAP1 \t\t\t\n      JUMP \t\t\t\n    tag 616\t\t\t-License-Identifier: MIT\\r\\npr...\n      JUMPDEST \t\t\t-License-Identifier: MIT\\r\\npr...\n      PUSH 0\t\t\t\\r\\n/**\\r\n      DUP2 \t\t\tontra\n      MLOAD \t\t\tmart Contrac\n      SWAP1 \t\t\tecureGig Smart Contrac\n      POP \t\t\tecureGig Smart Contrac\n      SWAP2 \t\t\t-License-Identifier: MIT\\r\\npr...\n      SWAP1 \t\t\t-License-Identifier: MIT\\r\\npr...\n      POP \t\t\t-License-Identifier: MIT\\r\\npr...\n      JUMP \t\t\t-License-Identifier: MIT\\r\\npr...\n    tag 617\t\t\tomplete smart contract suite f...\n      JUMPDEST \t\t\tomplete smart contract suite f...\n      PUSH 0\t\t\tAOToken, Gi\n      DUP3 \t\t\tcontra\n      DUP3 \t\t\twDA\n      MSTORE \t\t\td EscrowDAO contrac\n      PUSH 20\t\t\t\\n * \n      DUP3 \t\t\tent\n      ADD \t\t\tpayments\\r\\n * @\n      SWAP1 \t\t\tcure freelance payments\\r\\n * ...\n      POP \t\t\tcure freelance payments\\r\\n * ...\n      SWAP3 \t\t\tomplete smart contract suite f...\n      SWAP2 \t\t\tomplete smart contract suite f...\n      POP \t\t\tomplete smart contract suite f...\n      POP \t\t\tomplete smart contract suite f...\n      JUMP \t\t\tomplete smart contract suite f...\n    tag 618\t\t\tun-script scripts/deploy.js\\r\\...\n      JUMPDEST \t\t\tun-script scripts/deploy.js\\r\\...\n      DUP3 \t\t\t.sol\";\n      DUP2 \t\t\tGua\n      DUP4 \t\t\tran\n      MCOPY \t\t\t/ReentrancyGuard.sol\";\\r\n      PUSH 0\t\t\tc\n      DUP4 \t\t\tntract\n      DUP4 \t\t\tin/\n      ADD \t\t\tppelin/contracts\n      MSTORE \t\t\t@openzeppelin/contracts/acc\n      POP \t\t\tun-script scripts/deploy.js\\r\\...\n      POP \t\t\tun-script scripts/deploy.js\\r\\...\n      POP \t\t\tun-script scripts/deploy.js\\r\\...\n      JUMP \t\t\tun-script scripts/deploy.js\\r\\...\n    tag 619\t\t\tol\";\\r\\nimport \"@openzeppelin/...\n      JUMPDEST \t\t\tol\";\\r\\nimport \"@openzeppelin/...\n      PUSH 0\t\t\tls/Pau\n      PUSH 1F\t\t\tto\n      NOT \t\t\tcts/tok\n      PUSH 1F\t\t\ton\n      DUP4 \t\t\tpelin\n      ADD \t\t\tnzeppelin/cont\n      AND \t\t\t@openzeppelin/contracts/toke\n      SWAP1 \t\t\t\\r\\nimport \"@openzeppelin/cont...\n      POP \t\t\t\\r\\nimport \"@openzeppelin/cont...\n      SWAP2 \t\t\tol\";\\r\\nimport \"@openzeppelin/...\n      SWAP1 \t\t\tol\";\\r\\nimport \"@openzeppelin/...\n      POP \t\t\tol\";\\r\\nimport \"@openzeppelin/...\n      JUMP \t\t\tol\";\\r\\nimport \"@openzeppelin/...\n    tag 620\t\t\t0.sol\";\\r\\nimport \"@openzeppel...\n      JUMPDEST \t\t\t0.sol\";\\r\\nimport \"@openzeppel...\n      PUSH 0\t\t\t \"@\n      PUSH [tag] 691\t\t\tken/ERC20/extensions/ERC20Perm...\n      DUP3 \t\t\tsol\";\n      PUSH [tag] 616\t\t\tken/ERC20/extensions/ERC20Perm...\n      JUMP \t\t\tken/ERC20/extensions/ERC20Perm...\n    tag 691\t\t\tken/ERC20/extensions/ERC20Perm...\n      JUMPDEST \t\t\tken/ERC20/extensions/ERC20Perm...\n      PUSH [tag] 692\t\t\tppelin/contracts/utils/cryptog...\n      DUP2 \t\t\teppeli\n      DUP6 \t\t\tope\n      PUSH [tag] 617\t\t\tppelin/contracts/utils/cryptog...\n      JUMP \t\t\tppelin/contracts/utils/cryptog...\n    tag 692\t\t\tppelin/contracts/utils/cryptog...\n      JUMPDEST \t\t\tppelin/contracts/utils/cryptog...\n      SWAP4 \t\t\t@openzeppelin/contracts/utils/...\n      POP \t\t\t@openzeppelin/contracts/utils/...\n      PUSH [tag] 693\t\t\ts/utils/Nonces.sol\";\\r\\nimport...\n      DUP2 \t\t\tn/ERC2\n      DUP6 \t\t\t/to\n      PUSH 20\t\t\tntra\n      DUP7 \t\t\telin/\n      ADD \t\t\tzeppelin/contrac\n      PUSH [tag] 618\t\t\ts/utils/Nonces.sol\";\\r\\nimport...\n      JUMP \t\t\ts/utils/Nonces.sol\";\\r\\nimport...\n    tag 693\t\t\ts/utils/Nonces.sol\";\\r\\nimport...\n      JUMPDEST \t\t\ts/utils/Nonces.sol\";\\r\\nimport...\n      PUSH [tag] 694\t\t\t@title DAOToken\\r\\n * @dev ERC...\n      DUP2 \t\t\tev ERC\n      PUSH [tag] 619\t\t\t@title DAOToken\\r\\n * @dev ERC...\n      JUMP \t\t\t@title DAOToken\\r\\n * @dev ERC...\n    tag 694\t\t\t@title DAOToken\\r\\n * @dev ERC...\n      JUMPDEST \t\t\t@title DAOToken\\r\\n * @dev ERC...\n      DUP5 \t\t\t\\r\\n \n      ADD \t\t\t\\n/**\\r\\n * @title DAOToken\\r\\...\n      SWAP2 \t\t\tol\";\\r\\n\\r\\n/**\\r\\n * @title D...\n      POP \t\t\tol\";\\r\\n\\r\\n/**\\r\\n * @title D...\n      POP \t\t\tpenzeppelin/contracts/token/ER...\n      SWAP3 \t\t\t0.sol\";\\r\\nimport \"@openzeppel...\n      SWAP2 \t\t\t0.sol\";\\r\\nimport \"@openzeppel...\n      POP \t\t\t0.sol\";\\r\\nimport \"@openzeppel...\n      POP \t\t\t0.sol\";\\r\\nimport \"@openzeppel...\n      JUMP \t\t\t0.sol\";\\r\\nimport \"@openzeppel...\n    tag 44\t\t\ttoken for SecureGig DAO voting...\n      JUMPDEST \t\t\ttoken for SecureGig DAO voting...\n      PUSH 0\t\t\ten i\n      PUSH 20\t\t\t  \n      DUP3 \t\t\tnable {\\r\\n\n      ADD \t\t\t, Ownable {\\r\\n    u\n      SWAP1 \t\t\tC20Votes, Ownable {\\r\\n    u\n      POP \t\t\tC20Votes, Ownable {\\r\\n    u\n      DUP2 \t\t\t0 * 10**1\n      DUP2 \t\t\t1000\n      SUB \t\t\tY = 1000000 * 10**18\n      PUSH 0\t\t\tU\n      DUP4 \t\t\tt INITIAL\n      ADD \t\t\tstant INITIAL_SUP\n      MSTORE \t\t\tlic constant INITIAL_SUPPLY = ...\n      PUSH [tag] 696\t\t\t  uint256 public constant MAX_...\n      DUP2 \t\t\tly\\r\\n\n      DUP5 \t\t\t max s\n      PUSH [tag] 620\t\t\t  uint256 public constant MAX_...\n      JUMP \t\t\t  uint256 public constant MAX_...\n    tag 696\t\t\t  uint256 public constant MAX_...\n      JUMPDEST \t\t\t  uint256 public constant MAX_...\n      SWAP1 \t\t\tkens\\r\\n    uint256 public con...\n      POP \t\t\tkens\\r\\n    uint256 public con...\n      SWAP3 \t\t\ttoken for SecureGig DAO voting...\n      SWAP2 \t\t\ttoken for SecureGig DAO voting...\n      POP \t\t\ttoken for SecureGig DAO voting...\n      POP \t\t\ttoken for SecureGig DAO voting...\n      JUMP \t\t\ttoken for SecureGig DAO voting...\n    tag 622\t\t\t minter);\\r\\n    event MinterR...\n      JUMPDEST \t\t\t minter);\\r\\n    event MinterR...\n      PUSH 0\t\t\tr\n      PUSH 0\t\t\tq\n      REVERT \t\t\t     require\n    tag 623\t\t\t.sender] || msg.sender == owne...\n      JUMPDEST \t\t\t.sender] || msg.sender == owne...\n      PUSH 0\t\t\t \n      PUSH 0\t\t\t \n      REVERT \t\t\tctor(\\r\\n     \n    tag 624\t\t\tnitialOwner\\r\\n    ) ERC20(\"Se...\n      JUMPDEST \t\t\tnitialOwner\\r\\n    ) ERC20(\"Se...\n      PUSH 0\t\t\tAO Toke\n      PUSH FFFFFFFFFFFFFFFFFFFFFFFFFFFFFFFFFFFFFFFF\t\t\t EIP712(\"SecureGig DAO Token\",...\n      DUP3 \t\t\tlOwne\n      AND \t\t\titialOwner) EIP712(\"SecureGig ...\n      SWAP1 \t\t\t Ownable(initialOwner) EIP712(...\n      POP \t\t\t Ownable(initialOwner) EIP712(...\n      SWAP2 \t\t\tnitialOwner\\r\\n    ) ERC20(\"Se...\n      SWAP1 \t\t\tnitialOwner\\r\\n    ) ERC20(\"Se...\n      POP \t\t\tnitialOwner\\r\\n    ) ERC20(\"Se...\n      JUMP \t\t\tnitialOwner\\r\\n    ) ERC20(\"Se...\n    tag 625\t\t\titialOwner, INITIAL_SUPPLY);\\r...\n      JUMPDEST \t\t\titialOwner, INITIAL_SUPPLY);\\r...\n      PUSH 0\t\t\t minter\n      PUSH [tag] 702\t\t\t;\\r\\n    }\\r\\n    \\r\\n    /**\\...\n      DUP3 \t\t\t  /**\n      PUSH [tag] 624\t\t\t;\\r\\n    }\\r\\n    \\r\\n    /**\\...\n      JUMP \t\t\t;\\r\\n    }\\r\\n    \\r\\n    /**\\...\n    tag 702\t\t\t;\\r\\n    }\\r\\n    \\r\\n    /**\\...\n      JUMPDEST \t\t\t;\\r\\n    }\\r\\n    \\r\\n    /**\\...\n      SWAP1 \t\t\tner] = true;\\r\\n    }\\r\\n    \\...\n      POP \t\t\tner] = true;\\r\\n    }\\r\\n    \\...\n      SWAP2 \t\t\titialOwner, INITIAL_SUPPLY);\\r...\n      SWAP1 \t\t\titialOwner, INITIAL_SUPPLY);\\r...\n      POP \t\t\titialOwner, INITIAL_SUPPLY);\\r...\n      JUMP \t\t\titialOwner, INITIAL_SUPPLY);\\r...\n    tag 626\t\t\t Mint new tokens (only by auth...\n      JUMPDEST \t\t\t Mint new tokens (only by auth...\n      PUSH [tag] 704\t\t\to mint tokens to\\r\\n     *\n      DUP2 \t\t\t     \n      PUSH [tag] 625\t\t\to mint tokens to\\r\\n     *\n      JUMP \t\t\to mint tokens to\\r\\n     *\n    tag 704\t\t\to mint tokens to\\r\\n     *\n      JUMPDEST \t\t\to mint tokens to\\r\\n     *\n      DUP2 \t\t\tdress\n      EQ \t\t\t Address to mint tokens to\\r\\n...\n      PUSH [tag] 705\t\t\t @param to Address to mint tok...\n      JUMPI \t\t\t @param to Address to mint tok...\n      PUSH 0\t\t\tA\n      PUSH 0\t\t\tn\n      REVERT \t\t\tam amount Am\n    tag 705\t\t\t @param to Address to mint tok...\n      JUMPDEST \t\t\t @param to Address to mint tok...\n      POP \t\t\t Mint new tokens (only by auth...\n      JUMP \t\t\t Mint new tokens (only by auth...\n    tag 627\t\t\t to mint\\r\\n     */\\r\\n    fun...\n      JUMPDEST \t\t\t to mint\\r\\n     */\\r\\n    fun...\n      PUSH 0\t\t\to, ui\n      DUP2 \t\t\t {\\r\\n  \n      CALLDATALOAD \t\t\tal onlyMinter {\\r\\n   \n      SWAP1 \t\t\tt) external onlyMinter {\\r\\n  ...\n      POP \t\t\tt) external onlyMinter {\\r\\n  ...\n      PUSH [tag] 707\t\t\tire(totalSupply() + amount <= ...\n      DUP2 \t\t\t<= MA\n      PUSH [tag] 626\t\t\tire(totalSupply() + amount <= ...\n      JUMP \t\t\tire(totalSupply() + amount <= ...\n    tag 707\t\t\tire(totalSupply() + amount <= ...\n      JUMPDEST \t\t\tire(totalSupply() + amount <= ...\n      SWAP3 \t\t\t to mint\\r\\n     */\\r\\n    fun...\n      SWAP2 \t\t\t to mint\\r\\n     */\\r\\n    fun...\n      POP \t\t\t to mint\\r\\n     */\\r\\n    fun...\n      POP \t\t\t to mint\\r\\n     */\\r\\n    fun...\n      JUMP \t\t\t to mint\\r\\n     */\\r\\n    fun...\n    tag 628\t\t\tceeds max supply\");\\r\\n       ...\n      JUMPDEST \t\t\tceeds max supply\");\\r\\n       ...\n      PUSH 0\t\t\t, amoun\n      DUP2 \t\t\t/**\\r\\n\n      SWAP1 \t\t\t\\n    \\r\\n    /**\\r\\n\n      POP \t\t\t\\n    \\r\\n    /**\\r\\n\n      SWAP2 \t\t\tceeds max supply\");\\r\\n       ...\n      SWAP1 \t\t\tceeds max supply\");\\r\\n       ...\n      POP \t\t\tceeds max supply\");\\r\\n       ...\n      JUMP \t\t\tceeds max supply\");\\r\\n       ...\n    tag 629\t\t\tAdd a new minter\\r\\n     * @pa...\n      JUMPDEST \t\t\tAdd a new minter\\r\\n     * @pa...\n      PUSH [tag] 710\t\t\t\\n    function addMinter(\n      DUP2 \t\t\tinter\n      PUSH [tag] 628\t\t\t\\n    function addMinter(\n      JUMP \t\t\t\\n    function addMinter(\n    tag 710\t\t\t\\n    function addMinter(\n      JUMPDEST \t\t\t\\n    function addMinter(\n      DUP2 \t\t\t    *\n      EQ \t\t\t\\r\\n     */\\r\\n    function ad...\n      PUSH [tag] 711\t\t\t as minter\\r\\n     */\\r\\n    f...\n      JUMPI \t\t\t as minter\\r\\n     */\\r\\n    f...\n      PUSH 0\t\t\t \n      PUSH 0\t\t\te\n      REVERT \t\t\tss minter) e\n    tag 711\t\t\t as minter\\r\\n     */\\r\\n    f...\n      JUMPDEST \t\t\t as minter\\r\\n     */\\r\\n    f...\n      POP \t\t\tAdd a new minter\\r\\n     * @pa...\n      JUMP \t\t\tAdd a new minter\\r\\n     * @pa...\n    tag 630\t\t\tner {\\r\\n        minters[minte...\n      JUMPDEST \t\t\tner {\\r\\n        minters[minte...\n      PUSH 0\t\t\t  emi\n      DUP2 \t\t\t  \\r\\n  \n      CALLDATALOAD \t\t\t);\\r\\n    }\\r\\n    \\r\\n   \n      SWAP1 \t\t\ted(minter);\\r\\n    }\\r\\n    \\r...\n      POP \t\t\ted(minter);\\r\\n    }\\r\\n    \\r...\n      PUSH [tag] 713\t\t\t  * @dev Remove a minter\\r\\n  ...\n      DUP2 \t\t\t    *\n      PUSH [tag] 629\t\t\t  * @dev Remove a minter\\r\\n  ...\n      JUMP \t\t\t  * @dev Remove a minter\\r\\n  ...\n    tag 713\t\t\t  * @dev Remove a minter\\r\\n  ...\n      JUMPDEST \t\t\t  * @dev Remove a minter\\r\\n  ...\n      SWAP3 \t\t\tner {\\r\\n        minters[minte...\n      SWAP2 \t\t\tner {\\r\\n        minters[minte...\n      POP \t\t\tner {\\r\\n        minters[minte...\n      POP \t\t\tner {\\r\\n        minters[minte...\n      JUMP \t\t\tner {\\r\\n        minters[minte...\n    tag 47\t\t\tr Address to remove as minter\\...\n      JUMPDEST \t\t\tr Address to remove as minter\\...\n      PUSH 0\t\t\tdress \n      PUSH 0\t\t\tnter) \n      PUSH 40\t\t\tr]\n      DUP4 \t\t\tinters[mi\n      DUP6 \t\t\t       \n      SUB \t\t\t {\\r\\n        minters[min\n      SLT \t\t\twner {\\r\\n        minters[mint...\n      ISZERO \t\t\tlyOwner {\\r\\n        minters[m...\n      PUSH [tag] 715\t\t\tlyOwner {\\r\\n        minters[m...\n      JUMPI \t\t\tlyOwner {\\r\\n        minters[m...\n      PUSH [tag] 716\t\t\talse;\\r\\n        emit MinterRe...\n      PUSH [tag] 622\t\t\talse;\\r\\n        emit MinterRe...\n      JUMP \t\t\talse;\\r\\n        emit MinterRe...\n    tag 716\t\t\talse;\\r\\n        emit MinterRe...\n      JUMPDEST \t\t\talse;\\r\\n        emit MinterRe...\n    tag 715\t\t\tlyOwner {\\r\\n        minters[m...\n      JUMPDEST \t\t\tlyOwner {\\r\\n        minters[m...\n      PUSH 0\t\t\to\n      PUSH [tag] 717\t\t\t  * @param recipients Array of...\n      DUP6 \t\t\tesses\\r\\n\n      DUP3 \t\t\tient a\n      DUP7 \t\t\tay of rec\n      ADD \t\t\t Array of recipient ad\n      PUSH [tag] 627\t\t\t  * @param recipients Array of...\n      JUMP \t\t\t  * @param recipients Array of...\n    tag 717\t\t\t  * @param recipients Array of...\n      JUMPDEST \t\t\t  * @param recipients Array of...\n      SWAP3 \t\t\trops)\\r\\n     * @param recipie...\n      POP \t\t\trops)\\r\\n     * @param recipie...\n      POP \t\t\tkens to multiple addresses (fo...\n      PUSH 20\t\t\tte\n      PUSH [tag] 718\t\t\tbatchMint(address[] calldata r...\n      DUP6 \t\t\t256[] c\n      DUP3 \t\t\tnts, u\n      DUP7 \t\t\tata recip\n      ADD \t\t\talldata recipients, ui\n      PUSH [tag] 630\t\t\tbatchMint(address[] calldata r...\n      JUMP \t\t\tbatchMint(address[] calldata r...\n    tag 718\t\t\tbatchMint(address[] calldata r...\n      JUMPDEST \t\t\tbatchMint(address[] calldata r...\n      SWAP2 \t\t\t function batchMint(address[] ...\n      POP \t\t\t function batchMint(address[] ...\n      POP \t\t\t Array of amounts to distribut...\n      SWAP3 \t\t\tr Address to remove as minter\\...\n      POP \t\t\tr Address to remove as minter\\...\n      SWAP3 \t\t\tr Address to remove as minter\\...\n      SWAP1 \t\t\tr Address to remove as minter\\...\n      POP \t\t\tr Address to remove as minter\\...\n      JUMP \t\t\tr Address to remove as minter\\...\n    tag 631\t\t\tl onlyMinter {\\r\\n        requ...\n      JUMPDEST \t\t\tl onlyMinter {\\r\\n        requ...\n      PUSH 0\t\t\tcipient\n      DUP2 \t\t\tlengt\n      ISZERO \t\t\tArrays length\n      ISZERO \t\t\tngth, \"Arrays length \n      SWAP1 \t\t\t amounts.length, \"Arrays lengt...\n      POP \t\t\t amounts.length, \"Arrays lengt...\n      SWAP2 \t\t\tl onlyMinter {\\r\\n        requ...\n      SWAP1 \t\t\tl onlyMinter {\\r\\n        requ...\n      POP \t\t\tl onlyMinter {\\r\\n        requ...\n      JUMP \t\t\tl onlyMinter {\\r\\n        requ...\n    tag 632\t\t\t\\n        \\r\\n        uint256 ...\n      JUMPDEST \t\t\t\\n        \\r\\n        uint256 ...\n      PUSH [tag] 721\t\t\tnts.length; i++) {\\r\\n \n      DUP2 \t\t\t) {\\r\\n\n      PUSH [tag] 631\t\t\tnts.length; i++) {\\r\\n \n      JUMP \t\t\tnts.length; i++) {\\r\\n \n    tag 721\t\t\tnts.length; i++) {\\r\\n \n      JUMPDEST \t\t\tnts.length; i++) {\\r\\n \n      DUP3 \t\t\t am\n      MSTORE \t\t\t 0; i < amounts.length; i++) {...\n      POP \t\t\t\\n        \\r\\n        uint256 ...\n      POP \t\t\t\\n        \\r\\n        uint256 ...\n      JUMP \t\t\t\\n        \\r\\n        uint256 ...\n    tag 50\t\t\ttalAmount += amounts[i];\\r\\n  ...\n      JUMPDEST \t\t\ttalAmount += amounts[i];\\r\\n  ...\n      PUSH 0\t\t\tunt \n      PUSH 20\t\t\t\")\n      DUP3 \t\t\t max supp\n      ADD \t\t\teeds max supply\");\n      SWAP1 \t\t\tLY, \"Exceeds max supply\");\n      POP \t\t\tLY, \"Exceeds max supply\");\n      PUSH [tag] 723\t\t\t\\r\\n        for (uint256 i = 0...\n      PUSH 0\t\t\t \n      DUP4 \t\t\t; i++) {\\r\n      ADD \t\t\tngth; i++) {\\r\\n   \n      DUP5 \t\t\tpients\n      PUSH [tag] 632\t\t\t\\r\\n        for (uint256 i = 0...\n      JUMP \t\t\t\\r\\n        for (uint256 i = 0...\n    tag 723\t\t\t\\r\\n        for (uint256 i = 0...\n      JUMPDEST \t\t\t\\r\\n        for (uint256 i = 0...\n      SWAP3 \t\t\ttalAmount += amounts[i];\\r\\n  ...\n      SWAP2 \t\t\ttalAmount += amounts[i];\\r\\n  ...\n      POP \t\t\ttalAmount += amounts[i];\\r\\n  ...\n      POP \t\t\ttalAmount += amounts[i];\\r\\n  ...\n      JUMP \t\t\ttalAmount += amounts[i];\\r\\n  ...\n    tag 633\t\t\t(recipients[i], amounts[i]);\\r...\n      JUMPDEST \t\t\t(recipients[i], amounts[i]);\\r...\n      PUSH [tag] 725\t\t\tity for multiple inherit\n      DUP2 \t\t\tnheri\n      PUSH [tag] 628\t\t\tity for multiple inherit\n      JUMP \t\t\tity for multiple inherit\n    tag 725\t\t\tity for multiple inherit\n      JUMPDEST \t\t\tity for multiple inherit\n      DUP3 \t\t\tSol\n      MSTORE \t\t\tred by Solidity for multiple i...\n      POP \t\t\t(recipients[i], amounts[i]);\\r...\n      POP \t\t\t(recipients[i], amounts[i]);\\r...\n      JUMP \t\t\t(recipients[i], amounts[i]);\\r...\n    tag 54\t\t\tction _update(address from, ad...\n      JUMPDEST \t\t\tction _update(address from, ad...\n      PUSH 0\t\t\t\\r\\n  \n      PUSH 20\t\t\te)\n      DUP3 \t\t\tm, to, va\n      ADD \t\t\t(from, to, value);\n      SWAP1 \t\t\t._update(from, to, value);\n      POP \t\t\t._update(from, to, value);\n      PUSH [tag] 727\t\t\t   \\r\\n    function nonces(add...\n      PUSH 0\t\t\t \n      DUP4 \t\t\tide(Nonce\n      ADD \t\t\tverride(Nonces) r\n      DUP5 \t\t\tic vie\n      PUSH [tag] 633\t\t\t   \\r\\n    function nonces(add...\n      JUMP \t\t\t   \\r\\n    function nonces(add...\n    tag 727\t\t\t   \\r\\n    function nonces(add...\n      JUMPDEST \t\t\t   \\r\\n    function nonces(add...\n      SWAP3 \t\t\tction _update(address from, ad...\n      SWAP2 \t\t\tction _update(address from, ad...\n      POP \t\t\tction _update(address from, ad...\n      POP \t\t\tction _update(address from, ad...\n      JUMP \t\t\tction _update(address from, ad...\n    tag 57\t\t\t6) {\\r\\n        return super.n...\n      JUMPDEST \t\t\t6) {\\r\\n        return super.n...\n      PUSH 0\t\t\tow\\r\\n *\n      PUSH 0\t\t\tdev Se\n      PUSH 0\t\t\tre esc\n      PUSH 60\t\t\th \n      DUP5 \t\t\tpayments \n      DUP7 \t\t\tance gi\n      SUB \t\t\treelance gig payments w\n      SLT \t\t\tor freelance gig payments with...\n      ISZERO \t\t\tt for freelance gig payments w...\n      PUSH [tag] 729\t\t\tt for freelance gig payments w...\n      JUMPI \t\t\tt for freelance gig payments w...\n      PUSH [tag] 730\t\t\tbased mapping\\r\\n * @notice Ha...\n      PUSH [tag] 622\t\t\tbased mapping\\r\\n * @notice Ha...\n      JUMP \t\t\tbased mapping\\r\\n * @notice Ha...\n    tag 730\t\t\tbased mapping\\r\\n * @notice Ha...\n      JUMPDEST \t\t\tbased mapping\\r\\n * @notice Ha...\n    tag 729\t\t\tt for freelance gig payments w...\n      JUMPDEST \t\t\tt for freelance gig payments w...\n      PUSH 0\t\t\t \n      PUSH [tag] 731\t\t\tble, Pausable {\\r\\n    \\r\\n   ...\n      DUP7 \t\t\t{\\r\\n    \n      DUP3 \t\t\towStat\n      DUP8 \t\t\t  enum Es\n      ADD \t\t\t\\r\\n    enum EscrowStatu\n      PUSH [tag] 627\t\t\tble, Pausable {\\r\\n    \\r\\n   ...\n      JUMP \t\t\tble, Pausable {\\r\\n    \\r\\n   ...\n    tag 731\t\t\tble, Pausable {\\r\\n    \\r\\n   ...\n      JUMPDEST \t\t\tble, Pausable {\\r\\n    \\r\\n   ...\n      SWAP4 \t\t\tuard, Ownable, Pausable {\\r\\n ...\n      POP \t\t\tuard, Ownable, Pausable {\\r\\n ...\n      POP \t\t\tgigs\\r\\n */\\r\\ncontract GigEsc...\n      PUSH 20\t\t\t  \n      PUSH [tag] 732\t\t\teelancer working, funds secure...\n      DUP7 \t\t\tleted, \n      DUP3 \t\t\t     C\n      DUP8 \t\t\tecured\\r\\n \n      ADD \t\t\tds secured\\r\\n        Co\n      PUSH [tag] 627\t\t\teelancer working, funds secure...\n      JUMP \t\t\teelancer working, funds secure...\n    tag 732\t\t\teelancer working, funds secure...\n      JUMPDEST \t\t\teelancer working, funds secure...\n      SWAP3 \t\t\t     // Freelancer working, fu...\n      POP \t\t\t     // Freelancer working, fu...\n      POP \t\t\tscrow created, funds locked\\r\\...\n      PUSH 40\t\t\tle\n      PUSH [tag] 733\t\t\tunds refunded\\r\\n        Dispu...\n      DUP7 \t\t\te raise\n      DUP3 \t\t\t// Dis\n      DUP8 \t\t\tsputed   \n      ADD \t\t\t  Disputed     // Disp\n      PUSH [tag] 630\t\t\tunds refunded\\r\\n        Dispu...\n      JUMP \t\t\tunds refunded\\r\\n        Dispu...\n    tag 733\t\t\tunds refunded\\r\\n        Dispu...\n      JUMPDEST \t\t\tunds refunded\\r\\n        Dispu...\n      SWAP2 \t\t\tncelled, funds refunded\\r\\n   ...\n      POP \t\t\tncelled, funds refunded\\r\\n   ...\n      POP \t\t\tunds released\\r\\n        Cance...\n      SWAP3 \t\t\t6) {\\r\\n        return super.n...\n      POP \t\t\t6) {\\r\\n        return super.n...\n      SWAP3 \t\t\t6) {\\r\\n        return super.n...\n      POP \t\t\t6) {\\r\\n        return super.n...\n      SWAP3 \t\t\t6) {\\r\\n        return super.n...\n      JUMP \t\t\t6) {\\r\\n        return super.n...\n    tag 65\t\t\t    }\\r\\n    \\r\\n    struct Es...\n      JUMPDEST \t\t\t    }\\r\\n    \\r\\n    struct Es...\n      PUSH 0\t\t\t;\\r\\n   \n      PUSH 20\t\t\tan\n      DUP3 \t\t\tddress fr\n      DUP5 \t\t\t       \n      SUB \t\t\tt;\\r\\n        address fre\n      SLT \t\t\tlient;\\r\\n        address free...\n      ISZERO \t\t\ts client;\\r\\n        address f...\n      PUSH [tag] 735\t\t\ts client;\\r\\n        address f...\n      JUMPI \t\t\ts client;\\r\\n        address f...\n      PUSH [tag] 736\t\t\t\\r\\n        uint256 amount;\\r\\...\n      PUSH [tag] 622\t\t\t\\r\\n        uint256 amount;\\r\\...\n      JUMP \t\t\t\\r\\n        uint256 amount;\\r\\...\n    tag 736\t\t\t\\r\\n        uint256 amount;\\r\\...\n      JUMPDEST \t\t\t\\r\\n        uint256 amount;\\r\\...\n    tag 735\t\t\ts client;\\r\\n        address f...\n      JUMPDEST \t\t\ts client;\\r\\n        address f...\n      PUSH 0\t\t\to\n      PUSH [tag] 737\t\t\t\\n    // State variables\\r\\n  ...\n      DUP5 \t\t\t=> Escr\n      DUP3 \t\t\t(uint2\n      DUP6 \t\t\t    mappi\n      ADD \t\t\tes\\r\\n    mapping(uint25\n      PUSH [tag] 627\t\t\t\\n    // State variables\\r\\n  ...\n      JUMP \t\t\t\\n    // State variables\\r\\n  ...\n    tag 737\t\t\t\\n    // State variables\\r\\n  ...\n      JUMPDEST \t\t\t\\n    // State variables\\r\\n  ...\n      SWAP2 \t\t\t  }\\r\\n    \\r\\n    // State va...\n      POP \t\t\t  }\\r\\n    \\r\\n    // State va...\n      POP \t\t\t  string gigTitle;\\r\\n        ...\n      SWAP3 \t\t\t    }\\r\\n    \\r\\n    struct Es...\n      SWAP2 \t\t\t    }\\r\\n    \\r\\n    struct Es...\n      POP \t\t\t    }\\r\\n    \\r\\n    struct Es...\n      POP \t\t\t    }\\r\\n    \\r\\n    struct Es...\n      JUMP \t\t\t    }\\r\\n    \\r\\n    struct Es...\n    tag 634\t\t\t\\n    mapping(address => uint2...\n      JUMPDEST \t\t\t\\n    mapping(address => uint2...\n      PUSH 0\t\t\tpublic \n      PUSH FF\t\t\tss =\n      DUP3 \t\t\tg(add\n      AND \t\t\tpping(address =>\n      SWAP1 \t\t\tws;\\r\\n    mapping(address =>\n      POP \t\t\tws;\\r\\n    mapping(address =>\n      SWAP2 \t\t\t\\n    mapping(address => uint2...\n      SWAP1 \t\t\t\\n    mapping(address => uint2...\n      POP \t\t\t\\n    mapping(address => uint2...\n      JUMP \t\t\t\\n    mapping(address => uint2...\n    tag 635\t\t\tpublic freelancerEscrows;\\r\\n ...\n      JUMPDEST \t\t\tpublic freelancerEscrows;\\r\\n ...\n      PUSH [tag] 740\t\t\t, 100 = 1%)\\r\\n    uint2\n      DUP2 \t\t\t uint\n      PUSH [tag] 634\t\t\t, 100 = 1%)\\r\\n    uint2\n      JUMP \t\t\t, 100 = 1%)\\r\\n    uint2\n    tag 740\t\t\t, 100 = 1%)\\r\\n    uint2\n      JUMPDEST \t\t\t, 100 = 1%)\\r\\n    uint2\n      DUP3 \t\t\toin\n      MSTORE \t\t\tbasis points, 100 = 1%)\\r\\n   ...\n      POP \t\t\tpublic freelancerEscrows;\\r\\n ...\n      POP \t\t\tpublic freelancerEscrows;\\r\\n ...\n      JUMP \t\t\tpublic freelancerEscrows;\\r\\n ...\n    tag 70\t\t\ttformFee = 250; // 2.5%\\r\\n   ...\n      JUMPDEST \t\t\ttformFee = 250; // 2.5%\\r\\n   ...\n      PUSH 0\t\t\t Esc\n      PUSH 20\t\t\ted\n      DUP3 \t\t\tnt256 ind\n      ADD \t\t\t  uint256 indexed \n      SWAP1 \t\t\t\\r\\n        uint256 indexed \n      POP \t\t\t\\r\\n        uint256 indexed \n      PUSH [tag] 742\t\t\t      address indexed client,\\...\n      PUSH 0\t\t\tr\n      DUP4 \t\t\td freelan\n      ADD \t\t\tdexed freelancer,\n      DUP5 \t\t\tddress\n      PUSH [tag] 635\t\t\t      address indexed client,\\...\n      JUMP \t\t\t      address indexed client,\\...\n    tag 742\t\t\t      address indexed client,\\...\n      JUMPDEST \t\t\t      address indexed client,\\...\n      SWAP3 \t\t\ttformFee = 250; // 2.5%\\r\\n   ...\n      SWAP2 \t\t\ttformFee = 250; // 2.5%\\r\\n   ...\n      POP \t\t\ttformFee = 250; // 2.5%\\r\\n   ...\n      POP \t\t\ttformFee = 250; // 2.5%\\r\\n   ...\n      JUMP \t\t\ttformFee = 250; // 2.5%\\r\\n   ...\n    tag 636\t\t\t256 amount,\\r\\n        string ...\n      JUMPDEST \t\t\t256 amount,\\r\\n        string ...\n      PUSH [tag] 744\t\t\tnt256 indexed gigId,\\r\\n  \n      DUP2 \t\t\td,\\r\\n \n      PUSH [tag] 625\t\t\tnt256 indexed gigId,\\r\\n  \n      JUMP \t\t\tnt256 indexed gigId,\\r\\n  \n    tag 744\t\t\tnt256 indexed gigId,\\r\\n  \n      JUMPDEST \t\t\tnt256 indexed gigId,\\r\\n  \n      DUP3 \t\t\t   \n      MSTORE \t\t\t\\r\\n        uint256 indexed gi...\n      POP \t\t\t256 amount,\\r\\n        string ...\n      POP \t\t\t256 amount,\\r\\n        string ...\n      JUMP \t\t\t256 amount,\\r\\n        string ...\n    tag 88\t\t\t indexed client,\\r\\n        ui...\n      JUMPDEST \t\t\t indexed client,\\r\\n        ui...\n      PUSH 0\t\t\tnt25\n      PUSH 20\t\t\tin\n      DUP3 \t\t\t   addres\n      ADD \t\t\t       address ind\n      SWAP1 \t\t\tigId,\\r\\n        address ind\n      POP \t\t\tigId,\\r\\n        address ind\n      PUSH [tag] 746\t\t\tancer,\\r\\n        uint256 amou...\n      PUSH 0\t\t\te\n      DUP4 \t\t\tscrowRefu\n      ADD \t\t\tnt EscrowRefunded\n      DUP5 \t\t\t\\r\\n    \n      PUSH [tag] 636\t\t\tancer,\\r\\n        uint256 amou...\n      JUMP \t\t\tancer,\\r\\n        uint256 amou...\n    tag 746\t\t\tancer,\\r\\n        uint256 amou...\n      JUMPDEST \t\t\tancer,\\r\\n        uint256 amou...\n      SWAP3 \t\t\t indexed client,\\r\\n        ui...\n      SWAP2 \t\t\t indexed client,\\r\\n        ui...\n      POP \t\t\t indexed client,\\r\\n        ui...\n      POP \t\t\t indexed client,\\r\\n        ui...\n      JUMP \t\t\t indexed client,\\r\\n        ui...\n    tag 637\t\t\tt256 indexed gigId,\\r\\n       ...\n      JUMPDEST \t\t\tt256 indexed gigId,\\r\\n       ...\n      PUSH 0\t\t\t\\n\n      PUSH 0\t\t\tr\n      REVERT \t\t\tModifiers\\r\\n \n    tag 638\t\t\tvalidGig(uint256 gigId) {\\r\\n ...\n      JUMPDEST \t\t\tvalidGig(uint256 gigId) {\\r\\n ...\n      PUSH 0\t\t\t \n      PUSH 0\t\t\t;\n      REVERT \t\t\t      _;\\r\\n  \n    tag 639\t\t\t   modifier onlyClient(uint256...\n      JUMPDEST \t\t\t   modifier onlyClient(uint256...\n      PUSH 0\t\t\tn\n      PUSH 0\t\t\t \n      REVERT \t\t\t client can \n    tag 640\t\t\t }\\r\\n    \\r\\n    modifier onl...\n      JUMPDEST \t\t\t }\\r\\n    \\r\\n    modifier onl...\n      PUSH 0\t\t\tsg.sende\n      PUSH 0\t\t\t== esc\n      DUP4 \t\t\t ca\n      PUSH 1F\t\t\tcer \n      DUP5 \t\t\t freel\n      ADD \t\t\tOnly freelancer c\n      SLT \t\t\tr, \"Only freelancer can cal\n      PUSH [tag] 751\t\t\t.freelancer, \"Only freelancer ...\n      JUMPI \t\t\t.freelancer, \"Only freelancer ...\n      PUSH [tag] 752\t\t\tis\");\\r\\n        _;\\r\\n    }\\r...\n      PUSH [tag] 637\t\t\tis\");\\r\\n        _;\\r\\n    }\\r...\n      JUMP \t\t\tis\");\\r\\n        _;\\r\\n    }\\r...\n    tag 752\t\t\tis\");\\r\\n        _;\\r\\n    }\\r...\n      JUMPDEST \t\t\tis\");\\r\\n        _;\\r\\n    }\\r...\n    tag 751\t\t\t.freelancer, \"Only freelancer ...\n      JUMPDEST \t\t\t.freelancer, \"Only freelancer ...\n      DUP3 \t\t\t) {\\r\\n \n      CALLDATALOAD \t\t\t(initialOwner) {\\r\\n  \n      SWAP1 \t\t\tt) Ownable(initialOwner) {\\r\\n...\n      POP \t\t\tt) Ownable(initialOwner) {\\r\\n...\n      PUSH FFFFFFFFFFFFFFFF\t\t\teeRecipient;\\r\\n    \n      DUP2 \t\t\tent = \n      GT \t\t\tipient = _feeRecipient;\\r\\n   ...\n      ISZERO \t\t\tRecipient = _feeRecipient;\\r\\n...\n      PUSH [tag] 753\t\t\tRecipient = _feeRecipient;\\r\\n...\n      JUMPI \t\t\tRecipient = _feeRecipient;\\r\\n...\n      PUSH [tag] 754\t\t\t   \\r\\n    /**\\r\\n     * @dev ...\n      PUSH [tag] 638\t\t\t   \\r\\n    /**\\r\\n     * @dev ...\n      JUMP \t\t\t   \\r\\n    /**\\r\\n     * @dev ...\n    tag 754\t\t\t   \\r\\n    /**\\r\\n     * @dev ...\n      JUMPDEST \t\t\t   \\r\\n    /**\\r\\n     * @dev ...\n    tag 753\t\t\tRecipient = _feeRecipient;\\r\\n...\n      JUMPDEST \t\t\tRecipient = _feeRecipient;\\r\\n...\n      PUSH 20\t\t\tg\\r\\n \n      DUP4 \t\t\tr the \n      ADD \t\t\tr for the gig\\r\\n  \n      SWAP2 \t\t\tue identifier for the gig\\r\\n ...\n      POP \t\t\tue identifier for the gig\\r\\n ...\n      DUP4 \t\t\t\\n  \n      PUSH 20\t\t\telan\n      DUP3 \t\t\t the f\n      MUL \t\t\ts of the freelanc\n      DUP4 \t\t\tcer Addr\n      ADD \t\t\telancer Address of the freelan...\n      GT \t\t\tfreelancer Address of the free...\n      ISZERO \t\t\tam freelancer Address of the f...\n      PUSH [tag] 755\t\t\tam freelancer Address of the f...\n      JUMPI \t\t\tam freelancer Address of the f...\n      PUSH [tag] 756\t\t\t @param gigTitle Title of the ...\n      PUSH [tag] 639\t\t\t @param gigTitle Title of the ...\n      JUMP \t\t\t @param gigTitle Title of the ...\n    tag 756\t\t\t @param gigTitle Title of the ...\n      JUMPDEST \t\t\t @param gigTitle Title of the ...\n    tag 755\t\t\tam freelancer Address of the f...\n      JUMPDEST \t\t\tam freelancer Address of the f...\n      SWAP3 \t\t\t }\\r\\n    \\r\\n    modifier onl...\n      POP \t\t\t }\\r\\n    \\r\\n    modifier onl...\n      SWAP3 \t\t\t }\\r\\n    \\r\\n    modifier onl...\n      SWAP1 \t\t\t }\\r\\n    \\r\\n    modifier onl...\n      POP \t\t\t }\\r\\n    \\r\\n    modifier onl...\n      JUMP \t\t\t }\\r\\n    \\r\\n    modifier onl...\n    tag 641\t\t\ts freelancer,\\r\\n        strin...\n      JUMPDEST \t\t\ts freelancer,\\r\\n        strin...\n      PUSH 0\t\t\tonReentr\n      PUSH 0\t\t\tt when\n      DUP4 \t\t\tddr\n      PUSH 1F\t\t\ter !\n      DUP5 \t\t\tfreela\n      ADD \t\t\tire(freelancer !=\n      SLT \t\t\trequire(freelancer != addre\n      PUSH [tag] 758\t\t\t\\r\\n        require(freelancer...\n      JUMPI \t\t\t\\r\\n        require(freelancer...\n      PUSH [tag] 759\t\t\t), \"Invalid freelancer address...\n      PUSH [tag] 637\t\t\t), \"Invalid freelancer address...\n      JUMP \t\t\t), \"Invalid freelancer address...\n    tag 759\t\t\t), \"Invalid freelancer address...\n      JUMPDEST \t\t\t), \"Invalid freelancer address...\n    tag 758\t\t\t\\r\\n        require(freelancer...\n      JUMPDEST \t\t\t\\r\\n        require(freelancer...\n      DUP3 \t\t\t same\"\n      CALLDATALOAD \t\t\tcannot be the same\")\n      SWAP1 \t\t\treelancer cannot be the same\")\n      POP \t\t\treelancer cannot be the same\")\n      PUSH FFFFFFFFFFFFFFFF\t\t\tvalue > 0, \"Amount\n      DUP2 \t\t\tire(ms\n      GT \t\t\tequire(msg.value > 0, \"Amount \n      ISZERO \t\t\t  require(msg.value > 0, \"Amou...\n      PUSH [tag] 760\t\t\t  require(msg.value > 0, \"Amou...\n      JUMPI \t\t\t  require(msg.value > 0, \"Amou...\n      PUSH [tag] 761\t\t\tt be greater than 0\");\\r\\n    ...\n      PUSH [tag] 638\t\t\tt be greater than 0\");\\r\\n    ...\n      JUMP \t\t\tt be greater than 0\");\\r\\n    ...\n    tag 761\t\t\tt be greater than 0\");\\r\\n    ...\n      JUMPDEST \t\t\tt be greater than 0\");\\r\\n    ...\n    tag 760\t\t\t  require(msg.value > 0, \"Amou...\n      JUMPDEST \t\t\t  require(msg.value > 0, \"Amou...\n      PUSH 20\t\t\tquir\n      DUP4 \t\t\t      \n      ADD \t\t\t\\r\\n        require\n      SWAP2 \t\t\t this gig\");\\r\\n        requir...\n      POP \t\t\t this gig\");\\r\\n        requir...\n      DUP4 \t\t\t em\n      PUSH 20\t\t\tanno\n      DUP3 \t\t\t title\n      MUL \t\t\t\"Gig title cannot\n      DUP4 \t\t\tngth > 0\n      ADD \t\t\t).length > 0, \"Gig title canno...\n      GT \t\t\ttle).length > 0, \"Gig title ca...\n      ISZERO \t\t\tgTitle).length > 0, \"Gig title...\n      PUSH [tag] 762\t\t\tgTitle).length > 0, \"Gig title...\n      JUMPI \t\t\tgTitle).length > 0, \"Gig title...\n      PUSH [tag] 763\t\t\t);\\r\\n        \\r\\n        escr...\n      PUSH [tag] 639\t\t\t);\\r\\n        \\r\\n        escr...\n      JUMP \t\t\t);\\r\\n        \\r\\n        escr...\n    tag 763\t\t\t);\\r\\n        \\r\\n        escr...\n      JUMPDEST \t\t\t);\\r\\n        \\r\\n        escr...\n    tag 762\t\t\tgTitle).length > 0, \"Gig title...\n      JUMPDEST \t\t\tgTitle).length > 0, \"Gig title...\n      SWAP3 \t\t\ts freelancer,\\r\\n        strin...\n      POP \t\t\ts freelancer,\\r\\n        strin...\n      SWAP3 \t\t\ts freelancer,\\r\\n        strin...\n      SWAP1 \t\t\ts freelancer,\\r\\n        strin...\n      POP \t\t\ts freelancer,\\r\\n        strin...\n      JUMP \t\t\ts freelancer,\\r\\n        strin...\n    tag 94\t\t\tlient: msg.sender,\\r\\n        ...\n      JUMPDEST \t\t\tlient: msg.sender,\\r\\n        ...\n      PUSH 0\t\t\tPendin\n      PUSH 0\t\t\t\\r\\n    \n      PUSH 0\t\t\t      \n      PUSH 0\t\t\teatedA\n      PUSH 40\t\t\tgi\n      DUP6 \t\t\t  gigTitl\n      DUP8 \t\t\t       \n      SUB \t\t\t,\\r\\n            gigTitle\n      SLT \t\t\ttamp,\\r\\n            gigTitle:...\n      ISZERO \t\t\tmestamp,\\r\\n            gigTit...\n      PUSH [tag] 765\t\t\tmestamp,\\r\\n            gigTit...\n      JUMPI \t\t\tmestamp,\\r\\n            gigTit...\n      PUSH [tag] 766\t\t\tle,\\r\\n            exists: tru...\n      PUSH [tag] 622\t\t\tle,\\r\\n            exists: tru...\n      JUMP \t\t\tle,\\r\\n            exists: tru...\n    tag 766\t\t\tle,\\r\\n            exists: tru...\n      JUMPDEST \t\t\tle,\\r\\n            exists: tru...\n    tag 765\t\t\tmestamp,\\r\\n            gigTit...\n      JUMPDEST \t\t\tmestamp,\\r\\n            gigTit...\n      PUSH 0\t\t\tI\n      DUP6 \t\t\tr].push(g\n      ADD \t\t\tancer].push(gigId\n      CALLDATALOAD \t\t\tEscrows[freelancer].push(gigId...\n      PUSH FFFFFFFFFFFFFFFF\t\t\tscrowCreated(gigId\n      DUP2 \t\t\t  emit\n      GT \t\t\t     emit EscrowCreated(gigId,\n      ISZERO \t\t\t        emit EscrowCreated(gig...\n      PUSH [tag] 767\t\t\t        emit EscrowCreated(gig...\n      JUMPI \t\t\t        emit EscrowCreated(gig...\n      PUSH [tag] 768\t\t\tg.sender, freelancer, msg.valu...\n      PUSH [tag] 623\t\t\tg.sender, freelancer, msg.valu...\n      JUMP \t\t\tg.sender, freelancer, msg.valu...\n    tag 768\t\t\tg.sender, freelancer, msg.valu...\n      JUMPDEST \t\t\tg.sender, freelancer, msg.valu...\n    tag 767\t\t\t        emit EscrowCreated(gig...\n      JUMPDEST \t\t\t        emit EscrowCreated(gig...\n      PUSH [tag] 769\t\t\t \\r\\n    /**\\r\\n     * @dev Re...\n      DUP8 \t\t\te by cl\n      DUP3 \t\t\ty call\n      DUP9 \t\t\tlancer (o\n      ADD \t\t\tfreelancer (only calla\n      PUSH [tag] 640\t\t\t \\r\\n    /**\\r\\n     * @dev Re...\n      JUMP \t\t\t \\r\\n    /**\\r\\n     * @dev Re...\n    tag 769\t\t\t \\r\\n    /**\\r\\n     * @dev Re...\n      JUMPDEST \t\t\t \\r\\n    /**\\r\\n     * @dev Re...\n      SWAP5 \t\t\talue);\\r\\n    }\\r\\n    \\r\\n   ...\n      POP \t\t\talue);\\r\\n    }\\r\\n    \\r\\n   ...\n      SWAP5 \t\t\talue);\\r\\n    }\\r\\n    \\r\\n   ...\n      POP \t\t\talue);\\r\\n    }\\r\\n    \\r\\n   ...\n      POP \t\t\th(gigId);\\r\\n        freelance...\n      PUSH 20\t\t\tui\n      DUP6 \t\t\teaseEscro\n      ADD \t\t\t releaseEscrow(uin\n      CALLDATALOAD \t\t\t\\n    function releaseEscrow(u...\n      PUSH FFFFFFFFFFFFFFFF\t\t\tg(gigId) onlyClien\n      DUP2 \t\t\t valid\n      GT \t\t\tnal validGig(gigId) onlyClient\n      ISZERO \t\t\tternal validGig(gigId) onlyCli...\n      PUSH [tag] 770\t\t\tternal validGig(gigId) onlyCli...\n      JUMPI \t\t\tternal validGig(gigId) onlyCli...\n      PUSH [tag] 771\t\t\tgId) nonReentrant {\\r\\n       ...\n      PUSH [tag] 623\t\t\tgId) nonReentrant {\\r\\n       ...\n      JUMP \t\t\tgId) nonReentrant {\\r\\n       ...\n    tag 771\t\t\tgId) nonReentrant {\\r\\n       ...\n      JUMPDEST \t\t\tgId) nonReentrant {\\r\\n       ...\n    tag 770\t\t\tternal validGig(gigId) onlyCli...\n      JUMPDEST \t\t\tternal validGig(gigId) onlyCli...\n      PUSH [tag] 772\t\t\t escrow.status == EscrowStatus...\n      DUP8 \t\t\tActive,\n      DUP3 \t\t\towStat\n      DUP9 \t\t\ttus == Es\n      ADD \t\t\t.status == EscrowStatu\n      PUSH [tag] 641\t\t\t escrow.status == EscrowStatus...\n      JUMP \t\t\t escrow.status == EscrowStatus...\n    tag 772\t\t\t escrow.status == EscrowStatus...\n      JUMPDEST \t\t\t escrow.status == EscrowStatus...\n      SWAP3 \t\t\tuire(\\r\\n            escrow.st...\n      POP \t\t\tuire(\\r\\n            escrow.st...\n      SWAP3 \t\t\tuire(\\r\\n            escrow.st...\n      POP \t\t\tuire(\\r\\n            escrow.st...\n      POP \t\t\tgigId ID of the gig\\r\\n     */...\n      SWAP3 \t\t\tlient: msg.sender,\\r\\n        ...\n      SWAP6 \t\t\tlient: msg.sender,\\r\\n        ...\n      SWAP2 \t\t\tlient: msg.sender,\\r\\n        ...\n      SWAP5 \t\t\tlient: msg.sender,\\r\\n        ...\n      POP \t\t\tlient: msg.sender,\\r\\n        ...\n      SWAP3 \t\t\tlient: msg.sender,\\r\\n        ...\n      POP \t\t\tlient: msg.sender,\\r\\n        ...\n      JUMP \t\t\tlient: msg.sender,\\r\\n        ...\n    tag 642\t\t\tnnot be released\"\\r\\n        )...\n      JUMPDEST \t\t\tnnot be released\"\\r\\n        )...\n      PUSH 0\t\t\t   \\r\\n  \n      PUSH FFFFFFFF\t\t\ts.Complete\n      DUP3 \t\t\towSta\n      AND \t\t\tEscrowStatus.Completed\n      SWAP1 \t\t\tw.status = EscrowStatus.Comple...\n      POP \t\t\tw.status = EscrowStatus.Comple...\n      SWAP2 \t\t\tnnot be released\"\\r\\n        )...\n      SWAP1 \t\t\tnnot be released\"\\r\\n        )...\n      POP \t\t\tnnot be released\"\\r\\n        )...\n      JUMP \t\t\tnnot be released\"\\r\\n        )...\n    tag 643\t\t\t\\n        uint256 amount = esc...\n      JUMPDEST \t\t\t\\n        uint256 amount = esc...\n      PUSH [tag] 775\t\t\t   // Calculate platfor\n      DUP2 \t\t\tlatfo\n      PUSH [tag] 642\t\t\t   // Calculate platfor\n      JUMP \t\t\t   // Calculate platfor\n    tag 775\t\t\t   // Calculate platfor\n      JUMPDEST \t\t\t   // Calculate platfor\n      DUP3 \t\t\t   \n      MSTORE \t\t\t     \\r\\n        // Calculate ...\n      POP \t\t\t\\n        uint256 amount = esc...\n      POP \t\t\t\\n        uint256 amount = esc...\n      JUMP \t\t\t\\n        uint256 amount = esc...\n    tag 100\t\t\t  uint256 fee = (amount * plat...\n      JUMPDEST \t\t\t  uint256 fee = (amount * plat...\n      PUSH 0\t\t\t    \n      PUSH 20\t\t\ttf\n      DUP3 \t\t\t fee to p\n      ADD \t\t\tsfer fee to platfo\n      SWAP1 \t\t\t // Transfer fee to platfo\n      POP \t\t\t // Transfer fee to platfo\n      PUSH [tag] 777\t\t\t  if (fee > 0 && feeRecipient ...\n      PUSH 0\t\t\tf\n      DUP4 \t\t\t     (boo\n      ADD \t\t\t         (bool fe\n      DUP5 \t\t\t)) {\\r\\n\n      PUSH [tag] 643\t\t\t  if (fee > 0 && feeRecipient ...\n      JUMP \t\t\t  if (fee > 0 && feeRecipient ...\n    tag 777\t\t\t  if (fee > 0 && feeRecipient ...\n      JUMPDEST \t\t\t  if (fee > 0 && feeRecipient ...\n      SWAP3 \t\t\t  uint256 fee = (amount * plat...\n      SWAP2 \t\t\t  uint256 fee = (amount * plat...\n      POP \t\t\t  uint256 fee = (amount * plat...\n      POP \t\t\t  uint256 fee = (amount * plat...\n      JUMP \t\t\t  uint256 fee = (amount * plat...\n    tag 644\t\t\tfeeRecipient.call{value: fee}(...\n      JUMPDEST \t\t\tfeeRecipient.call{value: fee}(...\n      PUSH 0\t\t\t       \n      PUSH FF00000000000000000000000000000000000000000000000000000000000000\t\t\tnsfer failed\");\\r\\n        }\\r...\n      DUP3 \t\t\tFee t\n      AND \t\t\ts, \"Fee transfer failed\");\\r\\n...\n      SWAP1 \t\t\te(feeSuccess, \"Fee transfer fa...\n      POP \t\t\te(feeSuccess, \"Fee transfer fa...\n      SWAP2 \t\t\tfeeRecipient.call{value: fee}(...\n      SWAP1 \t\t\tfeeRecipient.call{value: fee}(...\n      POP \t\t\tfeeRecipient.call{value: fee}(...\n      JUMP \t\t\tfeeRecipient.call{value: fee}(...\n    tag 645\t\t\treelancer\\r\\n        (bool suc...\n      JUMPDEST \t\t\treelancer\\r\\n        (bool suc...\n      PUSH [tag] 780\t\t\t     require(success, \"\n      DUP2 \t\t\tess, \n      PUSH [tag] 644\t\t\t     require(success, \"\n      JUMP \t\t\t     require(success, \"\n    tag 780\t\t\t     require(success, \"\n      JUMPDEST \t\t\t     require(success, \"\n      DUP3 \t\t\t\\r\\n \n      MSTORE \t\t\tt}(\"\");\\r\\n        require(suc...\n      POP \t\t\treelancer\\r\\n        (bool suc...\n      POP \t\t\treelancer\\r\\n        (bool suc...\n      JUMP \t\t\treelancer\\r\\n        (bool suc...\n    tag 646\t\t\treelancer failed\");\\r\\n       ...\n      JUMPDEST \t\t\treelancer failed\");\\r\\n       ...\n      PUSH 0\t\t\t  emit \n      DUP2 \t\t\tescro\n      SWAP1 \t\t\tsed(gigId, escro\n      POP \t\t\tsed(gigId, escro\n      SWAP2 \t\t\treelancer failed\");\\r\\n       ...\n      SWAP1 \t\t\treelancer failed\");\\r\\n       ...\n      POP \t\t\treelancer failed\");\\r\\n       ...\n      JUMP \t\t\treelancer failed\");\\r\\n       ...\n    tag 647\t\t\t, payout);\\r\\n    }\\r\\n    \\r\\...\n      JUMPDEST \t\t\t, payout);\\r\\n    }\\r\\n    \\r\\...\n      PUSH [tag] 783\t\t\t client)\\r\\n     * @param \n      DUP2 \t\t\tparam\n      PUSH [tag] 646\t\t\t client)\\r\\n     * @param \n      JUMP \t\t\t client)\\r\\n     * @param \n    tag 783\t\t\t client)\\r\\n     * @param \n      JUMPDEST \t\t\t client)\\r\\n     * @param \n      DUP3 \t\t\tle \n      MSTORE \t\t\t callable by client)\\r\\n     *...\n      POP \t\t\t, payout);\\r\\n    }\\r\\n    \\r\\...\n      POP \t\t\t, payout);\\r\\n    }\\r\\n    \\r\\...\n      JUMP \t\t\t, payout);\\r\\n    }\\r\\n    \\r\\...\n    tag 648\t\t\the gig\\r\\n     */\\r\\n    funct...\n      JUMPDEST \t\t\the gig\\r\\n     */\\r\\n    funct...\n      PUSH 0\t\t\tvalidG\n      DUP2 \t\t\tnonRe\n      MLOAD \t\t\tigId) nonRee\n      SWAP1 \t\t\tlyClient(gigId) nonRee\n      POP \t\t\tlyClient(gigId) nonRee\n      SWAP2 \t\t\the gig\\r\\n     */\\r\\n    funct...\n      SWAP1 \t\t\the gig\\r\\n     */\\r\\n    funct...\n      POP \t\t\the gig\\r\\n     */\\r\\n    funct...\n      JUMP \t\t\the gig\\r\\n     */\\r\\n    funct...\n    tag 649\t\t\t     EscrowData storage escrow...\n      JUMPDEST \t\t\t     EscrowData storage escrow...\n      PUSH 0\t\t\tatus == Esc\n      DUP3 \t\t\tcrow.s\n      DUP3 \t\t\t|| \n      MSTORE \t\t\tending || escrow.st\n      PUSH 20\t\t\t    \n      DUP3 \t\t\t\\r\\n \n      ADD \t\t\tive,\\r\\n        \n      SWAP1 \t\t\tscrowStatus.Active,\\r\\n       ...\n      POP \t\t\tscrowStatus.Active,\\r\\n       ...\n      SWAP3 \t\t\t     EscrowData storage escrow...\n      SWAP2 \t\t\t     EscrowData storage escrow...\n      POP \t\t\t     EscrowData storage escrow...\n      POP \t\t\t     EscrowData storage escrow...\n      JUMP \t\t\t     EscrowData storage escrow...\n    tag 650\t\t\tcannot be refunded\"\\r\\n       ...\n      JUMPDEST \t\t\tcannot be refunded\"\\r\\n       ...\n      PUSH 0\t\t\tEscr\n      DUP2 \t\t\t\\r\\n \n      SWAP1 \t\t\tncelled;\\r\\n \n      POP \t\t\tncelled;\\r\\n \n      PUSH 20\t\t\tount\n      DUP3 \t\t\t56 \n      ADD \t\t\tint256 amount \n      SWAP1 \t\t\t       uint256 amount \n      POP \t\t\t       uint256 amount \n      SWAP2 \t\t\tcannot be refunded\"\\r\\n       ...\n      SWAP1 \t\t\tcannot be refunded\"\\r\\n       ...\n      POP \t\t\tcannot be refunded\"\\r\\n       ...\n      JUMP \t\t\tcannot be refunded\"\\r\\n       ...\n    tag 651\t\t\tnt;\\r\\n        escrow.amount =...\n      JUMPDEST \t\t\tnt;\\r\\n        escrow.amount =...\n      PUSH [tag] 788\t\t\tlient (no fee deduction \n      DUP2 \t\t\tction\n      PUSH [tag] 628\t\t\tlient (no fee deduction \n      JUMP \t\t\tlient (no fee deduction \n    tag 788\t\t\tlient (no fee deduction \n      JUMPDEST \t\t\tlient (no fee deduction \n      DUP3 \t\t\t to\n      MSTORE \t\t\t amount to client (no fee dedu...\n      POP \t\t\tnt;\\r\\n        escrow.amount =...\n      POP \t\t\tnt;\\r\\n        escrow.amount =...\n      JUMP \t\t\tnt;\\r\\n        escrow.amount =...\n    tag 652\t\t\tions)\\r\\n        (bool success...\n      JUMPDEST \t\t\tions)\\r\\n        (bool success...\n      PUSH 0\t\t\t\");\\r\\n     \n      PUSH [tag] 790\t\t\tsuccess, \"Refund to client fai...\n      DUP4 \t\t\t   \n      DUP4 \t\t\t);\\r\\n  \n      PUSH [tag] 651\t\t\tsuccess, \"Refund to client fai...\n      JUMP \t\t\tsuccess, \"Refund to client fai...\n    tag 790\t\t\tsuccess, \"Refund to client fai...\n      JUMPDEST \t\t\tsuccess, \"Refund to client fai...\n      PUSH 20\t\t\tgId,\n      DUP4 \t\t\ted(\n      ADD \t\t\tfunded(gigId, \n      SWAP1 \t\t\t emit EscrowRefunded(gigId, \n      POP \t\t\t emit EscrowRefunded(gigId, \n      SWAP3 \t\t\tions)\\r\\n        (bool success...\n      SWAP2 \t\t\tions)\\r\\n        (bool success...\n      POP \t\t\tions)\\r\\n        (bool success...\n      POP \t\t\tions)\\r\\n        (bool success...\n      JUMP \t\t\tions)\\r\\n        (bool success...\n    tag 653\t\t\tt, amount);\\r\\n    }\\r\\n    \\r...\n      JUMPDEST \t\t\tt, amount);\\r\\n    }\\r\\n    \\r...\n      PUSH 0\t\t\tfree\n      PUSH 20\t\t\t * @\n      DUP3 \t\t\t\\n  \n      ADD \t\t\tng)\\r\\n     * @p\n      SWAP1 \t\t\tts working)\\r\\n     * @p\n      POP \t\t\tts working)\\r\\n     * @p\n      SWAP2 \t\t\tt, amount);\\r\\n    }\\r\\n    \\r...\n      SWAP1 \t\t\tt, amount);\\r\\n    }\\r\\n    \\r...\n      POP \t\t\tt, amount);\\r\\n    }\\r\\n    \\r...\n      JUMP \t\t\tt, amount);\\r\\n    }\\r\\n    \\r...\n    tag 654\t\t\tction startWork(uint256 gigId)...\n      JUMPDEST \t\t\tction startWork(uint256 gigId)...\n      PUSH 0\t\t\tcro\n      PUSH [tag] 793\t\t\te(escrow.status == EscrowStatu...\n      DUP3 \t\t\tlread\n      PUSH [tag] 648\t\t\te(escrow.status == EscrowStatu...\n      JUMP \t\t\te(escrow.status == EscrowStatu...\n    tag 793\t\t\te(escrow.status == EscrowStatu...\n      JUMPDEST \t\t\te(escrow.status == EscrowStatu...\n      PUSH [tag] 794\t\t\tleted\");\\r\\n        \\r\\n      ...\n      DUP2 \t\t\t    /*\n      DUP6 \t\t\t   \n      PUSH [tag] 649\t\t\tleted\");\\r\\n        \\r\\n      ...\n      JUMP \t\t\tleted\");\\r\\n        \\r\\n      ...\n    tag 794\t\t\tleted\");\\r\\n        \\r\\n      ...\n      JUMPDEST \t\t\tleted\");\\r\\n        \\r\\n      ...\n      SWAP4 \t\t\tor completed\");\\r\\n        \\r\\...\n      POP \t\t\tor completed\");\\r\\n        \\r\\...\n      PUSH [tag] 795\t\t\t details for a gig\\r\\n     * @...\n      DUP4 \t\t\tgig\\r\\n\n      PUSH [tag] 650\t\t\t details for a gig\\r\\n     * @...\n      JUMP \t\t\t details for a gig\\r\\n     * @...\n    tag 795\t\t\t details for a gig\\r\\n     * @...\n      JUMPDEST \t\t\t details for a gig\\r\\n     * @...\n      DUP1 \t\t\ttEscrow\n      PUSH 0\t\t\t \n    tag 796\t\t\tgigId) external view validGig(...\n      JUMPDEST \t\t\tgigId) external view validGig(...\n      DUP4 \t\t\tdGig(g\n      DUP2 \t\t\ta\n      LT \t\t\tw validGig(gi\n      ISZERO \t\t\tgigId) external view validGig(...\n      PUSH [tag] 798\t\t\tgigId) external view validGig(...\n      JUMPI \t\t\tgigId) external view validGig(...\n      DUP2 \t\t\t   }\\r\\n\n      MLOAD \t\t\td];\\r\\n    }\\r\\n \n      PUSH [tag] 799\t\t\t @dev Get client's escrow gig ...\n      DUP9 \t\t\tres\n      DUP3 \t\t\taram client A\n      PUSH [tag] 652\t\t\t @dev Get client's escrow gig ...\n      JUMP \t\t\t @dev Get client's escrow gig ...\n    tag 799\t\t\t @dev Get client's escrow gig ...\n      JUMPDEST \t\t\t @dev Get client's escrow gig ...\n      SWAP8 \t\t\t\\n     * @dev Get client's esc...\n      POP \t\t\t\\n     * @dev Get client's esc...\n      PUSH [tag] 800\t\t\t\\r\\n    function getClientEscr...\n      DUP4 \t\t\tnal vi\n      PUSH [tag] 653\t\t\t\\r\\n    function getClientEscr...\n      JUMP \t\t\t\\r\\n    function getClientEscr...\n    tag 800\t\t\t\\r\\n    function getClientEscr...\n      JUMPDEST \t\t\t\\r\\n    function getClientEscr...\n      SWAP3 \t\t\tt\\r\\n     */\\r\\n    function g...\n      POP \t\t\tt\\r\\n     */\\r\\n    function g...\n      POP \t\t\tory) {\\r\\n        return escro...\n      PUSH 1\t\t\ts\n      DUP2 \t\t\t \n      ADD \t\t\turns (Esc\n      SWAP1 \t\t\t) returns (Esc\n      POP \t\t\t) returns (Esc\n      PUSH [tag] 796\t\t\tgigId) external view validGig(...\n      JUMP \t\t\tgigId) external view validGig(...\n    tag 798\t\t\tgigId) external view validGig(...\n      JUMPDEST \t\t\tgigId) external view validGig(...\n      POP \t\t\td) external vi\n      DUP6 \t\t\ty) \n      SWAP4 \t\t\t] memory) \n      POP \t\t\t] memory) \n      POP \t\t\t[gigId];\\r\\n        require(es...\n      POP \t\t\t[gigId];\\r\\n        require(es...\n      POP \t\t\t[gigId];\\r\\n        require(es...\n      SWAP3 \t\t\tction startWork(uint256 gigId)...\n      SWAP2 \t\t\tction startWork(uint256 gigId)...\n      POP \t\t\tction startWork(uint256 gigId)...\n      POP \t\t\tction startWork(uint256 gigId)...\n      JUMP \t\t\tction startWork(uint256 gigId)...\n    tag 114\t\t\teturn clientEscrows[client];\\r...\n      JUMPDEST \t\t\teturn clientEscrows[client];\\r...\n      PUSH 0\t\t\trow \n      PUSH E0\t\t\tgId\n      DUP3 \t\t\t* @param \n      ADD \t\t\t    * @param gigId \n      SWAP1 \t\t\ta gig\\r\\n     * @param gigId \n      POP \t\t\ta gig\\r\\n     * @param gigId \n      PUSH [tag] 802\t\t\tgig\\r\\n     */\\r\\n    function...\n      PUSH 0\t\t\te\n      DUP4 \t\t\texternal \n      ADD \t\t\tId) external view\n      DUP11 \t\t\tnt256 \n      PUSH [tag] 645\t\t\tgig\\r\\n     */\\r\\n    function...\n      JUMP \t\t\tgig\\r\\n     */\\r\\n    function...\n    tag 802\t\t\tgig\\r\\n     */\\r\\n    function...\n      JUMPDEST \t\t\tgig\\r\\n     */\\r\\n    function...\n      DUP2 \t\t\t.exists;\\r\n      DUP2 \t\t\tgigI\n      SUB \t\t\tows[gigId].exists;\\r\\n\n      PUSH 20\t\t\t e\n      DUP4 \t\t\t     retu\n      ADD \t\t\t\\n        return es\n      MSTORE \t\t\tool) {\\r\\n        return escro...\n      PUSH [tag] 803\t\t\t**\\r\\n     * @dev Update platf...\n      DUP2 \t\t\tw fe\n      DUP10 \t\t\tnewFee\n      PUSH [tag] 620\t\t\t**\\r\\n     * @dev Update platf...\n      JUMP \t\t\t**\\r\\n     * @dev Update platf...\n    tag 803\t\t\t**\\r\\n     * @dev Update platf...\n      JUMPDEST \t\t\t**\\r\\n     * @dev Update platf...\n      SWAP1 \t\t\t \\r\\n    /**\\r\\n     * @dev Up...\n      POP \t\t\t \\r\\n    /**\\r\\n     * @dev Up...\n      DUP2 \t\t\tlatformFe\n      DUP2 \t\t\tpdat\n      SUB \t\t\ton updatePlatformFee\n      PUSH 40\t\t\tun\n      DUP4 \t\t\t  */\\r\\n   \n      ADD \t\t\t\\n     */\\r\\n    func\n      MSTORE \t\t\tpoints\\r\\n     */\\r\\n    funct...\n      PUSH [tag] 804\t\t\txternal onlyOwner {\\r\\n       ...\n      DUP2 \t\t\t0%\")\n      DUP9 \t\t\t excee\n      PUSH [tag] 620\t\t\txternal onlyOwner {\\r\\n       ...\n      JUMP \t\t\txternal onlyOwner {\\r\\n       ...\n    tag 804\t\t\txternal onlyOwner {\\r\\n       ...\n      JUMPDEST \t\t\txternal onlyOwner {\\r\\n       ...\n      SWAP1 \t\t\tewFee) external onlyOwner {\\r\\...\n      POP \t\t\tewFee) external onlyOwner {\\r\\...\n      PUSH [tag] 805\t\t\tplatformFee = newFee;\\r\\n    }...\n      PUSH 60\t\t\tre\n      DUP4 \t\t\tUpdate fe\n      ADD \t\t\tdev Update fee rec\n      DUP8 \t\t\t\\n     \n      PUSH [tag] 633\t\t\tplatformFee = newFee;\\r\\n    }...\n      JUMP \t\t\tplatformFee = newFee;\\r\\n    }...\n    tag 805\t\t\tplatformFee = newFee;\\r\\n    }...\n      JUMPDEST \t\t\tplatformFee = newFee;\\r\\n    }...\n      PUSH [tag] 806\t\t\ty owner)\\r\\n     * @param newR...\n      PUSH 80\t\t\t */\n      DUP4 \t\t\tdress\\r\\n  \n      ADD \t\t\tt address\\r\\n     */\\r\n      DUP7 \t\t\t recip\n      PUSH [tag] 636\t\t\ty owner)\\r\\n     * @param newR...\n      JUMP \t\t\ty owner)\\r\\n     * @param newR...\n    tag 806\t\t\ty owner)\\r\\n     * @param newR...\n      JUMPDEST \t\t\ty owner)\\r\\n     * @param newR...\n      PUSH [tag] 807\t\t\ton updateFeeRecipient(address ...\n      PUSH A0\t\t\t   \n      DUP4 \t\t\tOwner {\\r\\n\n      ADD \t\t\tonlyOwner {\\r\\n      \n      DUP6 \t\t\textern\n      PUSH [tag] 647\t\t\ton updateFeeRecipient(address ...\n      JUMP \t\t\ton updateFeeRecipient(address ...\n    tag 807\t\t\ton updateFeeRecipient(address ...\n      JUMPDEST \t\t\ton updateFeeRecipient(address ...\n      DUP2 \t\t\tcipient a\n      DUP2 \t\t\tlid \n      SUB \t\t\tInvalid recipient ad\n      PUSH C0\t\t\t(0)\n      DUP4 \t\t\t != addre\n      ADD \t\t\tient != address(0),\n      MSTORE \t\t\tewRecipient != address(0), \"In...\n      PUSH [tag] 808\t\t\tfeeRecipient = newRecipient;\\r...\n      DUP2 \t\t\t   f\n      DUP5 \t\t\t    */\n      PUSH [tag] 654\t\t\tfeeRecipient = newRecipient;\\r...\n      JUMP \t\t\tfeeRecipient = newRecipient;\\r...\n    tag 808\t\t\tfeeRecipient = newRecipient;\\r...\n      JUMPDEST \t\t\tfeeRecipient = newRecipient;\\r...\n      SWAP1 \t\t\t        feeRecipient = newReci...\n      POP \t\t\t        feeRecipient = newReci...\n      SWAP9 \t\t\teturn clientEscrows[client];\\r...\n      SWAP8 \t\t\teturn clientEscrows[client];\\r...\n      POP \t\t\teturn clientEscrows[client];\\r...\n      POP \t\t\teturn clientEscrows[client];\\r...\n      POP \t\t\teturn clientEscrows[client];\\r...\n      POP \t\t\teturn clientEscrows[client];\\r...\n      POP \t\t\teturn clientEscrows[client];\\r...\n      POP \t\t\teturn clientEscrows[client];\\r...\n      POP \t\t\teturn clientEscrows[client];\\r...\n      POP \t\t\teturn clientEscrows[client];\\r...\n      JUMP \t\t\teturn clientEscrows[client];\\r...\n    tag 120\t\t\t) external onlyOwner {\\r\\n    ...\n      JUMPDEST \t\t\t) external onlyOwner {\\r\\n    ...\n      PUSH 0\t\t\t /**\\r\\n\n      PUSH 20\t\t\t  \n      DUP3 \t\t\tnly owner\n      DUP5 \t\t\tntract \n      SUB \t\t\te contract (only owner)\n      SLT \t\t\tpause contract (only owner)\\r\\...\n      ISZERO \t\t\t Unpause contract (only owner)...\n      PUSH [tag] 810\t\t\t Unpause contract (only owner)...\n      JUMPI \t\t\t Unpause contract (only owner)...\n      PUSH [tag] 811\t\t\t/\\r\\n    function unpause() ex...\n      PUSH [tag] 622\t\t\t/\\r\\n    function unpause() ex...\n      JUMP \t\t\t/\\r\\n    function unpause() ex...\n    tag 811\t\t\t/\\r\\n    function unpause() ex...\n      JUMPDEST \t\t\t/\\r\\n    function unpause() ex...\n    tag 810\t\t\t Unpause contract (only owner)...\n      JUMPDEST \t\t\t Unpause contract (only owner)...\n      PUSH 0\t\t\tw\n      PUSH [tag] 812\t\t\tgencies)\\r\\n     * @param gigI...\n      DUP5 \t\t\t     */\n      DUP3 \t\t\tthe gi\n      DUP6 \t\t\tigId ID o\n      ADD \t\t\tam gigId ID of the gig\n      PUSH [tag] 630\t\t\tgencies)\\r\\n     * @param gigI...\n      JUMP \t\t\tgencies)\\r\\n     * @param gigI...\n    tag 812\t\t\tgencies)\\r\\n     * @param gigI...\n      JUMPDEST \t\t\tgencies)\\r\\n     * @param gigI...\n      SWAP2 \t\t\t, for emergencies)\\r\\n     * @...\n      POP \t\t\t, for emergencies)\\r\\n     * @...\n      POP \t\t\t     * @dev Emergency withdraw...\n      SWAP3 \t\t\t) external onlyOwner {\\r\\n    ...\n      SWAP2 \t\t\t) external onlyOwner {\\r\\n    ...\n      POP \t\t\t) external onlyOwner {\\r\\n    ...\n      POP \t\t\t) external onlyOwner {\\r\\n    ...\n      JUMP \t\t\t) external onlyOwner {\\r\\n    ...\n    tag 655\t\t\tWithdraw(uint256 gigId) extern...\n      JUMPDEST \t\t\tWithdraw(uint256 gigId) extern...\n      PUSH 0\t\t\tidGig(g\n      PUSH FFFFFFFFFFFF\t\t\t       EscrowD\n      DUP3 \t\t\tnt {\\r\n      AND \t\t\tntrant {\\r\\n        EscrowDa\n      SWAP1 \t\t\twner nonReentrant {\\r\\n       ...\n      POP \t\t\twner nonReentrant {\\r\\n       ...\n      SWAP2 \t\t\tWithdraw(uint256 gigId) extern...\n      SWAP1 \t\t\tWithdraw(uint256 gigId) extern...\n      POP \t\t\tWithdraw(uint256 gigId) extern...\n      JUMP \t\t\tWithdraw(uint256 gigId) extern...\n    tag 656\t\t\tscrow = escrows[gigId];\\r\\n   ...\n      JUMPDEST \t\t\tscrow = escrows[gigId];\\r\\n   ...\n      PUSH [tag] 815\t\t\t\\n        \\r\\n        uint\n      DUP2 \t\t\t  uin\n      PUSH [tag] 655\t\t\t\\n        \\r\\n        uint\n      JUMP \t\t\t\\n        \\r\\n        uint\n    tag 815\t\t\t\\n        \\r\\n        uint\n      JUMPDEST \t\t\t\\n        \\r\\n        uint\n      DUP3 \t\t\tw\")\n      MSTORE \t\t\twithdraw\");\\r\\n        \\r\\n   ...\n      POP \t\t\tscrow = escrows[gigId];\\r\\n   ...\n      POP \t\t\tscrow = escrows[gigId];\\r\\n   ...\n      JUMP \t\t\tscrow = escrows[gigId];\\r\\n   ...\n    tag 126\t\t\tescrow.amount;\\r\\n        escr...\n      JUMPDEST \t\t\tescrow.amount;\\r\\n        escr...\n      PUSH 0\t\t\t\\r\\n  \n      PUSH 20\t\t\t e\n      DUP3 \t\t\tuccess, )\n      ADD \t\t\tol success, ) = es\n      SWAP1 \t\t\t     (bool success, ) = es\n      POP \t\t\t     (bool success, ) = es\n      PUSH [tag] 817\t\t\tt.call{value: amount}(\"\");\\r\\n...\n      PUSH 0\t\t\tt\n      DUP4 \t\t\tmergency \n      ADD \t\t\t, \"Emergency with\n      DUP5 \t\t\te(succ\n      PUSH [tag] 656\t\t\tt.call{value: amount}(\"\");\\r\\n...\n      JUMP \t\t\tt.call{value: amount}(\"\");\\r\\n...\n    tag 817\t\t\tt.call{value: amount}(\"\");\\r\\n...\n      JUMPDEST \t\t\tt.call{value: amount}(\"\");\\r\\n...\n      SWAP3 \t\t\tescrow.amount;\\r\\n        escr...\n      SWAP2 \t\t\tescrow.amount;\\r\\n        escr...\n      POP \t\t\tescrow.amount;\\r\\n        escr...\n      POP \t\t\tescrow.amount;\\r\\n        escr...\n      JUMP \t\t\tescrow.amount;\\r\\n        escr...\n    tag 657\t\t\t);\\r\\n        \\r\\n        emit...\n      JUMPDEST \t\t\t);\\r\\n        \\r\\n        emit...\n      PUSH [tag] 819\t\t\t;\\r\\n    }\\r\\n    \\r\\n    /*\n      DUP2 \t\t\t    /\n      PUSH [tag] 634\t\t\t;\\r\\n    }\\r\\n    \\r\\n    /*\n      JUMP \t\t\t;\\r\\n    }\\r\\n    \\r\\n    /*\n    tag 819\t\t\t;\\r\\n    }\\r\\n    \\r\\n    /*\n      JUMPDEST \t\t\t;\\r\\n    }\\r\\n    \\r\\n    /*\n      DUP2 \t\t\tamoun\n      EQ \t\t\tt, amount);\\r\\n    }\\r\\n    \\r...\n      PUSH [tag] 820\t\t\tcrow.client, amount);\\r\\n    }...\n      JUMPI \t\t\tcrow.client, amount);\\r\\n    }...\n      PUSH 0\t\t\tR\n      PUSH 0\t\t\te\n      REVERT \t\t\t   * @dev Re\n    tag 820\t\t\tcrow.client, amount);\\r\\n    }...\n      JUMPDEST \t\t\tcrow.client, amount);\\r\\n    }...\n      POP \t\t\t);\\r\\n        \\r\\n        emit...\n      JUMP \t\t\t);\\r\\n        \\r\\n        emit...\n    tag 658\t\t\to specified address (only call...\n      JUMPDEST \t\t\to specified address (only call...\n      PUSH 0\t\t\tr dis\n      DUP2 \t\t\tigId I\n      CALLDATALOAD \t\t\t   * @param gigId ID\n      SWAP1 \t\t\ttion)\\r\\n     * @param gigId I...\n      POP \t\t\ttion)\\r\\n     * @param gigId I...\n      PUSH [tag] 822\t\t\tig\\r\\n     * @param recipient ...\n      DUP2 \t\t\tnt Ad\n      PUSH [tag] 657\t\t\tig\\r\\n     * @param recipient ...\n      JUMP \t\t\tig\\r\\n     * @param recipient ...\n    tag 822\t\t\tig\\r\\n     * @param recipient ...\n      JUMPDEST \t\t\tig\\r\\n     * @param recipient ...\n      SWAP3 \t\t\to specified address (only call...\n      SWAP2 \t\t\to specified address (only call...\n      POP \t\t\to specified address (only call...\n      POP \t\t\to specified address (only call...\n      JUMP \t\t\to specified address (only call...\n    tag 659\t\t\tive the funds (client or freel...\n      JUMPDEST \t\t\tive the funds (client or freel...\n      PUSH [tag] 824\t\t\tt256 gigId, address reci\n      DUP2 \t\t\ts rec\n      PUSH [tag] 646\t\t\tt256 gigId, address reci\n      JUMP \t\t\tt256 gigId, address reci\n    tag 824\t\t\tt256 gigId, address reci\n      JUMPDEST \t\t\tt256 gigId, address reci\n      DUP2 \t\t\teTo(u\n      EQ \t\t\teaseTo(uint256 gigId, address ...\n      PUSH [tag] 825\t\t\tnction releaseTo(uint256 gigId...\n      JUMPI \t\t\tnction releaseTo(uint256 gigId...\n      PUSH 0\t\t\t \n      PUSH 0\t\t\tn\n      REVERT \t\t\t) external v\n    tag 825\t\t\tnction releaseTo(uint256 gigId...\n      JUMPDEST \t\t\tnction releaseTo(uint256 gigId...\n      POP \t\t\tive the funds (client or freel...\n      JUMP \t\t\tive the funds (client or freel...\n    tag 660\t\t\t onlyOwner nonReentrant {\\r\\n ...\n      JUMPDEST \t\t\t onlyOwner nonReentrant {\\r\\n ...\n      PUSH 0\t\t\tstora\n      DUP2 \t\t\t    re\n      CALLDATALOAD \t\t\tgigId];\\r\\n        req\n      SWAP1 \t\t\t escrows[gigId];\\r\\n        re...\n      POP \t\t\t escrows[gigId];\\r\\n        re...\n      PUSH [tag] 827\t\t\tow.status == EscrowStatus.Disp...\n      DUP2 \t\t\tisput\n      PUSH [tag] 659\t\t\tow.status == EscrowStatus.Disp...\n      JUMP \t\t\tow.status == EscrowStatus.Disp...\n    tag 827\t\t\tow.status == EscrowStatus.Disp...\n      JUMPDEST \t\t\tow.status == EscrowStatus.Disp...\n      SWAP3 \t\t\t onlyOwner nonReentrant {\\r\\n ...\n      SWAP2 \t\t\t onlyOwner nonReentrant {\\r\\n ...\n      POP \t\t\t onlyOwner nonReentrant {\\r\\n ...\n      POP \t\t\t onlyOwner nonReentrant {\\r\\n ...\n      JUMP \t\t\t onlyOwner nonReentrant {\\r\\n ...\n    tag 143\t\t\tot in disputed state\");\\r\\n   ...\n      JUMPDEST \t\t\tot in disputed state\");\\r\\n   ...\n      PUSH 0\t\t\tecipie\n      PUSH 0\t\t\t == es\n      PUSH 0\t\t\tow.cli\n      PUSH 0\t\t\tt || r\n      PUSH 0\t\t\tipient\n      PUSH 0\t\t\t= escr\n      PUSH C0\t\t\t   \n      DUP8 \t\t\tnt\");\\r\\n  \n      DUP10 \t\t\td recip\n      SUB \t\t\tvalid recipient\");\\r\\n   \n      SLT \t\t\t \"Invalid recipient\");\\r\\n    ...\n      ISZERO \t\t\ter, \"Invalid recipient\");\\r\\n ...\n      PUSH [tag] 829\t\t\ter, \"Invalid recipient\");\\r\\n ...\n      JUMPI \t\t\ter, \"Invalid recipient\");\\r\\n ...\n      PUSH [tag] 830\t\t\t      uint256 totalAmount = es...\n      PUSH [tag] 622\t\t\t      uint256 totalAmount = es...\n      JUMP \t\t\t      uint256 totalAmount = es...\n    tag 830\t\t\t      uint256 totalAmount = es...\n      JUMPDEST \t\t\t      uint256 totalAmount = es...\n    tag 829\t\t\ter, \"Invalid recipient\");\\r\\n ...\n      JUMPDEST \t\t\ter, \"Invalid recipient\");\\r\\n ...\n      PUSH 0\t\t\tn\n      PUSH [tag] 831\t\t\talAmount - feeAmount;\\r\\n     ...\n      DUP10 \t\t\tow.amou\n      DUP3 \t\t\t     e\n      DUP11 \t\t\t      \\r\\n \n      ADD \t\t\t\\r\\n        \\r\\n        es\n      PUSH [tag] 627\t\t\talAmount - feeAmount;\\r\\n     ...\n      JUMP \t\t\talAmount - feeAmount;\\r\\n     ...\n    tag 831\t\t\talAmount - feeAmount;\\r\\n     ...\n      JUMPDEST \t\t\talAmount - feeAmount;\\r\\n     ...\n      SWAP7 \t\t\tount = totalAmount - feeAmount...\n      POP \t\t\tount = totalAmount - feeAmount...\n      POP \t\t\tformFee) / 10000;\\r\\n        u...\n      PUSH 20\t\t\tle\n      PUSH [tag] 832\t\t\t// Transfer fee to platform\\r\\...\n      DUP10 \t\t\tmount >\n      DUP3 \t\t\t if (f\n      DUP11 \t\t\trm\\r\\n     \n      ADD \t\t\tatform\\r\\n        if (fe\n      PUSH [tag] 630\t\t\t// Transfer fee to platform\\r\\...\n      JUMP \t\t\t// Transfer fee to platform\\r\\...\n    tag 832\t\t\t// Transfer fee to platform\\r\\...\n      JUMPDEST \t\t\t// Transfer fee to platform\\r\\...\n      SWAP6 \t\t\t\\r\\n        // Transfer fee to...\n      POP \t\t\t\\r\\n        // Transfer fee to...\n      POP \t\t\tow.status = EscrowStatus.Compl...\n      PUSH 40\t\t\tbo\n      PUSH [tag] 833\t\t\tcipient.call{value: feeAmount}...\n      DUP10 \t\t\t    req\n      DUP3 \t\t\t\\n     \n      DUP11 \t\t\tount}(\"\")\n      ADD \t\t\teeAmount}(\"\");\\r\\n      \n      PUSH [tag] 630\t\t\tcipient.call{value: feeAmount}...\n      JUMP \t\t\tcipient.call{value: feeAmount}...\n    tag 833\t\t\tcipient.call{value: feeAmount}...\n      JUMPDEST \t\t\tcipient.call{value: feeAmount}...\n      SWAP5 \t\t\t ) = feeRecipient.call{value: ...\n      POP \t\t\t ) = feeRecipient.call{value: ...\n      POP \t\t\t address(0)) {\\r\\n            ...\n      PUSH 60\t\t\t}\\r\n      PUSH [tag] 834\t\t\tansfer remaining amount to rec...\n      DUP10 \t\t\t   (boo\n      DUP3 \t\t\tnt\\r\\n  \n      DUP11 \t\t\t to recip\n      ADD \t\t\tount to recipient\\r\\n   \n      PUSH [tag] 658\t\t\tansfer remaining amount to rec...\n      JUMP \t\t\tansfer remaining amount to rec...\n    tag 834\t\t\tansfer remaining amount to rec...\n      JUMPDEST \t\t\tansfer remaining amount to rec...\n      SWAP4 \t\t\t     // Transfer remaining amo...\n      POP \t\t\t     // Transfer remaining amo...\n      POP \t\t\t transfer failed\");\\r\\n       ...\n      PUSH 80\t\t\t}(\"\n      PUSH [tag] 835\t\t\tcess, \"Release transfer failed...\n      DUP10 \t\t\t       \n      DUP3 \t\t\t      \n      DUP11 \t\t\tailed\");\\r\n      ADD \t\t\ter failed\");\\r\\n        \n      PUSH [tag] 660\t\t\tcess, \"Release transfer failed...\n      JUMP \t\t\tcess, \"Release transfer failed...\n    tag 835\t\t\tcess, \"Release transfer failed...\n      JUMPDEST \t\t\tcess, \"Release transfer failed...\n      SWAP3 \t\t\tequire(success, \"Release trans...\n      POP \t\t\tequire(success, \"Release trans...\n      POP \t\t\tent.call{value: releaseAmount}...\n      PUSH A0\t\t\t  e\n      PUSH [tag] 836\t\t\t, escrow.freelancer, releaseAm...\n      DUP10 \t\t\t } else\n      DUP3 \t\t\t\\r\\n    \n      DUP11 \t\t\taseAmount\n      ADD \t\t\treleaseAmount);\\r\\n     \n      PUSH [tag] 660\t\t\t, escrow.freelancer, releaseAm...\n      JUMP \t\t\t, escrow.freelancer, releaseAm...\n    tag 836\t\t\t, escrow.freelancer, releaseAm...\n      JUMPDEST \t\t\t, escrow.freelancer, releaseAm...\n      SWAP2 \t\t\tased(gigId, escrow.freelancer,...\n      POP \t\t\tased(gigId, escrow.freelancer,...\n      POP \t\t\trow.freelancer) {\\r\\n         ...\n      SWAP3 \t\t\tot in disputed state\");\\r\\n   ...\n      SWAP6 \t\t\tot in disputed state\");\\r\\n   ...\n      POP \t\t\tot in disputed state\");\\r\\n   ...\n      SWAP3 \t\t\tot in disputed state\");\\r\\n   ...\n      SWAP6 \t\t\tot in disputed state\");\\r\\n   ...\n      POP \t\t\tot in disputed state\");\\r\\n   ...\n      SWAP3 \t\t\tot in disputed state\");\\r\\n   ...\n      SWAP6 \t\t\tot in disputed state\");\\r\\n   ...\n      JUMP \t\t\tot in disputed state\");\\r\\n   ...\n    tag 147\t\t\trowRefunded(gigId, escrow.clie...\n      JUMPDEST \t\t\trowRefunded(gigId, escrow.clie...\n      PUSH 0\t\t\t\\n\\r\\n   \n      PUSH 0\t\t\t**\\r\\n  \n      PUSH 40\t\t\ted\n      DUP4 \t\t\tscrows cr\n      DUP6 \t\t\tmber of\n      SUB \t\t\tl number of escrows cre\n      SLT \t\t\ttotal number of escrows create...\n      ISZERO \t\t\tet total number of escrows cre...\n      PUSH [tag] 838\t\t\tet total number of escrows cre...\n      JUMPI \t\t\tet total number of escrows cre...\n      PUSH [tag] 839\t\t\t   */\\r\\n    function getTotal...\n      PUSH [tag] 622\t\t\t   */\\r\\n    function getTotal...\n      JUMP \t\t\t   */\\r\\n    function getTotal...\n    tag 839\t\t\t   */\\r\\n    function getTotal...\n      JUMPDEST \t\t\t   */\\r\\n    function getTotal...\n    tag 838\t\t\tet total number of escrows cre...\n      JUMPDEST \t\t\tet total number of escrows cre...\n      PUSH 0\t\t\t'\n      PUSH [tag] 840\t\t\tstimate\\r\\n        // In produ...\n      DUP6 \t\t\twant to\n      DUP3 \t\t\tou mig\n      DUP7 \t\t\toduction,\n      ADD \t\t\tn production, you migh\n      PUSH [tag] 627\t\t\tstimate\\r\\n        // In produ...\n      JUMP \t\t\tstimate\\r\\n        // In produ...\n    tag 840\t\t\tstimate\\r\\n        // In produ...\n      JUMPDEST \t\t\tstimate\\r\\n        // In produ...\n      SWAP3 \t\t\tasonable estimate\\r\\n        /...\n      POP \t\t\tasonable estimate\\r\\n        /...\n      POP \t\t\te don't track total count, we'...\n      PUSH 20\t\t\t; \n      PUSH [tag] 841\t\t\tbased on your needs\\r\\n    }\\r...\n      DUP6 \t\t\t @dev G\n      DUP3 \t\t\t*\\r\\n   \n      DUP7 \t\t\t}\\r\\n\\r\\n    \n      ADD \t\t\t    }\\r\\n\\r\\n    /**\\r\\n    \n      PUSH [tag] 627\t\t\tbased on your needs\\r\\n    }\\r...\n      JUMP \t\t\tbased on your needs\\r\\n    }\\r...\n    tag 841\t\t\tbased on your needs\\r\\n    }\\r...\n      JUMPDEST \t\t\tbased on your needs\\r\\n    }\\r...\n      SWAP2 \t\t\t - adjust based on your needs\\...\n      POP \t\t\t - adjust based on your needs\\...\n      POP \t\t\tvariable\\r\\n        return 100...\n      SWAP3 \t\t\trowRefunded(gigId, escrow.clie...\n      POP \t\t\trowRefunded(gigId, escrow.clie...\n      SWAP3 \t\t\trowRefunded(gigId, escrow.clie...\n      SWAP1 \t\t\trowRefunded(gigId, escrow.clie...\n      POP \t\t\trowRefunded(gigId, escrow.clie...\n      JUMP \t\t\trowRefunded(gigId, escrow.clie...\n    tag 661\t\t\t  */\\r\\n    function getContra...\n      JUMPDEST \t\t\t  */\\r\\n    function getContra...\n      PUSH [tag] 843\t\t\t{\\r\\n        return addre\n      DUP2 \t\t\t addr\n      PUSH [tag] 642\t\t\t{\\r\\n        return addre\n      JUMP \t\t\t{\\r\\n        return addre\n    tag 843\t\t\t{\\r\\n        return addre\n      JUMPDEST \t\t\t{\\r\\n        return addre\n      DUP2 \t\t\tnt256\n      EQ \t\t\t(uint256) {\\r\\n        return ...\n      PUSH [tag] 844\t\t\tw returns (uint256) {\\r\\n     ...\n      JUMPI \t\t\tw returns (uint256) {\\r\\n     ...\n      PUSH 0\t\t\te\n      PUSH 0\t\t\ta\n      REVERT \t\t\tis).balance;\n    tag 844\t\t\tw returns (uint256) {\\r\\n     ...\n      JUMPDEST \t\t\tw returns (uint256) {\\r\\n     ...\n      POP \t\t\t  */\\r\\n    function getContra...\n      JUMP \t\t\t  */\\r\\n    function getContra...\n    tag 662\t\t\t/**\\r\\n * @title EscrowDAO\\r\\n...\n      JUMPDEST \t\t\t/**\\r\\n * @title EscrowDAO\\r\\n...\n      PUSH 0\t\t\tt for\n      DUP2 \t\t\th toke\n      CALLDATALOAD \t\t\tsputes through token\n      SWAP1 \t\t\tescrow disputes through token\n      POP \t\t\tescrow disputes through token\n      PUSH [tag] 846\t\t\tting\\r\\n * @notice Handles dis...\n      DUP2 \t\t\tisput\n      PUSH [tag] 661\t\t\tting\\r\\n * @notice Handles dis...\n      JUMP \t\t\tting\\r\\n * @notice Handles dis...\n    tag 846\t\t\tting\\r\\n * @notice Handles dis...\n      JUMPDEST \t\t\tting\\r\\n * @notice Handles dis...\n      SWAP3 \t\t\t/**\\r\\n * @title EscrowDAO\\r\\n...\n      SWAP2 \t\t\t/**\\r\\n * @title EscrowDAO\\r\\n...\n      POP \t\t\t/**\\r\\n * @title EscrowDAO\\r\\n...\n      POP \t\t\t/**\\r\\n * @title EscrowDAO\\r\\n...\n      JUMP \t\t\t/**\\r\\n * @title EscrowDAO\\r\\n...\n    tag 152\t\t\t quorum requirements and time ...\n      JUMPDEST \t\t\t quorum requirements and time ...\n      PUSH 0\t\t\tnable,\n      PUSH 0\t\t\teentra\n      PUSH 40\t\t\t  \n      DUP4 \t\t\tte {\\r\\n   \n      DUP6 \t\t\tstruct \n      SUB \t\t\t    struct Vote {\\r\\n    \n      SLT \t\t\t  \\r\\n    struct Vote {\\r\\n   ...\n      ISZERO \t\t\t\\n    \\r\\n    struct Vote {\\r\\...\n      PUSH [tag] 848\t\t\t\\n    \\r\\n    struct Vote {\\r\\...\n      JUMPI \t\t\t\\n    \\r\\n    struct Vote {\\r\\...\n      PUSH [tag] 849\t\t\t256 escrowId;\\r\\n        uint2...\n      PUSH [tag] 622\t\t\t256 escrowId;\\r\\n        uint2...\n      JUMP \t\t\t256 escrowId;\\r\\n        uint2...\n    tag 849\t\t\t256 escrowId;\\r\\n        uint2...\n      JUMPDEST \t\t\t256 escrowId;\\r\\n        uint2...\n    tag 848\t\t\t\\n    \\r\\n    struct Vote {\\r\\...\n      JUMPDEST \t\t\t\\n    \\r\\n    struct Vote {\\r\\...\n      PUSH 0\t\t\t6\n      PUSH [tag] 850\t\t\t  uint256 totalVotes;\\r\\n     ...\n      DUP6 \t\t\t;\\r\\n    \n      DUP3 \t\t\tfinali\n      DUP7 \t\t\t      boo\n      ADD \t\t\t\\r\\n        bool finaliz\n      PUSH [tag] 627\t\t\t  uint256 totalVotes;\\r\\n     ...\n      JUMP \t\t\t  uint256 totalVotes;\\r\\n     ...\n    tag 850\t\t\t  uint256 totalVotes;\\r\\n     ...\n      JUMPDEST \t\t\t  uint256 totalVotes;\\r\\n     ...\n      SWAP3 \t\t\tt;\\r\\n        uint256 totalVot...\n      POP \t\t\tt;\\r\\n        uint256 totalVot...\n      POP \t\t\torFreelancer;\\r\\n        uint2...\n      PUSH 20\t\t\tol\n      PUSH [tag] 851\t\t\tping(address => bool) voteChoi...\n      DUP6 \t\t\tfreelan\n      DUP3 \t\t\t/ true\n      DUP7 \t\t\tteChoice;\n      ADD \t\t\t) voteChoice; // true \n      PUSH [tag] 662\t\t\tping(address => bool) voteChoi...\n      JUMP \t\t\tping(address => bool) voteChoi...\n    tag 851\t\t\tping(address => bool) voteChoi...\n      JUMPDEST \t\t\tping(address => bool) voteChoi...\n      SWAP2 \t\t\t       mapping(address => bool...\n      POP \t\t\t       mapping(address => bool...\n      POP \t\t\t        mapping(address => boo...\n      SWAP3 \t\t\t quorum requirements and time ...\n      POP \t\t\t quorum requirements and time ...\n      SWAP3 \t\t\t quorum requirements and time ...\n      SWAP1 \t\t\t quorum requirements and time ...\n      POP \t\t\t quorum requirements and time ...\n      JUMP \t\t\t quorum requirements and time ...\n    tag 663\t\t\t }\\r\\n    \\r\\n    // State var...\n      JUMPDEST \t\t\t }\\r\\n    \\r\\n    // State var...\n      PUSH [tag] 853\t\t\trow public escrowContra\n      DUP2 \t\t\tContr\n      PUSH [tag] 655\t\t\trow public escrowContra\n      JUMP \t\t\trow public escrowContra\n    tag 853\t\t\trow public escrowContra\n      JUMPDEST \t\t\trow public escrowContra\n      DUP3 \t\t\tigE\n      MSTORE \t\t\t\\r\\n    GigEscrow public escro...\n      POP \t\t\t }\\r\\n    \\r\\n    // State var...\n      POP \t\t\t }\\r\\n    \\r\\n    // State var...\n      JUMP \t\t\t }\\r\\n    \\r\\n    // State var...\n    tag 664\t\t\t  mapping(uint256 => Vote) pub...\n      JUMPDEST \t\t\t  mapping(uint256 => Vote) pub...\n      PUSH 0\t\t\tes;\\r\\n  \n      PUSH FFFFFFFFFFFFFFFFFFFFFFFFFFFFFFFFFFFFFFFFFFFFFFFFFFFF\t\t\t disputeExists;\\r\\n    \\r\\n   ...\n      DUP3 \t\t\t publ\n      AND \t\t\tool) public disputeExists;\\r\\n...\n      SWAP1 \t\t\tint256 => bool) public dispute...\n      POP \t\t\tint256 => bool) public dispute...\n      SWAP2 \t\t\t  mapping(uint256 => Vote) pub...\n      SWAP1 \t\t\t  mapping(uint256 => Vote) pub...\n      POP \t\t\t  mapping(uint256 => Vote) pub...\n      JUMP \t\t\t  mapping(uint256 => Vote) pub...\n    tag 665\t\t\t constant VOTING_PERIOD = 3 da...\n      JUMPDEST \t\t\t constant VOTING_PERIOD = 3 da...\n      PUSH [tag] 856\t\t\tAGE = 10; // 10% of tota\n      DUP2 \t\t\tf tot\n      PUSH [tag] 664\t\t\tAGE = 10; // 10% of tota\n      JUMP \t\t\tAGE = 10; // 10% of tota\n    tag 856\t\t\tAGE = 10; // 10% of tota\n      JUMPDEST \t\t\tAGE = 10; // 10% of tota\n      DUP3 \t\t\tRCE\n      MSTORE \t\t\tORUM_PERCENTAGE = 10; // 10% o...\n      POP \t\t\t constant VOTING_PERIOD = 3 da...\n      POP \t\t\t constant VOTING_PERIOD = 3 da...\n      JUMP \t\t\t constant VOTING_PERIOD = 3 da...\n    tag 666\t\t\timum to vote\\r\\n    \\r\\n    //...\n      JUMPDEST \t\t\timum to vote\\r\\n    \\r\\n    //...\n      PUSH 40\t\t\towId\n      DUP3 \t\t\t es\n      ADD \t\t\texed escrowId,\n      PUSH 0\t\t\toteF\n      DUP3 \t\t\tevent\n      ADD \t\t\t    event VoteFi\n      MLOAD \t\t\tnt);\\r\\n    event VoteFin\n      PUSH [tag] 858\t\t\t6 indexed escrowId, address in...\n      PUSH 0\t\t\talVo\n      DUP6 \t\t\t6 t\n      ADD \t\t\tnt256 totalVot\n      DUP3 \t\t\txed winner, \n      PUSH [tag] 663\t\t\t6 indexed escrowId, address in...\n      JUMP \t\t\t6 indexed escrowId, address in...\n    tag 858\t\t\t6 indexed escrowId, address in...\n      JUMPDEST \t\t\t6 indexed escrowId, address in...\n      POP \t\t\tndexed voter, bool supportFree...\n      PUSH 20\t\t\tum);\n      DUP3 \t\t\tredQu\n      ADD \t\t\tequiredQuorum);\\r\n      MLOAD \t\t\tt256 requiredQuorum);\\r\\n\n      PUSH [tag] 859\t\t\tModifiers\\r\\n    modifier only...\n      PUSH 20\t\t\tire(\n      DUP6 \t\t\t re\n      ADD \t\t\t     require(d\n      DUP3 \t\t\tolder() {\\r\\n \n      PUSH [tag] 665\t\t\tModifiers\\r\\n    modifier only...\n      JUMP \t\t\tModifiers\\r\\n    modifier only...\n    tag 859\t\t\tModifiers\\r\\n    modifier only...\n      JUMPDEST \t\t\tModifiers\\r\\n    modifier only...\n      POP \t\t\tmNotMet(uint256 indexed escrow...\n      POP \t\t\tt VoteCast(uint256 indexed esc...\n      POP \t\t\timum to vote\\r\\n    \\r\\n    //...\n      POP \t\t\timum to vote\\r\\n    \\r\\n    //...\n      JUMP \t\t\timum to vote\\r\\n    \\r\\n    //...\n    tag 155\t\t\tnder) >= MIN_TOKEN_BALANCE, \"I...\n      JUMPDEST \t\t\tnder) >= MIN_TOKEN_BALANCE, \"I...\n      PUSH 0\t\t\txist\n      PUSH 40\t\t\tes\n      DUP3 \t\t\te for thi\n      ADD \t\t\tspute for this esc\n      SWAP1 \t\t\t, \"No dispute for this esc\n      POP \t\t\t, \"No dispute for this esc\n      PUSH [tag] 861\t\t\t      _;\\r\\n    }\\r\\n    \\r\\n ...\n      PUSH 0\t\t\tq\n      DUP4 \t\t\t\\n        \n      ADD \t\t\td];\\r\\n        requ\n      DUP5 \t\t\ts[escr\n      PUSH [tag] 666\t\t\t      _;\\r\\n    }\\r\\n    \\r\\n ...\n      JUMP \t\t\t      _;\\r\\n    }\\r\\n    \\r\\n ...\n    tag 861\t\t\t      _;\\r\\n    }\\r\\n    \\r\\n ...\n      JUMPDEST \t\t\t      _;\\r\\n    }\\r\\n    \\r\\n ...\n      SWAP3 \t\t\tnder) >= MIN_TOKEN_BALANCE, \"I...\n      SWAP2 \t\t\tnder) >= MIN_TOKEN_BALANCE, \"I...\n      POP \t\t\tnder) >= MIN_TOKEN_BALANCE, \"I...\n      POP \t\t\tnder) >= MIN_TOKEN_BALANCE, \"I...\n      JUMP \t\t\tnder) >= MIN_TOKEN_BALANCE, \"I...\n    tag 667\t\t\tstamp >= voteData.startTime, \"...\n      JUMPDEST \t\t\tstamp >= voteData.startTime, \"...\n      PUSH 4E487B7100000000000000000000000000000000000000000000000000000000\t\t\t\");\\r\\n        require(block.t...\n      PUSH 0\t\t\tt\n      MSTORE \t\t\tot started\");\\r\\n        requi...\n      PUSH 22\t\t\te(!v\n      PUSH 4\t\t\tu\n      MSTORE \t\t\t    require(!vo\n      PUSH 24\t\t\tVote\n      PUSH 0\t\t\t,\n      REVERT \t\t\tnalized, \"Vote \n    tag 167\t\t\tlized\");\\r\\n        _;\\r\\n    ...\n      JUMPDEST \t\t\tlized\");\\r\\n        _;\\r\\n    ...\n      PUSH 0\t\t\tructor\n      PUSH 2\t\t\t,\n      DUP3 \t\t\tlOwn\n      DIV \t\t\titialOwner,\\r\n      SWAP1 \t\t\taddress initialOwner,\\r\n      POP \t\t\taddress initialOwner,\\r\n      PUSH 1\t\t\t_\n      DUP3 \t\t\tdres\n      AND \t\t\t  address _e\n      DUP1 \t\t\t) Ownable(initialO\n      PUSH [tag] 864\t\t\tract\\r\\n    ) Ownable(initialO...\n      JUMPI \t\t\tract\\r\\n    ) Ownable(initialO...\n      PUSH 7F\t\t\taddr\n      DUP3 \t\t\token !\n      AND \t\t\tdaoToken != addre\n      SWAP2 \t\t\t require(_daoToken != addre\n      POP \t\t\t require(_daoToken != addre\n    tag 864\t\t\tract\\r\\n    ) Ownable(initialO...\n      JUMPDEST \t\t\tract\\r\\n    ) Ownable(initialO...\n      PUSH 20\t\t\tcr\n      DUP3 \t\t\tuire(_\n      LT \t\t\trequire(_escro\n      DUP2 \t\t\taddress\");\\r\\n      \n      SUB \t\t\ten address\");\\r\\n        requi...\n      PUSH [tag] 865\t\t\ttoken address\");\\r\\n        re...\n      JUMPI \t\t\ttoken address\");\\r\\n        re...\n      PUSH [tag] 866\t\t\tress(0), \"Invalid \n      PUSH [tag] 667\t\t\tress(0), \"Invalid \n      JUMP \t\t\tress(0), \"Invalid \n    tag 866\t\t\tress(0), \"Invalid \n      JUMPDEST \t\t\tress(0), \"Invalid \n    tag 865\t\t\ttoken address\");\\r\\n        re...\n      JUMPDEST \t\t\ttoken address\");\\r\\n        re...\n      POP \t\t\t\\r\\n        address initialOwn...\n      SWAP2 \t\t\tlized\");\\r\\n        _;\\r\\n    ...\n      SWAP1 \t\t\tlized\");\\r\\n        _;\\r\\n    ...\n      POP \t\t\tlized\");\\r\\n        _;\\r\\n    ...\n      JUMP \t\t\tlized\");\\r\\n        _;\\r\\n    ...\n    tag 668\t\t\ts\");\\r\\n        \\r\\n        da...\n      JUMPDEST \t\t\ts\");\\r\\n        \\r\\n        da...\n      PUSH 4E6F7420617574686F72697A656420746F206D696E7400000000000000000000\t\t\t@dev Open a vote for an \n      PUSH 0\t\t\t \n      DUP3 \t\t\t/**\\r\\n \n      ADD \t\t\t    /**\\r\\n     \n      MSTORE \t\t\t\\n    \\r\\n    /**\\r\\n     * @d...\n      POP \t\t\ts\");\\r\\n        \\r\\n        da...\n      JUMP \t\t\ts\");\\r\\n        \\r\\n        da...\n    tag 669\t\t\t\\r\\n     * @param escrowId ID ...\n      JUMPDEST \t\t\t\\r\\n     * @param escrowId ID ...\n      PUSH 0\t\t\tspu\n      PUSH [tag] 869\t\t\t, \"Vote already exists for thi...\n      PUSH 16\t\t\tVe\n      DUP4 \t\t\t  /\n      PUSH [tag] 617\t\t\t, \"Vote already exists for thi...\n      JUMP \t\t\t, \"Vote already exists for thi...\n    tag 869\t\t\t, \"Vote already exists for thi...\n      JUMPDEST \t\t\t, \"Vote already exists for thi...\n      SWAP2 \t\t\tcrowId], \"Vote already exists ...\n      POP \t\t\tcrowId], \"Vote already exists ...\n      PUSH [tag] 870\t\t\tw exists and is disputed\\r\\n  ...\n      DUP3 \t\t\t.ge\n      PUSH [tag] 668\t\t\tw exists and is disputed\\r\\n  ...\n      JUMP \t\t\tw exists and is disputed\\r\\n  ...\n    tag 870\t\t\tw exists and is disputed\\r\\n  ...\n      JUMPDEST \t\t\tw exists and is disputed\\r\\n  ...\n      PUSH 20\t\t\t  \n      DUP3 \t\t\t   \n      ADD \t\t\t;\\r\\n        r\n      SWAP1 \t\t\tcrowId);\\r\\n        r\n      POP \t\t\tcrowId);\\r\\n        r\n      SWAP2 \t\t\t\\r\\n     * @param escrowId ID ...\n      SWAP1 \t\t\t\\r\\n     * @param escrowId ID ...\n      POP \t\t\t\\r\\n     * @param escrowId ID ...\n      JUMP \t\t\t\\r\\n     * @param escrowId ID ...\n    tag 199\t\t\twData.status == GigEscrow.Escr...\n      JUMPDEST \t\t\twData.status == GigEscrow.Escr...\n      PUSH 0\t\t\t vot\n      PUSH 20\t\t\tcr\n      DUP3 \t\t\tvoteData.\n      ADD \t\t\t    voteData.escro\n      SWAP1 \t\t\t];\\r\\n        voteData.escro\n      POP \t\t\t];\\r\\n        voteData.escro\n      DUP2 \t\t\tblock.tim\n      DUP2 \t\t\time \n      SUB \t\t\tartTime = block.time\n      PUSH 0\t\t\ta\n      DUP4 \t\t\t    voteD\n      ADD \t\t\t        voteData.\n      MSTORE \t\t\towId;\\r\\n        voteData.star...\n      PUSH [tag] 872\t\t\tteData.endTime = block.timesta...\n      DUP2 \t\t\towId\n      PUSH [tag] 669\t\t\tteData.endTime = block.timesta...\n      JUMP \t\t\tteData.endTime = block.timesta...\n    tag 872\t\t\tteData.endTime = block.timesta...\n      JUMPDEST \t\t\tteData.endTime = block.timesta...\n      SWAP1 \t\t\t      voteData.endTime = block...\n      POP \t\t\t      voteData.endTime = block...\n      SWAP2 \t\t\twData.status == GigEscrow.Escr...\n      SWAP1 \t\t\twData.status == GigEscrow.Escr...\n      POP \t\t\twData.status == GigEscrow.Escr...\n      JUMP \t\t\twData.status == GigEscrow.Escr...\n    tag 670\t\t\trtTime, voteData.endTime);\\r\\n...\n      JUMPDEST \t\t\trtTime, voteData.endTime);\\r\\n...\n      PUSH 4E487B7100000000000000000000000000000000000000000000000000000000\t\t\t\\r\\n     * @dev Cast a vote on...\n      PUSH 0\t\t\t/\n      MSTORE \t\t\t \\r\\n    /**\\r\\n     * @dev Ca...\n      PUSH 11\t\t\t\\n   \n      PUSH 4\t\t\to\n      MSTORE \t\t\ted escrow\\r\\n    \n      PUSH 24\t\t\teela\n      PUSH 0\t\t\tt\n      REVERT \t\t\t supportFreelan\n    tag 203\t\t\tsupport freelancer, false to s...\n      JUMPDEST \t\t\tsupport freelancer, false to s...\n      PUSH 0\t\t\tent\n      PUSH [tag] 875\t\t\tunction vote(\\r\\n     \n      DUP3 \t\t\t \n      PUSH [tag] 628\t\t\tunction vote(\\r\\n     \n      JUMP \t\t\tunction vote(\\r\\n     \n    tag 875\t\t\tunction vote(\\r\\n     \n      JUMPDEST \t\t\tunction vote(\\r\\n     \n      SWAP2 \t\t\t    function vote(\\r\\n     \n      POP \t\t\t    function vote(\\r\\n     \n      PUSH [tag] 876\t\t\trowId,\\r\\n        bool\n      DUP4 \t\t\to\n      PUSH [tag] 628\t\t\trowId,\\r\\n        bool\n      JUMP \t\t\trowId,\\r\\n        bool\n    tag 876\t\t\trowId,\\r\\n        bool\n      JUMPDEST \t\t\trowId,\\r\\n        bool\n      SWAP3 \t\t\t6 escrowId,\\r\\n        bool\n      POP \t\t\t6 escrowId,\\r\\n        bool\n      DUP3 \t\t\t \n      DUP3 \t\t\t \n      ADD \t\t\ter\\r\\n    )\n      SWAP1 \t\t\treelancer\\r\\n    )\n      POP \t\t\treelancer\\r\\n    )\n      DUP1 \t\t\tow(\n      DUP3 \t\t\ts\n      GT \t\t\tidEscrow(e\n      ISZERO \t\t\tvalidEscrow(escrowId) votingAc...\n      PUSH [tag] 877\t\t\tvalidEscrow(escrowId) votingAc...\n      JUMPI \t\t\tvalidEscrow(escrowId) votingAc...\n      PUSH [tag] 878\t\t\towId) votingActive\n      PUSH [tag] 670\t\t\towId) votingActive\n      JUMP \t\t\towId) votingActive\n    tag 878\t\t\towId) votingActive\n      JUMPDEST \t\t\towId) votingActive\n    tag 877\t\t\tvalidEscrow(escrowId) votingAc...\n      JUMPDEST \t\t\tvalidEscrow(escrowId) votingAc...\n      SWAP3 \t\t\tsupport freelancer, false to s...\n      SWAP2 \t\t\tsupport freelancer, false to s...\n      POP \t\t\tsupport freelancer, false to s...\n      POP \t\t\tsupport freelancer, false to s...\n      JUMP \t\t\tsupport freelancer, false to s...\n    tag 671\t\t\tTokenHolder nonReentrant {\\r\\n...\n      JUMPDEST \t\t\tTokenHolder nonReentrant {\\r\\n...\n      PUSH 45786365656473206D617820737570706C790000000000000000000000000000\t\t\teady voted\");\\r\\n     \n      PUSH 0\t\t\t\"\n      DUP3 \t\t\tender]\n      ADD \t\t\tsg.sender], \"A\n      MSTORE \t\t\tVoted[msg.sender], \"Already vo...\n      POP \t\t\tTokenHolder nonReentrant {\\r\\n...\n      JUMP \t\t\tTokenHolder nonReentrant {\\r\\n...\n    tag 672\t\t\tint256 voterBalance = daoToken...\n      JUMPDEST \t\t\tint256 voterBalance = daoToken...\n      PUSH 0\t\t\t   \n      PUSH [tag] 881\t\t\tta.hasVoted[msg.sender] = true...\n      PUSH 12\t\t\t.s\n      DUP4 \t\t\te[m\n      PUSH [tag] 617\t\t\tta.hasVoted[msg.sender] = true...\n      JUMP \t\t\tta.hasVoted[msg.sender] = true...\n    tag 881\t\t\tta.hasVoted[msg.sender] = true...\n      JUMPDEST \t\t\tta.hasVoted[msg.sender] = true...\n      SWAP2 \t\t\t voteData.hasVoted[msg.sender]...\n      POP \t\t\t voteData.hasVoted[msg.sender]...\n      PUSH [tag] 882\t\t\tupportFreelancer;\\r\\n        \\...\n      DUP3 \t\t\tFor\n      PUSH [tag] 671\t\t\tupportFreelancer;\\r\\n        \\...\n      JUMP \t\t\tupportFreelancer;\\r\\n        \\...\n    tag 882\t\t\tupportFreelancer;\\r\\n        \\...\n      JUMPDEST \t\t\tupportFreelancer;\\r\\n        \\...\n      PUSH 20\t\t\t;\\r\n      DUP3 \t\t\tlan\n      ADD \t\t\terBalance;\\r\\n\n      SWAP1 \t\t\t += voterBalance;\\r\\n\n      POP \t\t\t += voterBalance;\\r\\n\n      SWAP2 \t\t\tint256 voterBalance = daoToken...\n      SWAP1 \t\t\tint256 voterBalance = daoToken...\n      POP \t\t\tint256 voterBalance = daoToken...\n      JUMP \t\t\tint256 voterBalance = daoToken...\n    tag 206\t\t\tse {\\r\\n            voteData.v...\n      JUMPDEST \t\t\tse {\\r\\n            voteData.v...\n      PUSH 0\t\t\td, m\n      PUSH 20\t\t\trB\n      DUP3 \t\t\tancer, vo\n      ADD \t\t\treelancer, voterBa\n      SWAP1 \t\t\tsupportFreelancer, voterBa\n      POP \t\t\tsupportFreelancer, voterBa\n      DUP2 \t\t\talize a v\n      DUP2 \t\t\tev F\n      SUB \t\t\t* @dev Finalize a vo\n      PUSH 0\t\t\t \n      DUP4 \t\t\t\\n    /**\\r\n      ADD \t\t\t   \\r\\n    /**\\r\\n   \n      MSTORE \t\t\t   }\\r\\n    \\r\\n    /**\\r\\n   ...\n      PUSH [tag] 884\t\t\t result\\r\\n     * @param escro...\n      DUP2 \t\t\tEscr\n      PUSH [tag] 672\t\t\t result\\r\\n     * @param escro...\n      JUMP \t\t\t result\\r\\n     * @param escro...\n    tag 884\t\t\t result\\r\\n     * @param escro...\n      JUMPDEST \t\t\t result\\r\\n     * @param escro...\n      SWAP1 \t\t\tcute the result\\r\\n     * @par...\n      POP \t\t\tcute the result\\r\\n     * @par...\n      SWAP2 \t\t\tse {\\r\\n            voteData.v...\n      SWAP1 \t\t\tse {\\r\\n            voteData.v...\n      POP \t\t\tse {\\r\\n            voteData.v...\n      JUMP \t\t\tse {\\r\\n            voteData.v...\n    tag 673\t\t\tonReentrant {\\r\\n        Vote ...\n      JUMPDEST \t\t\tonReentrant {\\r\\n        Vote ...\n      PUSH 417272617973206C656E677468206D69736D6174636800000000000000000000\t\t\td not ended\");\\r\\n        \n      PUSH 0\t\t\te\n      DUP3 \t\t\tVoting\n      ADD \t\t\te, \"Voting per\n      MSTORE \t\t\t.endTime, \"Voting period not e...\n      POP \t\t\tonReentrant {\\r\\n        Vote ...\n      JUMP \t\t\tonReentrant {\\r\\n        Vote ...\n    tag 674\t\t\tata.finalized, \"Vote already f...\n      JUMPDEST \t\t\tata.finalized, \"Vote already f...\n      PUSH 0\t\t\tuin\n      PUSH [tag] 887\t\t\t daoToken.totalSupply();\\r\\n  ...\n      PUSH 16\t\t\tlS\n      DUP4 \t\t\t(to\n      PUSH [tag] 617\t\t\t daoToken.totalSupply();\\r\\n  ...\n      JUMP \t\t\t daoToken.totalSupply();\\r\\n  ...\n    tag 887\t\t\t daoToken.totalSupply();\\r\\n  ...\n      JUMPDEST \t\t\t daoToken.totalSupply();\\r\\n  ...\n      SWAP2 \t\t\tupply = daoToken.totalSupply()...\n      POP \t\t\tupply = daoToken.totalSupply()...\n      PUSH [tag] 888\t\t\tORUM_PERCENTAGE) / 100;\\r\\n   ...\n      DUP3 \t\t\t   \n      PUSH [tag] 673\t\t\tORUM_PERCENTAGE) / 100;\\r\\n   ...\n      JUMP \t\t\tORUM_PERCENTAGE) / 100;\\r\\n   ...\n    tag 888\t\t\tORUM_PERCENTAGE) / 100;\\r\\n   ...\n      JUMPDEST \t\t\tORUM_PERCENTAGE) / 100;\\r\\n   ...\n      PUSH 20\t\t\tes\n      DUP3 \t\t\ttMe\n      ADD \t\t\tumNotMet(esc\n      SWAP1 \t\t\tit QuorumNotMet(esc\n      POP \t\t\tit QuorumNotMet(esc\n      SWAP2 \t\t\tata.finalized, \"Vote already f...\n      SWAP1 \t\t\tata.finalized, \"Vote already f...\n      POP \t\t\tata.finalized, \"Vote already f...\n      JUMP \t\t\tata.finalized, \"Vote already f...\n    tag 227\t\t\tata.totalVotes, requiredQuorum...\n      JUMPDEST \t\t\tata.totalVotes, requiredQuorum...\n      PUSH 0\t\t\tw(es\n      PUSH 20\t\t\t\\n \n      DUP3 \t\t\t  } else \n      ADD \t\t\t      } else {\\r\\n  \n      SWAP1 \t\t\tent;\\r\\n        } else {\\r\\n  \n      POP \t\t\tent;\\r\\n        } else {\\r\\n  \n      DUP2 \t\t\t         \n      DUP2 \t\t\totes\n      SUB \t\t\ton votes\\r\\n          \n      PUSH 0\t\t\ts\n      DUP4 \t\t\te winner \n      ADD \t\t\trmine winner base\n      MSTORE \t\t\t// Determine winner based on v...\n      PUSH [tag] 890\t\t\tesForFreelancer > voteData.vot...\n      DUP2 \t\t\t\\r\\n  \n      PUSH [tag] 674\t\t\tesForFreelancer > voteData.vot...\n      JUMP \t\t\tesForFreelancer > voteData.vot...\n    tag 890\t\t\tesForFreelancer > voteData.vot...\n      JUMPDEST \t\t\tesForFreelancer > voteData.vot...\n      SWAP1 \t\t\tData.votesForFreelancer > vote...\n      POP \t\t\tData.votesForFreelancer > vote...\n      SWAP2 \t\t\tata.totalVotes, requiredQuorum...\n      SWAP1 \t\t\tata.totalVotes, requiredQuorum...\n      POP \t\t\tata.totalVotes, requiredQuorum...\n      JUMP \t\t\tata.totalVotes, requiredQuorum...\n    tag 233\t\t\tse {\\r\\n                voteDa...\n      JUMPDEST \t\t\tse {\\r\\n                voteDa...\n      PUSH 4E487B7100000000000000000000000000000000000000000000000000000000\t\t\tntract.getEscrow(escrowId).cli...\n      PUSH 0\t\t\tw\n      MSTORE \t\t\t= escrowContract.getEscrow(esc...\n      PUSH 32\t\t\tcisi\n      PUSH 4\t\t\t \n      MSTORE \t\t\tute the decisio\n      PUSH 24\t\t\t con\n      PUSH 0\t\t\tr\n      REVERT \t\t\ting escrow cont\n    tag 267\t\t\t  escrowContract.releaseTo(esc...\n      JUMPDEST \t\t\t  escrowContract.releaseTo(esc...\n      PUSH 4E487B7100000000000000000000000000000000000000000000000000000000\t\t\tnner);\\r\\n        \\r\\n        ...\n      PUSH 0\t\t\t.\n      MSTORE \t\t\toteData.winner);\\r\\n        \\r...\n      PUSH 41\t\t\t  }\\r\n      PUSH 4\t\t\t\\n\n      MSTORE \t\t\totes);\\r\\n    }\\r\\n\n      PUSH 24\t\t\t * @\n      PUSH 0\t\t\t \n      REVERT \t\t\t /**\\r\\n     * @d\n    tag 296\t\t\tdetails\\r\\n     * @param escro...\n      JUMPDEST \t\t\tdetails\\r\\n     * @param escro...\n      PUSH 0\t\t\tme,\\r\n      PUSH 80\t\t\t ui\n      DUP3 \t\t\te,\\r\\n     \n      ADD \t\t\tdTime,\\r\\n        uin\n      SWAP1 \t\t\tnt256 endTime,\\r\\n        uin\n      POP \t\t\tnt256 endTime,\\r\\n        uin\n      PUSH [tag] 894\t\t\tForFreelancer,\\r\\n        uint...\n      PUSH 0\t\t\ta\n      DUP4 \t\t\tuint256 t\n      ADD \t\t\t    uint256 total\n      DUP8 \t\t\tnt,\\r\\n \n      PUSH [tag] 647\t\t\tForFreelancer,\\r\\n        uint...\n      JUMP \t\t\tForFreelancer,\\r\\n        uint...\n    tag 894\t\t\tForFreelancer,\\r\\n        uint...\n      JUMPDEST \t\t\tForFreelancer,\\r\\n        uint...\n      PUSH [tag] 895\t\t\t     bool finalized,\\r\\n      ...\n      PUSH 20\t\t\tst\n      DUP4 \t\t\t      Vot\n      ADD \t\t\t\\r\\n        Vote sto\n      DUP7 \t\t\t\\r\\n    \n      PUSH [tag] 636\t\t\t     bool finalized,\\r\\n      ...\n      JUMP \t\t\t     bool finalized,\\r\\n      ...\n    tag 895\t\t\t     bool finalized,\\r\\n      ...\n      JUMPDEST \t\t\t     bool finalized,\\r\\n      ...\n      PUSH [tag] 896\t\t\tta = votes[escrowId];\\r\\n     ...\n      PUSH 40\t\t\tim\n      DUP4 \t\t\tData.star\n      ADD \t\t\tvoteData.startTime\n      DUP6 \t\t\t      \n      PUSH [tag] 633\t\t\tta = votes[escrowId];\\r\\n     ...\n      JUMP \t\t\tta = votes[escrowId];\\r\\n     ...\n    tag 896\t\t\tta = votes[escrowId];\\r\\n     ...\n      JUMPDEST \t\t\tta = votes[escrowId];\\r\\n     ...\n      PUSH [tag] 897\t\t\t    voteData.endTime,\\r\\n     ...\n      PUSH 60\t\t\t  \n      DUP4 \t\t\tancer,\\r\\n \n      ADD \t\t\treelancer,\\r\\n      \n      DUP5 \t\t\tvotesF\n      PUSH [tag] 633\t\t\t    voteData.endTime,\\r\\n     ...\n      JUMP \t\t\t    voteData.endTime,\\r\\n     ...\n    tag 897\t\t\t    voteData.endTime,\\r\\n     ...\n      JUMPDEST \t\t\t    voteData.endTime,\\r\\n     ...\n      SWAP6 \t\t\tdetails\\r\\n     * @param escro...\n      SWAP5 \t\t\tdetails\\r\\n     * @param escro...\n      POP \t\t\tdetails\\r\\n     * @param escro...\n      POP \t\t\tdetails\\r\\n     * @param escro...\n      POP \t\t\tdetails\\r\\n     * @param escro...\n      POP \t\t\tdetails\\r\\n     * @param escro...\n      POP \t\t\tdetails\\r\\n     * @param escro...\n      JUMP \t\t\tdetails\\r\\n     * @param escro...\n    tag 316\t\t\t.votesForClient,\\r\\n          ...\n      JUMPDEST \t\t\t.votesForClient,\\r\\n          ...\n      PUSH 0\t\t\tota\n      PUSH [tag] 899\t\t\t     voteData.finali\n      DUP3 \t\t\tl\n      PUSH [tag] 664\t\t\t     voteData.finali\n      JUMP \t\t\t     voteData.finali\n    tag 899\t\t\t     voteData.finali\n      JUMPDEST \t\t\t     voteData.finali\n      SWAP2 \t\t\t          voteData.finali\n      POP \t\t\t          voteData.finali\n      PUSH [tag] 900\t\t\t    voteData.winner\\r\n      DUP4 \t\t\tr\n      PUSH [tag] 664\t\t\t    voteData.winner\\r\n      JUMP \t\t\t    voteData.winner\\r\n    tag 900\t\t\t    voteData.winner\\r\n      JUMPDEST \t\t\t    voteData.winner\\r\n      SWAP3 \t\t\t         voteData.winner\\r\n      POP \t\t\t         voteData.winner\\r\n      DUP3 \t\t\t \n      DUP3 \t\t\t \n      ADD \t\t\t }\\r\\n    \\r\n      SWAP1 \t\t\t);\\r\\n    }\\r\\n    \\r\n      POP \t\t\t);\\r\\n    }\\r\\n    \\r\n      PUSH FFFFFFFFFFFFFFFFFFFFFFFFFFFFFFFFFFFFFFFFFFFFFFFFFFFF\t\t\t Check if an address has voted...\n      DUP2 \t\t\t @d\n      GT \t\t\t  * @dev Check if an address h...\n      ISZERO \t\t\t     * @dev Check if an addres...\n      PUSH [tag] 901\t\t\t     * @dev Check if an addres...\n      JUMPI \t\t\t     * @dev Check if an addres...\n      PUSH [tag] 902\t\t\t* @param escrowId \n      PUSH [tag] 670\t\t\t* @param escrowId \n      JUMP \t\t\t* @param escrowId \n    tag 902\t\t\t* @param escrowId \n      JUMPDEST \t\t\t* @param escrowId \n    tag 901\t\t\t     * @dev Check if an addres...\n      JUMPDEST \t\t\t     * @dev Check if an addres...\n      SWAP3 \t\t\t.votesForClient,\\r\\n          ...\n      SWAP2 \t\t\t.votesForClient,\\r\\n          ...\n      POP \t\t\t.votesForClient,\\r\\n          ...\n      POP \t\t\t.votesForClient,\\r\\n          ...\n      JUMP \t\t\t.votesForClient,\\r\\n          ...\n    tag 319\t\t\tted escrow\\r\\n     * @param vo...\n      JUMPDEST \t\t\tted escrow\\r\\n     * @param vo...\n      PUSH 0\t\t\tto c\n      PUSH [tag] 904\t\t\t   function hasVoted\n      DUP3 \t\t\te\n      PUSH [tag] 664\t\t\t   function hasVoted\n      JUMP \t\t\t   function hasVoted\n    tag 904\t\t\t   function hasVoted\n      JUMPDEST \t\t\t   function hasVoted\n      SWAP2 \t\t\t*/\\r\\n    function hasVoted\n      POP \t\t\t*/\\r\\n    function hasVoted\n      PUSH [tag] 905\t\t\twId, address voter) \n      DUP4 \t\t\t)\n      PUSH [tag] 664\t\t\twId, address voter) \n      JUMP \t\t\twId, address voter) \n    tag 905\t\t\twId, address voter) \n      JUMPDEST \t\t\twId, address voter) \n      SWAP3 \t\t\tescrowId, address voter) \n      POP \t\t\tescrowId, address voter) \n      DUP3 \t\t\tw\n      DUP3 \t\t\tc\n      SUB \t\t\tidEscrow(\n      SWAP1 \t\t\tview validEscrow(\n      POP \t\t\tview validEscrow(\n      PUSH FFFFFFFFFFFFFFFFFFFFFFFFFFFFFFFFFFFFFFFFFFFFFFFFFFFF\t\t\tl) {\\r\\n        return votes[e...\n      DUP2 \t\t\ts (b\n      GT \t\t\turns (bool) {\\r\\n        retur...\n      ISZERO \t\t\treturns (bool) {\\r\\n        re...\n      PUSH [tag] 906\t\t\treturns (bool) {\\r\\n        re...\n      JUMPI \t\t\treturns (bool) {\\r\\n        re...\n      PUSH [tag] 907\t\t\t }\\r\\n    \\r\\n    /**\\r\n      PUSH [tag] 670\t\t\t }\\r\\n    \\r\\n    /**\\r\n      JUMP \t\t\t }\\r\\n    \\r\\n    /**\\r\n    tag 907\t\t\t }\\r\\n    \\r\\n    /**\\r\n      JUMPDEST \t\t\t }\\r\\n    \\r\\n    /**\\r\n    tag 906\t\t\treturns (bool) {\\r\\n        re...\n      JUMPDEST \t\t\treturns (bool) {\\r\\n        re...\n      SWAP3 \t\t\tted escrow\\r\\n     * @param vo...\n      SWAP2 \t\t\tted escrow\\r\\n     * @param vo...\n      POP \t\t\tted escrow\\r\\n     * @param vo...\n      POP \t\t\tted escrow\\r\\n     * @param vo...\n      JUMP \t\t\tted escrow\\r\\n     * @param vo...\n    tag 329\t\t\tt voter's choice on a specific...\n      JUMPDEST \t\t\tt voter's choice on a specific...\n      PUSH 0\t\t\tgetV\n      PUSH 60\t\t\tss\n      DUP3 \t\t\towId, add\n      ADD \t\t\tescrowId, address \n      SWAP1 \t\t\tuint256 escrowId, address \n      POP \t\t\tuint256 escrowId, address \n      PUSH [tag] 909\t\t\ternal view validEscrow(escrowI...\n      PUSH 0\t\t\to\n      DUP4 \t\t\t  require\n      ADD \t\t\t      require(vot\n      DUP7 \t\t\tol) {\\r\n      PUSH [tag] 636\t\t\ternal view validEscrow(escrowI...\n      JUMP \t\t\ternal view validEscrow(escrowI...\n    tag 909\t\t\ternal view validEscrow(escrowI...\n      JUMPDEST \t\t\ternal view validEscrow(escrowI...\n      PUSH [tag] 910\t\t\t].hasVoted[voter], \"Voter has ...\n      PUSH 20\t\t\tro\n      DUP4 \t\t\tn votes[e\n      ADD \t\t\teturn votes[escrow\n      DUP6 \t\t\t      \n      PUSH [tag] 633\t\t\t].hasVoted[voter], \"Voter has ...\n      JUMP \t\t\t].hasVoted[voter], \"Voter has ...\n    tag 910\t\t\t].hasVoted[voter], \"Voter has ...\n      JUMPDEST \t\t\t].hasVoted[voter], \"Voter has ...\n      PUSH [tag] 911\t\t\tice[voter];\\r\\n    }\\r\\n    \\r...\n      PUSH 40\t\t\trr\n      DUP4 \t\t\toting is \n      ADD \t\t\tif voting is curre\n      DUP5 \t\t\tev Che\n      PUSH [tag] 633\t\t\tice[voter];\\r\\n    }\\r\\n    \\r...\n      JUMP \t\t\tice[voter];\\r\\n    }\\r\\n    \\r...\n    tag 911\t\t\tice[voter];\\r\\n    }\\r\\n    \\r...\n      JUMPDEST \t\t\tice[voter];\\r\\n    }\\r\\n    \\r...\n      SWAP5 \t\t\tt voter's choice on a specific...\n      SWAP4 \t\t\tt voter's choice on a specific...\n      POP \t\t\tt voter's choice on a specific...\n      POP \t\t\tt voter's choice on a specific...\n      POP \t\t\tt voter's choice on a specific...\n      POP \t\t\tt voter's choice on a specific...\n      JUMP \t\t\tt voter's choice on a specific...\n    tag 348\t\t\tr an escrow\\r\\n     * @param e...\n      JUMPDEST \t\t\tr an escrow\\r\\n     * @param e...\n      PUSH 0\t\t\txter\n      PUSH 40\t\t\t i\n      DUP3 \t\t\t {\\r\\n     \n      ADD \t\t\tool) {\\r\\n        if\n      SWAP1 \t\t\tturns (bool) {\\r\\n        if\n      POP \t\t\tturns (bool) {\\r\\n        if\n      PUSH [tag] 913\t\t\tExists[escrowId]) return false...\n      PUSH 0\t\t\tD\n      DUP4 \t\t\ttorage vo\n      ADD \t\t\tte storage voteDa\n      DUP6 \t\t\t      \n      PUSH [tag] 633\t\t\tExists[escrowId]) return false...\n      JUMP \t\t\tExists[escrowId]) return false...\n    tag 913\t\t\tExists[escrowId]) return false...\n      JUMPDEST \t\t\tExists[escrowId]) return false...\n      PUSH [tag] 914\t\t\tescrowId];\\r\\n        return (...\n      PUSH 20\t\t\tat\n      DUP4 \t\t\tmp >= vot\n      ADD \t\t\testamp >= voteData\n      DUP5 \t\t\tblock.\n      PUSH [tag] 656\t\t\tescrowId];\\r\\n        return (...\n      JUMP \t\t\tescrowId];\\r\\n        return (...\n    tag 914\t\t\tescrowId];\\r\\n        return (...\n      JUMPDEST \t\t\tescrowId];\\r\\n        return (...\n      SWAP4 \t\t\tr an escrow\\r\\n     * @param e...\n      SWAP3 \t\t\tr an escrow\\r\\n     * @param e...\n      POP \t\t\tr an escrow\\r\\n     * @param e...\n      POP \t\t\tr an escrow\\r\\n     * @param e...\n      POP \t\t\tr an escrow\\r\\n     * @param e...\n      JUMP \t\t\tr an escrow\\r\\n     * @param e...\n    tag 356\t\t\t\\n            block.timestamp ...\n      JUMPDEST \t\t\t\\n            block.timestamp ...\n      PUSH 0\t\t\t.end\n      PUSH [tag] 916\t\t\t     !voteData.final\n      DUP3 \t\t\ta\n      PUSH [tag] 628\t\t\t     !voteData.final\n      JUMP \t\t\t     !voteData.final\n    tag 916\t\t\t     !voteData.final\n      JUMPDEST \t\t\t     !voteData.final\n      SWAP2 \t\t\t          !voteData.final\n      POP \t\t\t          !voteData.final\n      PUSH [tag] 917\t\t\t);\\r\\n    }\\r\\n    \\r\\n   \n      DUP4 \t\t\t \n      PUSH [tag] 628\t\t\t);\\r\\n    }\\r\\n    \\r\\n   \n      JUMP \t\t\t);\\r\\n    }\\r\\n    \\r\\n   \n    tag 917\t\t\t);\\r\\n    }\\r\\n    \\r\\n   \n      JUMPDEST \t\t\t);\\r\\n    }\\r\\n    \\r\\n   \n      SWAP3 \t\t\t     );\\r\\n    }\\r\\n    \\r\\n  ...\n      POP \t\t\t     );\\r\\n    }\\r\\n    \\r\\n  ...\n      DUP3 \t\t\tq\n      DUP3 \t\t\t \n      SUB \t\t\t Get requ\n      SWAP1 \t\t\t  * @dev Get requ\n      POP \t\t\t  * @dev Get requ\n      DUP2 \t\t\t\\r\n      DUP2 \t\t\tvoti\n      GT \t\t\tor voting\\r\\n\n      ISZERO \t\t\tm for voting\\r\\n     */\\r\\n   ...\n      PUSH [tag] 918\t\t\tm for voting\\r\\n     */\\r\\n   ...\n      JUMPI \t\t\tm for voting\\r\\n     */\\r\\n   ...\n      PUSH [tag] 919\t\t\t  */\\r\\n    function\n      PUSH [tag] 670\t\t\t  */\\r\\n    function\n      JUMP \t\t\t  */\\r\\n    function\n    tag 919\t\t\t  */\\r\\n    function\n      JUMPDEST \t\t\t  */\\r\\n    function\n    tag 918\t\t\tm for voting\\r\\n     */\\r\\n   ...\n      JUMPDEST \t\t\tm for voting\\r\\n     */\\r\\n   ...\n      SWAP3 \t\t\t\\n            block.timestamp ...\n      SWAP2 \t\t\t\\n            block.timestamp ...\n      POP \t\t\t\\n            block.timestamp ...\n      POP \t\t\t\\n            block.timestamp ...\n      JUMP \t\t\t\\n            block.timestamp ...\n    tag 412\t\t\trum() external view returns (u...\n      JUMPDEST \t\t\trum() external view returns (u...\n      PUSH 0\t\t\tly *\n      PUSH 40\t\t\t\\n \n      DUP3 \t\t\t00;\\r\\n    \n      ADD \t\t\t / 100;\\r\\n    }\\r\\n  \n      SWAP1 \t\t\tCENTAGE) / 100;\\r\\n    }\\r\\n  \n      POP \t\t\tCENTAGE) / 100;\\r\\n    }\\r\\n  \n      PUSH [tag] 921\t\t\t*\\r\\n     * @dev Check if an a...\n      PUSH 0\t\t\tc\n      DUP4 \t\t\ttoken bal\n      ADD \t\t\tmum token balance\n      DUP6 \t\t\t(has m\n      PUSH [tag] 636\t\t\t*\\r\\n     * @dev Check if an a...\n      JUMP \t\t\t*\\r\\n     * @dev Check if an a...\n    tag 921\t\t\t*\\r\\n     * @dev Check if an a...\n      JUMPDEST \t\t\t*\\r\\n     * @dev Check if an a...\n      PUSH [tag] 922\t\t\tparam voter Address to check\\r...\n      PUSH 20\t\t\tvo\n      DUP4 \t\t\tte(addres\n      ADD \t\t\tanVote(address vot\n      DUP5 \t\t\tunctio\n      PUSH [tag] 633\t\t\tparam voter Address to check\\r...\n      JUMP \t\t\tparam voter Address to check\\r...\n    tag 922\t\t\tparam voter Address to check\\r...\n      JUMPDEST \t\t\tparam voter Address to check\\r...\n      SWAP4 \t\t\trum() external view returns (u...\n      SWAP3 \t\t\trum() external view returns (u...\n      POP \t\t\trum() external view returns (u...\n      POP \t\t\trum() external view returns (u...\n      POP \t\t\trum() external view returns (u...\n      JUMP \t\t\trum() external view returns (u...\n    tag 675\t\t\tiew returns (bool) {\\r\\n      ...\n      JUMPDEST \t\t\tiew returns (bool) {\\r\\n      ...\n      PUSH 0\t\t\tbalance\n      DUP2 \t\t\t_BALA\n      SWAP1 \t\t\t= MIN_TOKEN_BALA\n      POP \t\t\t= MIN_TOKEN_BALA\n      SWAP2 \t\t\tiew returns (bool) {\\r\\n      ...\n      SWAP1 \t\t\tiew returns (bool) {\\r\\n      ...\n      POP \t\t\tiew returns (bool) {\\r\\n      ...\n      JUMP \t\t\tiew returns (bool) {\\r\\n      ...\n    tag 676\t\t\t\\n    \\r\\n    /**\\r\\n     * @d...\n      JUMPDEST \t\t\t\\n    \\r\\n    /**\\r\\n     * @d...\n      PUSH 0\t\t\tGet\n      DUP2 \t\t\tn add\n      SWAP1 \t\t\ter of an add\n      POP \t\t\ter of an add\n      SWAP2 \t\t\t\\n    \\r\\n    /**\\r\\n     * @d...\n      SWAP1 \t\t\t\\n    \\r\\n    /**\\r\\n     * @d...\n      POP \t\t\t\\n    \\r\\n    /**\\r\\n     * @d...\n      JUMP \t\t\t\\n    \\r\\n    /**\\r\\n     * @d...\n    tag 677\t\t\t @param voter Address to check...\n      JUMPDEST \t\t\t @param voter Address to check...\n      PUSH 0\t\t\tVotingPow\n      PUSH [tag] 926\t\t\tal view returns (uint256) {\\r\\...\n      PUSH [tag] 927\t\t\t(uint256) {\\r\\n        return ...\n      PUSH [tag] 928\t\t\t {\\r\\n        return daoToken....\n      DUP5 \t\t\t.bala\n      PUSH [tag] 675\t\t\t {\\r\\n        return daoToken....\n      JUMP \t\t\t {\\r\\n        return daoToken....\n    tag 928\t\t\t {\\r\\n        return daoToken....\n      JUMPDEST \t\t\t {\\r\\n        return daoToken....\n      PUSH [tag] 676\t\t\t(uint256) {\\r\\n        return ...\n      JUMP \t\t\t(uint256) {\\r\\n        return ...\n    tag 927\t\t\t(uint256) {\\r\\n        return ...\n      JUMPDEST \t\t\t(uint256) {\\r\\n        return ...\n      PUSH [tag] 634\t\t\tal view returns (uint256) {\\r\\...\n      JUMP \t\t\tal view returns (uint256) {\\r\\...\n    tag 926\t\t\tal view returns (uint256) {\\r\\...\n      JUMPDEST \t\t\tal view returns (uint256) {\\r\\...\n      SWAP1 \t\t\tvoter) external view returns (...\n      POP \t\t\tvoter) external view returns (...\n      SWAP2 \t\t\t @param voter Address to check...\n      SWAP1 \t\t\t @param voter Address to check...\n      POP \t\t\t @param voter Address to check...\n      JUMP \t\t\t @param voter Address to check...\n    tag 678\t\t\t    }\\r\\n    \\r\\n    /**\\r\\n  ...\n      JUMPDEST \t\t\t    }\\r\\n    \\r\\n    /**\\r\\n  ...\n      PUSH [tag] 930\t\t\t     * @param newMinBalance Ne...\n      DUP2 \t\t\tm bal\n      PUSH [tag] 677\t\t\t     * @param newMinBalance Ne...\n      JUMP \t\t\t     * @param newMinBalance Ne...\n    tag 930\t\t\t     * @param newMinBalance Ne...\n      JUMPDEST \t\t\t     * @param newMinBalance Ne...\n      DUP3 \t\t\ter)\n      MSTORE \t\t\tnly owner)\\r\\n     * @param ne...\n      POP \t\t\t    }\\r\\n    \\r\\n    /**\\r\\n  ...\n      POP \t\t\t    }\\r\\n    \\r\\n    /**\\r\\n  ...\n      JUMP \t\t\t    }\\r\\n    \\r\\n    /**\\r\\n  ...\n    tag 430\t\t\t\\n    function updateMinTokenB...\n      JUMPDEST \t\t\t\\n    function updateMinTokenB...\n      PUSH 0\t\t\tm ba\n      PUSH 40\t\t\t  \n      DUP3 \t\t\than 0\");\\r\n      ADD \t\t\ter than 0\");\\r\\n    \n      SWAP1 \t\t\tbe greater than 0\");\\r\\n    \n      POP \t\t\tbe greater than 0\");\\r\\n    \n      PUSH [tag] 932\t\t\te: This would require a state ...\n      PUSH 0\t\t\tn\n      DUP4 \t\t\t make it \n      ADD \t\t\tt to make it conf\n      DUP6 \t\t\tif we \n      PUSH [tag] 678\t\t\te: This would require a state ...\n      JUMP \t\t\te: This would require a state ...\n    tag 932\t\t\te: This would require a state ...\n      JUMPDEST \t\t\te: This would require a state ...\n      PUSH [tag] 933\t\t\t       // For now, it's a cons...\n      PUSH 20\t\t\t*\\r\n      DUP4 \t\t\t   \\r\\n    \n      ADD \t\t\t}\\r\\n    \\r\\n    /**\\r\\n\n      DUP5 \t\t\tity\\r\\n \n      PUSH [tag] 633\t\t\t       // For now, it's a cons...\n      JUMP \t\t\t       // For now, it's a cons...\n    tag 933\t\t\t       // For now, it's a cons...\n      JUMPDEST \t\t\t       // For now, it's a cons...\n      SWAP4 \t\t\t\\n    function updateMinTokenB...\n      SWAP3 \t\t\t\\n    function updateMinTokenB...\n      POP \t\t\t\\n    function updateMinTokenB...\n      POP \t\t\t\\n    function updateMinTokenB...\n      POP \t\t\t\\n    function updateMinTokenB...\n      JUMP \t\t\t\\n    function updateMinTokenB...\n    tag 442\t\t\tergency function to update esc...\n      JUMPDEST \t\t\tergency function to update esc...\n      PUSH 4E487B7100000000000000000000000000000000000000000000000000000000\t\t\tss (only owner)\\r\\n     * @par...\n      PUSH 0\t\t\td\n      MSTORE \t\t\tract address (only owner)\\r\\n ...\n      PUSH 12\t\t\ton u\n      PUSH 4\t\t\tc\n      MSTORE \t\t\t    function up\n      PUSH 24\t\t\taddr\n      PUSH 0\t\t\tc\n      REVERT \t\t\twContract(addre\n    tag 478\t\t\tContract) external onlyOwner {...\n      JUMPDEST \t\t\tContract) external onlyOwner {...\n      PUSH 0\t\t\tact \n      PUSH 40\t\t\t  \n      DUP3 \t\t\tntract);\\r\n      ADD \t\t\towContract);\\r\\n    \n      SWAP1 \t\t\t(newEscrowContract);\\r\\n    \n      POP \t\t\t(newEscrowContract);\\r\\n    \n      PUSH [tag] 936\t\t\t   /**\\r\\n     * @dev Get all ...\n      PUSH 0\t\t\tn\n      DUP4 \t\t\t    funct\n      ADD \t\t\t*/\\r\\n    function \n      DUP6 \t\t\tnt\\r\\n  \n      PUSH [tag] 633\t\t\t   /**\\r\\n     * @dev Get all ...\n      JUMP \t\t\t   /**\\r\\n     * @dev Get all ...\n    tag 936\t\t\t   /**\\r\\n     * @dev Get all ...\n      JUMPDEST \t\t\t   /**\\r\\n     * @dev Get all ...\n      PUSH [tag] 937\t\t\ttesCount() external view retur...\n      PUSH 20\t\t\tis\n      DUP4 \t\t\t   // Thi\n      ADD \t\t\t       // This is \n      DUP5 \t\t\tunt) {\n      PUSH [tag] 633\t\t\ttesCount() external view retur...\n      JUMP \t\t\ttesCount() external view retur...\n    tag 937\t\t\ttesCount() external view retur...\n      JUMPDEST \t\t\ttesCount() external view retur...\n      SWAP4 \t\t\tContract) external onlyOwner {...\n      SWAP3 \t\t\tContract) external onlyOwner {...\n      POP \t\t\tContract) external onlyOwner {...\n      POP \t\t\tContract) external onlyOwner {...\n      POP \t\t\tContract) external onlyOwner {...\n      JUMP \t\t\tContract) external onlyOwner {...\n    tag 679\t\t\tmentation - in production, you...\n      JUMPDEST \t\t\tmentation - in production, you...\n      PUSH 0\t\t\track th\n      DUP2 \t\t\t     \n      SWAP1 \t\t\ticiently\\r\\n      \n      POP \t\t\ticiently\\r\\n      \n      SWAP2 \t\t\tmentation - in production, you...\n      SWAP1 \t\t\tmentation - in production, you...\n      POP \t\t\tmentation - in production, you...\n      JUMP \t\t\tmentation - in production, you...\n    tag 680\t\t\t56 i = 1; i <= escrowContract....\n      JUMPDEST \t\t\t56 i = 1; i <= escrowContract....\n      PUSH 0\t\t\t         \n      PUSH [tag] 940\t\t\t&& !votes[i].finalized) {\\r\\n ...\n      PUSH [tag] 941\t\t\talized) {\\r\\n                i...\n      PUSH [tag] 942\t\t\t\\r\\n                if (block....\n      DUP5 \t\t\t.time\n      PUSH [tag] 679\t\t\t\\r\\n                if (block....\n      JUMP \t\t\t\\r\\n                if (block....\n    tag 942\t\t\t\\r\\n                if (block....\n      JUMPDEST \t\t\t\\r\\n                if (block....\n      PUSH [tag] 676\t\t\talized) {\\r\\n                i...\n      JUMP \t\t\talized) {\\r\\n                i...\n    tag 941\t\t\talized) {\\r\\n                i...\n      JUMPDEST \t\t\talized) {\\r\\n                i...\n      PUSH [tag] 634\t\t\t&& !votes[i].finalized) {\\r\\n ...\n      JUMP \t\t\t&& !votes[i].finalized) {\\r\\n ...\n    tag 940\t\t\t&& !votes[i].finalized) {\\r\\n ...\n      JUMPDEST \t\t\t&& !votes[i].finalized) {\\r\\n ...\n      SWAP1 \t\t\tuteExists[i] && !votes[i].fina...\n      POP \t\t\tuteExists[i] && !votes[i].fina...\n      SWAP2 \t\t\t56 i = 1; i <= escrowContract....\n      SWAP1 \t\t\t56 i = 1; i <= escrowContract....\n      POP \t\t\t56 i = 1; i <= escrowContract....\n      JUMP \t\t\t56 i = 1; i <= escrowContract....\n    tag 681\t\t\ti].startTime && block.timestam...\n      JUMPDEST \t\t\ti].startTime && block.timestam...\n      PUSH [tag] 944\t\t\t        }\\r\\n            }\\r\\n...\n      DUP2 \t\t\t     \n      PUSH [tag] 680\t\t\t        }\\r\\n            }\\r\\n...\n      JUMP \t\t\t        }\\r\\n            }\\r\\n...\n    tag 944\t\t\t        }\\r\\n            }\\r\\n...\n      JUMPDEST \t\t\t        }\\r\\n            }\\r\\n...\n      DUP3 \t\t\t   \n      MSTORE \t\t\t+;\\r\\n                }\\r\\n   ...\n      POP \t\t\ti].startTime && block.timestam...\n      POP \t\t\ti].startTime && block.timestam...\n      JUMP \t\t\ti].startTime && block.timestam...\n    tag 487\t\t\t;\\r\\n    }\\r\\n}\\r\\n\n      JUMPDEST \t\t\t;\\r\\n    }\\r\\n}\\r\\n\n      PUSH 0\t\t\t\n      PUSH 40\t\t\t\n      DUP3 \t\t\t\n      ADD \t\t\t\n      SWAP1 \t\t\t\n      POP \t\t\t\n      PUSH [tag] 946\t\t\t\n      PUSH 0\t\t\t\n      DUP4 \t\t\t\n      ADD \t\t\t\n      DUP6 \t\t\t\n      PUSH [tag] 681\t\t\t\n      JUMP \t\t\t\n    tag 946\t\t\t\n      JUMPDEST \t\t\t\n      PUSH [tag] 947\t\t\t\n      PUSH 20\t\t\t\n      DUP4 \t\t\t\n      ADD \t\t\t\n      DUP5 \t\t\t\n      PUSH [tag] 633\t\t\t\n      JUMP \t\t\t\n    tag 947\t\t\t\n      JUMPDEST \t\t\t\n      SWAP4 \t\t\t;\\r\\n    }\\r\\n}\\r\\n\n      SWAP3 \t\t\t;\\r\\n    }\\r\\n}\\r\\n\n      POP \t\t\t;\\r\\n    }\\r\\n}\\r\\n\n      POP \t\t\t;\\r\\n    }\\r\\n}\\r\\n\n      POP \t\t\t;\\r\\n    }\\r\\n}\\r\\n\n      JUMP \t\t\t;\\r\\n    }\\r\\n}\\r\\n\n    tag 508\t\t\t\n      JUMPDEST \t\t\t\n      PUSH 0\t\t\t\n      PUSH 80\t\t\t\n      DUP3 \t\t\t\n      ADD \t\t\t\n      SWAP1 \t\t\t\n      POP \t\t\t\n      PUSH [tag] 949\t\t\t\n      PUSH 0\t\t\t\n      DUP4 \t\t\t\n      ADD \t\t\t\n      DUP8 \t\t\t\n      PUSH [tag] 647\t\t\t\n      JUMP \t\t\t\n    tag 949\t\t\t\n      JUMPDEST \t\t\t\n      PUSH [tag] 950\t\t\t\n      PUSH 20\t\t\t\n      DUP4 \t\t\t\n      ADD \t\t\t\n      DUP7 \t\t\t\n      PUSH [tag] 635\t\t\t\n      JUMP \t\t\t\n    tag 950\t\t\t\n      JUMPDEST \t\t\t\n      PUSH [tag] 951\t\t\t\n      PUSH 40\t\t\t\n      DUP4 \t\t\t\n      ADD \t\t\t\n      DUP6 \t\t\t\n      PUSH [tag] 647\t\t\t\n      JUMP \t\t\t\n    tag 951\t\t\t\n      JUMPDEST \t\t\t\n      PUSH [tag] 952\t\t\t\n      PUSH 60\t\t\t\n      DUP4 \t\t\t\n      ADD \t\t\t\n      DUP5 \t\t\t\n      PUSH [tag] 647\t\t\t\n      JUMP \t\t\t\n    tag 952\t\t\t\n      JUMPDEST \t\t\t\n      SWAP6 \t\t\t\n      SWAP5 \t\t\t\n      POP \t\t\t\n      POP \t\t\t\n      POP \t\t\t\n      POP \t\t\t\n      POP \t\t\t\n      JUMP \t\t\t\n    tag 515\t\t\t\n      JUMPDEST \t\t\t\n      PUSH 4E487B7100000000000000000000000000000000000000000000000000000000\t\t\t\n      PUSH 0\t\t\t\n      MSTORE \t\t\t\n      PUSH 21\t\t\t\n      PUSH 4\t\t\t\n      MSTORE \t\t\t\n      PUSH 24\t\t\t\n      PUSH 0\t\t\t\n      REVERT \t\t\t\n    tag 539\t\t\t\n      JUMPDEST \t\t\t\n      PUSH 0\t\t\t\n      PUSH 20\t\t\t\n      DUP3 \t\t\t\n      ADD \t\t\t\n      SWAP1 \t\t\t\n      POP \t\t\t\n      PUSH [tag] 955\t\t\t\n      PUSH 0\t\t\t\n      DUP4 \t\t\t\n      ADD \t\t\t\n      DUP5 \t\t\t\n      PUSH [tag] 647\t\t\t\n      JUMP \t\t\t\n    tag 955\t\t\t\n      JUMPDEST \t\t\t\n      SWAP3 \t\t\t\n      SWAP2 \t\t\t\n      POP \t\t\t\n      POP \t\t\t\n      JUMP \t\t\t\n    tag 560\t\t\t\n      JUMPDEST \t\t\t\n      PUSH 0\t\t\t\n      PUSH [tag] 957\t\t\t\n      DUP3 \t\t\t\n      PUSH [tag] 628\t\t\t\n      JUMP \t\t\t\n    tag 957\t\t\t\n      JUMPDEST \t\t\t\n      SWAP2 \t\t\t\n      POP \t\t\t\n      PUSH [tag] 958\t\t\t\n      DUP4 \t\t\t\n      PUSH [tag] 628\t\t\t\n      JUMP \t\t\t\n    tag 958\t\t\t\n      JUMPDEST \t\t\t\n      SWAP3 \t\t\t\n      POP \t\t\t\n      DUP3 \t\t\t\n      PUSH [tag] 959\t\t\t\n      JUMPI \t\t\t\n      PUSH [tag] 960\t\t\t\n      PUSH [tag] 442\t\t\t\n      JUMP \t\t\t\n    tag 960\t\t\t\n      JUMPDEST \t\t\t\n    tag 959\t\t\t\n      JUMPDEST \t\t\t\n      DUP3 \t\t\t\n      DUP3 \t\t\t\n      DIV \t\t\t\n      SWAP1 \t\t\t\n      POP \t\t\t\n      SWAP3 \t\t\t\n      SWAP2 \t\t\t\n      POP \t\t\t\n      POP \t\t\t\n      JUMP \t\t\t\n    tag 682\t\t\t\n      JUMPDEST \t\t\t\n      PUSH 0\t\t\t\n      DUP2 \t\t\t\n      SWAP1 \t\t\t\n      POP \t\t\t\n      SWAP2 \t\t\t\n      SWAP1 \t\t\t\n      POP \t\t\t\n      JUMP \t\t\t\n    tag 683\t\t\t\n      JUMPDEST \t\t\t\n      PUSH 0\t\t\t\n      PUSH [tag] 963\t\t\t\n      PUSH [tag] 964\t\t\t\n      PUSH [tag] 965\t\t\t\n      DUP5 \t\t\t\n      PUSH [tag] 682\t\t\t\n      JUMP \t\t\t\n    tag 965\t\t\t\n      JUMPDEST \t\t\t\n      PUSH [tag] 676\t\t\t\n      JUMP \t\t\t\n    tag 964\t\t\t\n      JUMPDEST \t\t\t\n      PUSH [tag] 634\t\t\t\n      JUMP \t\t\t\n    tag 963\t\t\t\n      JUMPDEST \t\t\t\n      SWAP1 \t\t\t\n      POP \t\t\t\n      SWAP2 \t\t\t\n      SWAP1 \t\t\t\n      POP \t\t\t\n      JUMP \t\t\t\n    tag 684\t\t\t\n      JUMPDEST \t\t\t\n      PUSH [tag] 967\t\t\t\n      DUP2 \t\t\t\n      PUSH [tag] 683\t\t\t\n      JUMP \t\t\t\n    tag 967\t\t\t\n      JUMPDEST \t\t\t\n      DUP3 \t\t\t\n      MSTORE \t\t\t\n      POP \t\t\t\n      POP \t\t\t\n      JUMP \t\t\t\n    tag 565\t\t\t\n      JUMPDEST \t\t\t\n      PUSH 0\t\t\t\n      PUSH 40\t\t\t\n      DUP3 \t\t\t\n      ADD \t\t\t\n      SWAP1 \t\t\t\n      POP \t\t\t\n      PUSH [tag] 969\t\t\t\n      PUSH 0\t\t\t\n      DUP4 \t\t\t\n      ADD \t\t\t\n      DUP6 \t\t\t\n      PUSH [tag] 684\t\t\t\n      JUMP \t\t\t\n    tag 969\t\t\t\n      JUMPDEST \t\t\t\n      PUSH [tag] 970\t\t\t\n      PUSH 20\t\t\t\n      DUP4 \t\t\t\n      ADD \t\t\t\n      DUP5 \t\t\t\n      PUSH [tag] 633\t\t\t\n      JUMP \t\t\t\n    tag 970\t\t\t\n      JUMPDEST \t\t\t\n      SWAP4 \t\t\t\n      SWAP3 \t\t\t\n      POP \t\t\t\n      POP \t\t\t\n      POP \t\t\t\n      JUMP \t\t\t\n    tag 580\t\t\t\n      JUMPDEST \t\t\t\n      PUSH 0\t\t\t\n      PUSH A0\t\t\t\n      DUP3 \t\t\t\n      ADD \t\t\t\n      SWAP1 \t\t\t\n      POP \t\t\t\n      PUSH [tag] 972\t\t\t\n      PUSH 0\t\t\t\n      DUP4 \t\t\t\n      ADD \t\t\t\n      DUP9 \t\t\t\n      PUSH [tag] 647\t\t\t\n      JUMP \t\t\t\n    tag 972\t\t\t\n      JUMPDEST \t\t\t\n      PUSH [tag] 973\t\t\t\n      PUSH 20\t\t\t\n      DUP4 \t\t\t\n      ADD \t\t\t\n      DUP8 \t\t\t\n      PUSH [tag] 647\t\t\t\n      JUMP \t\t\t\n    tag 973\t\t\t\n      JUMPDEST \t\t\t\n      PUSH [tag] 974\t\t\t\n      PUSH 40\t\t\t\n      DUP4 \t\t\t\n      ADD \t\t\t\n      DUP7 \t\t\t\n      PUSH [tag] 647\t\t\t\n      JUMP \t\t\t\n    tag 974\t\t\t\n      JUMPDEST \t\t\t\n      PUSH [tag] 975\t\t\t\n      PUSH 60\t\t\t\n      DUP4 \t\t\t\n      ADD \t\t\t\n      DUP6 \t\t\t\n      PUSH [tag] 633\t\t\t\n      JUMP \t\t\t\n    tag 975\t\t\t\n      JUMPDEST \t\t\t\n      PUSH [tag] 976\t\t\t\n      PUSH 80\t\t\t\n      DUP4 \t\t\t\n      ADD \t\t\t\n      DUP5 \t\t\t\n      PUSH [tag] 636\t\t\t\n      JUMP \t\t\t\n    tag 976\t\t\t\n      JUMPDEST \t\t\t\n      SWAP7 \t\t\t\n      SWAP6 \t\t\t\n      POP \t\t\t\n      POP \t\t\t\n      POP \t\t\t\n      POP \t\t\t\n      POP \t\t\t\n      POP \t\t\t\n      JUMP \t\t\t\n    .data\n"
}